:100000004D424E014D3448300106040001002200EB
:100010006000000000C000000000000000000000C0
:100020000000EEEE000000000000000000000000F4
:1000300001000106000000000000000000000000B8
:100040000200110100002D000000000000B40000BB
:10005000030011012D00300000B40000000C00006E
:10006000001C0020ED020000000000000000000065
:100070000000000000000000000000000000000080
:100080000000000000000000000000000000000070
:10009000000000000000000000000000B5010000AA
:1000A000E1010000FD010000B9010000CD010000E8
:1000B00000000000002934D00123002210B488423F
:1000C0002CD301242407A14204D2814202D2090187
:1000D0001B01F8E7E400A14204D2814202D24900A8
:1000E0005B00F8E7884201D3401A1A434C08A0424B
:1000F00002D3001B5C0822438C08A04202D3001BE1
:100100009C082243CC08A04202D3001BDC082243F7
:10011000002803D01B0901D00909E3E7101C10BC1B
:100120007047002801D00020C04307B4024802A154
:100130004018029003BDC046D90000000029F0D04D
:1001400003B5FFF7B9FF0EBC4243891A1847C046F2
:10015000002941D010B4041C4C40A44601230022C5
:10016000002900D54942002800D5404288422CD3BE
:1001700001242407A14204D2814202D209011B01B9
:10018000F8E7E400A14204D2814202D249005B00B8
:10019000F8E7884201D3401A1A434C08A04202D320
:1001A000001B5C0822438C08A04202D3001B9C0861
:1001B0002243CC08A04202D3001BDC0822430028C3
:1001C00003D01B0901D00909E3E7101C6446002C89
:1001D00000D5404210BC7047002806D003DB002049
:1001E000C043400801E08020000607B4024802A195
:1001F0004018029003BDC046190000000029EBD052
:1002000003B5FFF7A7FF0EBC4243891A1847C04643
:100210007047C046FEE70000034B01225A70A0233E
:100220000022DB051A70704784090020034B01226D
:100230009A70A0230022DB059A7070478409002081
:1002400008B5044B01221A70034B0022DA7700F044
:100250005DFD08BD840900200800005038B58025E8
:10026000ED052B79DBB2002B0CD130490B604B60D4
:100270002B89081C9BB28B608A680C30103107F008
:10028000D1FC47E0012B0DD1284BD968002941D082
:100290005A68186982423DDA5A68501C58602B7AB5
:1002A0008B5437E0022B30D1204CE368002B2AD04E
:1002B000226821698A420CDA22689B5C1BBAEB60D7
:1002C000A3682068C01880B207F008FD23680133D6
:1002D00017E0A2682368201C211CD2180C301031B2
:1002E00007F0A0FCE368002B0DD0A16822688A18F3
:1002F000A2601B781BBAEB60A06880B207F0EEFC2E
:100300000123236006E0EB6004E0032B02D1074BDE
:1003100000225A60C0468023DB0501221A70C046C5
:1003200002221A7000221A7038BDC046D002002086
:1003300080230222DB05FF321A600421024AFF31CA
:10034000118000221A70704706000040F8B5A02303
:10035000DB059B684A4A1F21DBB21160D12B0BD011
:10036000D02B01D80133DBB2A022D2059168FF2047
:10037000814319439160F1E70023424A42499A18A8
:100380008A4204D24149C95804331160F5E7404B11
:10039000404A191D043B934203D200221A600B1CF1
:1003A000F6E7EFF308823C4B191D043B9A4203D950
:1003B0003A4818600B1CF7E7FFF7BAFF384939488D
:1003C000053989B280B204F035FD374C374D012331
:1003D0005B4223716371A371E3712B1C3C331A7868
:1003E0002B1C3D331B781B02134398423FD107F06F
:1003F00001FC2F4B2F4918882F4A88420BD06E7D65
:1004000018882B7D36023343984204D113889BB25F
:1004100023711B0A637113888B421BD0EE7DA87D6C
:10042000138836023043834214D100200423013B59
:10043000DBB2FF2B07D0214EEF18F65C3F79B742B5
:10044000F5D10120F3E7002804D013889BB2A371F3
:100450001B0AE371637922791B0213438B4206D096
:10046000E279A37912021A43124B9A4204D1144B37
:1004700002221A6062B6FEE700F082F8F7E7C04693
:100480002800005000000020D002002040A70000FB
:10049000D40200207D090020F8090020CDCDCDCD6B
:1004A00000C000000000000088090020C0BF00005C
:1004B000FEB30000FFFF0000BEBF000000B400005C
:1004C00000E100E0014B18607047C0469009002031
:1004D000014B18687047C04690090020014B186016
:1004E0007047C04694090020014B18687047C04609
:1004F00094090020014B18687047C0460000002096
:1005000038B5114C256805F07FF8A862256805F01C
:100510007FF8E862256805F07FF86861256805F0D6
:100520007FF8A861256805F08FF8084923680968F5
:100530001A1CE8320E31E861116002221A67D033CA
:1005400003221A6038BDC046000000209409002034
:1005500008B502F03DFE021E05D10749A9230B7123
:1005600007F0F0FAFEE7054B1B6803CB04F0F2FC42
:10057000FFF7C6FF08BDC046F3040020C0020020FC
:1005800037B507F071F96C460734207009F002FFA7
:1005900009F060FF02F0F8FDFFF7DAFF07F064F9F9
:1005A000051C0E2800D90E25E8B2034B8200D35853
:1005B000211C98472570F1E7040000200F4B3221E1
:1005C0001B680022D9676420191D9A670431886767
:1005D000CA6702208031086001204860181C012190
:1005E000943049420160826001618261A83304381D
:1005F0000160826001611A607047C04600000020FF
:10060000F7B500AF3960786005F0C8FA83000A33A7
:10061000DB08DB006946C91A8D46041C684605F0F4
:10062000C5FA63000833DB086D46DB00EA1A95461D
:10063000684605F0D9FA00226E46111C013C06D32B
:10064000A300EB58C9186300F35AD218F6E72C4CF4
:10065000022025682B1C8C331C1C0C3C266801389E
:10066000632E0ADD002626600126B44676429E608F
:1006700000261E6166464640AE6726680136266043
:100680001C698C4200D219619E688E4200D9996023
:100690001C68012C09DD1B4E00241C609E611C623D
:1006A00001262C1C08344640E6671C681E6A01348B
:1006B0001C60964200D21A629C69944200D99A61E9
:1006C000043B0028C8D10E4E7C6833683E68996FA1
:1006D000BD468A009A18111C983190320968126838
:1006E0008A1A22801A1C0832D26F92009B181A1C98
:1006F000A832A03312681B68D31A3380F7BDC046F6
:1007000000000020FFFF0000F0B585B01F1C0AAB01
:100710001B78151C01910393041C04F00BFB1E4B6A
:10072000281C1B680021DA68920009F035FF019E41
:10073000002E0CD0201C05F099F8184B281C1B68C3
:10074000391C5A69002307F067FC013EF0E7002CD2
:100750000FD1124B1B685F69DB69029304F042FF03
:10076000061C04F049FF0299031C321C381C07F0D8
:100770003BFB281C0021019A07F0A2FC039B012BE4
:1007800008D1002C06D1054B201C1D6805F0A0F9EE
:10079000EC35286005B0F0BDC0020020000000204C
:1007A000F0B589B0059106920793049007F0FEFA20
:1007B000234B80791B6802905A699B6905985A43BC
:1007C0000021920009F0E8FE029F013F7A1C2BD025
:1007D000049805F04BF81A4B1E6872690192019B50
:1007E000013B0393F1D3B469164B059AE518039BBB
:1007F0006343ED18AD005519013C13D3B368019A5A
:100800005343E3180133069A9B0098582B68181835
:100810002860002F04D10299FFF74CFC00042860E7
:10082000043DE9E7039AD9E7079B012B06D1064B64
:1008300004981C6805F04CF9F034206009B0F0BD54
:10084000C0020020FFFFFF3F0000002030B5214D17
:1008500085B02B681A1CCE321178663A002904D173
:10086000191CB0310978002901D0002111701478C9
:10087000002C1DD0D96E002001919A6B164902926E
:100880001B6B01AA039303234B707C235B42CB7049
:1008900010230B7107F056F92B680024DA6E196FDC
:1008A0008A4202DC0132DA6610E0DC6601240DE0E7
:1008B0009A6B1B6B0949019202930920642301AAD8
:1008C0000B71039407F03EF92B68DC66201C05B021
:1008D00030BDC04600000020740000207B000020D6
:1008E000F0B56D4E93B0336804AF1C683A610434C0
:1008F0006400221C0832D2086946D200F860881AC7
:100900005A68854604325200131C0833DB08DB00AA
:10091000C01A04AD8546B96004A97961081C00219C
:1009200009F03AFE221C281C002109F035FE5B4C20
:10093000F86823685A69191CDB690090281D01902A
:100940007869303104300290386903F02BFB33684A
:1009500078609A6891001A68236801324A4358699E
:10096000002109F019FE2068436D6430036008F02F
:10097000C9FC2368586900957A69191C01925C3199
:100980003A69303303F062FCBB689D4607F026FAF3
:10099000051C07F061FD2B7B002B0CD05C3003782D
:1009A000002B08D122682423FF33D35C012B02D013
:1009B000012004F0E9FB336839495A6818684A7025
:1009C0009A68CB787F250870AB43022080240343CC
:1009D00064422343CB7053238A700B7101323B690D
:1009E00052009A18012007F0ADF8381C002120228F
:1009F000183009F0D1FD3368186859689A6838765C
:100A00007976BA760533DB7F3969FB767B7F022006
:100A1000AB430132034352001C438A187C77391CD4
:100A200000920022131C0120183107F051F802F047
:100A3000AFFB1A4C00222368F4331A70FFF706FF4D
:100A4000002825D12368586904F0B8FF2568281CC0
:100A5000291C5C31303003F0DBFB23682866186EFC
:100A600004F00AFF04F078FD7A68002A07D12368B1
:100A7000F8681A1C30321B68396907F01DFA022029
:100A800004F0B0FB2068643008F03CFC052000E076
:100A90000420BD460FB0F0BDC002002000000020C1
:100AA000EC040020F0B59400231C0A3385B0DB0869
:100AB000DB006946C91A02AF8D4602AA061C7A609D
:100AC000101C0021221C09F067FD231C0833DB08E1
:100AD000DB006946C91A8D4602AD281C221C002184
:100AE00009F05AFD0C4C301C2368D96A9A6A5C33B1
:100AF00000910193291C7B6808F026FC301C02F051
:100B000099FB2368301C9A6ADB6A291C00937B6876
:100B100007F09CFEBD46F7BD0000002070B50C1C20
:100B2000151C1E1C08F0E4F80B4B201C1B68996A6E
:100B3000DA6A08F0D9F9201C08F0B8FD201C08F08A
:100B4000CDFA291C321C201C08F06AFB291C201C31
:100B500003F098F970BDC0460000002038B509F0D8
:100B6000C9FB051C012009F0D9FB041C281C04F05A
:100B7000C9F8201C04F0D2F838BD38B509F0A6FC3D
:100B800009F0C0FB051C002009F0C8FB041C281C50
:100B900004F0B8F8002004F0BBFE201C04F0BEF8FE
:100BA00004F0D4FA38BD10B5A4B08C22041C002186
:100BB00001A809F0F1FC01A8211C08F071FB08F064
:100BC00099FB01A8211C02F0A5FB24B010BD000078
:100BD000F8B5071C07F040FC484E34682379002B19
:100BE00002D0012B2CD065E0454A211C1268EC3163
:100BF00012780D68816E2260002905DC2169414B65
:100C0000994202D02369013323612369934251DD64
:100C1000C36E002B4ED1221C74321370391CA26992
:100C20000420FFF7BDFD04F007FB012004F01EFEC9
:100C300004F05AFC0123922231689A408B542CE034
:100C40002F4B1F687B782360231CF0331D682069BD
:100C5000198B0130FFF7D2FA002906D12369002B46
:100C600003DD231CEC331B68ED18231CFF33DB7AF8
:100C7000012B0AD13B7802222360231CEC331D6830
:100C800092235B00E254002307E022691D4B9A4245
:100C900010D02369013323610CE031680022081C65
:100CA000FF30C2720B710A6117490E33101C0B71B1
:100CB00006F048FF3368186804F0D6FF041C281CAF
:100CC00004F0F6FF241A0120002C08DD33681868B0
:100CD00004F0CAFF041C281C04F0EAFF201A316843
:100CE000922252008B5C012B02D100208854181CE8
:100CF00004F04AFA04F06AFAF8BDC0460000002089
:100D000094090020FFFFFF7FF304002008B50B4B80
:100D100024221B68FF329A5C002A0DD11A79012A1D
:100D200005D1FF33DB7A0420002B05D102E0002A35
:100D300002D1022004F072FD08BDC0460000002070
:100D4000F0B587B007F04AF8071C07F085FB816E05
:100D5000A34B002906D1046F621E9441E4B2002C1B
:100D600005D000E001241A680021B83205E01A68B5
:100D7000B8321168FE2901DC013111601B680021C5
:100D80001A1CCC3215881180183A029511708C42C9
:100D900004D094490968C97C002958D0181CB33084
:100DA0000178C9B2002908D003785BB2022B00D0C9
:100DB00001231370002303700EE11E1CB03635783A
:100DC000002D09D0012515701A1CB132BC330170F9
:100DD00031701170196000E1002C38D1191CBC3140
:100DE0000D68002D08DD013D012D01D00D602EE0C4
:100DF00003230C601370F0E01A1CE83212681188AB
:100E0000794A914223D01A1CC8321188774A126855
:100E1000D2898A421BD8734D2868027C181CB830CE
:100E20000068904213DB05AA1180CA331B88704901
:100E3000538002234B70CB70201C15230B7106F0DE
:100E400081FE674B2A681B68527CBC331A60654E72
:100E50003368987C002800D0BEE0614D002C22D180
:100E60002A689B7FC43212689A4214DB61491223BC
:100E7000201C221C0B7106F065FE2A683068131CCA
:100E8000C033196801311960C07F814203DB1C60E7
:100E9000B432022313702A680023111CB231C43209
:100EA0000B7013603DE02B681A1CBC3210602A32B4
:100EB0001278002A35D0191CC831098805AA11807A
:100EC000CA331B884A49538002234B70CB701923C5
:100ED0000B7106F037FE2B683268191CC8310D887B
:100EE000908B1639854214D2181CCA300588108D93
:100EF00085420ED2908D029D85420ADA097800293A
:100F00000FD1C4331968927F91420ADA0131196016
:100F100007E001220A70191C0022C431C0330A60A4
:100F20001A602F4E3268131CE6331B78002B53D106
:100F30003B7B002B4ED0131CB0331D78002D4BD1C2
:100F4000284F106B3B683A689B8A118B9C463B6824
:100F5000528BDB8A0093634606F0E2FE3B68039007
:100F60009B8C32689C463B68106BDB8C3A68118C1A
:100F7000528C0093634606F0D3FE33681A1CC832C5
:100F80001188039ACA33914207DA1A88824204DA36
:100F90003A680298528D904210DB05AA11801B8896
:100FA0001349538002234B70CB70002017230B7121
:100FB00006F0C8FD33680122B1331A7033681A1C79
:100FC000B1321278002A07D0002C05D0B0330122AC
:100FD0001A7002E0B13213700125281C07B0F0BD71
:100FE0000000002090090020FFFF0000940900206D
:100FF00074000020F3040020F0B58FB000AF396119
:10100000061C03F091FE786103F082FE9C4DB860EF
:101010002C686846E268131C0E33DB08DB00C01A3C
:10102000854660686B461218FB62131C0E33DB08A2
:101030006946DB00C91A53000E33DB08DB008D461E
:10104000C91A684679628D460021786309F0A4FACE
:10105000E06861684218012152004942786A09F04B
:101060009BFA2369E2688749D2189200386909F02F
:1010700093FA2B68F86ADA68796909F04BFA002E5E
:1010800014D17F4D804C2B6808201A681B79227080
:101090006370A3707F235B42E370211CD223FA6A42
:1010A000237106F04FFD2B681B68BCE0402400252F
:1010B000FC61BD6200210122F86A05F089F8032075
:1010C00004F0D4FB6E4C704923681E6858689A6817
:1010D0000423CB7051230B716C4B8A701B68013257
:1010E0005B69920048709A1802200E7006F02AFD83
:1010F00023681B683B63396B614B0139B96100D2CE
:1011000081E01B6859688C466646013EB44677D339
:101110005B4BBA6918683C6943685D4D534363444F
:101120009A00A2181168A942EED03E6B8068574C15
:1011300070432468604464690130800000595E0097
:1011400084B23C62201CA14203D87D6A611AA95373
:1011500020E07C6AA6190025745F7E60013414D0FB
:101160007E6BF41825786EB2FE60013601DA013527
:1011700003E0FE68002E08DD013DBB6A44480133F0
:101180009BB22570BB6210602CE07D6BEC1825785B
:10119000002D01D110600CE06DB26E1C05D1386AD3
:1011A0007A68091A1180002202E0012D01D1FF2284
:1011B00022707C6BE1180A7850B2002806DC7D6A48
:1011C0005800405F013007D0002A05D1FE6A013285
:1011D000F3563E2B05DD05E0FC6AE356002B01DDEE
:1011E000013A0A70264BBD691B687E6B5B687C699F
:1011F0006B436344F15CE25CFD6A8A18EA5483E75E
:10120000B869386377E71B68BC6ADA681B69D3186A
:101210009C4200DB35E7FB69013BDBB2FB61002B45
:1012200000D047E72DE7013B11D32A685268013A05
:10123000F9D32968FE6A4968594389187118BE684C
:10124000F0183F300E78007830180870EFE7F86A31
:101250000021012204F0BCFF2B68211C18681B79B7
:1012600020706370A3707F235B42E37008201D230E
:10127000FA6A237106F066FCBD460FB0F0BDC046A9
:10128000C0020020FFFF0000EC040020000000204E
:10129000FEFF000038B5051C0C1C03F039FD34308E
:1012A0000078211C434258412840FFF7A5FE38BD75
:1012B000F0B5404C87B000AF2668B960051C06F059
:1012C000E9FA2423FF332168F054CA5C3A4C002A1F
:1012D0000FD123680A209862F4311020D8620A7076
:1012E00009F058F809F0B6F8FFF732F904F07CFB82
:1012F00012E006F067FD0026067009F0A1F82368E9
:1013000003CB03F027FEFFF7FBF8236802221A62E3
:101310009A6206221E61DA622368D8699C6A82009A
:10132000111C0A31C908C9006846401A786185460F
:1013300059681868E600414389000A31C908C900A4
:101340006846331C401AA4000833C11A231C083312
:10135000DB08DB0085468D467860C91A684638612F
:101360008D46F9607869002109F016F9321C386958
:10137000002109F011F9221CF868002109F00CF98C
:101380000E4B00229A603A6978687969DA60094AF6
:101390001860F8685960126824211861FF31525CA6
:1013A000074990004458281CB968A047BD4607B0BB
:1013B000F0BDC04600000020C002002098090020B7
:1013C0004000002010B5041C06F0E0FA06F04CFACC
:1013D000A042FBD008F0BAFFFFF7BAF806F0FEF81B
:1013E00010BD0000F7B500AF051CFFF7B7FBFFF716
:1013F0007BF82C4B041C1B68DE8906F0FBF96B465E
:1014000000207B6004F084FA04F04AFA264B1B6843
:1014100031331B78002B04D00020E081291C00F020
:101420002BFB04F0BDF8C0B206F0D8FBFFF768F85C
:101430001E4B01201B68DA681B69D3189B000A3316
:10144000DB08DB006A46D21A95466946FFF722FFA1
:101450007B689D4606F09AFA06F0A2FA052815D098
:1014600004D8002814D003280AD806E006280AD099
:10147000031C113BDBB2022B0AD801F04DFC07E044
:1014800005F05CF904E003F061FE01E003F04CFEBE
:1014900006F0EAF9A842DFD0FFF76FFBBD46E68110
:1014A000F7BDC0469409002090090020C00200202A
:1014B00098B500AF041C06F069FA0B4B01201B68BD
:1014C000DA681B69D3189B000A33DB086A46DB0025
:1014D000D21A95466946FFF7DDFE06F0C5F9A0422F
:1014E000FBD0BD4698BDC046C002002010B5041C0C
:1014F00006F04CFA01F00EFC06F0B6F9A042FBD063
:1015000010BD10B5041C06F041FA04F0F5FA06F01F
:10151000ABF9A042FBD010BD10B5041C06F036FAA2
:101520000220211C00F0A8FA06F09EF9A042FBD090
:1015300010BD10B5041C06F029FA0120211C00F092
:101540009BFA06F091F9A042FBD010BD10B5041C27
:1015500006F01CFA002004F089F904F0E7F906F01F
:1015600083F9A042FBD010BD10B5041C06F00EFAA2
:10157000002003F0E1FC002004F078F904F0D6F933
:1015800006F072F9A042FBD0012003F0D5FC10BD9B
:10159000F0B5A3B002AF386106F0F8F9002008F00A
:1015A0008FFF08F057FF002004F0B2F95B4C69464A
:1015B00023685D6818681B694543EB180733DB082F
:1015C000DB00C91A8D4602AAFA6103F0ADFB03F0F5
:1015D0009FFBFB695D19181C291C7D6104F01EFB33
:1015E00023686C465A681B69D3189B000A33DB08D2
:1015F000DB00E41AA54602ACBC6106F0C7F9381C52
:1016000000212022203008F0C7FF444C202023680E
:10161000012519681A79C15521202221C255CA55C0
:101620000533DB7F25202322D355C35D7F229343DF
:10163000FA692B43C1190B7000920022131C04207D
:10164000053906F045FA79692A1CF86904F0C0FDED
:10165000002004F00BF92568B8696E682B69B400A6
:101660009B199C462E4B04191968BC6000236345E6
:101670000CDA9A00B34203DACC69B869A45802E0E4
:101680004C6AB868A45884500133F0E73C1C4034DD
:10169000201C0021202208F07FFF2968AB68217000
:1016A0006670A3700535EA7F7F26E27062790425B3
:1016B000B2432A4362711A4A013312689B0052698D
:1016C000211CD3180022203400930220131C06F0A2
:1016D000FFF9201C0021202208F05EFF0123237067
:1016E0000E4B211C1B6810201A7905336270A27002
:1016F000DB7FBA69E3706379B3431D436571009280
:101700000022131C06F0E4F906F0AEF83C69A04292
:1017100000D174E7BD4621B0F0BDC046C002002034
:101720000000002010B5041C06F030F906F09CF80B
:10173000A042FBD010BD0000F0B58BB000AFB86187
:1017400006F034FB584C6E4623689D68DB687D626A
:101750005A00111C0E319B00C9080E33C900DB086A
:10176000DB00761AB546F61A6D4600216846B54686
:101770007D61FE6008F010FF002004F077F87E6ABB
:101780004A4A20681568B20052420368BA60321CA7
:101790005A439100F961B107711A79609107891A6A
:1017A0003A62013B23D344683E6A3219261C5E43E9
:1017B0007618B400FE68920034193C61FC69A242BC
:1017C0000BD03C690426A418A4466C697642A45840
:1017D000B44466463460043AF0E7BE683A6AA41935
:1017E000FC617C6A7E68121B3A628919D9E7BC6980
:1017F0000B2C55D1002004F039F82B4B19682B4BDA
:1018000008681C687B6AB86143439A003A629A0789
:10181000D21A3A61FB61844666464A68013EB44684
:101820002ED365465543FE692148B3181218521944
:101830007E6938695200B2182D18FE68AD0075191E
:101840009B003D603E6AB3420ED03D68E818656972
:1018500004380668E858301A0025565F864200DAD8
:101860001080043B023AEDE7BD6876193E627D6A5E
:10187000FE69761BFE617D683E6976193E61CBE7A5
:101880000C49B8697E23D2B25B4208704A708A70F4
:10189000CB70012052237A690B7106F053F9A9E746
:1018A000BD460BB0F0BDC046C002002000000020C5
:1018B000FFFFFF7FEC04002010B5041C06F066F863
:1018C000201CFFF739FF05F0CFFFA042F8D010BD74
:1018D000F0B5037887B0041C012B34D103F00CFA67
:1018E0001A4E071C6468356805F0E2FFFF35A871E1
:1018F00004AD281C06F016F8684605F0DFFFB23785
:10190000201C69460F2208F005FE3B88002B03D0FF
:101910001A0A237162716B8033682178DA1DFF32F5
:101920001170FF33049A98796B6805F03BF93368BE
:10193000FF33DC796408201C05F0C8F9201C05F091
:10194000B9FB04F051F8012007B0F0BD0000002001
:1019500008B5416803780A4A0A4812680068E83204
:101960000E301060002B03D0C9B2002000F084F8C4
:1019700003F016FEC0B206F031F9022008BDC046E1
:10198000000000209409002008B5036800790028B1
:1019900005D101201968FFF77DFC032004E0013820
:1019A000434243410520C01A08BD0000037A70B5C8
:1019B00006784568002B05D0012B06D104F014F8F9
:1019C000002303E00123042401E001230524044A49
:1019D00070B21268291C9269FEF7E2FE201C70BDED
:1019E00000000020037BF7B504680679057A052717
:1019F000012B02D103F0F8FF032706F0E3F976B2DA
:101A000041782268301CA3680095FEF77DFE381CE3
:101A1000FEBD0000F0B5174B87B01A682423FF33D2
:101A2000D25C0C1C076846688568C368002A05D12B
:101A3000F8B2311C2A1C00F025FB16E05A78197800
:101A400012020A439978FFB209040A43D97868461A
:101A50000906114305910B22191D08F05BFD381C86
:101A6000311C2A1C059B01F065F82070207807B016
:101A7000F0BDC04600000020F0B5CB4C9DB000AFDB
:101A8000F86320687960407C43000133FB6578632C
:101A900003F076FD236878665B7CFF22D31A9842B8
:101AA00000DD7B66786E7C6B041B3C636C4603F048
:101AB0006FFDBC65FC6D684665002B1C0833DB08B8
:101AC000BA4CDB00C01A012363707C235B423A1CD2
:101AD0008546E370211CB1230020643223716E46D9
:101AE00006F030F80023211C3C6B5A001819FC6DDD
:101AF0000133B052A342F7DB0223CB70321CE4B2B5
:101B0000632300204C700B717C6406F01BF82B1CC7
:101B1000BC6D0833A546DB08DB006846C01A854665
:101B2000C01A6C468546BC65386404F037F8F86125
:101B3000012003F0B9FB00212A1C386C08F02CFDB1
:101B4000B86D00212A1C08F027FDFC6D6846A40032
:101B5000231C0A33DB08DB00C01A8546C01AFC626E
:101B600078626C468546C01A8546BC626C46BC618C
:101B7000FC69A400BC600024FC640021FA6AB86A15
:101B800008F00AFD786AFF21FA6A08F005FD0024D2
:101B9000854BBC641B68BC6C1B7C9C4251DA3C6B63
:101BA0000026E4B2201C7C6103F0FFFC03F0C8FCBB
:101BB00003F070FBBC697D6A3C62BC6AF86D01365B
:101BC000F217C30F86425341DBB23B61002B06D1B3
:101BD00079698819C0B203F0E8FC03F0B1FC6B46E8
:101BE000FB60BB686A460A33DB08DB00D01A854617
:101BF0006A467A6503F0DAFF0020031CFA69934213
:101C000005DA796D9A008A5801338018F6E723685F
:101C1000984200D920602968884200D2286003F0E9
:101C20002DFB3A6A043501C23A62FB6838699D4669
:101C30000434002802D103F02DFBBFE7BC6C013453
:101C4000A6E700255A4E2C1CB96A7A6AA300C85828
:101C5000D358C01A864204DD3B6B061CE318BB63F5
:101C60003C65854200DA051C03F008FBB96DFA6D8E
:101C700063000134C8529442E6DB281C03F0FEFAEC
:101C8000494B1B68DB89984206DAFC6B012C03D0B8
:101C90007C6EBC637C6B3C65FEF790FCFC6B012C9E
:101CA00021D13A6C0023BC6D5900615A10888842DA
:101CB00000D21180FC6D01330232A342F3DB3C6D94
:101CC00063003C6C1A5BFC6C131CA24200D2231C08
:101CD00036499BB27C6CFB64002002234C70CB70B5
:101CE00008713A6C19E0F86B304C022808D1796C15
:101CF000042300206170E3702071211CBA6927E081
:101D0000281C03F0BBFA7A6C80B2F864627002237C
:101D10000020BA6DE3702071211C05F013FF3C6DAB
:101D20006823DC53BC6B6A20C4533C6D6E21630096
:101D3000BC6D6C201B5BFC6CC353CC531B49042350
:101D40004B700223CB703A1CB2230B710020683217
:101D500005F0F8FE174E3C6D32686300111CE83147
:101D6000BC6D09681B5B09888B4227D9002925D0E7
:101D700008F0ACFB041C08F0E1FAC379051C002B49
:101D800006D0012005F01EFF3368E8331D6027E010
:101D9000002C25D1084B1B689B7C002B20D10120F7
:101DA00005F004FF1CE0C0469409002074000020E8
:101DB000FFFFFF7F0000002090090020E73212782B
:101DC000002A0DD00E4C2068C2899A4208D9002002
:101DD00005F0F8FE0B4B22681B680E32E8331A60E0
:101DE000FC6B002C06D1BC6BE0B203F0DEFBBD4601
:101DF0001DB0F0BD7B68063B012B00D8BDE6F2E7C5
:101E00009409002000000020F0B585B000920391F5
:101E1000029008F05BFB061C05F098FD071C05F01E
:101E20009DFD724D01902B681A1CE4321278BA4263
:101E300020D0002F08D06E4900203B23021C0B71DC
:101E4000022605F07FFE10E00199052400290DD13E
:101E500067493C23381C3A1C0B7105F073FE2B6854
:101E6000E6331E78731E9E41F6B201242B68E433DC
:101E70001F701DE01A1CE532127801998A4216D0B3
:101E8000002906D1E6331E78731E9E41F6B23A232E
:101E900001E03923022656490020021C0B7105F08F
:101EA00051FE2B68019AE5331A70012400E00524E5
:101EB00005F0E2FC071C05F041FD009B032B02D05E
:101EC000002F03D107E00124002F36D0002005F0B9
:101ED000DBFC012431E02B68E4331F88002F2CD178
:101EE0000099012902D0022904D00EE0009805F0E3
:101EF0005DFE0AE0381C05F059FE2B68E7331B78BD
:101F0000002B02D0381C05F05DFE05F049FE2B6861
:101F1000071CE6331B7883420FD0002802D0112320
:101F2000012601E01223061C31490020021C0B711E
:101F300005F008FE2B68E6331F7008F0C7FAB042C0
:101F400038D008F0C3FA08F0DDF9071C301C08F09F
:101F5000D9F9009008F0BAFA301C08F0B1FA08F08C
:101F600079FA244B1B68DB7C002B0FD0012C0DD0A1
:101F7000009B3A1C363236330298039906F070F80B
:101F8000002003F073FCFEF719FB06E02B6800202D
:101F9000CE33187003F0BCFC0124002005F012FEC3
:101FA0002B6800211A1CE7321170134AE8331268BB
:101FB0000E321A6008F08AFA08F0C0F9C379002BD3
:101FC00008D005F0F9FD2B68E7331A78824201D07A
:101FD0001870012405F0CAFC051C06F03DFA0379CF
:101FE000AB4200D00571201C05B0F0BD0000002000
:101FF000F30400209009002094090020F0B59BB064
:102000001C1C0A9304236E460E9363680022051C71
:1020100007360120327002920392049205920690D4
:102020000795089209920B920C920D920F931092C1
:102030001192129413921490159216951791189468
:102040001993171CB90002AB3F01D8190B4BCB58A1
:10205000311C9847071C05F01DFC094B1A68242306
:10206000FF33D35C834204D0E068FEF79CFD1BB0D5
:10207000F0BD05F0F9FBA842E4D0F5E74C000020E4
:1020800000000020F0B5554F8FB001933B68151C40
:102090001A1C0024FF321C71D4721C61061C0091B2
:1020A00006F0E0F94E4B019A1B68079408940994D6
:1020B0000C940D9406950A950B929A895878FA21FA
:1020C00050438900FEF744F8009A3C681378FE34C8
:1020D0006081B34203D005F059FC009B1E703B6841
:1020E00000229A6005F074FD041C03F059FAA04226
:1020F00006D0201C03F059FA03226B46DA7257E02F
:1021000038490020A623021C0B7105F01BFD019825
:10211000FEF75EFD39686C46081CC830CA31FEF710
:102120006FFA314B31491B6802205B680B344B70EE
:102130000423CB705B230B713B68DA6905F002FD69
:102140003B682B491A1CC83212880C2003921A1CB7
:10215000CA321288CC3304921B8803AA0593012348
:102160000B7105F0EFFC3A68211C1079214A8300BD
:10217000D318000106AA10189B6998473B68B4223F
:102180009A562868A968FFF73FFE052800D02070FE
:10219000194B1A68194B9A4202D003F0ADFCFEE7C6
:1021A0003B68174A9968914202D09A6801329A6056
:1021B0006C460B342378052B02D020780FB0F0BD8D
:1021C00005F068FB24233A68FF33D35C8342F4D1E3
:1021D00005F04AFBB04200D184E7EEE700000020A2
:1021E00094090020F3040020C002002074000020A5
:1021F0007B0000204C000020F4090020CDCDCDCD87
:10220000FFFFFF7FF7B5434C151C236801911A1C93
:10221000B1321278061C002A23D01A1CE63212783A
:10222000002A1ED11A1CCE321178002919D1B033E0
:102230001B78002B15D10123137002F069FD071CD8
:1022400002F05AFD3A1C031C36323B33301C019914
:1022500005F006FF03F0D6FA022003F0DFFAFEF7DE
:10226000ADF923681A1CCE321278002A4ED01A1CFF
:10227000294F0020B03210703A680190126A011C98
:10228000013A0ED30E265643B446AC446646B68891
:10229000002EF5D036B20131B042F1DA301C019295
:1022A000EEE71A1CE6321278002A12D1012910DD5D
:1022B00006F0D2F8012383663B681B6A013B0AD310
:1022C000019EB342FAD00E225A430021AA189180EF
:1022D000F4E7002904D023680022D4331A6008E010
:1022E0001A1CD432D03311681B68994201DC0131C9
:1022F00011602368191C1A1CD431D0320968126885
:10230000914205DDB03301221A7001E0D4331A6026
:10231000F7BDC04600000020C0020020F0B5784E96
:1023200099B00468306802AF39602C220021303047
:1023300008F032F9381C00212022183008F02CF95E
:10234000704D2B68186859689A6838767976BA762D
:102350000533DB7F7F21FB767B7F01328B430421BA
:102360000B437B77336892005B69391C9A180092A3
:102370000022131C0220183105F0AAFB6B46FB60FB
:102380002B6818689B68021C5B0002325A43111CC0
:102390000831C9087861C9006846401A854602AE0E
:1023A0005B080021301C3B6108F0F6F87B69396955
:1023B00001334B4301335B00321CF3182068A168E2
:1023C000FEF78EFAB860FA689546052800D085E0D9
:1023D0002E686846F16A78600A01131C0833C01A37
:1023E000854602A97961081C002108F0D5F8F26A37
:1023F0007869E168FEF756FB2B6868469A6A0E23F7
:102400005A43131C0833DB08DB00C01A854602ADB3
:102410000021281C08F0C0F823697869291CE268AB
:10242000FEF77CFBFEF78CFC374B1B68DB7C002B3C
:1024300004D12068A1682A1CFFF7E4FEE168281C8B
:1024400000F068FF07F09AFA83000733DB08DB002F
:102450006946C91A2B4B8D461C6802AAA36AFA600A
:102460007B610E22013B5343ED18061C0435386195
:102470007B69013B7B610FD300202B5E002B09DDC4
:102480003969FA680139880039611018291D042258
:1024900008F040F80E3DEBE73D1C383500212022C6
:1024A000281C08F079F861682068A36869701449ED
:1024B0002870AB7009680534E27FC96A0133EA709D
:1024C0005B007E22CB1852426A710093F2B2032065
:1024D000291CFB6805F0FCFA7A68954603F07CF845
:1024E00003F090F902F0A8FE012003F0BFF902F01A
:1024F000FBFFB8683B68BD46187017B0F0BDC0461A
:1025000000000020C002002090090020F0B505273F
:102510009FB012975F6800240122051C6E4602A836
:102520001B911C490736069207900A920E930F9250
:10253000139714921693062719921C931D903F230C
:10254000201C221C3470089409940B950C940D9453
:10255000109411941594179718941A950B7105F00F
:10256000F1FAA20006AB240118190B4B311CD35809
:102570009847041C05F08EF9084B1A682423FF3392
:10258000D35C834203D105F06FF9A842E9D01FB0B4
:10259000F0BDC046F30400204C00002000000020E5
:1025A000F0B589B004921A1C120C0D1C99B2041CCF
:1025B00005930391029205F035FF061C022C3DD1D4
:1025C00004231D4041D0294B1F6803687D68039890
:1025D000191C68430193FDF7BBFDC343DB1718408B
:1025E0006B46C4B2188A039B18184000019B01383F
:1025F00068435900FDF7ACFD0130A84200DD281CFE
:1026000076683F68C5B20298311C78430196FDF7A1
:102610009FFDC343DB1718406B46C6B2588A029B26
:1026200018184000019B013878435900FDF790FDD0
:10263000421CBA4200DD3A1CD2B209E00B4B002426
:102640001B68261C1D791A7802E02C1C2A1C2E1CE3
:10265000FF23301C1A40184012021C40240410436F
:102660002D062043284309B0F0BDC046C00200201B
:10267000F0B595B002AF7B603B1C6033041C396140
:1026800001CB79681B780E78FA61BB60D54D002EBE
:1026900000D0A1E03A691378082B0BD103F0A4F91C
:1026A0002B6861689A690520331CFEF779F83B694D
:1026B0001E708EE06A4605207A6103F0D7F8CA4B97
:1026C0001B6898695A69410001324A43131C083358
:1026D000DB08DB006946C91A8D4602AB311C181CA9
:1026E000FB6107F059FF2B6862689969F86905F08A
:1026F00027FD061C05F096FE2A1C012E0ED12B6824
:10270000FF335979002909D1F4301A7A00789042C0
:1027100001D8197211E001321A7220E01368002208
:10272000FF335A711A72B14B60681B68F969333311
:102730001A7805F00DFE012E11D103F055F906208F
:1027400003F094F8786839690022012303700A7055
:10275000A749A323101C0B7105F0F4F937E0A14D34
:10276000A24E2A683368FC3233331B7812685B0050
:102770009A420EDD03F038F9A36822680024009421
:1027800006200121FDF7C0FF2B68FC331C6003F01D
:102790002BF92B689749FC331A688A4201D0013221
:1027A0001A6004F0DBFE04F077FE336833331878E8
:1027B00002F0F6FC002002F015FDB86802F0F5FE0C
:1027C00004F08EFE02F0B6FA3A6EAC3002607B691D
:1027D0009D4605207861A0E1844E33683433187833
:1027E0002B68186002F0DCFC062003F017F87E4826
:1027F0006A460368BA619A68684651001A680232EC
:102800004A43131C0833DB08DB00C01A854602A9C3
:102810007961081C002107F0BFFE286800212C22E6
:10282000303007F0B9FE7A692068A1680023FEF70E
:1028300057F87861BA699546052800D06DE133688C
:10284000FA215A8F3433187889005043FDF780FC01
:102850006549B8600E686846F36AF8601A01131C8F
:102860000833C01A854602AD281C002107F094FEEB
:10287000F26A281CE168FEF715F95B4968460B68A7
:1028800000269A6A0E235A43131C0833DB08DB0028
:10289000C01A854602A9B961081C002107F07CFE18
:1028A000281CB969E2682369FEF738F9BD694E4B07
:1028B0001B689B6A9E4211DAE268F300D3182A88EB
:1028C000A91C1A806A88281C5A80EA880136DA8096
:1028D000AA880E359A8006F09BFFE8E73B69F96904
:1028E0001A78B86907F076F839690870FA680B78D1
:1028F00095465A1E3B4D012A03D82A680021FC3216
:102900005160032B09D0072B0DD0012B00D002E121
:102910002B680022FC335A60FDE0F86907F086FB63
:10292000041E0ED000E0182404F0BCFF2F4B1B68DF
:102930001B6C18400123A3401840431E984140429D
:1029400004402A68131CFF339979022908D1FC320C
:102950005268B868824203DD396908220A7000248F
:102960009A79022A48D1DB795A0733D5182C31D10C
:10297000381C283004F0D6FFFB69F8691A785B78B8
:10298000BE8D1B0213438278FD8D12041343C2785F
:10299000381C120613431A882430BA845B88FB84DF
:1029A00006F064FF24217B5E9E4227DA3A8DB6183A
:1029B0009E4223DD2622BB5E9D421FDA7A8DAD1832
:1029C0009D421BDD012004F09FFFB88CF98C04F0C0
:1029D0008FFF92E098070FD51A2C0DD1012004F03B
:1029E00079FF8AE000000020C0020020900900204A
:1029F000F3040020FFFFFF7F002C7ED1494D2B68A0
:102A00001A1CFF3291790122022906D1191CFC31CE
:102A10004968B868814200DC0022386901780829D9
:102A20005FD1D2B2002A5CD004F0A8FF00283AD0CF
:102A30000224381C221C3C49243007F06BFD381C52
:102A4000211C243005F00EF8052005F03BF8381C59
:102A500000212022283007F09FFDF96928220B7BF6
:102A60002D21D3552923DC55CB5D7F2293432A208A
:102A7000C4551C4380235B421C43FB69CA19147074
:102A80001A785B78F8691B0213438278391C1204A8
:102A90001343C27828311206134300220093052005
:102AA000131C05F015F802F0ADFE012002F06CFBDE
:102AB000796800240C702B68201C1A1CFC325460AE
:102AC0001460FF3301225A7104F004FF201C04F04B
:102AD0001BFF1649A223201C221C0B7105F032F8A3
:102AE0001BE0FC335A6812498A4201D001325A6015
:102AF00002F088FE02F070FD0FE028220221292357
:102B0000D019D155DC5504F0ADFF02F07BFE012059
:102B100002F03AFB01E0002413E77869BD4613B0E8
:102B2000F0BDC04600000020D4A50000F304002042
:102B3000FFFFFF7F82B0F0B5DFB065936B460025E5
:102B400022330E1C07921D70029002F0F3F8031C52
:102B5000AC331B680EAC0490059305F083FC6B4608
:102B6000A0222333201C5200291C1D7007F014FDE5
:102B7000634B220A1C705A70220C240EDC70614CCC
:102B80009A7022689D74FF329379022B10D1D2790A
:102B90001A420DD05C4BFA201B6880001B8F5843F3
:102BA00003F086F802F0F0FA02F010FB02F014FDD8
:102BB00056490020A223021C0B7104F0C3FF337896
:102BC000029A934203D004F0E1FE029B3370236823
:102BD00000229A6004F0FCFF041C02F0E1FCA04219
:102BE00004D0201C02F0E1FC042459E0059A694657
:102BF0006B462231233300920190414A0798FFF738
:102C000037FD0AAD041C281C04F058FE0BAB1B88D2
:102C10000622069365AB19782B7811401A40914231
:102C20003DD15A073CD502F067F8071C02F082F844
:102C30002D78B23703953D88061C002D00D1069DE6
:102C400004F036FE0BAB69461D804B8D2A041A43F7
:102C50000B8ECD8D1B042B430399FFF7A1FC09AB11
:102C60000990D421002271569A56914217D1D5214C
:102C7000012271569A56914211D1D62102227156E3
:102C80009A5691420BD1321CD7321278DB7852B26D
:102C90005BB2D31A5A4253415B421C4000E000240D
:102CA000184D1B4A2B689968914202D09A680132EC
:102CB0009A60052C0ED104F0EDFD2A682423FF3321
:102CC000D35C834208D104F0CFFD029B984200D12F
:102CD00080E701E0042C05D0049B059AAC331A6010
:102CE00002F0DEFD6B4623331B78002B01D002F08F
:102CF00089FD201C5FB0F0BC08BC02B01847C0467C
:102D0000AC0900200000002090090020F3040020FE
:102D1000FFFFFF7F70470000CB4BF0B51C68A3B0EE
:102D20006368226800AF5A435100D2185200F8631A
:102D30005800131C0833DB08B863DB006846C01A70
:102D400085466B46F96000217B6307F025FC6368CC
:102D500022689D005A43D3189A00131C0A33DB08DB
:102D6000DB006846C01A85466B460021FB6207F00F
:102D700013FC636822689E005A43D3189A00131C00
:102D80000A33DB08DB006846C01A85466B46FF2124
:102D9000FB6107F001FCF86B00210138B861396371
:102DA000162810D80123A94A8340134206D1A84A05
:102DB000134208D0A74B1B682E3302E0A54B1B68BB
:102DC00030331B783B63BA6B3B6BAD085208B608D7
:102DD000013B3D61BA607E617B627A6A013200D15B
:102DE0008BE0B869022804D9FB6B113B012B00D999
:102DF0007FE0002002F03AFD934B974A1E68156869
:102E00003368BC6C7B643B623B6A013BBB636DD344
:102E10007468013C611C66D0B368396A6A694B43C7
:102E2000E31801339B009858FB6B032B2AD004DC7A
:102E3000012B06D0022B0BD0EBE7FB6B113B012BD8
:102E4000E7D8E969A3005B58C01AC343DB171840F1
:102E5000BA6B3B69F96A5343E3189B005958FA6A05
:102E6000401898507B6A002BD3D1B96BBB684B4399
:102E7000E3185B00396BBB62FDF71CF9BA6A7B6B28
:102E8000D052C6E7B96B3B694B43F96AE21892002E
:102E90005258BA62824200D2B862B96AFA6AE3183A
:102EA0009B009950BB6B7A69F9695A43A3189B0040
:102EB0003A605A589446824200D984463B68F86981
:102EC000E118890062460A50B86A7F21831AFD2BF7
:102ED00001D85B0899B2BB68BA6B786B5343E318AF
:102EE0005B00195295E7BA6B3A628DE7B86BBC6428
:102EF0007864796A013979626FE7534E1A22336830
:102F0000186859687862B9631C690533DB7F381C1F
:102F100000214C303B6207F03FFB7A6BFB68101CD2
:102F2000D518291CFA6B00F051F9F86B11286CDBED
:102F300012280BDD132868D10022786B291C03F0BE
:102F400047F9BA6B0023FA633B6260E0F96B112921
:102F50000CD13368BA6B5B68013A013BFB603C1CE7
:102F60000023FA634834BB6101200DE03368796ABD
:102F70001B68BA6B013B0139FB603C1C0123796281
:102F8000FA634434BB6100203568F86129687964CC
:102F90007B6C591E39637964002B34D06A68BA643B
:102FA000BA6C531EBB64002AF2D0386BB969BE6894
:102FB000421838694243F869C1188A18F96A9200C0
:102FC0005058396B3A694E434A4384469A18F86A16
:102FD000920012582168F8689E19760081420EDA34
:102FE0006146FA208B1A800089185843491000293D
:102FF00000DC0121FDF7ACF87A6BB052D0E7786BBA
:1030000000233352CCE71C1C01E0B86BF863796AEB
:10301000BB6B386A3D1C6835FA6B2970AB70E87081
:10302000391C381C7E235B426A704C311A226E3088
:103030006B712C7107F06EFA281C796B04F0B8FCE8
:10304000BD4623B0F0BDC046C002002004004000D1
:10305000030003009009002000000020F0B5474E57
:1030600085B000AF3468396001684068231CB860DF
:10307000FE33796059892069FDF7C0F8404B0D1C7B
:103080001B689A6951005A6901324A43131C08337C
:10309000DB08DB006946C91A8D46F960081C00216F
:1030A00007F07AFAA169F868BA6805F049F8341CA3
:1030B00001280DD13368FF33D87202F065F802F0B1
:1030C0008BFA02F09FFB002002F0D0FB33684BE04C
:1030D0002C4EF9683368B8685A7805F039F92368D6
:1030E0000022FF33DA7202F077FA02F08BFB02F073
:1030F000A3F8012002F0BAFB02F0F6F9FDF720FE7A
:1031000031682268CB78111CFE314989C91AA9425D
:1031100001DD9D422BDC12699A4228DD04F05EFE3F
:103120003368426859688A4203DB9A6883689A4226
:1031300003DA2368012274331A70002D04D102F0DF
:103140007BF8281C02F092FB3368DB789D420ED19D
:1031500023681A1C74321278002A04D17A685969DB
:10316000106804F0FDFE2368743300221A70396879
:103170000523BD460B7005B0F0BDC0460000002021
:10318000C00200209409002008B504F0C5FA08BD6B
:103190000C4B10B51B681A6B002A03DD996B521893
:1031A000D10F0BE000218A4208D107490968122497
:1031B000085F9C6B0121844200DB111C683319708D
:1031C00010BDC04600000020940900207047000098
:1031D00008B502F065FB01F0E9FE01F083FE01F0A5
:1031E00037FE0F4B1B681A7A0E4B1B68D033002A30
:1031F00001D0022200E003220B491A6000230B7069
:103200000A49A0220B700A49D2050B709363D36B55
:103210003F218B43D36362B603F06CF808BDC04610
:10322000C80900206C000020290000502800005030
:103230002A00005038B5041CFDF75CF9051C05F0A8
:10324000F1F8291CF4310B78002B24D0124B00220A
:103250001B68DB6A013B07D3180120180825405F73
:103260000028F7D10122F5E70C4B1B68186B0028EA
:1032700011D19D6B002D0ED1F833002A0AD01A68A7
:10328000FE2A01DC01321A601B68052B03DD0023D6
:103290000B7000E01A6038BDC00200200000002062
:1032A00070B5051C0C1C161C04F0A4FB002802D0F1
:1032B00001280AD02CE00E225643AD19EA88FF23DC
:1032C000FE2A00D8D3B2637122E00E227243AA18FC
:1032D000D188FF23FE2900D8CBB263710B210A23CA
:1032E0005156D356CB1A09215156127A52B28A1A24
:1032F000934202DDA371E27101E0A271E3712B7BC5
:10330000002B05D0A37903225343DBB25B08A371E2
:1033100070BD0000F0B59F4B8FB01B6803909E6896
:10332000DF68059601971E695F6904960697079105
:103330009F6904F065FB984B01261B68E4331B78FA
:103340000296002B5AD00026079D039C02960096F9
:10335000924B009E1B681B6A9E424FDA2B880AA87C
:1033600003806B88438006F081FA0420235E002BE3
:103370003EDD238809AE33806388301C738006F0FD
:1033800075FA0021735E059A9A420ADA019898420A
:1033900007DD0221725E049E964202DA069E964284
:1033A00024DC04202A5E002A1DDD7D4A009E12686E
:1033B0008E20921980001218127A52B2012A12DD60
:1033C000059EF21B9A420EDA019EF2199A420ADD1C
:1033D00009AB049E02201B5EF21B9A4203DA069E92
:1033E000F2199A4202DC0023A38001E00126029632
:1033F000009E0835013600960E34A9E70127039D8B
:10340000079C0197654B019E1B68013E1B6A009655
:103410009E4200DBB3E023880AAE33806388301C11
:10342000738006F023FA04202B5E002B78DD2B88B6
:1034300009AF3B806B88381C7B8006F017FA584B2D
:1034400039887A881B68009F8C46DB1950331978BD
:10345000544B30881B687688002901D1453300E041
:1034600046330427E15F1B78002910DD36B211B224
:10347000891BCE1789197140994208DA674600B254
:1034800039B2091AC8170918414099426DDB029EEA
:10349000002E6AD00BAE337880277F421F43DF2097
:1034A0000740287B0123402118400F4310239F43EE
:1034B000000101990F23384398431940674601439F
:1034C00038B27778001218409F43317011B23843F8
:1034D0000912F270AA880340090119436046131CBF
:1034E00012B27170B070FF2A00DDFF23311C009A08
:1034F00003983371FFF7D4FE301C04F08BFA284B8D
:103500000421625E1B68002A04DD009E01229B19D3
:10351000503303E0009F0022DB1950331A7020E083
:103520000420235E002B20DD0BAF00210C22381C71
:1035300007F032F8019A0F231A4040210A433A70EB
:103540000122B2560320305694463188728866466E
:10355000000133400343381C7B70B970FA7004F0EB
:1035600059FA2B8823806B886380AB88019FA380E6
:10357000EB880137E38001970E35083442E7084BAA
:103580001B689A6E191C5C310A70DA6604F056FAF0
:103590000FB0F0BDE409002000000020C0020020B0
:1035A000C8020020E0090020F0B5BB4BA3B01B68A7
:1035B00000270893B94B0B901B680C911B6A04976A
:1035C0000393039C0E235C43039A051910940D95F5
:1035D0002B1C0F970E3B013A0BD3D988049C8C42CD
:1035E00000DA04910425595F0F9F8F42F2DA0F91A0
:1035F000F0E7AB4C012123681A1C5232127891403B
:103600001A1C533212785433891A1A788B1ADBB287
:103610001393FCF76FFF236811901A1C383212784D
:103620000E922422FF32815C012903D19D4B1B683D
:10363000F53306E09222119C5200A25C022A02D1CC
:1036400039331B780E93109B0B9F039D0E3BFB1889
:10365000013D1C1C0793039B05958B27089D09338F
:10366000BF00EA199B00059DD31804340A93069500
:10367000069F013700D1CBE00027E35F002B00D18C
:10368000BEE0874B119F1B6824201A1C4732FF3075
:1036900015783A5C002A04D11A1C608802CA1433D7
:1036A0000CE0012A0DD17F4B88261B6876001A1C7E
:1036B000FC32116960889A192133FF3304F041FB11
:1036C000061C119BF4331A78754B002A05D01A6832
:1036D00029321278964200DA161C1A68131C4833F5
:1036E0001B78002B01D164234AE06F48089F2B1CF4
:1036F00038181490417B1591002921D10025675F6E
:1037000064217943089DCA2080008C4629181D1C1D
:103710007543AC4512DDB74210DC8D68AC4601251F
:10372000AC4467468F605F4F3F6880373F78BC4549
:1037300006D114984573159D8D6001E000208860C6
:10374000089F59483D18697B002913D00027E15F85
:10375000CA20089F8C4680003918B44508DD886867
:103760000E9F01308860B84204D10020687300E0E9
:1037700000208860089D4C4FE919497B0029B2D090
:10378000089D8B27BF00E919069D4819057D002774
:10379000E05F002D03D00E9F6DB2BD4220DC64219E
:1037A0004143734399420EDB131C44331B78049D41
:1037B00061886B439B11994205DB136C0F9F7B4320
:1037C0009B1198421CDA0A9D089F8B2000238000E1
:1037D000638023802B603B185A68013A5A600FE0DF
:1037E00028321278314D724368435343984207DAC6
:1037F0000A9D0023638023802B604B68013B4B6054
:10380000069F0A9D013F043D06970E3C0A952FE74F
:10381000089C8B25AD00059E63190022039F5A600A
:103820009A1914320C9C109E06920B9DFA00A21855
:103830000492AA190C3A0392059A059F6C32520021
:103840009A1804320F92059A8B20743252009B18FA
:10385000083310930C237B438000089C1B18E3184B
:103860000993059C013400D104E30D9E0D9D0A3E91
:103870000027F35F0E3D0B950A96002B00D17CE2EA
:10388000069C0E9A237806320133DBB259B291427C
:103890000EDC237010E0C046C8020020C0020020E9
:1038A000E0090020E40900202B030000102700009D
:1038B0000E9B069D04332B70069E0023F356012BAE
:1038C00009D1079F049B3A88083B039C1A80049BFC
:1038D0002288063B1A80069E00257557012D65DD5E
:1038E000A81C0321FCF78AFC049CCFB21297083C69
:1038F000022D45D1B54B049D1868B54B0021625E81
:1039000019680368063D9C460026AB5F4E6909694D
:1039100040684910511ACF170138C919000279407F
:10392000401A7F280ADD76109E1BF0176746013F7C
:1039300036183F024640BF1B7F2F11DC079E039FB6
:103940000020305E0021795E801AC91A05F0A0F9C6
:103950000B2805D92388079C23802B88039D2B8067
:103960000323013B1CD3099F079E5A00BA183088D5
:10397000111C5A31039C0880218860321180F0E7C5
:10398000059D06236B43089EC9182288914B490068
:103990007118CA52049B063B1A88A3239B00CA5283
:1039A000079F039C3F882488199718948A4B1A68AC
:1039B000131C9C331B78012B69D1131C9D331B787E
:1039C000059D9D4263DA119BE6331B88002B5ED177
:1039D000119BCE331B78002B59D17D4B8A261B6857
:1039E000B60059198919E43208781278824201D355
:1039F00001300870079F986F0022BA5E039C424313
:103A000012141A92DD6F0022A25E069E6A431214FF
:103A10001B920022B256012A0CD1059FD020784378
:103A20008A229200B9185918883018188A1C1AABC3
:103A300000F0FCFC059DD0206843654B00241B680A
:103A4000069E1C941D94883000221818B2561CA99A
:103A50001AAB00F027FD059F3420D02660437E433B
:103A60005B4D80192968883008181AAA211C00F0BB
:103A70004FFEA2001EAB0134D050042CEBD12868BD
:103A8000883680190B991CAA00F0BAFF5DE1069CEC
:103A900000256557012D00DC57E1032D00DC3EE1D8
:103AA000059F06267E43129F4A48BC19089F640062
:103AB0003C19205A03210C9012980430FCF79EFB0D
:103AC000C9B289194900A32379189B00E05A414AD9
:103AD000CB5A8F5A14909C46042D16D1049B079DF7
:103AE000083B0020285E00215B5E039DC01A049BFA
:103AF000C2178018063B504000215B5E0022AA5E80
:103B0000D31ADA179B18534013E0079D0020285E54
:103B10000F9D0023EB5E039DC01A0022AA5E109D3C
:103B2000C1170023EB5E4018D31A4840D9175B1821
:103B30004B400599089D294AC0186B189B181978A5
:103B4000274A002906D011685A310988884208DCC2
:103B5000002105E011685C310988884201DB012100
:103B600019701B78002B3DD112688021131C58322C
:103B7000128856331B8800924A0004F0D1F8154F82
:103B8000079D061C0021695EE05F039F0B1ADD178D
:103B90005A196A4000257D5FA327BF009446E25F63
:103BA000AD1AEA17AD18554065442B1C321C05F0C0
:103BB000EFFE079B321C1880E05F039C2B1C00214A
:103BC000615E05F0E5FE039D288084E0C0020020D0
:103BD000C802002086020000E4090020FE02000066
:103BE000E00900200C9C149DA1B2CF1B3FB2FB0F3B
:103BF000DF197F10AAB215976746D31B1BB2079C2B
:103C0000DD0FEB180025645F039F5B100B94159C80
:103C1000169300203F5E0B190B9D169C17971BB245
:103C2000EB1A1219179DDF1712B2DB19AA1A7B4083
:103C3000D717D2197A409B180024802B01DD1C1C59
:103C4000803C129803210530FCF7D8FA8A4B0C9A75
:103C50001F68089D89193B1C533349001E78691859
:103C600010B25D78854A139B58438B5E7343C0182E
:103C70000B9B6B43C0183B1C52331A7855371041CD
:103C80000C9014983B7807B213984743A320800008
:103C9000095E4E43BE19179F16997D437519159EEF
:103CA000594373430C9F1141134115418022F81869
:103CB0006D18231C0B99D20005F06AFE079E039F26
:103CC00030808022231C0021795E281CD20005F060
:103CD0005FFE039C2080049B0A9E043B0021715ED2
:103CE0000025585F644D431A2F68DC171B19634089
:103CF0003C22BA5E05F04CFE0A9E049B0D9C30806F
:103D0000023B083C188821882B683C27DA5F431A5D
:103D1000DD175B196B4005F03BFE208015E0049B2E
:103D2000079E083B0022B25E0027DB5F079CD3188A
:103D30005B102380049B039D063B0022AA5E0026A5
:103D40009B5F039FD3185B103B80069C0022A2560A
:103D50000E9DAA426CDD0A9E0023F35E002B74DDEB
:103D6000049B043B0027DB5F002B6EDD199D0F9C3D
:103D7000189F109E2580378067E0069D0022AA5676
:103D80000E9EB24230DD049904390027CA5F002A32
:103D900032D0089C8B25AD00059E62199419A07F36
:103DA0000130C0B2A077344C40B224683A34247851
:103DB000A04202DD069F3B701EE0049B079C083B6F
:103DC0001B88039D2380049B0A9E063B1B882B8037
:103DD0000B883380049B023B19880D9B083B19809C
:103DE00053680133536007E0089C059D244E069FED
:103DF000621992193B701370059F069C013F049D48
:103E0000079E05970D9F013C083D0E3E0E3F069410
:103E10000495039C0F9D07960D97109E099F0E3CDD
:103E2000023D023E0C3F03940F951096099718E54A
:103E300001230A9D5B422B80089E8B27BF00059CB7
:103E4000F3191B1900229A77D6E7089E8B27BF002B
:103E5000F319596801315960074B1B6838331B78D7
:103E60009A4201DA069C23709223119D00225B0086
:103E7000EA54E1E723B0F0BDE0090020860200002B
:103E8000FE02000008B5FFF78FFB08BDF0B58FB04C
:103E9000059007910A920B930024404B1B68DB6A44
:103EA0009C4278DA059F2301FB1808201B5E002B3B
:103EB0006FD0079FA300FB180327DF5708979B7855
:103EC000013F5BB206930497089F04980137099756
:103ED000B8425EDC069E013E069B01339E4255DCE5
:103EE0002E4B04991B6801319A680A9F5143481C64
:103EF00080193D5C013D47D3DB6A9D4244DAAC4208
:103F000042D0079FA300DB5F254F40003F687F8EB4
:103F1000BC46149FC05B834236DC069F6046C919CD
:103F200043430131149F4900C95B9B118B422BDA3B
:103F3000099F7A43B2180132149F5200D25B934218
:103F400022DAA54202DB2B1C251C1C1C0598210132
:103F50000DAF41180A31381C042206F0DBFA059A2D
:103F600029015118381C0A3104F0FCFA00970A9F05
:103F7000231C01970B9F05980297149F079903979D
:103F80002A1C04F00DFB2C1C0236A5E7049F023707
:103F900099E7013481E70FB0F0BDC046C0020020B0
:103FA000E0090020F0B5924B91B01B680F900A9287
:103FB0001A7B07250C1C0895062A00D808928D4A02
:103FC0001268F4321278002A05D11E7A07960A2068
:103FD0001F5E069706E0884B1B681D7A07950A2727
:103FE000DE5F0696854D86492B680A9F5A681868D9
:103FF0004A709A6804238A70013292000870CB706C
:10400000BA18512302200B7103F09CFD0022A31D5E
:104010007748DA770233DA777F26631D0068DE7728
:104020002968E31DDE77049076484B680068013B01
:10403000DBB20D9074480C930B680568013B5BB2D2
:10404000AC4605920292002B00DA98E00C9E5F00CD
:1040500072B20997002A00DA8FE088685D1C454338
:10406000049E0135AD18A800009537780A9D4E686A
:104070004059002F0AD0351C5D430D9FBF187F5D4E
:104080006546039747432869784300135E43169FAC
:104090009619B600F6590F9F360C301A009E75001F
:1040A000E853049E002854DB0E257557A84213DB05
:1040B0002768451B7D19256065690F2701356561F6
:1040C000F757351C0E26AE576568B84201DC861BD3
:1040D00000E0BE1BAE196660E668B04204DDD7B2F0
:1040E000DDB20E970B95E060089EB0421BDB251CED
:1040F00008351F26AE57964200DAEA77E51D1F26DF
:10410000AE57964200DDEA77A51D1F26AE579E42A8
:1041100000DAEB77651D1F26AE579E4200DDEB7778
:10412000059F0137059785B2189F56000195BD5B25
:10413000019F7D192F1C189DAF53179D099EAF5BE2
:10414000019EF519179F099EBD53029F3F180297C4
:1041500011E010257557A84206DCA768451B7D199C
:10416000A560A5690135A5612569A84200DA20612D
:10417000029E361A0296013A6CE7013B63E71F4B39
:1041800002981B680125D968FBF7E2FF1F497C23D1
:104190005B42221CCB70E06176231C32281C0B7121
:1041A0004D7003F0CFFC059FA21D27621F21631DE8
:1041B00051561F229A56144B1B68914201DB1D7306
:1041C00001E000221A730E9D231C0B9E28331D70E4
:1041D0005E70E768079D0120AF4205DA2369069EFD
:1041E000D80FF2179E425041C0B211B0F0BDC04688
:1041F000D409002000000020DC090020C0020020BB
:10420000EC040020D8090020C40200207400002023
:104210000B4B09681A682423FF33D35C094A1268E0
:10422000507B48438011002B01D1137B04E0012B0C
:1042300005D1054B1B68DB79984200DA181C7047E2
:1042400000000020D4090020DC090020F0B595B062
:104250000C1C1E1C0B92069003F0B4FD5A4F0890E4
:104260003A68032151562020411A02201056490075
:10427000091A4910554DC9B205912B68907A1978E1
:104280001B790090D27A05980192029072681A9870
:1042900005F05AFF38682B687268067A19791B781E
:1042A0000096407A059E019002961B9805F04CFFFF
:1042B000002118220EA806F06FF9A3687F22180AC1
:1042C000190C00260D932272A27240B25AB249B262
:1042D0001B162F686672E672059007910993049683
:1042E0000598824252DC1A9D5300EB180A93079BF3
:1042F000099E501CB34247DCB9680B9D41435918D5
:1043000001314E00755F5900AC461B9D6646691829
:104310000989761A0A99B4460E896546A91B089E32
:10432000367BB14213DD0B2565579D4200DAE372FF
:104330000A2565579D4200DDA37209256557954200
:1043400000DA627208256557954200DD2272CD1FA2
:10435000072D08D80EADED5C0126AC46B444664688
:104360000EADEE5401E0002904DD049D8D4202DA19
:10437000049100E00021BE68069D704318180130CA
:10438000800041510133B3E7021CA9E70DA80EA933
:10439000069A00F093FB0D4E0D493368049D5A6850
:1043A000256018684A709A68069D8A707C230132DD
:1043B0005B4292000870CB70AA18832305200B7112
:1043C00003F0C0FB15B0F0BDE8090020C0020020DA
:1043D000EC040020114B70B5444201209C421BDCD0
:1043E000201C0F49FBF7B4FE0D49421C0D1C554320
:1043F000661BF317F6185E400A4B4000C05A520085
:104400007043094EAD19641BE51764196C40D55A09
:104410006C430019FBF79CFE70BDC0466F11010094
:1044200010270000D6A50000F0D8FFFFF0B500244B
:10443000147001220A701A4A1F6815685E68211CF0
:10444000031C002201311F60DE605A601A619A600D
:104450005A619A61DA611A625A629A62DA62343394
:104460000429EED12B1CBE335A88041D0263DA885E
:1044700042665989021C98321160D98951631988A2
:1044800081619988C164816519899430E1678834B4
:10449000216001609B89D36193621363F0BDC046C4
:1044A000E4090020F0B5994BD3B01E6804900F1CAE
:1044B0009E360024A20000239219181C1A255D4381
:1044C00004994D192D6BD15A023369434018082BBA
:1044D000F4D1FA218900FBF7EDFD38530234082CA2
:1044E000E8D10AA80021102206F056F8002534234E
:1044F0006B4304980EA9C3181B6B00240693EB00B2
:10450000F31805932B0159180791059A069B105B28
:10451000395B5843FBF7CEFD079963002822C8504A
:10452000D218694652582833101802345850082CB3
:10453000EBD10135042DDAD11EA80021D0220EAD19
:10454000002606F029F820AC079506960023049A69
:104550001E1C181C079F1568F95810334D4340194D
:10456000D568343269437618402BF3D1069F6946EB
:10457000BB0028335D58271C291CFBF7E9FD083FC9
:104580003860291C301CFBF7E3FD069E6060002E9E
:1045900035D00023049A1E1C181C079FF958576831
:1045A00010334F43C0191769343279437618402BC2
:1045B000F3D1291CFBF7CCFD271F3860291C301CC8
:1045C000FBF7C6FD069EA060012E18D00023049ABA
:1045D0001E1C181C079FF958976810334F43C019C9
:1045E0005769343279437618402BF3D1291CFBF7F5
:1045F000AFFD291C2060301CFBF7AAFDE060069D82
:10460000079E01350436069534340796042D9DD156
:1046100026AC0025A9000EAA00238818049A01914F
:104620009C4606930793059308930993C15896698E
:10463000D7694E434F43B444069E1033F619176AA8
:1046400006964F43079EF619576A07964F43059EF5
:10465000F619976A05964F43089EF619D76A089689
:104660007943099E343276180996402BDED10198A1
:104670000AAFC6596046311CFBF76AFD271C083F8C
:104680003860002D1BD0311C0698FBF761FD271FF9
:104690003860311C0598FBF75BFD6060012D0ED082
:1046A000311C0798FBF754FD311C20600898FBF77C
:1046B0004FFD311CA0600998FBF74AFDE060013511
:1046C0003434042DA6D1049B00211EAA8D58521803
:1046D00056689768D0681D605E60156956699F606E
:1046E0009769D8601D615E619F61D069156A566ADD
:1046F000976AD26A3431D8611D625E629F62DA6263
:104700003433D029E1D153B0F0BDC046E4090020D4
:10471000F0B5B74B91B0041C94461B68012912D028
:1047200007DC00291BD1CE339F881D780297DB88D8
:1047300014E002290DD0032911D1CE331F8ADD7870
:1047400002975B8A0AE0CE331F895D7802975B8906
:1047500004E0CE339F899D780297DB890693012D73
:1047600061D0002D4DD0022D7BD1A76863682068F1
:104770001911DB1908977A110A93676923690918D7
:10478000E0688A181911DB1909180D920B937A1138
:10479000A36A8A180C92DE0FE26AF6187110206A7A
:1047A000D60FB61876100997C718BF190197A069D8
:1047B000E7693F18206A0397C70F3F1803987F10D7
:1047C000C719E0693F18606A3F1801987F1803977E
:1047D000C70F3F1803987F10C7190497606AE769ED
:1047E0003F187818216A676A4018F918C018C91864
:1047F00080199B18891803900E910793029BD61875
:104800003BE02768A0690D97E7682E1C0C97029F74
:1048100007953F1804970E950195039509950B95FB
:1048200008950A9529E0676820683B110A9727696F
:104830001B18E0683A111218E0690C92A269616ACB
:104840000D930B97029B4700BF1800267F18401856
:10485000C918049703900E91079601960996089639
:104860000BE0002607960E9601960396049609968D
:104870000B960C9608960A960D9667463F680D981B
:104880003F1A60464368029704980C9FDB1BC717CA
:104890003F0F05933F18069B3F11FF18391C8001FD
:1048A000FBF756FC039906908801391CFBF750FC76
:1048B000019A0F90391C9001FBF74AFC0D9B069959
:1048C0009A02029B4B43D3189B1223600A9B0F99B9
:1048D0009A01029B4B43D3181B019B126360089BF8
:1048E0000C999A01029B4343D3181B019B12A360AE
:1048F0008A02059B06994B43D2189212E2600B9AEA
:104900000F999301059A4A439B181B019B1223613F
:10491000099B06999A01059B4343D3181B019B12DF
:1049200063618023049ADB005B1A5A43D117890D17
:104930008A189212A261002D05D1E5612562656297
:10494000A562E56239E0039A5A43D117890D8A18A6
:104950009212E2610F9A03995242514304920E9AC5
:104960008C469202111C61440392CA17920D944620
:10497000614489126162022D1BD10199019A4B4356
:10498000D917890DCB189B122362049B07995A43B0
:104990008B02D318DA17920DD318019AB60250433E
:1049A000301AC617B60D30189B128012A362E0624F
:1049B00003E000232362A362E362029A059B524351
:1049C0005B43D3180B4A934205DC64205843391CDF
:1049D000FBF7BEFB00E0084840104042FFF7FAFC3E
:1049E000064B391C5843FBF7B3FB11B0F0BDC04672
:1049F000E409002014AE4701FFFFFF7F10270000ED
:104A0000F7B50024051C0191171C0093261C009982
:104A100062003B5B8858FA2158431A236343EB1822
:104A200018638900FBF746FB02348619082CEED187
:104A300000242F19386B311CFBF73CFB002801D0F8
:104A4000386301E001233B633434D02CF1D10024DE
:104A5000201C261C221C2B6B296801325943081884
:104A6000E9689E19594334350C19042AF3D1311CD5
:104A7000FBF76EFB311C051C201CFBF769FB041CBB
:104A8000002D01D0002806D10A490020FA23021C7B
:104A90000B7103F057F8084B1B681A1D0833D26FCF
:104AA000DB6F55435C43019A2D1424141580548008
:104AB000F7BDC046F3040020C8020020F0B5574BF4
:104AC00093B000AFB9621968161C4A683864086868
:104AD000131C43435B000833DB08DB006C46E41A1D
:104AE000A546F8633B6C68467863DB783C6C5BB248
:104AF0007B62A478550064B294463C63FD62221C3C
:104B0000786A824258DCB86A835C082B52D93C6CC4
:104B10000023E356604658430125655710187C6B07
:104B200040003D6220180025F861BD633D6AAB423C
:104B300040DC0624002B09D0886858438018800088
:104B4000345830184568806864192418886801331F
:104B50007861584380188000355830186419F8601F
:104B6000FD6B8068013DB86020185C1EAC4211D01E
:104B70007C695D1C6543AD18AD00BD617559401978
:104B80007864B8697C6C35186868AD6824187C64F2
:104B9000641900E0841DF86845680320684304191F
:104BA0000D204443FD69B86B24122C52FC6A001995
:104BB000B863BBE70132A3E76246D3079A1A3B6B9F
:104BC000BA633D6C0322AA56934223DCBC6AE25CC2
:104BD000082A1DD93D6C0022AA5664465443B86B7E
:104BE0007D6B2418E41864002C197C640020FD6A95
:104BF0003C6C401901256557AA4209DC8D680132D9
:104C000055437C6C5D190135245AAD00AC51EEE77B
:104C10000133D6E7BD4613B0F0BDC046C002002048
:104C2000F0B5304F85B0019038680A1C031CFF3383
:104C300002909E790B1C143303930023022E2AD179
:104C4000029CFF34E479344225D01478012C07D13A
:104C50000D7D651BE8172D184540072D0DD108E087
:104C6000052C12D10D7D641BE01724184440012C43
:104C700007D1541A0E2C12DD13E05578002D06D002
:104C80000DE05478002C0CD009E0022C07D0033C36
:104C9000012C06D803E010780C7DA04201D001332E
:104CA000DBB2039D0132AA42C8D10022022B15D8E3
:104CB0000198012303700B7D591EC9B2062901D842
:104CC000094A525C3868FF308179022906D1C079DF
:104CD000084203D0063B022B00D81A22101C05B054
:104CE000F0BDC04600000020E6A50000014B1860A2
:104CF0007047C046C8090020014B18687047C0467D
:104D0000C8090020014B18607047C046C409002044
:104D1000014B18687047C046C4090020014B186059
:104D20007047C046C0090020014B18687047C04654
:104D3000C0090020014B18687047C0466C00002075
:104D40000B4B70B519680B685D1E0FD34A68013AAA
:104D50000AD38E68541C5E43A419064EA400A419FD
:104D60002668C6402660F2E72B1CEDE770BDC04602
:104D7000C0020020004000508D23013B002B01D0D9
:104D8000C046FAE7044B10221B78DBB21807C00FAD
:104D9000134018437047C0462B0000500F4BF7B527
:104DA00018261E700E4BA0271E70FFF7E5FFFF05AB
:104DB0000B4B01AC00252C3760701D703E70FFF767
:104DC000DBFF064B20703D701D7023786278181C45
:104DD0005040400013400343D8B2FEBD2A000050AB
:104DE0002D00005010B50D4B00201B78AA2B12D1BE
:104DF0000B4B1C780B4B64B218780B4B40B21978F4
:104E00000A4B20181A780A4B49B21B7840188018B0
:104E1000C01A43425841C0B210BDC0465000020003
:104E20005100020052000200530002005400020030
:104E3000550002008023DB020022188059809A80EE
:104E4000C046024B188880B27047C0460600040076
:104E5000154BC02292009858144901409950995816
:104E6000FF20814340200143995098581049014048
:104E70008020000401439950985880210002000AC4
:104E800009060143995002221A6001221A60082182
:104E900004221A601960FC3300215960054B19691E
:104EA0000A431A617047C04600E100E0FF00FFFFBF
:104EB000FFFF00FF00ED00E013B5094A042413785A
:104EC0000021DBB21C4301910198F421FF3188429B
:104ED00005DC1370C046147001990131F3E713BD6E
:104EE0000D00005013B500220192A022D205D06B14
:104EF000C021C9000143D16301AB18780321884365
:104F0000012108430C24A043042420433024A0435F
:104F1000102420433F2420404024204318709878D8
:104F20000F24A043072420439870D8780143D970F8
:104F3000019B936113BD00000122A023DB051040FB
:104F40000206034998690840104398617047C046BB
:104F5000FFFFFFFE82B00022019201301F2201AB51
:104F60001040C9B21870481C023110400A4092002B
:104F70005870DA70019AA023DB05DA61196A024AD7
:104F80000A401A6202B07047FFCFFFFF0002064BD3
:104F9000000A0138002258609A6005221A60C04653
:104FA0001A68D103FCD5704710E000E0F0B5534F0C
:104FB00085B03B681A1C303215780232196B1278B2
:104FC00033331E780F231407994312092D070192DA
:104FD0002D0F0B1C80222B4352001343484A03958C
:104FE000484D1340484A2B4048491340240F0B407A
:104FF0000199220413430A0545493607360F0B4031
:10500000009613433206434E029433401343424A00
:10501000A024E4051340E360FFF74EFF3B68E2681D
:1050200031331B781540DB069B0FDB021D43E56027
:10503000E26880239B001343E360E26880239B01C6
:105040001343E360029C039DFFF7CCFE002813D0BE
:10505000324F882039781E34C9B2FBF779F8397895
:105060004443C9B28820FBF773F80F3545431E3C13
:1050700000230F3D9C4203DB231E0F2B00DD0F237B
:105080000F22954200DD151CA024E4051F491A409B
:10509000E36812040B401343E360EB43E268DB1761
:1050A0001D400F239A431D401543E560E368F0223D
:1050B000934380221343E360E368154A1848134082
:1050C000E360E3683340E360FFF760FFE26880235A
:1050D0005B051343E3600099E2680B0616401E432C
:1050E000E6601048FFF752FF019B09491A05E36883
:1050F0000B401343E36005B0F0BDC046C409002077
:10510000FFF9FFFFFFE7FFFFFFDFFFFFFFFFF0FFFC
:10511000FFFF0FFFFFFFFFF0FFFFFFEF5400020054
:10512000FF0F0000FF6F0000064A074B12680120C6
:10513000D032126819789040021C0A43D2B21A7019
:105140007047C0466C000020290000500549064BFE
:1051500009681A78D03109680120884082431A70A2
:105160007047C0466C00002029000050044B18789E
:10517000044B1B68D0331B6818410123184070474B
:10518000290000506C000020044B82B0019001AA5D
:10519000188092789A7002B07047C0462400005080
:1051A00007B500F061FD064B019001AA18809278C6
:1051B0009A70044B00221A70034B0122DA7707BD64
:1051C000240000508409002008000050034B0022F6
:1051D0001A70034B0122DA777047C0468409002019
:1051E0000800005072B6084B1B5C002B03D1C04670
:1051F00062B630BFF6E762B6A023DB059968034AC2
:105200000A409A607047C04684090020FFFFF9FFFA
:1052100072B6074B1B5C002B02D1C04662B6F7E7A3
:1052200062B6A023DB059968024A0A409A6070477B
:1052300084090020FFFFF9FFA023DB055A68012144
:10524000120E58689143034A090602400A435A6005
:105250007047C046FFFFFFFE08B5074B1B681A1CCE
:105260003732127838331B7852000132504399405C
:10527000FAF76EFF08BDC046C409002008B5044B0C
:105280001B683A33197849000131FFF7E5FF08BD83
:10529000C409002008B5A0230120DB055870FFF7E2
:1052A000A1FFFFF7C9FF08BDF7B5A026041CF6054E
:1052B000042808D005280ED15A4B1B681A1C8C32C2
:1052C0001768903305E0574B1B681A1C9432176817
:1052D00098331B6821E0544B1B685F6A9B6A7361BB
:1052E000FBF708F9E7300378002B17D005F0EEF84C
:1052F00005F024F881787F221140890401917169B9
:105300000B1C4A490B40019919437161C178474B05
:105310000A40716992040B4013437361A023DB05BB
:105320001F611E691F231E40FFF75CFD00280AD085
:105330003F4B882019780436C9B2FAF709FF464373
:105340000023043E03D4331E1F2B00DD1F23A022A5
:10535000D20510691F210B40884303431361032CBE
:1053600034D005DC012C2DD013DC002C11D030E022
:10537000052C0AD005DB062C2BD12A4B1D68A23543
:1053800027E0284B1D689C3523E0264B1D689F3580
:105390001FE0FBF7AFF8031CCE331B78002B03D0C4
:1053A000204B1D683B3514E0E7300378002B05D017
:1053B00005F08CF804F0C2FF051D0AE01A4B1D68C9
:1053C000363506E0184B1D68393502E0164B1D686E
:1053D0003C35A023DB05596928783F2210409143D2
:1053E0000143596168781F215D6908401149C00275
:1053F0002940014359611049640009680C19211CB6
:1054000082310878596810409143014359608334D0
:10541000217858680A401102084A02400A435A603B
:10542000F7BDC046C8090020C4090020FFFF03FEE5
:1054300054000200FF07FFFF6C000020FFC0FFFFC9
:10544000244BF7B51A68244B1B6839331B785B066D
:105450009B0E0193131C3133197800238D005519CD
:10546000581E5B18002B27D053181B1832331B789B
:105470008024D3185E78A023DB055F68E4033C43F7
:105480005C60019CB606240400945F68B60EBC46BE
:10549000124F64462740009C27435F60C046243675
:1054A00076008400F65A2C19B03426605E680C4CE5
:1054B00034405C60031CD3E7131C313309491B786B
:1054C0000F204B700423CB70B023D2180B7102F065
:1054D00039FBF7BD6C000020C4090020FFFFC0FFAE
:1054E000FFFFBFFF74000020F7B5FFF7A9FF124BC5
:1054F00000241D682B1C31331E78731C9B005B42FB
:105500000093B300EB180193009B043C9C4208D02D
:10551000019B01211F19B0373868FFF79DFE3860E5
:10552000F2E706490423CB70B023EA180F204E702F
:105530000B7102F007FBF7BD6C0000207400002027
:10554000044B00225A70A023DB055A7001221A7006
:105550007047C04684090020A023DB059968064AED
:105560000A40802189020A439A60044A002191700E
:1055700001229A707047C046FFFFF9FF840900209E
:10558000024B1B68A83318687047C0466C000020A7
:10559000024B1B68A83318607047C0466C0000209F
:1055A000A023DB059868C0B2704730B5A023DB05A7
:1055B0009B68DBB283420ED001DA013300E0013B8D
:1055C000A022D2059568FF211C1C8D430C40291C8C
:1055D00021439160EEE730BD08B50020FFF702FEE1
:1055E00008BD0000034B1B683733187840000130BA
:1055F0007047C046C4090020024B1B683833187836
:105600007047C046C4090020004870470010005091
:10561000004870470020005000487047004000508C
:10562000064A074B12681B687D3210789B68013868
:105630005843044B8000C0187047C0466C000020DF
:10564000C002002000400050054B1A68054B9068CE
:105650001B6879331B785843034B8000C018704790
:10566000C00200206C00002004400050F0B585B05E
:1056700000AFFAF73FFF5D4B1988031CCC331A8843
:105680008A181A805A4B1B681A78BB6053B2042BD5
:1056900024D1584B1B689E331B78FB60FFF7C0FF7B
:1056A000554B02221968531E9C4600D29AE04B6863
:1056B000013B11D38C6854430134E518AD007D6083
:1056C000BD68EE183A363678FD68A419A40024584F
:1056D000EC407D682C50EBE76246E4E7052B23D1D4
:1056E000444B1B68A1331B78FB60FFF799FF424BCB
:1056F00004221968531E9C4674D34B68013B11D396
:105700008C6854430134E518AD007D60BD68EE1827
:1057100052363678FD68A419A4002458EC407D6800
:105720002C50EBE76246E5E7002A45D0022B0BD16F
:10573000CE300378002B03D02E4B1B683D3338E06E
:105740002E4B1B68383334E0032B03D12B4B1B68E3
:105750003E332EE0012B27D16D467D60FFF774FFAD
:10576000254B061C1B6868465C68A5002B1C0A3389
:10577000DB08DB00C01A85466B46FB60013C0BD39F
:10578000B86803193A331B789B009859FFF776FDE8
:10579000FA68A300D050F1E7301CF9682A1C04F025
:1057A000B9FE7C68A54607E0062B05D1114B1B68A6
:1057B000A4331878FFF7C4FA104B1B6835331B78F5
:1057C000002B0FD00C4B1A685368013B0AD31068AA
:1057D0009568591C68430918094889000918002070
:1057E0000860F2E7BD4605B0F0BDC0465800005065
:1057F0006C000020C8090020C0020020C40900205D
:105800000040005008B5A0230120DB055870FFF7C9
:10581000E9FCFFF711FDFFF729FF08BD70B5041C77
:10582000104E114D11D10120FFF73EFD33680122CA
:105830001A70A023DB056C705C701A70FFF7E2FF32
:10584000FFF7FAFCFFF750FE0224201CFFF72CFDA7
:10585000336800221C70A023DB056A705A70012295
:105860001A7070BD6C0000208409002008B5FFF795
:10587000D5FFFFF7C7FF08BD10B5A023DB051C6AE5
:105880000005064A000D010422400A431A621A6A02
:10589000120B12031043186210BDC046FFFF00F048
:1058A00073B5174BA0221B68D2059168D96A2C33B7
:1058B00091601C78FFF796FA124D002812D0124B17
:1058C000124A1B7812782E6852B25BB20092201CEA
:1058D0001021D12202F024FA2B68AC363060AC33B0
:1058E0001B68E418002C01DA002402E0FF2C00DD24
:1058F000FF242B68E0B2A8331C60FFF756FE73BD8F
:10590000C40900206C000020530002005200020075
:1059100008B5002801D0012801D100F0EBFCFFF709
:10592000BFFFFFF743FBFFF7DDFA08BD70B51F4B64
:105930000D211B68A0B0DA7A00230C3AD2B2914252
:105940005B410321C91AA023DB0558693F2210409F
:105950005C688022D20322435A60421EA023D2B246
:10596000DB05FF2A11D05E683F25114C15402D0440
:1059700034402C435C60C0460C1C243464001C5B27
:105980006D465300EC52013AE8E75968094A0A406B
:1059900009495A6002234870CB700320B3236A463A
:1059A0000B7102F0CFF820B070BDC046C8090020CE
:1059B000FFFFC0FFFFFFBFFF74000020084B094836
:1059C000196810B5046808688B6801309A00434371
:1059D00060699B00C018002104F0DEFD10BDC046C8
:1059E000C00200200000002038B50C4D0C4C2B6884
:1059F000201C9A6891001A6802324A43002104F080
:105A0000CBFDFFF719FC2B68201C9A6891001A68DF
:105A100002324A43002104F0BFFD38BDC00200201D
:105A200000400050044B054900221A6059609A60FA
:105A300005221A607047C04610E000E0FFFFFF003B
:105A400010B5A023DB059C6899680C4BC9B21B6894
:105A5000E403AC331B68E40F591AFF31E6235943C2
:105A60000134074BA040C918041C0648FAF770FB24
:105A7000C1B2201CFAF76CFB10BDC0466C000020C0
:105A80005C5D000040420F00014B00221A6070472D
:105A900010E000E013B50B4C0B48A368C01A01934B
:105AA000FFF7CEFF094901234B7004230190CB700F
:105AB00000206F2301AA0B7102F044F80023019823
:105AC000236016BD10E000E0FFFFFF00740000201F
:105AD00010B5041CFFF7A6FF201CFFF79FFEA023B4
