:100000004D424E014D3448300206040001002200EA
:100010006000000000C000000000000000000000C0
:100020000000EEEE000000000000000000000000F4
:1000300001000206000000000000000000000000B7
:100040000200080000002D000000000000B40000C5
:10005000030008002D00300000B40000000C000078
:10006000001C00208D0100000000000000000000C6
:100070000000000000000000000000000000000080
:100080000000000000000000000000000000000070
:10009000000000000000000000000000550000000B
:1000A000810000009D000000590000006D0000006C
:1000B00000000000FEE70000034B01225A70A0235D
:1000C0000022DB051A70704798090020034B0122BB
:1000D0009A70A0230022DB059A70704798090020CF
:1000E00008B5044B01221A70034B0022DA7700F0A6
:1000F000FBFD08BD980900200800005038B5802598
:10010000ED052B79DBB2002B0CD130490B604B6035
:100110002B89081C9BB28B608A680C30103107F069
:10012000E1FC47E0012B0DD1284BD968002941D0D3
:100130005A68186982423DDA5A68501C58602B7A16
:100140008B5437E0022B30D1204CE368002B2AD0AF
:10015000226821698A420CDA22689B5C1BBAEB6038
:10016000A3682068C01880B207F018FD2368013327
:1001700017E0A2682368201C211CD2180C30103113
:1001800007F0B0FCE368002B0DD0A16822688A1844
:10019000A2601B781BBAEB60A06880B207F0FEFC7F
:1001A0000123236006E0EB6004E0032B02D1074B40
:1001B00000225A60C0468023DB0501221A70C04627
:1001C00002221A7000221A7038BDC046D4020020E4
:1001D00080230222DB05FF321A600421024AFF312C
:1001E000118000221A70704706000040F0B5A0236D
:1001F000DB059B68624A1F2187B0DBB21160D12BFF
:100200000BD0D02B01D80133DBB2A022D2059168EC
:10021000FF20814319439160F1E7002402A9594B63
:1002200001940A1C61CB61C21B681360EFF308855F
:10023000231C221C5448061D0438854203D9CF587C
:100240000760301CF7E751488446A84209D2066887
:10025000CF58BE4203D0002A00D1041C0122043032
:10026000F3E70433102BE5D1019400236046C11855
:100270004748814204D24748C05804330860F5E734
:10028000454B4649181D043B8B4203D2002119609F
:10029000031CF6E7424B43481A8001A99200143030
:1002A0000AF0E6F8EFF308823F4B191D043B9A422F
:1002B00003D93E4818600B1CF7E7FFF789FF3C495C
:1002C0003C48053989B280B204F0F0FD3A4C3B4D10
:1002D00001235B4223716371A371E3712B1C3C33D7
:1002E0001A782B1C3D331B781B02134398423FD1D5
:1002F00007F0E0FB324B33491888334A88420BD071
:100300006E7D18882B7D36023343984204D11388C2
:100310009BB223711B0A637113888B421BD0EE7D45
:10032000A87D138836023043834214D10020042371
:10033000013BDBB2FF2B07D0244EEF18F65C3F7970
:10034000B742F5D10120F3E7002804D013889BB20F
:10035000A3711B0AE371637922791B0213438B4259
:1003600006D0E279A37912021A43164B9A4204D1BD
:10037000174B02221A6062B6FEE700F089F8F7E731
:100380002800005090A6000004000020000000207B
:10039000D40200200CA80000D802002091090020FF
:1003A000A4090020D4020020100A0020CDCDCDCD1C
:1003B00000C00000000000009C090020C0BF000039
:1003C000FEB30000FFFF0000BEBF000000B400004D
:1003D00000E100E0014B18607047C046A80900200A
:1003E000014B18687047C046A8090020014B1860EF
:1003F0007047C046AC090020014B18687047C046E2
:10040000AC090020014B18687047C046000000206E
:1004100038B5114C256805F037F9A862256805F054
:1004200037F9E862256805F037F96861256805F055
:1004300037F9A861256805F047F908492368096874
:100440001A1CEC320231E861116002221A67D433BF
:1004500003221A6038BDC04600000020AC0900200D
:1004600008B502F08DFE021E05D10749A9230B71C4
:1004700007F0C8FAFEE7054B1B6803CB04F0A6FDA6
:10048000FFF7C6FF08BDC046FF040020C4020020DD
:1004900030B58BB007F044F96D460335287009F08C
:1004A00027FF09F087FF02F047FEFFF7D9FF154B42
:1004B0001B88002B17D001AC00212322201C0AF03E
:1004C00019F806232370012363700023A3700E4BD9
:1004D000201C1A781B6823211B0A6360E27007F056
:1004E0001DFA07F0FBF807F01BF9041C0E2800D9D1
:1004F0000E24E0B2054B8200D358291C98472C707B
:10050000F1E7C046A4090020E80200200400002012
:100510000F4B00221B683220191DDA6704318867EF
:100520006420C867803102204860012088600A602A
:10053000181C01219830494201608260016182618A
:10054000AC3304380160826001611A607047C046B4
:1005500000000020F7B500AF3960786005F05EFB61
:1005600083000A33DB08DB006946C91A8D46041C88
:10057000684605F05BFB63000833DB086D46DB0073
:10058000EA1A9546684605F06FFB00226E46111C7C
:10059000013C06D3A300EB58C9186300F35AD218E4
:1005A000F6E72C4C022025682B1C90331C1C0C3CBD
:1005B00026680138632E0ADD002626600126B4462F
:1005C00076429E6000261E6166464640EE672668BB
:1005D000013626601C698C4200D219619E688E42E9
:1005E00000D999601C68012C09DD1B4E00241C6099
:1005F0009E611C6201262C1C8834464026601C68C3
:100600001E6A01341C60964200D21A629C699442B0
:1006100000D99A61043B0028C8D10E4E7C6833682B
:100620003E68D96FBD468A009A18111C9C319432DD
:10063000096812688A1A22801A1C8832126892008D
:100640009B181A1CAC32A43312681B68D31A33806F
:10065000F7BDC04600000020FFFF0000F0B585B0E8
:100660001F1C0AAB1B78151C01910393041C04F09A
:1006700055FB1E4B281C1B680021DA68920009F00C
:1006800039FF019E002E0CD0201C05F02FF9184BCD
:10069000281C1B68391C5A69002307F01DFC013E09
:1006A000F0E7002C0FD1124B1B685F69DB690293E6
:1006B00004F0D8FF061C04F0DFFF0299031C321C73
:1006C000381C07F0F1FA281C0021019A07F058FCA9
:1006D000039B012B08D1002C06D1054B201C1D6863
:1006E00005F036FAF035286005B0F0BDC4020020F0
:1006F00000000020F0B589B00591069207930490A0
:1007000007F0B4FA234B80791B6802905A699B6901
:1007100005985A430021920009F0ECFE029F013F28
:100720007A1C2BD0049805F0E1F81A4B1E68726908
:100730000192019B013B0393F1D3B469164B059AD7
:10074000E518039B6343ED18AD005519013C13D325
:10075000B368019A5343E3180133069A9B009858F3
:100760002B6818182860002F04D1029909F010FF97
:1007700000042860043DE9E7039AD9E7079B012BB1
:1007800006D1064B04981C6805F0E2F9F4342060A9
:1007900009B0F0BDC4020020FFFFFF3F00000020B1
:1007A000F0B5454F89B03C68231CD2331A786A3BB8
:1007B000002A04D1221CB4321278002A01D000226F
:1007C0001A701B780393002B41D1A16C02910C2964
:1007D0003DDCE56B0A2D3ADD666CB31E1E2B1DD881
:1007E0001D2D1BDC236B0193023B3F2B16D8281CCD
:1007F000311C09F01BFF092810DC0198311C09F09D
:1008000015FF0C280ADC0299002917DCA36B002BCA
:1008100004D101991B2901DC132D0FDD331C0D3B85
:100820001A2B14D8222D12DC236B293B312B0ED826
:10083000281C311C09F0FAFE022808D0636F052B32
:1008400002DC0133636724E0002363671FE0039B3E
:1008500000256567AB421CD0E16E05AA0591A36B2C
:100860001649069303234B707C23246B5B42CB70A9
:10087000281C10230B71079407F0C4F83B68DA6E4C
:10088000196F8A4202DC0132DA6611E0DD6601206E
:100890000FE0A36B0A49246B05930025642309200C
:1008A00005AA0B710694079507F0ACF83B68DD6666
:1008B000281C09B0F0BDC0460000002078000020D0
:1008C0007F000020F0B56B4E93B0336804AF1C6816
:1008D0003A6104346400221C0832D2086946D2000E
:1008E000F860881A5A68854604325200131C08338F
:1008F000DB08DB00C01A04AD8546B96004A9796144
:10090000081C002109F0F6FD221C281C002109F01A
:10091000F1FD594CF86823685A69191CDB6900908D
:10092000281D01907869303104300290386903F055
:10093000EDFA336878609A6891001A68236801328A
:100940004A435869002109F0D5FD2068436D6430A1
:10095000036008F053FC2368586900957A69191CF4
:1009600001925C313A69303303F036FCBB689D4636
:1009700007F094F9051C07F0E9FC2B7B002B0CD049
:100980005C300378002B08D1226894235B00D35C91
:10099000022B02D0012004F037FC336837495A6833
:1009A00018684A709A68CB787F250870AB4302209C
:1009B0008024034364422343CB7053238A700B711A
:1009C00001323B6952009A18012007F01BF8381CCD
:1009D00000212022183009F08DFD3368186859680D
:1009E0009A6838767976BA760533DB7F3969FB7693
:1009F0007B7F0220AB430132034352008A181C4321
:100A00007C77391C0092002201201831131C06F05B
:100A1000BFFF02F095FBFFF7C3FE002826D1164C5E
:100A20002368586905F00AF82568281C291C5C31E0
:100A3000303003F0B3FB23682866186E04F05CFFC7
:100A400004F0CAFD7A68002A07D12368F8681A1CE6
:100A500030321B68396907F08FF9022004F002FC7C
:100A60002068643008F0CAFB052000E00420BD4681
:100A70000FB0F0BDC402002000000020F8040020E8
:100A8000F0B59400231C0A3385B0DB08DB0069460F
:100A9000C91A02AF8D4602AA061C7A60101C0021FA
:100AA000221C09F027FD231C0833DB08DB00694604
:100AB000C91A8D4602AD281C221C002109F01AFD1E
:100AC0000C4C301C2368D96A9A6A5C3300910193FC
:100AD000291C7B6808F0B4FB301C02F083FB236800
:100AE000301C9A6ADB6A291C00937B6807F02AFE97
:100AF000BD46F7BD0000002070B50C1C151C1E1C67
:100B000008F072F80B4B201C1B68996ADA6A08F02F
:100B100067F9201C08F04AFD201C08F05BFA291C2C
:100B2000321C201C08F0F8FA291C201C03F05EF986
:100B300070BDC0460000002038B509F087FB051CD9
:100B4000012009F097FB041C281C04F0CFF8201C9E
:100B500004F0D8F838BD38B509F066FC09F07EFB22
:100B6000051C002009F086FB041C281C04F0BEF8BC
:100B7000002004F00DFF201C04F0C4F804F026FB54
:100B800038BD10B5A4B08C22041C002101A809F0C6
:100B9000B1FC01A8211C08F0FFFA08F027FB01A80E
:100BA000211C02F087FB24B010BD0000F7B50190B6
:100BB00007F0CCFB484E2A273468FF372379002BF7
:100BC00002D0012B2AD063E0444A211C1268F03184
:100BD00012780D68816E2260002905DC2169404B86
:100BE000994202D0236901332361236993424FDD87
:100BF000C36E002B4CD1221C783213700199A2696C
:100C00000420FFF777FD04F057FB012004F06EFE8F
:100C100004F0AAFC32680123D3552CE02F4B1B684B
:100C200001935B782360231CF4331D682069198BC2
:100C3000013009F051FD002906D12369002B03DDA5
:100C4000231CF0331B68ED18231CFF331B7C012B86
:100C500009D101990B782360231CF0331D6802230E
:100C6000E355002307E022691D4B9A4210D0236907
:100C7000013323610CE031680022081CFF3002744C
:100C80000B710A6117490E33101C0B7106F0BAFE86
:100C90003368186805F028F8041C281C05F048F88B
:100CA000241A0120002C08DD3368186805F01CF8B0
:100CB000041C281C05F03CF8201A3268D35D012B77
:100CC00004D12A210020FF315054181C04F09CFA52
:100CD00004F0BCFAF7BDC04600000020AC090020BB
:100CE000FFFFFF7FFF04002008B50B4B94221B6819
:100CF00052009A5C012A0DD11A79012A05D1FF33DD
:100D00001B7C0420002B05D102E0002A02D1022026
:100D100004F0C4FD08BDC04600000020F0B587B057
:100D200006F0BCFF071C07F011FB816EA34B0029E6
:100D300006D1046F621E9441E4B2002C05D000E09D
:100D400001241A680021BC3205E01A68BC3211681F
:100D5000FE2901DC013111601B6800211A1CD03210
:100D600015881180183A029511708C4204D094496C
:100D70000968C97C002958D0181CB7300178C9B25D
:100D8000002908D003785BB2022B00D00123137036
:100D9000002303700EE11E1CB4363578002D09D0F7
:100DA000012515701A1CB532C033017031701170F5
:100DB000196000E1002C38D1191CC0310D68002DDC
:100DC00008DD013D012D01D00D602EE003230C60F4
:100DD0001370F0E01A1CEC3212681188794A9142C3
:100DE00023D01A1CCC321188774A126852888A4262
:100DF0001BD8734D2868027C181CBC3000689042D8
:100E000013DB05AA1180CE331B887049538002235F
:100E10004B70CB70201C15230B7106F0F3FD674B54
:100E20002A681B68527CC0331A60654E3368987C10
:100E3000002800D0BEE0614D002C22D12A689B7FA3
:100E4000C83212689A4214DB61491223201C221C0A
:100E50000B7106F0D7FD2A683068131CC43319687B
:100E600001311960C07F814203DB1C60B83202236C
:100E700013702A680023111CB631C8320B7013603E
:100E80003DE02B681A1CC03210602A321278002A0A
:100E900035D0191CCC31098805AA1180CE331B88A6
:100EA0004A49538002234B70CB7019230B7106F013
:100EB000A9FD2B683268191CCC310D88908B16392E
:100EC000854214D2181CCE300588108D85420ED272
:100ED000908D029D85420ADA097800290FD1C83326
:100EE0001968927F91420ADA0131196007E0012204
:100EF0000A70191C0022C831C4330A601A602F4ED0
:100F00003268131CEA331B78002B53D13B7B002B38
:100F10004ED0131CB4331D78002D4BD1284F106BCD
:100F20003B683A689B8A118B9C463B68528BDB8AF4
:100F30000093634606F054FE3B6803909B8C326836
:100F40009C463B68106BDB8C3A68118C528C00938A
:100F5000634606F045FE33681A1CCC321188039AAA
:100F6000CE33914207DA1A88824204DA3A6802984C
:100F7000528D904210DB05AA11801B8813495380C3
:100F800002234B70CB70002017230B7106F03AFD43
:100F900033680122B5331A7033681A1CB5321278DF
:100FA000002A07D0002C05D0B43301221A7002E0C9
:100FB000B53213700125281C07B0F0BD00000020D9
:100FC000A8090020FFFF0000AC09002078000020E5
:100FD000FF040020F0B58FB000AF3961061C03F0AC
:100FE00097FE786103F088FE9C4DB8602C686846D7
:100FF000E268131C0E33DB08DB00C01A854660680C
:101000006B461218FB62131C0E33DB086946DB00CB
:10101000C91A53000E33DB08DB008D46C91A684637
:1010200079628D460021786309F064FAE0686168AE
:101030004218012152004942786A09F05BFA23699B
:10104000E2688749D2189200386909F053FA2B6890
:10105000F86ADA68796909F00BFA002E14D17F4D2D
:10106000804C2B6808201A681B7922706370A3706B
:101070007F235B42E370211CD223FA6A237106F0BE
:10108000C1FC2B681B68BCE040240025FC61BD62EC
:1010900000210122F86A05F0DBF8032004F026FCA9
:1010A0006E4C704923681E6858689A680423CB7098
:1010B00051230B716C4B8A701B6801325B69920083
:1010C00048709A1802200E7006F09CFC23681B687A
:1010D0003B63396B614B0139B96100D281E01B6818
:1010E00059688C466646013EB44677D35B4BBA6975
:1010F00018683C6943685D4D534363449A00A218E5
:101100001168A942EED03E6B8068574C704324684A
:10111000604464690130800000595E0084B23C6222
:10112000201CA14203D87D6A611AA95320E07C6A81
:10113000A6190025745F7E60013414D07E6BF4180C
:1011400025786EB2FE60013601DA013503E0FE68F3
:10115000002E08DD013DBB6A444801339BB2257077
:10116000BB6210602CE07D6BEC182578002D01D15E
:1011700010600CE06DB26E1C05D1386A7A68091AED
:101180001180002202E0012D01D1FF2222707C6B30
:10119000E1180A7850B2002806DC7D6A5800405FEA
:1011A000013007D0002A05D1FE6A0132F3563E2BEA
:1011B00005DD05E0FC6AE356002B01DD013A0A700B
:1011C000264BBD691B687E6B5B687C696B4363441F
:1011D000F15CE25CFD6A8A18EA5483E7B869386317
:1011E00077E71B68BC6ADA681B69D3189C4200DB8E
:1011F00035E7FB69013BDBB2FB61002B00D047E721
:101200002DE7013B11D32A685268013AF9D32968C6
:10121000FE6A4968594389187118BE68F0183F3052
:101220000E78007830180870EFE7F86A0021012284
:1012300005F00EF82B68211C18681B79207063706C
:10124000A3707F235B42E37008201D23FA6A237199
:1012500006F0D8FBBD460FB0F0BDC046C40200206A
:10126000FFFF0000F804002000000020FEFF000047
:1012700038B5051C0C1C03F03FFD34300078211CF0
:10128000434258412840FFF7A5FE38BDF0B5464E11
:1012900087B000AFF86094243068B9606400035DE3
:1012A0000125002B02D006F051FA051C3268135DAF
:1012B0003E4CAB422DD02368012D0FD10A219962FB
:1012C0001021D96212211963F8320023137009F03A
:1012D0000FF809F06FF8FFF7C3F814E002221A6262
:1012E0009A6206220021DA62082219611A6306F066
:1012F000C9FC0022027009F053F8236803CB03F005
:1013000065FEFFF785F8326894235B00D55404F03E
:10131000ABFB2368D8699C6A8200111C0A31C9089A
:10132000C9006846401A854659681868E500414377
:1013300089000A31C9086E46C9002B1C701AA40026
:101340000833C11A231C0833DB08DB0085468D46B1
:101350007860C91A684678618D463961301C002171
:1013600009F0C8F82A1C7869002109F0C3F8221C8A
:101370003869002109F0BEF80D4B00229A603A69E5
:1013800079691A61084A7868D960116894221860EE
:101390005E6052008A5C074990004458F868B9685A
:1013A000A047BD4607B0F0BD00000020C4020020E9
:1013B000B00900204000002010B5041C06F042FADD
:1013C00006F0AEF9A042FBD008F06EFFFFF748F838
:1013D00006F03EF810BD0000F7B500AF051CFFF7A2
:1013E000ABFBFFF709F82C4B041C1B685E8806F06A
:1013F0003BF96B4600207B6004F0CAFA04F090FAD7
:10140000264B1B6831331B78002B04D000206080F2
:10141000291C00F02BFB04F003F9C0B206F03EFBE0
:10142000FEF7F6FF1E4B01201B68DA681B69D31814
:101430009B000A33DB08DB006A46D21A95466946F0
:10144000FFF716FF7B689D4606F0FCF906F004FAEC
:10145000052815D004D8002814D003280AD806E09F
:1014600006280AD0031C113BDBB2022B0AD801F07C
:1014700019FC07E005F0A2F904E003F0A7FE01E083
:1014800003F092FE06F04CF9A842DFD0FFF763FBB1
:10149000BD466680F7BDC046AC090020A809002003
:1014A000C402002098B500AF041C06F0CBF90B4B2A
:1014B00001201B68DA681B69D3189B000A33DB081C
:1014C0006A46DB00D21A95466946FFF7D1FE06F060
:1014D00027F9A042FBD0BD4698BDC046C4020020FB
:1014E00010B5041C06F0AEF901F0DAFB06F018F9AD
:1014F000A042FBD010BD10B5041C06F0A3F904F007
:101500003BFB06F00DF9A042FBD010BD10B5041C4A
:1015100006F098F90220211C00F0A8FA06F000F964
:10152000A042FBD010BD10B5041C06F08BF90120C1
:10153000211C00F09BFA06F0F3F8A042FBD010BD8E
:1015400010B5041C06F07EF9002004F0CFF904F079
:101550002DFA06F0E5F8A042FBD010BD10B5041C32
:1015600006F070F9002003F023FD002004F0BEF91E
:1015700004F01CFA06F0D4F8A042FBD0012003F0DE
:1015800017FD10BDF0B5A3B002AF386106F05AF9EF
:10159000002008F043FF08F00DFF002004F0F8F9E8
:1015A0005B4C694623685D6818681B694543EB1806
:1015B0000733DB08DB00C91A8D4602AAFA6103F083
:1015C000A7FB03F099FBFB695D19181C291C7D61C1
:1015D00004F064FB23686C465A681B69D3189B00AF
:1015E0000A33DB08DB00E41AA54602ACBC6106F056
:1015F00029F9381C00212022203008F07BFF444CC0
:1016000020202368012519681A79C155212022213B
:10161000C255CA550533DB7F25202322D355C35D30
:101620007F229343FA692B43C1190B700092002269
:10163000131C0420053906F0ABF979692A1CF869F6
:1016400004F006FE002004F051F92568B8696E68C0
:101650002B69B4009B199C462E4B04191968BC6079
:10166000002363450CDA9A00B34203DACC69B86907
:10167000A45802E04C6AB868A45884500133F0E7DB
:101680003C1C4034201C0021202208F033FF296834
:10169000AB6821706670A3700535EA7F7F26E27023
:1016A00062790425B2432A4362711A4A01331268EF
:1016B0009B005269211CD318002220340093022081
:1016C000131C06F065F9201C0021202208F012FFEF
:1016D000012323700E4B211C1B6810201A7905333F
:1016E0006270A270DB7FBA69E3706379B3431D4314
:1016F000657100920022131C06F04AF906F010F8FA
:101700003C69A04200D174E7BD4621B0F0BDC0469F
:10171000C40200200000002010B5041C06F092F85E
:1017200005F0FEFFA042FBD010BD0000F0B58BB06D
:1017300000AFB86106F09AFA584C6E4623689D686F
:10174000DB687D625A00111C0E319B00C9080E3304
:10175000C900DB08DB00761AB546F61A6D46002193
:101760006846B5467D61FE6008F0C4FE002004F0C6
:10177000BDF87E6A4A4A20681568B2005242036882
:10178000BA60321C5A439100F961B107711A79604D
:101790009107891A3A62013B23D344683E6A3219A1
:1017A000261C5E437618B400FE68920034193C6132
:1017B000FC69A2420BD03C690426A418A4466C69BB
:1017C0007642A458B44466463460043AF0E7BE68F2
:1017D0003A6AA419FC617C6A7E68121B3A62891914
:1017E000D9E7BC690B2C55D1002004F07FF82B4BB6
:1017F00019682B4B08681C687B6AB86143439A00E0
:101800003A629A07D21A3A61FB61844666464A6890
:10181000013EB4462ED365465543FE692148B318B0
:10182000121852197E6938695200B2182D18FE68D4
:10183000AD0075199B003D603E6AB3420ED03D6815
:10184000E818656904380668E858301A0025565FBC
:10185000864200DA1080043B023AEDE7BD68761953
:101860003E627D6AFE69761BFE617D683E6976197F
:101870003E61CBE70C49B8697E23D2B25B42087067
:101880004A708A70CB70012052237A690B7106F07E
:10189000B9F8A9E7BD460BB0F0BDC046C4020020B0
:1018A00000000020FFFFFF7FF804002010B5041C9B
:1018B00005F0C8FF201CFFF739FF05F031FFA042FB
:1018C000F8D010BD70B5037886B0041C022B2BD164
:1018D00003F006FA6568164C266805F045FFFF36EA
:1018E000707204A805F07AFF684605F043FF694668
:1018F0000F22281C08F0BCFD23680A21FF315A186A
:101900002978FF331170587A049A059B05F08AF9FB
:101910002368FF339C7A6408201C05F0B7F9201C6B
:1019200005F054FB04F0A0F8012006B070BDC046DD
:101930000000002008B50F4B02781B684168942016
:101940004000185CEC33012803D10B4800680230DA
:1019500002E00A48006844301860002A03D0C9B287
:10196000002000F083F803F05BFEC0B206F096F8AA
:10197000022008BD00000020AC090020A8090020BA
:1019800008B503680079012804D11968FFF770FCD5
:10199000032004E00238434243410520C01A08BD39
:1019A000037A70B506784568012B05D0022B05D166
:1019B00004F05AF8002302E0042401E00123052486
:1019C000044A70B21268291C9269FEF793FE201C2B
:1019D00070BDC04600000020037BF7B5046806799F
:1019E000057A0527022B02D104F03EF8032706F002
:1019F00049F976B241782268301CA3680095FEF759
:101A00002DFE381CFEBD0000F0B5174B87B01A68DC
:101A100094235B00D25C0C1C076846688568C36829
:101A2000012A05D1F8B2311C2A1C00F027FB16E070
:101A30005A78197812020A439978FFB209040A43C6
:101A4000D97868460906114305910B22191D08F043
:101A50000FFD381C311C2A1C059B01F051F8207029
:101A6000207807B0F0BDC04600000020F0B5CC4C97
:101A70009DB000AFF863206879604079430001337E
:101A8000FB65786303F0BCFD236878665B79FF2211
:101A9000D31A984200DD7B66786E7C6B041B3C6336
:101AA0006C4603F0B5FDBC65FC6D684665002B1CFB
:101AB0000833DB08BB4CDB00C01A012363707C23B6
:101AC0005B423A1C8546E370211CB123002064323E
:101AD00023716E4605F096FF0023211C3C6B5A00D3
:101AE0001819FC6D0133B052A342F7DB0223CB700F
:101AF000321CE4B2632300204C700B717C6405F04F
:101B000081FF2B1CBC6D0833A546DB08DB00684653
:101B1000C01A8546C01A6C468546BC65386404F018
:101B20007DF8F861012003F0FFFB00212A1C386CCE
:101B300008F0E0FCB86D00212A1C08F0DBFCFC6D0D
:101B40006846A400231C0A33DB08DB00C01A854664
:101B5000C01AFC6278626C468546C01A8546BC6233
:101B60006C46BC61FC69A400BC600024FC640021DC
:101B7000FA6AB86A08F0BEFC786AFF21FA6A08F0CF
:101B8000B9FC0024864BBC641B68BC6C1B799C426E
:101B900051DA3C6B0026E4B2201C7C6103F045FD69
:101BA00003F00EFD03F0B6FBBC697D6A3C62BC6AC3
:101BB000F86D0136F217C30F86425341DBB23B6129
:101BC000002B06D179698819C0B203F02EFD03F00D
:101BD000F7FC6B46FB60BB686A460A33DB08DB0038
:101BE000D01A85466A467A6504F020F80020031C66
:101BF000FA69934205DA796D9A008A5801338018A0
:101C0000F6E72368984200D920602968884200D20C
:101C1000286003F073FB3A6A043501C23A62FB683C
:101C200038699D460434002802D103F073FBBFE7F6
:101C3000BC6C0134A6E700255B4E2C1CB96A7A6A9D
:101C4000A300C858D358C01A022C06D0864204DD1F
:101C50003B6B061CE318BB633C65854200DA051C40
:101C600003F04CFBB96DFA6D63000134C852944225
:101C7000E4DB281C03F042FB494B1B685B8898425D
:101C800006DAFC6B012C03D07C6EBC637C6B3C657C
:101C9000FEF73EFCFC6B012C21D13A6C0023BC6D9D
:101CA0005900615A1088884200D21180FC6D0133BE
:101CB0000232A342F3DB3C6D63003C6C1A5BFC6CAC
:101CC000131CA24200D2231C36499BB27C6CFB64DD
:101CD000002002234C70CB7008713A6C19E0F86B4D
:101CE000304C022808D1796C042300206170E37025
:101CF0002071211CBA6927E0281C03F0FFFA7A6CD6
:101D000080B2F864627002230020BA6DE370207123
:101D1000211C05F077FE3C6D6823DC53BC6B6A2008
:101D2000C4533C6D6E216300BC6D6C201B5BFC6C6E
:101D3000C353CC531B4904234B700223CB703A1C72
:101D4000B2230B710020683205F05CFE174E3C6D2B
:101D500032686300111CEC31BC6D09681B5B09889B
:101D60008B4227D9002925D008F05EFB041C08F01F
:101D700091FAC379051C002B06D0012005F082FEE4
:101D80003368EC331D6027E0002C25D1084B1B681D
:101D90009B7C002B20D1012005F068FE1CE0C04692
:101DA000AC09002078000020FFFFFF7F000000202A
:101DB000A8090020EB321278002A0DD00E4C2068C2
:101DC00042889A4208D9002005F05CFE0B4B22683D
:101DD0001B680232EC331A60FC6B002C06D1BC6B22
:101DE000E0B203F022FCBD461DB0F0BD7B68063BAF
:101DF000012B00D8BBE6F2E7AC0900200000002070
:101E0000F0B585B000920391029008F00DFB061C1E
:101E100005F0F8FC071C05F0FDFC724D01902B68E5
:101E20001A1CE8321278BA4220D0002F08D06E492E
:101E300000203B23021C0B71022605F0E3FD10E09D
:101E40000199052400290DD167493C23381C3A1C0F
:101E50000B7105F0D7FD2B68EA331E78731E9E4187
:101E6000F6B201242B68E8331F701DE01A1CE9321A
:101E7000127801998A4216D0002906D1EA331E78D9
:101E8000731E9E41F6B23A2301E0392302265649D9
:101E90000020021C0B7105F0B5FD2B68019AE93397
:101EA0001A70012400E0052405F042FC071C05F02F
:101EB000A1FC009B032B02D0002F03D107E00124DB
:101EC000002F36D0002005F03BFC012431E02B68C8
:101ED000E8331F88002F2CD10099012902D0022954
:101EE00004D00EE0009805F0C1FD0AE0381C05F0B2
:101EF000BDFD2B68EB331B78002B02D0381C05F09E
:101F0000C1FD05F0ADFD2B68071CEA331B78834249
:101F10000FD0002802D01123012601E01223061C55
:101F200031490020021C0B7105F06CFD2B68EA336F
:101F30001F7008F079FAB04238D008F075FA08F04E
:101F40008DF9071C301C08F089F9009008F06CFA34
:101F5000301C08F063FA08F02DFA244B1B68DB7C78
:101F6000002B0FD0012C0DD0009B3A1C363236339B
:101F70000298039905F0D4FF002003F0B7FCFEF7A8
:101F8000C7FA06E02B680020D233187003F000FD7A
:101F90000124002005F076FD2B6800211A1CEB328D
:101FA0001170134AEC33126802321A6008F03CFADE
:101FB00008F070F9C379002B08D005F05DFD2B689F
:101FC000EB331A78824201D01870012405F02AFC04
:101FD000051C06F0BBF90379AB4200D00571201C4B
:101FE00005B0F0BD00000020FF040020A80900207B
:101FF000AC090020F0B59BB01C1C051C0790042008
:102000006E460E90606800220123073632700293FC
:102010000392049205920693089209920A940B93F4
:102020000C920D920F90109311921294139214939C
:1020300015931695179118941990171CB90002ABB7
:102040003F01D8190B4BCB58311C98470A4B071C42
:102050001A6895235B00D15C012902D10021D1547B
:1020600003E005F05DFBA842E8D0E068FEF789FDDB
:102070001BB0F0BD5000002000000020F0B55D4F07
:102080008FB001933B68151C1A1C0024FF321C7191
:1020900014741C61061C009106F05EF9019A564BFF
:1020A0000B92564A1B6812680794089409940C9482
:1020B0000D9406950A959B8E5078FA215843890015
:1020C00008F0B4FA009A3C681378FE34E081B34219
:1020D00003D005F0B7FB009B1E703B6800229A609E
:1020E00005F0D6FC041C03F09BFAA04206D0201C8D
:1020F00003F09BFA03226B46DA7257E04049002056
:10210000A623021C0B7105F07DFC0198FEF74EFD25
:1021100039686C46081CCC30CE31FEF71BFA394BBF
:1021200039491B6802205B680B344B700423CB7069
:102130005B230B713B68DA6905F064FC3B6833494B
:102140001A1CCC3212880C2003921A1CCE32128830
:10215000D03304921B8803AA059301230B7105F069
:1021600051FC3A68211C1079294A8300D3180001D8
:1021700006AA10189B6998473B68B8229A562868A7
:10218000A968FFF73DFE052800D02070214B1A6892
:10219000214B9A4202D003F0EFFCFEE73B681F4A56
:1021A0009968914202D09A6801329A606C460B3469
:1021B0002378052B0CD005F0C9FA3B689422520015
:1021C0009A5C824212D0012195228A4099540DE0F6
:1021D00005F0BCFA94233A685B00D35C8342EAD1F1
:1021E00005F09EFAB04200D17AE7E4E720780FB01C
:1021F000F0BDC04600000020A8090020AC09002066
:10220000FF040020C4020020780000207F0000208E
:10221000500000200C0A0020CDCDCDCDFFFFFF7F68
:10222000F7B5434C151C236801911A1CB53212787E
:10223000061C002A23D01A1CEA321278002A1ED16A
:102240001A1CD2321178002919D1B4331B78002B13
:1022500015D10123137002F04FFD071C02F040FD61
:102260003A1C031C36323B33301C019905F058FEF2
:1022700003F008FB022003F011FBFEF749F9236885
:102280001A1CD2321278002A4ED01A1C294F002074
:10229000B43210703A680190126A011C013A0ED3F0
:1022A0000E265643B446AC446646B688002EF5D09A
:1022B00036B20131B042F1DA301C0192EEE71A1C5D
:1022C000EA321278002A12D1012910DD06F03EF818
:1022D000012383663B681B6A013B0AD3019EB3421C
:1022E000FAD00E225A430021AA189180F4E700295F
:1022F00004D023680022D8331A6008E01A1CD832B0
:10230000D43311681B68994201DC013111602368E4
:10231000191C1A1CD831D43209681268914205DDA3
:10232000B43301221A7001E0D8331A60F7BDC046F9
:1023300000000020C4020020F0B5784E99B0046877
:10234000306802AF39602C220021303008F0D2F81A
:10235000381C00212022183008F0CCF8704D2B6872
:10236000186859689A6838767976BA760533DB7FCB
:102370007F21FB767B7F01328B4304210B437B77EC
:10238000336892005B69391C9A1800920022131C72
:102390000220183105F0FCFA6B46FB602B681868C8
:1023A0009B68021C5B0002325A43111C0831C908A9
:1023B0007861C9006846401A854602AE5B08002174
:1023C000301C3B6108F096F87B69396901334B4357
:1023D00001335B00321CF3182068A168FEF772FA23
:1023E000B860FA689546052800D085E02E686846F2
:1023F000F16A78600A01131C0833C01A854602A9E5
:102400007961081C002108F075F8F26A7869E168C2
:10241000FEF736FB2B6868469A6A0E235A43131C54
:102420000833DB08DB00C01A854602AD0021281CFA
:1024300008F060F823697869291CE268FEF75CFB04
:10244000FEF76CFC374B1B68DB7C002B04D120684B
:10245000A1682A1CFFF7E4FEE168281C00F02AFFAF
:1024600007F000FA83000733DB08DB006946C91A6E
:102470002B4B8D461C6802AAA36AFA607B610E2270
:10248000013B5343ED18061C043538617B69013B61
:102490007B610FD300202B5E002B09DD3969FA68C0
:1024A0000139880039611018291D042207F0E0FF66
:1024B0000E3DEBE73D1C383500212022281C08F09A
:1024C00019F861682068A368697014492870AB70B6
:1024D00009680534E27FC96A0133EA705B007E2235
:1024E000CB1852426A710093F2B20320291CFB6898
:1024F00005F04EFA7A68954603F0AEF803F0C2F99B
:1025000002F0DAFE012003F0F1F903F02DF8B868CB
:102510003B68BD46187017B0F0BDC04600000020F3
:10252000C4020020A8090020F0B501279FB00A9737
:10253000052712975F6800240222051C6E4602A838
:102540001B911B490736069207900E930F92139723
:1025500014921693062719921C931D903F23201C5A
:10256000221C3470089409940B950C940D941094CB
:1025700011941594179718941A950B7105F042FA57
:10258000A20006AB240118190A4B311CD3589847F6
:10259000041C05F0DBF8084B1A6894235B00D35C3D
:1025A000834203D105F0BCF8A842E9D01FB0F0BDCA
:1025B000FF0400205000002000000020F0B597B07C
:1025C00002AFBB603B1C6833061CB96101CBB96824
:1025D0001B780D787A62FB60C74C002D00D0DFE0DD
:1025E000BA691378082B0DD103F03EFA2368052051
:1025F0009A6971682B1CFEF77DF8BB6905201D7078
:10260000F8616FE26A4605207A6103F06FF9BB4B0F
:102610001B6898695A69410001324A43131C083308
:10262000DB08DB006946C91A8D4602AB291C181C61
:102630003B6207F05FFF236872689969386A05F0AA
:10264000F9FC051C786205F029FBAD4B41681B685D
:102650009A6B914203DBDA6B83689A4206DA23684D
:102660000122191C7831FF330A70DA7323681A1CAF
:10267000FC32FE33D989506808F02EF8F96105F074
:102680004BFE012D11D12268F430131CFF33DC7A8C
:1026900000780021A04201D8D97202E00134DC7236
:1026A00079627832012313700EE023680022FF3331
:1026B000DA72DB7B934207D1914B70681B68396AF1
:1026C00041331A7805F0BEFD8B4D786A2B680024E3
:1026D0001A1CFF32D473012814D103F0C5F9062067
:1026E00003F004F97A6AB968BB690A701C702B6838
:1026F000844978331C70201CA323221C0B7105F025
:1027000081F948E07E4D191C2A68FE313232127878
:10271000C989F869891A814201DD904219DC191CC6
:10272000FC314968914214DDF969914214D1783342
:102730001C78002C0AD103F097F93268B3680620A0
:1027400001210094FDF78AFF03F08EF96A4A1268AE
:10275000131C783300221A7067486B490368FC33F6
:102760005A688A4201D001325A6004F031FE04F006
:10277000CDFD2B684133187802F052FD002002F0A5
:1027800071FDF86802F051FF04F0E4FD02F0C6FAB2
:10279000B96EAC3001607A6905239546FB61A1E111
:1027A000574D2B68423318782368186002F038FDC3
:1027B000062003F073F8514A694613683962986835
:1027C0001A68410002324A43131C0833DB08DB005D
:1027D0006946C91A8D4602AB181C0021FB6107F03F
:1027E00089FE206800212C22303007F083FEB1687A
:1027F0003068FA690023FEF765F8F861386AF9690C
:102800008546052900D06DE12B68FA211A1C483253
:102810004233128818788900504307F007FF786127
:1028200036486B4605683B61E96A68460A01131C35
:102830000833C01A854602AC201C002107F05AFE5E
:10284000EA6A201CF168FEF71BF92C4968460B6800
:1028500000259A6A0E235A43131C0833DB08DB0059
:10286000C01A854602A93962081C002107F042FE01
:10287000201C396AF2683369FEF73EF93C6A1F4B47
:102880001B689B6A9D4211DAF268EB00D31822881C
:10289000A11C1A806288201C5A80E2880135DA80E7
:1028A000A2880E349A8006F033FFE8E7BB69796AA4
:1028B0001A78386A07F002F8B96908703A690B7833
:1028C00095465A1E0C4D012A03D82A680021FC3275
:1028D0009160032B09D0072B18D0012B00D0FFE00B
:1028E0002B680022FC339A60FAE0786A07F04AFB12
:1028F000041E19D00BE0C04600000020C4020020D6
:10290000A8090020FF040020FFFFFF7F182404F027
:1029100025FF764B1B68DB6C18400123A340184051
:10292000431E9841404204402A68131CFF33597AE1
:10293000022908D1FC3292687869824203DDB969C4
:1029400008220A7000245A7A022A3ED19B7A5A073A
:1029500033D5182C31D1381C303004F03FFF7B6A5E
:10296000786A1A785B78BE8E1B0213438278FD8EDC
:1029700012041343C278381C120613431A882C30F1
:10298000BA855B88FB8506F0F1FE2C217B5E9E42BA
:102990001DDA3A8EB6189E4219DD2E22BB5E9D428C
:1029A00015DA7A8EAD189D4211DD012004F008FF82
:1029B000B88DF98D04F0F8FE84E0980705D51A2C3F
:1029C00003D1012004F0E2FE7CE0002C7AD1484DD6
:1029D0002B681A1CFF32517A0122022906D1191CD8
:1029E000FC3189687869814200DC0022B86901788D
:1029F00008295BD1D2B2002A58D004F01BFF00286E
:102A00003AD00224381C221C3A492C3007F030FD01
:102A1000381C211C2C3004F081FF052004F0B2FF8B
:102A2000381C00212022303007F064FD796A302202
:102A30000B7B3521D3553123DC55CB5D7F2293436E
:102A40003220C4551C4380235B421C437B6ACA1955
:102A500014701A785B78786A1B0213438278391CE9
:102A600012041343C278303112061343002200933C
:102A70000520131C04F08CFF02F004FF012002F07B
:102A8000C3FBB96800240C702B68201CFC339C60CD
:102A90005C6004F07BFE201C04F092FE1649A22329
:102AA000201C221C0B7104F0ADFF1BE0FC339A6864
:102AB00012498A4201D001329A6002F0E3FE02F02C
:102AC000CBFD0FE0302202213123D019D155DC5546
:102AD00004F024FF02F0D6FE012002F095FB01E095
:102AE000002421E7F869BD4615B0F0BDA809002013
:102AF00000000020A0A60000FF040020FFFFFF7FD1
:102B000082B0F0B5DFB06593DBB207929A075B073E
:102B1000DB0F05936B46D20F002526330F1C069260
:102B20001D70061C02F0FAF8031CAC331B680EACD7
:102B30000390049305F010FC6B46A0222733201C61
:102B40005200291C1D7007F0D5FC504B220A1C7046
:102B50005A70220C240E9A70DC709D744C4B1A68CB
:102B6000FF32537A022B11D1927A1A420ED0494B7E
:102B7000FA201B6880000833DB8F584303F0D8F835
:102B800002F042FB02F062FB02F066FD42490020C7
:102B9000A223021C0B7104F035FF3B78B34202D034
:102BA00004F050FE3E703B4A394B12681B684132BC
:102BB00011781A1CFE324900D18100229A6004F07B
:102BC00067FF041C02F02CFDA04204D0201C02F080
:102BD0002CFD04242CE0049F69466B4626312B4AC9
:102BE0002733009701900798FFF7E8FC0AAD041C13
:102BF000281C04F0BFFD65AB1978069F02227800FF
:102C00009143059F01430420BA0081431143197089
:102C10002B78062211401A40914209D01C4A1268B2
:102C2000FF3293725A079B07D20FDB0F0592069370
:102C3000174D1A4A2B689968914202D09A6801325E
:102C40009A60052C0CD104F081FD2A6894235B0066
:102C5000D35C834206D104F063FDB042AFD001E003
:102C6000042C05D0039B049FAC331F6002F058FE78
:102C70006B4627331B78002B01D002F003FE201C8B
:102C80005FB0F0BC08BC02B01847C046C4090020C1
:102C900000000020A8090020FF040020FFFFFF7FA4
:102CA00070470000CB4BF0B51C68A3B06368226886
:102CB00000AF5A435100D2185200F8635800131C59
:102CC0000833DB08B863DB006846C01A85466B46EC
:102CD000F96000217B6307F00DFC636822689D00AA
:102CE0005A43D3189A00131C0A33DB08DB006846EA
:102CF000C01A85466B460021FB6207F0FBFB636848
:102D000022689E005A43D3189A00131C0A33DB082A
:102D1000DB006846C01A85466B46FF21FB6107F061
:102D2000E9FBF86B00210138B8613963162810D827
:102D30000123A94A8340134206D1A84A134208D06E
:102D4000A74B1B682E3302E0A54B1B6830331B7862
:102D50003B63BA6B3B6BAD085208B608013B3D6163
:102D6000BA607E617B627A6A013200D18BE0B86919
:102D7000022804D9FB6B113B012B00D97FE0002016
:102D800002F0B4FD934B974A1E6815683368BC6C1B
:102D90007B643B623B6A013BBB636DD37468013C5F
:102DA000611C66D0B368396A6A694B43E318013322
:102DB0009B009858FB6B032B2AD004DC012B06D018
:102DC000022B0BD0EBE7FB6B113B012BE7D8E9693A
:102DD000A3005B58C01AC343DB171840BA6B3B69AA
:102DE000F96A5343E3189B005958FA6A40189850FF
:102DF0007B6A002BD3D1B96BBB684B43E3185B00F4
:102E0000396BBB6207F0C4FBBA6A7B6BD052C6E772
:102E1000B96B3B694B43F96AE21892005258BA62A7
:102E2000824200D2B862B96AFA6AE3189B009950EC
:102E3000BB6B7A69F9695A43A3189B003A605A58E8
:102E40009446824200D984463B68F869E1188900BB
:102E500062460A50B86A7F21831AFD2B01D85B08AD
:102E600099B2BB68BA6B786B5343E3185B00195295
:102E700095E7BA6B3A628DE7B86BBC647864796A9F
:102E8000013979626FE7534E1A223368186859681E
:102E90007862B9631C690533DB7F381C00214C3034
:102EA0003B6207F027FB7A6BFB68101CD518291CC6
:102EB000FA6B00F063F9F86B11286CDB12280BDD5C
:102EC000132868D10022786B291C03F0C1F9BA6B72
:102ED0000023FA633B6260E0F96B11290CD133687F
:102EE000BA6B5B68013A013BFB603C1C0023FA6350
:102EF0004834BB6101200DE03368796A1B68BA6B06
:102F0000013B0139FB603C1C01237962FA634434C4
:102F1000BB6100203568F861296879647B6C591EB3
:102F200039637964002B34D06A68BA64BA6C531E72
:102F3000BB64002AF2D0386BB969BE6842183869A0
:102F40004243F869C1188A18F96A92005058396BDF
:102F50003A694E434A4384469A18F86A92001258D6
:102F60002168F8689E19760081420EDA6146FA20DF
:102F70008B1A8000891858434910002900DC012170
:102F800007F054FB7A6BB052D0E7786B00233352D2
:102F9000CCE71C1C01E0B86BF863796ABB6B386A3C
:102FA0003D1C6835FA6B2970AB70E870391C381C11
:102FB0007E235B426A704C311A226E306B712C7129
:102FC00007F056FA281C796B04F04EFCBD4623B07E
:102FD000F0BDC046C402002004004000030003000E
:102FE000A809002000000020F0B54F4C89B000AFC8
:102FF0002668F96001684068331C7861FE333961E6
:10300000D989306907F068FB484B0D1C1B689A6929
:1030100051005A6901324A43131C0833DB08DB00B4
:103020006946C91A8D46F961081C002107F062FA49
:10303000B1697A69F86904F0FDFFB86104F02EFE09
:1030400022683B4E0021BA60FF32D17331687A604A
:1030500043688A6B934203DBCB6B81688B4206DA51
:10306000B868BA6801217830FF320170D173B9694C
:1030700001290CD17A68081C117402F0C5F802F01D
:10308000EBFA02F0FFFB002002F030FC41E079682F
:10309000CB7B002B06D1274B78691B68F9695A78DE
:1030A00005F0D0F823680022FF331A7402F0D4FA36
:1030B00002F0E8FB02F000F9012002F017FC02F038
:1030C00053FAFDF72BFE23683268191C3232FE31A9
:1030D0001278C989891AA94201DD95421ADC196959
:1030E000914217DD002D04D102F0E6F8281C02F011
:1030F000FDFB336832331B789D420ED123681A1CC6
:1031000078321278002A04D13A695969106804F0BB
:1031100087FE2368783300221A70F9680523BD46BC
:103120000B7009B0F0BDC04600000020C4020020B2
:10313000A8090020AC09002008B504F027FA08BD52
:103140000C4B10B51B681A6B002A03DD996B5218E3
:10315000D10F0BE000218A4208D1074909680624F3
:10316000085F9C6B0121844200DB111C68331970DD
:1031700010BDC04600000020AC09002070470000D0
:1031800008B502F0CDFB01F04DFF01F0E7FE01F0C4
:103190009BFE0F4B1B681A7A0E4B1B68D033002A1C
:1031A00001D0022200E003220B491A6000230B70B9
:1031B0000A49A0220B700A49D2050B709363D36BA6
:1031C0003F218B43D36362B603F0D4F808BDC046F9
:1031D000E009002070000020290000502800005065
:1031E0002A00005038B5051CFDF70CF9041CF83412
:1031F00005F092F82378002B26D0144B00221B6890
:10320000DB6A013B07D3190169180820095E002910
:10321000F7D10122F5E70E4B1968086B0B1CFC3344
:1032200000280FD1896B00290CD1002A0BD01A6815
:10323000FE2A01DC01321A601A68052A04DD002228
:10324000227000E000221A6038BDC046C40200208F
:103250000000002070B5051C0C1C161C04F026FB99
:10326000002802D001280AD023E00E204643AD19E1
:10327000EA88FF23FE2A00D8D3B2637119E00E203A
:1032800070432818C288FF23FE2A00D8D3B2637186
:103290000B220A238256C3560921D31A082241560B
:1032A00082568A1A934202DDA371E27101E0A27193
:1032B000E37170BDF0B59F4B8FB01B6803909E68A3
:1032C000DF68059601971E695F6904960697079166
:1032D0009F6904F0F1FA984B01261B68E8331B78CC
:1032E0000296002B5AD00026079D039C029600965A
:1032F000924B009E1B681B6A9E424FDA2B880AA8DD
:1033000003806B88438006F031FA0420235E002B93
:103310003EDD238809AE33806388301C738006F05D
:1033200025FA0021735E059A9A420ADA01989842BA
:1033300007DD0221725E049E964202DA069E9642E4
:1033400024DC04202A5E002A1DDD7D4A009E1268CE
:103350009020921980001218127952B2012A12DDBF
:10336000059EF21B9A420EDA019EF2199A420ADD7C
:1033700009AB049E02201B5EF21B9A4203DA069EF2
:10338000F2199A4202DC0023A38001E00126029692
:10339000009E0835013600960E34A9E70127039DEB
:1033A000079C0197654B019E1B68013E1B6A0096B6
:1033B0009E4200DBB3E023880AAE33806388301C72
:1033C000738006F0D3F904202B5E002B78DD2B8868
:1033D00009AF3B806B88381C7B8006F0C7F9584BDF
:1033E00039887A881B68009F8C46DB19503319781E
:1033F000544B30881B687688002901D1453300E0A2
:1034000046330427E15F1B78002910DD36B211B284
:10341000891BCE1789197140994208DA674600B2B4
:1034200039B2091AC8170918414099426DDB029E4A
:10343000002E6AD00BAE337880277F421F43DF20F7
:103440000740287B0123402118400F4310239F434E
:10345000000101990F2338439843194067460143FF
:1034600038B27778001218409F43317011B2384358
:103470000912F270AA880340090119436046131C1F
:1034800012B27170B070FF2A00DDFF23311C009A68
:1034900003983371FFF7DEFE301C04F017FA284B57
:1034A0000421625E1B68002A04DD009E01229B1934
:1034B000503303E0009F0022DB1950331A7020E0E4
:1034C0000420235E002B20DD0BAF00210C22381CD2
:1034D00007F010F8019A0F231A4040210A433A706E
:1034E0000122B256032030569446318872886646CF
:1034F000000133400343381C7B70B970FA7004F04C
:10350000E5F92B8823806B886380AB88019FA380BB
:10351000EB880137E38001970E35083442E7084B0A
:103520001B689A6E191C5C310A70DA6604F0E2F9C5
:103530000FB0F0BDFC09002000000020C4020020F4
:10354000CC020020F8090020F0B5D54B9BB01B68D9
:1035500000250593D34B0D901B6810911E6A0E2316
:103560007343C4180C9311960A94231C321C0695BD
:103570000B950E3B013A0BD3D988069F8F4200DA98
:1035800006910420195E0B9C8C42F2DA0B91F0E755
:10359000C54C012123681A1C5232127891401A1C22
:1035A000533212785433891A1A788B1ADBB2139378
:1035B000FCF728FF23680E901A1C383212780F92FD
:1035C00094225200825C022A03D1B84B1B68F53367
:1035D00006E02A220E9DFF32AA5C022A02D139336C
:1035E0001B780F930C9B0D9C0E3BE318771E1C1C45
:1035F00008970793059D331C8C270933BF009B0058
:10360000EA19D31804340993013E00D2F3E0231FD2
:103610000020195E0F9D0023E25EA54B02959942A2
:1036200004DC01270297002A00DC02959E4B029DD4
:103630001B68191C38310978A94213D1059F8C20C9
:10364000800039188919097D49B2A9420AD1109D13
:10365000F10069180427C95F002903D0191C39310A
:1036600009780291002A00D1C0E01A1C473215786F
:103670000E9F94225200BA5C012A04D11A1C608861
:1036800002CA14330CE0022A0DD1884B88271B682C
:103690007F001A1CFC3211696088DA192133FF336C
:1036A00004F0AFFA03900E9BF8331A787E4B002A91
:1036B00006D01A68039F29321278974200DA0392E3
:1036C0001A68131C48331B78002B01D164234CE08B
:1036D0002B1C784F059DEF191497787B15900028C7
:1036E00022D10021675E64217943CB2080008C4683
:1036F0002918039D5D43AC4514DD039DAF4211DCE9
:103700008F68BC460127BC44684F60463F688860AC
:1037100080373F78BC4507D1149D01276F73159FF3
:103720008F6001E000208860059F62483D18697B3A
:10373000002914D00027E15FCB20059F80008C4634
:103740003918039FBC4508DD8868029F01308860F6
:10375000B84204D10020687300E000208860059D15
:10376000544FE919497B0029B0D0059D8C27BF0033
:10377000E9198819057D0027E05F002D03D0029F1D
:103780006DB2BD4221DC039D642141436B439942EC
:103790000EDB131C44331B78069F61887B439B110F
:1037A000994205DB136C0B9D6B439B1198421DDA0C
:1037B000099F002363802380059D3B608C27BF0009
:1037C000EB195A68013A5A6010E03B4D28326843C1
:1037D0001278039D6A435343984207DA099F0023F6
:1037E000638023803B604B68013B4B60099D0E3C2E
:1037F000043D099508E7059E8C27BF00089CF31936
:1038000000225A60119D1A19109E14320D9F0C9CB3
:103810000692EA00B21803923A190C3A0292089AF8
:10382000089D6C3252009A1804320C92089A8C2629
:10383000743252009B1808330D930C236B43B6006F
:10384000059F9B19FB181093089F013700D1C7E211
:10385000079D0A9C0F9E0022AA5E154B0E3C049405
:1038600009969A4208DC0A9B01240A3B0027DB5F89
:103870000994002B00DC09960A9D0A3D0026AB5FE7
:103880000B95002B00D12EE2069F099A3B78063259
:103890000133DBB259B2914210DC3B7012E0C046FA
:1038A000CC020020C4020020F8090020FC090020FE
:1038B000FF0100002F03000010270000099B069C59
:1038C00004332370069D0023EB56012B09D1079E7C
:1038D000039B3288083B029F1A80039B3A88063B71
:1038E0001A80069C00256557012D65DDA81C032163
:1038F00006F0F2FE039CCEB21296083C022D45D192
:10390000DD4B039D1868DD4B063D196803680027F1
:10391000E25F9C460026AB5F4E690969406849102A
:10392000511ACF170138C91900027940401A7F286F
:103930000ADD76109E1BF0176746013F36183F02DE
:103940004640BF1B7F2F11DC079E029F0020305E88
:103950000021795E801AC91A05F016F90B2805D9DD
:103960002388079C23802B88029D2B800323013B07
:103970001CD3109F079E5A00BA183088111C5A3168
:10398000029C0880218860321180F0E7089D0623A0
:103990006B43059EC9182288B94B49007118CA5259
:1039A000039B063B1A88A4239B00CA52079F029CD4
:1039B0003F88248819971894B24B1B681A1C9C32B4
:1039C0001178012923D19D331B78089D9D421EDA71
:1039D0000E9BEA331B88002B19D10E9BD2331B7828
:1039E000002B14D1D4216943A44B069E1B68883157
:1039F00059180023F3560092A34A049812683832EB
:103A000012780192039A083A00F0AAFC53E1069F4B
:103A10000026BE57012E00DC4DE1079C0025655FA6
:103A2000032E00DC34E1089C0627674312980599B1
:103A3000C4196400924A0C19A25A0430032111924D
:103A400006F04AFECAB2059BD21952009A188C4859
:103A5000A4239B00115AE05AD35A14909C46042E7A
:103A60000FD1039B083B0022985E281AC317C01889
:103A70005840039B029D063B0022AA5E00269B5FE6
:103A80000CE00C9E0020305E0D9E281AC217029D8D
:103A9000801850400023F35E0022AA5ED31ADA1782
:103AA0009B18059D089E5340784AC018AB199B1877
:103AB0001D78754A002D06D015685A352D88A84204
:103AC00008DC002505E015685C352D88A84201DB7F
:103AD00001251D701B78002B31D112688021131C29
:103AE0005832128856331B8800924A0004F078F846
:103AF000634F079D061C0021695EE05F029F0B1A61
:103B0000DD175A196A4000257D5FA427BF0094463F
:103B1000E25FAD1AEA17AD18554065442B1C321C04
:103B200005F0AAFE079B321C1880E05F029C2B1C4C
:103B30000021615E05F0A0FE029D288077E0119EC5
:103B4000149DB4B2611A09B26646AAB2CB0F5918D5
:103B5000931B1BB2DD0FEB18079D5B100026AD5FBA
:103B600049100495029D16930026AD5F6318169EBA
:103B7000049C17951BB2E31A9219179CDD1712B219
:103B8000A21A5B196B40D51752196A409B18159100
:103B90000024802B01DD1C1C803C12980321053081
:103BA00006F09AFD384BC9191F68119A059E3B1CF7
:103BB000533349005D78711810B21E78304A139B58
:103BC00058438B5E7343C018049B6B43C0183B1C67
:103BD00052331A7855371041119014983B7807B238
:103BE00013984743A4208000095E4E43BE19179FD7
:103BF00016997D437519159E59437343119F1141C1
:103C0000134115418022F8186D18231C0499D20025
:103C100005F032FE079E029F30808022231C002187
:103C2000795E281CD20005F027FE029C2080039BB1
:103C30000B9E043B0021715E0025585F124D431A14
:103C40002F68DC171B1963403C22BA5E05F014FE96
:103C50000B9E039B0A9C3080023B083C18882188FD
:103C60002B683C27DA5F431ADD175B196B4005F0C0
:103C700003FE20801FE0C046C4020020CC020020CA
:103C80008A020000FC090020F8090020020300005D
:103C9000039B079F083B00269B5F029CED18039B3C
:103CA0006D103D80063B0022A25E00255B5F029EF8
:103CB000D3185B103380069F0022BA56099CA2429B
:103CC0006CDD0B9D0023EB5E002B74DD039B043B3E
:103CD00000269B5F002B6EDD199C0C9F189E0D9D8E
:103CE0003C802E8067E0069C0022A256099DAA42D5
:103CF00030DD0399043900268A5F002A32D0059FFF
:103D00008C208000089D3A185419A07F0130C0B261
:103D1000A077344C40B224683A342478A04202DDC3
:103D2000069E33701EE0039B079F083B1B88029C86
:103D30003B80039B0B9D063B1B8823800B882B80BD
:103D4000039B023B19880A9B083B19805368013387
:103D5000536007E0059F089C234D069E3A195219AF
:103D600033701370089E069F013E039C079D0896C2
:103D70000A9E013F083C0E3D0E3E06970394029FAB
:103D80000C9C07950A960D9D109E0E3F023C023D2D
:103D90000C3E02970C940D95109655E501230B9C53
:103DA0005B422380059D8C26B600089FAB19DB196A
:103DB00000229A77D6E7059D8C26B600AB19596884
:103DC00001315960074B1B6838331B789A4201DA7E
:103DD000069F3B702A230E9C0022FF33E254E1E74A
:103DE0001BB0F0BDF80900200203000008B5FFF782
:103DF000ABFB08BDF0B58FB0059007910A920B930D
:103E00000024404B1B68DB6A9C4278DA059F230143
:103E1000FB1808201B5E002B6FD0079FA300FB1828
:103E20000327DF5708979B78013F5BB206930497FF
:103E3000089F049801370997B8425EDC069E013E50
:103E4000069B01339E4255DC2E4B04991B680131C1
:103E50009A680A9F5143481C80193D5C013D47D335
:103E6000DB6A9D4244DAAC4242D0079FA300DB5F8D
:103E7000254F40003F687F8EBC46149FC05B834245
:103E800036DC069F6046C91943430131149F49003F
:103E9000C95B9B118B422BDA099F7A43B21801321E
:103EA000149F5200D25B934222DAA54202DB2B1C04
:103EB000251C1C1C059821010DAF41180A31381C26
:103EC000042206F0D5FA059A29015118381C0A3146
:103ED00004F0C2FA00970A9F231C01970B9F0598D4
:103EE0000297149F079903972A1C04F0D3FA2C1CFD
:103EF0000236A5E7049F023799E7013481E70FB046
:103F0000F0BDC046C4020020F8090020F0B59B4B6C
:103F100093B01B6811900B921A7B07260C1C089615
:103F2000062A00D80892964A1268F8321278002AB7
:103F300005D11F7A07970A27DE5F069606E0914BA8
:103F40001B681E7A07960A201F5E06978E4D8F49C2
:103F50002B680B9F1A685E680A709A6804238A703F
:103F600001329200CB70BA18512302204E700B71AF
:103F700003F048FD814900230968A21D049180498E
:103F8000D3770232D3777F26621D0968D6772D68F2
:103F9000E21DD6770E917E496A680968013AD2B26D
:103FA00009917C490D922A680968013A52B20F9131
:103FB00005930093002A00DAA8E00D98530041B25F
:103FC0000A93002900DA9FE0AE68571C7743049BF0
:103FD00001377F18BE0001971B780B9FF059002B0B
:103FE00016D094230E9E5B00F65C022E05D12E683F
:103FF000099F4E43BF18BE5D04E06E68099B56439F
:104000005B189E5D331C43430F9E36697343181340
:104010006B68189F5343CB189B00DE59330C1B1A57
:104020000198119E4700BB53049F002B58DB0E26BE
:10403000BE57B34213DB20689E1B86192660666953
:10404000381C013666610F26BE570E27C7576068B9
:10405000B34201DCDF1B00E0F71BC7196760E768AC
:10406000BB4204DDCEB2D7B210960C97E360089E37
:10407000B3421BDB261C08361F27F7578F4200DA96
:10408000F177E61D1F27F7578F4200DDF177A61D58
:104090001F27F757974200DAF277661D1F27F75759
:1040A000974200DDF277059F013705971A9E4F0072
:1040B000F65B98B20197B446844402901A9F019827
:1040C00066463E520A98199F199E3F5A0298BC466E
:1040D00084440A9F6046F053009EF618009611E053
:1040E0001026BE57B34206DCA0689E1B8619A66048
:1040F000A6690136A6612669B34200DA2361009FF2
:10410000FF1A009701395CE7013A53E71E4B00980C
:104110001B680125D96806F089FA1F497C235B4298
:10412000221CCB70E06176231C32281C0B714D7071
:1041300003F068FC059EA21D26621F21631D5156D7
:104140001F229A56134B1B68914201DB1D7301E03D
:1041500000221A73109F0C9E231C28335E701F7060
:10416000E768079E0120B74205DA2369069FD80F4A
:10417000FA179F425041C0B213B0F0BDEC090020C5
:1041800000000020F4090020C4020020F8040020F0
:10419000F0090020C8020020780000200B4B0968BD
:1041A0001A6894235B00D35C094A1268507B484329
:1041B0008011012B01D1137B04E0022B05D1054BAB
:1041C0001B68DB79984200DA181C70470000002059
:1041D000EC090020F4090020F0B595B00C1C1E1C61
:1041E0000B92069003F04EFD5A4F08903A68032157
:1041F00051562020411A022010564900091A491030
:10420000554DC9B205912B68907A19781B790090A9
:10421000D27A05980192029072681A9805F040FFD0
:1042200038682B687268067A19791B780096407A8C
:10423000059E019002961B9805F032FF002118227E
:104240000EA806F057F9A3687F22180A190C002659
:104250000D932272A27240B25AB249B21B162F6855
:104260006672E6720590079109930496059882425A
:1042700052DC1A9D5300EB180A93079B099E501CB1
:10428000B34247DCB9680B9D4143591801314E00D8
:10429000755F5900AC461B9D664669180989761AF8
:1042A0000A99B4460E896546A91B089E367BB14221
:1042B00013DD0B2565579D4200DAE3720A25655729
:1042C0009D4200DDA37209256557954200DA6272AE
:1042D00008256557954200DD2272CD1F072D08D8AD
:1042E0000EADED5C0126AC46B44466460EADEE5410
:1042F00001E0002904DD049D8D4202DA049100E012
:104300000021BE68069D704318180130800041519D
:104310000133B3E7021CA9E70DA80EA9069A00F025
:10432000C1FB0D4E0D493368049D5A68256018681D
:104330004A709A68069D8A707C2301325B42920023
:104340000870CB70AA18832305200B7103F05AFB69
:1043500015B0F0BD000A0020C4020020F8040020BF
:10436000F0B5E5B014926AAA20CA0D901278281C04
:1043700019920A1C0491D032483011780078884292
:1043800001D301311170CE4A0D9F16680022BA5E2A
:10439000B06F0D9D4243121417920222AA5EF76F6E
:1043A0007A4312141892012B39D1049A0021D13288
:1043B0001170049AD0321370049B179D189F00222D
:1043C00001311D60DF605A601A619A605A619A611A
:1043D000DA611A625A629A62DA6234330429ECD1E1
:1043E0006A9B049D9A8C22332A63DA886A6659890B
:1043F0002A1C98321160D98951631A88291CAA6134
:104400009A880431EA64AA651A89CA6788310A6001
:104410008A609B892A1CB4321360D36053616A9D01
:10442000002402351A941B940395039DA2000023D7
:104430005219181C1A255D43049FD15A7D192D6B02
:10444000023369434018082BF4D1FA21890006F0A1
:104450009FF8682109196A4602348852082CE4D171
:104460001CA80021102206F045F8002534236B43D8
:10447000049F20A8FB181B6B039F0693EB00FB18FF
:104480002F0107933F1800240799069A085B6823B9
:104490001B1950436A46995A06F07AF863001CAA21
:1044A0009958F850023408189850082CECD101356E
:1044B000042DDBD1D02230A8002106F01BF8149D7A
:1044C000B76F0023EB5E149D7B431B1430930223D4
:1044D000EB5EF26F012653431B1433933DAC21AFC7
:1044E00003960023049A079306931E1C181CF95880
:1044F00015684D434019D5684D43761955684D43AD
:10450000069949190691FD58116910336943079DB1
:1045100034326D180795402BE9D1039D1CAAAB00DE
:104520009D58291C06F082F8291C2060301C06F0DA
:104530007DF8291CE060069806F078F8291C606078
:10454000079806F073F8039E2061012E19D000230E
:10455000049A0593181CFE58916810337143401853
:10456000516934327143059E76180596402BF2D17D
:10457000291C06F05BF8291CA060059806F056F887
:104580006061039D3434013503950437042DA8D1AF
:1045900038AC0025A80020A984460A1C62440023E8
:1045A0000992049A0A930893079306930393181C9D
:1045B000099ED769F15896694F434E438019039E6F
:1045C0001033F619176A03964F43069EF619576A79
:1045D00006964F43079EF619976A07964F43089E23
:1045E000F619D76A089679430A9E343276180A96E5
:1045F000402BDDD167461CABFE58271C311C06F052
:1046000015F8083F3860002D1BD0311C039806F0C8
:104610000DF8271F3860311C079806F007F8606016
:10462000012D0ED0311C069806F000F8311C2060D8
:10463000089805F0FBFF311CA0600A9805F0F6FF12
:10464000E06001353434042DA4D1049B002130AA4C
:104650008D58521856689768D0681D605E6015695D
:1046600056699F609769D8601D615E619F61D069DE
:10467000156A566A976AD26A3431D8611D625E62E1
:104680009F62DA623433D029E1D1049C0026251CD4
:104690000835069507966A9B079F3233022F0BD089
:1046A000032F0FD0012F03D01D789A88DB880CE0F0
:1046B0005D781A895B8908E09D789A89DB8904E036
:1046C000CC020020DD781A8A5B8A9C46012D60D0DE
:1046D000002D4DD0022D79D1069E6068366827687E
:1046E0000111C9198019069F0F9020697F680896EB
:1046F00073116669CB180111C91911937311CB1885
:104700001293A36A80190A96DE0F1090F618E06AD9
:1047100076100596C10F266A09184910F7187F18F8
:104720000397A069E7693E18206AC70F3F187F10FA
:10473000F719E669606ABF193F1805983E18039893
:10474000C70F3F187F10606AF719E6693618059899
:104750003618206A3618F018666A40180590F11865
:10476000E06AC91809181B180E918618139339E0CE
:10477000069F26687F68A069119612972E1C17184D
:1047800013950E95039505950A95109508950F9527
:1047900028E0666827683311DB19069F0F962669A3
:1047A0007F6811933311DB19E0691293A369616A81
:1047B0004700FF18401810967F18002689180590AA
:1047C0000E91139603960A9608960BE00026139610
:1047D0000E9603960596371C0A9610961296089622
:1047E0000F9611961298189B119A1B1A0B93FB1790
:1047F0001B0F1799DB191B116344891A0991B80122
:10480000191C0C9305F012FF059A0C991590900154
:1048100005F00CFF039B0C991690980105F006FF1C
:104820001199099B8A0215994B43D3189B12236057
:104830000F9B16999A01099B4B43D3181B019B129E
:104840006360089B06999A01099B4343D3181B0197
:104850009B120B60129B15999A020B9B4B43D3182A
:10486000069A9B125360109B16999A010B9B4B431F
:10487000D3181B019B1223610A9B9A010B9B434394
:10488000D3181B019B12636180231599DB00591A11
:104890000B1C7B43DA17920DD3189B128C46A36135
:1048A000002D05D1E56125626562A562E56234E00F
:1048B000059B4B43DA17920DD3189B12E361169BAD
:1048C000059A5F427A430E9B99025218D3179B0DAB
:1048D0009A1892126262022D1BD1039D61464D43CC
:1048E000EB179B0D5D19AD122562039DB6026F4358
:1048F000139DAB02FF18FB179B0DDF19BF12A762B8
:10490000039F7843301AC617B60D30188012E06244
:1049100003E000232362A362E362099A0B9B5243E4
:104920005B43D318584A934205DC642058430C99E2
:1049300005F07CFE00E05548554B4610554D0120D2
:104940009E421BDC301C291C05F070FE291C421CF9
:104950005143771AFB17FF185F404F4B4000C05A76
:10496000520078434D4FC919761AF11776184E4008
:10497000D15A4E43291C801905F058FE68430C9902
:1049800005F054FE079F069DBE0030AB013734355D
:10499000F050079734340695042F00D07BE60024AE
:1049A000251C68266100361930AA6F46F35B8858CB
:1049B000049E58431A236343FA21F31818638900AD
:1049C00005F0E6FD02344519082CEAD10024049FC5
:1049D000291C3E19306B05F0DBFD002801D0306347
:1049E00001E0012333633434D02CF0D10024049B44
:1049F000251C211C201C1A6B1E68013156433018DF
:104A0000DE6814195643343375190429F3D1211C77
:104A100005F00CFE211C061C281C05F007FE049D59
:104A2000199A2B1CD033197801322C6B0133914227
:104A30000CDD1A78002A15D16A9A463295788D4293
:104A400010D3128894420DDB012200E000220021E5
:104A50001970012A08D1149E0D9F33883B807388FA
:104A60007B800EE001221A700D4B0D9F1B681A1DF2
:104A70000833D26FDB6F56435843361400143E8020
:104A8000788065B0F0BDC04614AE4701FFFFFF7FE0
:104A90006F11010010270000A2A60000F0D8FFFF50
:104AA000CC020020F0B5574B93B000AFB962196843
:104AB000161C4A6838640868131C43435B000833BB
:104AC000DB08DB006C46E41AA546F8633B6C6846DD
:104AD0007863DB783C6C5BB27B62A478550064B28F
:104AE00094463C63FD62221C786A824258DCB86AB4
:104AF000835C082B52D93C6C0023E3566046584334
:104B00000125655710187C6B40003D622018002578
:104B1000F861BD633D6AAB4240DC0624002B09D03E
:104B20008868584380188000345830184568806879
:104B3000641924188868013378615843801880000C
:104B4000355830186419F860FD6B8068013DB86015
:104B500020185C1EAC4211D07C695D1C6543AD1809
:104B6000AD00BD61755940197864B8697C6C351821
:104B70006868AD6824187C64641900E0841DF868D6
:104B800045680320684304190D204443FD69B86B50
:104B900024122C52FC6A0019B863BBE70132A3E768
:104BA0006246D3079A1A3B6BBA633D6C0322AA563E
:104BB000934223DCBC6AE25C082A1DD93D6C0022CA
:104BC000AA5664465443B86B7D6B2418E4186400FD
:104BD0002C197C640020FD6A3C6C40190125655746
:104BE000AA4209DC8D68013255437C6C5D190135A0
:104BF000245AAD00AC51EEE70133D6E7BD4613B001
:104C0000F0BDC046C4020020F0B5304F85B0019021
:104C100038680A1C031CFF3302905E7A0B1C1433A5
:104C200003930023022E2AD1029CFF34A47A34423B
:104C300025D01478012C07D10D7D651BE8172D18A0
:104C40004540072D0DD108E0052C12D10D7D641BC8
:104C5000E01724184440012C07D1541A0E2C12DD01
:104C600013E05578002D06D00DE05478002C0CD0C0
:104C700009E0022C07D0033C012C06D803E0107891
:104C80000C7DA04201D00133DBB2039D0132AA4268
:104C9000C8D10022022B15D80198012303700B7D87
:104CA000591EC9B2062901D8094A525C3868FF303A
:104CB000417A022906D1807A084203D0063B022BB2
:104CC00000D81A22101C05B0F0BDC046000000201C
:104CD000B2A60000014B18607047C046E0090020F2
:104CE000014B18687047C046E0090020014B18606E
:104CF0007047C046DC090020014B18687047C04669
:104D0000DC090020014B18607047C046D80900201C
:104D1000014B18687047C046D8090020014B18683D
:104D20007047C046700000200B4B70B519680B68C7
:104D30005D1E0FD34A68013A0AD38E68541C5E4345
:104D4000A419064EA400A4192668C6402660F2E7FE
:104D50002B1CEDE770BDC046C4020020004000508F
:104D60008D23013B002B01D0C046FAE7044B1022F3
:104D70001B78DBB21807C00F134018437047C046BA
:104D80002B0000500F4BF7B518261E700E4BA027B6
:104D90001E70FFF7E5FFFF050B4B01AC00252C371C
:104DA00060701D703E70FFF7DBFF064B20703D709A
:104DB0001D7023786278181C504040001340034354
:104DC000D8B2FEBD2A0000502D00005010B50D4B8A
:104DD00000201B78AA2B12D10B4B1C780B4B64B212
:104DE00018780B4B40B219780A4B20181A780A4BE6
:104DF00049B21B7840188018C01A43425841C0B2CB
:104E000010BDC046500002005100020052000200D6
:104E100053000200540002005500020030B50C4B54
:104E200000201A78552A11D11D780A4B18780A4BA0
:104E300028181C78094B00191978094B40181A7862
:104E4000084B80181B78C01A43425841C0B230BD8D
:104E500056000200570002005800020059000200EC
:104E60005A0002005B00020010B5041CFFF7D6FFD9
:104E7000002810D0092C01D1084B0AE00B2C01D1DD
:104E8000074B06E00C2C01D1064B02E00F2C02D19F
:104E9000054B1C78E4B2201C10BDC0465700020030
:104EA00058000200590002005A0002008023DB0271
:104EB0000022188059809A80C046024B188880B220
:104EC0007047C04606000400154BC0229200985857
:104ED0001449014099509958FF20814340200143D3
:104EE000995098581049014080200004014399507E
:104EF000985880210002000A0906014399500222B5
:104F00001A6001221A60082104221A601960FC3319
:104F100000215960054B19690A431A617047C04660
:104F200000E100E0FF00FFFFFFFF00FF00ED00E0F9
:104F300013B5094A042413780021DBB21C43019104
:104F40000198F421FF31884205DC1370C0461470CB
:104F500001990131F3E713BD0D00005013B5002294
:104F60000192A022D205D06BC021C9000143D163B8
:104F700001AB187803218843012108430C24A04386
:104F8000042420433024A043102420433F24204005
:104F900040242043187098780F24A043072420430E
:104FA0009870D8780143D970019B936113BD0000BC
:104FB0000122A023DB05104002060349986908403E
:104FC000104398617047C046FFFFFFFE82B0002289
:104FD000019201301F2201AB1040C9B21870481C69
:104FE000023110400A4092005870DA70019AA023F2
:104FF000DB05DA61196A024A0A401A6202B0704798
:10500000FFCFFFFF0002064B000A01380022586064
:105010009A6005221A60C0461A68D103FCD5704711
:1050200010E000E0F0B5554E85B03368544F196B71
:105030001A1C33331B78303215781B070232127872
:105040001B0F00930F231407994312092D07019298
:105050002D0F0B1C80222B4352001343494A03950A
:10506000494D1340494A2B4049491340240F0B40F6
:105070000199220413430A05464902940B40009902
:1050800013433B400A061343434AA024E40513405C
:10509000E360FFF74DFF3368E26831331B7815405A
:1050A000DB069B0FDB021D43E560E26880239B006B
:1050B0001343E360E26880239B011343E360029C97
:1050C000039DFFF783FE3E1C002813D0334F88203A
:1050D00039781E34C9B205F0A9FA39784443C9B207
:1050E000882005F0A3FA0F3545431E3C00230F3DF1
:1050F0009C4203DB231E0F2B00DD0F230F22954262
:1051000000DD151CA024E40521491A40E3681204BF
:105110000B401343E360EB43DB171D40E3680F27AD
:10512000BB433D401D43E560E368F022934380228A
:105130001343E360E368174A19481340E360E368E8
:105140003340E360FFF75EFFE26880235B051343B3
:10515000E3600098FFF788FE07403806E7683E40A6
:105160000643E6600F48FFF74DFF019B09491A050A
:10517000E3680B401343E36005B0F0BDDC09002099
:10518000FFFFFFF0FFF9FFFFFFE7FFFFFFDFFFFF7C
:10519000FFFFF0FFFFFF0FFFFFFFFFEF54000200D4
:1051A000FF0F0000FF6F0000064A074B1268012046
:1051B000D032126819789040021C0A43D2B21A7099
:1051C0007047C04670000020290000500549064B7A
:1051D00009681A78D03109680120884082431A7022
:1051E0007047C0467000002029000050044B18781A
:1051F000044B1B68D0331B681841012318407047CB
:105200002900005070000020044B82B0019001AAD8
:10521000188092789A7002B07047C04624000050FF
:1052200007B500F061FD064B019001AA1880927845
:105230009A70044B00221A70034B0122DA7707BDE3
:10524000240000509809002008000050034B002261
:105250001A70034B0122DA777047C0469809002084
:105260000800005072B6084B1B5C002B03D1C046EF
:1052700062B630BFF6E762B6A023DB059968034A41
:105280000A409A607047C04698090020FFFFF9FF66
:1052900072B6074B1B5C002B02D1C04662B6F7E723
:1052A00062B6A023DB059968024A0A409A607047FB
:1052B00098090020FFFFF9FFA023DB055A680121B0
:1052C000120E58689143034A090602400A435A6085
:1052D0007047C046FFFFFFFE08B5074B1B681A1C4E
:1052E0003732127838331B785200013250439940DC
:1052F00005F09CF908BDC046DC09002008B5044B48
:105300001B683A33197849000131FFF7E5FF08BD02
:10531000DC09002008B5A0230120DB055870FFF749
:10532000A1FFFFF7C9FF08BDF7B5A026041CF605CD
:10533000042808D005280ED15A4B1B681A1C8C3241
:105340001768903305E0574B1B681A1C9432176896
:1053500098331B6821E0544B1B685F6A9B6A73613A
:10536000FBF750F8EB300378002B17D005F05CF812
:1053700004F090FF81787F221140890401917169C6
:105380000B1C4A490B40019919437161C178474B85
:105390000A40716992040B4013437361A023DB053B
:1053A0001F611E691F231E40FFF710FD00280AD051
:1053B0003F4B882019780436C9B205F037F94643C7
:1053C0000023043E03D4331E1F2B00DD1F23A02225
:1053D000D20510691F210B40884303431361032C3E
:1053E00034D005DC012C2DD013DC002C11D030E0A2
:1053F000052C0AD005DB062C2BD12A4B1D68A235C3
:1054000027E0284B1D689C3523E0264B1D689F35FF
:105410001FE0FAF7F7FF031CD2331B78002B03D0F1
:10542000204B1D683B3514E0EB300378002B05D092
:1054300004F0FAFF04F02EFF051D0AE01A4B1D6868
:10544000363506E0184B1D68393502E0164B1D68ED
:105450003C35A023DB05596928783F221040914351
:105460000143596168781F215D6908401149C002F4
:105470002940014359611049640009680C19211C35
:105480008231087859681040914301435960833450
:10549000217858680A401102084A02400A435A60BB
:1054A000F7BDC046E0090020DC090020FFFF03FE35
:1054B00054000200FF07FFFF70000020FFC0FFFF45
:1054C000244BF7B51A68244B1B6839331B785B06ED
:1054D0009B0E0193131C3133197800238D0055194D
:1054E000581E5B18002B27D053181B1832331B781B
:1054F0008024D3185E78A023DB055F68E4033C4377
:105500005C60019CB606240400945F68B60EBC463D
:10551000124F64462740009C27435F60C0462436F4
:1055200076008400F65A2C19B03426605E680C4C64
:1055300034405C60031CD3E7131C313309491B78EA
:105540000F204B700423CB70B023D2180B7102F0E4
:1055500059FAF7BD70000020DC090020FFFFC0FFF2
:10556000FFFFBFFF78000020F7B5FFF7A9FF124B40
:1055700000241D682B1C31331E78731C9B005B427A
:105580000093B300EB180193009B043C9C4208D0AD
:10559000019B01211F19B0373868FFF79DFE386065
:1055A000F2E706490423CB70B023EA180F204E70AF
:1055B0000B7102F027FAF7BD700000207800002080
:1055C000044B00225A70A023DB055A7001221A7086
:1055D0007047C04698090020A023DB059968064A59
:1055E0000A40802189020A439A60044A002191708E
:1055F00001229A707047C046FFFFF9FF980900200A
:10560000024B1B68A83318687047C0467000002022
:10561000024B1B68A83318607047C046700000201A
:10562000A023DB059868C0B2704730B5A023DB0526
:105630009B68DBB283420ED001DA013300E0013B0C
:10564000A022D2059568FF211C1C8D430C40291C0B
:1056500021439160EEE730BD08B50020FFF702FE60
:1056600008BD0000034B1B68373318784000013039
:105670007047C046DC090020024B1B68383318789D
:105680007047C046DC0900200048704700100050F9
:10569000004870470020005000487047004000500C
:1056A000064A074B12681B687D3210789B680138E8
:1056B0005843044B8000C0187047C046700000205B
:1056C000C402002000400050054B1A68054B90684A
:1056D0001B6879331B785843034B8000C018704710
:1056E000C40200207000002004400050F0B585B0D6
:1056F00000AFFAF787FE5D4B1988031CD0331A8878
:105700008A181A805A4B1B681A78BB6053B2042B54
:1057100024D1584B1B689E331B78FB60FFF7C0FFFA
:10572000554B02221968531E9C4600D29AE04B68E2
:10573000013B11D38C6854430134E518AD007D6002
:10574000BD68EE183A363678FD68A419A4002458CE
:10575000EC407D682C50EBE76246E4E7052B23D153
:10576000444B1B68A1331B78FB60FFF799FF424B4A
:1057700004221968531E9C4674D34B68013B11D315
:105780008C6854430134E518AD007D60BD68EE18A7
:1057900052363678FD68A419A4002458EC407D6880
:1057A0002C50EBE76246E5E7002A45D0022B0BD1EF
:1057B000D2300378002B03D02E4B1B683D3338E0EA
:1057C0002E4B1B68383334E0032B03D12B4B1B6863
:1057D0003E332EE0012B27D16D467D60FFF774FF2D
:1057E000254B061C1B6868465C68A5002B1C0A3309
:1057F000DB08DB00C01A85466B46FB60013C0BD31F
:10580000B86803193A331B789B009859FFF776FD67
:10581000FA68A300D050F1E7301CF9682A1C04F0A4
:1058200027FE7C68A54607E0062B05D1114B1B68B7
:10583000A4331878FFF778FA104B1B6835331B78C0
:10584000002B0FD00C4B1A685368013B0AD3106829
:105850009568591C684309180948890009180020EF
:105860000860F2E7BD4605B0F0BDC04658000050E4
:1058700070000020E0090020C4020020DC090020A4
:105880000040005008B5A0230120DB055870FFF749
:10589000E9FCFFF711FDFFF729FF08BD70B5041CF7
:1058A000104E114D11D10120FFF73EFD336801224A
:1058B0001A70A023DB056C705C701A70FFF7E2FFB2
:1058C000FFF7FAFCFFF750FE0224201CFFF72CFD27
:1058D000336800221C70A023DB056A705A70012215
:1058E0001A7070BD700000209809002008B5FFF7FD
:1058F000D5FFFFF7C7FF08BD10B5A023DB051C6A65
:105900000005064A000D010422400A431A621A6A81
:10591000120B12031043186210BDC046FFFF00F0C7
:1059200073B5174BA0221B68D2059168D96A2C3336
:1059300091601C78FFF74AFA124D002812D0124BE2
:10594000124A1B7812782E6852B25BB20092201C69
:105950001021D12202F044F92B68AC363060AC3310
:105960001B68E418002C01DA002402E0FF2C00DDA3
:10597000FF242B68E0B2A8331C60FFF756FE73BD0E
:10598000DC090020700000205300020052000200D9
:1059900008B5002801D0012801D100F0EBFCFFF789
:1059A000BFFFFFF73FFBFFF7D9FA08BD70B51F4BEC
:1059B0000D211B68A0B0DA7A00230C3AD2B29142D2
:1059C0005B410321C91AA023DB0558693F2210401F
:1059D0005C688022D20322435A60421EA023D2B2C6
:1059E000DB05FF2A11D05E683F25114C15402D04C0
:1059F00034402C435C60C0460C1C243464001C5BA7
:105A00006D465300EC52013AE8E75968094A0A40EA
:105A100009495A6002234870CB700320B3236A46B9
:105A20000B7101F0EFFF20B070BDC046E00900200F
:105A3000FFFFC0FFFFFFBFFF78000020084B0948B1
:105A4000196810B5046808688B6801309A004343F0
:105A500060699B00C018002104F04CFD10BDC046D9
:105A6000C40200200000002038B50C4D0C4C2B68FF
:105A7000201C9A6891001A6802324A43002104F0FF
:105A800039FDFFF719FC2B68201C9A6891001A68F1
:105A900002324A43002104F02DFD38BDC40200202B
:105AA00000400050044B054900221A6059609A607A
:105AB00005221A607047C04610E000E0FFFFFF00BB
:105AC00010B5A023DB059C6899680C4BC9B21B6814
:105AD000E403AC331B68E40F591AFF31E623594342
