:100000004D424E014D3448300106040001002200EB
:100010006000000000C000000000000000000000C0
:100020000000EEEE000000000000000000000000F4
:1000300001000106000000000000000000000000B8
:100040000200190100002C000000000000B00000B8
:10005000030019012C00300000B000000010000067
:10006000001C0020A10100000000000000000000B2
:100070000000000000000000000000000000000080
:100080000000000000000000000000000000000070
:10009000000000000000000000000000550000000B
:1000A000810000009D000000590000006D0000006C
:1000B00000000000FEE70000034B01225A70A0235D
:1000C0000022DB051A707047A0080020034B0122B4
:1000D0009A70A0230022DB059A707047A0080020C8
:1000E00008B5044B01221A70034B0022DA7700F0A6
:1000F000D1FD08BDA008002008000050F8B58025FB
:10010000ED052B79DBB2002B0DD1314A314813605C
:10011000314A324913602A89314B92B21A601A6807
:1001200007F0B6FC49E0012B0FD12A4B19680029D2
:1001300043D0294B294A1868126890423DDA1A6860
:10014000501C18602B7A8B5437E0022B30D1214F92
:100150003B68002B2AD01E4C204922680868204E9C
:1001600082420CDA22689B5C1BBAEB603368206821
:10017000C01880B207F0ECFC2368013314E0326849
:100180002368381CD21807F083FC3B68002B0DD085
:10019000316822688A1832601B781BBAEB603068BD
:1001A00080B207F0D5FC0123236006E0EB6004E099
:1001B000032B02D1084B00221A60C0468023DB05C6
:1001C00001221A70C04602221A7000221A70F8BD6D
:1001D00008040020040400200C0400201004002067
:1001E000FC03002080230222DB05FF321A60042179
:1001F000024AFF31118000221A7070470600004049
:10020000F0B5A023DB059B68624A1F2187B0DBB2F3
:100210001160D12B0BD0D02B01D80133DBB2A0223F
:10022000D2059168FF20814319439160F1E70024D2
:1002300002A9594B01940A1C61CB61C21B6813606F
:10024000EFF30885231C221C5448061D0438854200
:1002500003D9CF580760301CF7E751488446A842BD
:1002600009D20668CF58BE4203D0002A00D1041C30
:1002700001220430F3E70433102BE5D1019400236D
:100280006046C1184748814204D24748C0580433E9
:100290000860F5E7454B4649181D043B8B4203D2E5
:1002A00000211960031CF6E7424B01A91A8042485D
:1002B00092000AF07DFAEFF30882404B191D043BCF
:1002C0009A4203D93E4818600B1CF7E7FFF78AFFF4
:1002D0003C493D48053989B280B205F05BF93B4C99
:1002E0003B4D01235B4223716371A371E3712B1CAE
:1002F0003C331A782B1C3D331B781B021343984266
:100300003FD107F0B3FB334B33491888334A884257
:100310000BD06E7D18882B7D36023343984204D172
:1003200013889BB223711B0A637113888B421BD005
:10033000EE7DA87D138836023043834214D100201D
:100340000423013BDBB2FF2B07D0254EEF18F65CF0
:100350003F79B742F5D10120F3E7002804D0138894
:100360009BB2A3711B0AE371637922791B021343C9
:100370008B4206D0E279A37912021A43164B9A42B5
:1003800004D1184B02221A6062B6FEE700F08AF828
:10039000F7E7C04628000050D0A900000400002064
:1003A00000000020FC0300206CAB000000040020D3
:1003B00099080020AC080020000400201C0900203F
:1003C000CDCDCDCD00C0000000000000A40800206D
:1003D000C0BF0000FEAF0000FFFF0000BEBF000076
:1003E00000B0000000E100E0014B18607047C0461B
:1003F000B0080020014B18687047C046B0080020C4
:10040000014B18607047C046B4080020014B1868C3
:100410007047C046B4080020014B18687047C046BA
:100420008001002038B5114C256805F067FCA862F2
:10043000256805F075FCE862256805F085FC6861B3
:10044000256805F0B1FCA861256805F073FD084931
:10045000236809681A1CE8320231E861116002223F
:100460009A67D83303221A6038BDC0468001002045
:10047000B408002008B503F0DFF9021E05D10749D2
:10048000A9230B7107F08CFAFEE7054B1B6803CB21
:1004900005F010F9FFF7C6FF08BDC046B7040020FD
:1004A000EC03002030B58BB007F0FAF86D4601ACD4
:1004B000033528700AF0F0F80AF01CF903F0D8F8B8
:1004C000FFF7D8FF23220021201C0AF0B3F90623EE
:1004D0002370114B1B885A1E93410022A2700F4AB1
:1004E000DBB2117812686370120AE1706260002B4F
:1004F00003D0201C232107F0CFF907F0D1F8041C0A
:100500000E2800D90E24E0B2054B8200D358291CD6
:1005100098472C70F1E7C046AC080020000400208A
:10052000880100200A4B32201B680022191C9031E0
:100530004860642088600220086101200A60CA6067
:100540004861CA614A62B03318310A601A60704764
:1005500080010020F7B5224E019135680090291CDA
:10056000A43102200C1C0C3C26680138632E07DDE8
:100570000027276001268F602F1C903746403E6081
:100580002768013727608F68974200D28A600C681D
:10059000012C07DD00240C600C6101272C1C9C340D
:1005A000474027600C680E6901340C609E4200D2FF
:1005B0000B6104390028D5D1094F009C3B68019E8E
:1005C0001A1C903212682A329200D25822801A1CC9
:1005D0009C3212682C329200D3583380F7BDC0464B
:1005E00080010020F0B585B01E1C0AAB1C88294B89
:1005F000151C1B680290DA6803915200281C002128
:100600000AF018F9039A012393400193019A002AF2
:1006100022D00298311C05F063FC1E4B1E491B685A
:100620001E4F1A6802200A705A684A709A6804239A
:10063000CB7051230B713B688A705B690132920069
:100640009A1807F0ADF93B68281C5969002207F099
:10065000D7FD019B013BD8E7029B062B0ED0002C57
:100660000ED10720311C05F03BFC0C4B321C1B68E3
:100670005869D96907F078FB041C01E08024240242
:10068000281C0399221C331C07F0FCFD201C05B01C
:10069000F0BDC046EC030020B00400208001002023
:1006A000F0B589B0059106920793049007F0F2FA2D
:1006B000244B80791B6802905A699B6905985A43BC
:1006C000002192000AF0B6F8029F013F7A1C2CD05C
:1006D0000498002105F004FC1A4B1E68726901920F
:1006E000019B013B0393F0D3B469174B059AE518BE
:1006F000039B6343ED18AD005519013C13D3B36858
:10070000019A5343E3180133069A9B0098582B68CB
:1007100018182860002F04D102990AF0D9F80004B3
:100720002860043DE9E7039AD9E7079B012B07D12D
:10073000064B049800211C6805F04AFDFC34A065B6
:1007400009B0F0BDEC030020FFFFFF3F8001002057
:100750007FB5FFF761FE041C07F04CFF061C07F095
:100760002FFF2E4B1B88033B052B24D8E36B0B3B41
:100770000B2B20D8256B616C281C0AF0F7F8033886
:10078000042818D80B3D0E2D15D8FC36356B012DDD
:1007900011D1231CE4331B78002B0CD1231C803394
:1007A0001B78002B07D1E26F052A02DC0132E267D9
:1007B00003E0E3672FE00023E367231C70331D7819
:1007C000002D1CD0626F16490192A36B002002938A
:1007D0000323226B4B707C235B420392CB7001AAF4
:1007E00010230B7107F0DCF8636FA26F00259342B2
:1007F00002DC013363670EE0656701250BE0A36B44
:10080000226B0849019302926423092001AA0B710B
:1008100007F0C6F86567281C04B070BD16040020F8
:10082000FB010020F4010020F0B51D1C794B93B0B2
:100830005B6806909B780791580602D5764B01229B
:100840001A7005F065FB754F754C3B68061C1968FE
:1008500058680A18216898688B69083280009200ED
:100860001818002109F0E6FF236806985A69191C38
:10087000DB690090301D0190386830310068063027
:10088000400030180290281C03F07AFF3B68059066
:100890009A6891001A68236801324A435869002116
:1008A00009F0C8FF2068436D6430036008F044FE1F
:1008B0002368586900963A68191C1268303304326C
:1008C0005200B6185C312A1C019604F0DBF807F0E0
:1008D000F9F9061C07F08EFE337B002B0CD0343068
:1008E0000378002B08D12268B8235B00D35C012B6E
:1008F00002D0012005F000F83B684A495A681868A0
:100900004A709A68CB7808707F2083438026022043
:100910008A70034376420132334352000AACCB70F3
:10092000AA18532301200B7107F03AF80021202266
:10093000201C09F07FFF3B687F205A6819686270AD
:100940009A682170A2700533DB7F0221E37063791E
:10095000013283430B4352001E43AA186671009272
:100960000022131C0120211C06F0DAFF2A4F3B78DD
:10097000002B01D102F080FEFFF7EAFE284C23682D
:10098000002812D09B6828490020089308AADF237A
:1009900009900B7107F004F8236804209A689B6F94
:1009A00002339A4233DC012031E0586905F086FBBE
:1009B0002668301C311C5C31303004F045F8236867
:1009C0003066186E05F0D8FA05F024F93B78002B54
:1009D00014D1059A002A11D1144B1A68013A002A41
:1009E00001D01A600AE004221A60236819220092DA
:1009F0003033069807992A1C07F022FB022004F0E6
:100A0000A9FF074B1868643008F096FD052013B065
:100A1000F0BDC0461C030020A0050020EC03002010
:100A200080010020B0040020F40100208401002097
:100A3000F0B59400231C0A3385B0DB08DB0069465F
:100A4000C91A02AF8D4602AA061C7A60101C00214A
:100A5000221C09F0EFFE231C0833DB08DB0069468B
:100A6000C91A8D4602AD281C221C002109F0E2FEA5
:100A70000C4C301C2368D96A9A6A5C33009101934C
:100A8000291C7B6808F07AFD301C02F007FF236800
:100A9000301C9A6ADB6A291C00937B6807F0BAFF56
:100AA000BD46F7BD8001002070B50C1C151C1E1C36
:100AB00008F058FA0B4B201C1B68996ADA6A08F098
:100AC00059FB201C08F014FF291C201C08F04EFCC8
:100AD000291C321C201C08F0BFFC291C201C03F020
:100AE000A9FD70BD8001002038B509F091FD051CFD
:100AF000012009F0A1FD041C281C04F087FC201C27
:100B000004F090FC38BD38B509F026FE09F088FDE8
:100B1000051C002009F090FD041C281C04F076FC44
:100B2000002005F075FA201C04F07CFC04F0C6FEE1
:100B300038BD10B5A4B08C22041C002101A809F016
:100B400079FE01A8211C08F0C9FC08F0F3FC01A8FB
:100B5000211C02F065FF24B010BD0000F7B5071C92
:100B600007F048FD474E34682379002B02D0012B53
:100B700029D062E0444A211C1268FC3112784D6D84
:100B8000011C22604031097849B2002905DC216945
:100B90003E4B994202D0236901332361236993427A
:100BA0004BDD4123C356002B47D1221C8C321370DE
:100BB000391CA2690420FFF773FD316872220123FA
:100BC000FF328B542CE0304B271C1B68FC37019301
:100BD0005B78BD6D23602069B6235B000130E15A6C
:100BE00009F01AFF002904D12369002B01DD7B6D78
:100BF000ED187023FF33E35C012B09D101997222B8
:100C00000B78FF32236002237D6DA354002307E09D
:100C100022691E4B9A4210D02369013323610CE0F4
:100C2000316870200022FF300A540B710A611849A4
:100C30000E33101C0B7106F0B3FE3368186805F014
:100C400025FC041C281C05F045FC241A0120002C5E
:100C500008DD3368186805F019FC041C281C05F031
:100C600039FC201A32687221FF31535C012B04D108
:100C700072210020FF315054181C04F03DFE04F096
:100C80005DFEF7BD80010020B4080020FFFFFF7F5C
:100C9000B704002008B50E4BB8221B6852009A5CBE
:100CA000002A14D11A79012A09D17022FF329A5CE4
:100CB000002A0CD1A6225200995C042005E0002AEB
:100CC00005D1A6225200995C022004F0D9FF08BD8C
:100CD00080010020F8B5071C0E1C151C1C1C9A4234
:100CE0000DD0074B1B681B194933FF33587906F0A9
:100CF000B1FE381C311C2A1C231C07F065F9F8BD15
:100D000080010020F0B58DB005AE041C0F1C0C2234
:100D10000021301C09F08EFD2C4D0622291C03A851
:100D200009F046FD09F018FDA30003A964000919A4
:100D30009F5101910024019B6F461D5D00211022EF
:100D40000A3708A809F076FD391C02AA08AB281C4E
:100D500005F028FB00217A5E05AEAB0001349A5104
:100D6000022CE8D11949032706313A1C08A809F0DA
:100D70001FFD174C0123E3700020EB23211C08AA60
:100D80002371677006F00CFE7C235B42E370002049
:100D9000EC23211C321C2371677006F001FE3368BE
:100DA00000200B2B0FDD0B495A1851424A41524289
:100DB00015407268934201DD131C0125B26893420D
:100DC00000DD0225281C0DB0F0BDC046E0A90000E2
:100DD000FB01002001000080F0B587B006F072FF33
:100DE000029007F007FCAC4B046CAC4D1C40631E3A
:100DF0009C412B68E4B2C0330022002C03D11A6856
:100E0000FE2A01DC01321A602B680022191CD43141
:100E100008880A800390181CBC30027019390A78BF
:100E2000D2B2002A08D00B785BB2022B00D001238B
:100E3000037000230B702AE11E1CB8363778002F90
:100E40000AD0012404700A70191CB931C4333270FD
:100E5000271C0A701A601BE1002C4ED11A1CC432E8
:100E6000116800291FDD4B1E8D491360201C04935F
:100E700004AA14230B71059406F092FD2B68C43369
:100E80001E68012E39D187491523221C201C0B71A5
:100E900006F086FD2B68371C1A1CC4321460BC3364
:100EA00003221A70F4E01A1CE832126811887E4A94
:100EB000914222D01A1CD03211887C4A1268528882
:100EC0008A421AD87A4E3068027C181CC0300068FA
:100ED000904212DB04AA1180D2331B8875495380DB
:100EE00002234B70CB70201C15230B7106F058FDAC
:100EF00032682B68527CC4331A606D4E33685F7D54
:100F0000002F00D0C3E0654D002C24D12A680133A6
:100F1000CC32DB7F12689A4215DB62491223201C17
:100F2000221C0B7106F03CFD2A683068131CC83384
:100F30001968023001311960C07F814203DB1C60F7
:100F4000BC32022313702A680023111CBA31CC3240
:100F50000B7013603CE02B681A1CC43217602032FF
:100F60001278002A34D01A1CD232D03312881B884F
:100F70004B49049305921923381C04AA0B7106F0FF
:100F80000FFD2B683268191CD0310D88D08B1639B3
:100F9000854215D2181CD2300588508D85420FD25B
:100FA000D08D039D85420BDA0978002910D1CC330E
:100FB00001321968D27F91420ADA0131196007E0E3
:100FC00001220A70191C0022CC31C8330A601A6051
:100FD000324D2B681A1CE4321278002A58D102983C
:100FE000027B002A4FD01A1CB8321278002A4FD147
:100FF0002F4E186B33683268DB8A518B928B0293C9
:1010000033681B8B0093029B06F0FDFD3368029052
:10101000DB8C2A689C463368106B1B8D3268518CC0
:10102000928C0093634606F0EEFD2B681A1CD032BA
:101030001188029AD233914207DA1A88824204DA7E
:1010400032680398928D904210DB04AA11801B88AD
:101050001849538002234B70CB70002017230B716B
:1010600006F09EFC2B680122B9331A702B681A1CFB
:10107000B9321278002A0BD0002C09D0B8330122E3
:101080001A70002704E0B9331A70171C00E001271A
:10109000381C07B0F0BDC046FF00FF0080010020F3
:1010A000F4010020B7040020FFFF0000B408002076
:1010B000B0080020FB010020F0B58FB000AFF96050
:1010C000061C04F0B5F9786104F0A6F99D4D78602E
:1010D0002C686846E268131C0E33DB08DB00C01A7C
:1010E000854660686B461218FB62131C0E33DB08E2
:1010F0006946DB00C91A53000E33DB08DB008D465E
:10110000C91A684679628D460021786309F092FB1E
:10111000E06861684218012152004942786A09F08A
:1011200089FBE268012152004942F86809F082FB1C
:101130002B68F86ADA68796909F03AFB002E14D155
:10114000804D814C2B6808201A681B7922706370CF
:10115000A3707F235B42E370211CD223FA6A2371C0
:1011600006F01EFC2B681B68C0E040240025FC61D3
:10117000BD620122F86A002105F0EEFA0320002189
:1011800004F0AEFE6F4C704923681E6858689A6878
:101190000423CB7051230B716C4B8A701B68013296
:1011A0005B69920048709A1802200E7006F0F8FBF6
:1011B00023681B683B633E6B624B013EBE6100D2FD
:1011C00084E01B685E68013E00D27CE05D4B3C6BB6
:1011D0001B68B86999685B6861435C4A434312685D
:1011E000711852690131FC6889009B1989585A00AD
:1011F0009446221C8DB262443D6215888CB23D60DB
:101200002DB2A54205DC3D68601B7C6A65466053D3
:1012100022E0786A041C64443C610025645F013468
:1012200015D07D6BEC18257868B2B860013001DA12
:10123000013503E0B868002809DD013D02235B4267
:1012400025701380BB6A01339BB2BB622DE07D6BBE
:10125000EC182578002D01D111800DE06DB2681CCD
:1012600006D13A6A39683D69881A2880002202E06E
:10127000012D01D1FF2222707C6BE1180A7850B257
:10128000002806DC7D6A6446285F013007D0002A0A
:1012900005D1FC6A0132E3563E2B05DD05E0FD6A0F
:1012A000EB56002B01DD013A0A70264BB8691B682A
:1012B0007C6B5B687D6943439B19E15CEA5CFC6A7B
:1012C0008A18E2547FE7BD693D6374E71B68BC6A16
:1012D000DA681B69D3189C4200DB31E7FB69013BEC
:1012E000DBB2FB61002B00D043E729E7013B11D3C0
:1012F0002A685268013AF9D32968FE6A4968594355
:10130000891871187E68F0183E300E780078301811
:101310000870EFE7F86A0021012205F01DFA2B683A
:10132000211C18681B7920706370A3707F235B42B7
:10133000E37008201D23FA6A237106F031FBBD46D5
:101340000FB0F0BDEC030020B004002080010020AD
:1013500038B5051C0C1C04F05FF834300078211CF3
:10136000434258412840FFF7A7FE38BDF0B585B08D
:10137000051C019109F0F0F9174F0C230393391C58
:10138000FE2302AA00203B71029506F009FB134ED2
:10139000A62432686400105D291CFFF7B3FC104BD3
:1013A000051C1B680199D86833681A5D2B1CFFF770
:1013B00091FC291C022004F093FD32680020135D8B
:1013C000391C029302AAE6233B71039506F0E8FA62
:1013D00033681D5505B0F0BDF401002080010020E8
:1013E000EC030020F0B589B000AF4B4EF9604B49DB
:1013F00034688D446A46231C8D44FC336946B82505
:1014000038619A67D9676D00635D022B02D10023B2
:10141000635502E006F05AF960553268404C515D60
:10142000236800290FD10A2098621020D862122068
:101430001863AC235B00D15409F02EF909F05AF976
:10144000FFF718F80AE002221A629A6206220021C7
:10145000DA62082219611A63FEF7E4FF04F044FE21
:1014600024686946E2690A259600331C0A33DB08C2
:10147000DB00C91AE2688D466B46FB6153000833F6
:10148000DB08DB00C91AD31DDB08DB00B9608D4621
:10149000C91A8D4679606846002109F0CBF9A46A23
:1014A0006A4665432B1C0833DB08A400DB00D21A14
:1014B000231C0833DB08DB0095466946D21A9546A3
:1014C000B9617A61F869321C002109F0B3F92A1C6C
:1014D000B869002109F0AEF9221C7869002109F0F1
:1014E000A9F9104B7A68B9685A6000221960DA606D
:1014F000F969BA6999601A617969074A596111688D
:10150000B82252008A5C0849900044583869F9684A
:10151000A047BD4609B0F0BD8001002058FDFFFF87
:10152000EC030020B8080020C401002010B5041C02
:1015300006F03EF906F0B4F8A042FBD009F088F8B6
:10154000FEF798FF05F04EFF10BD0000F0B587B024
:1015500002AF051CFFF7C8FAFEF758FF394B041C11
:101560001B685B887B6006F061F86B4600203B607F
:1015700004F04EFD04F014FD334E336833331B7812
:10158000002B1ED0314B00221B6862803933197842
:10159000381C49000131083006F023FB04F04EFBF3
:1015A0002B4B1A68A6235B00D35C3268D218927C5E
:1015B000019382180095D2B2B868F968002300F050
:1015C00033FC04F041FBC0B206F044FAFEF72AFFF8
:1015D000204B6A461B680120DB685B000833DB0890
:1015E000DB00D21A954602A9FFF7B2FE3B689D4682
:1015F00006F0DEF806F0E6F8052815D004D8002835
:1016000014D003280AD806E006280AD0031C113B90
:10161000DBB2022B0AD801F0CBFD07E005F0D0FCCD
:1016200004E004F04BF901E004F036F906F038F874
:10163000A842DFD0FFF767FA7A68BD46628005B03E
:10164000F0BDC046B4080020B0080020E808002023
:1016500080010020EC03002098B500AF041C06F0C8
:10166000A7F80A4B6A461B680120DB685B00083359
:10167000DB08DB00D21A95466946FFF769FE06F0E3
:101680000FF8A042FBD0BD4698BDC046EC03002039
:1016900010B5041C06F08CF801F088FD06F000F887
:1016A000A042FBD010BD10B5041C06F081F804F078
:1016B000A5FD05F0F5FFA042FBD010BD1FB5041C31
:1016C00006F076F8104B02A81B68393319784900E8
:1016D000013106F086FA04F0B1FA0C4B03991A684E
:1016E000A6235B00D35C0A4A1268D218927C01934D
:1016F0008218D2B200940298022300F095FB05F004
:10170000CFFFA042FBD01FBDE808002080010020D1
:10171000B00800201FB5041C06F04AF8104B02A8C0
:101720001B68393319784900013106F05AFA04F080
:1017300085FA0C4B03991A68A6235B00D35C0A4A0E
:101740001268D218927C01938218D2B20094029847
:10175000012300F069FB05F0A3FFA042FBD01FBDF1
:10176000E808002080010020B008002010B5041C0B
:1017700006F01EF80220002104F0B2FB04F024F968
:101780000120002104F0ACFB04F050FC05F088FFC0
:10179000A042FBD010BD10B5041C06F009F80020D3
:1017A00003F07AFF0220002104F09AFB04F00CF908
:1017B0000120002104F094FB04F038FC05F070FFD8
:1017C000A042FBD0012003F067FF10BD704710B5A9
:1017D000041C05F0EDFF05F063FFA042FBD010BD37
:1017E000F0B58BB000AFB86106F054FA5F4C6E46AE
:1017F00023689D68DB687D625A00111C0E319B00D6
:10180000C9080E33C900DB08DB00761AB546F61AA4
:101810006D4668460021B5467D61FE6009F00AF814
:101820000220002104F05CFB04F0CEF8012000212E
:1018300004F056FB7E6A4E4A20681568B200524298
:101840000368BA60321C5A439100F961B107711AFA
:1018500079609107891A3A62013B23D344683E6A52
:101860003219261C5E437618B400FE6892003419C3
:101870003C61FC69A2420BD03C690426A418A44632
:101880006C697642A458B44466463460043AF0E782
:10189000BE683A6AA419FC617C6A7E68121B3A62CF
:1018A0008919D9E7BC690B2C5CD10220002104F016
:1018B00017FB04F089F80120002104F011FB2B4BE9
:1018C00019682B4B08681C687B6AB86143439A000F
:1018D0003A629A07D21A3A61FB61844666464A68C0
:1018E000013EB4462ED365465543FE692148B318E0
:1018F000121852197E6938695200B2182D18FE6804
:10190000AD0075199B003D603E6AB3420ED03D6844
:10191000E818656904380668E858301A0025565FEB
:10192000864200DA1080043B023AEDE7BD68761982
:101930003E627D6AFE69761BFE617D683E697619AE
:101940003E61CBE70C49B8697E23D2B25B42087096
:101950004A708A70CB70012052237A690B7106F0AD
:101960001FF8A2E7BD460BB0F0BDC046EC03002057
:1019700080010020FFFFFF7FB004002010B5041C91
:1019800005F016FF201CFFF72BFF05F089FEA04293
:10199000F8D010BD70B5037886B0041C012B1BD1A4
:1019A00003F02EFD0E4D64682E6805F09DFEB423F5
:1019B0005B00F05404A805F0D1FE684605F09AFEDD
:1019C0000F22201C694608F0F3FE2B6822786A3348
:1019D000FF331A7004F088FB012006B070BDC046CA
:1019E00080010020F0B5354A007913688BB0B8212A
:1019F00003904900595C324EE833324F002902D13E
:101A00003268023201E03A6844321A6004F016F992
:101A10002D496A461732012310704B70CB7000209D
:101A2000B1230B7105F0BCFF284B06A81B680024EE
:101A3000393319784900013106F0D3F83A686B461A
:101A4000DD7D13199B7CFF225BB2ED181C4B1B68DC
:101A50005B79D31A9D420DDD326808955379FF22D8
:101A6000D31A1B4909930020D22308AA0B7105F051
:101A700097FFF1E7114BEAB21B6806980293039BAC
:101A800007990093E3B20193002300F0CDF9029A85
:101A900013194933FF3301345871032CCED1074A4F
:101AA0001368A62252009A5C9B184933FF33587979
:101AB00005F0D0FF02200BB0F0BDC0468001002031
:101AC000B4080020B0080020FB010020E808002036
:101AD000F401002008B503680079002805D1012031
:101AE0001968FFF735FC032004E001384342434105
:101AF0000520C01A08BD0000037A70B50678456855
:101B0000002B05D0012B06D104F0EEFA002303E0F0
:101B10000123042401E001230524044A70B2126861
:101B2000291C9269FEF7BCFD201C70BD80010020BD
:101B3000F0B591B002AF06680579047B08F00CFEA1
:101B4000F86106F0B3F8F860012C16D104F0CCFA75
:101B5000F86800236DB201783268281C0093FEF704
:101B600041FD884B281C1C68A6235B00E15C04F047
:101B70002FFBFC346065032001E1834B381C1B689C
:101B800024303933197800244900013106F029F84E
:101B9000E2B2786AB96A013406F09AF8032CF7D1F8
:101BA0006DB23D61FD6832682978FD69002D3FD135
:101BB0000095FB693869FEF715FD744B74491B6885
:101BC000B86118681B797F224B708B70CB78022527
:101BD000934380222B4352421343CB7060230870FF
:101BE0000B713268042005F0DBFE6A4DB8692C6881
:101BF000E08108F0BBFDB86108F0B4FD211C031CB6
:101C0000201CBA690E30103106F01EFB62497F209D
:101C1000CB7802224A708343022213432A6803408E
:101C2000CB700E32F223F8690B7105F0B9FE07E0B4
:101C3000584B1B681B8A009338690023FEF7D2FCBF
:101C40000023FB624F4B01241B68FC339D6FDB6F4D
:101C50003D637B636D467D614C4D68462B68FA6839
:101C6000DB685B000833DB08DB00C01A854602A98D
:101C7000B9611178474AE3B21068FA690432520038
:101C80008218D2880092BA693869FEF7ABFC2A68DC
:101C9000A500D368AC46BB600023B9688B4210DA5C
:101CA000381C65462C302858BD6959006D5A38607B
:101CB00030687D60455A78680133451B3868455265
:101CC000EBE71368324904200B701379BA694B7043
:101CD0008B707E235B42CB7060230B7105F060FE3E
:101CE0007D690134AD46032CB4D1264DA623286866
:101CF0005B00C35C002B06D0244A31681268D068B0
:101D0000002206F061F92C68A6235B00E15C3869CB
:101D100004F05EFA1D4EFC343368606519681C4C93
:101D20001B797F226370A370E378217093430220B4
:101D30008021034349420B43E370F12323712B6855
:101D40000020FC339A6F211C05F02AFE33687F20A7
:101D50001A681B7922706370A370E37802218343B1
:101D600080220B4352421343E370F22323712B680A
:101D70000020FC33DA6F211C05F012FE0520BD4661
:101D80000FB0F0BD80010020E8080020EC03002027
:101D9000B0040020F0030020FB010020F0B5174B39
:101DA00087B01A68B8235B00D25C0C1C07684668D1
:101DB0008568C368002A05D1F8B2311C2A1C00F0DE
:101DC000FDFB16E05A78197812020A439978FFB29F
:101DD00009040A43D97868460906114305910B2284
:101DE000191D08F0E5FC381C311C2A1C059B01F06C
:101DF00009F92070207807B0F0BDC04680010020AE
:101E0000F0B50024251C85420CDA0E5B175BB74247
:101E100000D916530E5B1F5BB74200D21E5301352B
:101E20000234F0E7F0BD0000F0B599B000AF7B637D
:101E30003B1C7C331E78CC4BB8641B68F9645B791F
:101E400000255900D21A01317964FA62C7493A1C57
:101E5000BA23281C50320B713E657D6505F0A0FD4C
:101E6000786C6C463C644400231C0833DB086946EC
:101E7000DB00C91A8D466A46F86A6B002918D152F0
:101E8000796C01358D42F7DBCBB2B949BB634B703E
:101E90000223CB70002063230B7105F081FD231C0E
:101EA000386C08338546DB08DB006946C91A8D4665
:101EB000C91A68468D46B8626846C01A85466A46A1
:101EC00039633A640021221C08F0B4FC221C002172
:101ED000386B08F0AFFC0720311C03F08FFD7C6BE2
:101EE000012C12D0A34BA0221B68D20538331878DE
:101EF00054698006A049C00EC002214001435161CF
:101F0000381C1978483005F06CFE7E6C36017E6214
:101F10007B6A6C460833E61AB546F61ABC6068461A
:101F20006C460021B5467A6AFE613C6208F082FC8C
:101F3000F869FF217A6A08F07DFC00268A4BFE636F
:101F40001B68FC6B1B799C423ADAFE6A6C46F6B25F
:101F5000301C7C60FE6003F07CFE03F04FFE03F05B
:101F600043FDFC693D6ABC610024786C0134E617CE
:101F7000C30F84425E41F6B2002E06D1F9680819FB
:101F8000C0B203F066FE03F039FE3A1CB86CF96C7F
:101F9000503203F0E1FF391CBA692B1C0820503184
:101FA000FFF72EFFBA6910351032BA61002E02D148
:101FB00003F01AFDD9E77C68FE6BA5460136BDE744
:101FC00000243E6A21017018FE69002371181A1C52
:101FD000C65ACD5A0233751B5219102BF8D13B1C2F
:101FE0003A65B86C5033F96C012204F0B9F9BE6A55
:101FF000386D6300F0527E6C0134B442E1DB3A6C20
:102000005E480023BC6A5900615A884204DDFE6ABA
:10201000081C9E197E613B6114888C4200D211809D
:102020007C6C01330232A342ECDBFEF77BFA7E6B61
:10203000012E5BD13C6900256300341C3E6B9C5330
:102040003E6C9B5BFB632B1C3C6B5A00A15A002926
:1020500006D03E6CB15A0A1CA94200D22A1C95B285
:102060007C6C0133A342EFDB414CBE6BB82366703E
:10207000211C022600203A6B2371E67005F090FCCB
:10208000B86BB9236070211C3A6C00202371E67094
:1020900005F086FC7B6C6C460733DB08DB00E11A3D
:1020A0008D466A4600233E6C5900705AFF21000994
:1020B000FE2800D8C1B27E6CD1540133B342F2DBAA
:1020C0002B49BE6B0123CB700020BD230B714E70DA
:1020D00005F066FC2549A5463A1CFC6BB723002099
:1020E00050323C657D650B7105F05AFC2049002497
:1020F000BE6B0223201CBA6A4E70CB700C7105F0C7
:102100004FFC3E6919493E653A1C7E69B223201C8A
:1021100050327E650B7105F043FC05F0C1FABC68D6
:102120007E6BA546002E0ED1124B1F221B68393341
:102130001978A023DB05114058690F4AC9020240F3
:102140000A435A6107E00638C0B2012800D8DFE62A
:102150007C6B012CE8D17E69F4B2201C03F079FD80
:10216000201CBD4619B0F0BDB4080020F4010020C9
:10217000FB010020E8080020FF07FFFFFFFFFF7FB3
:10218000F8B5161C071C08F0E7FA041C05F090FAD5
:10219000051C05F0F5FA032E02D0002D03D107E04F
:1021A0000126002D27D0002005F08AFA012622E022
:1021B000012E03D0022E04D1281C00E0301C05F0B3
:1021C00037FC05F02FFC5D4E051C3368E4331B78AB
:1021D00083420FD0002802D01123012401E01223F2
:1021E000041C57490020021C0B7105F0D9FB336811
:1021F000E4331D70052608F0AFFAA04232D008F093
:10220000ABFA08F00DFA201C08F00AFA08F0A4FA5C
:10221000201C08F09BFA08F06DFA012E1FD0474DE4
:10222000A6242B6864001A5D002A09D0454B391C8E
:102230001B68D8680023FEF74DFD2B6800221A5555
:1022400005F040FD0220002103F04AFE03F0BCFB34
:102250000120002103F044FEFEF764F902E00020B3
:1022600003F0D6FE05F094FA041C06F0C3F90379D6
:10227000051CA34200D0047105F07CFA2A798F2353
:10228000041C9B00002A01D0002200E00278EA54DE
:10229000A37A012B2DD19122637A9200217AAA5A36
:1022A0001B020B439A4218D1274AE379A179AA5A13
:1022B0001B020B439A4210D1244AE378A178AA5A10
:1022C0001B020B439A4208D1902263799200217934
:1022D000AA5A1B020B439A4205D01C4BA11CE818BA
:1022E0000A2208F065FA962200239200AB54A372EA
:1022F00021E0237C012B1ED1154AE37BA17BAA5A46
:102300001B020B439A4208D19222637B9200217BED
:10231000AA5A1B020B439A4207D092239B00211C0E
:10232000E8180C31062208F043FA96239B0001229C
:10233000EA5400232374301CF8BDC04680010020FD
:10234000B7040020EC030020420200003E0200001F
:102350004A020000F0B5714D99B00468286802AFD8
:1023600039602C220021303008F064FA381C00213A
:102370002022183008F05EFA6948036802205A6883
:1023800019687A769A683976BA760533DB7F7F21C9
:10239000FB767B7F01328B4304210B437B772B68D9
:1023A00092005B69391C9A1800920022131C1831A4
:1023B00005F0B6FA5A4968460B6838611E689B6892
:1023C000B21C5B005A43111C0831C908C900401AED
:1023D000854602AD5B080021281C7B6108F02AFAC3
:1023E0007B6901365E4301367600AE19616820686C
:1023F000E2682B1C0096FEF717FAF8603869F96856
:10240000854605297FD146486B4606687B60F16AA0
:1024100068460A01131C0833C01A854602AD002124
:10242000281C08F007FAF26A281C2169FEF700FB55
:102430003B4968460B6800219A6A0E235A43131CD5
:102440000833DB08DB00C01A854602AE301C08F0FA
:10245000F1F96369281C311C2269FEF725FB314B19
:102460001B78002B03D12169301C01F0D9FA07F049
:10247000D1FB83000733DB08DB006946C91A284B10
:102480008D461C6802AAA36ABA607B610E22013BDA
:102490005343F618051C043638617B69013B7B61A8
:1024A0000FD30020335E002B09DD3969BA6801398A
:1024B000880039611018311D042208F079F90E3EA8
:1024C000EBE73E1C383600212022301C08F0B2F920
:1024D00061682068A368717010493070B370096832
:1024E0000534E27FC96A0133F2705B007E22CB18AB
:1024F000524272710093EAB20320311CBB6805F0AE
:102500000FFA7A68954603F0DDFB03F0DDFCF8680E
:102510003B68BD46187017B0F0BDC0468001002072
:10252000EC030020A0050020F0B5224F9BB03A68D4
:1025300000261C1C051C6B46101C6830DE71012334
:102540000370D66604220E92A268022002960396B9
:102550000496059606930795089609960A940B9695
:102560000C960D960F921096119612941390149348
:1025700015961695179118941992B20002AB360170
:1025800098190D4B6946D358073198473A68B923D3
:102590005B00D15C061C012902D10021D15403E06B
:1025A00005F07EF8A842E8D02069FEF7C2FA1BB019
:1025B000F0BDC04680010020D0010020F0B5D1B0B0
:1025C00000AF141CF9607B61386106F013F8BF4E50
:1025D000702233680025FF321D719D541D61B86063
:1025E00006F00EF8BA4BBB4A796912681B68BD64E5
:1025F000FD643D65B965FD653D667C647C65DB8E8B
:102600005078FA215843890008F0B0F93568B623AC
:10261000FA685B00E852396913788B4204D005F000
:10262000C7F83B69FA68137036680025381CB56036
:10263000291C8C22B430FE6008F0FCF8381C291CE0
:102640002822643008F0F6F83E1C381C291C282289
:1026500028368C3008F0EEF8291C0A22301C08F0CD
:10266000E9F8B9689723B4229B00D219CA5098237D
:1026700064229B00D219CA5099238C229B00D21944
:10268000CA509A239B00CE50934B1B78AB4203D188
:10269000924B1B78AB4207D0FB680122BC331A7007
:1026A0002068E168FFF76CFD05F0CEF9874DA622A2
:1026B0002B6856009A5D9B184933FF335A79824242
:1026C00001D058717AE186490020A623021C0B71C3
:1026D00005F066F978692168FEF740FA2A68442314
:1026E0001079DB198200000118187E4B391CD35871
:1026F0001B31984729687C4A8B5D111C7B63002342
:10270000BB63E72313713A1C0C20343205F048F9FF
:10271000714B1B78BB60002B00D09DE06F4B19788C
:10272000002900D0E8E06A46381CFA6034301022F4
:1027300008F080F82B6819211A1CE4321278B9606D
:10274000002A01D00C22BA60A6256D00585D391C04
:102750003A1C3B1C1C3234331E3103F023FE391C5F
:102760003431082005F0D4FB584E3368585D03F02F
:10277000BFFD5D4D1C217B5E3A1C291C78603B62CD
:102780007862E8230C2020322B7105F009F97A6871
:102790001E217B5E7A623A1C291C3B620C20E923D5
:1027A00020322B7105F0FCF831681C23FA5E081CFE
:1027B000D030D2317B68FDF7CDFE3368291C1A1C5E
:1027C000D0321288D2333A621B883A1C20327B62A4
:1027D0000C20F1232B7105F0E3F8FEF7FDFA05F06C
:1027E00013F9424D2870002801D005F013F91E217D
:1027F0007B5EBA68934202DA2B78002B08D03368EC
:102800001A1CE4321278002A02D1BC3301221A7059
:102810003368BC229A56E1682068FFF7B1FCBA68B9
:10282000051C1E21785E324B904203DA2F4A127843
:10283000002A0BD01A780132D2B251B2012905DD3B
:10284000002221681A70FEF791FD00E01A70052D34
:1028500000D1A0E0FD769EE02B686421986808F026
:10286000DBF80A1E05D11E49D52316200B7105F091
:1028700097F8164B1A68136CD26B5B42934200DADE
:10288000131C3B840025381C00211022343007F033
:10289000D1FF391C3A1C3B1CE8B21E311C323433C8
:1028A00003F080FD0135F98B3A1C20326B00995200
:1028B000032DE8D10F4904234B707E235B42CB707C
:1028C0001620EC230B7105F06BF866E08001002008
:1028D000B0080020B4080020A0050020A1050020B9
:1028E000B7040020E8010020F401002014040020B7
:1028F00015040020FB0100206B46FB6005F09EF8EC
:102900007860381CB9681022343007F093FF2968CA
:102910003A1C885D3B1C391C1E311C32343303F0D9
:1029200041FD2A68B868935D364A3B621E217B5E92
:10293000111C7B62FF2313713A1C203205F030F822
:102940002B6879689A5D8A421AD02F4B21681B68E0
:10295000D8687B68FEF7BEF90220796803F0C0FAF8
:102960002A682849935D3A1C3B627B6820327B626F
:10297000B868E6230B7105F013F82B687A689A554E
:10298000224BBC221B6820689A56E168FFF7F8FBCF
:10299000052800D0F876FB689D461D4B1A681D4B34
:1029A0009A4202D003F02AFCFEE7184B1A4A1B6831
:1029B0009968914202D09A6801329A60FB7E134D69
:1029C000052B0CD004F082FE2B68B82252009A5CD2
:1029D000824213D00121B9228A4099540EE004F0BA
:1029E00075FEB82329685B00CB5C8342EAD104F012
:1029F00057FE3A69904200D156E6E3E7F87EBD46BD
:102A000051B0F0BDF4010020EC0300208001002053
:102A100018090020CDCDCDCDFFFFFF7FF0B50527F4
:102A20009FB012979F6800240122051C6E4602A8E1
:102A30001B911C490736069207900A920E930F923B
:102A4000139714921693062719921C931D903F23F7
:102A5000201C221C3470089409940B950C940D943E
:102A6000109411941594179718941A950B7104F0FB
:102A700097FFA20006AB240118190B4B311CD35849
:102A80009847041C04F022FE084B1A68B8235B0028
:102A9000D35C834203D104F003FEA842E9D01FB007
:102AA000F0BDC046B7040020D00100208001002006
:102AB000F0B597B002AFFB603B1C6833061CB961F0
:102AC00001CBF9681B780D787A627B61CA4C002DC6
:102AD00000D0E5E0BA691378082B0BD103F004FBB2
:102AE0002368B1689A6905202B1CFDF7D9FDBB69E5
:102AF0001D70D2E0694639610520291C03F0F0F908
:102B0000BE4B68461B689A6951005A6901324A43B4
:102B1000131C0833DB08DB00C01A854602A9F961E3
:102B2000081C291C07F086FE2368B2689969F869B9
:102B300005F0E4FB051C786205F0C4F8B04B426870
:102B40001B68996B8A4203DBDA6B83689A4207DA67
:102B500023680122191C8C310A70B72191405A5404
:102B60002368B6211A1CFC324900595A506E07F0EE
:102B700053FF396205F024FDB5235B002268012D67
:102B80000ED1E030D45C00780021A04201D8D154AD
:102B900002E00134D45479628C32012313700EE0C8
:102BA0000021D154B7235B00D35C8B4207D1944BF7
:102BB000B0681B68F96941331A7805F0A5FC8E4DA1
:102BC000B7222B68520000249C547A6A012A15D13E
:102BD00003F08AFA211C062003F082F9786AFB6868
:102BE000B96918702B680C708C3386491C70201CD6
:102BF000A323221C0B7104F0D3FE4CE0804DB621C0
:102C00002A68490034321278595A386A891A81423E
:102C100001DD90421DDC191CFC31496E914218DD2A
:102C2000396A914218D18C331C78002C0ED105F0F2
:102C30003DF8786203F058FA7A6A231C117806206E
:102C400032680094FDF7CEFC03F04EFA6A4B1B6825
:102C50007B608C3300221A7067486B490368FC3331
:102C60005A6E8A4201D001325A6604F07DFB04F0AC
:102C700019FB2B684133187802F04AFE002002F05D
:102C800079FE786902F0E5FF04F030FB02F0D6FB34
:102C9000B96E0430C1673D69AD4605253D62A3E1CB
:102CA00057486D460068031C423318782368186043
:102CB00002F02EFE2268A6235B00D15C062002F003
:102CC000DFFFFD614D4D2B6898681A6841000232A4
:102CD0004A43131C0833DB08DB006946C91A8D46DA
:102CE00002AB181C00213B6207F0A4FD2068002104
:102CF0002C22303007F09EFD002371683068F268A6
:102D000000933B6AFDF790FD3862F869396A8546A1
:102D1000052900D068E13A4AFA21136889001A1C93
:102D20004832423312881878504307F01FFE2C684F
:102D30003861E16A68460A01131C0833B860C01A9A
:102D4000854602A9F961081C002107F073FDE26ABB
:102D5000F8693169FDF76CFE2B6868469A6A0E23A4
:102D60005A43131C0833DB08DB00C01A854602AC4B
:102D70000021201C07F05EFDF86932697369211C8F
:102D8000FDF792FE2B680022986A231C82420EDA1D
:102D90000A2151433569013269181D880D805D880B
:102DA0004D80DD88CD809D880E338D80EEE7BD6936
:102DB000201C2A78796A06F057FF2870BD68AD4656
:102DC000BD692B780C4D5A1E012A03D82A680021B0
:102DD000FC329166032B09D0072B17D0012B00D0B2
:102DE00000E12B680022FC339A66FBE0786A07F06A
:102DF0009DFA041E18D00AE080010020EC03002098
:102E0000B0080020B7040020FFFFFF7F182404F063
:102E100065FC774B1B68DB6C18400123A34018400E
:102E2000431E9841404204402B68B4225200995CF2
:102E3000022909D1191CFC31896E3D69A94203DDC3
:102E4000BD690821297000249A5C022A3FD16A22B8
:102E5000FF329B5C580732D5182C30D1381C3030EB
:102E600004F07CFC796A381C4B780A781B02134307
:102E70008A782C3012041343CA78BE8E120613438C
:102E80001A88FD8EBA855B88FB8506F055FE2C22DC
:102E9000BB5E9E421DDA3A8EB6189E4219DD2E2088
:102EA0003B5E9D4215DA7A8EAD189D4211DD012000
:102EB00004F046FCB88DF98D04F036FC84E09907E7
:102EC00005D51A2C03D1012004F020FC7CE0002C55
:102ED0007AD1484DB4222B685200995C0122022914
:102EE00006D1191CFC31896E3869814200DC002250
:102EF000B869017808295BD1D2B2002A58D004F011
:102F00004FFC00283AD00224381C221C3A492C30AD
:102F100007F04EFC381C211C2C3004F0BDFC0520B1
:102F200004F0F8FC381C00212022303007F082FC2D
:102F3000796A30220B7B3521D3553123DC55CB5DAB
:102F40007F2293433220C4551C4380235B421C43A1
:102F50007B6ACA1914701A785B78786A1B0213436B
:102F60008278391C12041343C2783031120613439D
:102F7000002200930520131C04F0D2FC02F0A4FFF1
:102F8000012002F0B9FCF96800240C702B68201CA9
:102F9000FC339C665C6604F0B9FB201C04F0D0FB9B
:102FA0001649A223201C221C0B7104F0F9FC1BE023
:102FB000FC339A6E12498A4201D001329A6602F0BD
:102FC00083FF02F07FFE0FE0302202213123D0196F
:102FD000D155DC5504F060FC02F076FF012002F0D0
:102FE0008BFC01E000241FE7386ABD4615B0F0BD38
:102FF000B008002080010020E9A90000B7040020EB
:10300000FFFFFF7F82B0F0B5DFB06593DBB20792C0
:103010009A075B07DB0F05936B46D20F002526331B
:103020000F1C06921D70061C02F008FA031C0433E4
:10303000DB6F0EAC0390049305F0E2FA6B46A0221E
:103040002733201C5200291C1D7007F0F3FB524B44
:10305000220A1C705A70220C240E9A70DC709D7427
:103060004E4B1A68B4235B00D35C022B13D16A2148
:10307000FF31525C1A420ED0494BFA201B68800087
:103080000833DB8F584303F025FA02F035FC02F0D9
:1030900055FC02F017FE43490020A223021C0B71CD
:1030A00004F07EFC3B78B34202D004F081FB3E701A
:1030B0003B4A3A4B12681B6841321178B6225200E3
:1030C0004900995200229A6004F0BEFC041C02F0F0
:1030D000BBFDA04204D0201C02F0BBFD04242DE067
:1030E000049F69466B4626312B4A2733009701908F
:1030F0000798FFF7DDFC0AAD041C281C04F0FAFA5F
:1031000065AB1978069F022278009143059F014321
:103110000420BA008143114319702B780622114014
:103120001A4091420AD01D4A11686A22FF328B541C
:103130005A079B07D20FDB0F05920693174D1A4AC9
:103140002B689968914202D09A6801329A60052CE6
:103150000CD104F0BBFA2A68B8235B00D35C83422D
:1031600006D104F09DFAB042AED001E0042C05D0A7
:10317000039B049F0433DF6702F012FF6B46273383
:103180001B78002B01D002F09FFE00205FB0F0BC46
:1031900008BC02B01847C046D008002080010020BB
:1031A000B0080020B7040020FFFFFF7F7047000039
:1031B000F0B5A5B000AF786402F040F9786102F094
:1031C0002BF9D14BF8611C686368226858005A4398
:1031D0005100D2185200131C0833DB083864DB009E
:1031E0006846C01A85466B46F9600021FB6307F00C
:1031F00021FB636822689E005A43D3189A00131C6F
:103200000A33DB08DB006846C01A85466B4600219E
:103210007B6307F00FFB636822689D005A43D31855
:103220009A00131C0A33DB08DB006846C01A854687
:103230006B46FF217B6207F0FDFA786C00210138B4
:103240003862B963162810D80123B04A834013426C
:1032500006D1AF4A134208D0AE4B1B68303302E0B0
:10326000AC4B1B6832331B78BB633A6CBB6BB60844
:103270005208AD08013BBE613A61BD60FB62FA6A6B
:10328000013200D19AE0386A022804D97B6C113BE4
:10329000012B00D98EE00220002102F021FE02F075
:1032A00093FB0120002102F01BFE974B9A4A1E68F7
:1032B000156833683C6DFB64BB62BB6A013B3B64D1
:1032C00075D37468013C611C6ED0B368B96A6A69D1
:1032D0004B43E31801339B0098587B6C032B32D08F
:1032E00004DC012B06D0022B13D0EBE77B6C113BE7
:1032F000012BE7D879690B190333DA7FFB69E96998
:10330000920037331B785258DA40801AC343DB17D8
:1033100018403A6CBB69796B5343E3189B005958CA
:103320007A6B40189850FB6A002BCBD1396C3B6903
:103330004B43E3185B00B96B3B6307F0C9FA3A6B88
:10334000FB6BD052BEE7396CBB694B43796BE2181B
:10335000920052583A63824200D23863396B7A6BDA
:10336000E3189B0099503B6CBA68796A5A43A318DA
:103370009B003A605A589446824200D984463B6882
:10338000786AE118890062460A50386B7F21831AF7
:10339000FD2B01D85B0899B23B693A6CF86B53433B
:1033A000E3185B0019528DE73A6CBA6285E7386C16
:1033B0003C65F864F96A0139F96260E7524E1A22F5
:1033C000336818685968F86239641C690533DB7F13
:1033D000381C00215430BB6207F02CFAFA6BFB68F2
:1033E000101CD518291C7A6C00F024FA786C11286E
:1033F0006CDB12280BDD132868D10022F86B291C26
:1034000003F0AAF93A6C00237A64BB6260E0796C3D
:1034100011290CD133683A6C5B68013A013B7B613E
:103420003C1C00237A6450343B6201200DE0336879
:10343000F96A1B683A6C013B01397B613C1C012332
:10344000F9627A644C343B620020356878622968FE
:10345000F964FB6C591EB963F964002B34D06A68B7
:103460003A653A6D531E3B65002AF2D0B86B396A53
:103470003E694218B8694243786AC1188A18796B64
:1034800092005058B96BBA694E434A4384469A1821
:10349000786B92001258216878699E1976008142F3
:1034A0000EDA6146FA208B1A8000891858434910B9
:1034B000002900DC012107F059FAFA6BB052D0E77D
:1034C000F86B00233352CCE71C1C01E0386C7864A5
:1034D000F96A3B6CB86A3D1C70357A6C2970AB7028
:1034E000E870391C381C7E235B426A7054311A2202
:1034F00076306B712C7107F05BF9281CF96B04F0C6
:1035000069F9BD4625B0F0BDEC0300200400400081
:1035100003000300B008002080010020F0B5504CEB
:1035200087B00668406800AF2568B623BE60786043
:103530005B003960E95A286907F06EFA494B396136
:103540001B6898695A69410001324A43131C0833C9
:10355000DB08DB006946C91A8D466E46301C002127
:103560007E6107F067F9A9697A68786904F0C6FE98
:10357000F86004F0A7FB2368B7223B4D52000021FE
:103580009954296894468E6B4268B24203DBCE6B35
:1035900081688E4205DA181C01218C30017060466A
:1035A0001954F9687026FF3601290FD19955081C66
:1035B00002F0A2F902F08BFB02F098FC2268A6232D
:1035C0005B00D15C022002F09DFC3EE060461B5C8B
:1035D000002B06D1254B78681B6879695A7804F06E
:1035E00093FF216800238B5502F071FB02F07EFCF3
:1035F0002A682368B621343249001278595A3E6944
:10360000891AB14201DD964220DC196991421DDD23
:103610003E69002E08D102F0D7F92068A6235B008E
:10362000C15C022002F05CFC2B683E6934331B78DD
:103630009E420ED123681A1C8C321278002A04D1C3
:10364000BE685A6903CE04F067FD23688C330022FC
:103650001A703E680523BD46337007B0F0BDC04602
:1036600080010020EC030020B0080020B4080020F6
:1036700008B503F05BFF08BDF0B585B004F0BAFFF4
:10368000071C04F0B7FF674B1C68231C68331A78CB
:10369000012A06D1E26E64498A4202DC0132E26606
:1036A00002E00022E2661A701B78211C703101933F
:1036B000256B0391012B39D1002D0DDDA26B052364
:1036C00053430292EB4210D5281C616C07F04EF96F
:1036D000019E0E2827DD08E00026B54223D1A36B0A
:1036E000019E32331FDB2E1C1DE0C82D1ADD02990E
:1036F00000264B00EB4216D5281C616C07F036F90A
:103700000A2810DC9E239B00FB58022B0BDD231C98
:1037100080331B78B34206D1231CE4331E787342F6
:103720005E4100E00026039A167032E0642D03DD4E
:10373000A36BEB420CD527E0002D27D13B4BA26BAE
:103740001B68012606215B5E9A4220DB2E1C1EE0D0
:10375000C82D1BDD5B000026EB4218D5281C616CD0
:1037600007F004F90A2812DC9E239B00FB58022B69
:103770000DDD231C80331B78B34208D1231CE433B6
:103780001E7873425E4102E0012600E00026039BA2
:103790001E70E16B1E2933DCAB1EC62B30D8281CF3
:1037A000616C07F0E3F805282ADC231CE4331B785E
:1037B000002B25D12379002B22D1B8235B00E35CB9
:1037C000002B1DD19E239B00FB58013B5A1C26D089
:1037D000013B1749FA1852181278012AF6D8221C10
:1037E0000832D06F211C00238831052804DD803485
:1037F00001202070D36701E00130D0670B600EE03C
:10380000221C88321068211C08310023052803DDA2
:1038100080342370136001E001301060CB6705B085
:10382000F0BDC0468001002057020000B40800200F
:103830006D0200007047000008B502F0B1FB01F016
:1038400069FF01F0FFFE01F0B3FE0F4B1B681A7A0F
:103850000E4B1B689433002A01D0022200E00322A1
:103860000B491A6000230B700A49A0220B700A4909
:10387000D2050B709363D36B3F218B43D36362B646
:1038800002F0FCFF08BDC046EC080020F00100205B
:1038900029000050280000502A00005038B5051CAF
:1038A000FCF7BAFD041C04F08BFEAC235B00E35C68
:1038B000002B29D0154B00221B68DB6A013B07D384
:1038C000190169180820095E0029F7D10122F5E7DE
:1038D0000F4B1968086B0B1CFC33002812D1896B45
:1038E00000290FD1002A0ED01A6EFE2A01DC013207
:1038F0001A661A6E322A07DD00221A66AC235B00B4
:10390000E25401E000221A6638BDC046EC030020F4
:103910008001002070B5051C0C1C161C03F082FFF2
:10392000002802D001280AD023E00E204643AD191A
:10393000EA88FF23FE2A00D8D3B2637119E00E2073
:1039400070432818C288FF23FE2A00D8D3B26371BF
:103950000B220A238256C3560921D31A0822415644
:1039600082568A1A934202DDA371E27101E0A271CC
:10397000E37170BDF0B587B01D1C0CAB03AC1B78B8
:10398000161C00910C220021071C201C019306F03C
:1039900051FF0F236A1C1A4040210A432270012262
:1039A000B25603201A4062703056728831886678A9
:1039B0000001334003436370019BA170E270002B50
:1039C00026D1227880235B42134323703A7B012364
:1039D0001A402378102112018B4313432370BA88B5
:1039E000131C12B2FF2A00DDFF232A1C381C211CE5
:1039F0002371FFF78FFF009B04229A5E074B1B6821
:103A00005D192835002A01DD012300E000232B7019
:103A1000201C03F017FF07B0F0BDC046F4030020E0
:103A2000D04BF0B51B68051C1B68C8200C1C40005F
:103A3000FA2191B05843890006F098FF04350890A8
:103A400003F0F6FE039404950024C74B1B681B6A21
:103A50009C4200DB90E1039E0FAD3388281C2B8035
:103A600073886B8006F068F80E23049E6343043E5F
:103A70000696049E05930023F35E002B00DC12E102
:103A80000698049903880EAE023933800B88301CE7
:103A90007380099106F050F82B8832880B93B34B52
:103AA0000A921A6876881319191C28310C966D88A9
:103AB0000878AF490D950968002801D1453100E02B
:103AC0004631097807918F218900575C002F04D077
:103AD0000E9805F0BDFF071C03E09226B6009B1967
:103AE0009F71A24B92201D6880002B191B189B7997
:103AF000012B0FD1049E0227317A039E327A914224
:103B000000D19AE000200093011C0EAA231CFFF7AD
:103B100031FF92E0039E9A230422B25E9B00022FA3
:103B200009D1002A00DC88E0EB581B5D022B00D194
:103B300083E0032781E0012F5BD1002A35DDEB58BC
:103B40001B5D5A1E012A48D8022B2ED098239B00B9
:103B5000EA580EAB0026995FA00012188C4602901E
:103B60000021505E6646301A0226995F40438C461B
:103B70000221535E6646F31A5B437E4EC318B3427E
:103B80002CDD99239B00EB580298089E1B589E42FF
:103B900024DD97239B00E858059E0023009380199D
:103BA0000399231CFFF7E6FE17E097239B00E858D4
:103BB000059E069980190E2206F0FAFD98239B00B7
:103BC000E858A600042280190EA906F0F1FD9923F9
:103BD0009B00EB5800229A5100E00327634B992287
:103BE000196892008A58A300D3181A6801321A6023
:103BF00023E0002F21D1002A1FDDEB581B5D012B94
:103C00001BD199229200AA58A300D258089E96422E
:103C100013DD97229200A85898229200AA58059E78
:103C2000D21880190399231C0097FFF7A3FE03F015
:103C30001DFE03F0FBFC03F0FBFD039E0423F35E7B
:103C4000002B15DD0C9E32B20D9E33B2D31AD8175D
:103C5000079E1B184340B3420ADA0A9E32B20B9EFB
:103C600033B2D31AD817079E1B184340B34213DB55
:103C7000032F01D0002F0FD1002300930698231C9F
:103C800003990EAAFFF776FE069E3388039E3380C3
:103C9000099E3388039E7380344B1A689A239B00D5
:103CA000D3581F5549E0039E0423F35E002B44DDE7
:103CB0002E4B9A221B6892009A58165D012E20D135
:103CC000992189005958A2008958089888421ADD1C
:103CD0009721890058580599002740189821890094
:103CE0005B5803999A180097231CFFF743FE03F0D3
:103CF000BDFD03F09BFC03F09BFD0096381C391CB6
:103D000005E0022E07D0012300200093011C2A1C8D
:103D1000231CFFF72FFE049B039E043B1B8833806C
:103D2000049B023B1B8873800E4B1A68BE235B000A
:103D3000D15C002901D00021D154049E0134338884
:103D4000039EB380049E7388039EF380049E337A9F
:103D5000039E3372049E0E360496039E0A36039623
:103D600073E6C04680010020EC030020F40300202D
:103D700004090020C4090000064B1B681A1C4032CD
:103D80001278191C343141330A701A7003F06EFD39
:103D900011B0F0BDF4030020F0B5CD4B9BB01B6813
:103DA00000250793CB4B0F901B6810911E6A0E23C2
:103DB0007343C4180E9311960C94231C321C059562
:103DC0000A950E3B013A0BD3D988059F8F4200DA42
:103DD00005910420195E0A9C8C42F2DA0A91F0E700
:103DE000BD4C012123681A1C5232127891401A1CD2
:103DF000533212785433891A1A788B1ADBB2139320
:103E0000FCF70AFB23680D901A1C383212780B92CB
:103E1000B8225200825C012A16D1B04B1B68E133F4
:103E20001B780B930E9B0F9F0E3BFB18079A1C1CD5
:103E30000893331C093329329B00FF32751ED318B7
:103E40000995043406931CE072220D9CFF32A25C9B
:103E50003933022AE6D1E3E7231F00255B5FFF2BFE
:103E600012DD9D4B0B9F1B681A1C38321278BA4228
:103E700015D00020225E002A26D1069D0E3C043D6E
:103E80000695013EE8D2E0E00027E35F002BE8DD85
:103E90000123BE220D9D9A40AB540B93E1E7079A94
:103EA0002932FF329219127D52B2BA42E1D10A226E
:103EB0007243109DAA180427D25F002AD9D01A1C79
:103EC000393212780B92D4E71A1C473215780D9FBD
:103ED000B8225200BA5C002A04D11A1C608802CAB7
:103EE00014330AE0012A0BD17C4B60881B681A1C32
:103EF000F8320D331168FF33043203F095FE03905E
:103F0000AC230D9F5B00FA5C734B002A06D01A6845
:103F1000039F29321278974200DA03921A68131C21
:103F200048331B78002B01D164234CE02B1C6C4FD1
:103F3000079DEF191497787B1590002822D1002156
:103F4000675E64217943892080008C462918039D8F
:103F50005D43AC4514DD039DAF4211DC8F68BC4668
:103F60000127BC445D4F60463F6888606C373F78EE
:103F7000BC4507D1149D01276F73159F8F6001E029
:103F800000208860079F56483D18697B002914D09F
:103F90000027E15F8920079F80008C463918039F26
:103FA000BC4508DD88680B9F01308860B84204D1A9
:103FB0000020687300E000208860079D484FE919E1
:103FC000497B0029B0D007992931FF318819057D37
:103FD0000027E05F002D03D00B9F6DB2BD4221DCB6
:103FE000039D642141436B4399420FDB131C44330F
:103FF0001B78059F61887B439B11994206DB136CFC
:104000000A9D6B439B11984200DB36E7069F002315
:10401000638023803B60079B2933FF335A68013A52
:104020005A602AE72F4D283268431278039D6A436D
:104030005343984200DB20E7069F002363802380E0
:104040003B604B68013B4B6017E7079B099E293398
:10405000FF3300225A609A191432119F06920A22E5
:104060007A43109C0F9D0E9EA2180392AA190C3A37
:104070000592099A099F6C3252009A1804320E92E6
:10408000099A079C743252009B1808330F930C2333
:104090007B432933FF33E3181093099D013500D189
:1040A000C4E20C9E0C9D0A3E0027F35F0E3D049572
:1040B0000A96002B00D140E2069C0B9A2378063228
:1040C0000133DBB259B291420EDC237010E0C046DE
:1040D000F4030020EC03002004090020080900205C
:1040E00027020000102700000B9B069D04332B7055
:1040F000069E0023F356012B09D1089F039B3A88A3
:104100000A3B059C1A80039B2288083B1A80069E66
:1041100000257557012D66DDA81C032106F07CFCE7
:10412000039CCFB212970A3C022D45D1E04B039D70
:104130001868E04B0021625E19680368083D9C46E0
:104140000026AB5F4E69096940684910511ACF17C4
:104150000138C91900027940401A7F280ADD76101B
:104160009E1BF0176746013F36183F024640BF1BB3
:104170007F2F11DC089E059F0020305E0021795EB4
:10418000801AC91A04F0BEFE0B2805D92388089CA2
:1041900023802B88059D2B800323013B1DD3109F7B
:1041A000089E5A00BA183088111C5A31059C0880A4
:1041B000218860321180F0E7099D06236B43079E3A
:1041C000C91822884900C12371185B00CA52039B99
:1041D000083B1A88C4235B00CA52089F059C3F888D
:1041E000248819971894B44B1B681A1C88321178CC
:1041F00001291ED189331B78099D9D4219DA0D9B37
:10420000E4331B78002B14D1D4216943A94B069EBB
:104210001B68049859180023F3560092A74A54319A
:104220001268383212780192039A0A3A00F0DCFCE4
:104230006BE1069F00257D57012D00DC65E1032D14
:1042400000DC3DE1099C06276743129E0321F41917
:10425000079E64003419C1267600A05B1190129865
:10426000043006F0D9FB079AC9194900C423511834
:104270005B00E05ACB5A8E5B14909C46042D16D1FD
:10428000039B089D0A3B0020285E00215B5E059D84
:10429000C01A039BC2178018083B504000215B5E88
:1042A0000022AA5ED31ADA179B18534013E0089D28
:1042B0000020285E0E9D0023EB5E059DC01A0022A3
:1042C000AA5E0F9DC1170023EB5E4018D31A484029
:1042D000D9175B184B400999079DC0186B18FB3321
:1042E000FF331978754A002906D011685A310988B8
:1042F000884208DC002105E011685C3109888842A9
:1043000001DB012119701B78002B32D1126880214A
:10431000131C5832128856331B8800924A0003F04F
:1043200072FC089DC1235B000021695E061CE05EF3
:10433000059F0B1ADD175A196A4000257D5FC427B7
:104340007F009446E25FAD1AEA17AD185540654408
:104350002B1C321C05F066FC089B321C1880E05FA9
:10436000059C2B1C0021615E05F05CFC059D2880EE
:1043700079E0119C149DA1B28E1B36B2F30F9E19E9
:104380007610AAB215966646931B1BB2089CDD0FE9
:10439000EB180025645F059E5B100494159C169332
:1043A0000020365E0B19049D169C17961BB2EB1A63
:1043B0001219179DDE1712B29B19AA1A7340D6174D
:1043C000921972409B180024802B01DD1C1C803C3C
:1043D00012980321053006F01FFB384BC919079FBF
:1043E000490079181F68119A3B1C53331E785D7879
:1043F000139B10B25843C1235B00CB5E7343C018BC
:10440000049B6B43C0183B1C52331A78553710413C
:10441000119014983B7807B213984743C42040008A
:10442000095E4E43BE19179F16997D437519159E57
:1044300059437343119F1141134115418022F818CC
:104440006D18231C0499D20005F0ECFB089E059F13
:1044500030808022231C0021795E281CD20005F0C8
:10446000E1FB059C2080039B0A9E063B0021715EB8
:104470000025585F114D431A2F68DC171B19634044
:104480003C22BA5E05F0CEFB0A9E039B0C9C30805A
:10449000043B083C188821882B683C27DA5F431AC4
:1044A000DD175B196B4005F0BDFB20802DE0C04699
:1044B000EC030020F4030020080900200409002078
:1044C000BE230D9E5B00F25C039B0A3B002A08D0D2
:1044D0001B88089F059C3B80039B083B1B8823800F
:1044E00013E0089D00269B5F0022AA5E089FD31858
:1044F0005B103B80039B059C083B0022A25E0025CD
:104500005B5F059ED3185B103380069F0022BA566E
:104510000B9CA2426ADD0A9D0023EB5E002B71DD3D
:10452000039B063B00269B5F002B6BDD199C0E9FB7
:10453000189E0F9D3C802E8064E0069E0022B2569D
:104540000B9FBA422EDD0399063900200A5E002A2D
:1045500030D0079A099D2932FF325419A07F0130CB
:10456000C0B2A077324C40B224683A342478A042DA
:1045700001DD33701EE0039B089E0A3B1B88059FEC
:104580003380039B0A9C083B1B883B800B8823805D
:10459000039B043B19880C9B083B1980536801332B
:1045A000536007E0079E099F069DF219FB32FF3218
:1045B0002B701370099C069D013C039E089F099473
:1045C0000C9C013D0A3E0E3F0E3C06950396059D50
:1045D0000E9E08970C940F9F109C0E3D023E023FCA
:1045E0000C3C05950E960F97109456E501230A9EF4
:1045F0005B423380079B099D2933FF335B190022FF
:104600009A77D7E7079B2933FF33596801315960FF
:10461000074B1B6838331B789A4201DA069F3B70C0
:1046200072230D9C0022FF33E254E3E71BB0F0BD80
:104630000409002008B5FFF7AFFB08BDF0B591B045
:10464000069008910B920D9300244A4B1B68DB6A7D
:104650009C4200DB8CE0069F2301FB1808201B5EB8
:10466000002B00D182E0089FA300FB180327DF572F
:1046700009979B78013F5BB207930597099F0598BF
:1046800001370A97B84271DC079E013E079B013350
:104690009E4268DC374B059A1968013288680B9F87
:1046A0004243531C9B19FD5C0490013D59D3C96AD8
:1046B0008D4256DAAC4254D0169F2F495B00DB5B2B
:1046C0000868AC210C934900415C089F8C46A3000C
:1046D000DB5F67462949002F08D0B8277F00C05DFF
:1046E000002803D10968498E490801E00968498E0C
:1046F00059430C988911834233DC079FD219013248
:10470000169F5200D35B99422BDA0A9B04984343CD
:10471000F31801335B00DB5B994222DAA54202DB2E
:104720002B1C251C1C1C069A21010FAF51180A31A5
:104730000422381C06F03CF8069B29015918381C45
:104740000A3103F0EDFF00970B9F231C01970D9F8B
:1047500006980297169F089903972A1C03F0FEFFFC
:104760002C1C023692E7059F023786E701346CE77E
:1047700011B0F0BDEC0300208001002004090020EE
:10478000F0B5A84B93B00A9200221A8011900C1C2D
:1047900005F0E2FFA44BA54A1B6812689F7A80329D
:1047A0000B971278061C002A04D19F7906970820DF
:1047B0001F5E05E09E4B1B681F7A06970A201F5E4E
:1047C0009C4D9D492B680A981A6805970A709A684B
:1047D0005F688A70013204239200CB7082185123E3
:1047E00002204F700B7103F0DBF80023A21DD3777A
:1047F0000232D3777F27631DDF772D68E31DDF77D4
:104800006B682A68013BDBB20D93884B013A1B6849
:10481000D2B208930899B8235B00CB5C012B07D078
:10482000864B04361B6876009E19F688079602E0D0
:1048300080231B0207937E4B00261B6852B20E9307
:104840007F4B03961B6800960F93774B1B6804936E
:10485000002A00DAAEE00D9F500079B209900029DD
:1048600000DAA5E0AB68561C5E430E9F0136701857
:104870003F7B0A9E83009B59002F17D0079EA627D7
:104880007343DE13089B7F00DF5D6A239C46FF2392
:104890009C4463467B436F689C4657430F9BCF19EC
:1048A0009C446346DF5D3B1C73439B116F68189EFD
:1048B0005743CF197F00BE5F119FF31A4600F35391
:1048C000981D04DA574E3788013737805BE0002B9C
:1048D00059DB049F0C26BE57B34213DB20689E1B96
:1048E000861926606669381C013666610D26BE573A
:1048F0000C27C7576068B34201DCDF1B00E0F71BE1
:10490000C7196760E768BB4204DDCEB2D7B2109624
:104910000C97E3600B9EB3421BDB261C08361F2757
:10492000F7578F4200DAF177E61D1F27F7578F42BE
:1049300000DDF177A61D1F27F757974200DAF277BF
:10494000661D1F27F757974200DDF277039F013757
:1049500003971A9E4F00F65B98B20197B4468444C1
:1049600002901A9F019866463E520998199F199E17
:104970003F5A0298BC468444099F6046F053009E0B
:10498000F618009612E0049F0E26BE57B34206DCCE
:10499000A0689E1B8619A660A6690136A6612669D5
:1049A000B34200DA2361009FFF1A0097013956E7EE
:1049B000013A4DE71F4B00981B680125D96805F0A7
:1049C000D5FF20497C235B42221CCB70E06176231B
:1049D0001C32281C0B714D7002F0E2FF039EA21DD9
:1049E00026621F21631D51561F229A56134B1B68C6
:1049F000914201DB1D7301E000221A73109F0C9E8F
:104A0000231C28335E701F70E768069E0120B742A2
:104A100005DA2369059FD80FFA179F425041C0B2AB
:104A200013B0F0BD16040020F8080020800100201B
:104A300000090020EC030020B0040020F003002057
:104A4000FC080020FB0100200B4B09681A68B82302
:104A50005B00D35C094A1268D07A48438011002B6E
:104A600001D1937A04E0012B05D1054B1B68DB795A
:104A7000984200DA181C704780010020F8080020D6
:104A800000090020F0B58DB00E1C1D1C0B92099082
:104A900003F00CF9514B0A901B6803229A561C7ABA
:104AA0002027BF1A02229A5605945C7A7F0006944A
:104AB0009C7ABF1A0794DB7A7F10089302F060FE9D
:104AC000474C07982368089AFFB219781B79009021
:104AD000029701926A68129805F0C4FC23686A681C
:104AE000059D19791B780095069D029713980195ED
:104AF00005F0B8FCB07A7F23327A777AF17A337294
:104B0000B372236805900020069707917072F072C7
:104B100052B29C46069D6BB29A4246DC129D059CA1
:104B20005100691863B20891079C551C61B28B4211
:104B300039DC6746B9680B9F694359180131490050
:104B4000CC5F139F590079180989641A08990F8955
:104B5000E11B0A9FBC7AA14214DD0B27F7579F4245
:104B600000DAF3720A27F7579F4200DDB372092774
:104B7000F757974200DA72720827F757974203DD1A
:104B8000327201E0002903DD884202DA081C00E0ED
:104B900000216446A468099F65435D190135AD0095
:104BA000E9510133C0E72A1CB4E70D4F0D493B68BA
:104BB00030605A6818684A709A68099C8A707C2329
:104BC00001325B4292000870CB70A218832305204B
:104BD0000B7102F0E5FE0DB0F0BDC0460C090020DF
:104BE000EC030020B0040020F0B5E5B014926AAAEE
:104BF00020CA0D901278281C19920A1C0491D032F8
:104C0000483011780078884201D301311170CE4AC2
:104C10000D9F16680022BA5E706C0D9D42431214FF
:104C200017920222AA5EB76C7A4312141892012BD3
:104C300039D1049A0021D1321170049AD032137004
:104C4000049B179D189F002201311D60DF605A6090
:104C50001A619A605A619A61DA611A625A629A62BA
:104C6000DA6234330429ECD16A9B049D9A8C223396
:104C70002A63DA886A6659892A1C98321160D989B0
:104C800051631A88291CAA619A880431EA64AA65CA
:104C90001A89CA6788310A608A609B892A1CB432E3
:104CA0001360D36053616A9D002402351A941B94EB
:104CB0000395039DA20000235219181C1A255D4379
:104CC000049FD15A7D192D6B023369434018082B7C
:104CD000F4D1FA21890005F0FBFD682109196A4623
:104CE00002348852082CE4D11CA80021102205F0BF
:104CF000A1FD002534236B43049F20A8FB181B6BE8
:104D0000039F0693EB00FB182F0107933F18002425
:104D10000799069A085B68231B1950436A46995AFB
:104D200005F0D6FD63001CAA9958F8500234081803
:104D30009850082CECD10135042DDBD1D02230A8BD
:104D4000002105F077FD149D776C0023EB5E149D28
:104D50007B431B1430930223EB5EB26C012653435A
:104D60001B1433933DAC21AF03960023049A0793A1
:104D700006931E1C181CF95815684D434019D56838
:104D80004D43761955684D43069949190691FD58CA
:104D9000116910336943079D34326D180795402B14
:104DA000E9D1039D1CAAAB009D58291C05F0DEFD2E
:104DB000291C2060301C05F0D9FD291CE0600698F4
:104DC00005F0D4FD291C6060079805F0CFFD039E17
:104DD0002061012E19D00023049A0593181CFE5857
:104DE0009168103371434018516934327143059E04
:104DF00076180596402BF2D1291C05F0B7FD291C29
:104E0000A060059805F0B2FD6061039D3434013562
:104E100003950437042DA8D138AC0025A80020A99B
:104E200084460A1C624400230992049A0A93089358
:104E3000079306930393181C099ED769F158966946
:104E40004F434E438019039E1033F619176A039699
:104E50004F43069EF619576A06964F43079EF6196A
:104E6000976A07964F43089EF619D76A08967943C2
:104E70000A9E343276180A96402BDDD167461CAB69
:104E8000FE58271C311C05F071FD083F3860002DCD
:104E90001BD0311C039805F069FD271F3860311CB9
:104EA000079805F063FD6060012D0ED0311C069857
:104EB00005F05CFD311C2060089805F057FD311CA1
:104EC000A0600A9805F052FDE06001353434042DED
:104ED000A4D1049B002130AA8D58521856689768B7
:104EE000D0681D605E60156956699F609769D860DB
:104EF0001D615E619F61D069156A566A976AD26AC0
:104F00003431D8611D625E629F62DA623433D02927
:104F1000E1D1049C0026251C0835069507966A9B5E
:104F2000079F3233022F0BD0032F0FD0012F03D056
:104F30001D789A88DB880CE05D781A895B8908E027
:104F40009D789A89DB8904E0F4030020DD781A8AD1
:104F50005B8A9C46012D60D0002D4DD0022D79D169
:104F6000069E6068366827680111C9198019069F76
:104F70000F9020697F68089673116669CB1801113C
:104F8000C91911937311CB181293A36A80190A9649
:104F9000DE0F1090F618E06A76100596C10F266AAB
:104FA00009184910F7187F180397A069E7693E1898
:104FB000206AC70F3F187F10F719E669606ABF19AA
:104FC0003F1805983E180398C70F3F187F10606A76
:104FD000F719E669361805983618206A3618F01859
:104FE000666A40180590F118E06AC91809181B187C
:104FF0000E918618139339E0069F26687F68A06992
:10500000119612972E1C171813950E95039505955A
:105010000A95109508950F9528E066682768331162
:10502000DB19069F0F9626697F6811933311DB19F0
:10503000E0691293A369616A4700FF18401810964F
:105040007F180026891805900E91139603960A96EC
:1050500008960BE0002613960E9603960596371CCD
:105060000A961096129608960F9611961298189B0B
:10507000119A1B1A0B93FB171B0F1799DB191B11A6
:105080006344891A0991B801191C0C9305F06EFC50
:10509000059A0C991590900105F068FC039B0C99FA
:1050A0001690980105F062FC1199099B8A021599E6
:1050B0004B43D3189B1223600F9B16999A01099BAF
:1050C0004B43D3181B019B126360089B06999A01FE
:1050D000099B4343D3181B019B120B60129B15992C
:1050E0009A020B9B4B43D318069A9B125360109B5A
:1050F00016999A010B9B4B43D3181B019B122361FA
:105100000A9B9A010B9B4343D3181B019B126361BB
:1051100080231599DB00591A0B1C7B43DA17920D7B
:10512000D3189B128C46A361002D05D1E561256241
:105130006562A562E56234E0059B4B43DA17920D88
:10514000D3189B12E361169B059A5F427A430E9B2C
:1051500099025218D3179B0D9A1892126262022D6F
:105160001BD1039D61464D43EB179B0D5D19AD129D
:105170002562039DB6026F43139DAB02FF18FB1718
:105180009B0DDF19BF12A762039F7843301AC61721
:10519000B60D30188012E06203E000232362A362A0
:1051A000E362099A0B9B52435B43D318574A9342DD
:1051B00005DC642058430C9905F0D8FB00E0544806
:1051C000544B4610544D01209E421BDC301C291CC0
:1051D00005F0CCFB291C421C5143771AFB17FF1822
:1051E0005F404E4B4000C05A520078434C4FC919A3
:1051F000761AF11776184E40D15A4E43291C801961
:1052000005F0B4FB68430C9905F0B0FB079F069DC1
:10521000BE0030AB01373435F05007973434069573
:10522000042F00D07BE60024251C68266100361977
:1052300030AA6F46F35B8858049E58431A23634391
:10524000FA21F3181863890005F042FB023445196E
:10525000082CEAD10024049F291C3E19306B05F06C
:1052600037FB002801D0306301E00123336334347D
:10527000D02CF0D10024049B251C211C201C1A6B6F
:105280001E68013156433018DE6814195643343312
:1052900075190429F3D1211C05F068FB211C061C9B
:1052A000281C05F063FB049D199A2B1CD033197838
:1052B00001322C6B013391420CDD1A78002A15D192
:1052C0006A9A463295788D4210D3128894420DDB4B
:1052D000012200E0002200211970012A08D1149E49
:1052E0000D9F33883B8073887B800CE001221A700D
:1052F0000C4B0D9D1B68DF6C1B6D7E4358433614B1
:1053000000142E80688065B0F0BDC04614AE470121
:10531000FFFFFF7F6F11010010270000ECA90000C4
:10532000F0D8FFFFF4030020F0B5304F85B00190B6
:105330003868B4230A1C5B0014320290C65C0392E6
:1053400000230A1C022E27D16A24029DFF342C5D03
:10535000344221D01478072C07D1087D201AC517B4
:105360004019684007280DD108E0032C0ED1087DB4
:10537000241AE51764196C40012C11D1541A0E2C13
:105380000EDD0FE05078002802D009E0082C07D08D
:10539000023C012C06D803E015780C7DA54201D013
:1053A0000133DBB2039801328242CBD10022022BBF
:1053B00018D8019D01232B700B7D591EC9B20629F7
:1053C00001D80B4A525C3868B4214900415C02297B
:1053D00008D16A24FF34005D084203D0043B022B4D
:1053E00000D81A22101C05B0F0BDC0468001002074
:1053F000FCA90000014B18607047C046EC08002073
:10540000014B18687047C046EC080020014B18603B
:105410007047C046E8080020014B18687047C04636
:10542000E8080020014B18607047C046E4080020DF
:10543000014B18687047C046E4080020014B18680B
:105440007047C046F00100208D23013B002B01D0A6
:10545000C046FAE7044B10221B78DBB21807C00FD6
:10546000134018437047C0462B0000500F4BF7B550
:1054700018261E700E4BA0271E70FFF7E5FFFF05D4
:105480000B4B01AC00252C3760701D703E70FFF790
:10549000DBFF064B20703D701D7023786278181C6E
:1054A0005040400013400343D8B2FEBD2A000050D4
:1054B0002D00005010B50D4B00201B78AA2B12D1E7
:1054C0000B4B1C780B4B64B218780B4B40B219781D
:1054D0000A4B20181A780A4B49B21B7840188018DA
:1054E000C01A43425841C0B210BDC046500002002D
:1054F000510002005200020053000200540002005A
:105500005500020030B50C4B00201A78552A11D1F5
:105510001D780A4B18780A4B28181C78094B00197B
:105520001978094B40181A78084B80181B78C01A54
:1055300043425841C0B230BD56000200570002003D
:1055400058000200590002005A0002005B000200ED
:1055500010B5041CFFF7D6FF002810D0092C01D18C
:10556000084B0AE00B2C01D1074B06E00C2C01D1B3
:10557000064B02E00F2C02D1054B1C78E4B2201C34
:1055800010BDC0465700020058000200590002003A
:105590005A0002008023DB020022188059809A8082
:1055A000C046024B188880B27047C046060004000F
:1055B000154BC022920098581449014099509958AF
:1055C000FF208143402001439950985810490140E1
:1055D0008020000401439950985880210002000A5D
:1055E00009060143995002221A6001221A6008211B
:1055F00004221A601960FC3300215960054B1969B7
:105600000A431A617047C04600E100E0FF00FFFF57
:10561000FFFF00FF00ED00E013B5094A04241378F2
:105620000021DBB21C4301910198F421FF31884233
:1056300005DC1370C046147001990131F3E713BD06
:105640000D00005013B500220192A022D205D06BAC
:10565000C021C9000143D16301AB187803218843FD
:10566000012108430C24A043042420433024A043F8
:10567000102420433F242040402420431870987871
:105680000F24A043072420439870D8780143D97091
:10569000019B936113BD00000122A023DB05104094
:1056A0000206034998690840104398617047C04654
:1056B000FFFFFFFE13B51F22013001ABCCB210403B
:1056C00002311870C905601C02341040C90D224017
:1056D00059809200090A1143D9705870019AA02389
:1056E000DB05DA61196A024A0A401A6213BDC04634
:1056F000FFCFFFFF0002064B000A0138002258606E
:105700009A6005221A60C0461A68D103FCD570471A
:1057100010E000E0F0B5554E85B03368544F196B7A
:105720001A1C33331B78303215781B07023212787B
:105730001B0F00930F231407994312092D070192A1
:105740002D0F0B1C80222B4352001343494A039513
:10575000494D1340494A2B4049491340240F0B40FF
:105760000199220413430A05464902940B4000990B
:1057700013433B400A061343434AA024E405134065
:10578000E360FFF749FF3368E26831331B78154067
:10579000DB069B0FDB021D43E560E26880239B0074
:1057A0001343E360E26880239B011343E360029CA0
:1057B000039DFFF77FFE3E1C002813D0334F882047
:1057C00039781E34C9B205F0D1F839784443C9B2EA
:1057D000882005F0CBF80F3545431E3C00230F3DD4
:1057E0009C4203DB231E0F2B00DD0F230F2295426B
:1057F00000DD151CA024E40521491A40E3681204C9
:105800000B401343E360EB43DB171D40E3680F27B6
:10581000BB433D401D43E560E368F0229343802293
:105820001343E360E368174A19481340E360E368F1
:105830003340E360FFF75EFFE26880235B051343BC
:10584000E3600098FFF784FE07403806E7683E40B3
:105850000643E6600F48FFF74DFF019B09491A0513
:10586000E3680B401343E36005B0F0BDE808002097
:10587000FFFFFFF0FFF9FFFFFFE7FFFFFFDFFFFF85
:10588000FFFFF0FFFFFF0FFFFFFFFFEF54000200DD
:10589000FF0F0000FF6F0000064A074B126801204F
:1058A0009432126819789040021C0A43D2B21A70DE
:1058B0007047C046F0010020290000500549064B02
:1058C00009681A78943109680120884082431A7067
:1058D0007047C046F001002029000050044B1878A2
:1058E000044B1B6894331B68184101231840704710
:1058F00029000050F0010020044B82B0019001AA61
:10590000188092789A7002B07047C0462400005008
:1059100007B500F0BBFD064B019001AA18809278F4
:105920009A70044B00221A70034B0122DA7707BDEC
:1059300024000050A008002008000050034B002263
:105940001A70034B0122DA777047C046A008002086
:1059500008000050054B1B5C002BFBD0A023DB058F
:105960009968034A0A409A607047C046A008002020
:10597000FFFFF9FF72B6084B1B5C002B03D1C0463A
:1059800030BF62B6F6E762B6A023DB059968034A2A
:105990000A409A607047C046A0080020FFFFF9FF48
:1059A00072B6074B1B5C002B02D1C04662B6F7E70C
:1059B00062B6A023DB059968024A0A409A607047E4
:1059C000A0080020FFFFF9FFA023DB055A68012192
:1059D000120E58689143034A090602400A435A606E
:1059E0007047C046FFFFFFFE08B5A0230120DB057E
:1059F0005870FFF7AFFFFFF7E7FF08BDF7B5A02628
:105A0000041C0191F605042809D0052810D14B4B40
:105A10001B681A1C88328C3317681B6819E0474BC7
:105A20001B681A1C94331B6890321768736106E078
:105A3000434B1B685F6A9B6A7361FAF7EDFC414B4D
:105A400001995A5C7F231A4071693F4B92040B40C5
:105A500013437361A023DB051F611E691F231E40D2
:105A6000FFF728FD00280AD0384B88201978043623
:105A7000C9B204F07BFF46430023043E03D4331E27
:105A80001F2B00DD1F23A022D20510691F210B4010
:105A9000884303431361032C1CD005DC012C21D067
:105AA00012DC002C10D020E0052C09D004DB062CE1
:105AB00014D0072C16D018E0204B1D68983514E040
:105AC0001E4B1D689B3510E0FAF7A6FC1C4B1D68A9
:105AD00035350AE01A4B1D683B3506E0174B1D684B
