:100000004D424E014D3448300502040001002200EB
:100010006000000000C000000000000000000000C0
:100020000000EEEE000000000000000000000000F4
:1000300001000502000000000000000000000000B8
:100040000200050100002D000000000000B40000C7
:10005000030005012D00300000B40000000C00007A
:10006000001C0020ED020000000000000000000065
:100070000000000000000000000000000000000080
:100080000000000000000000000000000000000070
:10009000000000000000000000000000B5010000AA
:1000A000E1010000FD010000B9010000CD010000E8
:1000B00000000000002934D00123002210B488423F
:1000C0002CD301242407A14204D2814202D2090187
:1000D0001B01F8E7E400A14204D2814202D24900A8
:1000E0005B00F8E7884201D3401A1A434C08A0424B
:1000F00002D3001B5C0822438C08A04202D3001BE1
:100100009C082243CC08A04202D3001BDC082243F7
:10011000002803D01B0901D00909E3E7101C10BC1B
:100120007047002801D00020C04307B4024802A154
:100130004018029003BDC046D90000000029F0D04D
:1001400003B5FFF7B9FF0EBC4243891A1847C046F2
:10015000002941D010B4041C4C40A44601230022C5
:10016000002900D54942002800D5404288422CD3BE
:1001700001242407A14204D2814202D209011B01B9
:10018000F8E7E400A14204D2814202D249005B00B8
:10019000F8E7884201D3401A1A434C08A04202D320
:1001A000001B5C0822438C08A04202D3001B9C0861
:1001B0002243CC08A04202D3001BDC0822430028C3
:1001C00003D01B0901D00909E3E7101C6446002C89
:1001D00000D5404210BC7047002806D003DB002049
:1001E000C043400801E08020000607B4024802A195
:1001F0004018029003BDC046190000000029EBD052
:1002000003B5FFF7A7FF0EBC4243891A1847C04643
:100210007047C046FEE70000034B01225A70A0233E
:100220000022DB051A707047800C0020034B01226E
:100230009A70A0230022DB059A707047800C002082
:1002400008B5044B01221A70034B0022DA7700F044
:10025000E9FE08BD800C00200800005038B580255C
:10026000ED052B79DBB2002B0CD130490B604B60D4
:100270002B89081C9BB28B608A680C30103106F009
:10028000FBFC47E0012B0DD1284BD968002941D058
:100290005A68186982423DDA5A68501C58602B7AB5
:1002A0008B5437E0022B30D1204CE368002B2AD04E
:1002B000226821698A420CDA22689B5C1BBAEB60D7
:1002C000A3682068C01880B206F020FD23680133BF
:1002D00017E0A2682368201C211CD2180C301031B2
:1002E00006F0CAFCE368002B0DD0A16822688A18CA
:1002F000A2601B781BBAEB60A06880B206F006FD16
:100300000123236006E0EB6004E0032B02D1074BDE
:1003100000225A60C0468023DB0501221A70C046C5
:1003200002221A7000221A7038BDC0460C03002049
:1003300080230222DB05FF321A600421024AFF31CA
:10034000118000221A70704706000040F8B5A02303
:10035000DB059B68494A1F21DBB21160D12B0BD012
:10036000D02B01D80133DBB2A022D2059168FF2047
:10037000814319439160F1E70023414A41499A18AA
:100380008A4204D24049C95804331160F5E73F4B13
:100390003F4A191D043B934203D200221A600B1CF2
:1003A000F6E7EFF308823B4B191D043B9A4203D951
:1003B000394818600B1CF7E7FFF7BAFF3749384890
:1003C000053904F0FFF8374C374D01235B422371A8
:1003D0006371A371E3712B1C3C331A782B1C3D33E2
:1003E0001B7880B21B02134398423FD106F02CFCCD
:1003F0002E4B2F4918882F4A88420BD06E7D1888C3
:100400002B7D36023343984204D113889BB223716B
:100410001B0A637113888B421BD0EE7DA87D138865
:1004200036023043834214D100200423013BDBB267
:10043000FF2B07D0204EEF18F65C3F79B742F5D17D
:100440000120F3E7002804D013889BB2A3711B0A94
:10045000E371637922791B0213438B4206D0E27960
:10046000A37912021A43124B9A4204D1134B02226F
:100470001A6062B6FEE701F021F9F7E728000050A4
:10048000000000200C030020609D000010030020ED
:100490007C0C0020C80C0020CDCDCDCD00C00000CC
:1004A00000000000840C0020C0BF0000FEB300006C
:1004B000FFFF0000BEBF000000B4000000E100E04C
:1004C000014B18607047C0468C0C0020014B186827
:1004D0007047C0468C0C0020014B18607047C04626
:1004E000900C0020014B18687047C046900C00200B
:1004F000014B18687047C0460000002038B5134C07
:10050000256804F08DFC6862256804F08DFCA86203
:10051000256804F08DFC6861256804F08DFCE861B5
:10052000256804F0D5FCA861256804F0E5FC084BBB
:1005300008491B68096828621878097C22684143C9
:1005400002331161E832136038BDC046000000205C
:10055000900C00208C0C002082B0F0B589B0109C6B
:10056000151C0F930693029407900E1C119C03F028
:10057000A7FF47793A4B04978279964206D11B68C8
:100580000021DA69AB00D05A03910BE01A68354BB1
:1005900052691968731C896803964B43EB18013341
:1005A0009B00D05A0499714349194A00A418238822
:1005B000069E0193019F7318874203D8C61B029FB2
:1005C000BE521CE0029EB61805960027F65F013663
:1005D00010D01F787EB2B446013601DA013703E04D
:1005E0006646002E06DD013F1F7002235B4223801A
:1005F00001202FE0069F79180F78002F01D120806D
:100600000CE07FB27C1C05D1019E059F301A38801A
:10061000002002E0012F01D1FF2008701978039C0F
:10062000049E079F48B274437D19002805DC029E92
:10063000B25E013208D0002906D12A5700203E2A96
:1006400008DC0131197005E02A57002A01DD013963
:100650001970002009B0F0BC08BC02B01847C046B1
:1006600000000020F8020020F0B58BB000AF03F0CE
:1006700027FF06F097FB584C6E4623689D68DB68A1
:100680007D625A00111C0E319B00C9080E33C9004F
:10069000DB08DB00761AB546F61A6D46002168467F
:1006A000B546BD61FE6008F071FD002004F0F6FC67
:1006B0007E6A4A4A20681568B20052420368BA60EE
:1006C000321C5A439100F961B107711A79609107A0
:1006D000891A3A62013B32D344683E6A3219261CB9
:1006E0005E437618B400FE68920034197C61FC69A0
:1006F000A2420BD07C690426A418A4466C697642F9
:10070000A458B44466463460043AF0E7BE683A6AD6
:10071000A419FC617C6A7E68121B3A628919D9E7C8
:100720002F49F8697E23D2B25B4208704A708A7002
:10073000CB7001205223BA690B7106F02BFA06F038
:10074000FFF80B2845D1002004F0A8FC224B1968C3
:10075000224B08681C687B6AF86143439A003A623E
:100760009A07D21A3A617B61844666464A68013E1E
:10077000B446D5D3654655437E691A48B318121856
:100780005219BE6938695200B2182D18FE68AD00C2
:1007900075199B003D603E6AB3420ED03D68E81873
:1007A000656904380668E858301A0025565F8642A5
:1007B00000DA1080043B023AEDE7BD6876193E622C
:1007C0007D6A7E69761B7E617D683E6976193E6131
:1007D000CBE7BD460BB0F0BDF802002000000020C2
:1007E000B8030020FFFFFF7F08B502F0FDFA021EEC
:1007F00005D10749A9230B7106F0CCF9FEE7054B9B
:100800001B6803CB03F06EFFFFF778FE08BDC04600
:10081000BF030020F8020020104B00221B6810B517
:10082000191C88310A601C1C01219C344942181C87
:100830002160A2600830083CE18222606283C267C6
:1008400090300160826008380183191CAC3102606D
:1008500020390A8404330A60DA6710BD00000020E2
:10086000F0B585B000AFB960386004F0A3FD830037
:100870000A33DB08DB00041C6846C01A854604F016
:100880009FFD63000833DB08DB006E46F11A8D46DE
:100890006D46281C7D6004F0ADFD4D4B1B68191C96
:1008A00088310868632807DD0120002240420A6081
:1008B0004861CA61191DCA67191C883108681A1C69
:1008C000013008320860D16F63290CDD01204042FD
:1008D0008446181C002198306546D1678160056008
:1008E000191D0120C867D16F0131D1671A1C9432DC
:1008F000106801280BDD012040428446181C0021AD
:10090000AA30654611601E38C583418401601168B4
:1009100001311160191C90310868012809DD00229D
:1009200001200A608A8340421A1C08838C3201210C
:1009300011601A1C90321168013111600022101CE4
:10094000013C07D3A10071587D6840186100695AC5
:100950005218F5E7191CAA310024A4251E19AC462B
:10096000B444FE6066463668864201D26546286019
:10097000FD689C352E68864200D928608D88954296
:1009800000D28A800D88954200D90A80043C251C3B
:1009900002390835E1D11A1DD26F3E6892009A18CB
:1009A000111CA031983209681268BD688A1A328019
:1009B0001A1C8C321268BD4652009B181A1CAC32AD
:1009C000A83312881B88D31A2B8005B0F0BDC0460F
:1009D00000000020F0B5234F1D1C3B68161CDA6890
:1009E00085B0019192000021041C301C08F0CEFB60
:1009F0003B68281C1A690021920008F0C7FB019F80
:100A0000002F0CD0201C04F049FB174B301C1B6836
:100A1000291C5A69DB6906F0CFFA013FF0E7002C88
:100A20000FD1114B1B685F699B69029304F0E6F9D3
:100A3000039004F0EDF90299031C039A381C06F0A8
:100A4000CFF9301C291C019A06F02CFB002C06D192
:100A5000054B201C1D6804F047FCEC35286005B0F0
:100A6000F0BDC046F802002000000020F0B5274D80
:100A700087B02B680591DA6900219200039008F095
:100A800085FB06F09BF904904478002C25D00420C7
:100A900004F004FB286842690292029B013B019327
:100AA00019D383690199039E5943C91889007118A4
:100AB0000439013B0DD38668029F7E439E19059F32
:100AC0000136B600F2590E689446B44467460F608A
:100AD000EEE7019AE0E7013CD7E72F687D69013D29
:100AE00011D3BC69039A261C6E433619B6009619B9
:100AF000043E013CF3D3049B30685978FFF7DAFADF
:100B000000043060F4E707B0F0BDC046F8020020F2
:100B100030B5214D85B02B681A1CCC321178583A6B
:100B2000002904D1191CB0310978002901D0002115
:100B300011701478002C1DD0996F002001915A6B10
:100B400016490292DB6A01AA039303234B707C23AC
:100B50005B42CB7010230B7106F01CF82B6800244D
:100B60009A6FD96F8A4202DC01329A6710E09C6763
:100B700001240DE05A6BDB6A0949019202930920B6
:100B8000642301AA0B71039406F004F82B689C6798
:100B9000201C05B030BDC04600000020040100202C
:100BA0000B010020F0B58FB004AF7960BA617B61B2
:100BB000B86006F003F9934B69461B6838611C68FE
:100BC000F96104346400221C0832D208D200881A69
:100BD0005A68854604325200131C0833DB08DB00D8
:100BE000C01A04AE854604AD281C002108F0CEFAD8
:100BF000221C301C002108F0C9FA834CB868236815
:100C00005A69191C9B690090301D0190281D0290A3
:100C10002C31B86903F018F83A69F8602368127B40
:100C20005869191C01960295009268312C33BA69F3
:100C300003F07AF9FB6978689D462368DA69191C24
:100C40001B6A00902C31786902F074FFFE6806433D
:100C5000F6B23E6106F0BEF8051C06F0C3FB2D7926
:100C6000012D0AD19C300368002B06D105F086FEC9
:100C7000012802D0281C03F04FFE2568281C291CDF
:100C800068312C3003F02AF9604A23681268E8665C
:100C90000C20115E986D88420EDC0E20115ED86D1E
:100CA000884209DB1020115E186E884204DC122194
:100CB000525E5B6E934221DA00233B8420220123A3
:100CC000D35505F069FE002818D105F041FE002833
:100CD00014D04D4B1A68FF239168FE2901DC9368FC
:100CE000DBB22120C355381C0221203005F0F0FE74
:100CF000474804F01FFC03F011FDE2E7414E45496F
:100D0000336802241A6858680A709A68CB78487069
:100D10007F20834380256D4223432B43CB70532395
:100D20008A700B710132BB6952009A18012005F0DC
:100D300031FF336838491B697F204B70CB787A6963
:100D4000834323432B43CB7001206D230B7105F0AC
:100D500021FF336820211A682120CA555968C155DE
:100D60009A682220C255591DC97F2320C1551B698D
:100D700025202421CB55C35D7F218B4323431D4375
:100D80000132C319B869520082181D70391C0092D3
:100D9000002201202031131C05F0C2FE01F0D8FF13
:100DA00001F0F4FFFFF7B4FE002827D1164C2368AA
:100DB000586904F019FA2368D86E04F075F903F045
:100DC00079FF396900290DD12368B9691A1C2C32C1
:100DD0001B68B86806F06CF8236878681A68796947
:100DE00006F0BAF8022003F0C5FD786906F092FB20
:100DF0002068703007F0ACFA002000E0201CBD46EF
:100E00000BB0F0BDF802002000000020900C002084
:100E100010270000B803002004010020F0B5940062
:100E2000231C0A3385B0DB08DB006946C91A02AF10
:100E30008D4602AA061C7A60101C0021221C08F0B4
:100E4000A5F9231C0833DB08DB006946C91A8D4667
:100E500002AD281C221C002108F098F90C4C301C13
:100E60002368996A5A6A683300910193291C7B6848
:100E700007F090FA301C01F0E9FF2368301C5A6A31
:100E80009B6A291C00937B6806F0D8FCBD46F7BD21
:100E90000000002070B50C1C151C1E1C06F018FF6D
:100EA000144B201C1B68596A9A6A07F017F8201C1B
:100EB00007F022FC201C07F00DF9321C201C291C15
:100EC00007F0C4F9201C291C02F09CFD05F082FFEC
:100ED000041C06F087FA8E300378002B09D12379A1
:100EE000002B06D005F04AFD012802D0012003F0B6
:100EF00013FD70BD0000002038B508F02DF8051C6A
:100F0000012008F03DF8041C281C03F0DFFA201C27
:100F100003F0E8FA38BD38B508F0D2F808F024F844
:100F2000051C002008F02CF8041C281C03F0CEFA45
:100F3000002004F003F9201C03F0D4FA03F0CEFCE7
:100F400038BD10B5A4B08C22041C002101A808F003
:100F50001DF901A8211C07F0B5F907F0DDF901A87A
:100F6000211C01F0D9FF24B010BD000038B506F0F7
:100F700039FA294C8E30236801781A79002902D178
:100F800051B2481C04D10025DD60AA420DD116E003
:100F9000D8681A69904202DAD8680130D86001290D
:100FA0000DD0DB6893420ADB01251C4900202B1C75
:100FB0000E33021C0B7105F0EDFD23681D712368D3
:100FC0001A79002A03D1164A1268127804E0012A1D
:100FD00003D1134A126852781A60186804F086FA2E
:100FE0002368051CEC33186804F0A4FA2D1A002DB0
:100FF0000BDD2368186804F079FA2368051CEC33CC
:10100000186804F097FA281A00E0012003F084FC25
:1010100003F0A4FC38BDC04600000020BF03002040
:10102000900C002008B505F0A9FC002802D1022090
:1010300004F00CF808BD0000F0B589B0061C05F0FE
:10104000C9FE059006F0CEF9031C98331A68A14B2F
:10105000002A08D1A0300268511E8A41D2B20492FF
:10106000002A06D001E0012004901A680021B8325D
:1010700005E01A68B8321168FE2901DC01311160FF
:101080001B6800211A1CB43211700499002904D085
:1010900091490968097D00295AD0181CB33001789C
:1010A000C9B2002908D003785BB2022B00D001231B
:1010B00013700023037070E11D1CB0352C78002CD8
:1010C00009D0012414701A1CB132BC33017029708C
:1010D0001170196062E10498002839D1191CBC31E3
:1010E0000C68002C09DD013C012C01D00C602FE0C4
:1010F000049B0B600323137050E11A1CE832126842
:101100001188764A914223D01A1CC8321188744A39
:10111000126852888A421BD86F4C2068427C181C87
:10112000B8300068904213DB07AA1180CA331B88CD
:101130006C49538002234B70CB70049815230B71BC
:1011400005F028FD634B22681B68927CBC331A6053
:10115000614C2768F87C002800D01EE104995D4DA1
:10116000002900D082E02C68231CE7331B78002B79
:1011700056D03B1C2C331B78002B51D0231C0791DD
:10118000DC331B680393231CC83303981A8843007D
:101190009A533B1C2D33197804984B00F618031C06
:1011A000994206D05A00B21A023A128801338018C6
:1011B000F6E7FEF7CDFF0790FA8B231CE033904251
:1011C00002DA1A68013200E000221A603A1C2E325C
:1011D00012781B68934215DD42497C235B42CB7039
:1011E00007AA1623012400200B714C7005F0D2FCD5
:1011F0002B6800201A1CDC32E0331060186005F008
:101200000BFDCBE03B1C2D331A780399231C013ACC
:10121000DC33914202DA0A1C013200E000221A603B
:10122000C4340137FB7F22689A4217DB2E49002025
:101230001223021C0B7105F0ADFC2A682648131C12
:10124000C03319680068013119600230C07F8142E3
:1012500004DB00211960B432022313702A680023D2
:10126000111CB231C4320B70136047E02B681A1C9A
:10127000BC3210602A321278002A3FD0191CC831C3
:10128000098807AA1180CA331B8816495380022394
:101290004B70CB7019230B7105F07CFC2B68226816
:1012A000191CC8310C88D08B163984421ED2181CE8
:1012B000CA300488508D844218D2097800291DD183
:1012C000C43301321968D27F914217DA01311960B3
:1012D00014E0C046000000208C0C0020FFFF00003E
:1012E000900C002004010020BF03002001220A709E
:1012F000191C0022C431C0330A601A60294D2B68C2
:101300001A1CE6321278002A47D105980279002A81
:1013100041D01A1CB0321478002C3ED1224ED86A2B
:101320003768798BBA8BFB8A3F8B009705F00AFDF3
:1013300036682B68718CB28C071CD86AF38C368D9A
:10134000009605F0FFFC2B681A1CC8321188CA33BE
:10135000B94202DA1A88824210DB07AA11801B8880
:101360001249538002234B70CB70002017230B715E
:1013700005F010FC2B680122B1331A702B681A1C7F
:10138000B1321278002A08D00499002905D0B03370
:1013900001221A7002E0B1331A700124201C09B036
:1013A000F0BDC046000000208C0C0020040100208D
:1013B000F0B591B002AF03F083F8061C03F098F883
:1013C000386103F089F8B04BB8601C686846E36880
:1013D00000211A1C0E32D208D200801A22698546DA
:1013E0000E32D208D200801A02AD8546FD6102ADF0
:1013F0007D6272799A18131C0E33DB08DB00C01A69
:1014000053000E33DB08DB008546C01A02AD85466B
:10141000C01ABD6102AD854602A87861B86907F0BF
:10142000B5FEE1687279281C521801215200494228
:1014300007F0ACFEE36872799449D21852007869DB
:1014400007F0A4FEE2683969F8693D6307F05CFEC5
:1014500039692269BA31FF31786A4024002507F0E2
:1014600053FEFC603D62796AF86904F001FF0320D5
:1014700003F014FE844D86492B68864C5A68186820
:101480004A709A680423CB7051230B7123688A70C9
:101490005B690132920008709A18022005F07AFB0D
:1014A0002B687D491B6904254B705A230B712368F7
:1014B0000220DA69CD7005F06DFBB479013C631C44
:1014C0002CD07579013D6A1CF8D073797869634333
:1014D000EB185B001A5A714B9A42F3D0B96930226B
:1014E0007960F9627863D219694609CA09C1211C79
:1014F0007B68F8692A1CFFF72FF8002803D03B6AA5
:1015000001339BB23B627379BA6963433869EB1864
:10151000D15CC25C8A18F969CA54D3E7F479013CFA
:10152000601C2FD0B17973797D694B43E3185B0060
:101530005A5B5A4B9A42F2D0BD6930207D60FD6201
:10154000C0197D6984467D636846624628CA28C002
:10155000221C7B68786AFEF7FFFF002803D03B6AF5
:1015600001339BB23B627379B279BD695A432B193F
:101570003D699A5C2919BA31FF310B787D6AD3181D
:101580002B55CCE7404B3C6A1B68DA681B69D318C3
:101590009C4206DAFB68013BDBB2FB60002B00D00B
:1015A00061E73B4CB3797F252370737980206370AA
:1015B000A370E3784042AB4301252B430343E37020
:1015C0000820D223211CFA69237105F0E3FA32497D
:1015D000F3797F224B70CB78082093431D438023FF
:1015E0005B421D437A6AD323CD700B7105F0D2FAAA
:1015F000B379251C013B0FD37279013AFAD3717983
:10160000FC69594389186118BC68E01864300C788B
:10161000007820180870F0E7F379013B08D3BC6824
:10162000E2187C6A7C321178E25C8A18E254F4E7B2
:10163000F869796A04F01CFEB3797F202B70737906
:1016400001216B70AB70EB78802483430B436442C1
:101650002343EB70291C1D23FA6908202B7105F028
:1016600099FA0D49F3797F224B70CB78012593438A
:101670001D432C431E2308207A6ACC700B7105F0A1
:1016800089FABD460FB0F0BDF8020020FFFF000050
:10169000B80300200000002004010020FEFF00002D
:1016A00008B502F019FF58300378002B02D1FFF77C
:1016B0007FFE01E003F0E8FE08BD0000F0B591B048
:1016C00002AF05F03DF9041C07F090FC07F0BEFCEA
:1016D00001F03AFBFFF788F805F032F9061E062EF6
:1016E00000D1C6E0062813D8022800D17EE005D834
:1016F000002823D001286CD0341CEDE7042800D149
:10170000A5E000D9ACE005F077F9FFF7C9FF99E053
:10171000092800D1CBE007D8072800D1B3E008287A
:10172000EAD105F069F9B8E00B2800D195E100D2C3
:10173000CFE00C28E0D105F05FF997E105F01EF944
:10174000002812D00128D7D1CB4D02222B6819696D
:10175000186AB961C949F8611A621E61301C3F23D9
:10176000321C0B7105F016FA22E00125012D02D082
:10177000022D0AD00FE0002000F084F903F0BAFA3D
:10178000C0B205F055FAFFF78BFF0020211C021CA8
:1017900000F048FE051C05F0F1F80028ACD105F07A
:1017A000CFF80028E2D0A7E705F0CAF800280AD150
:1017B000FFF776FF211C0122002000F005FF05F055
:1017C000DDF80128F0D02B68FC691C62BC691C6143
:1017D00092E705F011F905F0B3F80128FBD007F006
:1017E000E3FBFFF701F804F09BFF85E7FFF784FBBD
:1017F00005F06CF8002003F0A1FC03F069FCFEF793
:101800007DFEFFF74DFF05F0F7F805F0FFF804281F
:101810000CD004D800280ED001F0BAF80BE005284F
:1018200007D0062807D103F059F804E004F0B6FD0C
:1018300001E003F041F805F083F80228E5D0FFF756
:101840006AFB59E705F07CF80328FBD054E705F064
:10185000D3F801F09BF805F073F80428FBD04BE7B0
:1018600005F0CAF803F054FD05F06AF80528FBD02E
:1018700042E705F0C1F8022000F004F905F060F835
:101880000628FBD038E705F0B7F8012000F0FAF899
:1018900005F056F80728FBD02EE7002003F0FEFBEA
:1018A00003F05AFC05F04CF80828F6D024E705F0C0
:1018B000A3F8002002F008FF002003F0EFFB03F084
:1018C0004BFC05F03DF80928F6D0012002F0FCFEA3
:1018D00012E76C4600203C6107F0ECFB07F0B6FB1A
:1018E000002003F02BFC644C694623685D6818688F
:1018F0001B694543EB180733DB08DB00C91A8D462B
:1019000002AAFA6102F0DCFD02F0F2FD02F0E4FD51
:10191000FB695D19181C291C7D6103F083FD236898
:101920006C465A681B69D3189B000A33DB08DB003E
:10193000E41AA54602ACBC6105F05EF84E4C2020CE
:10194000236819681A79C15521202221C255CA5528
:101950005A1DD27F1B6923202421C255CB55252235
:101960000123D355FB690022391C00930420131C6A
:10197000203105F0D5F87969F86904F079FC002088
:1019800003F08CFB23683E485C6805687C6000219E
:1019900039603A687C68A24208DA3A68A96992001C
:1019A0008958BC69A15039680131F1E7A200BC69CE
:1019B0001969A41805683960A44600223868824273
:1019C00006DA296A90000958644621500132F5E789
:1019D0001A682821CA5578689A6829242A21E0556E
:1019E000CA550533DB7F2B24E35504242D233968A6
:1019F000DC55234B01321B6892005B692C209A183E
:101A0000C1550092391C0022131C0220283105F018
:101A100087F801233020C355174B31211B68322032
:101A20001A79CA55C2555A1DD27F1B693321CA552E
:101A30003422D3553523DC55BC690022391C1020D3
:101A40003031131C009405F06BF804F079FF0A287C
:101A500000D173E73C69A5464EE604F0CDFFFEF7E2
:101A600003FE04F06DFF0B28F9D045E604F068FF93
:101A70000C28FBD040E6C046F8020020BF0300203F
:101A800000000020F0B5DA4C9DB0236800AF9B68E1
:101A900038637B625B000133BB6503F01FF9236889
:101AA000FF229B687866D31A984200DD7B66786EC9
:101AB0007C6A041B3C626C4603F016F97C65BC6DC5
:101AC000684665002B1C0833DB08CA4CDB00C01AD3
:101AD000012363707C235B423A1C8546E370211C22
:101AE000B1230020643223716E4605F053F80023C1
:101AF000211CBC6DA34205DA3C6A5A001819B05289
:101B00000133F6E70223CB70321CE4B263230020DA
:101B10004C700B713C6405F03DF82B1C7C6D083358
:101B2000A546DB08DB006846C01A8546C01A6C462D
:101B300085467C65F86303F03DFCB861012002F046
:101B40007BFF00212A1CF86B07F020FB786D002139
:101B50002A1C07F01BFBBC6D6846A400231C0A333B
:101B6000DB08DB00C01A8546C01AFC6178636C464E
:101B70008546C01A8546BC636C467C61BC69A4007E
:101B8000BC600024BC640021FA69B86B07F0FEFA5F
:101B9000786BFF21FA6907F0F9FA0024944BFC6591
:101BA0001B68FC6D5B689C4251DA3C6A0026E4B21B
:101BB000201C7C6403F0A3F803F070F802F032FFFD
:101BC0007C697D6B3C61BC6BB86D0136F217C30F4D
:101BD00086425341DBB2FB62002B06D1796C881937
:101BE000C0B203F08CF803F059F86B46FB60BB6899
:101BF0006A460A33DB08DB00D01A85466A46FA6477
:101C000003F0DEFB0020031CBA69934205DAF96C8D
:101C10009A008A5801338018F6E72368984200D961
:101C200020602968884200D2286002F0EFFE3A69FD
:101C3000043501C23A61FB68F86A9D460434002805
:101C400002D102F0EFFEBFE7FC6D0134A6E70024ED
:101C5000694DFC65BB6D9C4217DAB96B7A6BA300CA
:101C6000C858D358C01A854204DD3B6A051CE318E6
:101C7000BB623C65F96D814200DAF86502F0C6FE90
:101C80007A6D6300D0520134E4E7F86D02F0BEFED5
:101C9000574B1B685B88984206DA3C6B012C03D0DB
:101CA0007C6EBC627C6A3C65544D00262C683222F6
:101CB000231DDE670433DA67803364221A60396DCE
:101CC00001220220DA607A6B81408A5898605E6057
:101CD000101C7A60796402F099FE98347B6CB96BC1
:101CE000206058582C6802F091FE2B68A0342060C8
:101CF0001A1C01213C6BAA324942AE3311801E806E
:101D0000012C22D1FA6B331CBC6DA34209DA7C6D25
:101D10005900615A1088884200D211800133023282
:101D2000F2E73C6D6300FC6B1A5BBC6C131CA242B7
:101D300000D2231C2F499BB23C6CBB6400200223C1
:101D40004C70CB700871FA6B19E0386B294C022883
:101D500008D1396C04236170E3702671301C211C9A
:101D60007A6926E0F86D02F051FE3A6C80B262703A
:101D700002237A6DB864E3702671301C211C04F0D4
:101D800009FF386D6824E053BC6A6A21CC537C6D2E
:101D900043001B5BBC6C6E216C20CC531549C353B4
:101DA00004234B700223CB703A1CB2230B7100202A
:101DB000683204F0EFFE3C6D63007C6D1B5B0F4CE2
:101DC0002268111CE83109680988994223D207F07A
:101DD00077F9051C07F0DCF80378061C002B0FD000
:101DE000012004F019FF23680236E8331E6023E067
:101DF000900C002004010020FFFFFF7F0000002066
:101E0000002D19D1174B1B68DB7C002B14D101204E
:101E100004F0F6FE10E0E7321278002A0CD0124DE2
:101E2000286842889A4207D9002004F0F5FE23680A
:101E30002A68E83302321A603C6B002C06D1BC6A77
:101E4000E0B202F05CFFBD461DB0F0BD04F078FDCD
:101E5000072800D197E604F073FD062800D192E62A
:101E6000EDE7C0468C0C0020900C0020F0B585B04A
:101E700000920391029007F023F9061C04F09CFDE8
:101E8000071C04F0A1FD734D01902B681A1CE4326D
:101E90001278BA4220D0002F08D06F4900203B238F
:101EA000021C0B71022604F075FE10E001993C1C27
:101EB00000290DD168493C23381C3A1C0B7104F0F1
:101EC00069FE2B68E6331E78731E9E41F6B201242C
:101ED0002B68E4331F701DE01A1CE532127801995B
:101EE0008A4216D0002906D1E6331E78731E9E4121
:101EF000F6B23A2301E03923022657490020021C9A
:101F00000B7104F047FE2B68019AE5331A70012427
:101F100000E0002404F024FD071C04F045FD009BB4
:101F2000032B02D0002F03D107E00124002F36D06D
:101F3000002004F01DFD012431E02B68E4331F88EC
:101F4000002F2CD10099012902D0022904D00EE0E3
:101F5000009804F055FE0AE0381C04F051FE2B688E
:101F6000E7331B78002B02D0381C04F055FE04F038
:101F700041FE2B68071CE6331B7883420FD00028F4
:101F800002D01123012601E01223061C3249002051
:101F9000021C0B7104F0FEFD2B68E6331F7007F086
:101FA0008FF8B04239D007F08BF806F0DDFF071C40
:101FB000301C06F0D9FF009007F082F8301C07F0C3
:101FC00079F807F043F8254B1B681B7D002B10D0D8
:101FD000012C0ED0009B3A1C5B325B3303990298B4
:101FE00005F024F8002003F059F80024FEF714FC53
:101FF00006E02B680020CC33187003F09FF8012412
:10200000002004F009FE2B6800211A1CE732117031
:10201000134AE833126802321A6007F051F806F0EA
:10202000B7FF0378002B08D004F0F0FD2B68E733EE
:102030001A78824201D01870012404F0CDFC051CEE
:1020400005F0D0F90379AB4200D00571201C05B032
:10205000F0BDC04600000020BF0300208C0C002013
:10206000900C0020F7B5434C151C236801911A1CF5
:10207000B1321278061C002A23D01A1CE6321278DC
:10208000002A1ED11A1CCC321178002919D1B03384
:102090001B78002B15D10123137002F01DFA071CC9
:1020A00002F00EFA3A1C031C5B324533301C0199D6
:1020B00004F0BCFF02F0BEFF022002F0C7FFFEF7F3
:1020C000ABFB23681A1CCC321278002A4FD01A1CA2
:1020D000294F0020B03210703A680190126A011C3A
:1020E000013A0ED30E265643B446AC446646B68833
:1020F000002EF5D036B20131B042F1DA301C019237
:10210000EEE71A1CE6321278002A13D1012911DDFC
:1021100005F068F90123983003603B681B6A013BB6
:102120000AD3019EB342FAD00E225A430021AA18C4
:102130009180F4E7002904D023680022D4331A6088
:1021400008E01A1CD432D03311681B68994201DCB4
:10215000013111602368191C1A1CD431D03209686E
:102160001268914205DDB03301221A7001E0D433C8
:102170001A60F7BD00000020F8020020F0B5A14C65
:1021800091B002AFFA612268FB60136892689D1CEF
:10219000520055437960694639605208291C013361
:1021A00053430831C908984EB860C9006846401AC0
:1021B00085460133306802A95B00CB18B9613C2227
:1021C00000212C307B6106F0E1FF2A1C0021B86958
:1021D00006F0DCFF8D490020A623021C0B7104F0E1
:1021E000D9FCFEF7C3FE3168081CC830CA31FEF7BF
:1021F00037FB2368864D5B6804226B705B232B7171
:102200003368EA70291C9A69022004F0C3FC236831
:10221000291C1B6902206B700423EB706C232B714B
:10222000336800251A6A04F0B5FC336879491A1C32
:10223000C8321288CA33FA621B883A1C3B630C20EE
:1022400001232C320B717D6304F0A4FC236824204D
:1022500019682522C15558682621D0559A6827202B
:10226000CA55591DC97F1B69C1552821CB5504206A
:102270002923D855336801325B6992009A18391CBA
:102280000092022024312A1C2B1C04F049FCB8685F
:102290007968BA697B69FEF785FCB861A84200D00D
:1022A0008DE026686A46F36A3A611A01131C083306
:1022B0006946C81A854602ADB969281C06F066FF52
:1022C000F26A281CF969FEF7A9FD236869469A6A33
:1022D0000E235A43131C0833DB08DB00C91A8D4652
:1022E00002ACB969201C06F051FFFB68281C211CB8
:1022F000FA69FEF7CFFD386DFEF79EFE464B1B6870
:102300001B7D002B04D1B8687968221CFFF7AAFE58
:10231000201CF96900F08EFF201CF96900F0FCFD1B
:1023200006F038FB83000733DB08DB006A46D21A6D
:10233000954602ABFB60334B061C1D680E22A86A53
:102340007E61031C013B5343E418F8610434F869CF
:102350000138F8610FD30021635E002B09DD7A6933
:10236000FB68013A90007A611818211D042206F0DA
:10237000CBFE0E3CEBE72A682C21CA5568682D235A
:10238000D855AB682E21CB550535EA7F2F20C25595
:1023900030210022CA551C49013309687E22896A0E
:1023A0005B00CB1852423120C255391C00932C31AE
:1023B000F2B20320FB6804F0B3FB39698D463A683A
:1023C000954602F015FD02F035FE02F0FDFA0120FF
:1023D00002F064FE02F038FC0B4BB4221B68B868B4
:1023E0009A567968FFF742FD002800D1B8690B4B77
:1023F0001A680B4B9A4202D002F08AFFFEE7BD46F4
:102400000FB0F0BDF802002000000020BF03002044
:10241000040100200B0100208C0C0020C40C0020C3
:10242000CDCDCDCDF0B5494C8BB0236802AF1D6842
:10243000B96059687A604D430A229A621022DA62C2
:102440001B696A46EB189B000A33DB08DB00D21AD3
:10245000954602ABF860BB6104F0CAFF2368694689
:102460009C6AAD00E200131C0833C91A8D4602AB0A
:10247000A400FB61231C0833DB08DB00C91A8D466E
:1024800002A93961F869002106F080FE221C0021B2
:10249000386906F07BFE2E4E002433686946F0331F
:1024A0001C702C4B1B682D331A785200131C0833F8
:1024B000DB08DB00C91A8D4602AB181C211C7B61AE
:1024C00006F064FE04F07AFCB969BA694D192B1C58
:1024D0004178201CFEF77EFABA68FB689A4201D068
:1024E00004F08AFA33689C6004F09CFB041C02F040
:1024F00001FCA04204D0201C02F001FC02241DE0DB
:1025000079690091FA69291C3B69B869FFF736FEC1
:102510000F4B114A1B68041C9968914202D09A68BB
:1025200001329A60002809D104F028FA7A689042B2
:1025300004D104F005FAFB689842D5D0F869FEF79B
:1025400000FD201CBD4609B0F0BDC046F8020020C9
:10255000000000208C0C0020FFFFFF7F184BF0B51F
:102560001B6885B01E689B68B41C5B005C4300AFB1
:10257000221C5B08FB600832124BD208B8607960FD
:102580001868D2006946891A8D463C2200212C30F9
:1025900006F0FCFD221C6846002106F0F7FDFA68F3
:1025A000731C534301336D465B006A46EB18B868F1
:1025B0007968FEF7F7FABD46C0B205B0F0BDC04677
:1025C000F802002000000020F0B5B74EE9B03368F3
:1025D00002AF1D68F961596805244D437A600222F3
:1025E0009A62DC621B69B860EB1893400A33DB081F
:1025F000DB006A46D21A954602ABBB6101F07EFF52
:1026000004F0F6FE381C00211022483006F0BEFD12
:102610000023BB63FB63336869469A695B69AD005D
:1026200053439B000A33DB08DB00C91A8D463B1C71
:1026300002AA58337A613B6404F0C0FB061C03F025
:1026400039F9BB69201C5D193D611A1C71782B1C7E
:10265000FEF7C0F903F08EFC944C78692368596941
:10266000FEF704FAF969BA68914201D004F0C4F99E
:102670008F490020A223021C0B7104F08BFA2368FF
:1026800000249C60FC617C6204F0CCFA386202F0A9
:1026900031FB3B6A984204D0181C02F030FB022642
:1026A00064E1002C72D1804B6A461B68FA609A691B
:1026B00051005A6901324A43131C0833DB08DB001E
:1026C0006946C91A8D4602AE301C211C06F05EFD1B
:1026D0007A6A764D082A08D103F04CFC2B68786999
:1026E0005969FEF7C3F97C624CE0042002F0D6FC85
:1026F0002B68301C59697A6904F030FD051E012DE4
:102700000FD103F0D7F8052002F0C8FC6849A323D5
:10271000201C221C0B7104F03DFA00232C1C7B6250
:1027200030E0644D311C2B68786933331A7804F03B
:10273000D9FD2B68F96933331B785B0099420ADDB8
:1027400003F0B8F805200121BA693B69FEF742F9A8
:1027500003F010FCFC61FA692B680132FA61323334
:10276000187802F0CCFA02F0E1FA2B6833331878CB
:1027700002F0DEF8002002F0FDF8386A02F0BFFA3D
:1027800002F0F8FAFB6800269D46D9E0494B012487
:102790001B6834331878454B1B68186002F0C8F882
:1027A000052002F053FCB8693969FFF7D7FE061E11
:1027B00000D0C5E03C4D6A462C68FA60E36A694681
:1027C0001A01131C0833C91A8D4602AB181C311CA0
:1027D0003B6206F0DBFC391CE26A386A4831FEF7DE
:1027E0001DFB2B6869469A6A0E235A43131C083353
:1027F000DB08DB00C91A8D4602AD311C281C06F02F
:10280000C5FC3A1C3B1C48323833386A291CFEF799
:1028100041FBA91C281C06F015F8281C291C0E30A9
:10282000103106F00FF8391C281C40317A6A06F086
:10283000D9F87862032803D007282BD1182405E0A3
:10284000381C403006F026FB041E26D004F09EF80B
:10285000184B1B689B6B18400123A340034219D0FF
:102860002C2302212D22D819D955D45504F030F942
:1028700002F0E0FB012002F04FF80D490020A223F6
:10288000021C0B7104F086F903F074FB082300248A
:102890007B6253E0796A08290ED002F0CBFB012459
:1028A00002F0A6FA4AE0C046F8020020000000202C
:1028B000BF0300208C0C002004F096F800282ED0D6
:1028C0000224381C221C2D492C3006F01DFC381C1B
:1028D000211C2C3004F0FCF8052004F01BF94422E4
:1028E000D35D3021CB553223DC55312200233321F7
:1028F000D455CB5534223521D355CA5D7F218A4327
:1029000014438022524214433522D4553A1C583283
:10291000391C0092052030311A1C04F001F902F034
:1029200089FB012001F0F8FF15490020A223021CB9
:102930000B7104F02FF903F01DFB0024F9688D469C
:10294000104B114A1B689968914202D09A68013273
:102950009A60002E0AD104F011F87A68904205D1ED
:1029600003F0EEFFBB68984200D18DE602F062FBF7
:1029700002F0A0FF301CBD4667B0F0BDC89100005A
:10298000BF03002000000020FFFFFF7F7047000012
:10299000F0B5D74D9BB02B6800AF5C68061C3C645B
:1029A000640018687C653C6C604302195100083172
:1029B000C908C900F8636846401A8546F8623C6C4D
:1029C00090000A30A400C0087C63C0006C46073247
:1029D000241AD208601AD200A5468546801A3C65A2
:1029E000DA686C4600218546BC63386206F0CEFB8F
:1029F0002B68F86B1A690021684406F0C7FB2B6846
:102A00000021DA68386D920006F0C0FB2B68F86B85
:102A10001A69396D840092000819002106F0B6FB8E
:102A20002B68B449DA68B86B520006F0AFFBFA6B5A
:102A3000B96B50004308FB612B6808181A69AD494F
:102A4000520006F0A3FBFDF741FD022E05D0032E38
:102A500005D02F30012E05D102E0303000E03130BA
:102A6000007878647D6BAD08BD617D6D6D08BD62D9
:102A70007D6C013D7D633D6D2C197C62FC69FD6AB6
:102A80006300EB187B617D6B994C013500D1C1E08F
:102A9000002002F003FB984B25681B686C683B63C1
:102AA000013C64D3A0002B68B864591E7965F7D344
:102AB000A9683A6B4B43E318013352699B0098585D
:102AC000022E0CD0032E24D0012E4ED13B6BB96CBC
:102AD0009B69FB605B58C01AC343DB1718407A6DD3
:102AE000BB69396D5343E3189B0059583A6D401840
:102AF00098507B6B002B38D1796DBB6A4B43E31840
:102B00005B00796CFB64FDF7D5FAFA6CFB6AD05276
:102B10002BE0796DBA694A43A31899003B6DC958F7
:102B2000031E8B4200D20B1C396DA2189200535029
:102B3000796DBA6A4A43A1189446BA6B4900895A1A
:102B4000884200DD081C61466218B96B5200505281
:102B500080B21B1A7F22FD2B01D85B08DAB23B6AD8
:102B6000786D19193B6C4343CA547B6D9DE72D6901
:102B7000614B7D651D687B6DFA69013B9C00B86BFC
:102B80009B185B00C3183B637A6D013A7A653DD3AD
:102B9000E9690859022E09D0032E17D0012E30D131
:102BA0002A6A1359C01AC343DB1718407B6A796A33
:102BB0001B597A6BC0180851002A22D1796CFDF795
:102BC00079FA796D7A694B00D0521AE07B6A1A590A
:102BD000031E934200D2131C796A0B51396B0A8889
:102BE000904200DD101C3A6B108080B21B1A7F22CD
:102BF000FD2B01D85B08DAB2386AF96B4318786D9F
:102C00001A54396B043C02393963BDE77C6B013CD3
:102C10007C6338E7FD6A7D64022E06D0032E61D006
:102C2000012E6DD100F0DCF86AE001F049FC381C9F
:102C300032491022583006F067FA02F051FC216840
:102C40002D4B0E683864BD6A1868331C013B5D4328
:102C50003E6584467D653E6D013E3E6522D34B68F0
:102C60007E6DFD6AF01840005E002818FE630022A9
:102C7000023A013B11D33D6CFE6B6D00FD6465466D
:102C8000AD69B618BE6476007659FD6C5835ED5BBB
:102C9000AE1B855A75198552EAE77E6DBD6A761BB3
:102CA0007E65D8E70B69FE69134AF118FE6A490090
:102CB00058001568711878650022023A013B0ED35E
:102CC0007E6DB0182E6A400080598E5A361AB4466E
:102CD0003E6C70005830C05B60448852EDE700F0F5
:102CE00080F80DE03D6A7D6400F07CF8012308E087
:102CF000F8020020FFFF000000000020CA91000041
:102D000002232268582610685924F05511795A2553
:102D1000E155E955511DC97F5B26F15512695C20CB
:102D20005D21C255CA5D7F218A43134380225242EE
:102D3000381C134358305D22796CD35503F06EFE76
:102D4000BD461BB0F0BDC04608B503F055FD08BD3B
:102D50000C4B10B51B68DA6A002A03DD596B521858
:102D6000D10F0BE000218A4208D1074909681424D9
:102D7000085F5C6B0121844200DB111C7433197005
:102D800010BDC04600000020900C002010B504F0DB
:102D900013FB124B1B68D96A1A1CF032002915DD8F
:102DA000041CE8342488A14210DA6424E63061432C
:102DB00000885C6B6043C14208D5191CE631097874
:102DC000002901D1012100E0002111701278002AB0
:102DD00002D0743300221A7010BDC04600000020DB
:102DE000704770477047000008B502F071F901F0B4
:102DF000A5FC01F03FFC01F0F3FB0F4B1B681A7AB6
:102E00000E4B1B689433002A01D0022200E00322FB
:102E10000B491A6000230B700A49A0220B700A4963
:102E2000D2050B709363D36B3F218B43D36362B6A0
:102E300002F0CCFF08BDC0469C0C0020FC00002026
:102E400029000050280000502A00005038B5041C0A
:102E5000FDF74EFB051C04F0AFFA291CF0310B788E
:102E6000002B24D0124B00221B68DB6A013B07D3E6
:102E7000180120180825405F0028F7D10122F5E746
:102E80000C4B1B68D86A002811D15D6B002D0ED148
:102E9000F433002A0AD01A68FE2A01DC01321A60D3
:102EA0001B68052B03DD00230B7000E01A6038BDA2
:102EB000F80200200000002070B5051C0C1C161C38
:102EC00003F0CEFD002802D001280AD023E00E2016
:102ED0004643AD19EA88FF23FE2A00D8D3B26371B6
:102EE00019E00E2070432818C288FF23FE2A00D85C
:102EF000D3B263710B220A238256C3560921D31A17
:102F00000822415682568A1A934202DDA371E27169
:102F100001E0A271E37170BDF0B5C14B8DB01B68CB
:102F200004909E689F690696DE68079103961E6965
:102F300005965E69029603F099FDBA4B01261B685F
:102F4000E4331B780196002B58D00026079D049C83
:102F50000196B54B1B681B6A9E424FDA2B8809A865
:102F600003806B88438005F09BFC0420235E002BCC
:102F700040DD238869460B84638808A84B8405F0EC
:102F80008FFC68462023C35E069999420BDA039AA8
:102F90009A4208DD68462222825E0599914202DA51
:102FA0000298904221DC04216A5E002A1ADD9F4AC1
:102FB000126892192832127852B2012A12DD06984C
:102FC000C21B9A420EDA0399CA199A420ADD6A466E
:102FD0002223D35E0598C21B9A4203DA0299CA19CA
:102FE0009A4205DC0023A38004E00122019201E063
:102FF00001230193013608350E34AAE70126049C0B
:10300000079D0296884B029F1B68013F186A874202
:1030100000DBB6E02B8809AE33806B88301C7380F0
:1030200005F03EFC0420235E002B00DC80E02388BA
:1030300069460B84638808A84B8405F031FC6B4615
:10304000598C1A8C794B03911B683088DB196033DB
:103050001979774B844676881B68002901D14C3357
:1030600000E04D330420295E1B78002911DD039810
:1030700036B201B2891BCE1789197140994208DA1C
:10308000664630B211B2091AC81709184140994270
:103090006DDB019E002E6AD00AAE33788021494252
:1030A0001943DF200140207B0123184040231943AE
:1030B000102399438C4602990F2319400591000172
:1030C0006146084305999843014310B20012184025
:1030D000317071780590039899438C4601B20912BA
:1030E00009010598B270039A069161460843F2708F
:1030F0000699A28803401943131C12B27170FF2A6B
:1031000000DDFF233A1C0498311C3371FFF7D4FE15
:10311000301C03F0B5FC0423EA5E444B1B68DF1946
:103120006037002A01DD012300E000233B711AE033
:1031300004202B5E002B1ADD0AA80023029A4360AC
:103140000F231A4040210A4302700127F757728863
:103150003188F6783B4076B236011E434670817066
:10316000C27003F08DFC23882B8063886B80A3885A
:10317000029EAB80E3880136EB8002960E34083560
:1031800040E71B690F255C1E1D40284E621C2FD096
:1031900031686700CB191A1C78320020125E6E333A
:1031A000002A0FDC1B881AB2002A16DD00210AA8AB
:1031B0000A914160802129430170FF2A00DDFF232D
:1031C000037108E000215B5E002B06DC0AA80023E7
:1031D0000A934360057003F053FC3368013CDF1928
:1031E0003B1C6E373A8878331A80013D0F23CBE7BA
:1031F000336801201A1C983211680832002902D164
:103200001068441EA0411C1C8E3420701268181CCB
:103210009C30A43301601A6003F046FC0DB0F0BD91
:10322000B80C002000000020F8020020000300205D
:10323000B40C002070B5124B051C1B680C1CEA3343
:103240001B78002B1BD00F4A1368161C191C9C31CD
:103250000968002905DDA4331B68002B01D105F0A6
:103260005BF833681A1CA4321268002A07DD9C330D
:103270001B68002B03D1281C211C05F023F870BD0E
:10328000B80C002000030020F0B591B00E9108901A
:1032900003F0A0FDBC4B01211B680E201A1C5A3202
:1032A0001278089C91401A1C5B3212785C33891AA0
:1032B0001A7800258B1ADBB20F93B44B09951B6863
:1032C0000A950C93A8330D93B14B1B681A6A5043AF
:1032D000111C23180E3B01390BD3DC88099EA64232
:1032E00000DA09940427DC5F0A9DA542F2DA0A9409
:1032F000F0E7089E013A3018083807920590079FBA
:10330000013700D1B7E0059F023F00203B5E0697E2
:10331000002B00D1A8E09C4E059C336820881A1C25
:103320004E321969157824333A3A03F01CFD041C17
:10333000FDF7DEF8F0300378002B05D03368353325
:103340001B789C4200DA1C1C33681A1C4F3212781E
:10335000002A01D1642245E02A1C0C9D5D35FF3511
:10336000287800281CD1069F64210026BE5F171C08
:10337000714367438C460C995531FF31BC450DDDD7
:10338000A6420BDC834F0E683F6801360E60DA37C9
:103390003F78BE4204D101262E7000E00020086074
:1033A0000C985D30FF300178002915D0069E0C99ED
:1033B0000025755F5531FF31A5420BDD0D681E1CE0
:1033C00001350D603E363678B54205D100250570D1
:1033D0000D6001E0002008600C995D31FF31097833
:1033E0000029B7D06949079F0968069DC819283088
:1033F00006780020285E002E05D01D1C3E352D7855
:1034000076B2AE421ADC642545435443A5420FDB35
:103410001A1C44321278099F059E7A43348892110F
:10342000944205DB9B6C0A9C63439B1198421BDA18
:10343000059D069E00232B8033800CE034331B78DF
:10344000554D5C436843624390420DDA059F069CEC
:1034500000233B802380079A0E3292008A1898310D
:1034600053600B68013B0B60079D059E013D0E3EBE
:103470000795059643E7454B00221B680E9D983340
:103480001A60434B1B681B6A5C1E0594059EE20094
:103490000E247443AF18089D0C2272432C193F333D
:1034A0000C9D0D9E5B00EB18B218AA33079209938E
:1034B000059E364D013600D1FEE10426A35F324A57
:1034C000002B00D1B9E1059E2D681268A9190B1CCB
:1034D000283318783E320130C0B21870127840B2EA
:1034E000961DB04201DD04321A702823CB56012B01
:1034F00003D123883B8063887B80059EAB192826F7
:103500009E57012E00DC80E1B01C0321FCF776FE03
:103510000A91022E42D11E4B00203A5E1E68022103
:103520007B5E69692D6930686D10551B76688C4625
:10353000E917013E6D1836024D40761B7F2E0ADDDD
:1035400065466910591ACE17013889190002714071
:10355000401A7F280DDC0021605E801A0222A15EE5
:10356000C91A04F083FB0B2803D93B8823807B888E
:1035700063800323013B19D32188079D5A00A95278
:103580006188AA18D180F5E7B40C00200003002060
:10359000F8020020B80C0020102700000A9E079DAA
:1035A0003A887300EB181A807A88DA80D34B059E2C
:1035B0001B680221655E9B1928331B780020265E5C
:1035C0005BB20893032B00DC15E10A9A07985300BD
:1035D000C3181988101C0D91043003210693FCF7C1
:1035E0000DFE079A4B00D3181888DB88069A0E93B5
:1035F000089B8446D188042B08D10022B85E301A7B
:10360000C317C01858400226BB5F09E0099B002081
:10361000185E301AC61780197040099E1423F35E95
:10362000ED1AEA17AD18554023884019099D059EEB
:103630002B806388B24AAB820C9DAB192133FF33D8
:103640001D78002D06D0156862352D88A84208DC4B
:10365000002505E0156864352D88A84201DB0125A9
:103660001D701B78002B2BD112688021131C603237
:1036700012885E331B8800924A0003F063FB069DAC
:10368000061C0020215E0020285E0B1ADD175A1947
:10369000069B6A4094460222A55E06229A5EAD1AF7
:1036A000EA17AD1855406544321C2B1C05F07AF919
:1036B000069B20800222A15E0620185E321C78E064
:1036C0000D9E6046B5B22B1A1BB2DA0FD3180E9AB4
:1036D00089B25B100D938B1A1BB2DE0FF31800201A
:1036E000265E5B1008960220265E0E930B960D9EBA
:1036F000AB19089D1BB2EB1ADE170E9D9B19734088
:1037000049190B9E09B2711AC817091841405B1874
:103710000025802B01DD1D1C803D0A98032105300A
:10372000FCF76CFD079E764B49001B6871180391EE
:1037300006991A1C0020085E5B320F991678013238
:103740001278414303980A920022825E08987243DD
:1037500089180A9A424388181A1C5A321278069914
:10376000104104900620095E0F985D33484384465B
:1037700003981B780621415E0B984E430A996644D4
:10378000414376180E9916415943114176180D9907
:103790004B4313411A1C049B089998188022D200AD
:1037A0002B1C05F0FFF880222080D2000220215E31
:1037B000301C2B1C05F0F6F8514D60802B6804215D
:1037C000785E0422A15E04333E269A5F431ADE1718
:1037D0009B19734005F0E6F82B68A080F888E18813
:1037E00004333E255A5F431ADE179B19734005F0D8
:1037F000D9F8E08009E000203B5EF61876102680BC
:1038000002217B5EED186D1065803C4B3C491A68C7
:10381000059D0968531928203E31185609788842B9
:1038200003DC01225242A28003E098321168013188
:103830001160303300229A7032E02E6805991268C8
:1038400070180692021C283200269657B446069E2F
:103850003E363678B4451CDD0426B95F00291FD0FA
:10386000303086780136F6B28670069976B23F31EE
:1038700009788E4213DC3B8823807B886380BB8879
:10388000A380FB88E3802B6898331A6801321A60A2
:1038900006E00C9D059E1370AA192132FF321370A9
:1038A000059D079E013D0595099D0C3E023D083F83
:1038B0000E3C07960995FBE52B680022A0331A60A1
:1038C000104B1B681C69013C611C00D197E0286803
:1038D00062008218161C6E36378805970599084FC6
:1038E000002918D07823995E8C4605990BB2614661
:1038F000002909DC39683C3108E0C046000300209B
:10390000B40C0020F802002039683D3109788B4260
:1039100001DA0023338031880319079300293FD04F
:1039200080330593987884467F2804D001239C44F3
:10393000059863468370079B80339B785BB2022BAC
:1039400013DD78320023D05E3A6809B2944604222F
:10395000944463463E229B5E0593431ADA179B18F4
:103960005340059A05F01EF830802B6802201A1982
:10397000111C80310856396840310978884207DCCB
:10398000211C343149005B1801214942D98003E0F0
:10399000A03319680131196080320023D37192E796
:1039A0003F68079B069780330227DF57059740271C
:1039B000BC46069FBC4467463F78BC46059F6745AA
:1039C00018DD78321288002A00D17CE7DF79BC4606
:1039D0000127BC446746FFB2DF717FB2BC46069F39
:1039E00041373F78BC4508DC3280A03003680133A2
:1039F000036068E7286803198033997063E711B0A2
:103A0000F0BDC04638B5051C0C1C02F0B7FF0128FC
:103A100003D0281C211CFFF737FC38BDF0B58FB050
:103A2000059007910A920B930024404B1B68DB6AB8
:103A30009C4278DA059F2301FB1808201B5E002BAF
:103A40006FD0079FA300FB180327DF5708979B78C9
:103A5000013F5BB206930497089F049801370997CA
:103A6000B8425EDC069E013E069B01339E4255DC59
:103A70002E4B04991B6801319A680A9F5143481CD8
:103A800080193D5C013D47D3DB6A9D4244DAAC427C
:103A900042D0079FA300DB5F254F40003F683F896E
:103AA000BC46149FC05B834236DC069F6046C91942
:103AB00043430131149F4900C95B9B118B422BDAB0
:103AC000099F7A43B2180132149F5200D25B93428D
:103AD00022DAA54202DB2B1C251C1C1C05982101A7
:103AE0000DAF41180A31381C042205F00DFB059A70
:103AF00029015118381C0A3103F02CFD00970A9F48
:103B0000231C01970B9F05980297149F0799039711
:103B10002A1C03F03DFD2C1C0236A5E7049F02374A
:103B200099E7013481E70FB0F0BDC046F8020020EC
:103B3000B40C0020F0B585B00C1C151C019303904B
:103B4000FCF7C4FCFCF7CEFC00F0BAFC384E394957
:103B5000336802201B692A1C4B700423CB705A2344
:103B60000B7103F017F8231C2A3300221A708023EC
:103B70001B066363304BA36333681A692F4B1968C4
:103B80002F4B1B6802932F4B18688446013A43D38E
:103B9000019F9600BF59A859C31B676B9F4200DA6B
:103BA0006363A76B9F4200DDA3630B78002B06D0F5
:103BB000029FBB18BA33FF331B78584380110A9F0A
:103BC000BB591B0C1B1A11D4487B834202DB01201A
:103BD000664630710F200856834212DB2768181A98
:103BE000381820606069013060610AE011200856D1
:103BF000834206DCA668181A3018A060A06901305C
:103C0000A061039F50003B52201C2A300678B3422B
:103C100000DA331C0370B9E7084B2A341B6822789A
:103C20001B7A00209A424041C0B205B0F0BDC046A8
:103C3000F802002004010020FFFFFF7FA80C0020F5
:103C4000AC0C0020FC020020F0B595B013930C1CC6
:103C50000C921290FCF73AFCFCF744FC964B1B6864
:103C6000F0331B78002B06D1944B1B681D7A0A9504
:103C70000A27DE5F05E0924B1B689D780A950427B2
:103C8000DE5F904D90492B680C9F5A6818684A7007
:103C90009A6804238A70013292000870CB70BA18B7
:103CA000512302200B71099602F074FF0023A21D1C
:103CB0008248D3770232D3777F262968621D056850
:103CC0008248D677E21DD67700684A680F90804810
:103CD000013AD2B200680E920A6810907D4E8020A0
:103CE000013A000652B2AC46089607900693049338
:103CF000002A00DAA3E00E9F50007BB20B90002B4D
:103D000000DA9AE08E68551C75430135ED18A8005D
:103D10000C9F0195139D9E00C059AE59079F861BAD
:103D2000B74200DA0796089DB54200DD0896664660
:103D300037784E68002F09D0351C55430F9FFF1868
:103D40007F5D109D7843AD686843001356431A9F0A
:103D50009E19B600F659129F360C301A019E750056
:103D6000E8536646002854DB0F257557A84212DB3E
:103D70002768451B7D192560656910270135656138
:103D8000F757F67B656876B2B84201DC861B00E027
:103D9000BE1BAE196660E568A84204DDDEB2D7B28C
:103DA00011960D97E0606646357BA8421BDB251C0B
:103DB00008351F26AE579E4200DAEB77E51D1F2619
:103DC000AE579E4200DDEB77A51D1F26AE579642EB
:103DD00000DAEA77651D1F26AE57964200DDEA77C6
:103DE000069F0137069785B21C9F5E000295BD5B5A
:103DF000029F7D192F1C1C9DAF531B9D0B9EAF5B1B
:103E0000029EF5191B9F0B9EBD53049F3F180497FC
:103E100011E011257557A84206DCA768451B7D19DE
:103E2000A560A5690135A5612569A84200DA206170
:103E3000049E361A0496013B61E7013A58E7214B8C
:103E400004981B680125D968FCF782F922497C2374
:103E50005B42221CCB70E06176231C32281C0B7164
:103E60004D7002F097FE069FA21D27621F21631D61
:103E700051561F229A56164B1B68914201DB1D7149
:103E800001E000221A71079D089EE562119F231C24
:103E90000D9D283326631F705D70E6680A9F012020
:103EA000BE4205DA2369099DD80FEA179D425041A9
:103EB000C0B215B0F0BDC04600000020A80C002024
:103EC000B00C0020F8020020B8030020AC0C002049
:103ED000FC020020FFFFFF7F0401002007B5104B0C
:103EE0002A301B680278987C0968424392098A420A
:103EF00000DA0A1C997B4A43921101921B7B9A4279
:103F000000DA0193074901234B707C235B42CB709D
:103F100006201F2301AA0B7102F03CFE01980EBD82
:103F2000A80C002004010020F0B591B0099316AB55
:103F30001B78BE4C0F9300234B72CB720C907F23E7
:103F400020680B728B7206910A920323C3562027B6
:103F5000FF1A0223C35609997F00FF1A49687F1090
:103F6000FFB2059107970422815E0623C25E0823F3
:103F7000C356407A40B20090059802F0E3FEAC4B85
:103F800080021D682968FCF7E3F824686A682378D2
:103F9000002B00D16EE0189D911CEB8849006B80CE
:103FA0002B892E1C2B800B1FEB181D887552991E18
:103FB0000988D9806178002903D0079D6FB27F00FE
:103FC00039E0023B013A39D35E88DD88032161562E
:103FD0007519079E4D431F8871B21E89BE194E4345
:103FE0000221AD1961569E887143691889114143B8
:103FF00009141981E5E7032565575988DE886D00A6
:10400000AC460D1CB14200D2351CADB266466E43C3
:104010001D89B4461E88311CAE4200D2291C0225DF
:10402000655789B29E887943754361444D19AD1136
:1040300045432D141D81023B013ADCD2099F0B2020
:104040007F68049720560422A15E0623E25E0A23BD
:10405000E3560090381C02F075FE754B80021C6818
:104060006168FCF775F8714B21681B681A78002AA3
:104070000CD164E0531C189F5B00FB18013ADDD3A0
:104080001988023B41430914D980F7E7179CE2885D
:10409000251C62802289261C22808C1C6400221F21
:1040A000AA1815883553941E2488D4805C78002C77
:1040B00003D0079C67B27F0039E0023A013939D357
:1040C0005688D58803241C577519079E65431788A1
:1040D00074B21689BE1966430224AD191C5796881E
:1040E00074432C19A411444324141481E5E70325D7
:1040F0005D575488D6886D00AC46251CB44200D26A
:10410000351CADB264466C4316881589A446341C30
:10411000AE4200D22C1C02255D57A4B296887C4387
:10412000754364446519AD1145432D141581023A58
:104130000139DCD21A7B002A0DD1079222E04A1CF9
:10414000179D5200AA180139F4D31488023A444347
:104150002414D480F7E7099E0E27D95F70680024E5
:10416000079488420EDD10255A5F9B7C01265BB2C6
:104170000093231C02F0E6FD10231B1A9B000B90FA
:104180000D9307962A4B0021186809910768BC46D1
:1041900066464368711E00D28AE0179C4A00A21846
:1041A0000E92013B00D281E0079D8468002D41D032
:1041B000664666430896F6180A9F01367600BD5B90
:1041C0005F1C2AB2D243D2172A408D1C6543029647
:1041D0007D190A9E6D00AE5F12B20396964200DA18
:1041E0000392089E341B3C190A9F6400E45F9442CA
:1041F00000DA141C039E0A9F3519029C3E19022402
:10420000375F141EBC4200DA3C1C023E2D19002709
:10421000F45F161EA64200DA261CAD190B9C0D9EFB
:1042200065437243AA1892110BE0C046BC0C0020F3
:10423000F802002067467C431C1901340A9D640083
:10424000625F189E5C00341924890E9F121B3C8902
:10425000121B0F9CA24218DD069D0B242C579C427A
:1042600000DAEB72069E0A2434579C4200DDB372DA
:10427000069F09243C578C4200DA7972069D082477
:104280002C578C4203DD297201E0002A04DD099ECF
:10429000964202DA099200E00022846867467C4375
:1042A0001C1901340C9DA40062517AE78C466FE71B
:1042B0000B498268099F069C056827600C9E4B701D
:1042C0008A707C2301325B429200CB70B218832348
:1042D00005200D700B7102F05DFC11B0F0BDC04601
:1042E000B8030020F0B5A9B00FAD059000216422FD
:1042F000281C04F04BFF06A80021242204F046FFEE
:1043000000246300E858019328236343304F029050
:104310003A1C3232D2180492002605980499835F21
:10432000885FFA2158438900FBF712FF029A023690
:104330001018502E01D00290EFE73B5F019AC01891
:104340000234A850322CDCD10023E958002901DACC
:104350000022EA500433642BF7D1002467001820B0
:104360006946C0194058192161431A4B01901A1C23
:1043700014328A180292002602987200835FA858AD
:10438000FA2189005843FBF7E3FE01990236081829
:10439000322E01D00190EFE70E4B18370233E35E67
:1043A0000234C0186B46F850122CD7D10122524269
:1043B0000023990006A841588A4202DADAB2039231
:1043C0000A1C0133092BF4D1039829B0F0BDC04673
:1043D000DA910000DA990000F0B585B00192021C74
:1043E0005232041C0D1C861C0292B31E0422A85ECD
:1043F00003930022AB5E184FC01A01997843FBF774
:10440000A7FE039B019918800222AB5E0622A85EDC
:104410000435C01A7843FBF79BFE029B30800436BC
:104420009E42E2D100230D4AE15A56329A5A8A1A24
:10443000E2520233502BF6D10025635FFA20800050
:104440005843074B2633E95EFBF782FE6053023583
:10445000502DF2D105B0F0BDA08601005A9B00009E
:10446000DA9B000030B500220C7D131C8D5CA54248
:1044700001D00133DBB20132142AF7D1022B14D858
:10448000012303700B7D0621181C884301280CD1E1
:10449000032B0CD003D8101C012B09D005E01620EB
:1044A000052B05D01720072B02D0002000E0152097
:1044B00030BD0000014B18607047C0469C0C0020C6
:1044C000014B18687047C0469C0C0020014B1860D7
:1044D0007047C046980C0020014B18687047C046D2
:1044E000980C0020014B18607047C046940C0020C7
:1044F000014B18687047C046940C0020014B1868A7
:104500007047C046FC0000208D23013B002B01D0EA
:10451000C046FAE7044B10221B78DBB21807C00F25
:10452000134018437047C0462B0000500F4BF7B59F
:1045300018261E700E4BA0271E70FFF7E5FFFF0523
:104540000B4B01AC00252C3760701D703E70FFF7DF
:10455000DBFF064B20703D701D7023786278181CBD
:104560005040400013400343D8B2FEBD2A00005023
:104570002D00005010B50D4B00201B78AA2B12D136
:104580000B4B1C780B4B64B218780B4B40B219786C
:104590000A4B20181A780A4B49B21B784018801829
:1045A000C01A43425841C0B210BDC046500002007C
:1045B00051000200520002005300020054000200A9
:1045C000550002008023DB020022188059809A8067
:1045D000C046024B188880B27047C04606000400EF
:1045E000154BC0229200985814490140995099588F
:1045F000FF208143402001439950985810490140C1
:104600008020000401439950985880210002000A3C
:1046100009060143995002221A6001221A600821FA
:1046200004221A601960FC3300215960054B196996
:104630000A431A617047C04600E100E0FF00FFFF37
:10464000FFFF00FF00ED00E013B5094A04241378D2
:104650000021DBB21C4301910198F421FF31884213
:1046600005DC1370C046147001990131F3E713BDE6
:104670000D00005013B500220192A022D205D06B8C
:10468000C021C9000143D16301AB187803218843DD
:10469000012108430C24A043042420433024A043D8
:1046A000102420433F242040402420431870987851
:1046B0000F24A043072420439870D8780143D97071
:1046C000019B936113BD00000122A023DB05104074
:1046D0000206034998690840104398617047C04634
:1046E000FFFFFFFE82B00022019201301F2201ABCA
:1046F0001040C9B21870481C023110400A409200A4
:104700005870DA70019AA023DB05DA61196A024A4F
:104710000A401A6202B07047FFCFFFFF0002064B4B
:10472000000A0138002258609A6005221A60C046CB
:104730001A68D103FCD5704710E000E0F0B5534F84
:1047400085B03B681A1C543215780232596D1278C4
:1047500057331E780F231407994312092D0701922E
:104760002D0F0B1C80222B4352001343484A039504
:10477000484D1340484A2B4048491340240F0B40F2
:104780000199220413430A0545493607360F0B40A9
:10479000009613433206434E029433401343424A79
:1047A000A024E4051340E360FFF74EFF3B68E26896
:1047B00055331B781540DB069B0FDB021D43E5607C
:1047C000E26880239B001343E360E26880239B013F
:1047D0001343E360029C039DFFF7CCFE002813D037
:1047E000324F882039781E34C9B2FBF7B1FC3978D2
:1047F0004443C9B28820FBF7ABFC0F3545431E3C50
:1048000000230F3D9C4203DB231E0F2B00DD0F23F3
:104810000F22954200DD151CA024E4051F491A4013
:10482000E36812040B401343E360EB43E268DB17D9
:104830001D400F239A431D401543E560E368F022B5
:10484000934380221343E360E368154A18481340FA
:10485000E360E3683340E360FFF760FFE2688023D2
:104860005B051343E3600099E2680B0616401E43A4
:10487000E6601048FFF752FF019B09491A05E368FB
:104880000B401343E36005B0F0BDC046980C002018
:10489000FFF9FFFFFFE7FFFFFFDFFFFFFFFFF0FF75
:1048A000FFFF0FFFFFFFFFF0FFFFFFEF54000200CD
:1048B000FF0F0000FF6F0000064A074B126801203F
:1048C0009432126819789040021C0A43D2B21A70CE
:1048D0007047C046FC000020290000500549064BE7
:1048E00009681A78943109680120884082431A7057
:1048F0007047C046FC00002029000050044B187887
:10490000044B1B6894331B681841012318407047FF
:1049100029000050FC000020044B82B0019001AA45
:10492000188092789A7002B07047C04624000050F8
:1049300007B500F0DBFD064B019001AA18809278C4
:104940009A70044B00221A70034B0122DA7707BDDC
:1049500024000050800C002008000050034B00226F
:104960001A70034B0122DA777047C046800C002092
:104970000800005072B6084B1B5C002B03D1C046E8
:1049800062B630BFF6E762B6A023DB059968034A3A
:104990000A409A607047C046800C0020FFFFF9FF74
:1049A00072B6074B1B5C002B02D1C04662B6F7E71C
:1049B00062B6A023DB059968024A0A409A607047F4
:1049C000800C0020FFFFF9FFA023DB055A680121BE
:1049D000120E58689143034A090602400A435A607E
:1049E0007047C046FFFFFFFE08B5074B1B681A1C47
:1049F0005C3212785D331B7852000132504399408B
:104A0000FBF7A6FB08BDC046980C002008B5044B78
:104A10001B685F33197849000131FFF7E5FF08BDD6
:104A2000980C002008B5A0230120DB055870FFF783
:104A3000A1FFFFF7C9FF08BDF7B5A026041CF605C6
:104A4000042804D1524B1B68DF6E1B6F21E0514BD1
:104A50001B689F6CDB6C7361FBF74AFDE7300378E2
:104A6000002B17D004F02CFB04F092FA01797F227E
:104A700011408904019171690B1C47490B40019950
:104A8000194371614179444B0A40716992040B40AA
:104A900013437361A023DB051F611E691F231E40A2
:104AA000FFF768FD00280AD03C4B882019780436AF
:104AB000C9B2FBF74DFB46430023043E03D4331E2B
:104AC0001F2B00DD1F23A022D20510691F210B40E0
:104AD000884303431361022C16D007DC002C13D04B
:104AE000012C2DD12B4B1D685E3529E0042C07D0FD
:104AF00023DB052C24D1264B00241D6877351FE0CD
:104B0000234B1D6874351BE0FBF7F2FC031CCC3310
:104B10001B78002B03D01E4B1D68453510E0E73095
:104B20000378002B05D004F0CBFA04F031FA851D90
:104B300006E0184B1D685B3502E0164B1D686135B9
:104B4000A023DB05596928783F2210409143014397
:104B5000596168781F215D6908401149C0022940E8
:104B6000014359610F49640009680C19211C533134
:104B700008785968104091430143596054342178B2
:104B800058680A401102084A02400A435A60F7BDB9
:104B90009C0C0020980C0020FFFF03FE5400020034
:104BA000FF07FFFFFC000020FFC0FFFF214BF7B510
:104BB0001A68214B1B685E331B785B069B0E0193C2
:104BC000517E00238D005519581E5B18002B25D0EF
:104BD00053181B189B7E8024D3185E78A023DB0516
:104BE0005F68E4033C435C60019CB60624040094C7
:104BF0005F68B60EBC46114F64462740009C2743B1
:104C00005F60C04624367600F65A84002C19666729
:104C10005E680B4C34405C60031CD5E7537E094949
:104C200074324B700423CB700F20B0230B7101F052
:104C3000B1FFF7BDFC000020980C0020FFFFC0FF73
:104C4000FFFFBFFF04010020F7B5FFF7AFFF114BD7
:104C500000241D686E7E731C9B005B420093B300B2
:104C6000EB180193009B043C9C4207D0019B01215F
:104C70001F19786FFFF7B8FE7867F3E706492A1C1B
:104C80000423CB707432B0230F204E700B7101F0EF
:104C900081FFF7BDFC00002004010020044B00222E
:104CA0005A70A023DB055A7001221A707047C04663
:104CB000800C0020A023DB059968064A0A40802169
:104CC00089020A439A60044A0021917001229A7075
:104CD0007047C046FFFFF9FF800C0020014B1B68A6
:104CE000D86E7047FC000020014B1B68D8667047E7
:104CF000FC000020A023DB059868C0B2704730B5E7
:104D0000A023DB059B68DBB283420ED001DA0133BE
:104D100000E0013BA022D2059568FF211C1C8D43B9
:104D20000C40291C21439160EEE730BDA023DB0538
:104D30009968802252020A439A609968094A0A4097
:104D40009A609A68120112099A60D968064A0A4064
:104D5000DA60D968054A0A40DA60D968044A0A402C
:104D6000DA607047FFFFFFF0FFFEFFFFFFDFFFFF8E
:104D7000FFFFFFEF1B4B10B51A680121131C5233C4
:104D80001878A023DB059C680840174900042140DF
:104D900001439960533210789C6814490007000958
:104DA00021400143996011789A68090912010907A5
:104DB00012090A439A60D968802252000A43DA60D5
:104DC000D968802292010A43DA60D96880225205AC
:104DD0000A43FA20DA60800000F0ACFBFFF79EFC8B
:104DE00010BDC046980C0020FFFFFEFFFFFFFFF044
:104DF00008B50020FFF7BEFD08BD0000034B1B688F
:104E00005C331878400001307047C046980C002091
:104E1000024B1B685D3318787047C046980C002021
:104E200000487047001000500048704700200050B4
:104E30000048704700400050064B1B685879064BED
:104E400002301B6842331B785843044B8000C01863
:104E50007047C0469C0C0020FC000020044000501D
:104E6000F7B5194B051C1C68A3795E1E10D3627937
:104E7000013A0BD36179501C023159434118134850
:104E8000890009180868E8400860F1E7331CECE77E
:104E9000FFF7D2FFA37A002201339C466346013B11
:104EA0009C460FD3617A96000191861900230199DF
:104EB000994205D09F00F1590133E940F151F6E7DD
:104EC0005218EBE7F7BDC0469C0C00200040005094
:104ED000064B1B685879064B02301B684E331B7813
:104EE0005843044B8000C0187047C0469C0C0020FB
:104EF000FC00002004400050074B1B68DA79587909
:104F0000064B02301B68013246331B785843044B72
:104F100010188000C01870479C0C0020FC00002076
:104F20000040005070B53F4B1D682A7853B2042BE7
:104F300018D13D4B19680B1C76331E7802235D1E79
:104F40006FD34A79013A0BD34879541C0230584345
:104F50002018364C800000190468F4400460F1E722
:104F60002B1CECE7002A45D0022B21D1FBF7C0FA1D
:104F7000CC3003782C4C002B02D02368473302E05E
:104F80002B4B1B685D331878FFF76AFF2568EC79B7
:104F9000002C2FD0FFF7B0FF061C013C2AD3697A02
:104FA000201CFBF72BF989008A59A300F250F4E783
:104FB000032B03D11E4B1B68633318E0012B11D167
:104FC000FFF786FF184B061C1B685C79013C11D368
:104FD0002B1922331B789B009859FFF717FDA3006C
:104FE000F050F3E7052B05D10F4B1B687933187888
:104FF000FFF736FF0E4B1B685A331B78002B10D07F
:10500000094B1A685379013B0BD3507994790230DC
:105010006043591C091805488900091800200860D8
:10502000F1E770BDFC0000209C0C00200040005007
:10503000980C002008B5A0230120DB055870FFF76D
:1050400099FCFFF7C1FCFFF76DFF08BD70B5041CAC
:10505000104E114D11D10120FFF7EEFC33680122F3
:105060001A70A023DB056C705C701A70FFF7E2FF0A
:10507000FFF7AAFCFFF7E8FD0224201CFFF7DCFC89
:10508000336800221C70A023DB056A705A7001226D
:105090001A7070BDFC000020800C002008B5FFF7DE
:1050A000D5FFFFF7C7FF08BD10B5A023DB051C6ABD
:1050B0000005064A000D010422400A431A621A6ADA
:1050C000120B12031043186210BDC046FFFF00F020
:1050D00073B5164BA0221B68D2059168196D503329
:1050E00091601C78FFF746FA114D002810D0114B43
:1050F000114A1B7812782E6852B25BB20092201CC3
:105100001021D12201F01EFE2B6830671B6FE418BE
:10511000002C01DA002402E0FF2C00DDFF242B68C4
:10512000E0B2DC66FFF7EBFD73BDC046980C0020D3
:10513000FC000020530002005200020008B50028C5
:1051400001D0012801D100F041FEFFF7C1FFFFF7B8
:10515000F5FAFFF78FFA08BD70B51F4B0D211B68DC
:10516000A0B0DA7A00230C3AD2B291425B4103211B
:10517000C91AA023DB0558693F2210405C688022D1
:10518000D20322435A60421EA023D2B2DB05FF2A7B
:1051900011D05E683F25114C15402D0434402C433E
:1051A0005C60C0460C1C243464001C5B6D465300DC
:1051B000EC52013AE8E75968094A0A4009495A603D
:1051C00002234870CB700320B3236A460B7101F0B1
:1051D000E1FC20B070BDC0469C0C0020FFFFC0FF6A
:1051E000FFFFBFFF04010020F7B5041C02F0E4F844
:1051F000124B1A6800235068411C0191019D1668EA
:105200009D420CDB976801367E4399008C469E19BF
:1052100000216546B600615101333151EEE70123AB
:105220009E420ADB956800215D43AF002D180135D1
:10523000AD00395101332951F2E7F7BDF8020020E2
:10524000044B054900221A6059609A6005221A60D1
:105250007047C04610E000E0FFFFFF0010B5A0233C
:10526000DB059C6899680B4BC9B21B68E4031B6F94
:10527000E40F591AFF31E62359430134064BA0408D
:10528000C918041C0548FAF763FFC1B2201CFAF7DD
:105290005FFF10BDFC0000205C5D000040420F007D
:1052A000014B00221A60704710E000E013B50B4C70
:1052B0000B48A368C01A0193FFF7D0FF09490123E7
:1052C0004B7004230190CB7000206F2301AA0B7157
:1052D00001F060FC00230198236016BD10E000E09F
:1052E000FFFFFF000401002010B5041CFFF7A8FF1A
:1052F000201CFFF7ABFEA023DB0501205870FFF751
:105300004FFBFFF761FBFFF70DFEFFF7CFFF10BD6F
:10531000F7B5234800F00EF9FFF700FA214F0025FA
:10532000214E224CB7421FD28036F31B2026832BFE
:1053300000DC9E100123667000203A1C211CB61070
:10534000E370207101F026FC3B1C321C013A08D3AB
:10535000002D04D116491868884200D01D1C043362
:10536000F4E7B600BF19DBE70E4904226B1A0127E8
:105370000193E270A723211C01AA0020677023710A
:10538000843601F007FC0423751BE3700020A8237A
:10539000211C01AA01956770237101F0FBFBF7BD89
:1053A000801A0600C40C0020801B0020040100208D
:1053B000CDCDCDCD014B1B68587E7047FC00002041
:1053C00070B5051CFFF784FD094B1C68637E9A00CD
:1053D000AD180022511ED218002A08D0E218521827
:1053E000927E920016588A00AE500A1CF2E770BDF9
:1053F000FC00002030B50A4B1B685A7E94001C1933
:105400005300C01800230133D11A013106D09D008A
:10541000651B59006D6F49424552F4E730BDC046E7
:10542000FC000020F8B50C1C051CFFF761F81449BE
:1054300008688379013B11D30E687279013AF9D378
:105440000E6870790F4E584336688018F618281881
:10545000603607783679BE190670EFE70B68DB799E
:10546000013B08D3074AE15C1268D21878321279FE
:105470008A18E254F4E7281C211C00F0F9FEF8BD5C
:105480009C0C0020980C0020134BF7B51C68694653
:10549000E26800AF131C0E33DB08DB00C91A236976
:1054A0008D460E33DB08DB00C91A0C4B6D461E68B7
:1054B0008D467960281C311C03F026FEBA23FF3389
:1054C000F1182269786803F01FFE281C7968FFF73D
:1054D000A9FFBD46F7BDC046F8020020940C00208D
:1054E000A023DB0518690006400F704738B5A023DC
:1054F000DB0599689D680C4B041C1B680B481B6FEF
:10550000ED03C91AC943E623C9B25943084BED0F4D
:10551000C918FAF71DFE054B01355843211C2841D7
:10552000FAF716FE38BDC046FC00002040420F00CE
:105530005C5D000038B5A023DB0599689C680A4BC8
:10554000051C1B6809481B6FE403C91AC943E623FD
:10555000C9B25943064BE40FC918FAF7F9FD68437D
:105560000134204138BDC046FC00002040420F00FD
:105570005C5D000008B5002807D0481006380123FC
:10558000132900DC0023C01806E00B2900DD0E39CA
:10559000081C0321FAF7DCFD08BD0000F0B5C04B84
:1055A000A9B01B6800250293DB7A071C0C3B281C62
:1055B000DBB20D229A426841BA4B03261B68361AA9
:1055C00003963E68019347331E70019BC4B278680E
:1055D0004A3304940DAC291C18706C22201C03F073
:1055E000D5FDB14B0B951A680C95231C62CA62C39A
:1055F00023CA23C343CA43C3012124234B43221C90
:10560000E31861CA61C361CA61C361CA61C3039D12
:105610000131A942F1DB00260396341C029D6B790F
:105620009C424CDA029D04982B19DD7A0BAE291CA2
:10563000FFF7A0FF365C2422311C5143B446661CA0
:1056400006960B180DAEF6180596059B069E1E7164
:105650001F2D08DC0DAE71180123CA68AB401D1C5C
:105660001543CD6011E00BAE335C0DA95A43203DCC
:1056700001238A18AB401D1C137E9906890E0D4329
:105680003F210D408B431D431576019D3F23061C92
:105690002A191E40059665465678A901059D9E4328
:1056A00035431D40634629430133039E5170DBB2ED
:1056B0000BAA13549E4200DA03930134AEE7019B18
:1056C000039E493300241E700294754B029C1B6894
:1056D00098798446844200DBD8E0029D5B191A1D4C
:1056E000D67F714A126804925A3212780592059850
:1056F0000022904205D0614601398D4201DA05331E
:10570000DA7F0123301C191C20381C1CB140844056
:10571000201C06913F210840111C20391D1C8B4084
:10572000DBB20993039B2421013B4B430790039C6D
:1057300028A89540C31808955C3B0194019D002D55
:1057400041D0019D2421013D69430DA841180195D7
:105750007C68CD781F200440854325430020CD7010
:10576000186018314C783F2084434C701F2E04DCA5
:105770001968069C2143196004E04C78079D844316
:105780002C434C70059800281BD06146029C0139BF
:105790008C4216DA1F2A04DC1968089D2943196017
:1057A0000FE0019C2421614328AD691854394878E1
:1057B000099C8506AD0E25433F242540A043284380
:1057C0004870243BBAE7049E029C33193478803336
:1057D000A4065D78A40EFEF7CDFE002813D0334E4C
:1057E000882031780135C9B2FAF7B2FC31784543E7
:1057F000C9B28820FAF7ACFC02344443013D023CB4
:10580000019A6E1C03D02A1E1F2A00DD1F223F2092
:105810003F2C02DCE043C01720400590019C039D13
:10582000AC422CDA019C24256C430DA91F26101CC8
:105830000B19304004905878B043061C0498064376
:1058400005985E703F2630400490605CB043061CB3
:10585000049806436654396837291EDC4D431449C1
:105860006D18291C51CB51C170CB70C131CB31C1E6
:105870003B68019E013301363B600196CEE7029EF4
:105880007B680136013302967B601EE7054B3A6860
:105890001B68012048331A7000E0002029B0F0BDD9
:1058A0009C0C0020FC000020980C002054000200FA
:1058B0000080005030B585B0FEF71AFE064B01A8F7
:1058C0001B68021C603332CB32C2FFF767FEFFF762
:1058D000DBFD05B030BDC046FC000020F0B5604BDC
:1058E00095B01B6800270493DB7A051C0C3BDBB2E8
:1058F0000D22381C9A427841C3B20793594B29684C
:105900001B680BAC01934B331970019B6A684E33D3
:105910001A70019B391C4D331F702422201C03F088
:1059200035FC514B09971B680A970293029A231C76
:1059300043CA43C343CA43C343CA43C3019E237EEE
:1059400077769B06E6689B0E05960693049E737910
:105950009F4234DA049E0798F319DB7A191C0393EB
:10596000FFF708FE09AB1B5C002B0AD1019E717E7C
:105970004A1C72767118FAB20BAE8A76013231186F
:105980000A71019EF2190BAE31180979039E223279
:105990000139117001221F2E04DCB240059E16430E
:1059A000059607E00399069E20398A4032433F213D
:1059B0000A400692013309AA13540137C6E70BAB1C
:1059C000059E1A7E0E963F21069E02988A43324318
:1059D00006781A76B606B60EFEF7CCFD00280AD079
:1059E000224B882019780236C9B2FAF7B1FB464338
:1059F0000023023E03D4331E3F2B00DD3F23627899
:105A00001F2120788A4362703F2290431340034352
:105A100023706868E37808408B43617E03439143B9
:105A20006176296824224A43E3700023129313937A
:105A300023610F4BD218131C43CC43C345CC45C341
:105A400046CC46C32B686A68013301322B606A601A
:105A5000044A012012684C32137015B0F0BDC046E4
:105A60009C0C0020FC000020980C00205400020038
:105A700000800050F0B5D04BA5B01B680026019304
:105A80003B331B78041C0C3B301CDBB20D229A42CA
:105A90007041CA4B03271B683F1A0397276802937C
:105AA0003F331F70029BC5B260684233059509AD54
:105AB000311C18706C22281C03F068FBC04B079641
:105AC0001B68089624332A1CC2CBC2C243CB43C2F4
:105AD00083CB83C2012124234B432A1CEB18C1CA68
