:100000000008002085030000000000000000000040
:1000100000000000000000000000000000000000E0
:1000200000000000000000000000000000000000D0
:10003000000000000000000000000000BD01000002
:10004000C101000000000000ED010000B902000045
:10005000000000000000000000000000002934D073
:100060000123002210B488422CD301242407A1428A
:1000700004D2814202D209011B01F8E7E400A14247
:1000800004D2814202D249005B00F8E7884201D3E2
:10009000401A1A434C08A04202D3001B5C082243BA
:1000A0008C08A04202D3001B9C082243CC08A0422B
:1000B00002D3001BDC082243002803D01B0901D017
:1000C0000909E3E7101C10BC7047002801D000208C
:1000D000C04307B4024802A14018029003BDC046C5
:1000E000D90000000029F0D003B5FFF7B9FF0EBC1E
:1000F0004243891A1847C046002941D010B4041C55
:100100004C40A44601230022002900D54942002882
:1001100000D5404288422CD301242407A14204D2B6
:10012000814202D209011B01F8E7E400A14204D296
:10013000814202D249005B00F8E7884201D3401AAD
:100140001A434C08A04202D3001B5C0822438C08CF
:10015000A04202D3001B9C082243CC08A04202D339
:10016000001BDC082243002803D01B0901D0090929
:10017000E3E7101C6446002C00D5404210BC7047D9
:10018000002806D003DB0020C043400801E08020A7
:10019000000607B4024802A14018029003BDC04601
:1001A000190000000029EBD003B5FFF7A7FF0EBC34
:1001B0004243891A1847C0467047C046FEE7000010
:1001C00008B5074B01221A70064B00221A70064B25
:1001D0001B68187D904202D1032101F005FF08BD84
:1001E000100400203F0000400000002038B5A0258A
:1001F000ED052B691B011B0F082B0CD12D4900238A
:100200000B604B60AA8A52BA081C8A600C3010310D
:1002100002F006FB40E0022B0CD1264BD9680029E6
:100220003AD05A681869824236DA501C58602B7DE1
:100230008B5431E0042B2AD11E4CE368002B24D0D0
:10024000226821698A4209DA9B5CAB61A3689A182B
:1002500090B202F023FB2368013314E0A368201C52
:10026000211CD2180C30103102F0DAFAE368002BAE
:100270000BD0A16822688818A0601B7880B2AB619F
:1002800002F00CFB0123236006E0AB6104E0012BCC
:1002900002D1084B00225A60C046A023DB05DA6871
:1002A00001210A43DA60C0468022D96852000A431D
:1002B000DA6038BD5C02002070B501F01BF84369BC
:1002C000002B01D0013B43611D4BC4691B681D4DD0
:1002D000191949794426890049190D681A49426952
:1002E00009688E5703214E43B61871430919083126
:1002F00089000D50002A05D080230022DB051A70EA
:10030000012219E08169013C41611049C4610E6814
:100310001B195D791F2086430540301C802328432C
:100320000860DB050121002C03DB1A70597019707D
:1003300004E00748C17019705A701A7070BDC04649
:10034000300400202001004000000020D4000040C4
:1003500010040020064AA023DB051A60054A064B5C
:100360001A60064A064B1A60BFF36F8F7047C0468B
:10037000010300490101020004000050010F0101C6
:1003800008000050F8B58023DB055A680F2313409E
:100390004B4A1F2111600133102B0CD08022D20553
:1003A00054680F21181C8C430840211C0143013361
:1003B0005160DBB2F0E70023424A43499A188A426F
:1003C00004D24249C95804331160F5E7404B414A11
:1003D000191D043B934203D200221A600B1CF6E75E
:1003E000EFF308823C4B191D043B9A4203D93B486A
:1003F00018600B1CF7E7FFF7ADFF3949394805399D
:1004000000F0CEFF384C394D01235B4223716371FC
:10041000A371E3712B1C3C331A782B1C3D331B78E2
:1004200080B21B021343984245D102F0EBF9304BE6
:1004300030491888304A88420BD06E7D18882B7D51
:1004400036023343984204D113889BB223711B0AAE
:10045000637113888B421BD0EE7DA87D1388360212
:100460003043834214D100200423013BDBB2FF2B35
:1004700007D0224EEF18F65C3F79B742F5D1012044
:10048000F3E7002804D013889BB2A3711B0AE37121
:10049000637922791B0213438B420CD0E279A37952
:1004A00012021A43134B9A4205D0154B1B78312B7D
:1004B00001D000F0BBF8134B04221A6062B6FEE7CD
:1004C00050000040000000205C020020682B00006B
:1004D00060020020090400204C040020CDCDCDCDC9
:1004E00000300000000000001A040020C02F0000AF
:1004F000D02D0000FFFF0000BE2F0000D22D000015
:100500007200010000E100E0014B18607047C04636
:1005100024040020014B18687047C04624040020C2
:10052000014B18607047C04628040020014B186832
:100530007047C0460000002038B5074C256801F020
:10054000ADFC064A064912680968E861127C097820
:1005500023684A431A6138BD0000002024040020AB
:1005600028040020F0B585B000AF00F0B1FE204BAC
:1005700068461B6800215C68A400231C0E33DB085E
:10058000DB00C01A8546C01A6D4685466B46221CA4
:10059000281CFB6002F0DFFA0321002001F07CFD43
:1005A000144E231C3168043B1A1D04D0CA69F86834
:1005B000D258C250F7E7043C02F024F80B2814D1BB
:1005C0000321002001F068FD3168231C1A1DF3D0BF
:1005D000F868C0587860C869C2587868821AE858C4
:1005E000904200DAEA50043BF0E7BD4605B0F0BDAA
:1005F0004C0200200000002008B500F04DFC00284F
:1006000000D1FEE7FFF798FF08BD08B502F044FAF5
:1006100000F064FE08BD08B502F08EFA02F040FA60
:1006200000F05CFE01F068F808BD0000F0B58FB086
:1006300006AF01F0E7FFB87202F044FA02F05AFA8E
:1006400000F016FCFFF7D8FF01F0DCFF041CF87285
:10065000052800D1A7E010D800281AD0022800D021
:10066000C9E0FFF7D2FF01F093FF002001F0C8FAC4
:10067000FFF762FF02F00CF86EE00B2800D1A9E052
:100680000D2800D1B0E0092800D0B4E002F000F855
:1006900093E05A4E356801F0CBFF594B6A461B6810
:1006A00028755B687A609B000A33DB08DB00D01A90
:1006B000336885461A1C44324533381C1470211C9B
:1006C0001C70142206AD0C3002F045FAFD6000F0FB
:1006D00051FF0524012C0AD0002C2CD0022C0CD068
:1006E000052C31D101F00BFAC0B202F085F8434B72
:1006F00000211868483001F04DFE02F0F1F8061CA8
:1007000002F0FAF8041C02F0FDF83C4BB21C1B6826
:1007100000903B48191C0068483140680190381C23
:100720000C30029000200390DB69081C0493291C04
:10073000231C00F0D3F9381C391C3A1C0B300A3149
:100740000C3200F06DF9041C01F05CFFFB7A83426F
:10075000C0D07A6895464EE001F0A4FF041E062C36
:100760000BD0062804D8052810D100F0B7FF0DE003
:10077000142805D0172803D008E000F0BDFF05E0DD
:1007800001F098FF011C201C00F09AFA01F03AFFDA
:10079000FB7A8342E0D0FFF73EFF002001F030FA01
:1007A000FFF7CAFE27E001F073FF01F05BFB01F0E9
:1007B00029FFFB7A8342FAD01DE00121002001F0DD
:1007C0006BFC002001F088FA01F01CFFFB7A8342E9
:1007D000F3D010E001F05CFFFFF7C4FE01F012FF60
:1007E000FB7A8342F8D006E001F052FF01F00AFFE5
:1007F000FB7A8342FAD0FB7ABB7225E70000002027
:100800004C02002038B5264C23681D7902F012F9FD
:100810000379002B02D16BB2013303D12368002589
:10082000DD600FE02368D9681A69914202DAD9685D
:100830000131D96004215956012903D0DB68934264
:1008400000DB012523681A79954200D01D711A79C1
:10085000002A03D1134A1268127804E0012A03D156
:10086000104A126852781A60186801F033FC236845
:10087000051C186C01F05AFC2D1A002D0ADD2368A6
:10088000186801F027FC2368051C186C01F04EFC69
:10089000281A00E0012000F049FF01F0BBF838BD44
:1008A000000000202804002010B502F045F901F0F6
:1008B000B1FE041C01F0C4FE0020844202D001F00D
:1008C000B1FE012010BD0000F0B54C4C0D1C23689A
:1008D0004B4A197D87B0061C1268012902D1527853
:1008E0001A6003E012781A60FFF78CFF291C301C95
:1008F00000F0CAF9051C2068037D012B09D101F025
:100900002BF8404800F012FF01F084F801F0F0F8F5
:100910004FE001F0EDF801F01FF800F0EBFC071CD0
:1009200002F088F8026B384B312A33DC19682268F0
:10093000142926DD506D00218446344884450BDDA2
:100940009868596001309860032817DD101C012752
:100950003C300770996011E0101C99603C300778BA
:10096000012F08D15F68092F05DC2948844504DC84
:1009700001375F6002E000210170596000211960B9
:1009800003E09C373968506D411851651A6801328F
:100990001A6003E000221A6023685A6501F060F9CA
:1009A00023683E2130685956FFF77EFF002800D0AB
:1009B000051C184B03AE1B6800215F680C22301C1D
:1009C00002F0C9F801233370FBB27370B3700423D3
:1009D000737123680022DB6902200093311C131C11
:1009E00001F0CAFE0C4B1A680C4B9A4202D001F07F
:1009F00039FAFEE7281C07B0F0BDC0460000002011
:100A00002804002098AB020070020020C4090000F6
:100A1000E70300004C02002048040020CDCDCDCDDE
:100A2000F0B585B000AF061C0C1C7A6002F008F827
:100A3000274B69461B685A689200131C0A33DB086F
:100A4000DB00C91A8D46B960081C002102F083F84A
:100A5000227833789A4203D001F01AFE337823705B
:100A60001C4D00222B689A6001F0C0FE041C01F0AE
:100A700046F8A04204D0201C01F060F8022423E0D4
:100A8000B9687868FFF720FF2B6838601B7D041C6D
:100A9000FB6001F0CDFDF968814205D02C6801F0C2
:100AA000C7FD207503240FE02B680B4A996891421B
:100AB00002D09A6801329A603B68002B04D101F0A1
:100AC000A1FD33788342CFD0201CBD4605B0F0BDD8
:100AD0004C02002000000020FFFFFF7FF0B589B02E
:100AE0000793002411AB0E1C1C57151C069001F037
:100AF000F7FE0F9B05909A000021301C02F02BF8A6
:100B0000174B201C03211F6801F0CCFA059A3864AA
:100B10001778201C002F09D0032101F0BDFA301CEA
:100B200012990F9A01F030FF013FF2E701F04CF803
:100B3000071C201C01F05CF8291C01900E9A0698F5
:100B40000F9B0097029401F0E3FE059A301C137886
:100B5000291C0093079A0F9B01F024FF09B0F0BDF8
:100B60000000002010B50D4B0C1C1B683F331B7898
:100B7000002B01D000230370007800280CD001F076
:100B8000AFFE2378027C00209A4202D30133237007
:100B900003E02070012000E0207010BD0000002064
:100BA000F0B58FB00691089001F09AFE079001F021
:100BB000A3FE041C01F0A6FE314D071C2B68187D16
:100BC0000490002853D108982E4E191CDB69009020
:100BD0003068079A4068029401907C6824310232A0
:100BE0000394069800F01CFB33680BAC5B6809901B
:100BF000059301F019FF201C04990C2201F0ABFFB2
:100C00000599069ACBB26370A3707C2301205B42E6
:100C1000207063710092049A211C131C012001F0C2
:100C2000ABFD2B68079C181C996A5A6A4630122340
:100C3000E35E00F021F92B68049C181C191C9A6AC9
:100C400046305B6A47310094FFF78CFF002813D1D0
:100C5000099C002C0BD131682B684968BA681B6865
:100C60000091692101910898069901F0B3FE069858
:100C700000F03CF9002000E001200FB0F0BDC046BC
:100C8000000000204C02002038B50C1C051C01F0AF
:100C9000D1FE094B002118681822243001F05BFFB7
:100CA000211C2868FFF77CFF041E03D100F052F9D5
:100CB00000F04AFA201C38BD000000207047704741
:100CC000684BF0B51B688FB05B686A469C00261CB9
:100CD0000A36F608F60000AF921B9546F8617A6274
:100CE000101C0D1C221C00213B6201F034FF6B46DE
:100CF0009B1B9D46181CFF21221C7B6101F02BFFD2
:100D00003B6A6A460733DB08DB00D21A95463A6134
:100D1000684600213A6A01F01EFF6B469B1B221CAD
:100D20009D46181C0021BB6101F015FFFA69142AC9
:100D300002D0172A04D04AE0B869002101F02AFB4A
:100D4000002D02D1484B1B689D7C043C2E1CBC60CE
:100D5000002E3CD00020092101F09EF93D6ABC68BC
:100D6000013D6B1C31D000F0BFFA3E4B1B685B6845
:100D70009D4207DA031C2C332B301A780378D31AE0
:100D8000DBB2FB60394BF9681B68DB691859FFF768
:100D900065F97B6A1A59031E934200D2131C7A6AC2
:100DA00013517A691359984200D9181C7A6A7B69E1
:100DB00012591851101A7F23FD2801D84008C3B2D8
:100DC0003A69043C5355013DCBE7013EC0E7FA695F
:100DD000142A08D0172A27D1FFF771FF3A69012496
:100DE0007A62251C22E03C6A013C1BD3BB69A5004A
:100DF000EB580621D803800D0A235843FFF77CF9EE
:100E00007A6A061C5051BA69AB5C5B065B0EEBD08C
:100E1000642058430621FFF76FF97B6AC0118619D9
:100E20005E51E1E7FFF74AFF00240425381C00214A
:100E30000C222C3001F08FFE01232C22D3553A6A6C
:100E4000E401D3B22D22D355381C2E22D35525438D
:100E500031232C30796ADD5501F034FCBD460FB0EA
:100E6000F0BDC0464C0200202404002000000020F9
:100E700008B501F02DFB08BD10B5002A02DD8A1867
:100E8000D40F06E00024A24203D10124994200DBE2
:100E9000141C047010BD0000114B642210B51A80A0
:100EA00000F066FE00F0E4FB00F07EFB00F0AEFA1E
:100EB00000F0D6FA00F054FB01F05EF9041C00F0DB
:100EC0007DFA084B1B681A78074B1B68002A01D073
:100ED000032200E002221A6162B6201C10BDC04647
:100EE000BC000040300400205C00002038B5104BEE
:100EF000041C1D680023AB60FFF718FB037D002B6B
:100F000014D10C4B1B685A68531C9B00EB18083318
:100F1000013A0BD391006058002802DD1860615837
:100F200001E0002119601962043BF1E738BDC046B9
:100F3000540200204C02002038B5041C081C002A72
:100F400007D0D118584362434D1010184019FFF7CD
:100F5000D3F838BDF0B5784B8BB01C6801F0DAFBE4
:100F6000764E0023A36033685D68FFF7DFFA744BA9
:100F700036681B6805900393724B099618785B7866
:100F80006E1C0493231D5A19B600171C9E19069057
:100F90003B370436013D00D2C7E0099A52689542BA
:100FA0000CDA0598037D002B06D1039A039B127877
:100FB00007925B78089307E0012B05D10398039A09
:100FC000C0780790127908923368002B12D03069EC
:100FD00000280ADC069A002A07D10498002804D1C8
:100FE000079A934206DA306004E00898834201DAF7
:100FF00000233360316800294FD0002D14D1A36C39
:10100000962201332565A3645200934205DDC8236F
:101010005B000122A364069202E0069B002B1AD01B
:10102000231C0022403315E0012D14D100236365F9
:10103000E36C96220133E3645200934204DDC8233B
:101040005B00E364049502E00498002803D0231CAD
:10105000002241331A703B787F2B01D001333B7063
:101060000022BA560292022A08DD3069431ADA17C2
:101070009B1853400A22FFF75FFF30600398029AE3
:1010800043799A4203DC01235B42336002E0A368A8
:101090000133A36000233B7144E003980022BA5659
:1010A00043799A421DDD3369002B3BD03A790132F6
:1010B000D2B23A71817952B28A4206DD05993C3149
:1010C0000978002901D139702CE0052A04DD059A40
:1010D0003C321278012A23D03360A3680133A36025
:1010E00020E0002D0DD1059A05213C321278236DA8
:1010F0004A43934202DA0133236511E0A564069561
:101100000EE0012D0CD1059A05203C321278636D5A
:101110004243934202DA0133636501E0E1640491E2
:1011200000233B70013F043E34E7064B069A0498C7
:101130001A7058700BB0F0BD540200204C02002011
:101140004004002080020020F0B5324B85B01E68BC
:1011500001F0E0FA01F0D8FA2F4B00901B685F68AD
:10116000FFF7E4F97C1CA400341901907D1E0834BB
:101170000F231F406B1C46D0274B00221B68596869
:1011800003AB1A809A708D4203DA01990A7D012A15
:1011900003D11A7840210A431A7003AB1A780F2141
:1011A0008A433A431A7021692268002907DC002A21
:1011B00023DD1878802149420143197001E0002A9B
:1011C0001BDC0099042904D1FF2A00DDFF225A709C
:1011D00009E0124B9A4200DD1A1C52BA03AB92B2DC
:1011E0005A70120A9A7003A801F09EFA6A46117B9F
:1011F000281CC909012200F00FFD2268013D22616F
:10120000013F043CB4E7B3683371F36001F0A0FA26
:1012100005B0F0BD540200204C020020FFFF00008A
:10122000F7B5071C26480093099C08610D69013C2D
:1012300009943DD30998009B147886009859002C96
:1012400004D00A9B099C1B5758438009089CA45949
:10125000A40B201A002810DD0A24135F984222DB19
:10126000C31A9C460B689C448B6864469C460123C9
:101270009C440C6064468C6015E0002813D00C245C
:10128000135F98420BDCC31A9C464B689C44CB68A6
:1012900064469C4601239C444C606446CC604B6988
:1012A000984200DA4861B851A842BDDA281CBBE771
:1012B0000620135EE817DA0F9D425041C0B2FEBD12
:1012C0000080FFFF014B18607047C04630040020CB
:1012D000014B18687047C04630040020014B18606D
:1012E0007047C0462C040020014B18687047C04668
:1012F0002C040020014B18687047C0465C00002099
:10130000F0B51E4B1E4A1F7815781E4A1E491678E6
:101310001E4AFFB214781E4AEDB212780878197886
:10132000F6B28C46191C6346E4B2D2B2C0B2AA2B04
:1013300006D1184BED19AD191B78EDB29D4202D0C4
:101340000E4B002208E0144B121912181B78D2B26F
:101350009A42F5D101200FE01878013312180F4896
:10136000D2B28342F8D109780020AA2903D1187893
:10137000101A42425041C0B2F0BDC04650000100B8
:1013800051000100520001005A0001005800010004
:1013900059000100530001005B0001005F000100E3
:1013A00080235B040022188059809A8019890120CB
:1013B00001431981C046988980B27047104BC02202
:1013C000920098580F49014099509958FF20814345
:1013D000402001439950985880210002000AC90515
:1013E00001439950042201211A60196008211960F3
:1013F000FC3300215960044B19690A431A61704794
:1014000000E100E0FFFF00FF00ED00E013B5002267
:1014100000920192104A6846126801AB148E2E3277
:10142000117842787F20824322200243684642702E
:1014300000988022D205506218882405000B240DE4
:101440000003204318800198044B090303400B4319
:10145000A832136013BDC0462C040020FF0FF0FF1C
:101460003C4B70B51E688024331CE4052A33197880
:10147000231CC03318687F2290431140021C0425AE
:101480000A43201C311C1A6018312A1CD83001F084
:1014900059FB201C311C2A1C1C31DC3001F052FB92
:1014A000201C311C2A1C2031E03001F04BFB201C99
:1014B000311C2A1C2431E43001F044FB201C311C77
:1014C0002A1C1031143001F03DFB236B082293439A
:1014D0002363236B02222B432363236B76199343ED
:1014E0002363236B012213432363F27FA16C013A30
:1014F000194BD2B292030B401343A364A26C802316
:10150000DB031343A364231CD4331968F022D202F3
:101510000A431A601968FC2252040A431A601A68C6
:1015200060218A4320210A431A60A26C0B4B1340AE
:10153000802292041343A364B43423680F2293439C
:101540001D4325602368F022934340221343236008
:1015500070BDC0462C040020FF3FC0FFFFFFFFC04E
:101560008023DB0500221A659A67012252425A66DF
:101570007047000008B503480021102201F0EBFA83
:1015800008BDC04620010040054B802219681203A7
:101590000A431A601968034A0A401A607047C04635
:1015A000B4000040FFFFF7FF70B5264E04223468F8
:1015B0002548211D01F0C6FA211C083104222348C8
:1015C00001F0C0FA211C0C310422214801F0BAFAC2
:1015D000211C103104221F4801F0B4FA211C80257F
:1015E000143104221C48ED0501F0ACFAFFF788FE27
:1015F000002823D033681B781B071B0F0F2B0AD141
:10160000164B1A780F2A06D81A786968144B5205B7
:101610000B4013436B60134B1A689205920F012A1B
:101620000CD1114A11780F2908D811780F221140D6
:1016300018680E4A490302400A431A60FFF7A4FFE4
:1016400070BDC0462C040020080000400C00004083
:1016500010000040140000401C0000405100010038
:10166000FFFF1FE0B400004058000100FF1FFEFF15
:1016700008B5144B144A19680A401A601968802288
:10168000D2020A431A601968104A0A4080214902AE
:101690000A431A601968802252010A431A601968C5
:1016A0000B4A0A401A6019680A4A0A408021490018
:1016B0000A431A601968084A0A401A60FFF764FF73
:1016C00008BDC046B4000040FFFFFDFFFF1FFEFF46
:1016D000FFF7FFFFFFFCFFFFFFFBFFFF0549802334
:1016E0000968DB0509695A6E0120884082435A6601
:1016F0007047C0465C000020054A80231268DB0565
:1017000012690120596E9040021C0A435A667047C4
:101710005C0000208023DB055A6E034B01201B6810
:101720001B69DA40904370475C0000208023DB0592
:10173000020280B2998F120E98873E3319781A7080
:101740007047000072B6054B1B5C002B03D1C046EE
:1017500062B630BFF6E762B67047C046100400209C
:1017600072B6044B1B5C002B02D1C04662B6F7E791
:1017700062B6704710040020F0B587B003AF7960FF
:10178000191CBA609C46039001C101229300FE58C7
:101790006446002023689E420DD80D1C0192019BD7
:1017A000043D834205DD2B686B60019B013B019387
:1017B000F5E7266004E001300E6004349042E9DB76
:1017C00001320431032AE1D107B0F0BD30B50C4934
:1017D0000C4B09681A682D310C780B49137909688C
:1017E000013B0BD301254D5710796843C018800089
:1017F00008188C300568E5400560F1E730BDC0464B
:101800002C040020300400205C000020F0B5802370
:101810008FB00122DB0500AF5A700320FFF792FF63
:101820004A4B69461B6803241B795BB27B62786A6A
:101830000C2343430A33DB08DB00C91A8D466B4691
:101840003B6283009808C1006A465B425218B86147
:101850007B613961FA61013C2ED37D6A013D26D35B
:101860003B4B3A4A1B6812680121595612790326EC
:101870004A43311C61435219891808318900C958FB
:10188000A01D3960A119714346438918B218083167
:10189000083289009200C958D2583B1C2C33386852
:1018A000FFF76AFF396BFA69AB00D150D6E7FB69E5
:1018B00078691B18FB61CEE77C6ABA69013C396A1A
:1018C000A500920000234D19FA617B62204E601C36
:1018D00034D0F869396928586958B86079603B1C78
:1018E0002868B9687A682C33FFF746FF174A3668CC
:1018F00012687378127959B24A43A21822329200C0
:10190000386BB2185060002C15D1002B13D1114840
:10191000231C211CF218803212688A4200D9111C43
:10192000824200D2101C0C3B1A1C6C32F2D17B6A32
:10193000091A5B187B62013C043DC7E73368796A8A
:101940009C33BD4619600FB0F0BDC0463004002086
:101950005C000020FFFFFF7F08B5FFF757FFFFF790
:1019600035FF064B1B6844331A78013AD1B2100692
:1019700001D4197001E002221A7008BD0000002095
:1019800010B58023DB0599681A4A0A409A605968A5
:10199000194A0A405A605968184A0A405A60184A57
:1019A0001268127D012A1ED15A680F21154C8A43F4
:1019B0005A60226880231B0113432360FFF7E4FD74
:1019C000226880239B0213432360FFF7DDFD22681A
:1019D0000D4B13402360FFF7D7FD22680B4B1340DC
:1019E0002360FFF7D1FD8023DB059968084A0A4090
:1019F0009A6010BDFFFF7FFFFFE1FFFFFF1FFEFFAB
:101A000000000020B4000040FFFFFBFFFFEFFFFFDE
:101A1000FFFFFEFF08B5044B00221A70FFF7B0FF6E
:101A2000024B01221A7008BD100400203F00004044
:101A300070B58025ED05AA6880235B021343AB6077
:101A4000244B254E1B681B7D012B23D1234C802367
:101A500022685B0113432360FFF796FD2268802311
:101A6000DB0213432360FFF78FFD22681C4B1340FA
:101A70002360FFF789FD22681A4B13402360FFF7AC
:101A800083FD336869681A780F2399431A400B1C49
:101A900013436B6032680123907854781840802398
:101AA000DB056409C00020430F495C684003214006
:101AB0000143596051785868C9060C4A090F490218
:101AC00002400A435A609968802212040A439A60CD
:101AD00070BDC046000000202C040020B40000406F
:101AE000FFFFFDFFFFF7FFFFFF1FFEFFFFE1FFFF0F
:101AF00008B50020FFF726FEFFF79AFF08BD8023F8
:101B0000DB055868400DC0B2704730B58023DB0557
:101B10005A680F23134083420ED001DA013300E0EC
:101B2000013B8022D20555680F211C1C8D430C40BF
:101B3000291C21435160EEE730BD000030B5802301
:101B4000DB055B685B0DDBB283420DD001DA01334C
:101B500000E0013B8022D20555680449DCB26405EF
:101B6000294021435160EFE730BDC046FFFF1FE031
:101B700038B5114C80232568DB051048291C042248
:101B80005B6800F0DFFF28780007000F0F2800DDFA
:101B90000F200B4B1B68D860C0B2FFF7B6FF23685D
:101BA0005888C004000EFFF7C9FF8023DB05596881
:101BB000044A0A405A6038BD2C040020040000404A
:101BC0005C000020FFFEFFFF044B1B681A1C2C3238
:101BD0002B3310781B78C01A013070472C0400207A
:101BE000024B1B682E3318787047C0462C04002027
:101BF000024B1B682D3318787047C0462C04002018
:101C000008B5FFF7B5FFFFF7CFFCFFF7FFFBFFF7C6
:101C100027FC00F0B1FA08BD10B50C4B01280AD121
:101C2000002A08D008401C68C2050948204010431B
:101C30001860084B08E01C680120074A08400006AD
:101C4000224002431A60054B197010BDB4000040D9
:101C5000FFFF7FFF7D020020FFFFFFFE7C020020D0
:101C600038B5184B01251B78002B02D100F0F0FC91
:101C70000540154CEB05154A256815401D43144BCE
:101C800025601B780125002B03D100F0E1FCE84022
:101C900005402B060F4A256815401D43256000F0BE
:101CA000DFFC031C20680F252B40A843184320604D
:101CB00000F0E2FC054028012568F0239D43054320
:101CC000256038BD7D020020B4000040FFFF7FFF8B
:101CD0007C020020FFFFFFFEF0B58023DB05996C3E
:101CE000802212060A439A649A6C87B01A4300AFA6
:101CF000041C9A6449D16D462A4BBD601A687F2343
:101D00001A40131C0733DB08DB00EE1AB5466D469C
:101D10003D6155002E1C0836F608F6006846801B0B
:101D200085467A616A46FA60211C7A69386900F052
:101D300012FF211C2A1CF86800F00DFF6B469B1B4C
:101D40009D466846211C2A1C786000F004FF7E69CD
:101D5000B300FE687619B446043B013C181D12D04E
:101D600011483D691A1811687E691268A819090B93
:101D700001551205C9B27E68120D60006546490022
:101D80002A528A53E8E7BD68AD468023DB059A6C8A
:101D9000BD46520052089A64996C044A0A409A64FB
:101DA00007B0F0BDC000004000000240FFFFFFBFD1
:101DB0000002064B000A0138002258609A60052292
:101DC0001A60C0461A68D103FCD5704710E000E0E5
:101DD000044B054900221A6059609A6005221A6076
:101DE0007047C04610E000E0FFFFFF0010B5802202
:101DF000D20554680F21640C0C400823012C04D038
:101E00005468640C21405B1ADBB21C1C0A4B5168FD
:101E10001B680F229B681140591A084B89185943B7
:101E2000074B4443C9180748FEF766F9C1B2201CA6
:101E3000FEF762F910BDC0465C000020F9160000F4
:101E40004E250000400D030010B5044C0448A36863
:101E5000C01AFFF7CBFF0023236010BD10E000E0A5
:101E6000FFFFFF0008B50A4800F060F9FFF7A0FF88
:101E7000084B094A934209D28032D21A2021832A80
:101E800000DC9110891089005B18F2E708BDC0469C
:101E9000801A06004804002080070020014B1868C3
:101EA0008C3070475C00002010B58024E405A26CE3
:101EB00080231B061343A364A36C80222343A364E3
:101EC00000215200054800F046FEA36C5B005B0851
:101ED000A364A26C024B1340A36410BD0000024037
:101EE000FFFFFFBFF7B53A4B80241D68E405AA79D0
:101EF000A168D206374BD20F12050B401343071CC3
:101F00000426201C291CA360321C1831D83000F094
:101F100019FE201C291C321C1C31DC3000F012FE82
:101F2000201C291C321C2031E03000F00BFE201C4C
:101F3000291C321C2431E43000F004FE2B1C2A330F
:101F40001978231CC03318687F2290431140021C6B
:101F50000A431A60183B1A68298E120B0905090DED
:101F600012030A431A602A1C2E32186811781A4A82
:101F7000090302400A431A602B1C32331A78A16C01
:101F80003F26164B32400B4012061343A3642B1C12
:101F90002B331B782C3501932D78FFF785FFA26C2E
:101FA00080239B011343A364A36C019AB343324083
:101FB0001343A36435400A4BA66CAD011E402E436B
:101FC000A664381C00F014F9064B1B685F70F7BD5F
:101FD0002C040020FFFFEFFFFF0FF0FFFFFFFFC00B
:101FE0003FF0FFFF5C000020F7B5244A244B126845
:101FF0001B6852685961013A9961DA61051C0C1C31
:1020000000F000FB002807D0092C2AD11D4B00222C
:102010001B6844331A7024E01B4B1B680093009923
:10202000184B18680B79013BEED3009E174FF2183E
:102030001E1C1236B60031585279C903890D920020
:102040000191D2191768B90A019F89020F431760DD
:10205000375C11680E4E7F06FF0B0E403E43166044
:10206000E1E7281CFFF73EFF0A4B0022DA708023CD
:10207000DB051A705A7001221A70F7BD4C0200205D
:102080005C0000200000002030040020000100401F
:10209000FF03FEFF1004002008B5FFF7A5FFFFF7C0
:1020A0005BFC08BD38B5051C0C1CFFF791FE211C1C
:1020B000281CFFF799FF80230122DB055A700320BB
:1020C000FFF74EFBFFF7A2FBFFF780FBFFF7BCFE1D
:1020D00038BD000038B58022D2055168051C506813
:1020E0000F23400C194018400824012804D05268DE
:1020F000520C1340E41AE4B20F23591A074B084854
:102100005943084BC918FDF7F7FF074B211C5843EB
:10211000FDF7F2FF291CFDF7EFFF38BDF9160000AF
:10212000400D03004E25000040420F0038B58022CC
:10213000D2055168051C50680F23400C1940184007
:102140000824012804D05268520C1340E41AE4B267
:102150000F23591A054B06485943064BC918FDF77A
:10216000CBFF211C6843FDF7C7FF38BDF9160000FF
:10217000400D03004E25000038B5002118481022FC
:1021800000F0E9FC174B19680423013BDBB2FF2B7D
:102190001ED013489A001218146818072401240945
:1021A00020431060156807240F481C40A4042840F1
:1021B000204310600A799A42E7D9CA185279084830
:1021C0009200121814688020800220431060DCE71F
:1021D0008023DB05196B054A01200A401A6338BDCC
:1021E0000001004030040020FFFFE3FF1FFEFFFF5F
:1021F000064B1B681A799B181979054B1F22186822
:1022000011409043021C0A431A60704730040020BA
:10221000D4000040104BF0B51C68013A1AD3A31843
:102220005B790E4D9B005B1925794D43AD18AD00D0
:1022300045192E68F7031E68BF0DB60AB6023E4365
:102240001E602E781F68064D7606F60B3D4035431E
:102250001D60E2E7F0BDC0463004002000010040F0
:10226000FF03FEFF70B5041C081C0D1CFFF7ACFC3F
:10227000061C281CFFF7B4FC0C4B80211B68C90509
:102280005B8873434343DB112360896C8A0402D566
:102290004343DB092360236873225A43D2096260F7
:1022A00066225343DB09A36070BDC04630040020A2
:1022B000F0B585B0039300260DAB051C0C1C0292F3
:1022C0009E57FFF7EBFD071C641056D00C9A281C94
:1022D000311CFFF79FFF301C0921FFF785FEFFF738
:1022E00095FA2A4B1B68019300230C998B4241DA23
:1022F00001980B9902797243D218920001291BD1DF
:10230000B9580298814205D9A9180A68D003800DEE
:10231000001B07E0039881422AD2A9180A68D0035B
:10232000800D20188005C00B8446194A08680240B9
:102330006046104308601BE0B9580A98814206D9EC
:10234000AA18117800924806400E001B08E00A986F
:1023500081420DD2AA18117800924806400E20182A
:10236000844662467F2002408143009811430170F9
:102370000133BAE7FFF792FDA6E7FFF78FFD301CA8
:102380000921FFF731FE05B0F0BDC0463004002042
:102390007F00FEFFF0B589B00023051C05A80C1CCA
:1023A000059306930793FFF75DFF164B19680E79A7
:1023B000331C013B0CD30A7913486243D2189200B4
:1023C000AA18176838437F27106038431070F0E769
:1023D0000698012300900193281C059A079B0296FA
:1023E00003940A49FFF764FF069A079B00920222B2
:1023F000019202960394281C7F21059AFFF758FF4B
:1024000009B0F0BD3004002080FF0100FF03000090
:10241000014B18607047C0463404002070B5FEF7C9
:1024200079F8061CFEF754FF274C051C311C206868
:10243000102200F087FB2B7921688B75234B616993
:102440001A1C0832A26080226360D2059269187E4D
:10245000120A0A70597EE26809020143987E00045C
:102460000143D87E00060143080A11705070080C21
:10247000090ED170597F9070187F09020143987F2F
:1024800000040143D87F00060143080A117150710E
:10249000080C090ED171191C2D331B782C310978C9
:1024A0001B020B4313721B0A5372A3699071022221
:1024B0009A700F22DA70E3691A6800221A60042207
:1024C0001A715A7170BDC04660000020D02F000004
:1024D00038B5FEF71FF8FEF7FBFE134CA56A00F0B7
:1024E000D9FA6860FFF79AFF104B226B1B681B88B4
:1024F000190A517113710221042B03D00021092BF9
:1025000000D10321231C3C33917101225A70002217
:102510009A7000F0BBFA064B58608023DB059A697D
:10252000236C1A7038BDC0466000002034040020BF
:102530002403002008B5084A916C4B780749DBB2A8
:102540000B72012B05D0022B05D1536C01225A705E
:1025500001E0FFF7C3F808BD60000020240300205D
:10256000094B10B51B7A094C012B05D0022B05D164
:10257000626C0023537001E0FFF7BEF8636B7F21AC
:102580001A788A431A7010BD2403002060000020CE
:10259000F8B5194D0024194E337A012B07D0002BC2
:1025A00018D0022B17D1164B5B6C5C7813E0FFF749
:1025B000B1F8041C002D0BD1FFF79EF82E23FF333A
:1025C000013B002B01D0C046FAE7FFF787F80A4D20
:1025D000013D00E01C1C0A4FBA6C5378327A9A42D3
:1025E00006D0FFF7BDFFBB6C044A5B78137201E0B5
:1025F000002CD0D1F8BDC046FF2C010024030020E0
:1026000060000020024B9B6C1878C0B27047C04637
:1026100060000020024B9B6C9878C0B27047C046A7
:1026200060000020014B9B6C987070476000002098
:10263000024B9B6CD878C0B27047C0466000002047
:10264000024B9B6C587AC0B27047C04660000020B5
:10265000024BDB691868C0B27047C04660000020BA
:10266000044AD36992691979D078814201D21879E4
:10267000C0B2704760000020044AD369926959795A
:10268000D078814201D25879C0B2704760000020F2
:10269000034BA0225B6C1A701A78A02AFCD07047FA
:1026A00060000020024B1B6D1878C0B27047C04616
:1026B00060000020024B1B6D9878C0B27047C04686
:1026C000600000200E4B30B51A6DFF2414700D4CC5
:1026D0005865216005788478996A6C43057940795A
:1026E00064194006400E60430860586CA0210170D8
:1026F000996C1378FF2B02D10B78022BF9D030BDE7
:102700006000002024030020014B1B6818887047DC
:102710003404002008B5FFF73BFF024B0022DA60CB
:1027200008BDC0462403002070B5074B074C1A6B48
:10273000E668011C9579986B2A1C8019751900F0C0
:1027400001FAE56070BDC04660000020240300204F
:1027500008B5074BDB68002B09D0064ADBB2506B8B
:102760007F21194001703C329370FFF7E3FE08BDF2
:10277000240300206000002073B56C46E271194A02
:102780000734D56D2E7886422AD1FF2028709366B3
:10279000131C9C331B6820789B688000116654666C
:1027A0001871114B06980C7818608878936A60430A
:1027B0000C79497900194906490E41431960516C59
:1027C000A0230B70D16D936C0A78FF2A02D11A787E
:1027D000002AF9D00A78FF2A02D11A780A2AF3D0FF
:1027E00073BDC0466000002024030020014B5B6CD9
:1027F00098787047E0000020014B5B6C9870704740
:10280000E0000020024BDB689872000AD872704723
:1028100060000020014B5B699872704760000020E7
:10282000002303600B601B4BF7B59A4230DC131298
:10283000194C122B1BD89B00E418E46E002C27D0F7
:10284000E368013B5D1C23D0D5B2019565681E1C71
:10285000EF5C019D013BED1BF4D42768B300DB590D
:10286000002B15D05B190360A3689B5D0EE0E36A43
:10287000666A013B0CD35D00755B551BF9D4266A73
:102880009B00F25852190260A26AD3585D1B0D607A
:10289000F7BDC046FFEF000060000020C02208B571
:1028A000D2000B4B904206D15B6C1A78052A0DD0F2
:1028B00005221A700AE05B6B84221B7892005B068B
:1028C0005B0E9B18984201D1FFF74AFE08BDC04637
:1028D00060000020014B18607047C046380400209B
:1028E000014B18687047C04638040020014B18603F
:1028F0007047C0463C040020014B18687047C04632
:102900003C040020014B18687047C046500200206C
:10291000F7B5151C01900E1C1A1C0024013A11D3A6
:102920000198910041180F680978F803800D0A2773
:102930007843490684466444490EEFD07943C90977
:102940006418EBE77788002F02D140236B600CE01E
:10295000191C201CFDF782FBBF01011C381CFDF770
:102960007DFB6E2800DD6E2068603379642253435E
:102970000898099A434313413278002A02D06F68BD
:102980007B439B11AB60F7BD70B59300C018C918AD
:102990000023043B013A04D3C558CE58AC19C450A7
:1029A000F7E770BDF7B5051C0F1C01921C1C013C1C
:1029B0000ED3A600A8590899FDF750FB3B78002BD1
:1029C00003D0019A1357584380118003A851EEE7B2
:1029D000F7BD0000F8B5051C0E1C101C191CFDF7F6
:1029E0008BFB069C0A4B1968A300ED18F71800230F
:1029F000043B013C0AD30A228E5EFA58B24200DA46
:102A0000321C4243EE58B21AEA50F1E70120F8BDF9
:102A10003804002008B5034B18600078FFF7FAFE71
:102A200008BDC04640040020014B18687047C046EE
:102A300040040020014B18687047C0465402002033
:102A400038B5114C102520682A1C0021103000F0E8
:102A500082F820682A1C0021203000F07CF82068D1
:102A600004252A1C0021403000F075F820682A1C3B
:102A70000021443000F06FF82068002140195422F2
:102A800000F069F838BDC046540200200048704785
:102A9000E22D0000B020704700487047062E00006D
:102AA000582301305843014BC0187047E22D0000F5
:102AB00008B5FEF70DFC024B02791B685A6008BD91
:102AC0004C02002010B5094C201CFEF7FBFB201C1B
:102AD0000E30FDF719FD201C2230FFF799FCFFF79F
:102AE000E7FF0348FFF702FF10BDC046E22D0000DC
:102AF000922E00000D4B10B51B681C785823013432
:102B00005C430B4BE4180B4B201C1C60FEF7E6FBF0
:102B1000201C3430FDF704FD201C3630FFF7DAFEB0
:102B2000201C4E30FFF776FF10BDC0465802002033
:102B3000E22D000044040020014B1B681878704708
:102B40005802002010B50023934203D0CC5CC4543B
:102B50000133F9E710BD031C8218934202D01970AB
:102B60000133FAE77047FFFF040000200000000077
:102B7000FF00000000000000000000000000000056
:102B80000000000000000000000000000000000045
:102B90000000000000000000000000000000000035
:102BA0000000000000000000000000000000000025
:102BB0000000000000000000000000000000000015
:102BC00000000000840200206B03002000000000D1
:102BD000000000005F0300204102002036020020B8
:102BE00001020020440300202403002028010020CB
:102BF0003403002002000000580300205703002087
:102C00004B03002007000000430300203402002093
:102C100020020020100200200D0200200000000011
:102C2000050200204A030020000000000000000010
:102C30000000000000000000DC010020C8010020AE
:102C4000000000000000000000000000B4010020AF
:102C5000A00100200000000000000000880100200A
:102C6000000000006C0100200000000000000000D7
:102C70000000000054010020400100202C01002031
:102C8000FD010020F8010020000000003E030020AC
:102C900000200060240100203C0300203C010020B3
:102CA0000100000005000000A00000203D030020FE
:102CB0005001002001000000010000001801002068
:102CC00067010020640100200300000004050700E4
:102CD00010200000B8000020810100207C010020AD
:102CE0000500000008010C01040010203031000034
:102CF000AC0000209B010020980100200300000090
:102D000008030C001020000078000020B201002011
:102D1000B00100200200000004060010A400002002
:102D2000C6010020C40100200200000002140010AF
:102D300090000020D80100209C000020030000002B
:102D40000010110060000020F2010020EC010020C2
:102D5000060000001708080C0A0B002030405070D5
:102D6000010000000000200601000100000020100A
:102D7000020E000000FF000000200302600090002F
:102D80001C0200200060090100010000000000009A
:102D900000000000000000000000000005000048E6
:102DA0003248314D45000000004D49500000000000
:102DB0000003050090030020A4030020B0030020BE
:102DC00008040020FFFFFFFFFFFFFFFFFFFFFFFFE3
:102DD000510148324831504152413030303030306A
:102DE00030300000B80B020001000000200B14037B
:102DF000323031375F4A355F4B45590000000000E3
:102E00000A1E0A0009000F42883930008118990310
:102E100040076000000091070000000000007C8A6D
:102E200005001B870101010131F001161933000073
:102E30001E0914038000000005000F4288213000A5
:102E4000811899034007600000009107000000000E
:102E500000007C8A05001B870101010131F0011689
:102E6000193300001E0914038000000005005A3CBD
:102E700003000100B8053F011E00E2FF1E00E2FF53
:102E8000020088FFDC050000783C8200000201009F
:102E900000004021FFFFFFFFFFFFFFFFFFFFFFFFDD
:102EA000FFFFFFFFFFFFFFFFFFFFFFFFFFFFFFFF32
:102EB000FFFFFFFFFFFFFFFFFFFFFFFFFFFFFFFF22
:102EC000FFFFFFFFFFFFFFFFFFFFFFFFFFFFFFFF12
:102ED000FFFFFFFFFFFFFFFFFFFFFFFFFFFFFFFF02
:102EE000FFFFFFFFFFFFFFFFFFFFFFFFFFFFFFFFF2
:102EF000FFFFFFFFFFFFFFFFFFFFFFFFFFFFFFFFE2
:102F0000FFFFFFFFFFFFFFFFFFFFFFFFFFFFFFFFD1
:102F1000FFFFFFFFFFFFFFFFFFFFFFFFFFFFFFFFC1
:102F2000FFFFFFFFFFFFFFFFFFFFFFFFFFFFFFFFB1
:102F3000FFFFFFFFFFFFFFFFFFFFFFFFFFFFFFFFA1
:102F4000FFFFFFFFFFFFFFFFFFFFFFFFFFFFFFFF91
:102F5000FFFFFFFFFFFFFFFFFFFFFFFFFFFFFFFF81
:102F6000FFFFFFFFFFFFFFFFFFFFFFFFFFFFFFFF71
:102F7000FFFFFFFFFFFFFFFFFFFFFFFFFFFFFFFF61
:102F8000FFFFFFFFFFFFFFFFFFFFFFFFFFFFFFFF51
:102F9000FFFFFFFFFFFFFFFFFFFFFFFFFFFFFFFF41
:102FA000FFFFFFFFFFFFFFFFFFFFFFFFFFFFFFFF31
:102FB000FFFFFFFFFFFFFFFFFFFFFFFFFFFF5101CD
:102FC0004D425401483248310000000000300000FA
:102FD000EEEE030351015101EEEEEEEE000B0B0C91
:102FE000002209012E0200002111162008311500CF
:102FF000000000000000000000004000A85B00008E
:00000001FF
