:10000000000800205D040000000000000000000067
:1000100000000000000000000000000000000000E0
:1000200000000000000000000000000000000000D0
:10003000000000000000000000000000BD01000002
:10004000C101000000000000DD0100001D030000F0
:10005000000000000000000000000000002934D073
:100060000123002210B488422CD301242407A1428A
:1000700004D2814202D209011B01F8E7E400A14247
:1000800004D2814202D249005B00F8E7884201D3E2
:10009000401A1A434C08A04202D3001B5C082243BA
:1000A0008C08A04202D3001B9C082243CC08A0422B
:1000B00002D3001BDC082243002803D01B0901D017
:1000C0000909E3E7101C10BC7047002801D000208C
:1000D000C04307B4024802A14018029003BDC046C5
:1000E000D90000000029F0D003B5FFF7B9FF0EBC1E
:1000F0004243891A1847C046002941D010B4041C55
:100100004C40A44601230022002900D54942002882
:1001100000D5404288422CD301242407A14204D2B6
:10012000814202D209011B01F8E7E400A14204D296
:10013000814202D249005B00F8E7884201D3401AAD
:100140001A434C08A04202D3001B5C0822438C08CF
:10015000A04202D3001B9C082243CC08A04202D339
:10016000001BDC082243002803D01B0901D0090929
:10017000E3E7101C6446002C00D5404210BC7047D9
:10018000002806D003DB0020C043400801E08020A7
:10019000000607B4024802A14018029003BDC04601
:1001A000190000000029EBD003B5FFF7A7FF0EBC34
:1001B0004243891A1847C0467047C046FEE7000010
:1001C00008B5044B01221A70034B00221A7002F08A
:1001D00077F908BDEC0300203F00004038B54A4ADB
:1001E000A023DB0512681B6992781B011B0F002AF4
:1001F0000ED0464A1278002A0AD18022D2055068D1
:1002000043490140C020000301435160BFF34F8FB9
:10021000A025ED05082B0DD13E4900230B604B6056
:10022000AB8A5BBA8B60081C8A680C30103103F013
:10023000EBF95AE0022B0DD1364BD968002954D086
:100240005A681869824250DA5A68501C58602B7DEF
:100250008B544AE0042B2ED12E4CE368002B28D07F
:10026000226821698A420BDA22689B5CAB61A36831
:100270002068C01880B203F011FA2368013316E039
:10028000A2682368201C211CD2180C30103103F006
:10029000BBF9E368002B0CD0A16822688A18A26021
:1002A0001B78AB61A06880B203F0F8F901232360EA
:1002B0001BE0AB6119E0012B17D1164B00225A60ED
:1002C0008023DB0559680F22490C1140124A12683D
:1002D0009278D206120F914207D0510458680C4A06
:1002E00002400A435A60BFF34F8FC046A023DB058C
:1002F000DA6801210A43DA60C0468022D9685200D8
:100300000A43DA6038BDC04600000020EC0300203C
:10031000FFFFE1FF9002002008040020F8B501F083
:10032000B3FCC378002B01D0013BC3700123C3563B
:1003300003254557002B02D0012B1BD035E00421AB
:100340004156002931DB344A032614688A00A2187A
:100350009268324C920012191768314A0A241268C6
:100360001457744365196E43711808318900411898
:100370004F601AE004228256002A16DB26490C68D8
:10038000911C890061188968244C890009190E683C
:10039000234903240968C97A49B261434D196C4362
:1003A000A2180A3292008218566003228256002A4E
:1003B00005D080230022DB051A70012228E0827814
:1003C000C2700279013AD2B20271002B06D0012B21
:1003D00012D1114B52B21B68023202E00E4B52B2E4
:1003E0001B6892009A180F4B91681C681F22944357
:1003F0001140221C0A431A6001798023DB05012287
:100400007F2902D80021197002E00749CA70002232
:100410005A701A70F8BDC0460C040020200100403C
:1004200000000020D4000040EC030020064AA02376
:10043000DB051A60054A064B1A60064A064B1A602D
:10044000BFF36F8F7047C0460103004901010200EE
:1004500004000050010F000108000050F8B580238F
:10046000DB055A680F2313404B4A1F2111600133EB
:10047000102B0CD08022D20554680F21181C8C43FD
:100480000840211C014301335160DBB2F0E7002337
:10049000424A43499A188A4204D24249C95804330D
:1004A0001160F5E7404B414A191D043B934203D2CA
:1004B00000221A600B1CF6E7EFF308823C4B191D73
:1004C000043B9A4203D93B4818600B1CF7E7FFF73F
:1004D000ADFF39493948053901F014FC384C394D24
:1004E00001235B4223716371A371E3712B1C3C33C5
:1004F0001A782B1C3D331B7880B21B0213439842A1
:1005000045D103F043F8304B30491888304A8842CF
:100510000BD06E7D18882B7D36023343984204D170
:1005200013889BB223711B0A637113888B421BD003
:10053000EE7DA87D138836023043834214D100201B
:100540000423013BDBB2FF2B07D0224EEF18F65CF1
:100550003F79B742F5D10120F3E7002804D0138892
:100560009BB2A3711B0AE371637922791B021343C7
:100570008B420CD0E279A37912021A43134B9A42B0
:1005800005D0154B1B78312B01D100F0F7F8134B38
:1005900004221A6062B6FEE750000040000000200E
:1005A00090020020D43A000094020020E5030020CD
:1005B00028040020CDCDCDCD00400000000000007B
:1005C000F6030020C03F0000D03D0000FFFF000008
:1005D000BE3F0000D43D00007200010000E100E0D9
:1005E000014B18607047C04600040020014B18689A
:1005F0007047C04600040020014B18607047C04699
:1006000004040020014B18687047C0460000002019
:1006100038B5094C256802F0EBF9E860256802F06E
:10062000EDF9064A2861126823681178044A1268B5
:10063000127C4A431A8138BD0000002004040020C7
:100640000004002008B501F055F9021E05D1044947
:10065000A9230B7102F05EFFFEE7FFF7D9FF08BD8B
:100660003403002008B503F0EFF901F007FB08BDE3
:1006700008B503F017FA03F0EBF901F0FFFA01F007
:10068000EDFC08BD37B5374C0022236801929978FC
:1006900091423DD1DD7803F04FF98378002B02D1F0
:1006A0006BB2013303D121680025CD8010E02368AF
:1006B000D9881A89914203D2D988013189B2D98067
:1006C00003215956012903D0DB88934200D3012529
:1006D0002268D3789D4209D0234900202B1C0E3379
:1006E000021C0B7102F016FF2368DD702368DA78B4
:1006F000002A03D11D4A1268127804E0012A03D1AE
:100700001A4A126852781A71DA6B1B6CD21810E010
:10071000997801290DD1154D29688A781A7102F04E
:1007200043FE002803D02B682268DB78137123680E
:100730001A6C236801A8197902F0EAF8019D041CDB
:1007400002F060FB2D1A002D05DD201C019D02F03A
:1007500059FB281A00E00120019001F099FC01F0FA
:10076000A1FE37BD00000020340300200404002057
:1007700008B503F00BF901F08DF908BDF0B5D9B05B
:1007800002F0D6FD22216944087003F03DF903F020
:1007900067F901F097F8FFF755FF02F0C9FD6D46C4
:1007A0002335041C2870022800D1DFE00D2800D179
:1007B00010E1002800D014E18D4F3EAE3D6802F0FC
:1007C000DBFD3B68A870211C9C72DC723C2209A8EE
:1007D00003F077F9211C6822301C03F072F96D4692
:1007E000211C50222AA803F06CF9F635211C0123A4
:1007F000482218A82B7003F064F940AB199341AB61
:100800001A9355AB1B933BAB1E933CAB1F933AAB78
:1008100020933DAB219315AB2393023324930433F0
:10082000259309AB269311AB279317AB2AAA2893DC
:1008300016AB1D9229931896229503F083F801F0C8
:100840004BFB0524022C15D004D8002C7BD0012CA6
:100850000AD080E0042C57D02FD3052C7BD101F097
:10086000B3FEC0B202F08CFE614B00211868483024
:1008700002F010FC02F04EFF051C02F057FF07903B
:1008800002F05AFF0021061C3C2209A803F019F9C6
:1008900002213B68019118A9029100210391009661
:1008A000181CDB68483004932A1D3EA9079B00F002
:1008B000E1FA052C01D000244DE0002518AE291CDA
:1008C00050222AA83574757403F0FBF86B46F63392
:1008D00001211970B068291C5C2203F0F2F8444B26
:1008E000012118680326483002F0D4FB14250120AA
:1008F000011C02F025FA013D1AA800F011FA002DA2
:10090000F5D1013E002EF1D102F004FF051C02F0EA
:100910000DFF061C02F010FF8446354B2A1C65466D
:10092000083519680095B31C012518AE019502968B
:100930000395081C0969483004911C3240A900F055
:1009400099FA052CB7D1684669462330223118AA96
:1009500000F05CF9041C02F0EBFC6B4623331B78BF
:10096000834200D16EE7FFF703FF3AE0FFF77AFE1C
:1009700002F0A4FC002001F065FFFFF749FE02F041
:100980001BFD02F023FD041E142C10D0142806D8E1
:10099000052809D0062810D101F060FB0DE01728CA
:1009A00005D01D2809D102E001F04AFB05E002F064
:1009B00015FD011C201C00F0F3FD02F0B9FC2B78A2
:1009C0008342DED0FFF754FE002001F03BFFFFF72B
:1009D0001FFE06E002F0F0FC02F0AAFC2B78834236
:1009E000FAD06B4623331B7822226A441370D4E674
:1009F0000000002008B502F0DFFF01F04BF808BD51
:100A000070B503F04FF802F097FF041C02F0B4FC3D
:100A10002B4D2B682E1C9A78824230D098709B7890
:100A2000012B09D16369226AE36063626389A26171
:100A3000E3806379E37022E022490020DF23021C77
:100A40000B7102F067FDE368A2696361E362E3880A
:100A5000201C6381E3782262637100210822183030
:100A600003F02FF8201C00210822243003F029F87D
:100A70002B6800219878C0B202F09EFF10E002F0CF
:100A80005FFC041C02F064FC031C002C0AD0002054
:100A900002F066FC336800219878C0B2FFF7AAFF25
:100AA00001200BE0201C002B08D002F05FFC336813
:100AB00001219878C0B2FFF79DFF032070BDC046AA
:100AC0000000002034030020F0B58DB002AF051CFB
:100AD000B96000204849A623FA60021C0B7102F09D
:100AE00019FDFFF7CFFD281C083000F019F9434C21
:100AF00001236370424E0423E370F32323713368B0
:100B0000211C1A69022002F005FD01F0D9FD786070
:100B100002F070FD7A68824202D090B202F062FD6B
:100B2000FA68281CB96800F01DFD3368F8609A78EF
:100B3000012A09D00422E270672202202271211CBE
:100B4000DA68607002F0E6FC68463268B860032438
:100B5000013CD368022C07D0A1005B581C20C019AF
:100B60004350002CF4D107E0111C5C310020095ED9
:100B70009B68CB187B62EBE73D1C1035211C0C22D7
:100B8000281C02F09EFF01232B7003226B796A70F0
:100B9000AA707F229343042213436B711C23DB1939
:100BA00000930220221C231C291C02F079FC154B07
:100BB000B8681A68144B85469A4202D001F0C6FE06
:100BC000FEE701F07FFA32689378002B05D1201CF4
:100BD000032102F073F801F005FC0120011C02F072
:100BE000AFF8336801201856FFF70AFF002800D13C
:100BF000F868BD460BB0F0BD340300206C00002047
:100C00000000002024040020CDCDCDCD7FB50C1CEC
:100C1000051C161C02F090FE0C2201A8002102F017
:100C200050FF22782B789A4203D002F0C5FB2B7834
:100C3000237002F09FFC041C01F0C6FCA04204D00B
:100C4000201C01F0DFFC05240BE0301C01A903AAE5
:100C5000FFF73AFF041E04D102F06AFB2B788342AF
:100C6000E7D0201C04B070BDF7B501912021071C0E
:100C70004037019B821C0097951E2C88168827B24E
:100C8000BC4637B2BC4505DD2E8014801C785D78EB
:100C90005C701D70009C02320133A242ECD101391C
:100CA0000029E4D1F7BD0000F0B587B0019300261C
:100CB0000CAB171C041C0D1C9E5702F02BFD427E32
:100CC000012E01D1313002782478002C11D02B78FC
:100CD00093420ADC0133104900202B70343E021C81
:100CE0000E71002402F016FC12E000232B70012488
:100CF0000EE0019B094904934F235B425E430920A8
:100D0000203603AA039705940E7102F003FC2C70A1
:100D1000201C07B0F0BDC046340300207300002043
:100D20005249F0B501234B70514D0423CB70F92388
:100D30000B712B68041C85B01A69022002F0EAFBD3
:100D40002E682068336900271A68237A01909B0077
:100D50001A50237A617A0133DBB2009323720B1CA1
:100D60000133DA0F0291022199427A415242134033
:100D70001422013A04D30198910041587F18F8E7F2
:100D800065689B005859009948431421FFF766F99C
:100D90000299039000981422131A8A0050591421C2
:100DA0005843FFF75BF9039A142110180090494249
:100DB000381CFFF7A1F9009B1818B065237A0020B2
:100DC0000090132B10D91423013B06D301999A00EC
:100DD00000988A5880180090F6E700981421FFF7D1
:100DE0008BF9677ABF007851237A132B06D90098C4
:100DF0001421FFF781F9677ABF007851207A019AB0
:100E00008100002351181A1C984206D09F00CF1B66
:100E1000043F3F680133D219F6E703230027617AC4
:100E2000013B05D38B42FAD0990069587F18F6E749
:100E30008B005B591421081A58431018FFF70EF95C
:100E400003213818FFF70AF936693060237A132B2B
:100E500004D900232372637A01336372637A022B0D
:100E600001D90023637205B0F0BDC0466C000020BC
:100E700000000020F0B589B00793002411AB1C5787
:100E80000D1C05920F9F069002F044FCBA000490DE
:100E90000021281C02F015FE274B201C1E6804D1DF
:100EA000032101F053FFF06303E0012101F04EFF45
:100EB0003064049A1678002E10D0201C032101F013
:100EC0003FFF012C03D110980830FFF729FF281CA1
:100ED00012993A1C02F098FC013EECE7012C01D17A
:100EE000109B1E74201C01F0D3FB061C201C01F07B
:100EF00099FC02940190059906980E9A3B1C009665
:100F000002F020FC049A281C137805990093079A94
:100F10003B1C02F087FC094C0E23A37104206923BB
:100F2000211C2A1C23716770E07002F0F3FA002381
:100F3000A37109B0F0BDC046000000206C00002085
:100F4000F0B589B00D1C041C02F0E4FB061C02F095
:100F5000EDFB4F4B18211B686F46DA68AB009A58BF
:100F6000C918CA51317E002905D0415718204A437B
:100F7000C0189209C251216806AE4A191078E900DA
:100F80004118E768F0584900C853117801311170D1
:100F9000E1682A0188180022161C815A023276184C
:100FA000102AFAD1626803215219177803923A1C69
:100FB0000132D2B200209142404141420A402068B1
:100FC0002169BC46029141190878F6080490B6B22E
:100FD00060460596C61802987600365AD2180196D1
:100FE0000826301C049E5200801B061C01986F00CE
:100FF00046430598F610361A0298125A049842434E
:10100000D210B6186269D6530A78072A0DD9039E02
:1010100002983278D318059A5B001A5200230B709D
:10102000666873191A7801321A70606843191A7861
:10103000032A01D900221A706169CB5F0C2B04DDF1
:10104000A269A6680023535573556069C35F191CD4
:10105000C83105DAA26901235355A368002213E0C1
:101060000B3312DBA669735D012B0ED1A7687B19C8
:101070001A7801321A70A06843191A781E2A04D906
:1010800000221A70A36903225A5509B0F0BDC04668
:1010900000000020F0B5041C9DB001200F1C01F0E1
:1010A000F7FA266A7D00715B6B4E029030680195FD
:1010B00003790A225343994223DDE269BD005619A0
:1010C0003068FEF7CBFFA36930605A59002A06D07A
:1010D0006668121A731918689203821A1A60616995
:1010E000B80108184022002102F0EBFC236AE069F5
:1010F000019E00229A5343191E68A1694E511A603D
:1011000057E000231020C018694643540133202BB8
:10111000F8D16669BD01711940220CA8009502F052
:10112000C7FC0CA804A9FFF79FFD00235A000CA9D7
:10113000525E002A03D10133202BF7D11F234749E8
:1011400000201025ED186E46AA5D904200DA101CB2
:10115000914200DD111C0133202BF2D1411ABB005A
:10116000052917DD206A019D425B202A12D91F291B
:1011700010DCA66A0122F255206A00214153E6697B
:10118000A0696269009DF150C1505019402202F0DF
:1011900098FC0EE0304DE6692968F2180969166876
:1011A000CB58206A019DF318136043191A88013245
:1011B0001A80A66A606AF61933780096BD00264E3A
:1011C0000390002B11D0336802991B695859FEF720
:1011D00045FF0399019A00238852009803703368F1
:1011E000A1691B695B594B5107E0A26902995059EB
:1011F000FEF734FF039D01996852019B626ABD00AE
:10120000D25A336802991B6900925859FEF726FF9B
:10121000009E321A131C10331F2B11D9A06A012310
:10122000C355226AE069019E002191534151A26990
:101230006069BB015151C018402202F042FC08E035
:101240007B010F32D71863697F00DF193B880133B8
:101250003B801DB0F0BDC04600000020FFFFFF7FB7
:10126000F0B59DB004AFFA623962041C02F052FA84
:10127000B86002F05BFA786202F05EFAB64B0022C8
:101280001B68F8619A62DA6203256B1E002D0FD08D
:101290003A1C4832022B05D0256899004859800B2A
:1012A000505003E061680968890B91601D1CECE7F0
:1012B0003E1C3036291C0C22301C02F002FC01239B
:1012C000337003237370B3707C235B4273713B1CD8
:1012D0004833009309202B1C311C2A1C02F0E0F833
:1012E0009D4B1B689B78002B00D1B6E09A4EBD68E1
:1012F000336800205861986160681C350022BD6128
:10130000191C1B69009001927A6A14310232029210
:10131000FD69AD680395F86ABA6900F063FC051EC3
:1013200004D0201C0021FFF7B5FE17E0206AE36916
:1013300005801D60A369291C1D604022606902F0C0
:10134000C0FBF9696068CB6831680A790195009241
:101350006A220292F96ABA6902F08EFA7F497C2306
:1013600001245B42CB70FA6AFA23201C0B714C708B
:1013700002F0D0F802F0CEF9336899695A691D1C61
:10138000036A406A46350090281C00F09FFA3368D3
:10139000221C181C46300178002905D1704A9D6D29
:1013A000954200DB0C1C221C191C012402704731E1
:1013B0009A695B690094FFF777FC674B002807D0B8
:1013C0001B68211C9878C0B2FFF714FB0320C0E013
:1013D0006D461968BD6103243E1C621E5436002C04
:1013E0001ED0022A04D03D6A93005D59F55015E0E5
:1013F0003D6AAB68181C1E30132803D9181C0B3823
:10140000132806D858100C1C1B1A5C34B0602380BB
:1014100004E0B3600B1C00205C331880141CDBE775
:101420003D1C3C35211C0C22281C02F04AFB0323E6
:101430006B70AB707C2301205B4228706B71291CA0
:101440000096221C231C02F02BF8BE69386AB546B0
:10145000F96A00F079FA201C7BE002253E4EB8685C
:1014600033682268013D0430B861191CDB680092C2
:101470000195786A28310290FA6912680392BA6974
:10148000386A00F0AFFBB862201C2C30291CFFF733
:1014900057FDBB6A002B0DD13268F96912794B6890
:1014A00020680092692201950292396ABA6902F0B5
:1014B000E3F90FE0626C535D032B0BD1606B0023EB
:1014C0004355616C02234B5533682068D9682A1C48
:1014D00002F0FAF9002DC1D1204902234B707C2380
:1014E0005B42CB703A6A6A2301200B7102F012F85A
:1014F00002F01CFA3E6A817832688A4208DA736820
:101500008B4205DA322A03DD322B01DD356075604E
:10151000114DBE682B68D96A9A6A181CB368F668C0
:101520004430009600F0D2F92B680026181C191CD4
:10153000DA6A44309B6A45310096FFF7B5FBB0424A
:1015400000D1D3E62B68311C9878C0B2FFF752FA6D
:101550000120BD4619B0F0BD000000206C00002045
:10156000A015FFFF70B5141C0D1C061C02F0E4F959
:10157000094B002118682822143002F0A2FA221C1C
:10158000301C291CFFF76CFE041E03D100F006FA84
:1015900000F080FA201C70BD0000002070477047EA
:1015A000F0B599B004900C220D1C15A8002102F092
:1015B00088FAFF210C2212A802F083FA00240BAB58
:1015C0001C809C700C22211C0FA802F07AFA0FA834
:1015D000211C01F05FFD0FA8012101F05BFD201C23
:1015E000032101F0ADFB0120011C01F0A9FB0499CE
:1015F000172952D1A54202D1A54B1B685D7C0295EB
:10160000029A002A49D017AE14AD0324013C40D3FE
:10161000022C1AD11E220392002701210A1C0FA8B6
:1016200001F080FC0120011C01F08AFB994B1B6832
:10163000DB689B68FF18039B013B0393002BECD1F5
:10164000381C1E21FEF758FD0DE002220FA80021D4
:1016500001F068FC0020032101F072FB8D4BA20019
:101660001B68DB68D0583268031E934200D2131CFB
:101670002A683360904200D9101C28607F22181A13
:10168000FD2801D84008C2B20BABE254043E043D31
:10169000BCE7029901390291B2E77F4D7F4C2B687C
:1016A0000021587CFA2340070722DB00400F0094FA
:1016B00002F010F82968FA23487C0722400700212D
:1016C000DB00400F009402F005F82B68082218791F
:1016D000734B40060093000F0021724B01F0FAFF9C
:1016E000049A0690142A08D0172A00D0B8E00125E1
:1016F000FFF755FF0BAE2F1CB5E0032317AC029389
:10170000029B013B029300D2A8E00299624D02299C
:1017100010D0002001F086F8061C002000F0B8FF71
:101720002B6805909A795D7ED206D20F0792ED085C
:101730005F7C12E0012001F075F8061C012000F02A
:10174000A7FF2B6805901A1C4632127807921A1CC4
:101750003732157848331F78ED08504A7F077F0FDE
:10176000FA230092381C00210722DB0001F0B2FFAF
:101770004A4B04900093FA23381C00210722DB0017
:1017800001F0A8FF484AA723121A5A434749071CE9
:10179000521892120992464A121A534300229B127F
:1017A00008930392131CE90704D5424A03999A400F
:1017B0008918039101336D08052BF4D1354B029A3A
:1017C0001B689500DB680599E858B040FEF794FC6B
:1017D0000FABE958CA033849920D4A432260EB5CCB
:1017E0005B065B0E03D035494B439A182260089B79
:1017F0002268C01A324B950A5843099A089B256003
:10180000D11AFEF779FC0799C71B002911D003995B
:10181000A802FEF723FCBF02011C381CFEF76CFC7B
:10182000049A069B111A58186843591AFEF716FCB9
:101830000EE0049A06998E1A88186843311CFEF748
:101840000DFC051C0398311C7843FEF755FC281A43
:101850000A21FEF703FC043C606051E7FFF79EFE9F
:1018600015AE002504270CAC0C22201C002102F030
:1018700028F9ED01012323702F430323201C311C81
:101880006370A370677101F0B1FD19B0F0BDC0467F
:10189000000400200000002008040020282300008D
:1018A00030750000F05500007C15000000FC3F0082
:1018B000D43000005A020000C2EE0000CA2300002B
:1018C0005046000008B501F099FC08BD10B5002A8B
:1018D00002DDD14205D50AE0002A02D10124994255
:1018E00006DB029B01249A4202DC002400E0012472
:1018F000047010BD114B642210B51A8000F09CFEDC
:1019000000F068FB00F002FB00F032FA00F05AFA37
:1019100000F0D8FA01F0A8FA041C00F001FA084B14
:101920001B681A78074B1B68002A01D0032200E0CD
:1019300002221A6162B6201C10BDC046BC000040E5
:101940000C04002064000020134B70B51C680023B9
:1019500023700D1C061CFEF755FE81784B42594141
:1019600083784900002B0ED14A1C9200A218043241
:101970000B1C06E098003058002800DC00201060A6
:10198000043A013BF6D202312B6889006418002B1F
:1019900000DC0023636070BD88020020F0B53A4B84
:1019A00085B01C6801F04AFD00232370FEF72AFE73
:1019B0008278D2B2012A00D00322344B511E1D6816
:1019C000531C49009B006118E31806310433013AA7
:1019D00057D3022A09D08678002E03D12E7802969A
:1019E0006F7805E08678012E03D1EE7802962F7984
:1019F00003971E68002E09D09F69002F01DC029F0B
:101A000000E0039FBE4201DA00261E601E680096B9
:101A1000002E17D00E8837B2BC461D4FBC4501D0F2
:101A200001360E8000268F5F6E79B74203DC0126F7
:101A300076421E6002E0267801362670A61800273E
:101A4000F7701BE000268F5FBC466F79BC4513DD45
:101A5000DF680197002F11D0A618F7780137FFB281
:101A6000F7707FB2BC46AF79BC4505DC019E1E60B5
:101A700026780136267001E0009F0F800239043B72
:101A8000A5E705B0F0BDC046880200201C04002078
:101A9000FF7F0000F0B5504B89B01F6801F074FC67
:101AA000039001F079FC059001F0C8FC01F0C0FC46
:101AB0000490FEF7A7FD8378061CDBB2012B00D053
:101AC00003235C1CA4000F225D1E3C191340043448
:101AD000029307AB00221A809A70022D02D0B278CE
:101AE000012A03D11A7840210A431A7007AB1A78E9
:101AF0000F218A4302990A431A70022D0BD0B37842
:101B0000002B05D1354B1B681A7800925B7807E0F3
:101B1000B378012B05D1314B1B68D97800911B7923
:101B20000193E268019923688A421EDC00998B4286
:101B30001BDB07AA107880214942014311700499E8
:101B4000042904D1FF2B00DDFF23537013E0049A16
:101B5000092A10D1224A934200DD131C5BBA07AA5E
:101B60009BB253701B0A937005E000998A420CDB0C
:101B7000019A934209DC059900291BD0022D15D149
:101B800007A801F065FC2368E3602368029AA3615B
:101B9000013A0F231A40043C0292013D99D23B784E
:101BA000BB707B7001F068FC09B0F0BDB378012B0D
:101BB0000ED1E5E703990029E7D0022DE5D0B378EF
:101BC000002BE2D107A801F043FC2268E260DCE7C9
:101BD000039A002AF3D1D8E7880200201C040020D1
:101BE000FFFF0000F0B5069D1D4EAC000E611D59B3
:101BF000137D002B04D0079F069BFF567D43AD113C
:101C0000059F3B599B0B5B1B002B0DDD1027D55F00
:101C1000AB4218DB0F685D1BBD4200DA3D1C0D6056
:101C20008D6801358D600EE0002B0CD01227D55F3A
:101C3000AB4208DC4F685D1BBD4200DD3D1C4D60C2
:101C4000CD680135CD600351B34200DA044B0B611E
:101C50000C21525ED817D10F93424841C0B2F0BD5B
:101C60000080FFFF014B18607047C0460C04002045
:101C7000014B18687047C0460C040020014B1860E7
:101C80007047C04608040020014B18687047C046E2
:101C900064000020F0B5134B134A1F781578134ADF
:101CA000FFB21678124AEDB21178124AF6B21478E1
:101CB000114AC9B212781B78E4B2D2B20020AA2B22
:101CC0000ED10E4BED19AD191B78EDB29D4207D127
:101CD0000B4B60181B788018C0B2C01A43425841A1
:101CE000C0B2F0BD500001005100010052000100DF
:101CF00058000100590001005A0001005300010082
:101D00005B00010080235B040022188059809A80C8
:101D10001989012001431981C046988980B2704712
:101D2000104BC022920098580F4901409950995881
:101D3000FF208143402001439950985880210002A0
:101D4000000AC90501439950042201211A60196053
:101D500008211960FC3300215960044B19690A43BA
:101D60001A61704700E100E0FFFF00FF00ED00E0B6
:101D700013B5002200920192104A6846126801AB26
:101D8000D48D2C32117842787F2082432220024366
:101D90006846427000988022D20550621888240557
:101DA000000B240D0003204318800198044B090305
:101DB00003400B43A832136013BDC0460804002043
:101DC000FF0FF0FF3C4B70B51E688024331CE40508
:101DD00028331978231CC03318687F2290431140A0
:101DE000021C04250A43201C311C1A6018312A1CCD
:101DF000D83001F05DFE201C311C2A1C1C31DC3067
:101E000001F056FE201C311C2A1C2031E03001F06C
:101E10004FFE201C311C2A1C2431E43001F048FE06
:101E2000201C311C2A1C1031143001F041FE236BA0
:101E3000082293432363236B02222B432363236BE8
:101E4000761993432363236B012213432363F27FA9
:101E5000A16C013A194BD2B292030B401343A36415
:101E6000A26C8023DB031343A364231CD4331968BF
:101E7000F022D2020A431A601968FC2252040A4373
:101E80001A601A6860218A4320210A431A60A26CF2
:101E90000B4B1340802292041343A364B434236891
:101EA0000F2293431D4325602368F0229343402271
:101EB0001343236070BDC04608040020FF3FC0FFED
:101EC000FFFFFFC08023DB0500221A659A6701220D
:101ED00052425A667047000008B5034800210C22A0
:101EE00001F0EFFD08BDC04620010040054B8022F7
:101EF000196812030A431A601968034A0A401A60F3
:101F00007047C046B4000040FFFFF7FF70B5264E93
:101F1000042234682548211D01F0CAFD211C083126
:101F20000422234801F0C4FD211C0C310422214865
:101F300001F0BEFD211C103104221F4801F0B8FD44
:101F4000211C8025143104221C48ED0501F0B0FD50
:101F5000FFF7A0FE002823D033681B781B071B0F58
:101F60000F2B0AD1164B1A780F2A06D81A786968EF
:101F7000144B52050B4013436B60134B1A689205C8
:101F8000920F012A0CD1114A11780F2908D8117823
:101F90000F22114018680E4A490302400A431A6092
:101FA000FFF7A4FF70BDC0460804002008000040F1
:101FB0000C00004010000040140000401C000040D5
:101FC00051000100FFFF1FE0B40000405800010075
:101FD000FF1FFEFF08B5144B144A19680A401A6027
:101FE00019688022D2020A431A601968104A0A400E
:101FF000802149020A431A601968802252010A436B
:102000001A6019680B4A0A401A6019680A4A0A409D
:10201000802149000A431A601968084A0A401A6078
:10202000FFF764FF08BDC046B4000040FFFFFDFF9E
:10203000FF1FFEFFFFF7FFFFFFFCFFFFFFFBFFFFA0
:10204000054980230968DB0509695A6E012088402B
:1020500082435A667047C04664000020054A8023C8
:102060001268DB0512690120596E9040021C0A4378
:102070005A667047640000208023DB055A6E034BCC
:1020800001201B681B69DA40904370476400002000
:102090008023DB05020280B2998F120E98873E33AF
:1020A00019781A707047000072B6054B1B5C002B44
:1020B00003D1C04662B630BFF6E762B67047C0468D
:1020C000EC03002008B50020FFF7EEFF08BD00007C
:1020D00072B6044B1B5C002B02D1C04662B6F7E718
:1020E00062B67047EC030020F0B587B003AF7960AB
:1020F000191CBA609C46039001C101229300FE584E
:102100006446002023689E420DD80D1C0192019B5D
:10211000043D834205DD2B686B60019B013B01930D
:10212000F5E7266004E001300E6004349042E9DBFC
:1021300001320431032AE1D107B0F0BD30B5134BB1
:102140001D686C7861B2002907D001290AD1104BB3
:102150000A1C1B684F33187804E00D4B02221B68E1
:102160002B331878D31C9B00EB180433C900013AB9
:102170000AD3002C03D11D68C5401D6002E05D58E4
:10218000C5405D50043BF2E730BDC046640000200E
:1021900008040020F0B580238FB00122DB0500AFDA
:1021A0000E1C5A70002803D10320FFF77DFF02E0C8
:1021B0000320FFF78DFF894D01222B689A56002AD4
:1021C00003D0012A02D1141C00E0022464B20C21C5
:1021D00061430A31C9086846C900401A85467861DA
:1021E000012E5ED1013C621C76D02B6801229A56EA
:1021F000002A2CD0012A49D1794A0B211268A61C49
:10220000515603225143081C504380190830800066
:102210001818796240688C4601218C443862604607
:1022200050438446B44408218C4460468000844670
:102230009C4460464168386A8C46796A02314A4358
:1022400096190836B6009B195A6861461AE0644A26
:102250000A261268965703225643111C7143091926
:102260000831890059184868711C0236514372437D
:1022700009191219083108329200890059189B185F
:1022800049685A683B1C2C33FFF72EFF2B6801224C
:102290009A56396B52001219043292009B185960F9
:1022A000A0E70221595603291FD009291DD0012971
:1022B00012D14B49D2000D689A180B2028560921DB
:1022C0004143013C09190A31890059184868A100A5
:1022D00051184861002CF0D1404B1B685B785BB211
:1022E000002B61D0012B6BD075E0A30098087A69B0
:1022F000C1005B425218F8613B61B9613A62032543
:10230000013D32D37C62796A0139796228D3334B3B
:1023100003261B68311C01229A566943786A5200D1
:10232000121889180831890059184968A81D796060
:10233000A919714346438918B2180831083292002E
:10234000890059189B185A683B1C496878682C33D7
:10235000FFF7CAFE796A3A6B386A8B00C250D2E73F
:102360003A6A3B69D2183A62CAE7013C7869F9696E
:10237000A50045198E00611CAED0BA693B1CAA5855
:102380002868A9592C33BA60FFF7AEFE134B01221F
:102390001B68386B9A56043D5200121904329200A1
:1023A0009B185860013CE6E70D4B1B689A7A013A8E
:1023B000D1B2100601D499720DE002229A720AE09D
:1023C000074B1B68DA7A013AD1B2100601D4D972F0
:1023D00001E00222DA72BD460FB0F0BD64000020B9
:1023E0000000002008B50020011CFFF7D3FEFFF716
:1023F000A5FE08BD10B58023DB059968214A0A4077
:102400009A605968204A0A405A6059681F4A0A402F
:102410005A601F4A12689278012A2BD15A680F23FA
:102420001340013B5A1C0AD08022D20554680F2168
:10243000181C8C430840211C01435160F1E7154CE6
:10244000802322681B0113432360FFF74FFD22689E
:1024500080239B0213432360FFF748FD22680E4B45
:1024600013402360FFF742FD22680C4B13402360AA
:10247000FFF73CFD8023DB059968094A0A409A6012
:1024800010BDC046FFFF7FFFFFE1FFFFFF1FFEFF04
:1024900000000020B4000040FFFFFBFFFFEFFFFF44
:1024A000FFFFFEFF08B5044B00221A70FFF7A2FFE2
:1024B000024B01221A7008BDEC0300203F000040CF
:1024C00070B58023DB059968802252020A439A6026
:1024D000364A374D12689278012A47D1354C80230D
:1024E00022685B0113432360FFF700FD226880230D
:1024F000DB0213432360FFF7F9FC22682E4B1340E5
:102500002360FFF7F3FC22682C4B13402360FFF796
:10251000EDFC28680022031C32331C782407240FAA
:102520008023DB055D680F21161C0E408D4335436B
:1025300001325D60A242F3DD021C34300478333294
:102540001578012004406D09E4002C431C485D68A7
:10255000640328402043586012785868520811409C
:102560004A02184901401143596016E02A680121C6
:102570009078547808406409C000204310495C6892
:10258000400321400143596051785868C9060D4AFB
:10259000090F490202400A435A608023DB0599680B
:1025A000802212040A439A6070BDC04600000020D9
:1025B00008040020B4000040FFFFFDFFFFF7FFFF0D
:1025C000FF1FFEFFFFE1FFFF8023DB055868400D82
:1025D000C0B2704730B58023DB055A680F23134023
:1025E00083420ED001DA013300E0013B8022D205A4
:1025F00055680F211C1C8D430C40291C2143516040
:10260000EEE730BD30B58023DB055B685B0DDBB2E8
:1026100083420DD001DA013300E0013B8022D20574
:1026200055680449DCB26405294021435160EFE755
:1026300030BDC046FFFF1FE038B5114C8023256830
:10264000DB051048291C04225B6801F031FA287868
:102650000007000F0F2800DD0F200B4B1B68D86010
:10266000C0B2FFF7B7FF23685888C004000EFFF719
:10267000C9FF8023DB055968044A0A405A6038BD07
:10268000080400200400004064000020FFFEFFFF5B
:10269000002806D1094B1B681A1C2A3210782933EE
:1026A00007E0012809D1054B1B681A1C4E3210782F
:1026B0004D331B78C01A0130FFE770470804002033
:1026C000F0B5464D89B02E680120331C4F331B787E
:1026D0000793FFF7DDFF331C46331B78041C05937B
:1026E000331C373348361B7830783D4EDF084007BF
:1026F000FA23009600210722DB00400F00F0EAFFDA
:102700002B68039048331878FA234007009600217D
:102710000722DB00400F00F0DDFF2B68061C187954
:10272000304B40060093002108222F4B000F00F091
:10273000D1FF2E4AA723921B5A432D4902905218CB
:10274000921206922B4A211C921B53439B12049314
:10275000294B079A1D6800242B6918689040FDF7E3
:10276000CBFC231CF90702D5244A9A40A418013354
:102770007F10052BF6D1049A214B801A5843069BF3
:10278000991AFDF7B9FC05996D6D871B002911D0C9
:10279000211CA802FDF7B0FCBF02011C381CFDF78C
:1027A000ABFC039A029B111A58186843591AFDF79B
:1027B000A3FC0EE0039A02998E1A88186843311C14
:1027C000FDF79AFC051C201C7843311CFDF794FC96
:1027D000281A0A21FDF790FC09B0F0BD080400207A
:1027E0002823000030750000F05500007C15000023
:1027F00000FC3F00D4300000000000205A0200001E
:1028000050460000002803D1054B1B682C3304E020
:10281000012804D1024B1B6850331878FFE770473A
:1028200008040020002803D1054B1B682B3304E06B
:10283000012804D1024B1B684F331878FFE770471B
:102840000804002008B5FFF7F7FEFFF75FFBFFF76E
:102850008FFAFFF7B7FA00F007FB08BD0002064B3E
:10286000000A0138002258609A6005221A60C046AA
:102870001A68D103FCD5704710E000E0044B05490D
:1028800000221A6059609A6005221A607047C0469B
:1028900010E000E0FFFFFF0010B58022D205546871
:1028A0000F21640C0C400823012C04D05468640CE4
:1028B00021405B1ADBB21C1C0A4B51681B680F22BB
:1028C0009B681140591A084B89185943074B4443D8
:1028D000C9180748FDF710FCC1B2201CFDF70CFC1D
:1028E00010BDC04664000020F91600004E2500000F
:1028F000400D030010B5044C0448A368C01AFFF74C
:10290000CBFF0023236010BD10E000E0FFFFFF00BD
:10291000F8B50D1C141C061CFFF7B0FF281C00F0B6
:102920003BFA071C201C00F06DFA3F1A002F08DD4F
:10293000281C00F031FA051C201C00F063FA2B1A49
:1029400000E001233360FFF7D5FFF8BDF7B523485A
:1029500000F058FAFFF782FF214F0025214E224C4C
:10296000B7421FD28036F31B2026832B00DC9E103B
:102970000123667000203A1C211CB610E370207100
:1029800000F0C8FD3B1C321C013A08D3002D04D1D5
:1029900016491868884200D01D1C0433F4E7B600BD
:1029A000BF19DBE70E4904226B1A01270193E2707D
:1029B000A723211C01AA002067702371843600F030
:1029C000A9FD0423751BE3700020A823211C01AA84
:1029D00001956770237100F09DFDF7BD801A060018
:1029E00024040020800700206C000020CDCDCDCD38
:1029F000014B18681430704764000020014B1868C0
:102A00001C3070476400002010B58024E405A26CDF
:102A100080231B061343A364A36C80222343A36477
:102A200000215200054801F04CF8A36C5B005B08E4
:102A3000A364A26C024B1340A36410BD00000240CB
:102A4000FFFFFFBFF7B5061E00D18EE0012800D0C2
:102A500011E18B4B80241D68E405291C2A1C3431AC
:102A600008783332137830405B09C0006768184338
:102A700084490F23184040033940014361601278B4
:102A80006168520813405A027F4B80480B40134341
:102A900063602B1C46331A78A1687D4B32401205C7
:102AA0000B401343291CA3603631042201F000F8C7
:102AB000291C3A310422774800F0FAFF291C3E31E4
:102AC0000422754800F0F4FF291C423104227348A7
:102AD00000F0EEFF291C47310422714800F0E8FFA6
:102AE0002B1C4C3319786F4B7F2218681140904390
:102AF000021C0A431A602B1C523319886A4B0905C1
:102B00001A68090D120B12030A431A602A1C50326C
:102B100018681178654A090302400A431A602B1CA1
:102B200055331A783F27A16C614B3A4012060B408F
:102B30001343A3642B1C4D331B784E3501932D7822
:102B4000FFF762FFA26C80239B011343A364A36C75
:102B5000019ABB433A401343A3643D40554BA76CD5
:102B6000AD011F402F43A76482E0454B80251C68C0
:102B70000123A17860781940ED054009C90001439F
:102B8000404A6868490302400A436A60617868689D
:102B9000C9063D4A090F490202400A436A60A27908
:102BA000A968120913401A05394B38480B401343E2
:102BB000211CAB601831042200F07AFF211C1C316B
:102BC0000422344800F074FF211C203104223248D2
:102BD00000F06EFF211C24310422304800F068FF11
:102BE000211C103104222E4800F062FF231C2833E0
:102BF00019782C4B7F22186811409043021C0A431D
:102C00001A60294BE18D1A680905120B090D120390
:102C10000A431A60221C2C3218681178234A0903CF
:102C200002400A431A60231C30331A783F27A96CEC
:102C30001F4B3A4012060B401343AB64231C29334D
:102C40001B782A3401932478FFF7DEFEAA6C8023D8
:102C50009B011343AB64AB6C019ABB433A401343F3
:102C6000AB643C40134BAF6CA4011F402743AF64DF
:102C7000301C00F03FF9104B1B685E70F7BDC0467A
:102C800008040020FF1FFEFFFFE1FFFFD800004007
:102C9000FFFFEFFFDC000040E0000040E4000040E8
:102CA00014000040C0000040A8000040FF0FF0FFEB
:102CB000FFFFFFC03FF0FFFF6400002070B51D4E16
:102CC000CAB23368041C0D1CDA709A70002802D155
:102CD00002221A7102E0012800D1187100F028FBCD
:102CE000022808D0144B04221868336848309A56DA
:102CF000211C00F017F933681A79013A1A71092D6D
:102D00000BD1002C03D10C4B1B689C7205E0012CED
:102D100003D1094B00221B68DA72201CFFF792FED8
:102D2000064B0022DA708023DB051A705A700122EC
:102D30001A7070BD6400002000000020EC03002029
:102D400008B5FFF7BBFFFFF74DFB08BD38B5041C06
:102D50000D1CFFF793FD201C291CFFF7AFFF8023FC
:102D60000120DB0558700021FFF714FAFFF7E6F9A0
:102D7000002C0BD18420FF3000F044F8054B181ACA
:102D8000002803DD8420FF3000F03CF8FFF7B2FD9F
:102D900038BDC046BD19000038B58022D205516843
:102DA0000F230B401249051C09688978012900D1BD
:102DB000002351680F22490C11400824012906D034
:102DC0008021C9054968490C0A40A41AE4B20F21C0
:102DD000CB1A084908485943084BC918FDF78CF924
:102DE000074B291C58436143FDF786F938BDC0469F
:102DF00000000020F9160000400D03004E250000E1
:102E000040420F0038B58022D20551680F230B4095
:102E10001149051C09688978012900D100235168EE
:102E20000F22490C11400824012906D08021C90530
:102E30004968490C0A40A41AE4B20F21CB1A074989
:102E400007485943074BC918FDF756F9211C684339
:102E5000FDF752F938BDC04600000020F916000009
:102E6000400D03004E250000002170B51D481022C2
:102E700000F027FE1C4B19680423013BDBB2FF2B3B
:102E800028D0184C9800021915681C072D012D092F
:102E90002C43146016680725144C1D40AD043440C3
:102EA0002C431460012BE8D80818027A0D489200D0
:102EB000121814688020800204431460002BDCD1B7
:102EC0000C69FF222240074C92001219146820431B
:102ED0001060D2E78023DB05196B054A01200A4008
:102EE0001A6370BD000100400C040020FFFFE3FFE7
:102EF0001FFEFFFF002803D1084B1B68D96804E0C0
:102F000001280AD1054B1B681969054B1F22186857
:102F100011409043021C0A431A6070470C040020C1
:102F2000D4000040F7B593005C420194164C26682B
:102F3000F6184B00D2189200821800920023019AD2
:102F4000934220D0002902D1F218556803E00129EC
:102F500001D1F218D568009F0C48043FFF18AC005F
:102F600024183868043BC2032068920D800A80024E
:102F7000024322603A782068054F5206D20B074080
:102F80003A432260DBE7F7BD0C040020000100405B
:102F9000FF03FEFF70B5041C081C0D1CFFF778FB37
:102FA000061C281CFFF72EFC0A4B1B68002D01D1C4
:102FB0009B8800E0DB885E437043C01160606368FB
:102FC00086225A43D20922607A225343DB09A36046
:102FD00070BDC0460C040020F0B585B003930025F9
:102FE0000DAB071C5D570C1C0292FFF701FDEB00B7
:102FF000FE18C31801960093002C47D00C9A381C79
:10300000291CFFF78FFF281C0321FFF757FE002024
:103010000121FFF7BFF8019B641000220C9EB24211
:10302000EADA009E0B9891007158012815D1029E92
:10303000B14204D91E68F003800D001B06E0039E18
:10304000B14220D21E68F003800D2018104980057F
:10305000C00B31400143196015E00A9EB14204D90A
:1030600019784806400E001B06E00A9EB1420AD2BB
:1030700019784806400E2018844666467F20064090
:1030800081433143197001320433C7E705B0F0BD05
:103090007F00FEFFF0B589B00023051C05A80C1CBD
:1030A0000593069307930226FFF774FF002C02D0C6
:1030B000012C00D1261C6100331C013B0CD3CA1823
:1030C0009200AA1817681A48384080277F023843B0
:1030D000106040201070F0E70698012380210090D6
:1030E0000193281C8900059A079B02960394FFF719
:1030F00073FF069A079B00920222019202960394A4
:10310000281C4021059AFFF767FF012C0ED1AF68FC
:10311000084AF903890D51432A7A07485206520E8C
:103120004243064B8A181B6892125A6509B0F0BDDB
:103130007F00FEFFC2EE0000CA2300000000002056
:10314000014B18607047C0461004002038B5FDF7E9
:103150004DFA051CFEF78CFD264C291C2068102218
:1031600000F0A6FC216803238B75234B61691A1CB0
:103170000832A26080226360D2059269187E120A2A
:103180000A70597EE26809020143987E00040143F7
:10319000D87E00060143080A11705070080C090E11
:1031A000D170597F9070187F09020143987F000405
:1031B0000143D87F00060143080A11715071080CC1
:1031C000090ED171191C2D331B782C3109781B0283
:1031D0000B4313721B0A5372A369907102229A70F7
:1031E0000F22DA70E3691A6800221A6004221A7149
:1031F0005A7138BD7C000020D03F000038B5FDF783
:10320000F5F9FEF735FD134CA56A00F019FC68606E
:10321000FFF79CFF104B226B1B681B88190A51712A
:1032200013710221042B03D00021092B00D10321AB
:10323000231C3C33917101225A7000229A7000F0D5
:10324000FBFB064B58608023DB059A69236C1A70E0
:1032500038BDC0467C000020100400203C03002044
:1032600008B5084A916C4B780749DBB20B72012B09
:1032700005D0022B05D1536C01225A7001E0FEF7F4
:10328000DFFE08BD7C0000203C030020094B10B588
:103290001B7A094C012B05D0022B05D1626C00234F
:1032A000537001E0FEF7DAFE636B7F211A788A43E0
:1032B0001A7010BD3C0300207C000020F8B5194DA9
:1032C0000024194E337A012B07D0002B18D0022B83
:1032D00017D1164B5B6C5C7813E0FEF7CDFE041C37
:1032E000002D0BD1FEF7BAFE2E23FF33013B002B3E
:1032F00001D0C046FAE7FEF7A3FE0A4D013D00E00B
:103300001C1C0A4FBA6C5378327A9A4206D0FFF7E7
:10331000BDFFBB6C044A5B78137201E0002CD0D176
:10332000F8BDC046FF2C01003C0300207C000020BB
:10333000024B9B6C1878C0B27047C0467C000020DE
:10334000024B9B6C187DC0B27047C0467C000020C9
:10335000024B9B6C587DC0B27047C0467C00002079
:10336000014B9B6C187570477C000020014B9B6CD7
:10337000587570477C000020024B9B6CD878C0B217
:103380007047C0467C000020024B9B6CD87DC0B2C9
:103390007047C0467C000020024B9B6C187EC0B278
:1033A0007047C0467C000020024B9B6C987EC0B2E8
:1033B0007047C0467C000020034BA0225B6C1A7053
:1033C0001A78A02AFCD070477C000020024B1B6DAD
:1033D0001878C0B27047C0467C000020024B1B6DBD
:1033E0009878C0B27047C0467C0000200E4B30B5C4
:1033F0001A6DFF2414700D4C58652160057884788F
:10340000996A6C430579407964194006400E60431F
:103410000860586CA0210170996C1378FF2B02D1C1
:103420000B78022BF9D030BD7C0000203C0300203B
:10343000014B1B68188870471004002008B5FFF77F
:103440003DFF024B0022DA6008BDC0463C0300206D
:1034500070B5074B074C1A6BE668011C9579986BA1
:103460002A1C8019751900F023FBE56070BDC04669
:103470007C0000203C03002008B5074BDB68002BD4
:1034800009D0064ADBB2506B7F21194001703C32F3
:103490009370FFF7E5FE08BD3C0300207C00002090
:1034A00073B56C46E271194A0734D56D2E788642A1
:1034B0002AD1FF2028709366131C9C331B68207848
:1034C0009B688000116654661871114B06980C7841
:1034D00018608878936A60430C7949790019490625
:1034E000490E41431960516CA0230B70D16D936C50
:1034F0000A78FF2A02D11A78002AF9D00A78FF2A1E
:1035000002D11A780A2AF3D073BDC0467C0000208D
:103510003C03002070B5144CE36B1D79EDB2012D16
:1035200021D1854058781E78000230439E783604B9
:103530003043DE7836063043284214D0FF2018711D
:103540000A48216402608C780D78C9786C4349067A
:10355000490E074A6143906A526C016077211170ED
:103560001A79FF2AFCD070BDFC0000203C0300202B
:103570007C000020014B5B6C98787047FC000020B9
:10358000014B5B6C98707047FC000020024BDB68BD
:103590009872000AD87270477C000020014B5B696A
:1035A000987270477C000020014B5B69D8747047AB
:1035B0007C000020014B5B69D87270477C000020C2
:1035C000014B5B69187570477C000020014B5B69FB
:1035D000D87570477C000020014B5B6918767047F6
:1035E0007C000020024B5B699876000AD876704711
:1035F0007C000020034B5B69D87E9A7E000210435A
:103600007047C0467C000020002303600B60204B05
:10361000F7B59A423ADC13121E4C122B25D89B00A8
:10362000E418E46E002C31D0E368013B5D1C2DD022
:10363000D5B2019565681E1CEF5C019D013BED1B39
:10364000F4D42768B300DB59002B1FD0A268925D29
:10365000521B0A60002A02DD5D19056016E00E4B60
:10366000483303605B780B6010E0E36A666A013BF5
:103670000CD35D00755B551BF9D4266A9B00F2588C
:1036800052190260A26AD3585D1B0D60F7BDC04697
:10369000FFEF00007C000020FC000020C02208B5E5
:1036A000D2000B4B904206D15B6C1A78052A0DD0E4
:1036B00005221A700AE05B6B84221B7892005B067D
:1036C0005B0E9B18984201D1FFF7E0FD08BDC04694
:1036D0007C00002038B5051C1C1C181C8D4209DB21
:1036E0000498954206DAC01A6D1A6843511AFCF71D
:1036F00003FD201838BD000010B5054C2060007C8B
:10370000FFF764FF2368188DC0B2FFF765FF10BD97
:1037100014040020014B18687047C04614040020B0
:10372000014B18607047C04618040020014B186810
:103730007047C04618040020014B18687047C04607
:1037400084020020F0B585B01E1C0CAB1B78141C45
:103750005BB2013B5A42534100905B0000200D1CBC
:1037600027490193021C38230B71FFF7D3FE331C4A
:103770000020013B14D3019FFA18009F9200BA1851
:1037800011680A27C903890D4F431278BC465206B7
:103790006044520EEDD00A214A43D2098018E8E76E
:1037A000311CFCF75BFC6E88071C002E02D1402305
:1037B000236007E0B001391CFCF750FC6E2800DDE7
:1037C0006E2020602B78642253430A9A0B9953434E
:1037D0002A7D0B41002A02D0226853439B110949DC
:1037E000636002234B707C235B42CB7000205F231D
:1037F00002AA029603970B71FFF78CFE05B0F0BD8D
:10380000340300206C00002070B59300C018C91864
:103810000023043B013A04D3C558CE58AC19C45018
:10382000F7E770BDF7B5051C009101921F1C1C1C29
:10383000013C0FD3A600A8590899FCF70FFC009A89
:10384000137D002B03D0019A135758438011800336
:10385000A851EDE7074C0E23A371042044232A1C32
:10386000211C67702371E070FFF754FE0023A371E1
:10387000F7BDC0466C00002070B5161C059A940078
:1038800005190E20325E0C59944200DA141C04997A
:10389000181CFCF731FC444373782A681C41141B44
:1038A0002C60084C0E23A371069B012604202A1CC1
:1038B000211C6670E0702371FFF72CFE0023301C82
:1038C000A37170BD6C00002013B5D2B29300C9582B
:1038D0006C461951084C2468247E002C06D0074CF5
:1038E0002468A25651436A46890999506C46E258A9
:1038F0009203C250012016BD1404002018040020B9
:1039000010B5094C20600078FFF748FE236858780E
:10391000FFF74AFE2368D878FFF74CFE2368187932
:10392000FFF74EFE10BDC0461C040020014B186876
:103930007047C0461C040020014B18687047C04601
:103940008802002038B5104C0C2520682A1C002164
:103950000C3000F0B6F820682A1C0021183000F066
:10396000B0F8206800210622063000F0AAF820688E
:1039700000210322033000F0A4F820680021302247
:1039800000F09FF838BDC04688020020094B10B5F2
:103990001C680021A01D062200F093F8E01C002105
:1039A000032200F08EF8201C00210C220C3000F0C5
:1039B00088F810BD88020020124B70B51E680028E0
:1039C00005D10225002905D00125022403E00129A3
:1039D00001D10D1C0024600030186A00002106305F
:1039E00000F06FF830190234A4002A1C36190021A7
:1039F000033000F066F8AA00301D002100F061F8E5
:103A000070BDC0468802002010B5094C201CFEF78E
:103A100029F9201C1830FCF7E3FD201C2A30FFF7A1
:103A20008FFBFEF725F90348FFF77AFE10BDC0466D
:103A3000E43D0000003F000000487047E43D000006
:103A40008E2040007047000000487047103E000084
:103A500098235843014B181884307047E43D000008
:103A60000D4B10B51B6898241B785C430B4B8034BE
:103A7000E4180B4B201D1860FEF700F9201C5A308B
:103A8000FCF7BAFD201C6030FFF736FE201C943096
:103A9000FFF736FF10BDC0468C020020E43D000059
:103AA00020040020014B1B68187870478C0200200E
:103AB00010B50023934203D0CC5CC4540133F9E722
:103AC00010BD031C8218934202D019700133FAE72B
:103AD0007047FFFF04000020000000FF000000000E
:103AE00000000000000000000000000000000000D6
:103AF00000000000000000000000000000000000C6
:103B000000000000000000000000000000000000B5
:103B100000000000000000000000000000000000A5
:103B20000000000000000000000000000000000095
:103B30000000000000000000A40200203B03002061
:103B400001000000000000010300840000000000EC
:103B5000800300200000000000000000740300202B
:103B6000790200205D020020210200205C03002079
:103B70003C030020460100204C030020020000000E
:103B80006D0300206C030020630300200700000089
:103B90005B0300205B020020400200203002002076
:103BA0002D020020000000002502002062030020FA
:103BB0000000000000000000000000000000000005
:103BC000FC010020E80100200000000000000000CF
:103BD00000000000D4010020C0010020000000000F
:103BE00000000000A8010020000000008C0100205F
:103BF0000000000000000000000000007401002030
:103C0000600100204C0100201D020020180200204D
:103C100000000000560300200001002000600000AA
:103C200040010020540300205C010020010000003E
:103C300005000000BC00002055030020700100209A
:103C40000100000001000000340100208701002075
:103C5000840100200300000004050700102000007C
:103C6000D4000020A10100209C01002005000000DC
:103C700008010C010400102030310000C8000020B1
:103C8000BB010020B80100200300000008030C0065
:103C90001020000094000020D2010020D00100205C
:103CA0000200000004060010C0000020E601002011
:103CB000E401002002000000021B0010AC00002004
:103CC000F8010020B80000200300000000101100DF
:103CD0007C000020120200200C02002006000000E0
:103CE0001708080C0A1C002030405070010000002A
:103CF000000020060100010000002010020E02005A
:103D000000FF000000200302600090003C02002041
:103D10000060090100010000000000000000000038
:103D2000000000000000000000000001010000058C
:103D30000000483248314D450000000000000000FE
:103D4000000000000000000000000000004D49508D
:103D50000000000000030500A4030020B4030020BD
:103D6000E4030020FFFFFFFFFFFFFFFFFFFFFFFF58
:103D7000FFFFFFFFFFFFFFFFFFFFFFFFFFFFFFFF53
:103D8000FFFFFFFFFFFFFFFFFFFFFFFFFFFFFFFF43
:103D9000FFFFFFFFFFFFFFFFFFFFFFFFFFFFFFFF33
:103DA000FFFFFFFFFFFFFFFFFFFFFFFFFFFFFFFF23
:103DB000FFFFFFFFFFFFFFFFFFFFFFFFFFFFFFFF13
:103DC000FFFFFFFFFFFFFFFFFFFFFFFFFFFFFFFF03
:103DD0000401FFFF48324831504152413030303009
:103DE0003030303000000000B80B280A000000001E
:103DF0000100000003000000200B140332303137B3
:103E00005F4A355F4B455900000000000A0A09006F
:103E10000F428839300091109903C00560000000FE
:103E200091040000000000007C7A05002F8601014B
:103E300001012614011614281E0815038000000035
:103E400005000FA888397C82050067190601010169
:103E500077320116C8FA01910700000032052C00E4
:103E600080000000000A00000F42883930009110E5
:103E70009903C005600000009104000000000000EC
:103E80007C7A05002F8601010101261401161428F1
:103E90001E0617038000000005000FA888397C82E9
:103EA000050067190601010177320116C8FA019170
:103EB0000700000032052C0080000000000A5A5A5A
:103EC000030F0000030000003F01000074FFFFFF2C
:103ED000DC0500003200CEFF3200CEFF0102000000
:103EE0001402000010FFFFFFFFFFFF7F1400ECFF34
:103EF0001400F6FF000A00006432965A32020104F0
:103F0000232F00FFFFFFFFFFFFFFFFFFFFFFFFFF6C
:103F1000FFFFFFFFFFFFFFFFFFFFFFFFFFFFFFFFB1
:103F2000FFFFFFFFFFFFFFFFFFFFFFFFFFFFFFFFA1
:103F3000FFFFFFFFFFFFFFFFFFFFFFFFFFFFFFFF91
:103F4000FFFFFFFFFFFFFFFFFFFFFFFFFFFFFFFF81
:103F5000FFFFFFFFFFFFFFFFFFFFFFFFFFFFFFFF71
:103F6000FFFFFFFFFFFFFFFFFFFFFFFFFFFFFFFF61
:103F7000FFFFFFFFFFFFFFFFFFFFFFFFFFFFFFFF51
:103F8000FFFFFFFFFFFFFFFFFFFFFFFFFFFFFFFF41
:103F9000FFFFFFFFFFFFFFFFFFFFFFFFFFFFFFFF31
:103FA000FFFFFFFFFFFFFFFFFFFFFFFFFFFFFFFF21
:103FB000FFFFFFFFFFFFFFFFFFFFFFFFFFFF04010A
:103FC0004D425401483248310000000000400000DA
:103FD000EEEE000604010401EEEEEEEE000F0F100F
:103FE000002209012E020000230117205620130091
:103FF000000000000000000000004000E880000019
:00000001FF
