:1007E000001C000000F10000489200000000000022
:1007F00000000000000000000000000000000000F9
:1008000078FFE4B8200118F6D8F99000007F007E48
:1008100007E4F0A3DFFCDEFA7581740222BD121931
:100820005212204E90020E7401F022022BD474AAB0
:100830007583F5758255A574557583FA7582AAA5D9
:1008400074A57583F5758255A52200021E5E904041
:100850007FE493FF64316003EF7002002253A87FAE
:100860000080FD021AB6EE30E707C3E49FFFE49E66
:10087000FE2274B62F122B1CE4F022022BD1E709C2
:10088000F608DFFA8046E709F208DFFA803E888240
:100890008C83E709F0A3DFFA8032E309F608DFFA78
:1008A0008078E309F208DFFA807088828C83E3099C
:1008B000F0A3DFFA806489828A83E0A3F608DFFA76
:1008C000805889828A83E0A3F208DFFA804C80D2C4
:1008D00080FA80C680D4806980F28033801080A640
:1008E00080EA809A80A880DA80E280CA8033898298
:1008F0008A83ECFAE493A3C8C582C8CCC583CCF044
:10090000A3C8C582C8CCC583CCDFE9DEE7800D89EA
:10091000828A83E493A3F608DFF9ECFAA9F0EDFBF1
:100920002289828A83ECFAE0A3C8C582C8CCC58339
:10093000CCF0A3C8C582C8CCC583CCDFEADEE88092
:10094000DB89828A83E493A3F208DFF980CC88F004
:10095000EF60010E4E60C388F0ED2402B404005035
:10096000B9F582EB2402B4040050AF23234582235F
:100970009008CE73EF8DF0A4A8F0CF8CF0A428CE11
:100980008DF0A42EFE22C2D5EC30E709B2D5E4C327
:100990009DFDE49CFCEE30E715B2D5E4C39FFFE477
:1009A0009EFE120BF2C3E49DFDE49CFC8003120B3F
:1009B000F230D507C3E49FFFE49EFE22C5F0F8A302
:1009C000E028F0C5F0F8E582158270021583E03862
:1009D000F022BB010A89828A83E0F5F0A3E022506D
:1009E0000687F009E71922BBFE07E3F5F009E319D2
:1009F0002289828A83E493F5F074019322BB010774
:100A000089828A830209BC500B09C5F027F7C5F01B
:100A10001937F722BBFE0D09F8E325F0F3C5F019ED
:100A2000E338F322F889828A8374019325F0C5F0B4
:100A3000F8E4933822BB010A89828A83F0E5F0A3A7
:100A4000F0225006F709A7F01922BBFE06F3E5F0E5
:100A500009F3192275F008758200EF2FFFEE33FEBF
:100A6000CD33CDCC33CCC58233C5829BED9AEC9986
:100A7000E58298400CF582EE9BFEED9AFDEC99FC28
:100A80000FD5F0D6E4CEFBE4CDFAE4CCF9A882226F
:100A9000B800C1B90059BA002DEC8BF084CFCECD8F
:100AA000FCE5F0CBF97818EF2FFFEE33FEED33FDC8
:100AB000EC33FCEB33FB10D703994004EB99FB0FAD
:100AC000D8E5E4F9FA227818EF2FFFEE33FEED3384
:100AD000FDEC33FCC933C910D7059BE99A4007ECFC
:100AE0009BFCE99AF90FD8E0E4C9FAE4CCFB227543
:100AF000F010EF2FFFEE33FEED33FDCC33CCC833D7
:100B0000C810D7079BEC9AE899400AED9BFDEC9A38
:100B1000FCE899F80FD5F0DAE4CDFBE4CCFAE4C8B0
:100B2000F922EB9FF5F0EA9E42F0E99D42F0EC6479
:100B300080C864809845F022EB9FF5F0EA9E42F071
:100B4000E99D42F0E89C45F022E8600FECC313FCFD
:100B5000ED13FDEE13FEEF13FFD8F122ECF0A3ED41
:100B6000F0A3EEF0A3EFF022A8828583F0D083D02B
:100B700082120B7F120B7F120B7F120B7FE473E448
:100B800093A3C583C5F0C583C8C582C8F0A3C58338
:100B9000C5F0C583C8C582C822EC8EF0A4CCC5F0D0
:100BA000CCCDF8EFA4CEC5F02DFDE43CFCE8A42E9E
:100BB000C8C5F03DFDE43CFCEFA4FFE5F028FEE4F1
:100BC0003DFDE43CFC22EF4E6012EF60010EEDBBF8
:100BD000010B89828A83F0A3DFFCDEFA2289F050C0
:100BE00007F709DFFCA9F022BBFEFCF309DFFCA933
:100BF000F022BC000BBE0029EF8DF084FFADF02287
:100C0000E4CCF875F008EF2FFFEE33FEEC33FCEE8A
:100C10009DEC984005FCEE9DFE0FD5F0E9E4CEFD7D
:100C200022EDF8F5F0EE8420D21CFEADF075F00850
:100C3000EF2FFFED33FD4007985006D5F0F222C3A9
:100C400098FD0FD5F0EA22208A03020F909002113E
:100C5000E07002A3E06003020F901213A160030290
:100C60000F90900132E0704490011D12122DFFAEE2
:100C7000F090010B12122DD39FE5F09E4003020F5E
:100C80009012122A121241F9E5F08FF0120A351271
:100C900012B2E490017BF0A3F09002131212DF1263
:100CA00013F0900215121430F56F8003756F007504
:100CB0007032E4F5B2F5BA90017FE0F55BA3E0F5A0
:100CC0005CC209300603020F7F758D20438D2075AD
:100CD0008D8043AA08D2AF758B02758EAF20062493
:100CE0001213A1701F200C1CE5DB20E217758AC4CB
:100CF000200C0DE5DB20E20875870300000080066C
:100D0000D2098002D209758B11758A5053AAF7D384
:100D1000900210E0949090020FE09401400EA3E046
:100D20002470F090020FE034FEF08007E490020F90
:100D3000F0A3F01229EF900055E025E025E0902E79
:100D4000C3F0A3E4F0A312128453997F122BB39043
:100D50002EE7740EF0902EEAF0121389902EC0E068
:100D600030E2F9902EC0E4F0902E04E0F571A3E09B
:100D7000F57243890412128B438004121386902E5D
:100D8000C0E030E2F912144BF522A3E0F523E4258C
:100D900072FFE5713424FEC3EF9523F525EE95220D
:100DA000F524D3E5259488E5249437400675243747
:100DB000752588902EC4E4F043998090016FE52456
:100DC000F0A3E525F0C3E55C9525FFE55B9524FEE2
:100DD0001208668E5D8F5E1214654003020F6FAEBF
:100DE00024AF257C007D14120B9912146F7FE07ED6
:100DF000817D027C009002BF121250FBD3120B388F
:100E00009002BF401712135A94E0FFEE9481FEED5A
:100E10009402FDEC9400FC12146F8007120B680022
:100E2000000000E47F607EEAFDFC9002BF121250D9
:100E3000FBD3120B38400A9002BF120B680000EA85
:100E40006012122A7D091213CF9002BF1212507B3A
:100E50000A1212A012146F900132E07039AE5BAF2B
:100E60005CFC7D09120B99C8ECC8C9EDC9CAEECA71
:100E7000CBEFCBE4FCFDEB2525FFEA35241212EE87
:100E8000E47B0A1212AC8E5B8F5C9002BF12123BA5
:100E90001212CA020F6F9002BFA3A3E0F9A3E0FFF2
:100EA0009001081212451212CA90010E12122DFF63
:100EB000AEF09002BF12124DFBD3120B385003025A
:100EC0000F7F12121912139AFEC3EF9574EE9573E9
:100ED0005003020F7F90010B12122DFFAEF07C0029
:100EE0007D02120B99C8ECC8EDC0E0EEC0E0EFC087
:100EF000E012121912139AFEE4FCFDD0E0FBD0E0E0
:100F0000FAD0E0F9EB2FFFEA3E1212EEE47B031277
:100F100012AC90010B121245121320900182E06076
:100F20004E1213B2404990010B12122D12139AFE69
:100F30001208669002C3EEF0A3EFF090010B1212BC
:100F40002DFFC312129450101213E3400B121242E1
:100F5000F9E475F0051209FD90010B12122D121221
:100F600092400CD31213E3400612124212145C207A
:100F7000090D12146550081213A17003020CC390DE
:100F80000181E00412136E12125B9001337401F0C0
:100F900022121219FDACF0D39FEC9E403490010E4A
:100FA00012122DFFC3ED9FFFEC95F0FED3EF9430AE
:100FB000EE9475400D9002C17475F0A37430F00288
:100FC000101412122412139A9002C1F0A3EFF080B1
:100FD0004312122AFFAEF090010E12122DFDACF05A
:100FE000C39FFFEC9EFED3EF9410EE9427400C902D
:100FF00002C174D8F0A374F0F0801212122AFFC359
:10100000ED9FFEEC95F09002C1F0A3CEF0E49002CB
:10101000C1F0A3F0900132E060461212C1D39400F7
:10102000EE64809480401A90012012122DFDD3EFBF
:101030009DEE95F0400B900215E4F0A37464F080EF
:101040001BD3900216E09400900215E09400400C2F
:1010500090010B12122D9002C112137ED20B80113F
:101060009002197407F0A374D0F07A00795012122C
:101070005FD39002C2E094009002C1E0648094804B
:1010800050030211EFE0F9A3E0FF90010B121245AB
:101090001212CA1212C1121455E47BB87A88F9F8F8
:1010A000C3120B22500A9002C17488F0A374B8F0E6
:1010B000D3900218E09400900217E094005007903B
:1010C000001BE0B4201D1212C1C39464EE6480942E
:1010D000805010EF9400EE6480948040257C007D69
:1010E0000A801430001C1212C1C394A0EE648094D4
:1010F0008F500F7C007D321209869002C1EEF0A362
:10110000EFF0900132E070030211CE900219E0700E
:1011100002A3E060030211CE1212C1121455E5536E
:101120002FF553E5523EF552E5513DF551E5503C62
:10113000F5500555E55570020554C3E55994E8E5A9
:10114000589403402AAE54AF55CBEFCB1212FCAFEC
:1011500053AE52AD51AC50120A908E568F57E4F5F3
:1011600053F552F551F550F554F555F558F559D359
:10117000E5579400E556940040301212C19557EEA1
:101180009556501AC3EF9557FFEE9556FEC3EF9450
:101190006EEE9400500812140EE4F55A800CE55AD5
:1011A000C39405500512140E055A90011412122D05
:1011B0007D0F1213CF9002C112126A121455EB7BED
:1011C000101212A0900114121245F9EE800F900235
:1011D000C1E0F9A3E0FF900114121245C98FF0128B
:1011E0000A3590011412122D24A8FFE5F0801D90FD
:1011F000010B121245121319900114121245121309
:10120000199002C2E024A8FF9002C1E03461F99075
:1012100001111212451212CA2290010EE0FBA3E046
:10122000FAA3E0F91209D2FFAEF0900108E0FBA3A7
:10123000E0FAA3E0F90209D2900134A3A3E0F9A3F4
:10124000E0FF90010EE0FBA3E0FAA3E022E4FCFD46
:10125000E0F8A3E0F9A3E0FAA3E0227A0079647E43
:10126000007F0B7D007B00020BC6C8ECC8C9EDC92E
:10127000CAEECACBEFCBE0FEA3E0FF22A3F0A3743B
:1012800001F0A322F043AB045389FB5395FB539623
:10129000FB22D3FF900186E09F900185E095F0222C
:1012A0002FFFEA3EFEE93DFDE83CFCE4FAF9F802D6
:1012B0000A907F087A0179347E007D007B01020B61
:1012C000C69002C1E0FEA3E0FF22C98FF0020A35FA
:1012D000E50A25E02426F8E6FE08E622A3F0A3743A
:1012E00003F0A374E8F022F9EB2FFFEA35F0FEEDEE
:1012F00039FDEC38FC22A3E0FEA3E0FBCAEECAE411
:10130000F9F822902EC07402F0902EC27412F09060
:101310002EC77401F0902EC422F9E4F5F0020A35CC
:10132000F9EE8FF0020A35902E44E0FEA3E0FF7C38
:10133000007D1412097490012622E50D25E0247326
:10134000F582E43401F583E0FEA3E0FF22900187FB
:10135000E0FCA3E0FDC3EF9DFF22E0FCA3E0FDA3C2
:10136000E0FEA3E022900183F0A3F0A3F022F07E40
:10137000007F057D007B007A00795F020BC6FFE5E8
:10138000F0F0A3EFF022122BBD902EC07419F022C2
:10139000E4F50EF50DF50CF50B22C39FFFE5F09E6D
:1013A0002290001BE0642022D3EF9414EE6480941A
:1013B0008022900185E0FEA3E0FFD39400EE94002C
:1013C00022902EC07402F0902EC4E4F0A3F022FF0D
:1013D000AEF07C00020B99AB0EAA0DA90CA80BD3A2
:1013E000020B389002C4E094649002C3E09400229F
:1013F000E4900217F0A3F02290016FE56AF0A3E5F4
:101400006BF02225E02426F8A60F08A610229002F1
:10141000C1E556F0A3E557F022F9746175F0A80212
:101420000A3590003A7410F022E4F0A3F0A3F02201
:10143000F0A3F090021BF0A3F022E4F0A374C8F034
:1014400022FEEF2401FFE43EC31322902EC0E4F0FD
:10145000902E1EE022EE3395E0FDFC22F974FF751C
:10146000F0FB0209FDC3E55E9570E55D956F229086
:1014700002BF020B5C900189121250FBE9C0E0EA46
:10148000C0E0EBC0E090012312122DFFE4FCFDD080
:10149000E0FBD0E0FAD0E01212E7900189120B5C79
:1014A00090018EE004F0700690018DE004F0900150
:1014B0008FE07002A3E0600302161C9001891213F2
:1014C0005AFFEEC0E0EFC0E01212F6D0E0FFD0E02D
:1014D000FE120A90900189120B5C900189A3A3E08F
:1014E000FFA3E0900187CFF0A3EFF0A3120B6800F9
:1014F00000000090018D121429A374C8F090020F0F
:10150000E07002A3E0600302161C900132E0700359
:101510000215AE900183E0FEA3E0FF4E7022900121
:1015200087E0FDA3E0900183CDF0A3EDF090010BE7
:1015300012122DFD900185E5F0F0A3EDF002159754
:1015400012134DEE9CFE1208669001951212451280
:101550001320900182E0702690019512122DC39401
:101560001EE5F09400500F90010B12122DFF900118
:101570008512137F80219001827401F080199001FF
:101580009512122DC39402E5F09400500AE4121350
:1015900065A3F0900182F0E4900191F0A3F0900136
:1015A0009BF090019812124512131902161C90011B
:1015B00091E0FEA3E0FF4E7012900187E0FDA3E0F2
:1015C000900191CDF0ED1212DC805112134DEE9C82
:1015D000FE12086690019812124512132090019392
:1015E000E07002A3E0703590019812122DD3941987
:1015F000E5F09400400C9001937413F0A37488F00C
:10160000800BE490019BF09001931212DF90018710
:10161000E0FFA3E0900191CFF0A3EFF0900132E062
:101620007009121365A3F0900182F0221213C153C6
:10163000997FF50BF50CF50DF50EF50A122BB3E5B8
:101640000A25E02408902EE7F0902EEA1212841268
:101650001389902EC0E030E2F9902EC0E4F0438967
:101660000412128B438004902E04E0FEA3E0250CAC
:10167000F50CEE350BF50B121386902EC0E030E220
:10168000F912144BFEA3E0250EF50EEE350DF50D07
:10169000050AE50AC3940640A3439980902EC5E449
:1016A000F0250CFFE50B3424FEC3EF950EF510EE8C
:1016B000950DF50FD3E5109488E50F943740067526
:1016C0000F37751088900167E50FF0A3E510F090D3
:1016D000016BE50DF0A3E50EF0A3E50BF0A3E50C1F
:1016E000F0AF10AE0F12211D90016FEEF0A3EFF0DE
:1016F00090001BE0B4200312125B90016FE0FEA388
:10170000E0FFE4FCFDE5672FF567E5663EF566ED75
:101710003565F565EC3564F5640569E569700205C4
:1017200068C3E56D94E8E56C9403402AAE68AF6940
:10173000CBEFCB1212FCAF67AE66AD65AC64120A9C
:10174000908E6A8F6BE4F567F566F565F564F5686C
:10175000F569F56CF56DD3E56B9400E56A9400408E
:1017600053900170E0956BFF90016FE0956AFE90D9
:1017700002C5F0A3EFF0D394F7EE6480947F401598
:10178000E094069002C5E06480948050081213F83B
:10179000E4F56E801F9002C5E0FEA3E0FF1208662C
:1017A0001213A84003756E03E56EC394035005122F
:1017B00013F8056E90016FE0F54EA3E0F54F782623
:1017C0007C007D007B007A0079287E007F2802095A
:1017D0004E900132E070030218661212B2900213AA
:1017E0001212DF900182E070030219511213B250FD
:1017F0000302195190010B12122D12139AFE1208B6
:10180000669002C1EEF0A3EFF0D39496EE94004000
:101810000AE4900182F0A3F0A3F02290010B1212CF
:101820002D1212924015D39002C2E094329002C160
:10183000E09400400612124212145C90010B121246
:101840002DC312129340030219519002C2E0942852
:101850009002C1E094005003021951121242F9E4BF
:1018600075F0050209FD900134121250FBE9C0E049
:10187000EAC0E0EBC0E012122AFFE4FCFDD0E0FB7E
:10188000D0E0FAD0E01212E7900134120B5C900124
:1018900039E004F07006900138E004F0900213E0A3
:1018A0007002A3E0600302195190013412135AFF31
:1018B000EEC0E0EFC0E01212F6D0E0FFD0E0FE1282
:1018C0000A90900134120B5C90010E12122D241E0E
:1018D000FFE435F0FE90013412124DFBD3120B38A9
:1018E000403F90020FE07002A3E0703590019BE052
:1018F000702F200B2C90013BE004F0700690013A11
:10190000E004F0D390013BE0940590013AE09400AC
:10191000401E1212381212CAE490013AF0A3F0806D
:101920000F1212381212CAE490013AF0A3F0C20B5F
:10193000900134120B6800000000E4900138F0A31D
:10194000F090019BE0900213600412143A221212EC
:10195000DF227E007FFF7D007B017A007904120B7D
:10196000C69002D17400F0A37404F09001C2740117
:10197000F0A37400F0A374B8F09001C87401F0A350
:101980007400F074AC12293D7400F0A37494F090CC
:1019900001C57401F0A37400F0A374C6F09001CEE9
:1019A0007401F0A37400F074D212293D7400F0A306
:1019B000741F12293E7401F0A37402F0902DE0E42C
:1019C00093FF9002D1E0FCA3E0FDF5828C83A3EFAE
:1019D000F0900002E0FFED2404122917900001E0CE
:1019E000FFED2405122917900003E0FFED240612F5
:1019F0002917902DE2E493FFED2412122917902D60
:101A0000E3E493FFED24141229179001D77401F039
:101A1000A37400F0A3743CF0E4FF75F002EFA4247B
:101A200001F582E5F0342EF583E493FE74542FF52E
:101A300082E43400F583EEF0EF25E0242DF582E416
:101A4000342EF583E493FE122945EEF0122945E089
:101A5000FEEF25E0242CF582E4342EF583E4932474
:101A6000C0F582E4342EF583EEF00FEFB416AB90A0
:101A70002F56E0900058F0902F56E090006EF090B6
:101A80002F56E0900059F0902F56E090006FF090A4
:101A900000FF7401F09000FEF090003A7410F09096
:101AA000001BF0900028F0A37420F090020F741334
:101AB000F0A37488F022C0E0C083C082C0D0D2AF4F
:101AC000900220E004F0D3900210E0940090020F06
:101AD000E09400400CA3E024FFF090020FE034FFFC
:101AE000F0D3900212E09400900211E09400400CB8
:101AF000A3E024FFF0900211E034FFF0D390021431
:101B0000E09400900213E09400400CA3E024FFF066
:101B1000900213E034FFF0D3900216E0940090029C
:101B200015E09400400CA3E024FFF0900215E0348F
:101B3000FFF0D3900218E09400900217E094004068
:101B40000CA3E024FFF0900217E034FFF0D39002E2
:101B50001EE0940090021DE09400400CA3E024FFDE
:101B6000F090021DE034FFF0D390021CE09400904E
:101B7000021BE09400400CA3E024FFF090021BE065
:101B800034FFF0D390021AE09400900219E0940020
:101B9000400CA3E024FFF0900219E034FFF0C3E50D
:101BA0006D94E8E56C94035008056DE56D700205D1
:101BB0006CC3E55994E8E558940350080559E55974
:101BC00070020558D3900190E0940090018FE0944A
:101BD00000400CA3E024FFF090018FE034FFF0D32D
:101BE000900194E09400900193E09400400CA3E0F5
:101BF00024FFF0900193E034FFF0D0D0D082D08366
:101C0000D0E032121390F515F516852611852712AE
:101C1000852613852714F50A1212D0FFD3E5149FE9
:101C2000E5139E40078E138F14850A16C3E5129F95
:101C3000E5119E50078E118F12850A15050AE50AD7
:101C4000B414D5E4F50FF510F50AE516650A602E13
:101C5000E515650A6028E510450F7010E50A25E0D6
:101C60002426F8E6F50F08E6F51080121212D025AA
:101C700010FFE50F3E121441F50FEF13F510050AA2
:101C8000E50AB414C590017FE50FF0A3E510F0E577
:101C900016C394115005E516121403E515C39411EB
:101CA0005005E515121403121390F50A1212D0FF15
:101CB000C3E5109FFFE50F9EFE120866D3EF94194F
:101CC000EE64809480400FE4FCFDE50E2510F50ED7
:101CD000E50D350F800F1212D0FFE4FCFDE50E2F4D
:101CE000F50EE50D3EF50DED350CF50CEC350BF56F
:101CF0000B050AE50AC3941440B27FE07E817D02A1
:101D00007C001213D7401AE50E94E0F50EE50D9411
:101D100081F50DE50C9402F50CE50B9400F50B80B4
:101D200003121390E47F607EEAFDFC1213D7400B90
:101D3000E4750E60750DEAF50CF50BAE0DAF0E22D5
:101D400090017BE0FEA3E0FFC39404EE9400502FCB
:101D5000900106E0FCA3E0FDEF25E0FFEE33FE740A
:101D6000732FF58274013EF583ECF0A3EDF0900142
:101D70007CE004F0700690017BE004F0021E007528
:101D80000D0112133AE50D25E02471F582E43401CA
:101D9000F583EEF0A3EFF0050DE50DB404E41212A7
:101DA0002AFF900106121350E5F09CFE120866C34C
:101DB000EF9428EE648094805037900132E07023D5
:101DC00090010E12122DFFC3900107E09FFF9001BA
:101DD00006E095F0FE120866C31213A950059001A3
:101DE0000E800390010812122DFF900179E5F0801A
:101DF0000B900106E0FFA3E0900179CFF0A3EFF094
:101E0000E4F50CF50BF50AF509F50DD390017CE02E
:101E1000950D90017BE09400401E12133AE4FCFD06
:101E2000E50C2FF50CE50B3EF50BED350AF50AEC4C
:101E30003509F509050D80D3AF0CAE0BAD0AAC0921
:101E4000EEC0E0EFC0E090017B1212F7D0E0FFD0CF
:101E5000E0FE120A908F0C8E0B8D0A8C0922C0E0D6
:101E6000C083C082C0D0ECC0E0EDC0E0EEC0E0EFC7
:101E7000C0E0D2AFE5DB30E419D20CC208E5DB30BC
:101E8000E102802E9002D0E5DFF09002D3E4F00270
:101E90001F44E5DB30E50FD206300805C208021FFB
:101EA00044C20C021F44C208E5DB30E135E5DB30FB
:101EB000E00C9002D4122B99E0F5DF021F4490024F
:101EC000D4E0FFB40813208A10D28A9002D1E0FC3B
:101ED000A3E02407122BA3E4F0EF641A7066D20784
:101EE00080629002D3E0700EA3E5DFF09002D3741D
:101EF00001F0D208804E9002D4E090295093FFB4B4
:101F0000FF0E9002D0E5DFF09002D4E004F08034C0
:101F1000EF640F9002D47026E0FFA3E0FCA3E0FD85
:101F2000122BA2E0540FF09002D4E0FF04F0ED1267
:101F30002BA2E0FFE5DF54F0FEEF4EF08006122BFF
:101F400099E5DFF075DBFFD0E0FFD0E0FED0E0FDEB
:101F5000D0E0FCD0D0D082D083D0E0329002C3EF6A
:101F6000F09002C8E4F0A374FFF0E4A3F0A3F0A3A0
:101F700004F0A374FFF0902EC07402F0902EC3748E
:101F800008F0E49002C4F0A3F09002C4E0FEA3E0E5
:101F9000FFC39409EE9400400302204BEF9407EE38
:101FA000940040067E007F0180199002C4A3E004E3
:101FB000FFE47E01C8EFC8088006CEA2E713CE1367
:101FC000D8F8FF9002C6EEF0A3EFF0902EC074197F
:101FD000F0902EC0E030E2F99002C3E0FF75F0020D
:101FE000A4240012292CE0FCA3E0FD902EC0740272
:101FF000F0D3ED94FFEC940F40179002C6E0FCA3E1
:10200000E0FD75F002EF122929EC8DF01209BC8079
:10201000299002C3E075F002122929C083C082E032
:10202000FEA3E0FF9002C6E0FCA3E0FDC3EF9DFF2E
:10203000EE9CD082D083F0A3EFF09002C5E004F0D4
:1020400070069002C4E004F0021F897F00227F9690
:102050007A0179061212B89001087401F0A3740095
:10206000F0744412127C7400F0744612127C7400F6
:10207000F0A3744812127D7400F0A3743212127D22
:102080007400F0A3742E12127D7400F0A3742CF06F
:102090009001237401F0A37400F0A37426F0900162
:1020A000957401F0A37400F0A3748412127D74007F
:1020B000F0A37486F09001267401F0A37400F0A3DD
:1020C000741C12127D7400F0A37422F090011A7433
:1020D00001F0A37400F0A3743612127D7400F0A313
:1020E000742A12127D7400F0A37438F075730075B1
:1020F00074C890011A121245F9E5738574F0120A3A
:102100003590011D121245F9E475F064120A3590FC
:102110000120121245F9E475F096020A359002C7C3
:10212000EEF0A3EFF0E5624561700C9002C7E0F5B8
:1021300061A3E0F56280169002C8E02562FF90027C
:10214000C7E03561121441F561EF13F5620563E5EF
:1021500063D3940A400D85615F856260E4F561F5A3
:1021600062F563D3E5609400E55F9400405A900205
:10217000C8E09560FF9002C7E0955FFE120866C355
:10218000EF940AEE648094805026AE5FAF607C00CE
:102190007D03120B999002C712126AE4FCFDEB2F2B
:1021A000FFEA3E1212EE7802120B499002C780132A
:1021B0009002C8E02560FF9002C7E0355FC313FEC0
:1021C000EF13FFEEF0A3EFF09002C7E0FEA3E0FFF5
:1021D000229002C1EEF0A3EF12136E9002C1E070E4
:1021E00002A3E0600312247212259EE490017BF0AA
:1021F000A3F07F14122A21900211E4F074641212E9
:10220000DC900106E0F9A3E0FFA31212451212CA06
:1022100090010B121245121319900111121245125E
:102220001419900114121245121319900117121269
:1022300045121419121422E4900132F09001341264
:102240000B6800000000900138121429A3F09001DF
:102250000612123D1212CAE4900133F090021D12D0
:102260001430FE7F13FD7B017A017982120BC69038
:10227000012312122D90018712137E90018F1214E8
:102280003A22022A4FE493A3F8E493A34003F68092
:1022900001F208DFF48029E493A3F85407240CC862
:1022A000C333C4540F4420C8834004F4568001460D
:1022B000F6DFE4800B0102040810204080902650D5
:1022C000E47E019360BCA3FF543F30E509541FFE38
:1022D000E493A360010ECF54C025E060A840B8E4A9
:1022E00093A3FAE493A3F8E493A3C8C582C8CAC52C
:1022F00083CAF0A3C8C582C8CAC583CADFE9DEE7BE
:1023000080BE30000875731B7574588006757300A5
:102310007574C890010B12122DFFAEF0C39574EEC8
:1023200095735015900132E0602090012012122D1B
:10233000FDC3EF9DEE95F04011900217E07002A3EF
:10234000E0702790013204F0802090001BE0B42060
:10235000051213F0800690021712143AE49001322D
:10236000F0900215F0A3F0121422900132E06011F7
:10237000900028E090003AB410047410F022742009
:10238000F02290022AE014601B1460432402705D66
:10239000900234E0B4010A90022A1223EED205D250
:1023A00000C203227F0212285AEF60077F02120840
:1023B00072C205900234E0703490022A7402F0D2A6
:1023C00003C205C2007F031208727F030226A67FA4
:1023D0000312285AEF60167F03120872900234E04D
:1023E00090022A7003F080031223EEC203227401CC
:1023F000F07F021208727F021226A622CDEFCD4393
:10240000AD105399EF439A10539BEF902EC0740276
:10241000F0147E00C8EDC8088005C333CE33CED893
:10242000F9FF902EC4EEF0A3EFF0902EC8EEF0A3CB
:10243000EFF07410122B02902EC0E030E2F9902ED3
:10244000C0E4F07402F07420122B02902EC0E03031
:10245000E2F9902E00E0FEA3E0FF902EC4E4F0A38A
:10246000F0902EC0F0439910539AEF539BEF539086
:10247000EF22122AA6902E44E0FEA3E02449FFEEAC
:1024800034FEFE1213A8400A902E447401F0A37487
:10249000B7F053997F122BBD902E5EE4F0A374FF2A
:1024A000F07F0F121F5C902E5EE0FEA3E0D394F04D
:1024B000EE94014007902E5EE4F0A3F0902EC4E469
:1024C000F0439980A3F0900105E0900021F01213F1
:1024D00027121245F9EE8FF0020A35200A06200372
:1024E00003300509E4FFFE1221D1C20A2290021B2B
:1024F000E07002A3E060051213A1703F20000312F8
:10250000298612259E7F01122A21121D409002BFAA
:10251000EEF0A3EFF07B017A0279BF1226F790026A
:10252000BFE0F9A3E0FF9001081212451212CA128F
:102530000F911223021214751217D11228DC229067
:1025400002BF7408F0A3E4F0A3743FF0A374DFF0BB
:10255000E4FDFCF9758A10538AEF009002BFE0FE9B
:10256000A3E02DF582EE3CF583E493FF69F90DBD00
:1025700000010CBC37E5BDDFE29002C1122BAAE4DA
:1025800093699002D17009122BAAA374F1F080060E
:10259000122BAAA3E4F0758A50538AEF00224389D4
:1025A000045395FB5396FB438004122B3C7F0C1283
:1025B00023FCCAEECACBEFCB7F0C1223FCEF2BFF20
:1025C000EE3A9002C4F0A3EFF0122B0EF91209D2EA
:1025D00045F07006122AF3EE80181209D2FBAAF019
:1025E000122AF3EF2BFFEE3AC313F9EF13FF122B6E
:1025F0000EC98FF0120A3522122935F5828E83A377
:10260000E0B4AA0312253F122935FF122920E0B4B5
:102610001008EF122920E4F0D20A122935FF241BFA
:10262000122922E0700DEF241C122922E0B41003BD
:102630001227D51229352413122922E0FFB41006DF
:102640009002347401F0EFB42005E4900234F022DB
:10265000C10C41022E0041022F0041022B00410219
:102660003300C102C101C1044102340041022A0009
:10267000C103C100C1054102D3004102D40042029E
:10268000CE0000C106C108C1074102D010410103BC
:102690000041010510C10BC10A41019C0041010428
:1026A0001041023500009002BFEFF0E024B6122B7B
:1026B0001CE060037F01229002BFE0FF24B6122BD2
:1026C0001C7401F0EF122B24E493FE740193FFE4D9
:1026D000FCFD902F60E0F8A3E0F9A3E0FAA3E02F5F
:1026E000FFEA3EFEED39EC389002BFE0122B30EEEF
:1026F000F0A3EFF07F00229002C1EBF0A3EAF0A379
:10270000E9F0900211E07002A3E07037900133E02D
:102710006031E4900133F012259E7508017F0112AB
:102720002A21121D409002C11212451213200508E1
:10273000E508C3941440E6900211E4F0A37464F039
:102740001213F0221213A1702E90019CE0700890D9
:102750000211F0A37464F090019C7401F0900029C0
:10276000E0B420081224DB120C4780031229BC902D
:10277000021F7401F08017E490019CF0900029E0A2
:10278000B420031224DB90021FE06002E4F0022B6D
:102790005F90020EE024FE6013146023146027246F
:1027A00003703190020E7402F0122BCD7F017E0077
:1027B0001221D190020E7403F0E490022BF02290CB
:1027C000020E7404F022122382122744122382E4A0
:1027D000900220F02212082EE4F5F275F30875EE4F
:1027E000FF75EF3F75EA81F5F675EB0700E5EC3014
:1027F000E7FBE4F5EC9002D1E0FEA3E0FF241BF53B
:1028000082E43EF583E5F3F0EF241CF582E43EF527
:1028100083E5F2F075EB3022758B11902F647440D4
:10282000F0E4FEE4FFEF75F003A42448F582E434FD
:1028300002F583E5822EF582E43583F583E4F00F1B
:10284000EFB40AE10EEEB403DA7F099002B6E4F0C9
:10285000A3DFFC902F647480F022CBEFCB122B19F6
:10286000E06036902F60A3A3E0FEA3E0FFEB122B05
:1028700030E0FCA3E0FDD39FEC9E501DC3EF9DFF15
:10288000EE9CFEEB122B24C37401939FE4939E40B5
:1028900008122B19E4F07F01227F0022758A505321
:1028A0008AEF9000027411F09000017422F0900001
:1028B000037433F0E4F5AB75AC1DF5ADF5AF758978
:1028C000FF75913F7599FFF59675931CF59BF595EE
:1028D000F592F59A5388FCD28AD20D2290003AE004
:1028E000FC900104E06C602E90003AE0FE90010440
:1028F000F090000BE0900233F0540FF0EEB420059E
:10290000E04420800AECB4100B900233E04410F055
:1029100090000BF0C28A22F582E43CF583EFF022AE
:10292000241AF582E43EF58322A42440F582E5F0E2
:10293000342EF583229002D1E0FEA3E022A3F0A37F
:102940007401F0A322746A2FF582E43400F5832227
:1029500000000000FFFFFFFF0000FFFFFFFFFFFF81
:10296000FFFFFF00FF000000FFFF000000FFFFFF70
:10297000FFFFFFFF00000000FFFFFFFFFFFFFFFF63
:10298000FFFF00000000300732C207902E44E0FF36
:10299000A3E09002C1CFF0A3EFF0122AA6121327F2
:1029A000121245121320902EC07402F09002C1E062
:1029B000FFA3E0902E44CFF0A3EFF022E4F5B2F5B0
:1029C000BA758D20438D20538D7F53AAF7F58BE583
:1029D000DB20E217200C14E4F58A75870300000061
:1029E000758A50D20A9000297420F0758B1122123A
:1029F00013C1FF74542FF582E43400F583E0FE75B3
:102A0000F002EFA42400F582E5F0342EF583E49380
:102A100024C0F582E4342EF583EEF00FEFB416D324
:102A2000229002C4EFF01229EFE4F5099002C4E00D
:102A3000FFE509C39F500712162C050980EE902E62
:102A4000C0E4F0121C03900106EEF0A3EFF0221296
:102A5000084E53A87F12289C12081E122A7B43A8F6
:102A600080122BC79000FFE0600690020E7401F008
:102A7000122B7D1225F812279180F59002D1E0FFEC
:102A8000A3E09002D5CFF0A3EFF0E4F5DA75DA40D9
:102A900043DA2075D74075DA5875D90143A908750E
:102AA000B80875F8082212128553997F1229EF9001
:102AB0002E44E4F0A374FFF0122BB37F02121F5CCC
:102AC00043890412128B4380044399802201F4004D
:102AD00028002801F4009603E801F403E8177000C9
:102AE0006403E8003202580258012C01F403E8277D
:102AF0001000C89002C4E0FEA3E0FF7C007D140239
:102B00000974902EC2F0902EC0E04419F02290017A
:102B100023E0FBA3E0FAA3E02274B62BF582E434B1
:102B200002F5832225E024E1F582E4342AF58322AC
:102B300025E02436F582E43402F58322902EC07419
:102B400002F0902EC77471F0902ECD74C0F0A37473
:102B5000FFF0A3F0902EC37401F0902ECAF022E58E
:102B6000B230E005E5AA20E013E4900221F075B24E
:102B70008E75B6F9F5B743B20143AA0122E4FF30DE
:102B800006169002D1E0FCA3E0F5828C83E0FE54AF
:102B9000F0FFEE540FF0C20622E0FF04F0A3E0FCC9
:102BA000A3E02FF582E43CF58322E0FEA3E0F5826A
:102BB0008E8322121303E4F0A37404F02212130391
:102BC0007480F0A3E4F022122BD7022818121422EA
:102BD00022D2AF32D2AF32022B5F000000000000E1
:102BE00000000000000000000000000000000000E5
:102BF00000000000000000000000000000000000D5
:102C000000000000000000000000000000000000C4
:102C100000000000000000000000000000000000B4
:102C200000000000000000000000000000000000A4
:102C30000000000000000000000000000000000094
:102C40000000000000000000000000000000000084
:102C50000000000000000000000000000000000074
:102C60000000000000000000000000000000000064
:102C70000000000000000000000000000000000054
:102C80000000000000000000000000000000000044
:102C90000000000000000000000000000000000034
:102CA0000000000000000000000000000000000024
:102CB0000000000000000000000000000000000014
:102CC0000000000000000000000000000000000004
:102CD00000000000000000000000000000000000F4
:102CE00000000000000000000000000000000000E4
:102CF00000000000000000000000000000000000D4
:102D000000000000000000000000000000000000C3
:102D100000000000000000000000000000000000B3
:102D200000000000000000000000000000000000A3
:102D30000000000000000000000000000000000093
:102D40000000000000000000000000000000000083
:102D50000000000000000000000000000000000073
:102D60000000000000000000000000000000000063
:102D70000000000000000000000000000000000053
:102D80000000000000000000000000000000000043
:102D90000000000000000000000000000000000033
:102DA0000000000000000000000000000000000023
:102DB0000000000000000000000000000000000013
:102DC0000000000000000000000000000000000003
:102DD00000000000000000000000000000000000F3
:102DE000F104AB1C00000000000000000000000027
:102DF00000000000000000000000000000000000D3
:102E0000021203030A100DA00EB60FFF0C020BFFF7
:102E100023F724062504070127082A0828022B0285
:102E200029032C032D082E082F042608021103065F
:102E30000A100D400E800FFF0C020BFF23F4240438
:102E40002504070127102A1028042B0429032C032A
:102E50002D202E202F102620000000000000000052
:102E60000000000000000000000000000000000062
:102E70000000000000000000000000000000000052
:102E80000000000000000000000000000000000042
:102E90000000000000000000000000000000000032
:103FD000000000000000000000000000000000439E
:103FE00000000000000000000000000000000000D1
:103FF00000000000000000000000000000000000C1
:00000001FF
