:10000000006A0000000D000002EA0000000000008D
:1000100000000000000000000000000000000000E0
:1000200078FFE4B8200118F6D8F99000007F007E30
:1000300007E4F0A3DFFCDEFA75817802283C121E8B
:10004000F812249690021E7401F02202317E74AAE6
:100050007583F5758255A574557583FA7582AAA5C1
:1000600074A57583F5758255A522000221999040EB
:100070007FE493FF64326003EF7002002253A87F95
:100080000080FD021D3FEE30E707C3E49FFFE49EC2
:10009000FE2274C92F123118E4F02202317B208A2B
:1000A00003020C51900221E07002A3E06003020CF5
:1000B0005190021FE07002A3E06003020C51900116
:1000C00075E07002A3E06003020C511217FD60039B
:1000D000020C51900134E0702D90011F121688FF20
:1000E000AEF0121685D39FE5F09E4003020C51122C
:1000F0001791E4900181F0A3F01218979002251255
:1001000018B8F5758003757500757619E4F5B2F5C4
:10011000BA900185E0FEA3E08E5BF55C8E24F525A8
:10012000900169E0F577A3E0F578900167E0F522AA
:10013000A3E0F523C209758D20438D20758D804382
:10014000AA08D2AF758B02758EAF2006241217FD58
:10015000701F200C1CE5DB20E217758AC4200C0DF3
:10016000E5DB20E2087587030000008006D20980E5
:1001700002D209758B11758A5053AAF7D3900220C9
:10018000E0949090021FE09401400EA3E02470F0F0
:1001900090021FE034FEF08007E490021FF0A3F00D
:1001A000D390022CE0949090022BE09401400EA397
:1001B000E02470F090022BE034FEF08007E490021F
:1001C0002BF0A3F0122F8E900055E075F006A4904E
:1001D0002EC3F0A3E4F0A3F01216F553997F12306A
:1001E000A1121761902EC0E030E2F9121761902E33
:1001F000C0E030E2F9902EC0E4F0AE77AF78FC7D3D
:1002000003120D48902E02121838CEC313CE13D805
:10021000F9F5788E774389021216FB438002121794
:100220005E902EC0E030E2F9121761902EC0E030EF
:10023000E2F9902EC0E4F0AE22AF23FC7D03120D54
:1002400048902E1E121838CEC313CE13D8F9F523BA
:100250008E22E5782527FFE5773526FEC3EF952327
:10026000F54FEE9522F54EF524854F25121851E5F0
:10027000259FE5249E40048E248F25902EC4E4F013
:1002800043998090016BE524F0A3E525F0C3E55C7C
:100290009525FFE55B9524FE1208668E5D8F5E1244
:1002A00019054003020C26AE24AF257C007D1212F6
:1002B0000F6D12190FAF72AE71AD70AC6F9002D2AC
:1002C0001216DEFBD3120F0C9002D240171217D277
:1002D0009572FFEE9571FEED9570FDEC956FFC1239
:1002E000190F8007120F3C00000000E47F607EEAD7
:1002F000FDFC9002D21216DEFBD3120F0C400A90C6
:1003000002D2120F3C0000EA6090010A121688FF28
:10031000AEF07C007D09120F6D9002D21216DE7BCA
:100320000A12172812190F900134E07036AE5BAF35
:100330005CFC7D091216CBE4FCFDEB2525FFEA35BC
:100340002412171AE47B0A1217348E5B8F5C90021A
:10035000D21216961217221217C41216A0121722C2
:10036000020C261217C41216A012172290011012A6
:100370001688FFAEF09002D21216DBFBD3120F0CE0
:100380005003020C369001101216881218E712164C
:1003900088121831FE1218694003020C36E4FCFD85
:1003A000C8ECC8EDC0E0EEC0E0EFC0E0121685FF7B
:1003B000D0E0FBD0E0FAD0E0F9EF2BFFE5F03A1205
:1003C000171AE47B0212173490010D1216A01217AF
:1003D000EC121685D39430E5F09475400874757569
:1003E000F030120E09900188E0605B1217824056CF
:1003F000121685121831FE1208669002D6EEF0A38E
:10040000EFF01216851216E995F050199002D7E018
:10041000940F9002D6E09400400B12169DF9E475FB
:10042000F005120DD1121685FFD31216EB95F04090
:1004300015D39002D7E094109002D6E094004006C5
:1004400012169D1218FC20090D12190550081217DA
:10045000FD7003020916900187E0041216A8E490CB
:10046000016712177BF090013504F09002231217F8
:10047000A322E709F608DFFA8046E709F208DFFA67
:10048000803E88828C83E709F0A3DFFA8032E3099B
:10049000F608DFFA8078E309F208DFFA80708882D4
:1004A0008C83E309F0A3DFFA806489828A83E0A366
:1004B000F608DFFA805889828A83E0A3F208DFFA1F
:1004C000804C80D280FA80C680D4806980F28033EC
:1004D000801080A680EA809A80A880DA80E280CAB4
:1004E000803389828A83ECFAE493A3C8C582C8CC9E
:1004F000C583CCF0A3C8C582C8CCC583CCDFE9DEF8
:10050000E7800D89828A83E493A3F608DFF9ECFA89
:10051000A9F0EDFB2289828A83ECFAE0A3C8C582A8
:10052000C8CCC583CCF0A3C8C582C8CCC583CCDFFA
:10053000EADEE880DB89828A83E493A3F208DFF9AC
:1005400080CC88F0EF60010E4E60C388F0ED24028D
:10055000B4040050B9F582EB2402B4040050AF2378
:1005600023458223900CA273EF8DF0A4A8F0CF8CCA
:10057000F0A428CE8DF0A42EFE22C2D5EC30E709DF
:10058000B2D5E4C39DFDE49CFCEE30E715B2D5E4A2
:10059000C39FFFE49EFE120FC6C3E49DFDE49CFCD6
:1005A0008003120FC630D507C3E49FFFE49EFE22EE
:1005B000C5F0F8A3E028F0C5F0F8E58215827002D6
:1005C0001583E038F022BB010A89828A83E0F5F0C6
:1005D000A3E022500687F009E71922BBFE07E3F5E6
:1005E000F009E3192289828A83E493F5F074019378
:1005F00022BB010789828A83020D90500B09C5F046
:1006000027F7C5F01937F722BBFE0D09F8E325F0EF
:10061000F3C5F019E338F322F889828A83740193D1
:1006200025F0C5F0F8E4933822BB010A89828A8359
:10063000F0E5F0A3F0225006F709A7F01922BBFE5F
:1006400006F3E5F009F3192275F008758200EF2F23
:10065000FFEE33FECD33CDCC33CCC58233C5829B88
:10066000ED9AEC99E58298400CF582EE9BFEED9AAE
:10067000FDEC99FC0FD5F0D6E4CEFBE4CDFAE4CC4A
:10068000F9A88222B800C1B90059BA002DEC8BF04C
:1006900084CFCECDFCE5F0CBF97818EF2FFFEE3309
:1006A000FEED33FDEC33FCEB33FB10D70399400434
:1006B000EB99FB0FD8E5E4F9FA227818EF2FFFEE5B
:1006C00033FEED33FDEC33FCC933C910D7059BE98C
:1006D0009A4007EC9BFCE99AF90FD8E0E4C9FAE4E8
:1006E000CCFB2275F010EF2FFFEE33FEED33FDCC87
:1006F00033CCC833C810D7079BEC9AE899400AED71
:100700009BFDEC9AFCE899F80FD5F0DAE4CDFBE418
:10071000CCFAE4C8F922EB9FF5F0EA9E42F0E99D9D
:1007200042F0EC6480C864809845F022EB9FF5F0BD
:10073000EA9E42F0E99D42F0E89C45F022E8600F15
:10074000ECC313FCED13FDEE13FEEF13FFD8F12203
:10075000ECF0A3EDF0A3EEF0A3EFF022A8828583E6
:10076000F0D083D082120F53120F53120F53120F77
:1007700053E473E493A3C583C5F0C583C8C582C899
:10078000F0A3C583C5F0C583C8C582C822EC8EF02E
:10079000A4CCC5F0CCCDF8EFA4CEC5F02DFDE43C43
:1007A000FCE8A42EC8C5F03DFDE43CFCEFA4FFE549
:1007B000F028FEE43DFDE43CFC22EF4E6012EF60C9
:1007C000010EEDBB010B89828A83F0A3DFFCDEFA08
:1007D0002289F05007F709DFFCA9F022BBFEFCF3E9
:1007E00009DFFCA9F022BC000BBE0029EF8DF084CC
:1007F000FFADF022E4CCF875F008EF2FFFEE33FEEA
:10080000EC33FCEE9DEC984005FCEE9DFE0FD5F020
:10081000E9E4CEFD22EDF8F5F0EE8420D21CFEAD29
:10082000F075F008EF2FFFED33FD4007985006D527
:10083000F0F222C398FD0FD5F0EA229001101216B3
:10084000881218E7121688FDACF0D39FEC9E403852
:100850009001101216881218D3D3EF9430EE9475CD
:10086000400C9002D47475F0A37430F08013120D14
:10087000A61218E71216881218319002D4F0A3EFCE
:10088000F0E49001A20210DF90010A121688FFAE78
:10089000F0900110121688FDACF0C39FFFEC9EFE95
:1008A000D3EF9410EE9427400C9002D47427F0A359
:1008B0007410F0801590010A121688FFC3ED9FFE98
:1008C000EC95F09002D4F0A3CEF09002D4E0FFA318
:1008D000E09001A2CFF0A3EFF0300018D3E0942C09
:1008E0009001A2E0940140139001A47427F0A37436
:1008F00010F08007E49001A4F0A3F0E49002D4F09B
:10090000A3F0900134E0604D12170AD39400EE6416
:10091000809480401A900104E0FCA3E0FDD3EF9D99
:10092000EE9C400B900225E4F0A37464F08018D391
:10093000900226E09400900225E0940040091216EF
:10094000859002D41217E4D20B90022B740FF0A3FF
:1009500074A0F080119002297403F0A374E8F07A77
:100960000079501216BCD39002D5E094009002D4C6
:10097000E064809480500302136DE0F9A3E0FF90DF
:10098000010D1216A012172212170A1218EEE47B9C
:10099000B87A88F9F8C3120EF6500A9002D4748817
:1009A000F0A374B8F0D3900228E09400900227E0FE
:1009B0009400500790001BE0B4201D12170AC39446
:1009C00096EE648094805010EF9400EE64809480E2
:1009D000402F7C007D0A801E300026900134E0709C
:1009E000209001A9E0FCA3E0FD12170AC39DEE9C34
:1009F000500F7C007D14120D5A9002D4EEF0A3EF3C
:100A0000F0900134E07003021347900229E0700275
:100A1000A3E0600302134712170A1218EEE5532FE2
:100A2000F553E5523EF552E5513DF551E5503CF5A3
:100A3000500555E55570020554C3E55994E8E5584D
:100A4000940350030212E9AE54AF55CBEFCB12170B
:100A50004CAF53AE52AD51AC50120E649002D6EE74
:100A6000F0A3EFF0C3E5579FFFE5569EFE12086620
:100A70009002D8EEF0A3EFF0D39464EE9400500609
:100A8000E5574556700D9002D6E0F556A3E0F557B0
:100A90000212D8D39002D7E095579002D6E095562F
:100AA0004028121804400474148018D3EF943CEECC
:100AB00094004004740A800BD3EF9428EE94004015
:100AC0003774052557F557E4802A12180440077437
:100AD000EC1218F5801ED3EF943CEE94004007749E
:100AE000F61218F5800ED3EF9428EE9400400974A6
:100AF000FB1218F53556F556E4F553F552F551F558
:100B000050F554F555F558F559D3E5579400E55689
:100B10009400402A9002D5E09557FF9002D4E095CA
:100B200056FE1208661218DD500812188BE4F55AAA
:100B3000800CE55AC39405500512188B055AE5DB65
:100B400020E23D900116121688FFAEF07D0F1216BE
:100B5000C912170A1218EEEB7B1012172890011613
:100B60001216A0F9EE8014E5DB20E2149002D4E026
:100B7000F9A3E0FF9001161216A0C98FF0120E091A
:100B800090011612168824A8FFE5F0801D90010D33
:100B90001216A01217DD9001161216A01217DD9082
:100BA00002D5E024A8FF9002D4E03461F99001134B
:100BB0001216A0121722221217AA1218C2F0539965
:100BC0007FF50BF50CF50DF50EF50A1230A1121696
:100BD000F5121761902EC0E030E2F9902EC0E4F0DB
:100BE0004389021216FB438002902E02E0FEA3E02E
:100BF000250CF50CEE350BF50B12175E902EC0E0B0
:100C000030E2F9902EC0E4F0902E1EE0FEA3E02525
:100C10000EF50EEE350DF50D050AE50AC3940640F6
:100C2000AA439980902EC5E4F0E527240CFFE52621
:100C300034FEFED3EF950CEE950B4015900175E058
:100C40007002A3E0701290017504F0A374F4F080B8
:100C500007E4900175F0A3F0900167121785403802
:100C60001216C7E4FCFDEB250EFFEA350D12171A2C
:100C70007802120F1D8E0D8F0EA3E0FEA3E0FF126F
:100C800016C7E4FCFDEB250CFFEA350B12171A78AA
:100C900002120F1D8E0B8F0CE50C2527FFE50B357F
:100CA00026FEC3EF950EF510EE950DF50F121851B7
:100CB000E5109FE50F9E40048E0F8F10900165E5B3
:100CC0000FF0A3E510F0A3E50DF0A3E50EF0A3E50A
:100CD0000BF0A3E50CF0D3900172E0940090017149
:100CE000E09400406E900134E0600C121685C394CD
:100CF000A0E5F0940F5009E490016FF0A3F0805349
:100D0000D3900170E0940090016FE0940040309027
:100D10000171E0FEA3E0FF1216751216D490016F68
:100D2000E0FEA3E0FF7C007D03120D48EB2FFFEAFD
:100D30003EFEEF7802CEC313CE13D8F9FF800C909D
:100D40000171E0FEA3E0FFC312167590016FEEF093
:100D5000A3EFF0D3900170E0940A90016FE094004B
:100D600090017340097428F0A37446F0800774075B
:100D7000F0A3740FF0900165E0FFA3E0900171CF44
:100D8000F0A3EFF0AF10AE0F12261B90016BEEF048
:100D9000A3EFF090001BE0B420031216B890016B93
:100DA000E0FEA3E0FFE4FCFDE5672FF567E5663EA6
:100DB000F566ED3565F565EC3564F5640569E5695D
:100DC00070020568C3E56D94E8E56C9403402AAEB3
:100DD00068AF69CBEFCB12174CAF67AE66AD65ACB1
:100DE00064120E648E6A8F6BE4F567F566F565F53F
:100DF00064F568F569F56CF56DD3E56B9400E56A0B
:100E00009400407490016CE0956BFF90016BE0954D
:100E10006AFE9002D8F0A3EFF0900173E0FDFBC3EF
:100E2000E49BFBE49400FAD3EF9BEA6480F8EE6461
:100E30008098401BEDFF9002D9E09F7480F89002EB
:100E4000D8E06480985008121875E4F56E802990F7
:100E500002D8E0FEA3E0FF120866900174E0FDD323
:100E6000EF9D7480F86E984003756E03E56EC39431
:100E7000035005121875056E90016BE0F54CA3E068
:100E8000F54D78287C007D007B007A00792A7E0071
:100E90007F24020D22900166E09FFF900165E09E95
:100EA000FE1208662290010DE0FBA3E0FAA3E0F930
:100EB000020DA6900136A3A3E0F9A3E0FF90011074
:100EC000E0FBA3E0FAA3E022F07E007F057D007B3B
:100ED000007A00795F120F9A7A0079647E007F0BA6
:100EE0007D007B00020F9A7D037C00120F6DC8EC21
:100EF000C8C9EDC9CAEECACBEFCB22E4FCFDE0F8CD
:100F0000A3E0F9A3E0FAA3E022FFC390018DE09FE4
:100F100090018CE02243AB025389FD5395FD53961B
:100F2000FD22A3F0A37401F0A3229002D4E0FEA35B
:100F3000E0FF22F9EB2FFFEA35F0FEED39FDEC384A
:100F4000FC22C98FF0020E092FFFEA3EFEE93DFDAB
:100F5000E83CFCE4FAF9F8020E64E50A25E02428EE
:100F6000F8E6FE08E622A3E0FEA3E0FBCAEECAE430
:100F7000F9F8229002217402F0A37458F022123082
:100F800076902EC07419F022902E427D14E0FEA3BC
:100F9000E0FF7C00020D4890018AE4F0A3F0A3F08A
:100FA000A32290018CE0FEA3E0FFD39400EE940016
:100FB000227F087A0179367E007D007B01020F9A3C
:100FC0009001A9E4F0A374C8F022902EC07402F03E
:100FD00022E50D25E02479F582E43401F583E0FE75
:100FE000A3E0FF229002D2A3A3E0F9A3E0FF9001C7
:100FF0000A22E0FCA3E0FDA3E0FEA3E022F9E4F571
:10100000F0020E09FFE5F0F0A3EFF022F9EE8FF009
:10101000020E09E4F50EF50DF50CF50B2290001B00
:10102000E06420229002D8E0FEA3E0FFD39450EECB
:101030009400229002DAE0FEA3E0FF22900108E093
:10104000FCA3E0FD22AB0EAA0DA90CA80BD3020F46
:101050000CC39FFFE5F09E22E0FCA3E02FFFEC3ED7
:10106000FEEF780222902EE7F0902EEAF0902EE824
:1010700022E5272488FFE5263413FED322900108B9
:10108000E0FFA3E090017FCF22D39001AAE09F90E0
:1010900001A9E09E2290016BE56AF0A3E56BF022C6
:1010A00025E02428F8A60F08A610229002D4E556C1
:1010B000F0A3E557F022E4900227F0A3F02290017C
:1010C00004E4F0A37496F022F9746175F0A8020E9E
:1010D0000990003A7410F022F0A3F090022DF0A3D2
:1010E000F022902EC4E4F0A322FEEF2401FFE43EA0
:1010F000C31322FFC3ED9FFFEC95F0FE22C3EF94D4
:1011000050EE6480948022FFAEF090010A22EE330C
:1011100095E0FDFC222557F55774FF22F974FF7501
:10112000F0FB020DD1C3E55E9576E55D95752290E5
:1011300002D2020F309001901216DEFBE9C0E0EA05
:10114000C0E0EBC0E0900125121688FFE4FCFDD062
:10115000E0FBD0E0FAD0E0121713900190120F30AC
:10116000900195E004F07006900194E004F0900185
:1011700096E07002A3E06003021B669001901217D4
:10118000D2FFEEC0E0EFC0E0121746D0E0FFD0E0A3
:10119000FE120E64900190120F30900190A3A3E014
:1011A000FFA3E090018ECFF0A3EFF0A3120F3C005D
:1011B000000000E490019412177B74C8F090021FA5
:1011C000E07002A3E06003021B66900198E07002E9
:1011D000A3E06003021B66900134E07003021A6909
:1011E00090018AE0FEA3E0FF4E701F90018EE0FDAB
:1011F000A3E090018ACDF0A3EDF0121685FD9001D9
:101200008CE5F0F0A3EDF0021A7190018EE0FCA3E2
:10121000E0FDC3EF9DFFEE9CFE12086690019A125E
:1012200016A01217EC900188E0702390019A121614
:1012300088C3940FE5F09400500C121685FF9001BE
:101240008C1217E5801F9001887401F080179001BF
:101250009A121688C39402E5F0940050081217778A
:10126000F0900188F090018EE0FEA3E0FFD39001A2
:101270008BE09F90018AE09E4007E4900189F08016
:10128000109001897401F08008121777F09001889E
:10129000F0900188E07003021B661217825003026F
:1012A0001B66121685121831FE1208669002D4EEE3
:1012B000F0A3EFF0A3E4F0A37464F0121685D394C6
:1012C00094E5F09411400A9002D67403F0A37420C0
:1012D000F09002D4A3E09001A1F0121685FFAEF0C9
:1012E000D31216EB9E40159002D6E0FCA3E0FDD38E
:1012F0009002D5E09D9002D4E09C501A1216EA9E0E
:1013000050409002D6E0FEA3E0FF9002D5E09F900F
:1013100002D4E09E402CE4900188F090018AF0A372
:10132000F01216851216E995F09001987401500795
:10133000F0A3742CF08005F0A37490F0E490018980
:10134000F022121685FFD31216EB95F04015D390BC
:1013500002D5E094109002D4E09400400612169D4D
:101360001218FC1216851216E995F050199002D544
:10137000E0940F9002D4E09400400B12169DF9E423
:1013800075F005120DD122900181E0FEA3E0FFC3AC
:101390009404EE9400502A12181CEF25E0FFEE335F
:1013A000FE74792FF58274013EF583ECF0A3EDF025
:1013B000900182E004F07006900181E004F0021CCC
:1013C000E1750D011217B1E50D25E02477F582E4F2
:1013D0003401F583EEF0A3EFF0050DE50DB404E460
:1013E000900134E07003021C84900110121688FFF3
:1013F000AEF012181CD39FEC9E5003021CDAED9F36
:10140000FFEC9EFED3EF94F4EE94015003021CDA3D
:10141000A31216881218D39002D7F0A3EFF0120887
:10142000661218DD5066E49002D9F0A3F09002D75E
:10143000E0FEA3E0FF120866D3EF9432EE648094DE
:10144000804025D39002D8E094009002D7E06480D9
:1014500094809002D94008E4F0A3740AF0801074DC
:10146000FFF0A374F6F08007E49002D9F0A3F090A7
:10147000010A121688FF9002DAE02FFE9002D9E0EE
:1014800035F090017FF0A3CEF0021CE112185DF060
:10149000A3EFF09001A7E004F070069001A6E0042D
:1014A000F0021CE190010A121688FF12181CC3EF0B
:1014B0009DFFE5F09CFE120866C3EF9428EE648061
:1014C00094805036900110121688FFC3900109E0F5
:1014D0009FFF900108E095F0FE120866C3EF941498
:1014E000EE648094805005900110800390010A12F0
:1014F0001688FF90017FE5F0800312185DF0A3EFDE
:10150000F0E4F50CF50BF50AF509F50DD390018221
:10151000E0950D900181E09400401E1217B1E4FCAB
:10152000FDE50C2FF50CE50B3EF50BED350AF50A44
:10153000EC3509F509050D80D3AF0CAE0BAD0AAC47
:1015400009EEC0E0EFC0E0900181121747D0E0FF44
:10155000D0E0FE120E648F0C8E0B8D0A8C0922C017
:10156000E0C083C082C0D0D2AF900232E004F0D39A
:10157000900220E0940090021FE09400400CA3E051
:1015800024FFF090021FE034FFF0D3900222E09499
:1015900000900221E09400400CA3E024FFF09002B0
:1015A00021E034FFF0D3900224E09400900223E085
:1015B0009400400CA3E024FFF0900223E034FFF0FD
:1015C000D3900226E09400900225E09400400CA302
:1015D000E024FFF0900225E034FFF0D3900228E0F1
:1015E0009400900227E09400400CA3E024FFF090C8
:1015F0000227E034FFF0D3900230E0940090022FF5
:10160000E09400400CA3E024FFF090022FE034FFB0
:10161000F0D390022EE0940090022DE09400400C54
:10162000A3E024FFF090022DE034FFF0D390022AD3
:10163000E09400900229E09400400CA3E024FFF025
:10164000900229E034FFF0C3E56D94E8E56C940363
:101650005008056DE56D7002056CC3E55994E8E529
:1016600058940350080559E55970020558D3900164
:1016700097E09400900196E09400400CA3E024FFD2
:10168000F0900196E034FFF0D3900199E09400903F
:101690000198E09400400CA3E024FFF0900198E052
:1016A00034FFF0D3900176E09401900175E094004E
:1016B000400CA3E024FFF0900175E034FFF0D390DC
:1016C000022CE0940090022BE09400400CA3E02454
:1016D000FFF090022BE034FFF0D39001A5E09400DE
:1016E0009001A4E09400400CA3E024FFF09001A43A
:1016F000E034FFF0D39001ACE094019001ABE094B2
:1017000000400CA3E024FFF09001ABE034FFF0D0E8
:10171000D0D082D083D0E0327E007FFF7D007B017D
:101720007A007904120F9A9002E67400F0A3740410
:10173000F09001D27401F0A37400F0A374B8F0909B
:1017400001D87401F0A37400F074AC122F4574003A
:10175000F0A37494F09001D57401F0A37400F0A389
:1017600074C6F09001DE7401F0A37400F074D2121C
:101770002F457400F0A3741F122F467401F0A37458
:1017800002F0902DE0E493FF9002E6E0FCA3E0FD80
:10179000F5828C83A3EFF0900002E0FFED240412A9
:1017A0002F1F900001E0FFED2405122F1F90000372
:1017B000E0FFED2406122F1F902DE2E493FFED24AD
:1017C00012122F1F902DE3E493FFED2414122F1F0C
:1017D0009001E77401F0A37400F0A3743CF0E4FFFF
:1017E00075F002EFA42401F582E5F0342EF583E4D0
:1017F00093FE74542FF582E43400F583EEF0EF2568
:10180000E0242DF582E4342EF583E493FE122F4D6F
:10181000EEF0122F4DE0FEEF25E0242CF582E434AB
:101820002EF583E49324C0F582E4342EF583EEF0A4
:101830000FEFB416AB902F56E0900058F0902F5653
:10184000E090006EF0902F56E0900059F0902F56E7
:10185000E090006FF09000FF7401F09000FEF090B7
:10186000003A7410F090001BF0900028F0A3742050
:10187000F090021F7413F0A37488F0221217F3F58E
:1018800015F516852811852912852813852914F543
:101890000A12173AFFD3E5149FE5139E40078E13F3
:1018A0008F14850A16C3E5129FE5119E50078E110D
:1018B0008F12850A15050AE50AB412D5E4F50FF56D
:1018C00010F50AE516650A602EE515650A6028E53B
:1018D00010450F7010E50A25E02428F8E6F50F08FA
:1018E000E6F510801212173A2510FFE50F3E121888
:1018F000C9F50FEF13F510050AE50AB412C59001FA
:1019000085E50FF0A3E510F0E516C3940F5005E54B
:1019100016121880E515C3940F5005E515121880AE
:101920001217F3F50A12173AFFC3E5109FFFE50FF0
:101930009EFE120866D3EF9428EE64809480400FD8
:10194000E4FCFDE50E2510F50EE50D350F800F12B8
:10195000173AFFE4FCFDE50E2FF50EE50D3EF50D03
:10196000ED350CF50CEC350BF50B050AE50AC394C7
:101970001240B2AF72AE71AD70AC6F121825401A42
:10198000E50E9572F50EE50D9571F50DE50C95706A
:10199000F50CE50B956FF50B80031217F3E47F60F0
:1019A0007EEAFDFC121825400BE4750E60750DEA09
:1019B000F50CF50BAE0DAF0E22C0E0C083C082C0A7
:1019C000D0ECC0E0EDC0E0EEC0E0EFC0E0D2AFE5AB
:1019D000DB30E419D20CC208E5DB30E102802E9046
:1019E00002E5E5DFF09002E8E4F002229DE5DB305D
:1019F000E50FD206300805C20802229DC20C022261
:101A00009DC208E5DB30E140E5DB30E0109002E903
:101A1000E0FF04F012315BE0F5DF02229D9002E965
:101A2000E0FFB40819208A16D28A9002477401F0A8
:101A30009002E6E0FCA3E02407123161E4F0EF64D9
:101A40001A707AD20702229D9002E8E0700EA3E598
:101A5000DFF09002E87401F0D20880619002E9E0C2
:101A6000902F5893FFB4FF089002E5E5DFF0804720
:101A7000EF640F70299002E9E0FFA3E0FCA3E0FD12
:101A8000123160E0540FF09002E9E0FF04F0ED1233
:101A90003160E0FFE5DF54F0FEEF4EF0801F900272
:101AA000E9E0FF12315BE5DFF0EFB4240A90022198
:101AB0007401F0A374F4F09002E9E004F075DBFF28
:101AC000D0E0FFD0E0FED0E0FDD0E0FCD0D0D0826E
:101AD000D083D0E0329002D8EFF09002DDE4F0A3A2
:101AE00074FFF0E4A3F0A3F0A304F0A374FFF0905C
:101AF0002EC07402F0902EC37408F0E49002D9F066
:101B0000A3F09002D9E0FEA3E0FFC39409EE940095
:101B100040030223A4EF9407EE940040067E007F6A
:101B20000180199002D9A3E004FFE47E01C8EFC848
:101B3000088006CEA2E713CE13D8F8FF9002DBEEA2
:101B4000F0A3EFF0902EC07419F0902EC0E030E2B8
:101B5000F99002D8E0FF75F002A42400122F34E0BF
:101B6000FCA3E0FD902EC07402F0D3ED94FFEC9442
:101B70000F40179002DBE0FCA3E0FD75F002EF12CE
:101B80002F31EC8DF0120D9080299002D8E075F085
:101B900002122F31C083C082E0FEA3E0FF9002DB7F
:101BA000E0FCA3E0FDC3EF9DFFEE9CD082D083F06C
:101BB000A3EFF09002DAE004F070069002D9E0049E
:101BC000F00222E27F0022900134E06006121791B9
:101BD00002248B9001361216DEFBE9C0E0EAC0E079
:101BE000EBC0E090010A121688FFE4FCFDD0E0FB98
:101BF000D0E0FAD0E0121713900136120F309001A6
:101C00003BE004F0700690013AE004F0900223E01B
:101C10007002A3E060030224959001361217D2FFF0
:101C2000EEC0E0EFC0E0121746D0E0FFD0E0FE12B9
:101C30000E64900136120F30900110121688243273
:101C4000FFE435F0FE9001361216DBFBD3120F0CC9
:101C5000403990021FE07002A3E0702F200B2C90FF
:101C6000013DE004F0700690013CE004F0D39001E7
:101C70003DE0940590013CE09400401E1216931242
:101C80001722E490013CF0A3F0800F121693121774
:101C900022E490013CF0A3F0C20B900136120F3CFD
:101CA00000000000E490013AF0A3F09002237402D7
:101CB000F0A374BCF0227FA07A01790812179790E4
:101CC000010A7401F0A37400F07444121702740046
:101CD000F074461217027400F0A3744812170374CC
:101CE00000F0A374321217037400F0A3742E1217BD
:101CF000037400F0A3742CF09001257401F0A37418
:101D000000F0A37426F090019A7401F0A37400F01F
:101D1000A374841217037400F0A37486F090012852
:101D20007401F0A37400F0A3741C1217037400F084
:101D3000A37422F090011C7401F0A37400F0A3744A
:101D4000361217037400F0A3742A1217037400F0FC
:101D5000A37438F01217A090011C1216A0F9E475B4
:101D6000F0C8120E0990011F1216A0F9E475F06474
:101D7000120E0912189E9001221216A0F9E475F0B5
:101D800096020E099002D4EEF0A3EF1216A890026C
:101D9000D4E07002A3E06003122772122B5FE4907C
:101DA0000181F0A3F07F12122FC4121753A3740203
:101DB000F0A374BCF0900108E0F9A3E0FFA31216B1
:101DC000A012172290010D1216A01217DD90011318
:101DD0001216A01218A89001161216A01217DD9064
:101DE00001191216A01218A81218B1E4900134F0CB
:101DF000900136120F3C0000000090013A12177A51
:101E0000F0900108121698121722E4900135F09014
:101E1000022F1218B890022BF0A3F0FE7F12FD7B68
:101E2000017A017988120F9A900125121688900183
:101E30008E1217E49001961217A3229002DAEEF0A8
:101E4000A3EFF0E5624561700C9002DAE0F561A362
:101E5000E0F56280169002DBE02562FF9002DAE096
:101E600035611218C9F561EF13F5620563E563D3B7
:101E7000940A400D85615F856260E4F561F562F565
:101E800063D3E5609400E55F940040579002DBE087
:101E90009560FF9002DAE0955FFE120866C3EF944A
:101EA0000AEE64809480AE5FAF6050151216C712C0
:101EB0001813E4FCFDEB2FFFEA3E12171A7802809C
:101EC00017CBEFCBCAEECA121813EB2FFFEA3EFE78
:101ED000E433FDE433FC7801120F1D9002DAEEF0DA
:101EE000A3EFF012181322D3900220E09400900286
:101EF0001FE0940040030227713000299001A4E004
:101F00007002A3E09001A96009740BF0A374B8F00B
:101F100080077405F0A374DCF09001047405F0A34D
:101F20007414F080061217A012189E121685FFAEC8
:101F3000F01218694013900134E0601ED39001053F
:101F4000E09F900104E09E5011900227E07002A3F0
:101F5000E0702790013404F0802090001BE0B42052
:101F60000512189680069002271217A3E4900134F8
:101F7000F0900225F0A3F01218B1900134E0601146
:101F8000900028E090003AB410047410F0227420FD
:101F9000F0227F01122C62902E42E0FEA3E024B1D9
:101FA000FFEE34FE9002D6F0A3EFF01216F553992F
:101FB0007F122F8E1230A11217AA902EC314F01286
:101FC0001761902EC0E030E2F9902EC0E4F0902E20
:101FD000027D1212176D8E268F27120F6DEF24E0EF
:101FE000F572EE34B1F571ED34FFF570EC34FFF5B8
:101FF0006F4389021216FB438002439980902EC5DD
:10200000E4F0900107E0900021F0121768EF240837
:10201000FFEE3420F99001281216A0C98FF0020EAD
:102020000902301FE493A3F8E493A34003F6800170
:10203000F208DFF48029E493A3F85407240CC8C302
:1020400033C4540F4420C8834004F456800146F63C
:10205000DFE4800B0102040810204080902971E425
:102060007E019360BCA3FF543F30E509541FFEE49A
:1020700093A360010ECF54C025E060A840B8E4935C
:10208000A3FAE493A3F8E493A3C8C582C8CAC5839E
:10209000CAF0A3C8C582C8CAC583CADFE9DEE78023
:1020A000BE90023CE014601B1460432402705D90FB
:1020B0000246E0B4010A90023C1228EDD205D2009B
:1020C000C203227F02122EDDEF60077F0212087228
:1020D000C205900246E0703490023C7402F0D203D4
:1020E000C205C2007F031208727F03022C117F0316
:1020F000122EDDEF60167F03120872900246E09008
:10210000023C7003F080031228EDC203227401F038
:102110007F021208727F02122C1122CDEFCD43AD47
:10212000105399EF439A10539BEF902EC07402F016
:10213000147E00C8EDC8088005C333CE33CED8F96D
:10214000FF902EC4EEF0A3EFF0902EC8EEF0A3EFB8
:10215000F074101230FE902EC0E030E2F9902EC0E4
:10216000E4F07402F074201230FE902EC0E030E2F1
:10217000F9902E00E0FEA3E0FF902EC4E4F0A3F05F
:10218000902EC0F0439910539AEF539BEF5390EF6A
:1021900022C10C410240004102410041023D004188
:1021A0000245004201AB03E841024700C102C10100
:1021B000C1044102460041023C00C103C100C10507
:1021C0004102E8004102E9004202E30000C106C109
:1021D00008C1074102E5104101030041010710C198
:1021E0000BC10A4101A8000226000002730000048E
:1021F0006F000000004101061041024800009001FC
:10220000ABE07004A3E064017011900247E0700439
:10221000D28A04F0E49001ABF0A3F090003AE0FC25
:10222000900106E06C603D90003AE0FE900106F0FF
:1022300090000BE0900245F0540FF0EEB42005E062
:102240004420800AECB4100B900245E04410F0905A
:10225000000BF0C28AE4900247F09001AB7403F0E7
:10226000A374E8F0229002D27408F0A3E4F0A374FF
:102270003FF0A374DFF0E4FDFCF9758A10538AEF98
:10228000009002D2E0FEA3E02DF582EE3CF583E45F
:1022900093FF69F90DBD00010CBC37E5BDDFE2908D
:1022A00002D4123168E493699002E6700912316831
:1022B000A3740DF08006123168A3E4F0758A5053C0
:1022C0008AEF0022200A06200303300509E4FFFEFE
:1022D000122564C20A2290022DE07002A3E060057C
:1022E0001217FD703A200003122E58122B5F7F0147
:1022F000122FC4121B679002D2EEF0A3EFF07B0105
:102300007A0279D2122CF39002D21217C91216A0B7
:1023100012172212101B1226C71219151223A71208
:1023200029DE2290021EE024FE6013146023146054
:10233000272403704990021E7402F01231777F0146
:102340007E0012256490021E7403F0E490023DF0BA
:102350002290021E7404F022122881122CAB122843
:1023600081900175E07004A3E06401700C90017528
:10237000F0A3F090021E7402F0E4900232F02243C7
:1023800089025395FD5396FD4380021231387F0C2C
:102390001228FBCAEECACBEFCB7F0C1228FBEF2B27
:1023A000FFEE3A9002D7F0A3EFF012310AF9120DC6
:1023B000A645F070061230EFEE8018120DA6FBAAAB
:1023C000F01230EFEF2BFFEE3AC313F9EF13FF12C9
:1023D000310AC98FF0120E0922122F3DF5828E8329
:1023E000A3E0B4AA03122A45122F3DFF122F28E0C2
:1023F000B41008EF122F28E4F0D20A122F3DFF2468
:102400001B122F2AE0700DEF241C122F2AE0B410AB
:1024100003122D7F122F3D2413122F2AE0FFB41038
:10242000069002467401F0EFB42005E4900246F0F5
:10243000229002D2EFF0E024C9123118E060037F4D
:1024400001229002D2E0FF24C91231187401F0EF8A
:10245000123120E493FE740193FFE4FCFD902F60A1
:10246000E0F8A3E0F9A3E0FAA3E02FFFEA3EFEEDD7
:1024700039EC389002D2E012312CEEF0A3EFF07F6D
:102480000022CDEFCD1216F5122F8EED601C539960
:102490007F123076902E5EE4F0A374FFF07F0F126F
:1024A00022B5902EC4E4F043998053997F902E4238
:1024B000E4F0A374FFF01230A17F011222B543892A
:1024C000021216FB438002439980221217FD7029E5
:1024D0009001A8E070031217539001A87401F090C6
:1024E0000029E0B42008122AA412087E8003122FCB
:1024F000F29002317401F08017E49001A8F090008E
:1025000029E0B42003122AA4900231E06002E4F032
:10251000022DC29002D4EBF0A3EAF0A3E9F09002FE
:1025200021E07002A3E07031900135E0602BE4906F
:102530000135F0122B5F1217537508017F01122F1E
:10254000C4121B679002D41216A01217EC0508E5FE
:1025500008C3941240E612189622758A50538AEFE7
:102560009000027411F09000017422F09000037446
:1025700033F0E4F5AB75AC1DF5ADF5AF7589FF75BE
:10258000913F7599FFF59675931CF59BF595F5921E
:10259000F59A5388FCD28A90024704F0D20D221299
:1025A000082EE4F5F275F30875EEFF75EF3F75EA56
:1025B00081F5F675EB0700E5EC30E7FBE4F5EC9010
:1025C00002E6E0FEA3E0FF241BF582E43EF583E58E
:1025D000F3F0EF241CF582E43EF583E5F2F075EBB1
:1025E0003022E5B230E005E5AA20E013E4900233A2
:1025F000F075B28E75B6F9F5B743B20143AA012260
:102600000D03AB6AE4FF3006169002E6E0FCA3E09F
:10261000F5828C83E0FE54F0FFEE540FF0C20622E8
:10262000029103030A150DA00EA60FFF0C020BFF6B
:1026300023F7240625040701270E2A0E28082B0855
:1026400029032C032D082E082F0826080211030643
:102650000A100D400E800FFF0C020BFF23F4240420
:102660002504070127102A1028042B0429032C0312
:102670002D202E202F10262030073FC207902E42FB
:10268000E0FFA3E09002D4CFF0A3EFF0E4FF122C20
:1026900062121768EF2408FFEE3420FE9001281222
:1026A00016A01217EC1217AA9002D4E0FFA3E09034
:1026B0002E42CFF0A3EFF012175322758B11902FFB
:1026C000647440F0E4FEE4FFEF75F003A4245BF5CE
:1026D00082E43402F583E5822EF582E43583F583C6
:1026E000E4F00FEFB40AE10EEEB403DA7F099002D2
:1026F000C9E4F0A3DFFC902F647480F022CBEFCB11
:10270000123115E06036902F60A3A3E0FEA3E0FF36
:10271000EB12312CE0FCA3E0FDD39FEC9E501DC3D7
:10272000EF9DFFEE9CFEEB123120C37401939FE4FA
:10273000939E4008123115E4F07F01227F0022F5BC
:1027400082E43CF583EFF022241AF582E43EF5831F
:1027500022A42440F582E5F0342EF583229002E68F
:10276000E0FEA3E022A3F0A37401F0A322746A2F79
:10277000F582E43400F5832200000000FFFFFFFF34
:102780000000FFFFFFFFFFFFFFFFFF00FF00000053
:10279000FFFF000000FFFFFFFFFFFFFF0000000042
:1027A000FFFFFFFFFFFFFFFFFFFF0000000012170A
:1027B000AA1218C2F0FF74542FF582E43400F58396
:1027C000E0FE75F002EFA42400F582E5F0342EF56A
:1027D00083E49324C0F582E4342EF583EEF00FEF0A
:1027E000B416D3229002D7EFF0122F8EE4F50990A1
:1027F00002D7E0FFE509C39F500712139705098030
:10280000EE902EC0E4F012205C900108EEF0A3EFF1
:10281000F022E4F5B2F5BA758D20438D20538D7FFB
:1028200053AAF7F58BE5DB20E211200C0EE4F58AC4
:10283000758703000000758A50D20A758B11221229
:10284000084E53A87F122D3A12081E12304B43A88F
:10285000801231719000FFE0600690021E7401F05A
:10286000122DE4122BB9122B0380F59002E6E0FF43
:10287000A3E09002EACFF0A3EFF0E4F5DA75DA40D6
:1028800043DA2075D74075DA5875D90143A9087520
:10289000B80875F808221217AA902EC27411F09089
:1028A0002EC77450F0902ECA7411F0740812184597
:1028B0007404F0902EEBF0902EC47480F0A3E4F03A
:1028C000221217AA902EC27491F0902EC77401F0B4
:1028D000902ECA7415F0740E1218457408F0902EDC
:1028E000EBF01218C27402F02201F4002800280153
:1028F000F4009603E801F403E81770006403E800AD
:102900003202580258012C01F403E8271000C89045
:1029100002D7E0FEA3E0FF7C007D12020D48902E5E
:10292000C2F0902EC0E04419F022900125E0FBA3F4
:10293000E0FAA3E02274C92BF582E43402F5832285
:1029400025E024DDF582E43430F5832225E02449B6
:10295000F582E43402F58322902EC07402F0902EAA
:10296000C77474F0902ECD74C0F0A374FFF0A3F080
:10297000902EC37401F0902ECAF022A3E0FCA3E0D5
:102980002FF582E43CF58322E0FEA3E0F5828E83FE
:1029900022123181022E9B1218B122D2AF32D2AF55
:1029A00032022DC200000000000000000000000004
:1029B0000000000000000000000000000000000017
:1029C0000000000000000000000000000000000007
:1029D00000000000000000000000000000000000F7
:1029E00000000000000000000000000000000000E7
:1037F0000000000000000000000000000000005C6D
:1038000000000000000000000000000000000000B8
:1038100000000000000000000000000000000000A8
:00000001FF
