:10000000006A0000000700008C960000000000005D
:1000100000000000000000000000000000000000E0
:1000200078FFE4B8200118F6D8F99000007F007E30
:1000300007E4F0A3DFFCDEFA7581740227E0121EEC
:100040009712242C90021C7401F0220230B874AA7A
:100050007583F5758255A574557583FA7582AAA5C1
:1000600074A57583F5758255A5220002213890404C
:100070007FE493FF64326003EF7002002253A87F95
:100080000080FD021CF912172F74121217B9741395
:10009000F0902EC47480F0A3E4F0220230B5E7099A
:1000A000F608DFFA8046E709F208DFFA803E888228
:1000B0008C83E709F0A3DFFA8032E309F608DFFA60
:1000C0008078E309F208DFFA807088828C83E30984
:1000D000F0A3DFFA806489828A83E0A3F608DFFA5E
:1000E000805889828A83E0A3F208DFFA804C80D2AC
:1000F00080FA80C680D4806980F28033801080A628
:1001000080EA809A80A880DA80E280CA803389827F
:100110008A83ECFAE493A3C8C582C8CCC583CCF02B
:10012000A3C8C582C8CCC583CCDFE9DEE7800D89D2
:10013000828A83E493A3F608DFF9ECFAA9F0EDFBD9
:100140002289828A83ECFAE0A3C8C582C8CCC58321
:10015000CCF0A3C8C582C8CCC583CCDFEADEE8807A
:10016000DB89828A83E493A3F208DFF980CC88F0EC
:10017000EF60010E4E60C388F0ED2402B40400501D
:10018000B9F582EB2402B4040050AF232345822347
:100190009008CE73EF8DF0A4A8F0CF8CF0A428CEF9
:1001A0008DF0A42EFE22C2D5EC30E709B2D5E4C30F
:1001B0009DFDE49CFCEE30E715B2D5E4C39FFFE45F
:1001C0009EFE120BF2C3E49DFDE49CFC8003120B27
:1001D000F230D507C3E49FFFE49EFE22C5F0F8A3EA
:1001E000E028F0C5F0F8E582158270021583E0384A
:1001F000F022BB010A89828A83E0F5F0A3E0225055
:100200000687F009E71922BBFE07E3F5F009E319B9
:100210002289828A83E493F5F074019322BB01075B
:1002200089828A830209BC500B09C5F027F7C5F003
:100230001937F722BBFE0D09F8E325F0F3C5F019D5
:10024000E338F322F889828A8374019325F0C5F09C
:10025000F8E4933822BB010A89828A83F0E5F0A38F
:10026000F0225006F709A7F01922BBFE06F3E5F0CD
:1002700009F3192275F008758200EF2FFFEE33FEA7
:10028000CD33CDCC33CCC58233C5829BED9AEC996E
:10029000E58298400CF582EE9BFEED9AFDEC99FC10
:1002A0000FD5F0D6E4CEFBE4CDFAE4CCF9A8822257
:1002B000B800C1B90059BA002DEC8BF084CFCECD77
:1002C000FCE5F0CBF97818EF2FFFEE33FEED33FDB0
:1002D000EC33FCEB33FB10D703994004EB99FB0F95
:1002E000D8E5E4F9FA227818EF2FFFEE33FEED336C
:1002F000FDEC33FCC933C910D7059BE99A4007ECE4
:100300009BFCE99AF90FD8E0E4C9FAE4CCFB22752A
:10031000F010EF2FFFEE33FEED33FDCC33CCC833BE
:10032000C810D7079BEC9AE899400AED9BFDEC9A20
:10033000FCE899F80FD5F0DAE4CDFBE4CCFAE4C898
:10034000F922EB9FF5F0EA9E42F0E99D42F0EC6461
:1003500080C864809845F022EB9FF5F0EA9E42F059
:10036000E99D42F0E89C45F022E8600FECC313FCE5
:10037000ED13FDEE13FEEF13FFD8F122ECF0A3ED29
:10038000F0A3EEF0A3EFF022A8828583F0D083D013
:1003900082120B7F120B7F120B7F120B7FE473E430
:1003A00093A3C583C5F0C583C8C582C8F0A3C58320
:1003B000C5F0C583C8C582C822EC8EF0A4CCC5F0B8
:1003C000CCCDF8EFA4CEC5F02DFDE43CFCE8A42E86
:1003D000C8C5F03DFDE43CFCEFA4FFE5F028FEE4D9
:1003E0003DFDE43CFC22EF4E6012EF60010EEDBBE0
:1003F000010B89828A83F0A3DFFCDEFA2289F050A8
:1004000007F709DFFCA9F022BBFEFCF309DFFCA91A
:10041000F022BC000BBE0029EF8DF084FFADF0226E
:10042000E4CCF875F008EF2FFFEE33FEEC33FCEE72
:100430009DEC984005FCEE9DFE0FD5F0E9E4CEFD65
:1004400022EDF8F5F0EE8420D21CFEADF075F00838
:10045000EF2FFFED33FD4007985006D5F0F222C391
:1004600098FD0FD5F0EA22208A03020FBD90021FEB
:10047000E07002A3E06003020FBD90021DE0700275
:10048000A3E06003020FBD900175E07002A3E0607D
:1004900003020FBD1217B26003020FBD900134E0DA
:1004A000703090011F121615FFAEF090010D12165C
:1004B00015D39FE5F09E4003020FBD1216A3E490F2
:1004C0000181F0A3F0121844900223121865F5710F
:1004D0008003757100757217E4F5B2F5BA90018565
:1004E000E0F559A3E0F55AC209758D20438D2075BA
:1004F0008D8043AA08D2AF758B02758EAF2006247B
:100500001217B2701F200C1CE5DB20E217758AC49D
:10051000200C0DE5DB20E208758703000000800653
:10052000D2098002D209758B11758A5053AAF7D36C
:1005300090021EE0949090021DE09401400EA3E012
:100540002470F090021DE034FEF08007E490021D5C
:10055000F0A3F0D390022AE09490900229E0940155
:10056000400EA3E02470F0900229E034FEF08007F2
:10057000E4900229F0A3F0122F02900055E075F0EC
:1005800005A4902EC3F0A3E4F0A3F01216705399C3
:100590007F123084121739902EC0E030E2F9902E8D
:1005A000C0E4F0902E02E0F573A3E0F574438902F5
:1005B000121676438002121736902EC0E030E2F910
:1005C00012188AF522A3E0F523E5742527FFE573C9
:1005D0003526FEC3EF9523F525EE9522F524121757
:1005E000FEE5259FE5249E40048E248F25902EC491
:1005F000E4F043998090016BE524F0A3E525F0C376
:10060000E55A9525FFE5599524FE1230968E5B8FAD
:100610005C1218BF4003020F8FAE24AF257C007D13
:1006200012120B991218C9AF70AE6FAD6EAC6D900F
:1006300002CF121638FBD3120B389002CF4017129C
:1006400017709570FFEE956FFEED956EFDEC956D54
:10065000FC1218C98007120B6800000000E47F60DC
:100660007EEAFDFC9002CF121638FBD3120B384005
:100670000A9002CF120B680000EA601216127D0980
:100680001217D09002CF1216387B0A1216B2121827
:10069000C9900134E07032AE59AF5AFC7D0912178F
:1006A000112525FFEA3524121692E47B0A1216BEA4
:1006B0008E598F5A9002CF12162312168512175395
:1006C00012162D121685020F8F12175312162D12A5
:1006D0001685900110121615FFAEF09002CF12167B
:1006E00035FBD3120B385003020F9F12160112175D
:1006F000ABFE1218164003020F9F90010D12161543
:10070000FFAEF07C007D02120B99C8ECC8EDC0E092
:10071000EEC0E0EFC0E01216011217ABFEE4FCFDE4
:10072000D0E0FBD0E0FAD0E0F9EB2FFFEA3E121662
:1007300092E47B031216BE90010D12162D12179A29
:1007400090010D121615D39430E5F094754008749D
:100750007575F030120A35900188E0605212170268
:10076000404D90010D1216151217ABFE12309690E7
:1007700002D3EEF0A3EFF090010D121615121664DD
:1007800095F050101217F1400B12162AF9E475F08B
:10079000051209FD90010D121615FFD3121666956C
:1007A000F0400CD31217F1400612162A1218B62088
:1007B000090D1218BF50081217B27003020CC9902D
:1007C0000187E00412177B121655E4900167121698
:1007D000FBF090013504F090022112172822121626
:1007E00001FDACF0D39FEC9E403290011012161523
:1007F000121894D3EF9430EE9475400C9002D1749B
:1008000075F0A37430F0800D12160C1217AB900225
:10081000D1F0A3EFF0E49001A202106D121612FFC6
:10082000AEF0900110121615FDACF0C39FFFEC9EC8
:10083000FED3EF9410EE9427400C9002D17427F071
:10084000A37410F08012121612FFC3ED9FFEEC95F8
:10085000F09002D1F0A3CEF09002D1E0FFA3E0909F
:1008600001A2CFF0A3EFF0300018D3E0942C900158
:10087000A2E0940140139001A47427F0A37410F037
:100880008007E49001A4F0A3F0E49002D1F0A3F07B
:10089000900134E0605012169AD39400EE64809474
:1008A00080401A900104E0FCA3E0FDD3EF9DEE9C94
:1008B000400B900223E4F0A37464F0801BD39002F9
:1008C00024E09400900223E09400400C90010D126B
:1008D00016159002D1121792D20B900229740FF0C4
:1008E000A374A0F080119002277403F0A374E8F0C1
:1008F0007A00794E121659D39002D2E094009002F9
:10090000D1E06480948050030212EEE0F9A3E0FF8E
:1009100090010D12162D12168512169A1218A8E4BF
:100920007BB87A88F9F8C3120B22500A9002D1746E
:1009300088F0A374B8F0D3900226E09400900225CA
:10094000E09400500790001BE0B4201D12169AC3DB
:100950009496EE648094805010EF9400EE6480943E
:1009600080402F7C007D0A801E300026900134E0FC
:1009700070209001A9E0FCA3E0FD12169AC39DEE41
:100980009C500F7C007D641209869002D1EEF0A38A
:10099000EFF0900134E070030212C8900227E0707B
:1009A00002A3E060030212C812169A1218A8E551B9
:1009B0002FF551E5503EF550E54F3DF54FE54E3CE6
:1009C000F54E0553E55370020552C3E55794D0E543
:1009D000569407500302126AAE52AF53CBEFCB12BC
:1009E00016D6AF51AE50AD4FAC4E120A909002D316
:1009F000EEF0A3EFF0C3E5559FFFE5549EFE1230E5
:100A0000969002D5EEF0A3EFF0121769506BE55502
:100A100045546065D39002D4E095559002D3E0959B
:100A2000544028121761400474148018D3EF943C8A
:100A3000EE94004004740A800BD3EF9428EE9400E7
:100A4000403774052555F555E4802A121761400793
:100A500074EC1218AF801ED3EF943CEE9400400764
:100A600074F61218AF800ED3EF9428EE940040096C
:100A700074FB1218AF3554F554E4F551F550F54FA9
:100A8000F54EF552F553F556F557D3E5559400E577
:100A9000549400402A9002D2E09555FF9002D1E094
:100AA0009554FE12309612189E5008121838E4F52C
:100AB00058800CE558C3940750051218380558E5BE
:100AC000DB20E23D9001161216157D0F1217D09013
:100AD00002D11216431218A8EB7B101216B2900125
:100AE0001612162DF9EE8014E5DB20E2149002D1E7
:100AF000E0F9A3E0FF90011612162DC98FF0120A3B
:100B00003590011612161524A8FFE5F0801D9001FE
:100B10000D12162D12178B90011612162D12178B0F
:100B20009002D2E024A8FF9002D1E03461F9900154
:100B30001312162D1216852212172F12186FF0534A
:100B4000997FF50BF50CF50DF50EF50A12308412B0
:100B50001670121739902EC0E030E2F9902EC0E4E2
:100B6000F0438902121676438002902E02E0FEA323
:100B7000E0250CF50CEE350BF50B121736902EC058
:100B8000E030E2F912188AFEA3E0250EF50EEE35EC
:100B90000DF50D050AE50AC3940540B04399809010
:100BA0002EC5E4F0E527240CFFE52634FEFED3EF46
:100BB000950CEE950B4015900175E07002A3E07066
:100BC0001290017504F0A374F4F08007E4900175AD
:100BD000F0A3F090016712170540337C007D0312EB
:100BE0001711250EFFEA350D1216927802120B49E5
:100BF0008E0D8F0EA3E0FEA3E0FBCAEECAEB250C20
:100C0000FFEA350B121880120B498E0B8F0CE50C86
:100C10002527FFE50B3526FEC3EF950EF510EE9563
:100C20000DF50F1217FEE5109FE50F9E40048E0F85
:100C30008F10900165E50FF0A3E510F0A3E50DF02E
:100C4000A3E50EF0A3E50BF0A3E50CF0D390017241
:100C5000E09400900171E094004074900134E060F1
:100C60000F90010D121615C394A0E5F0940F5009D2
:100C7000E490016FF0A3F08056D3900170E09400EF
:100C800090016FE094004033900171E0FEA3E0FF1B
:100C90001215F1CAEECACBEFCB90016FE0FEA3E0D4
:100CA000FF7C007D03120974EB2FFFEA3EFEEF7814
:100CB00002CEC313CE13D8F9FF800C900171E0FE71
:100CC000A3E0FFC31215F190016FEEF0A3EFF0D394
:100CD000900170E0940A90016FE0940090017340DD
:100CE000097428F0A37446F080077407F0A3740F0A
:100CF000F0900165E0FFA3E0900171CFF0A3EFF069
:100D0000AF10AE0F1225B190016BEEF0A3EFF09093
:100D1000001BE0B4200312165590016BE0FEA3E027
:100D2000FFE4FCFDE5652FF565E5643EF564ED3512
:100D300063F563EC3562F5620567E5677002056689
:100D4000C3E56B94E8E56A9403402AAE66AF67CBCF
:100D5000EFCB1216D6AF65AE64AD63AC62120A90EB
:100D60008E688F69E4F565F564F563F562F566F5FF
:100D700067F56AF56BD3E5699400E5689400407403
:100D800090016CE09569FF90016BE09568FE900220
:100D9000D5F0A3EFF0900173E0FDFBC3E49BFBE40F
:100DA0009400FAD3EF9BEA6480F8EE648098401BCD
:100DB000EDFF9002D6E09F7480F89002D5E0648049
:100DC000985008121822E4F56C80299002D5E0FEB4
:100DD000A3E0FF123096900174E0FDD3EF9D748084
:100DE000F86E984003756C03E56CC39403500512CC
:100DF0001822056C90016BE0F54CA3E0F54D7828C6
:100E00007C007D007B007A00792A7E007F24020925
:100E10004E900166E09FFF900165E09EFE123096C5
:100E200022900110E0FBA3E0FAA3E0F91209D2FF3F
:100E3000AEF090010AE0FBA3E0FAA3E0F90209D2C8
:100E4000900136A3A3E0F9A3E0FF900110E0FBA31B
:100E5000E0FAA3E022E4FCFDE0F8A3E0F9A3E0FA65
:100E6000A3E022C8ECC8C9EDC9CAEECACBEFCBE0FB
:100E7000FEA3E0FF227A0079627E007F0B7D007B7B
:100E800000020BC6FFC390018DE09F90018CE02211
:100E900043AB025389FD5395FD5396FD22A3F0A366
:100EA0007401F0A322C98FF0020A35F9EB2FFFEA93
:100EB00035F0FEED39FDEC38FC229002D1E0FEA3C6
:100EC000E0FF227F087A0179367E007D007B0102F7
:100ED0000BC62FFFEA3EFEE93DFDE83CFCE4FAF9D3
:100EE000F8020A90E50A25E02428F8E6FE08E62242
:100EF000A3E0FEA3E0FBCAEECAE4F9F82290021FC9
:100F00007402F0A37458F022902E42E0FEA3E0FF9A
:100F10007C007D1402097490018AE4F0A3F0A3F030
:100F2000A32290018CE0FEA3E0FFD39400EE940096
:100F300022120B99C8ECC8C9EDC9CAEECACBEFCBD7
:100F4000E4FCFDEB229001A9E4F0A374C8F0229028
:100F50002EC07402F022120866902EC07419F0227E
:100F6000E50D25E02479F582E43401F583E0FEA364
:100F7000E0FF229002CFA3A3E0F9A3E0FF90010AD3
:100F8000229002D5E0FEA3E0FFD39450EE9400221D
:100F9000E0FCA3E0FDA3E0FEA3E022F07E007F05DD
:100FA0007D007B007A00795D020BC6F9E4F5F00262
:100FB0000A35FFE5F0F0A3EFF022F9EE8FF0020A18
:100FC00035E4F50EF50DF50CF50B22C39FFFE5F0AA
:100FD0009E2290001BE0642022902EC2F0902EC72B
:100FE0007401F0902ECA22900108E0FCA3E0FD22DB
:100FF000FFAEF07C00020B99AB0EAA0DA90CA80B5A
:10100000D3020B389002D2E0940A9002D1E094000F
:10101000229002D4E0940A9002D3E0940022E527C3
:101020002488FFE5263413FED322900108E0FFA3B5
:10103000E090017FCF22D39001AAE09F9001A9E028
:101040009E2290016BE568F0A3E569F02225E0247B
:1010500028F8A60F08A610229002D1E554F0A3E5C7
:1010600055F022E4900225F0A3F022900104E4F070
:10107000A37496F022F9746175F0A8020A35900005
:101080003A7410F022F0A3F090022BF0A3F022901B
:101090002EC4E4F0A322FEEF2401FFE43EC313229A
:1010A000FEE433FDE433FC780122902EC0E4F0909E
:1010B0002E1EE022FFC3ED9FFFEC95F0FE22C3EF52
:1010C0009464EE6480948022EE3395E0FDFC22254A
:1010D00055F55574FF22F974FF75F0FB0209FDC345
:1010E000E55C9572E55B9571229002CF020B5C90F6
:1010F0000190121638FBE9C0E0EAC0E0EBC0E090D6
:101100000125121615FFE4FCFDD0E0FBD0E0FAD07B
:10111000E012168B900190120B5C900195E004F0A8
:101120007006900194E004F0900196E07002A3E054
:101130006003021B26900190121770FFEEC0E0EFD3
:10114000C0E01216D0D0E0FFD0E0FE120A9090016D
:1011500090120B5C900190A3A3E0FFA3E090018E9E
:10116000CFF0A3EFF0A3120B6800000000E49001A1
:10117000941216FB74C8F090021DE07002A3E060A8
:1011800003021B26900198E07002A3E06003021B9B
:1011900026900134E07003021A2990018AE0FEA330
:1011A000E0FF4E702290018EE0FDA3E090018ACD19
:1011B000F0A3EDF090010D121615FD90018CE5F0F5
:1011C000F0A3EDF0021A3190018EE0FCA3E0FDC324
:1011D000EF9DFFEE9CFE12309690019A12162D1292
:1011E000179A900188E0702690019A121615C39400
:1011F0000FE5F09400500F90010D121615FF9001AD
:101200008C121793801F9001887401F08017900151
:101210009A121615C39402E5F0940050081216F7BE
:10122000F0900188F090018EE0FEA3E0FFD39001E2
:101230008BE09F90018AE09E4007E4900189F08056
:10124000109001897401F080081216F7F09001885F
:10125000F0900188E07003021B261217025003026F
:101260001B2690010D1216151217ABFE1230969028
:1012700002D1EEF0A3EFF0A3E4F0A37464F09001C8
:101280000D121615D39494E5F09411400A9002D3F0
:101290007403F0A37420F09002D1A3E09001A1F0B8
:1012A00090010D121615FFAEF0D31216669E401572
:1012B0009002D3E0FCA3E0FDD39002D2E09D900227
:1012C000D1E09C501A1216659E50439002D3E0FE66
:1012D000A3E0FF9002D2E09F9002D1E09E402FE475
:1012E000900188F090018AF0A3F090010D1216157C
:1012F00012166495F090019874015007F0A3742CB5
:10130000F08005F0A37490F0E4900189F022900140
:101310000D121615FFD312166695F0400CD3121756
:10132000E4400612162A1218B690010D1216151274
:10133000166495F050101217E4400B12162AF9E4C7
:1013400075F0051209FD22900181E0FEA3E0FFC3C4
:101350009404EE9400502A1217C7EF25E0FFEE33F5
:10136000FE74792FF58274013EF583ECF0A3EDF065
:10137000900182E004F07006900181E004F0021C0C
:101380009B750D01121740E50D25E02477F582E4E9
:101390003401F583EEF0A3EFF0050DE50DB404E4A0
:1013A000900134E07003021C41900110121615FFE9
:1013B000AEF01217C7D39FEC9E5003021C94ED9F12
:1013C000FFEC9EFED3EF94F4EE94015003021C94C4
:1013D000A31216151218949002D4F0A3EFF0123055
:1013E0009612189E5063E49002D6F0A3F09002D4B7
:1013F000E0FEA3E0FF123096D3EF9428EE648094D1
:10140000804025D39002D5E094009002D4E064801F
:1014100094809002D64008E4F0A37405F080107424
:10142000FFF0A374FBF08007E49002D6F0A3F01263
:101430001612FF9002D7E02FFE9002D6E035F09012
:10144000017FF0A3CEF0021C9B12180AF0A3EFF06C
:101450009001A7E004F070069001A6E004F0021CE1
:101460009B121612FF1217C7C3EF9DFFE5F09CFEFB
:10147000123096C3EF9428EE648094805036900129
:1014800010121615FFC3900109E09FFF900108E0BC
:1014900095F0FE123096C3EF9414EE648094805061
:1014A00005900110800390010A121615FF90017F2C
:1014B000E5F0800312180AF0A3EFF0E4F50CF50B49
:1014C000F50AF509F50DD3900182E0950D900181A3
:1014D000E09400401E121740E4FCFDE50C2FF50CD3
:1014E000E50B3EF50BED350AF50AEC3509F5090576
:1014F0000D80D3AF0CAE0BAD0AAC09EEC0E0EFC06F
:10150000E09001811216D1D0E0FFD0E0FE120A90E7
:101510008F0C8E0B8D0A8C0922C0E0C083C082C064
:10152000D0D2AF900230E004F0D390021EE09400DD
:1015300090021DE09400400CA3E024FFF090021DF7
:10154000E034FFF0D3900220E0940090021FE0947A
:1015500000400CA3E024FFF090021FE034FFF0D322
:10156000900222E09400900221E09400400CA3E05D
:1015700024FFF0900221E034FFF0D3900224E094A5
:1015800000900223E09400400CA3E024FFF09002BE
:1015900023E034FFF0D3900226E09400900225E08F
:1015A0009400400CA3E024FFF0900225E034FFF00B
:1015B000D390022EE0940090022DE09400400CA302
:1015C000E024FFF090022DE034FFF0D390022CE0F5
:1015D000940090022BE09400400CA3E024FFF090D4
:1015E000022BE034FFF0D3900228E0940090022711
:1015F000E09400400CA3E024FFF0900227E034FFC9
:10160000F0C3E56B94E8E56A94035008056BE56B5D
:101610007002056AC3E55794D0E556940750080553
:1016200057E55770020556D3900197E0940090015A
:1016300096E09400400CA3E024FFF0900196E03483
:10164000FFF0D3900199E09400900198E09400405D
:101650000CA3E024FFF0900198E034FFF0D3900158
:1016600076E09401900175E09400400CA3E024FF23
:10167000F0900175E034FFF0D390022AE0940090DE
:101680000229E09400400CA3E024FFF0900229E03E
:1016900034FFF0D39001A5E094009001A4E0940001
:1016A000400CA3E024FFF09001A4E034FFF0D0D080
:1016B000D082D083D0E0327E007FFF7D007B017A34
:1016C000007904120BC69002E37400F0A37404F0D6
:1016D0009001D07401F0A37400F0A374B8F09001ED
:1016E000D67401F0A37400F074AC122EB97400F03B
:1016F000A37494F09001D37401F0A37400F0A37468
:10170000C6F09001DC7401F0A37400F074D2122EC4
:10171000B97400F0A3741F122EBA7401F0A37402FE
:10172000F0902DE0E493FF9002E3E0FCA3E0FDF5F0
:10173000828C83A3EFF0900002E0FFED2404122ED0
:1017400093900001E0FFED2405122E93900003E03A
:10175000FFED2406122E93902DE2E493FFED241268
:10176000122E93902DE3E493FFED2414122E939008
:1017700001E57401F0A37400F0A3743CF0E4FF757C
:10178000F002EFA42401F582E5F0342EF583E49312
:10179000FE74542FF582E43400F583EEF0EF25E07B
:1017A000242DF582E4342EF583E493FE122EC1EE4F
:1017B000F0122EC1E0FEEF25E0242CF582E4342E59
:1017C000F583E49324C0F582E4342EF583EEF00F24
:1017D000EFB416AB902F56E0900058F0902F56E0E3
:1017E00090006EF0902F56E0900059F0902F56E048
:1017F00090006FF09000FF7401F09000FEF09000F8
:101800003A7410F090001BF0900028F0A37420F0C0
:1018100090021D7413F0A37488F0221217A1F5151D
:10182000F516852811852912852813852914F50AAE
:101830001216C4FFD3E5149FE5139E40078E138F45
:1018400014850A16C3E5129FE5119E50078E118F6D
:1018500012850A15050AE50AB412D5E4F50FF5104C
:10186000F50AE516650A602EE515650A6028E5109B
:10187000450F7010E50A25E02428F8E6F50F08E684
:10188000F51080121216C42510FFE50F3E121876CF
:10189000F50FEF13F510050AE50AB412C59001859E
:1018A000E50FF0A3E510F0E516C3940F5005E5161B
:1018B00012182DE515C3940F5005E51512182D12B9
:1018C00017A1F50A1216C4FFC3E5109FFFE50F9E8E
:1018D000FE123096D3EF9419EE64809480400FE4AA
:1018E000FCFDE50E2510F50EE50D350F800F1216E7
:1018F000C4FFE4FCFDE50E2FF50EE50D3EF50DED04
:10190000350CF50CEC350BF50B050AE50AC3941202
:1019100040B2AF70AE6FAD6EAC6D1217D8401AE525
:101920000E9570F50EE50D956FF50DE50C956EF5C0
:101930000CE50B956DF50B80031217A1E47F607E1B
:10194000EAFDFC1217D8400BE4750E60750DEAF540
:101950000CF50BAE0DAF0E22C0E0C083C082C0D02C
:10196000ECC0E0EDC0E0EEC0E0EFC0E0D2AFE5DB00
:1019700030E419D20CC208E5DB30E102802E90027F
:10198000E2E5DFF09002E5E4F0022236E5DB30E547
:101990000FD206300805C208022236C20C022236D7
:1019A000C208E5DB30E13AE5DB30E0109002E6E02A
:1019B000FF04F012306EE0F5DF0222369002E6E01E
:1019C000FFB40813208A10D28A9002E3E0FCA3E05F
:1019D0002407123074E4F0EF641A707AD2070222FE
:1019E000369002E5E0700EA3E5DFF09002E57401A9
:1019F000F0D20880619002E6E0902ECC93FFB4FF15
:101A0000089002E2E5DFF08047EF640F7029900252
:101A1000E6E0FFA3E0FCA3E0FD123073E0540FF01A
:101A20009002E6E0FF04F0ED123073E0FFE5DF54D2
:101A3000F0FEEF4EF0801F9002E6E0FF12306EE500
:101A4000DFF0EFB4240A90021F7401F0A374F4F0E5
:101A50009002E6E004F075DBFFD0E0FFD0E0FED0BE
:101A6000E0FDD0E0FCD0D0D082D083D0E032900234
:101A7000D5EFF09002DAE4F0A374FFF0E4A3F0A352
:101A8000F0A304F0A374FFF0902EC07402F0902E27
:101A9000C37408F0E49002D6F0A3F09002D6E0FE02
:101AA000A3E0FFC39409EE9400400302233DEF94AA
:101AB00007EE940040067E007F0180199002D6A3B5
:101AC000E004FFE47E01C8EFC8088006CEA2E71359
:101AD000CE13D8F8FF9002D8EEF0A3EFF0902EC00E
:101AE0007419F0902EC0E030E2F99002D5E0FF7555
:101AF000F002A42400122EA8E0FCA3E0FD902EC06A
:101B00007402F0D3ED94FFEC940F40179002D8E0EC
:101B1000FCA3E0FD75F002EF122EA5EC8DF012098A
:101B2000BC80299002D5E075F002122EA5C083C0BA
:101B300082E0FEA3E0FF9002D8E0FCA3E0FDC3EF4B
:101B40009DFFEE9CD082D083F0A3EFF09002D7E00F
:101B500004F070069002D6E004F002227B7F00229F
:101B6000900134E060061216A3022421900136127F
:101B70001638FBE9C0E0EAC0E0EBC0E0121612FF45
:101B8000E4FCFDD0E0FBD0E0FAD0E012168B90012F
:101B900036120B5C90013BE004F0700690013AE0D5
:101BA00004F0900221E07002A3E0600302242B9075
:101BB0000136121770FFEEC0E0EFC0E01216D0D071
:101BC000E0FFD0E0FE120A90900136120B5C90010B
:101BD000101216152432FFE435F0FE90013612166D
:101BE00035FBD3120B38403990021DE07002A3E0A0
:101BF000702F200B2C90013DE004F0700690013C0A
:101C0000E004F0D390013DE0940590013CE09400A5
:101C1000401E121620121685E490013CF0A3F080BD
:101C20000F121620121685E490013CF0A3F0C20BAF
:101C3000900136120B6800000000E490013AF0A316
:101C4000F09002217402F0A374BCF0227FA07A010C
:101C500079081216A990010A7401F0A37400F074B7
:101C60004412167D7400F0744612167D7400F0A3C1
:101C7000744812167E7400F0A3743212167E74003B
:101C8000F0A3742E12167E7400F0A3742CF0900151
:101C9000257401F0A37400F0A37426F090019A74E7
:101CA00001F0A37400F0A3748412167E7400F0A3F4
:101CB0007486F09001287401F0A37400F0A3741CE2
:101CC00012167E7400F0A37422F090011C7401F0CF
:101CD000A37400F0A3743612167E7400F0A3742A65
:101CE00012167E7400F0A37438F012172590011CB0
:101CF00012162DF9E475F0C8120A3590011F12165C
:101D00002DF9E475F064120A3512184B9001221275
:101D1000162DF9E475F096020A359002D1EEF0A383
:101D2000EF12177B9002D1E07002A3E0600312274C
:101D300016122A8FE4900181F0A3F07F12122F383F
:101D40001216DDA37402F0A374BCF0900108E0F950
:101D5000A3E0FFA312162D12168590010D12162D69
:101D600012178B90011312162D121855900116128E
:101D7000162D12178B90011912162D1218551218C4
:101D80005EE4900134F0900136120B680000000010
:101D900090013A1216FAF0900108121625121685D3
:101DA000E4900135F090022D121865900229F0A3FD
:101DB000F0FE7F12FD7B017A017988120BC690013B
:101DC0002512161590018E1217929001961217285F
:101DD000229002D7EEF0A3EFF0E560455F700C9023
:101DE00002D7E0F55FA3E0F56080169002D8E02509
:101DF00060FF9002D7E0355F121876F55FEF13F5BC
:101E0000600561E561D3940A400D855F5D85605E84
:101E1000E4F55FF560F561D3E55E9400E55D94005F
:101E2000405D9002D8E0955EFF9002D7E0955DFEA0
:101E3000123096C3EF940AEE64809480AE5DAF5E7C
:101E4000501C7C007D03120B999002D7121643E4BC
:101E5000FCFDEB2FFFEA3E12169278028016CBEFC4
:101E6000CBCAEECA9002D7E0FEA3E0FFEB2FFFEA59
:101E70003E121880120B499002D7EEF0A3EFF090BB
:101E800002D7E0FEA3E0FF22D390021EE094009070
:101E9000021DE0940040030227153000299001A4A0
:101EA000E07002A3E09001A96009740BF0A374B87C
:101EB000F080077405F0A374DCF09001047405F061
:101EC000A37414F0800612172512184B90010D12FE
:101ED0001615FFAEF01218164013900134E0601E84
:101EE000D3900105E09F900104E09E5011900225DF
:101EF000E07002A3E0702790013404F0802090008D
:101F00001BE0B42005121843800690022512172802
:101F1000E4900134F0900223F0A3F012185E9001D7
:101F200034E06011900028E090003AB4100474107E
:101F3000F0227420F0227F01122B92902E42E0FEBC
:101F4000A3E024B1FFEE34FE9002D3F0A3EFF01231
:101F5000167053997F122F0212308412172F902E71
:101F6000C314F0121739902EC0E030E2F9902EC061
:101F7000E4F0902E021216EB8E268F277D12120BA4
:101F800099EF24E0F570EE34B1F56FED34FFF56EA6
:101F9000EC34FFF56D4389021216764380024399B3
:101FA00080902EC5E4F0900107E0900021F0121619
:101FB000E8EF2408FFEE3420F990012812162DC90D
:101FC0008FF0020A35022DB4E493A3F8E493A34002
:101FD00003F68001F208DFF48029E493A3F85407A4
:101FE000240CC8C333C4540F4420C8834004F4569F
:101FF000800146F6DFE4800B0102040810204080D7
:10200000902915E47E019360BCA3FF543F30E5099D
:10201000541FFEE493A360010ECF54C025E060A8D6
:1020200040B8E493A3FAE493A3F8E493A3C8C58269
:10203000C8CAC583CAF0A3C8C582C8CAC583CADFD7
:10204000E9DEE780BE90023AE014601B146043248E
:1020500002705D900244E0B4010A90023A122891A5
:10206000D205D200C203227F02122D32EF60077F19
:10207000021230A2C205900244E0703490023A7419
:1020800002F0D203C205C2007F031230A27F030216
:102090002B417F03122D32EF60167F031230A29086
:1020A0000244E090023A7003F08003122891C203C8
:1020B000227401F07F021230A27F02122B4122CD46
:1020C000EFCD43AD105399EF439A10539BEF902EF1
:1020D000C07402F0147E00C8EDC8088005C333CE7A
:1020E00033CED8F9FF902EC4EEF0A3EFF0902EC8B7
:1020F000EEF0A3EFF07410122FF3902EC0E030E258
:10210000F9902EC0E4F07402F07420122FF3902E98
:10211000C0E030E2F9902E00E0FEA3E0FF902EC474
:10212000E4F0A3F0902EC0F0439910539AEF539B24
:10213000EF5390EF22C10C41023E0041023F0041AB
:10214000023B0041024300C102C101C104410244FB
:102150000041023A00C103C100C1054102E500414E
:1021600002E6004202E00000C106C108C1074102C8
:10217000E2104101030041010710C10BC10A4101F6
:10218000A80002260000046D0000000041010610B6
:1021900041024500009002CF7408F0A3E4F0A3745C
:1021A0003FF0A374DFF0E4FDFCF9758A10538AEF69
:1021B000009002CFE0FEA3E02DF582EE3CF583E433
:1021C00093FF69F90DBD00010CBC37E5BDDFE2905E
:1021D00002D112307BE493699002E3700912307BE4
:1021E000A37407F0800612307BA3E4F0758A505385
:1021F0008AEF0022200A06200303300509E4FFFECF
:102200001224FAC20A2290022BE07002A3E06005B9
:102210001217B2703A200003122CAD122A8F7F01E0
:10222000122F38121B279002CFEEF0A3EFF07B01A4
:102230007A0279CF122C239002CF12175812162D42
:10224000121685120FBE1226681218CF12234012E2
:102250002E582290021CE024FE60131460231460A8
:10226000272403704990021C7402F01230B17F01E0
:102270007E001224FA90021C7403F0E490023BF0FA
:102280002290021C7404F022122825122BDB122843
:1022900025900175E07004A3E06401700C90017555
:1022A000F0A3F090021C7402F0E4900230F022439C
:1022B00089025395FD5396FD43800212302D7F0C09
:1022C00012289FCAEECACBEFCB7F0C12289FEF2BB0
:1022D000FFEE3A9002D4F0A3EFF0122FFFF91209AB
:1022E000D245F07006122FE4EE80181209D2FBAA34
:1022F000F0122FE4EF2BFFEE3AC313F9EF13FF12A6
:102300002FFFC98FF0120A3522122EB1F5828E836B
:10231000A3E0B4AA03122975122EB1FF122E9CE07D
:10232000B41008EF122E9CE4F0D20A122EB1FF2452
:102330001B122E9EE0700DEF241C122E9EE0B41096
:1023400003122C6A122EB12413122E9EE0FFB41039
:10235000069002447401F0EFB42005E4900244F0CA
:10236000229002CFEFF0E024C612300DE060037F30
:1023700001229002CFE0FF24C612300D7401F0EF6D
:10238000123015E493FE740193FFE4FCFD902F607E
:10239000E0F8A3E0F9A3E0FAA3E02FFFEA3EFEEDA8
:1023A00039EC389002CFE0123021EEF0A3EFF07F4D
:1023B0000022CDEFCD121670122F02ED601C539942
:1023C0007F120866902E5EE4F0A374FFF07F0F1278
:1023D000224E902EC4E4F043998053997F902E4270
:1023E000E4F0A374FFF01230847F0112224E43897F
:1023F00002121676438002439980221217B2702986
:102400009001A8E070031216DD9001A87401F0900D
:102410000029E0B420081229D4120C478003122F9F
:102420006690022F7401F08017E49001A8F09000EC
:1024300029E0B420031229D490022FE06002E4F0D6
:102440000230509002D1EBF0A3EAF0A3E9F0900241
:102450001FE07002A3E07031900135E0602BE49042
:102460000135F0122A8F1216DD7508017F01122F37
:1024700038121B279002D112162D12179A0508E563
:1024800008C3941240E61218432212082EE4F5F213
:1024900075F30875EEFF75EF3F75EA81F5F675EB9C
:1024A0000700E5EC30E7FBE4F5EC9002E3E0FEA387
:1024B000E0FF241BF582E43EF583E5F3F0EF241CF6
:1024C000F582E43EF583E5F2F075EB302230073F0C
:1024D000C207902E42E0FFA3E09002D1CFF0A3EF1D
:1024E000F0E4FF122B921216E8EF2408FFEE3420DE
:1024F000FE90012812162D12179A12172F9002D152
:10250000E0FFA3E0902E42CFF0A3EFF01216DD2201
:10251000758B11902F647440F0E4FEE4FFEF75F0CA
:1025200003A42458F582E43402F583E5822EF58273
:10253000E43583F583E4F00FEFB40AE10EEEB40363
:10254000DA7F099002C6E4F0A3DFFC902F64748068
:10255000F022CBEFCB12300AE06036902F60A3A3BD
:10256000E0FEA3E0FFEB123021E0FCA3E0FDD39FEF
:10257000EC9E501DC3EF9DFFEE9CFEEB123015C389
:102580007401939FE4939E400812300AE4F07F01A7
:10259000227F0022758A50538AEF9000027411F056
:1025A0009000017422F09000037433F0E4F5AB75F1
:1025B000AC1DF5ADF5AF7589FF75913F7599FFF5C8
:1025C0009675931CF59BF595F592F59A5388FCD278
:1025D0008AD20D2212084E53A87F122D7412081EA3
:1025E000122F9343A8801230AB9000FFE06006905A
:1025F000021C7401F0122DE4122AE9122A3380F52C
:102600000702AB6AE4FF3006169002E3E0FCA3E0A9
:10261000F5828C83E0FE54F0FFEE540FF0C20622E8
:10262000029103040A180DA00EA60FFF0C020BFF67
:1026300023F724062504070127062A0628042B046D
:1026400029032C032D042E042F0426040211030653
:102650000A100D400E800FFF0C020BFF23F4240420
:102660002504070127102A1028042B0429032C0312
:102670002D202E202F10262090003AE0FC900106FD
:10268000E06C602E90003AE0FE900106F090000BA6
:10269000E0900243F0540FF0EEB42005E0442080B7
:1026A0000AECB4100B900243E04410F090000BF0E1
:1026B000C28A22F582E43CF583EFF022241AF582E7
:1026C000E43EF58322A42440F582E5F0342EF58320
:1026D000229002E3E0FEA3E022A3F0A37401F0A3A2
:1026E00022746A2FF582E43400F583220000000092
:1026F000FFFFFFFF0000FFFFFFFFFFFFFFFFFF00E7
:10270000FF000000FFFF000000FFFFFFFFFFFFFFD3
:1027100000000000FFFFFFFFFFFFFFFFFFFF0000C3
:10272000000012172F12186FF0FF74542FF582E477
:102730003400F583E0FE75F002EFA42400F582E595
:10274000F0342EF583E49324C0F582E4342EF5832F
:10275000EEF00FEFB416D3229002D4EFF0122F0256
:10276000E4F5099002D4E0FFE509C39F5007121376
:1027700018050980EE902EC0E4F0121FFB900108AE
:10278000EEF0A3EFF022E4F5B2F5BA758D20438D9B
:1027900020538D7F53AAF7F58BE5DB20E211200C47
:1027A0000EE4F58A758703000000758A50D20A7519
:1027B0008B11229002E3E0FFA3E09002E7CFF0A3A9
:1027C000EFF0E4F5DA75DA4043DA2075D74075DAD0
:1027D0005875D90143A90875B80875F8082201F49D
:1027E0000028002801F4009603E801F403E81770BC
:1027F000006403E8003202580258012C01F403E897
:10280000271000C89002D4E0FEA3E0FF7C007D12F8
:10281000020974902EC2F0902EC0E04419F022906C
:102820000125E0FBA3E0FAA3E02274C62BF582E4C5
:102830003402F5832225E024D2F582E4342FF58397
:102840002225E02446F582E43402F58322902EC04E
:102850007402F0902EC77474F0902ECD74C0F0A363
:1028600074FFF0A3F0902EC37401F0902ECAF022F2
:10287000E5B230E005E5AA20E013E4900231F075FE
:10288000B28E75B6F9F5B743B20143AA0122A3E0AF
:10289000FCA3E02FF582E43CF58322E0FEA3E0F503
:1028A000828E832212172F74911217B97418F012A6
:1028B000186F7402F022EE30E707C3E49FFFE49E36
:1028C000FE2274C62F12300DE4F0221230BB022C0F
:1028D000F012185E22D2AF32D2AF32023050000076
:1028E00000000000000000000000000000000000E8
:1028F00000000000000000000000000000000000D8
:1029000000000000000000000000000000000000C7
:1029100000000000000000000000000000000000B7
:1037F00000000000000000000000000000000004C5
:1038000000000000000000000000000000000000B8
:1038100000000000000000000000000000000000A8
:00000001FF
