:100000000066000000030000C0F2000000000000D5
:1000100000000000000000000000000000000000E0
:1000200078FFE4B8200118F6D8F99000007F007E30
:1000300007E4F0A3DFFCDEFA75817A0223D3121AFB
:10004000D712209E9002117401F022022C8F74AA04
:100050007583F5758255A574557583FA7582AAA5C1
:1000600074A57583F5758255A52200021E969040F1
:100070007FE493FF64326003EF7002002253A87F95
:100080000080FD021954EE30E707C3E49FFFE49EB1
:10009000FE2274BB2F122BDBE4F022022C8CE7092A
:1000A000F608DFFA8046E709F208DFFA803E888228
:1000B0008C83E709F0A3DFFA8032E309F608DFFA60
:1000C0008078E309F208DFFA807088828C83E30984
:1000D000F0A3DFFA806489828A83E0A3F608DFFA5E
:1000E000805889828A83E0A3F208DFFA804C80D2AC
:1000F00080FA80C680D4806980F28033801080A628
:1001000080EA809A80A880DA80E280CA803389827F
:100110008A83ECFAE493A3C8C582C8CCC583CCF02B
:10012000A3C8C582C8CCC583CCDFE9DEE7800D89D2
:10013000828A83E493A3F608DFF9ECFAA9F0EDFBD9
:100140002289828A83ECFAE0A3C8C582C8CCC58321
:10015000CCF0A3C8C582C8CCC583CCDFEADEE8807A
:10016000DB89828A83E493A3F208DFF980CC88F0EC
:10017000EF60010E4E60C388F0ED2402B40400501D
:10018000B9F582EB2402B4040050AF232345822347
:100190009008CE73EF8DF0A4A8F0CF8CF0A428CEF9
:1001A0008DF0A42EFE22C2D5EC30E709B2D5E4C30F
:1001B0009DFDE49CFCEE30E715B2D5E4C39FFFE45F
:1001C0009EFE120BF2C3E49DFDE49CFC8003120B27
:1001D000F230D507C3E49FFFE49EFE22C5F0F8A3EA
:1001E000E028F0C5F0F8E582158270021583E0384A
:1001F000F022BB010A89828A83E0F5F0A3E0225055
:100200000687F009E71922BBFE07E3F5F009E319B9
:100210002289828A83E493F5F074019322BB01075B
:1002200089828A830209BC500B09C5F027F7C5F003
:100230001937F722BBFE0D09F8E325F0F3C5F019D5
:10024000E338F322F889828A8374019325F0C5F09C
:10025000F8E4933822BB010A89828A83F0E5F0A38F
:10026000F0225006F709A7F01922BBFE06F3E5F0CD
:1002700009F3192275F008758200EF2FFFEE33FEA7
:10028000CD33CDCC33CCC58233C5829BED9AEC996E
:10029000E58298400CF582EE9BFEED9AFDEC99FC10
:1002A0000FD5F0D6E4CEFBE4CDFAE4CCF9A8822257
:1002B000B800C1B90059BA002DEC8BF084CFCECD77
:1002C000FCE5F0CBF97818EF2FFFEE33FEED33FDB0
:1002D000EC33FCEB33FB10D703994004EB99FB0F95
:1002E000D8E5E4F9FA227818EF2FFFEE33FEED336C
:1002F000FDEC33FCC933C910D7059BE99A4007ECE4
:100300009BFCE99AF90FD8E0E4C9FAE4CCFB22752A
:10031000F010EF2FFFEE33FEED33FDCC33CCC833BE
:10032000C810D7079BEC9AE899400AED9BFDEC9A20
:10033000FCE899F80FD5F0DAE4CDFBE4CCFAE4C898
:10034000F922EB9FF5F0EA9E42F0E99D42F0EC6461
:1003500080C864809845F022EB9FF5F0EA9E42F059
:10036000E99D42F0E89C45F022E8600FECC313FCE5
:10037000ED13FDEE13FEEF13FFD8F122ECF0A3ED29
:10038000F0A3EEF0A3EFF022A8828583F0D083D013
:1003900082120B7F120B7F120B7F120B7FE473E430
:1003A00093A3C583C5F0C583C8C582C8F0A3C58320
:1003B000C5F0C583C8C582C822EC8EF0A4CCC5F0B8
:1003C000CCCDF8EFA4CEC5F02DFDE43CFCE8A42E86
:1003D000C8C5F03DFDE43CFCEFA4FFE5F028FEE4D9
:1003E0003DFDE43CFC22EF4E6012EF60010EEDBBE0
:1003F000010B89828A83F0A3DFFCDEFA2289F050A8
:1004000007F709DFFCA9F022BBFEFCF309DFFCA91A
:10041000F022BC000BBE0029EF8DF084FFADF0226E
:10042000E4CCF875F008EF2FFFEE33FEEC33FCEE72
:100430009DEC984005FCEE9DFE0FD5F0E9E4CEFD65
:1004400022EDF8F5F0EE8420D21CFEADF075F00838
:10045000EF2FFFED33FD4007985006D5F0F222C391
:1004600098FD0FD5F0EA22208A03020FD1900214E2
:10047000E07002A3E06003020FD1900171E070020E
:10048000A3E06003020FD11211646003020FD19048
:100490000132E0703090011D120FE6FFAEF09001C6
:1004A0000B120FE6D39FE5F09E4003020FD112100E
:1004B00070E490017DF0A3F01211E0900218121187
:1004C000F7F575800375750075761EE4F5B2F5BA1B
:1004D000900181E0F55DA3E0F55EC209758D2043D2
:1004E0008D20758D8043AA08D2AF758B02758EAFB3
:1004F000200624121164701F200C1CE5DB20E2177B
:10050000758AC4200C0DE5DB20E208758703000026
:10051000008006D2098002D209758B11758A50536A
:10052000AAF7D3900213E09490900212E094014055
:100530000EA3E02470F0900212E034FEF08007E495
:10054000900212F0A3F0D390021FE0949090021E4C
:10055000E09401400EA3E02470F090021EE034FE0F
:10056000F08007E490021EF0A3F0122A819000555B
:10057000E075F006A4902EC3F0A3E4F0A3F01210EF
:100580002353997F122C6E1210E8902EC0E030E2B7
:10059000F9902EC0E4F0902E02E0F577A3E0F57814
:1005A0004389021210294380021210E5902EC0E008
:1005B00030E2F912120BF522A3E0F523E5782527A6
:1005C000FFE5773526FEC3EF9523F525EE9522F559
:1005D000241211B5E5259FE5249E40048E248F2525
:1005E000902EC4E4F043998090016FE524F0A3E5D8
:1005F00025F0C3E55E9525FFE55D9524FE120866AE
:100600008E5F8F6012121E4003020FAAAE24AF2528
:100610007C007D14120B99121228AF74AE73AD7268
:10062000AC719002C4121009FBD3120B389002C4B3
:1006300040171211269574FFEE9573FEED9572FD2D
:10064000EC9571FC1212288007120B680000000064
:10065000E47F607EEAFDFC9002C4121009FBD31215
:100660000B38400A9002C4120B680000EA60120FB7
:10067000E37D091211929002C41210097B0A121034
:100680005E121228900132E07042AE5DAF5EFC7DDA
:1006900009120B99C8ECC8C9EDC9CAEECACBEFCB99
:1006A000E4FCFDEB2525FFEA3524121092E47B0AD9
:1006B00012106A8E5D8F5E9002C4120FF4121058F1
:1006C000121118120FFE121058020FAA121118124E
:1006D0000FFE12105890010E120FE6FFAEF09002BE
:1006E000C4121006FBD3120B385003020FBA120FBC
:1006F000D212115DFEC3EF957AEE95795003020F89
:10070000BA90010B120FE6FFAEF07C007D02120BD7
:1007100099C8ECC8EDC0E0EEC0E0EFC0E0120FD227
:1007200012115DFEE4FCFDD0E0FBD0E0FAD0E0F970
:10073000EB2FFFEA3E121092E47B0312106A900145
:100740000B120FFE1210DE90010B120FE6D3943045
:10075000E5F094754008747575F030120A35900113
:1007600084E06066121175406190010B120FE61271
:10077000115DFE1208669002C8EEF0A3EFF0900142
:100780000B120FE6FFC312104C50199002C9E094EF
:10079000149002C8E09400400B120FFBF9E475F0CE
:1007A000051209FD900185E0602090010B120FE613
:1007B00012104A4015D39002C9E094289002C8E074
:1007C00094004006120FFB12121520090D12121E82
:1007D00050081211647003020CBC900183E00412F3
:1007E000113B1210149001337401F0900216121193
:1007F0009A2290010EE0FBA3E0FAA3E0F91209D2DD
:10080000FFAEF0900108E0FBA3E0FAA3E0F90209D3
:10081000D2900134A3A3E0F9A3E0FF90010EE0FB26
:10082000A3E0FAA3E022E4FCFDE0F8A3E0F9A3E0F2
:10083000FAA3E0227A0079667E007F0B7D007B00C0
:10084000020BC643AB025389FD5395FD5396FD221F
:10085000C8ECC8C9EDC9CAEECACBEFCBE0FEA3E035
:10086000FF22A3F0A37401F0A322D3FF900189E03B
:100870009F900188E095F022C98FF0020A352FFF82
:10088000EA3EFEE93DFDE83CFCE4FAF9F8020A9094
:100890007F087A0179347E007D007B01020BC6E57A
:1008A0000A25E02428F8E6FE08E622F9EB2FFFEA05
:1008B00035F0FEED39FDEC38FC229002147402F0A4
:1008C000A37458F022A3E0FEA3E0FBCAEECAE4F949
:1008D000F822902E427D14E0FEA3E0FF7C00020986
:1008E00074902EC07402F0902EC27412F0902EC735
:1008F0007401F0902EC422F9E4F5F0020A35F9EE05
:100900008FF0020A35122C78902EC07419F022E56F
:100910000D25E02475F582E43401F583E0FEA3E0C3
:10092000FF229002C6E0FEA3E0FF2290018AE0FCD5
:10093000A3E0FDC3EF9DFF229002C4A3A3E0F9A3AF
:10094000E0FF90010822E0FCA3E0FDA3E0FEA3E0AD
:1009500022900186F0A3F0A3F0A322F07E007F0591
:100960007D007B007A007961020BC6FFE5F0F0A301
:10097000EFF022E4F50EF50DF50CF50B22C39FFF09
:10098000E5F09E2290001BE0642022D3EF9414EE49
:100990006480948022900188E0FEA3E0FFD394005D
:1009A000EE940022902EC07402F0902EC4E4F0A3C6
:1009B000F022FFAEF07C00020B99E4F0A374C8F0C3
:1009C00022AB0EAA0DA90CA80BD3020B387402F0AF
:1009D000A374BCF022E5272488FFE5263413FED358
:1009E000227403F0A374E8F02290016FE56CF0A389
:1009F000E56DF02225E02428F8A60F08A61022E4D1
:100A000090021AF0A3F022F9746175F0A8020A3579
:100A100090003A7410F022F0A3F0900220F0A3F0BE
:100A200022FEEF2401FFE43EC31322902EC0E4F027
:100A3000902E1EE022F974FF75F0FB0209FDC3E55C
:100A4000609576E55F9575229002C4020B5C120FEB
:100A5000D2FDACF0D39FEC9E403490010E120FE615
:100A6000FFC3ED9FFFEC95F0FED3EF9430EE94754D
:100A7000400D9002C67475F0A37430F00212B112EA
:100A80000FDD12115D9002C6F0A3EFF08043120F4C
:100A9000E3FFAEF090010E120FE6FDACF0C39FFF36
:100AA000EC9EFED3EF9410EE9427400C9002C67497
:100AB000D8F0A374F0F08012120FE3FFC3ED9FFE95
:100AC000EC95F09002C6F0A3CEF0E49002C6F0A33D
:100AD000F0900132E06050121102D39400EE648075
:100AE0009480401A900120120FE6FDD3EF9DEE9501
:100AF000F0400B900218E4F0A37464F0801BD390D4
:100B00000219E09400900218E09400400C90010B50
:100B1000120FE69002C612114BD20B90021E740FF8
:100B2000F0A374A0F0800D90021C1211C17A00791C
:100B300052121018D39002C7E094009002C6E064ED
:100B40008094805003021400E0F9A3E0FF90010BB1
:100B5000120FFE121058121102EE3395E0FDFCE464
:100B60007BB87A88F9F8C3120B22500A9002C67437
:100B700088F0A374B8F0D390021BE0940090021A9E
:100B8000E09400500790001BE0B4201D121102C336
:100B90009496EE648094805010EF9400EE648094FC
:100BA0008040257C007D0A801430001C121102C395
:100BB00094A0EE6480948F500F7C007D32120986E1
:100BC0009002C6EEF0A3EFF0900132E060319002A7
:100BD0001CE07002A3E07027900114120FE67D0F55
:100BE0001211929002C6121030EE3395E0FDFCEB2C
:100BF0007B1012105E900114120FFEF9EE800F9020
:100C000002C6E0F9A3E0FF900114120FFEC98FF0B5
:100C1000120A35900114120FE624A8FFE5F0801D9A
:100C200090010B120FFE1210D7900114120FFE123A
:100C300010D79002C7E024A8FF9002C6E03461F903
:100C4000900111120FFE1210582290018C121009FF
:100C5000FBE9C0E0EAC0E0EBC0E0900123120FE640
:100C6000FFE4FCFDD0E0FBD0E0FAD0E012108B9066
:100C7000018C120B5C900191E004F07006900190E1
:100C8000E004F0900192E07002A3E060030215F529
:100C900090018C121126FFEEC0E0EFC0E01210A50B
:100CA000D0E0FFD0E0FE120A9090018C120B5C9015
:100CB000018CA3A3E0FFA3E090018ACFF0A3EFF0A3
:100CC000A3120B6800000000E4900190121134742C
:100CD000C8F0900212E07002A3E060030215F590E4
:100CE0000132E07003021584900186E0FEA3E0FF6C
:100CF0004E702290018AE0FDA3E0900186CDF0A322
:100D0000EDF090010B120FE6FD900188E5F0F0A3E5
:100D1000EDF002156D12110BEE9CFE1208669001AB
:100D200098120FFE1210DE900184E0702690019858
:100D3000120FE6C3940CE5F09400500F90010B12D3
:100D40000FE6FF90018812114C80209001847401FD
:100D5000F08018900198120FE6C39402E5F0940019
:100D60005009E4121131F0900184F090018AE0FE04
:100D7000A3E0FFD3900187E09F900186E09E4007AB
:100D8000E4900185F080069001857401F0E4900103
:100D900094F0A3F090019EF090019B120FFE1210B0
:100DA000D70215F5900194E0FEA3E0FF4E70159078
:100DB000018AE0FDA3E0900194CDF0A3EDF0A31231
:100DC00011C1805112110BEE9CFE12086690019B1E
:100DD000120FFE1210DE900196E07002A3E0703553
:100DE00090019B120FE6D39419E5F09400400C900B
:100DF00001967413F0A37488F0800BE490019EF0C8
:100E00009001961211C190018AE0FFA3E090019435
:100E1000CFF0A3EFF0900132E07008121131F090A2
:100E20000184F02212118453997FF50BF50CF50D16
:100E3000F50EF50A122C6E1210231210E8902EC037
:100E4000E030E2F9902EC0E4F04389021210294309
:100E50008002902E02E0FEA3E0250CF50CEE350B8F
:100E6000F50B1210E5902EC0E030E2F912120BFEE5
:100E7000A3E0250EF50EEE350DF50D050AE50AC3C6
:100E8000940640B0439980902EC5E4F0E527240CE9
:100E9000FFE52634FEFED3EF950CEE950B40159042
:100EA0000171E07002A3E0701290017104F0A3746C
:100EB000F4F08007E4900171F0A3F0E50C2527FF22
:100EC000E50B3526FEC3EF950EF510EE950DF50FEB
:100ED0001211B5E5109FE50F9E40048E0F8F109004
:100EE0000167E50FF0A3E510F090016BE50DF0A3AD
:100EF000E50EF0A3E50BF0A3E50CF0AF10AE0F127A
:100F000022E490016FEEF0A3EFF090001BE0B4201C
:100F10000312101490016FE0FEA3E0FFE4FCFDE576
:100F2000692FF569E5683EF568ED3567F567EC35DD
:100F300066F566056BE56B7002056AC3E56F94E8BC
:100F4000E56E9403402AAE6AAF6BCBEFCB1210ABC9
:100F5000AF69AE68AD67AC66120A908E6C8F6DE4B7
:100F6000F569F568F567F566F56AF56BF56EF56F89
:100F7000D3E56D9400E56C94004053900170E095CA
:100F80006DFF90016FE0956CFE9002CAF0A3EFF048
:100F9000D394F9EE6480947F4015E094079002CAE0
:100FA000E06480948050081211C9E4F570801F90AD
:100FB00002CAE0FEA3E0FF12086612116B4003753F
:100FC0007003E570C3940350051211C905709001B8
:100FD0006FE0F550A3E0F55178287C007D007B00A0
:100FE0007A00792A7E007F2802094E900132E07053
:100FF000030218681210709002161211AD9001844D
:10100000E070030219531211755003021953900135
:101010000B120FE612115DFE1208669002C6EEF08A
:10102000A3EFF0D39496EE9400400CE4900184F08A
:10103000900186F0A3F022900185E0602090010BE2
:10104000120FE612104A4015D39002C7E094289080
:1010500002C6E094004006120FFB12121590010B1D
:10106000120FE6C312104B40030219539002C7E05F
:1010700094149002C6E094005003021953120FFB1F
:10108000F9E475F0050209FD900134121009FBE93D
:10109000C0E0EAC0E0EBC0E0120FE3FFE4FCFDD0EB
:1010A000E0FBD0E0FAD0E012108B900134120B5C20
:1010B000900139E004F07006900138E004F09002ED
:1010C00016E07002A3E0600302195390013412117C
:1010D00026FFEEC0E0EFC0E01210A5D0E0FFD0E0A8
:1010E000FE120A90900134120B5C90010E120FE672
:1010F0002432FFE435F0FE900134121006FBD312C7
:101100000B38403F900212E07002A3E0703590016E
:101110009EE0702F200B2C90013BE004F0700690B5
:10112000013AE004F0D390013BE0940590013AE0ED
:101130009400401E120FF1121058E490013AF0A3EF
:10114000F0800F120FF1121058E490013AF0A3F062
:10115000C20B900134120B6800000000E4900138CB
:10116000F0A3F090019EE0900216600412119A2202
:101170001211AD22C0E0C083C082C0D0D2AF9002B5
:1011800025E004F0D3900213E09400900212E09462
:1011900000400CA3E024FFF0900212E034FFF0D3F3
:1011A000900215E09400900214E09400400CA3E03B
:1011B00024FFF0900214E034FFF0D3900217E09483
:1011C00000900216E09400400CA3E024FFF090028F
:1011D00016E034FFF0D3900219E09400900218E07A
:1011E0009400400CA3E024FFF0900218E034FFF0DC
:1011F000D390021BE0940090021AE09400400CA3EC
:10120000E024FFF090021AE034FFF0D3900223E0D4
:101210009400900222E09400400CA3E024FFF090A0
:101220000222E034FFF0D3900221E09400900220EB
:10123000E09400400CA3E024FFF0900220E034FF93
:10124000F0D390021DE0940090021CE09400400C4A
:10125000A3E024FFF090021CE034FFF0C3E56F949C
:10126000E8E56E94035008056FE56F7002056EC3E4
:10127000E55B94E8E55A94035008055BE55B700272
:10128000055AD3900193E09400900192E0940040BD
:101290000CA3E024FFF0900192E034FFF0D3900122
:1012A00097E09400900196E09400400CA3E024FFA6
:1012B000F0900196E034FFF0D3900172E094019039
:1012C0000171E09400400CA3E024FFF0900171E074
:1012D00034FFF0D390021FE0940090021EE09400CF
:1012E000400CA3E024FFF090021EE034FFF0D0D0C9
:1012F000D082D083D0E0327E007FFF7D007B017AF8
:10130000007904120BC69002D67400F0A37404F0A6
:101310009001C57401F0A37400F0A374B8F09001BB
:10132000CB7401F0A37400F074AC122A387400F08E
:10133000A37494F09001C87401F0A37400F0A37436
:10134000C6F09001D17401F0A37400F074D2122A97
:10135000387400F0A3741F122A397401F0A37402C8
:10136000F0902DE0E493FF9002D6E0FCA3E0FDF5C1
:10137000828C83A3EFF0900002E0FFED2404122A98
:1013800012900001E0FFED2405122A12900003E004
:10139000FFED2406122A12902DE2E493FFED2412B1
:1013A000122A12902DE3E493FFED2414122A1290D6
:1013B00001DA7401F0A37400F0A3743CF0E4FF754B
:1013C000F002EFA42401F582E5F0342EF583E493D6
:1013D000FE74542FF582E43400F583EEF0EF25E03F
:1013E000242DF582E4342EF583E493FE122A40EE98
:1013F000F0122A40E0FEEF25E0242CF582E4342EA2
:10140000F583E49324C0F582E4342EF583EEF00FE7
:10141000EFB416AB902F56E0900058F0902F56E0A6
:1014200090006EF0902F56E0900059F0902F56E00B
:1014300090006FF09000FF7401F09000FEF09000BB
:101440003A7410F090001BF0900028F0A37420F084
:101450009002127413F0A37488F022121153F51540
:10146000F516852811852912852813852914F50A72
:1014700012107FFFD3E5149FE5139E40078E138F54
:1014800014850A16C3E5129FE5119E50078E118F31
:1014900012850A15050AE50AB414D5E4F50FF5100E
:1014A000F50AE516650A602EE515650A6028E5105F
:1014B000450F7010E50A25E02428F8E6F50F08E648
:1014C000F510801212107F2510FFE50F3E12120159
:1014D000F50FEF13F510050AE50AB414C590018164
:1014E000E50FF0A3E510F0E516C394115005E516DD
:1014F0001211D4E515C394115005E5151211D4123B
:101500001153F50A12107FFFC3E5109FFFE50F9EF0
:10151000FE120866D3EF9419EE64809480400FE4C5
:10152000FCFDE50E2510F50EE50D350F800F1210B0
:101530007FFFE4FCFDE50E2FF50EE50D3EF50DED0C
:10154000350CF50CEC350BF50B050AE50AC39414C4
:1015500040B2AF74AE73AD72AC711211A1401AE516
:101560000E9574F50EE50D9573F50DE50C9572F578
:101570000CE50B9571F50B8003121153E47F607E2F
:10158000EAFDFC1211A1400BE4750E60750DEAF541
:101590000CF50BAE0DAF0E2290017DE0FEA3E0FF37
:1015A000C39404EE9400502F900106E0FCA3E0FDEC
:1015B000EF25E0FFEE33FE74752FF58274013EF5E2
:1015C00083ECF0A3EDF090017EE004F07006900152
:1015D0007DE004F0021E38750D011210EFE50D25B7
:1015E000E02473F582E43401F583EEF0A3EFF00517
:1015F0000DE50DB404E4120FE3FF90010612110E85
:10160000E5F09CFE120866C3EF9428EE6480948097
:101610005037900132E0702390010E120FE6FFC3A5
:10162000900107E09FFF900106E095F0FE1208662A
:10163000C312116C500590010E8003900108120F27
:10164000E6FF90017BE5F0800B900106E0FFA3E050
:1016500090017BCFF0A3EFF0E4F50CF50BF50AF564
:1016600009F50DD390017EE0950D90017DE0940089
:10167000401E1210EFE4FCFDE50C2FF50CE50B3ECF
:10168000F50BED350AF50AEC3509F509050D80D3A2
:10169000AF0CAE0BAD0AAC09EEC0E0EFC0E09001BC
:1016A0007D1210A6D0E0FFD0E0FE120A908F0C8EC3
:1016B0000B8D0A8C0922C0E0C083C082C0D0ECC070
:1016C000E0EDC0E0EEC0E0EFC0E0D2AFE5DB30E43B
:1016D00019D20CC208E5DB30E102802E9002D5E57C
:1016E000DFF09002D8E4F0021F94E5DB30E50FD282
:1016F00006300805C208021F94C20C021F94C208DB
:10170000E5DB30E13AE5DB30E0109002D9E0FF04A0
:10171000F0122C58E0F5DF021F949002D9E0FFB4DC
:101720000813208A10D28A9002D6E0FCA3E0240796
:10173000122C5EE4F0EF641A707AD207021F9490C4
:1017400002D8E0700EA3E5DFF09002D87401F0D269
:101750000880619002D9E0902A4B93FFB4FF089073
:1017600002D5E5DFF08047EF640F70299002D9E0E1
:10177000FFA3E0FCA3E0FD122C5DE0540FF090020B
:10178000D9E0FF04F0ED122C5DE0FFE5DF54F0FE40
:10179000EF4EF0801F9002D9E0FF122C58E5DFF0E9
:1017A000EFB4240A9002147401F0A374F4F09002D0
:1017B000D9E004F075DBFFD0E0FFD0E0FED0E0FD23
:1017C000D0E0FCD0D0D082D083D0E0329002C8EFFD
:1017D000F09002CDE4F0A374FFF0E4A3F0A3F0A333
:1017E00004F0A374FFF0902EC07402F0902EC37426
:1017F00008F0E49002C9F0A3F09002C9E0FEA3E073
:10180000FFC39409EE9400400302209BEF9407EE7F
:10181000940040067E007F0180199002C9A3E00475
:10182000FFE47E01C8EFC8088006CEA2E713CE13FE
:10183000D8F8FF9002CBEEF0A3EFF0902EC0741911
:10184000F0902EC0E030E2F99002C8E0FF75F0029F
:10185000A42400122A27E0FCA3E0FD902EC074020D
:10186000F0D3ED94FFEC940F40179002CBE0FCA373
:10187000E0FD75F002EF122A24EC8DF01209BC8015
:10188000299002C8E075F002122A24C083C082E0C9
:10189000FEA3E0FF9002CBE0FCA3E0FDC3EF9DFFC1
:1018A000EE9CD082D083F0A3EFF09002CAE004F067
:1018B00070069002C9E004F0021FD97F00227F99D0
:1018C0007A0179061210769001087401F0A3740071
:1018D000F074441210427400F07446121042740006
:1018E000F0A374481210437400F0A3743212104332
:1018F0007400F0A3742E1210437400F0A3742CF043
:101900009001237401F0A37400F0A37426F09001F9
:10191000987401F0A37400F0A3748412104374004F
:10192000F0A37486F09001267401F0A37400F0A374
:10193000741C1210437400F0A37422F090011A7406
:1019400001F0A37400F0A374361210437400F0A3E6
:10195000742A1210437400F0A37438F0757900757E
:101960007AC890011A120FFEF9E579857AF0120A09
:101970003590011D120FFEF9E475F064120A3590DE
:101980000120120FFEF9E475F096020A35122B655C
:10199000902E42E0FEA3E0246BFFEE34FEFE121117
:1019A0006B400A902E427401F0A37495F01210233C
:1019B00053997F122A81122C6E902EC07402F090DF
:1019C0002EC314F01210E8902EC0E030E2F9902EF1
:1019D000C0E4F0902E027D121210B78E268F277D64
:1019E00014120B99EF24E0F574EE34B1F573ED3475
:1019F000FFF572EC34FFF571438902121029438020
:101A00000243998053997F122C78902E5EE4F0A3C4
:101A100074FFF07F0F121FAC902E5EE0FEA3E0D3A8
:101A200094F0EE94014007902E5EE4F0A3F0902E27
:101A3000C4E4F0439980A3F0900105E0900021F008
:101A40001210B2900126120FFEF9EE8FF0020A3545
:101A50009002C6EEF0A3EF12113B9002C6E07002B6
:101A6000A3E0600312216D122702E490017DF0A330
:101A7000F07F14122AB312109AA31211AD9001062E
:101A8000E0F9A3E0FFA3120FFE12105890010B1211
:101A90000FFE1210D7900111120FFE1211E79001E4
:101AA00014120FFE1210D7900117120FFE1211E739
:101AB0001211F0E4900132F0900134120B68000032
:101AC0000000E4900138121134F0900106120FF674
:101AD000121058E4900133F09002221211F7900294
:101AE0001EF0A3F0FE7F14FD7B017A017984120BB6
:101AF000C6900123120FE690018A12114B900192B9
:101B000012119A229002CCEEF0A3EFF0E564456347
:101B1000700C9002CCE0F563A3E0F56480169002AF
:101B2000CDE02564FF9002CCE03563121201F5632D
:101B3000EF13F5640565E565D3940A400D8563618F
:101B4000856462E4F563F564F565D3E5629400E5C8
:101B5000619400405A9002CDE09562FF9002CCE083
:101B60009561FE120866C3EF940AEE64809480507B
:101B700026AE61AF627C007D03120B999002CC12FD
:101B80001030E4FCFDEB2FFFEA3E121092780212B7
:101B90000B499002CC80139002CDE02562FF9002A9
:101BA000CCE03561C313FEEF13FFEEF0A3EFF0902E
:101BB00002CCE0FEA3E0FF22022B0EE493A3F8E4A4
:101BC00093A34003F68001F208DFF48029E493A395
:101BD000F85407240CC8C333C4540F4420C88340AE
:101BE00004F456800146F6DFE4800B01020408107D
:101BF000204080902588E47E019360BCA3FF543F81
:101C000030E509541FFEE493A360010ECF54C025B4
:101C1000E060A840B8E493A3FAE493A3F8E493A3A4
:101C2000C8C582C8CAC583CAF0A3C8C582C8CAC508
:101C300083CADFE9DEE780BE30000875791B757A5C
:101C4000588006757900757AC890010B120FE6FF6F
:101C5000AEF0C3957AEE95795015900132E0602090
:101C6000900120120FE6FDC3EF9DEE95F04011901C
:101C7000021AE07002A3E0702790013204F0802085
:101C800090001BE0B420051211DF800690021A12AA
:101C9000119AE4900132F0900218F0A3F01211F0C2
:101CA000900132E06011900028E090003AB41004F6
:101CB0007410F0227420F02290022FE014601B14A4
:101CC00060432402705D900239E0B4010A90022F53
:101CD000122504D205D200C203227F02122919EF75
:101CE00060077F02120872C205900239E0703490DA
:101CF000022F7402F0D203C205C2007F03120872E1
:101D00007F030227B47F03122919EF60167F0312A5
:101D10000872900239E090022F7003F080031225C0
:101D200004C203227401F07F021208727F0212279C
:101D3000B422CDEFCD43AD105399EF439A10539B8E
:101D4000EF902EC07402F0147E00C8EDC808800524
:101D5000C333CE33CED8F9FF902EC4EEF0A3EFF00C
:101D6000902EC8EEF0A3EFF07410122BC1902EC08D
:101D7000E030E2F9902EC0E4F07402F07420122BEF
:101D8000C1902EC0E030E2F9902E00E0FEA3E0FF0B
:101D9000902EC4E4F0A3F0902EC0F0439910539A13
:101DA000EF539BEF5390EF22C10C410233004102ED
:101DB00034004102300041023800C102C101C104B7
:101DC0004102390041022F00C103C100C105410297
:101DD000D8004102D9004202D30000C106C108C1A7
:101DE000074102D5104101030041010510C10BC19B
:101DF0000A41019F0002260000047100000000411A
:101E000001041041023A00009002C47408F0A3E4F7
:101E1000F0A3743FF0A374DFF0E4FDFCF9758A10C1
:101E2000538AEF009002C4E0FEA3E02DF582EE3C61
:101E3000F583E493FF69F90DBD00010CBC37E5BDE6
:101E4000DFE29002C6122C65E493699002D6700915
:101E5000122C65A37403F08006122C65A3E4F075C0
:101E60008A50538AEF0022200A0620030330050916
:101E7000E4FFFE122230C20A22900220E07002A388
:101E8000E06005121164703A20000312299B1227AA
:101E9000027F01122AB3121D789002C4EEF0A3EF64
:101EA000F07B017A0279C412284D9002C412111DF0
:101EB000120FFE12105812122E12241812142A1287
:101EC00017CB1229D722900211E024FE6013146070
:101ED00023146027240370499002117402F0122C1D
:101EE000887F017E001222309002117403F0E4908A
:101EF0000230F0229002117404F022122498122869
:101F000005122498900171E07004A3E06401700C44
:101F1000900171F0A3F09002117402F0E490022598
:101F2000F0224389025395FD5396FD438002122B04
:101F3000FB7F0C122512CAEECACBEFCB7F0C122509
:101F400012EF2BFFEE3A9002C9F0A3EFF0122BCD67
:101F5000F91209D245F07006122BB2EE8018120960
:101F6000D2FBAAF0122BB2EF2BFFEE3AC313F9EF1C
:101F700013FF122BCDC98FF0120A3522122A30F529
:101F8000828E83A3E0B4AA031225E8122A30FF123E
:101F90002A1BE0B41008EF122A1BE4F0D20A122A1E
:101FA00030FF241B122A1DE0700DEF241C122A1D85
:101FB000E0B41003122894122A302413122A1DE0D0
:101FC000FFB410069002397401F0EFB42005E490DC
:101FD0000239F0229002C4EFF0E024BB122BDBE0C8
:101FE00060037F01229002C4E0FF24BB122BDB744C
:101FF00001F0EF122BE3E493FE740193FFE4FCFD88
:10200000902F60E0F8A3E0F9A3E0FAA3E02FFFEA45
:102010003EFEED39EC389002C4E0122BEFEEF0A357
:10202000EFF07F0022121164702990019FE070038D
:1020300012109A90019F7401F0900029E0B42008DA
:10204000122647120C478003122AE19002247401E1
:10205000F08017E490019FF0900029E0B420031273
:102060002647900224E06002E4F0022C1E9002C693
:10207000EBF0A3EAF0A3E9F0900214E07002A3E011
:102080007031900133E0602BE4900133F0122702AD
:1020900012109A7508017F01122AB3121D7890025E
:1020A000C6120FFE1210DE0508E508C3941440E6C0
:1020B0001211DF2212082EE4F5F275F30875EEFF17
:1020C00075EF3F75EA81F5F675EB0700E5EC30E753
:1020D000FBE4F5EC9002D6E0FEA3E0FF241BF582C2
:1020E000E43EF583E5F3F0EF241CF582E43EF5834E
:1020F000E5F2F075EB3022758B11902F647440F08F
:10210000E4FEE4FFEF75F003A4244DF582E434020D
:10211000F583E5822EF582E43583F583E4F00FEF55
:10212000B40AE10EEEB403DA7F099002BBE4F0A337
:10213000DFFC902F647480F022CBEFCB122BD8E021
:102140006036902F60A3A3E0FEA3E0FFEB122BEF1D
:10215000E0FCA3E0FDD39FEC9E501DC3EF9DFFEE7E
:102160009CFEEB122BE3C37401939FE4939E400803
:10217000122BD8E4F07F01227F0022758A50538A07
:10218000EF9000027411F09000017422F0900003AF
:102190007433F0E4F5AB75AC1DF5ADF5AF7589FFA3
:1021A00075913F7599FFF59675931CF59BF595F51F
:1021B00092F59A5388FCD28AD20D22300738C20792
:1021C000902E42E0FFA3E09002C6CFF0A3EFF01202
:1021D0002B651210B2900126120FFE1210DE902E07
:1021E000C07402F09002C6E0FFA3E0902E42CFF050
:1021F000A3EFF012109A2290003AE0FC900104E064
:102200006C602E90003AE0FE900104F090000BE02C
:10221000900238F0540FF0EEB42005E04420800A1C
:10222000ECB4100B900238E04410F090000BF0C2B8
:102230008A22F582E43CF583EFF022241AF582E449
:102240003EF58322A42440F582E5F0342EF5832266
:102250009002D6E0FEA3E022A3F0A37401F0A32233
:10226000746A2FF582E43400F5832200000000FF39
:10227000FFFFFF0000FFFFFFFFFFFFFFFFFF00FF6B
:10228000000000FFFF000000FFFFFFFFFFFFFF0057
:10229000000000FFFFFFFFFFFFFFFFFFFF00000048
:1022A00000121184FF74542FF582E43400F583E0AA
:1022B000FE75F002EFA42400F582E5F0342EF583DC
:1022C000E49324C0F582E4342EF583EEF00FEFB4EE
:1022D00016D3229002C9EFF0122A81E4F509900288
:1022E000C9E0FFE509C39F5007121604050980EEF7
:1022F000902EC0E4F0121C3B900106EEF0A3EFF02C
:1023000022E4F5B2F5BA758D20438D20538D7F53AD
:10231000AAF7F58BE5DB20E211200C0EE4F58A75B7
:102320008703000000758A50D20A758B11221208AB
:102330004E53A87F12295B12081E122B3A43A88025
:10234000122C829000FFE060069002117401F012DE
:102350002C3C12275C1226A680F59002D6E0FFA343
:10236000E09002DACFF0A3EFF0E4F5DA75DA40435B
:10237000DA2075D74075DA5875D90143A90875B8C0
:102380000875F8082212102353997F122A81902E83
:1023900042E4F0A374FFF0122C6E7F01121FAC43D5
:1023A00089021210294380024399802201F40028F7
:1023B000002801F4009603E801F403E817700064B4
:1023C00003E8003202580258012C01F403E82710F8
:1023D00000C89002C9E0FEA3E0FF7C007D14020962
:1023E00074902EC2F0902EC0E04419F02290012388
:1023F000E0FBA3E0FAA3E02274BB2BF582E43402F5
:10240000F5832225E024A0F582E4342BF5832225F0
:10241000E0243BF582E43402F58322902EC074025E
:10242000F0902EC77474F0902ECD74C0F0A374FF9A
:10243000F0A3F0902EC37401F0902ECAF022E5B202
:1024400030E005E5AA20E013E4900226F075B28E94
:1024500075B6F9F5B743B20143AA0122E4FF30068D
:10246000169002D6E0FCA3E0F5828C83E0FE54F0E7
:10247000FFEE540FF0C20622A3E0FCA3E02FF5828A
:10248000E43CF58322E0FEA3E0F5828E8322121065
:10249000C1E4F0A37402F0221210C17480F0A3E42E
:1024A000F022122C920228D71211F022D2AF32D28F
:1024B000AF32022C1E0000000000000000000000EF
:1024C000000000000000000000000000000000000C
:1024D00000000000000000000000000000000000FC
:1024E00000000000000000000000000000000000EC
:1024F00000000000000000000000000000000000DC
:1025000000000000000000000000000000000000CB
:1025100000000000000000000000000000000000BB
:1025200000000000000000000000000000000000AB
:10253000000000000000000000000000000000009B
:10254000000000000000000000000000000000008B
:10255000000000000000000000000000000000007B
:10256000000000000000000000000000000000006B
:10257000000000000000000000000000000000005B
:10258000000000000000000000000000000000004B
:10259000000000000000000000000000000000003B
:1025A000000000000000000000000000000000002B
:1025B000000000000000000000000000000000001B
:1025C000000000000000000000000000000000000B
:1025D00000000000000000000000000000000000FB
:1025E00000000000000000000000000000000000EB
:1025F00000000000000000000000000000000000DB
:102600000300AB66000000000000000000000000B6
:1026100000000000000000000000000000000000BA
:10262000021203030A180DA00EB60FFF0C020BFFD7
:1026300023F724062504070127082A0828022B026D
:1026400029032C032D082E082F0426080211030647
:102650000A100D400E800FFF0C020BFF23F4240420
:102660002504070127102A1028042B0429032C0312
:102670002D202E202F10262000000000000000003A
:10268000000000000000000000000000000000004A
:10269000000000000000000000000000000000003A
:1026A000000000000000000000000000000000002A
:1026B000000000000000000000000000000000001A
:1037F000000000000000000000000000000000AD1C
:1038000000000000000000000000000000000000B8
:1038100000000000000000000000000000000000A8
:00000001FF
