:100000000092000000010000CD2800000000000068
:1000100000000000000000000000000000000000E0
:100020000235EC009600960701F400023499023E76
:10003000130000020826D2AF320000020816D2AF29
:100040003200000228C1D2AF32000002081E208A0E
:1000500003020E34900182E06003020E349001EF3F
:10006000E07002A3E06003020E349001EDE0700244
:10007000A3E06003020E3490016FE07002A3E06021
:1000800003020E349000F1E064206003020E34900D
:10009000013FE0FF6003020E34EF704B900117E068
:1000A000FBA3E0FAA3E0F9121921FFAEF0900105DD
:1000B000E0FBA3E0FAA3E0F9121921D39FE5F09E3B
:1000C0004003020E347E007F0C7D007B017A0179B3
:1000D00040121B64E490017BF0A3F09001F5F0A3C3
:1000E000F09001F3F0A3F0E4F5B290017FE0FFA3FC
:1000F000E0900212CFF0A3EFF0C20B300403020D28
:10010000FF758D20438D20758D8043A808D2AF7573
:100110008B02758EC820042E9000F1E064207026BA
:10012000200923E5DB5404701D758A84200913E53A
:10013000DB5404700DF58675870300000075860199
:100140008006D20B8002D20B758B01758A1053A8E2
:10015000F7D39001EEE094909001EDE09401400E11
:10016000A3E02470F09001EDE034FEF08007E4900D
:1001700001EDF0A3F0D39001FAE094909001F9E042
:100180009401400EA3E02470F09001F9E034FEF0F9
:100190008007E49001F9F0A3F0E4900216F0A3F0D8
:1001A00012233B900165EEF0A3EFF0900169EEF0B1
:1001B000A3EFF0C3900213E09FFF900212E09EFEB7
:1001C000123E3B900214EEF0A3EFF0D39414EE94A1
:1001D00000502E900217E004F07006900216E00422
:1001E000F0D3900217E09405900216E094004002CC
:1001F000D20BD3900215E0940F900214E0940050BB
:100200009FC3900215E09414900214E09400400300
:10021000020DE2300B03020DE2900159E0FEA3E073
:10022000FF900169E0FCA3E0FD9FEC9E4053ED9F31
:10023000FFEC9EFE7C007D04121B379001AB121A6E
:10024000FAE47FB87E88FDFC9001ABE0F8A3E0F90A
:10025000A3E0FAA3E0FBD3121AD69001AB400A1236
:100260001B060000EA60020ACAE0FCA3E0FDA3E06E
:10027000FEA3E024A8FFEE3461FEE43DFDE43C80F3
:1002800062900169E0FEA3E0FFC390015AE09FFF86
:10029000900159E09EFE7C007D04121B379001AB5B
:1002A000121AFAE47FA87E61FDFC9001ABE0F8A38E
:1002B000E0F9A3E0FAA3E0FBD3121AD69001AB4019
:1002C00009121B06000000008020E0F8A3E0F9A35B
:1002D000E0FAA3E0FBC374A89BFF74619AFEE49963
:1002E000FDE498FC9001AB121AFA9001ABA3A3E0D5
:1002F000FFA3E09001A9CFF0A3EFF0900212E0FE7F
:10030000A3E0FF7C007D09121B37ECF8EDF9EEFA53
:10031000EFFB900169E0FEA3E0FFE4FCFDEB2FFFA3
:10032000EA3EFEED39FDEC38FCE47B0AFAF9F812FE
:100330001A2E900212EEF0A3EFF090013FE060035E
:10034000020BF7900108E0FBA3E0FAA3E0F9121911
:1003500021FFAEF07C007D03121B37ECF8EDF9EEC7
:10036000FAEFFB9001A9E0FEA3E0FFE4FCFDEB2F18
:10037000FFEA3EFEED39FDEC38FCE47B04FAF9F8C7
:10038000121A2E900100EEF0A3EFF0900108E0FBAE
:10039000A3E0FAA3E0F9121921FFAEF07C007D037F
:1003A000121B37ECF8EDF9EEFAEFFB900100E0FEDE
:1003B000A3E0FFE4FCFDEB2FFFEA3EFEED39FDEC90
:1003C00038FCE47B04FAF9F8121A2E900108E0FBDD
:1003D000A3E0FAA3E0F9EE8FF0121984900100E097
:1003E000F9A3E0FFA3E0FBA3E0FAA3E0C98FF012BA
:1003F0001984900105E0FBA3E0FAA3E0F9E4F5F02D
:1004000012198490010EE0FBA3E0FAA3E0F9E4F5F1
:10041000F0121984020DE2900100E0FEA3E0FF7CDF
:10042000007D03121B37ECF8EDF9EEFAEFFB9001BB
:10043000A9E0FEA3E0FFE4FCFDEB2FFFEA3EFEEDAA
:1004400039FDEC38FCE47B04FAF9F8121A2E90011D
:1004500000EEF0A3EFF0A3E0FBA3E0FAA3E0F9EED7
:100460008FF0121984900108E0FBA3E0FAA3E0F9F1
:10047000121921FFD39001AAE09F9001A9E095F005
:100480005003020DFF121921FFAEF0900102E0FBB4
:10049000A3E0FAA3E0F9121921C39FFFE5F09EFE45
:1004A000C3EF9515EE95145003020DFF900105E082
:1004B000FBA3E0FAA3E0F9121921FFAEF07C007D66
:1004C00002121B37ECC0E0EDC0E0EEC0E0EFC0E090
:1004D000900108E0FBA3E0FAA3E0F9121921FFAEB6
:1004E000F0900102E0FBA3E0FAA3E0F9121921C3A6
:1004F0009FFFE5F09EFEE4FCFDD0E0FBD0E0FAD0EB
:10050000E0F9D0E0F8EB2FFFEA3EFEED39FDEC38E4
:10051000FCE47B03FAF9F8121A2E900105E0FBA324
:10052000E0FAA3E0F9EE8FF0121984900105E0FBE8
:10053000A3E0FAA3E0F9121921D39430E5F0947501
:100540004008747575F030121984900182E07003D0
:10055000020DE2900186E0FEA3E0FFD39400EE944A
:10056000005003020DE2900105E0FBA3E0FAA3E0D6
:10057000F9121921C39FFFE5F09EFE123E3B900148
:10058000AFEEF0A3EFF0900105E0FBA3E0FAA3E0EB
:10059000F9121921FFC3900187E09F900186E09531
:1005A000F050209001B0E0940A9001AFE094004038
:1005B00012900108E0FBA3E0FAA3E0F9E475F0076C
:1005C00012194C900105E0FBA3E0FAA3E0F912191F
:1005D00021FFD3900187E09F900186E095F04022B3
:1005E000D39001B0E0940A9001AFE09400401390E2
:1005F0000108E0FBA3E0FAA3E0F974FF75F0F9123B
:10060000194C200B1AC3900215E09414900214E0C8
:100610009400500B9000F1E0642070030208DB901E
:100620000181E004F090018A121B0600000000E442
:1006300090018EF0A3F0A3F0A3F09001D4121B065A
:10064000000000009001E2121B0600000000123EB4
:1006500013123C61229001ABEFF0A3ECF0A3EDF09C
:10066000EFC454F0240CF582E43402F583E0FEA3D9
:10067000E0C39DFFEE9CFE123E3BD3EF9428EE6458
:10068000809480406C9001ABE0FBC454F02402F5F0
:1006900082E43402F583121B0600000000EBC45410
:1006A000F02406F582E43402F583E4F0A3F090012F
:1006B000ABE0FFC454F0240AF582E43402F583E48D
:1006C000F0A3F0EFC454F0240FF582E43402F58374
:1006D000E4F09001ACE0FEA3E0FF9001ABE0C45475
:1006E000F0240CF582E43402F583EEF0A3EFF08001
:1006F0006C9001ABE0C454F02408F582E43402F5B8
:1007000083E0FEA3E0FFD39400EE9400404F9001FD
:10071000ACE0FCA3E0FDD3EF9DEE9C40149001AB58
:10072000E0C454F0240FF582E43402F583E0440180
:10073000F09001ABE0FFC454F02408F582E43402E9
:10074000F583E0FAA3E0C39DEA9C5011EFC454F096
:10075000240FF582E43402F583E04402F09001AB0B
:10076000E0C454F02402F582E43402F583C083C06F
:1007700082E0F8A3E0F9A3E0FAA3E0FB9001ACE08B
:10078000FEA3E0FFE4FCFDEB2FFFEA3EFEED39FDAA
:10079000EC38FCD082D083121AFA9001ABE0FFC48F
:1007A00054F02406F582E43402F583E475F0011276
:1007B000190BEF75F007A42408F582E43408F583DB
:1007C000E493FE740193FF9001ABE0FDC454F02468
:1007D0000AF582E43402F583E0FAA3E0C39FEA9EBF
:1007E0005003021280EDC454F02406F582E4340272
:1007F000F583E0FEA3E0FBEEFAE4F9F89001ABE04C
:10080000C454F02402F582E43402F583E0FCA3E052
:10081000FDA3E0FEA3E0FF121A2E9001AE121AFA19
:100820009001AEA3A3E0FEA3E0FF9001ABE0C454AF
:10083000F02408F582E43402F583E0FCA3E0C39FD2
:10084000FFEC9EFE123E3B9001B2EEF0A3EFF09063
:1008500001ABE0FD75F007A42403F582E43408F54C
:1008600083C37401939FE4939E4031EDC454F024FC
:1008700008F582E43402F583E0FEA3E04E601D90AB
:1008800001ABE0FBC454F02410F582E43402F5839C
:10089000E0FEA3E0C394B8EE940B50479001ABE0A8
:1008A000FFC454F02408F582E43402F583E0FCA38D
:1008B000E04C7011EFC454F02410F582E43402F5DA
:1008C00083E4F0A3F09001AEA3A3E0FEA3E0FF90C9
:1008D00001ABE0C454F02408F582E43402F583EE61
:1008E0000211A3EB60030211A99001B4F09001B2D0
:1008F000E0FEA3E0FFD39450EE94004006A37408FA
:10090000F0803B9001ABE0C454F0240FF582E43456
:1009100002F583E064036026D3EF943CEE9400403C
:10092000089001B47404F08015D39001B3E09428CA
:100930009001B2E0940040069001B47402F090017E
:10094000ABE0C454F02408F582E43402F583E0FE01
:10095000A3E0FFE4FCFD9001AEE0F8A3E0F9A3E022
:10096000FAA3E0FBD3121AD6401E9001B4E0FF9028
:1009700001ABE0C454F02408F582E43402F583E4CA
:100980008FF012190B021214D39001B3E09450901F
:1009900001B2E0940050030212149001ABE0C45481
:1009A000F02408F582E43402F583C083C082E0FEBF
:1009B000A3E0FF9001B4E0FDC3EF9DFFEE9400D0F3
:1009C00082D083F0A3EFF0806B9001ABE0C454F0D1
:1009D0002408F582E43402F583E0FEA3E0FF4E70C4
:1009E000169001AEE0F8A3E0F9A3E0FAA3E0FFEA75
:1009F000FEE9FDE8FC80287C007D07121B37900192
:100A0000AEE0F8A3E0F9A3E0FAA3E02FFFEA3EFE90
:100A1000E93DFDE83CFCE47B08FAF9F8121A2E9057
:100A200001ABE0C454F02408F582E43402F583EE0F
:100A3000F0A3EFF09001ABE0FBC454F02402F58288
:100A4000E43402F583121B0600000000EBC454F0EE
:100A50002406F582E43402F583E4F0A3F09001ABC0
:100A6000E0FFC454F0240AF582E43402F583E4F094
:100A7000A3F0EFC454F0240FF582E43402F583E4CC
:100A8000F09001AEA3A3E0FEA3E0FF9001ABE0C4B1
:100A900054F0240CF582E43402F583EEF0A3EFF079
:100AA0009001ABE0C454F02408F582E43402F583ED
:100AB000E0FEA3E0FFD39400EE9400500302134B3A
:100AC0009001ADE09FFF9001ACE09EFE123E3B9096
:100AD00001ABE075F007A42405F582E43408F58342
:100AE000D37401939FE4939E402E9001ABE0FFC42A
:100AF00054F02408F582E43402F583E0FDA3E0908D
:100B000001ACCDF0A3EDF0EFC454F0240EF582E477
:100B10003402F583E4F080539001ABE0FF75F007F9
:100B2000A42407F582E43408F583E493FEEFC4546B
:100B3000F0240EF582E43402F583E0C39E502C903D
:100B400001ABE0C454F02408F582E43402F583E0FC
:100B5000FDA3E09001ACCDF0A3EDF0EFC454F02480
:100B60000EF582E43402F583E004F09001ACE0FE7F
:100B7000A3E0FF221238FE90018AE0F8A3E0F9A377
:100B8000E0FAA3E0FBE8C0E0E9C0E0EAC0E0EBC0C7
:100B9000E090011DE0FBA3E0FAA3E0F9121921FFA8
:100BA000E4FCFDD0E0FBD0E0FAD0E0F9D0E0F8EBD7
:100BB0002FFFEA35F0FEED39FDEC38FC90018A128A
:100BC0001AFA90018FE004F0700690018EE004F0B4
:100BD000C3900191E09464900190E094005003026E
:100BE000177790018AE0FCA3E0FDA3E0FEA3E0FFFD
:100BF000ECC0E0EDC0E0EEC0E0EFC0E0A3E0FEA39B
:100C0000E0FBEEFAE4F9F8D0E0FFD0E0FED0E0FD42
:100C1000D0E0FC121A2E90018A121AFA90018AA3CF
:100C2000A3E0FFA3E0900188CFF0A3EFF0A3121B95
:100C30000600000000E490018EF0A3F0A3F0A3F002
:100C40009001EDE07002A3E060030217779001923B
:100C5000E07002A3E0600302177790013FE07003A9
:100C600002158A900184E07002A3E0703890018838
:100C7000E0FFA3E0900184CFF0A3EFF0900105E046
:100C8000FBA3E0FAA3E0F9121921FF900186E5F039
:100C9000F0A3EFF09001947403F0A374E8F0E490F3
:100CA000019A02159E900182E0706890019BE070AD
:100CB00002A3E07018900105E0FBA3E0FAA3E0F9BD
:100CC000121921FF90019BE5F0F0A3EFF0900105D0
:100CD000E0FBA3E0FAA3E0F9121921FFC390019C05
:100CE000E09FFF90019BE095F0FE123E3BC3EF9426
:100CF00046EE64809480501290019AE0C394077489
:100D0000809480500EE004F08009E490019AF0A3F2
:100D1000F0A3F0900188E0FEA3E0FFC3900185E01E
:100D20009FFF900184E09EFE123E3B90019DE0FB00
:100D3000A3E0FAA3E0F9EE8FF0121984900182E0AB
:100D4000704490019DE0FBA3E0FAA3E0F9121921A1
:100D5000C3940AE5F09400501A900105E0FBA3E06B
:100D6000FAA3E0F9121921FF900186E5F0F0A3EF54
:100D7000F0801390019AE0C3940774809480400639
:100D80009001827401F0900188E0FEA3E0FFD3900F
:100D90000185E09F900184E09E4007E4900183F08C
:100DA00080219001837401F08019E4900184F0A304
:100DB000F0A3F0A3F0900182F0900196F0A3F0A3CD
:100DC000F0A3F0900182E07003021777900186E0B3
:100DD000FEA3E0FFD39400EE940050030217779037
:100DE0000105E0FBA3E0FAA3E0F9121921C39FFF7C
:100DF000E5F09EFE123E3B9001A9EEF0A3EFF090CD
:100E000001A1EEF0A3EFF0900105E0FBA3E0FAA34F
:100E1000E0F9121921FF900186E0FCA3E0FDD39FC9
:100E2000EC95F0400FD39001AAE094649001A9E002
:100E30009400501A121921FFC3ED9FEC95F0504E0B
:100E40009001AAE094FA9001A9E094004040E49057
:100E50000182F0900184F0A3F0900105E0FBA3E093
:100E6000FAA3E0F9121921FFC3900187E09F9001D6
:100E700086E095F09001925008E4F0A374C8F080E9
:100E8000077401F0A3742CF0E4900183F022900128
:100E900005E0FBA3E0FAA3E0F9121921FFD39001CA
:100EA00087E09F900186E095F04076D39001AAE01C
:100EB000941E9001A9E094004067900199E094C8C5
:100EC000900198E094005059121921C39490E5F0D4
:100ED0009401404D900108E0FBA3E0FAA3E0F9740F
:100EE000FF75F0F912194C900199E02407F0900178
:100EF00098E03400F0900196E0FEA3E0FFC394E890
:100F0000EE9403501CEF9407EE9400400DE024F99A
:100F1000F0900196E034FFF08007E4900196F0A392
:100F2000F0900105E0FBA3E0FAA3E0F9121921FF1C
:100F3000C3900187E09F900186E095F050599001A1
:100F4000AAE0941E9001A9E09400404B900108E0B3
:100F5000FBA3E0FAA3E0F9E475F00712194C900145
:100F600097E02407F0900196E03400F0900198E0BB
:100F7000FEA3E0FFC394C8EE9400501BEF9407EE6D
:100F80009400400CE024F9F0900198E034FFF02246
:100F9000E4900198F0A3F022E709F608DFFA804612
:100FA000E709F208DFFA803E88828C83E709F0A324
:100FB000DFFA8032E309F608DFFA8078E309F20805
:100FC000DFFA807088828C83E309F0A3DFFA806403
:100FD00089828A83E0A3F608DFFA805889828A83AF
:100FE000E0A3F208DFFA804C80D280FA80C680D479
:100FF000806980F28033801080A680EA809A80A881
:1010000080DA80E280CA803389828A83ECFAE493B2
:10101000A3C8C582C8CCC583CCF0A3C8C582C8CC40
:10102000C583CCDFE9DEE7800D89828A83E493A360
:10103000F608DFF9ECFAA9F0EDFB2289828A83EC4D
:10104000FAE0A3C8C582C8CCC583CCF0A3C8C582CA
:10105000C8CCC583CCDFEADEE880DB89828A83E402
:1010600093A3F208DFF980CC88F0EF60010E4E60A8
:10107000C388F0ED2402B4040050B9F582EB2402D9
:10108000B4040050AF23234582239017C873EF8D1B
:10109000F0A4A8F0CF8CF0A428CE8DF0A42EFE22D0
:1010A000BC000BBE0029EF8DF084FFADF022E4CC34
:1010B000F875F008EF2FFFEE33FEEC33FCEE9DECFD
:1010C000984005FCEE9DFE0FD5F0E9E4CEFD22ED43
:1010D000F8F5F0EE8420D21CFEADF075F008EF2F8D
:1010E000FFED33FD4007985006D5F0F222C398FD7E
:1010F0000FD5F0EA22C2D5EC30E709B2D5E4C39DA2
:10110000FDE49CFCEE30E715B2D5E4C39FFFE49EFE
:10111000FE121880C3E49DFDE49CFC80031218803D
:1011200030D507C3E49FFFE49EFE22C5F0F8A3E09C
:1011300028F0C5F0F8E582158270021583E038F0DA
:1011400022BB010A89828A83E0F5F0A3E0225006DF
:1011500087F009E71922BBFE07E3F5F009E319223E
:1011600089828A83E493F5F074019322BB01078995
:10117000828A8302190B500B09C5F027F7C5F019B5
:1011800037F722BBFE0D09F8E325F0F3C5F019E3AC
:1011900038F322F889828A8374019325F0C5F0F828
:1011A000E4933822BB010A89828A83F0E5F0A3F038
:1011B000225006F709A7F01922BBFE06F3E5F00955
:1011C000F31922E88FF0A4CC8BF0A42CFCE98EF06C
:1011D000A42CFC8AF0EDA42CFCEA8EF0A4CDA8F09F
:1011E0008BF0A42DCC3825F0FDE98FF0A42CCD3563
:1011F000F0FCEB8EF0A4FEA9F0EB8FF0A4CFC5F0CD
:101200002ECD39FEE43CFCEAA42DCE35F0FDE43CC5
:10121000FC2275F008758200EF2FFFEE33FECD3310
:10122000CDCC33CCC58233C5829BED9AEC99E58257
:1012300098400CF582EE9BFEED9AFDEC99FC0FD5E3
:10124000F0D6E4CEFBE4CDFAE4CCF9A88222B800D3
:10125000C1B90059BA002DEC8BF084CFCECDFCE59E
:10126000F0CBF97818EF2FFFEE33FEED33FDEC33C2
:10127000FCEB33FB10D703994004EB99FB0FD8E547
:10128000E4F9FA227818EF2FFFEE33FEED33FDEC90
:1012900033FCC933C910D7059BE99A4007EC9BFC86
:1012A000E99AF90FD8E0E4C9FAE4CCFB2275F01012
:1012B000EF2FFFEE33FEED33FDCC33CCC833C81037
:1012C000D7079BEC9AE899400AED9BFDEC9AFCE865
:1012D00099F80FD5F0DAE4CDFBE4CCFAE4C8F922B2
:1012E000EB9FF5F0EA9E42F0E99D42F0EC6480C885
:1012F00064809845F022EB9FF5F0EA9E42F0E99D6C
:1013000042F0E89C45F022E8600FECC313FCED13BB
:10131000FDEE13FEEF13FFD8F122ECF0A3EDF0A3E6
:10132000EEF0A3EFF022A8828583F0D083D0821262
:101330001B1D121B1D121B1D121B1DE473E493A326
:10134000C583C5F0C583C8C582C8F0A3C583C5F0F1
:10135000C583C8C582C822EC8EF0A4CCC5F0CCCD24
:10136000F8EFA4CEC5F02DFDE43CFCE8A42EC8C5E2
:10137000F03DFDE43CFCEFA4FFE5F028FEE43DFD7C
:10138000E43CFC22EF4E6012EF60010EEDBB010B5E
:1013900089828A83F0A3DFFCDEFA2289F05007F706
:1013A00009DFFCA9F022BBFEFCF309DFFCA9F02257
:1013B000D39001EEE094009001EDE0940040030230
:1013C0001F6E900108E0FBA3E0FAA3E0F9121921D7
:1013D000FFAEF0900102E0FBA3E0FAA3E0F91219DE
:1013E00021FDACF0D39FEC9E4054900108E0FBA39C
:1013F000E0FAA3E0F9121921FFC3ED9FFFEC95F08D
:10140000FED3EF9430EE9475400C9001A97475F002
:10141000A37430F08021121921FFAEF0900102E098
:10142000FBA3E0FAA3E0F9121921C39FFFE5F09EA8
:101430009001A9F0A3EFF0E49001A3021CAD90018C
:1014400002E0FBA3E0FAA3E0F9121921FFAEF0904D
:101450000108E0FBA3E0FAA3E0F9121921FDACF0CA
:10146000C39FFFEC9EFED3EF9410EE9427400C90A8
:1014700001A97427F0A37410F0801D900102E0FB15
:10148000A3E0FAA3E0F9121921FFC3ED9FFEEC954A
:10149000F09001A9F0A3CEF09001A9E0FFA3E090A5
:1014A00001A3CFF0A3EFF0300018D3E0942C90010B
:1014B000A3E0940140139001A57427F0A37410F0E9
:1014C0008007E49001A5F0A3F0E49001A9F0A3F057
:1014D00090013FE0605B9001A9E0FEA3E0FFD394A0
:1014E00000EE648094804014D3EF9509EE95084097
:1014F0000B9001F3E4F0A37464F08027D39001F41F
:10150000E094009001F3E094004018900105E0FBA6
:10151000A3E0FAA3E0F9121921FF9001A9E5F0F088
:10152000A3EFF0D2089001F9740FF0A374A0F0803B
:101530000F9001F77403F0A374E8F0E4FF123BE0AE
:10154000D39001AAE094009001A9E06480948050B7
:1015500003021F19E0F9A3E0FF900105E0FBA3E0FF
:10156000FAA3E0C98FF01219849001A9E0FEA3E06C
:10157000FFEE3395E0FDFCE47BB87A88F9F8C312FE
:101580001AC0500A9001A97488F0A374B8F0D390DF
:1015900001F6E094009001F5E0940050089000F10D
:1015A000E0642070229001A9E0FEA3E0FFC39464F0
:1015B000EE648094805010EF9400EE64809480403C
:1015C000447C007D0A803330003B90013FE0701680
:1015D0009001A9E0FEA3E0FFC39515EE95145025F8
:1015E0007C027DBC80149001A9E0FEA3E0FFC395BE
:1015F00009EE9508500F7C027DBC1218D59001A908
:10160000EEF0A3EFF090013FE07003021E8F900117
:10161000F7E07002A3E070199001A9E0FEA3E0FDDD
:10162000EEFCE4FF120E359001A9EEF0A3EFF0807E
:101630003E9001A9E0FEA3E0FFC3900136E09FFFCA
:10164000900135E09EFE123E3BD3EF9428EE64807D
:101650009480401BD39001F8E094C89001F7E09487
:1016600000400CA3E0249CF09001F7E034FFF090E0
:101670000135E0FEA3E0FF7C007D07121B37ECF88C
:10168000EDF9EEFAEFFB9001A9E0FEA3E0FFEE33E7
:1016900095E0FDFCEB2FFFEA3EFEE93DFDE83CFC5A
:1016A000E47B08FAF9F8121A2E900135EE800B90BF
:1016B00001A9E0FFA3E0900135CFF0A3EFF0900186
:1016C00035E0FEA3E0FFD39405EE9400400EEF94C6
:1016D00010EE940050069001A9EE8016900131E0C2
:1016E000FEA3E0FF900136E02FFF900135E03E9031
:1016F00001A9F0A3EFF0D39001AAE094309001A9E2
:10170000E0648094F540077475F0A37430F0E5DB75
:101710005404707A9001A9E0F9A3E0FF90010EE073
:10172000FBA3E0FAA3E0C98FF01219849001AAE0AC
:1017300024A8FF9001A9E08042E5DB5404704F909B
:101740000105E0FBA3E0FAA3E0F9E4F5F012198447
:10175000900131E0F9A3E0FF90010EE0FBA3E0FA75
:10176000A3E0C98FF012198490010EE0FBA3E0FA08
:10177000A3E0F912192124A8FFE5F03461F99001E2
:101780000BE0FBA3E0FAA3E0C98FF01219842290CA
:1017900001BEECF0A3EDF09001BDEFF075F00EA4EA
:1017A00024D8F582E43401F583E0704E9001BDE069
:1017B00075F00EA424D4F582E43401F583E0FCA393
:1017C000E0FDA3E0FEA3E0FFE4FBFAF9F8C3121A80
:1017D000D660279001BDE075F00EA424D0F582E418
:1017E0003401F583E0FCA3E0FDA3E0FEA3E0FFE409
:1017F000F8C3121AD660030220EB9001C0A3A3E045
:10180000FEA3E0FFC39001BFE09FFF9001BEE09EFA
:10181000FE123E3B9001BDE0FD75F00EA424D9F50B
:1018200082E43401F583EEF0A3EFF0ED75F00EA441
:1018300024D8F582E43401F583E06041ED75F005CC
:10184000A4244AF582E4343EF583E493FE740193C4
:10185000FFED75F00EA424D9F582E43401F583E0A0
:10186000FCA3E0D39FEC9E40149001BDE075F00E08
:10187000A424D8F582E43401F5837405F09001C006
:10188000E0FCA3E0FDA3E0FEA3E0FF9001BDE0FBD0
:1018900075F00EA424D4F582E43401F583121AFA0B
:1018A000EB75F00EA424DCF582E43401F583E0FE50
:1018B000A3E0FFE4FCFD9001C0E0F8A3E0F9A3E0A1
:1018C000FAA3E0FB1219A39001BDE0FB75F00EA492
:1018D00024D0F582E43401F583121AFAEB75F00E88
:1018E000A424D8F582E43401F583E0D39400748015
:1018F00094804011EB75F00EA424D8F582E43401F5
:10190000F583E014F09001C00223339001BDE0FBA9
:1019100075F00EA424D4F582E43401F583E0FCA331
:10192000E0FDA3E0FEA3E0FF9001C4121AFAEB75FC
:10193000F00EA424D0F582E43401F583E0FCA3E0AA
:10194000FDA3E0FEA3E0FF9001C8121AFA9001C8BF
:10195000E0FCA3E0FDA3E0FEA3E0FF9001BDE07585
:10196000F00EA424DBF582E43401F583E0F9F812EB
:101970001AE7EFFBEEFAEDF9ECF89001C8E0FCA3F2
:10198000E0FDA3E0FEA3E0C39BFFEE9AFEED99FD10
:10199000EC98FCA3121AFA9001C4E0FCA3E0FDA3AA
:1019A000E0FEA3E0FF9001C0E0F8A3E0F9A3E0FAB5
:1019B000A3E02FFFEA3EFEE93DFDE83CFC9001CCB0
:1019C000E0F8A3E0F9A3E0FAA3E02FFFEA3EFEE986
:1019D0003DFDE83CFC9001C8121AFA9001C0E0FC01
:1019E000A3E0FDA3E0FEA3E0FF9001BDE0FB75F0E6
:1019F0000EA424D4F582E43401F583121AFA90017E
:101A0000C8E0FCA3E0FDA3E0FEA3E0FFEB75F00E51
:101A1000A424D0F582E43401F583121AFA9001C8A7
:101A2000E0FCA3E0FDA3E0FEA3E0FFECC0E0EDC01E
:101A3000E0EEC0E0EFC0E09001BDE075F00EA42440
:101A4000DCF582E43401F583E0FEA3E0FBEEFAE48A
:101A5000F9F8D0E0FFD0E0FED0E0FDD0E0FC121AB3
:101A60002E9001C8121AFA9001C0A3A3E0FEA3E0D1
:101A7000FBEEFA9001C8A3A3E0FEA3E0C39BFFEE38
:101A80009AFE123E3B9001BDE0FD75F00EA424D9F4
:101A9000F582E43401F583EEF0A3EFF0ED75F00587
:101AA000A42448F582E4343EF583E493FE74019364
:101AB000FFED75F00EA424D9F582E43401F583E03E
:101AC000FCA3E0D39FEC9E50030223309001C0E0C2
:101AD000FCA3E0FDA3E0FEA3E0FF9001BDE0FB75E9
:101AE000F00EA424D4F582E43401F583121AFAEB43
:101AF00075F00EA424DCF582E43401F583E0FEA346
:101B0000E0FFE4FCFD9001C0E0F8A3E0F9A3E0FAF7
:101B1000A3E0FB1219A39001BDE0FB75F00EA42415
:101B2000D0F582E43401F583121AFAEB75F00EA4B5
:101B300024D8F582E43401F5837405F09001C0E007
:101B4000FCA3E0FDA3E0FEA3E0FF9001C8121AFA97
:101B50009001C8A3A3E0FEA3E0FF227F01123AA7F1
:101B6000123CD4758A50902E207419F0902E20E0EB
:101B700030E2F9903E5AE49375F002A42400F58215
:101B8000E5F0342EF583E0FFA3E09001B7CFF0A39A
:101B9000EFF0902E20E4F0758A107F01123D069040
:101BA000015FE0FEA3E0FF4E700E9001B7E0FCA3E2
:101BB000E0FDECFEEDFF801E7C007D0312186E90B0
:101BC00001B8E02FFF9001B7E03EFE7802EFCEC3F0
:101BD00013CE13D8F9FF90015FEEF0A3EFF0900160
:101BE0005BE07002A3E0700F90015FE0FFA3E09064
:101BF000015BCFF0A3EFF09001B9121B06000027A4
:101C000010E4FF123AA7E49001B4F09001B4E0C3ED
:101C10009409748094804003022507E4FF123CD4A9
:101C2000758A50902E207419F0902E20E030E2F941
:101C3000903E59E49375F002A42400F582E5F03457
:101C40002EF583E0FFA3E09001B5CFF0A3EFF09075
:101C50002E20E4F0758A10FF123D069001B5E0FEDB
:101C6000A3E0FF90016BEEF0A3EFF090015BE0FCCE
:101C7000A3E0FDEF2DFFEE3CFE90015FE0FCA3E052
:101C8000FDC3EF9DFFEE9C9001B5F0A3EFF0900136
:101C90005DE0FEA3E0FF4E700E9001B5E0FCA3E016
:101CA000FDECFEEDFF801E7802EFC333CE33CED8BD
:101CB000F9FF9001B6E02FFF9001B5E03EFE7C00F9
:101CC0007D0512188090015DEEF0A3EFF0E4FCFDBD
:101CD0009001C0121AFA900161E0FCA3E0FDE4FF5C
:101CE000121F6F900161EEF0A3EFF09001B9E0F8E0
:101CF000A3E0F9A3E0FAA3E0FB900161E0FEA3E01A
:101D00002400FFEE34F8FE3395E0FDFCEB2FFFEAF4
:101D10003EFEE93DFDE83CFC9001B9121AFA900143
:101D2000B4E004F00223EB902E23E4F07F507EC356
:101D3000FDFC9001B9E0F8A3E0F9A3E0FAA3E0FB11
:101D4000D3121AC0400A9001B9121B060000C350FA
:101D50009001B9E0FCA3E0FDA3E0FEA3E0FFEC33BB
:101D6000500A9001B9121B0600000000900167E0C4
:101D7000FAA3E0FB4A700C9001B9A3A3E0FEA3E034
:101D8000FF80347E007F02EBFDEAFC121B37ECF88B
:101D9000EDF9EEFAEFFB9001B9E0FCA3E0FDA3E062
:101DA000FEA3E02BFFEA3EFEE93DFDE83CFCE47BC0
:101DB00003FAF9F8121A2E900167EEF0A3EFF090F3
:101DC0000159E07002A3E0700F900167E0FFA3E00B
:101DD000900159CFF0A3EFF0900127E0F8A3E0F9CC
:101DE000A3E0FAA3E0FB900161E0FEA3E0FFE4FCC6
:101DF000FDEB2FFFEA3EFEED39FDEC38FC900127AC
:101E0000121AFA90012CE004F0700690012BE00405
:101E1000F090012BE0FEA3E0FFD3940AEE94004083
:101E200031EFFBEEFAE4F9F8900127E0FCA3E0FDC6
:101E3000A3E0FEA3E0FF121A2E900125EEF0A3EF1F
:101E4000F0E490012BF0A3F0900127121B06000094
:101E5000000090012DE07002A3E07040900125E0A9
:101E6000FEA3E0FFC3900162E09FFF900161E09E4E
:101E7000FE123E3B900123EEF0A3EFF0D39406EE6A
:101E80009400401890012D7403F0A374E8F09001C1
:101E900030E004F0700690012FE004F0900167E05C
:101EA000FEA3E0FF229001A97403F0A374E8F0D32D
:101EB0009001A8E094009001A7E0940040219001D7
:101EC00002E0FBA3E0FAA3E0F9121921FF90010858
:101ED000E0FBA3E0FAA3E0F9E5F08FF0121984909B
:101EE00001EDE07002A3E0600B9001A9E4F0A3749F
:101EF00064F0800B90001AE0641170037420F0907D
:101F0000013FE0600F7E007F0C7D007B017A01794C
:101F100040021B64900140E0F8A3E0F9A3E0FAA3BB
:101F2000E0FBE8C0E0E9C0E0EAC0E0EBC0E090011F
:101F300002E0FBA3E0FAA3E0F9121921FFE4FCFDA3
:101F4000D0E0FBD0E0FAD0E0F9D0E0F8EB2FFFEAE8
:101F500035F0FEED39FDEC38FC900140121AFA9094
:101F60000145E004F07006900144E004F09001A9FE
:101F7000E0FEA3E0FFC390014BE09F90014AE09E8A
:101F800050030228C0900140E0FCA3E0FDA3E0FE66
:101F9000A3E0FFECC0E0EDC0E0EEC0E0EFC0E0A3E6
:101FA000E0FEA3E0FBEEFAE4F9F8D0E0FFD0E0FEBB
:101FB000D0E0FDD0E0FC121A2E900140121AFA90E7
:101FC0000108E0FBA3E0FAA3E0F9121921241EFFA7
:101FD000E435F0FEE4FCFD900140E0F8A3E0F9A355
:101FE000E0FAA3E0FBD3121AD65003022886900130
:101FF000EDE07002A3E060030228863008030228A7
:1020000086900108E0FBA3E0FAA3E0F9121921FB96
:10201000900140A3A3E0FEA3E0C39BFFEE95F090E8
:1020200001ABF0A3EFF0900147E004F070069001DF
:1020300046E004F0D3900147E09401900146E0941B
:102040000040229001ABE0FEA3E0FF900149E09F39
:10205000900148E09E500E900147E024FFF090016F
:1020600046E034FFF09001ABE0FFA3E0900148CFE1
:10207000F0A3EFF0D3900147E09405900146E0947F
:10208000004046900140A3A3E0F9A3E0FF900108BF
:10209000E0FBA3E0FAA3E0C98FF0121984E49001F9
:1020A00046F0A3F08023900140A3A3E0F9A3E0FF52
:1020B000900108E0FBA3E0FAA3E0C98FF0121984B5
:1020C000E4900146F0A3F0C208900140121B060004
:1020D000000000E4900144F0A3F090014AF0A3F066
:1020E00022C0E0C083C082C0D0D2AFD39001EEE066
:1020F00094009001EDE09400400CA3E024FFF090E8
:1021000001EDE034FFF0D39001F2E094009001F192
:10211000E09400400EA3E024FFF09001F1E034FFD2
:10212000F08002D28AD39001F0E094009001EFE0B9
:102130009400400CA3E024FFF09001EFE034FFF0A6
:10214000C390014BE094E890014AE09403500CA343
:10215000E004F0700690014AE004F0D39001F4E04E
:1021600094009001F3E09400400CA3E024FFF09071
:1021700001F3E034FFF0D39001F6E094009001F514
:10218000E09400400CA3E024FFF09001F5E034FF60
:10219000F0D39001FCE094009001FBE09400400C2F
:1021A000A3E024FFF09001FBE034FFF0D39001F8AE
:1021B000E094009001F7E09400400CA3E024FFF0CD
:1021C0009001F7E034FFF0D39001FAE09400900121
:1021D000F9E09400400CA3E024FFF09001F9E03412
:1021E000FFF0D39001A6E094009001A5E094004098
:1021F0000CA3E024FFF09001A5E034FFF0D39001A0
:10220000FEE094009001FDE09400400CA3E024FF68
:10221000F09001FDE034FFF0C3900191E0946490F0
:102220000190E09400500CA3E004F070069001903F
:10223000E004F0D3900193E09400900192E09400C8
:10224000400CA3E024FFF0900192E034FFF0D39023
:102250000195E09401900194E09400400CA3E024E7
:10226000FFF0900194E034FFF0D3900170E094010E
:1022700090016FE09400400CA3E024FFF090016F08
:10228000E034FFF0D39001A8E094009001A7E0941F
:1022900000400CA3E024FFF09001A7E034FFF0C35E
:1022A000900211E094B8900210E0940B500CA3E05F
:1022B00004F07006900210E004F0C390020BE0946A
:1022C000F490020AE09401500CA3E004F070069030
:1022D000020AE004F0D390012EE0940090012DE07A
:1022E0009400400CA3E024FFF090012DE034FFF0B7
:1022F000D0D0D082D083D0E032D39001EEE09F9056
:1023000001EDE09E400AA3E09FF09001EDE09EF019
:10231000D39001F2E09F9001F1E09E400CA3E09F7A
:10232000F09001F1E09EF08002D28AD39001F0E0BB
:102330009F9001EFE09E400AA3E09FF09001EFE044
:102340009EF0C390014BE094E890014AE094035062
:102350000AA3E02FF090014AE03EF0D39001F4E0B0
:102360009F9001F3E09E400AA3E09FF09001F3E00C
:102370009EF0D39001F6E09F9001F5E09E400AA305
:10238000E09FF09001F5E09EF0D39001FCE09F907B
:1023900001FBE09E400AA3E09FF09001FBE09EF06D
:1023A000D39001F8E09F9001F7E09E400AA3E09FE0
:1023B000F09001F7E09EF0D39001FAE09F9001F9D0
:1023C000E09E400AA3E09FF09001F9E09EF0D390D8
:1023D00001A6E09F9001A5E09E400AA3E09FF09037
:1023E00001A5E09EF0D39001FEE09F9001FDE09EEC
:1023F000400AA3E09FF09001FDE09EF0C3900191A0
:10240000E09464900190E09400500AA3E02FF090D3
:102410000190E03EF0D3900193E09F900192E09E06
:10242000400AA3E09FF0900192E09EF0EF2401FDAE
:10243000E43EFCD3900195E09D900194E09C400A1D
:10244000A3E09FF0900194E09EF0EF2401FDE43EB4
:10245000FCD3900170E09D90016FE09C400AA3E0E6
:102460009FF090016FE09EF0D39001A8E09F900153
:10247000A7E09E400AA3E09FF09001A7E09EF0C372
:10248000900211E094B8900210E0940B500AA3E07F
:102490002FF0900210E03EF0C390020BE094F49015
:1024A000020AE09401500AA3E02FF090020AE03EF5
:1024B000F0D390012EE09F90012DE09E400AA3E012
:1024C0009FF090012DE09EF022E4F526F525F524FD
:1024D000F523F526F525F524F523F522C3E5229409
:1024E00004748094805027E52225E0240AF8E6FE53
:1024F00008E6FFE4FCFDE5262FF526E5253EF5255B
:10250000ED3524F524EC3523F523052280CEE47B3C
:1025100004FAF9F8AF26AE25AD24AC23121A2E909A
:10252000017FEEF0A3EFF0E47526A8752561F52490
:10253000F523F522C3E5229404748094805073E55A
:102540002225E0240AF8E6FE08E6FF90017FE0FC81
:10255000A3E0FDC3EF9DFFEE9CFE123E3BD3EF9444
:102560000AEE64809480401290017FE0FEA3E0FFB9
:10257000900159E0FCA3E0FD8015E52225E0240A46
:10258000F8E6FE08E6FF900159E0FCA3E0FDC3EF8A
:102590009DFFEE9CFE3395E0FDFCE5262FF526E53C
:1025A000253EF525E5243DF524E5233CF5230522CC
:1025B0008082E47F607EEAFDFCAB26AA25A924A8E0
:1025C00023D3121AD6400BE47526607525EAF5244C
:1025D000F523AE25AF2622758A10538AEFE4F586DF
:1025E000758F04F5ABF5AC43AC0C7580FF7588FFB7
:1025F0007589FF759104F595F592D28A2200000045
:102600000101AB9274AA7583F5758255A574557551
:1026100083FA7582AAA574A57583F5758255A522DE
:1026200002010AB00BB60CFF090208FF0DF70E03FA
:10263000130714101080019212070E110F040404E6
:10264000010111121212111103028090017BE0FEB0
:10265000A3E0FFC39404EE9400502F900100E0FC2F
:10266000A3E0FDEF25E0FFEE33FE74732FF58274D7
:10267000013EF583ECF0A3EDF090017CE004F070F6
:102680000690017BE004F0022F329001B67401F055
:102690009001B6E0FFC3940474809480502AEF2523
:1026A000E02473F582E43401F583E0FCA3E0FDEF60
:1026B00025E02471F582E43401F583ECF0A3EDF01C
:1026C0009001B6E004F080C890013FE060028073A2
:1026D000900102E0FBA3E0FAA3E0F9121921FF90B8
:1026E0000100E0FCA3E0FDC3EF9DFFE5F09CFE12BE
:1026F0003E3BC3EF9428EE648094805046900108DE
:10270000E0FBA3E0FAA3E0F9121921FFC390010155
:10271000E09FFF900100E095F0FE123E3BC3EF9476
:1027200014EE6480948050059001088003900102AB
:10273000E0FBA3E0FAA3E0F9121921FF900179E58B
:10274000F0800B900100E0FFA3E0900179CFF0A3AF
:10275000EFF09001B2121B0600000000E49001B6F9
:10276000F09001B6E0FFD390017CE09F90017BE008
:102770009400403D9001B2E0F8A3E0F9A3E0FAA391
:10278000E0FBA3E025E02473F582E43401F583E067
:10279000FEA3E0FFE4FCFDEB2FFFEA3EFEED39FD7A
:1027A000EC38FC9001B2121AFA9001B6E004F08005
:1027B000B09001B2E0FCA3E0FDA3E0FEA3E0FFECDB
:1027C000C0E0EDC0E0EEC0E0EFC0E090017BE0FED5
:1027D000A3E0FBEEFAE4F9F8D0E0FFD0E0FED0E0B1
:1027E000FDD0E0FC121A2E9001B2121AFA9001B23A
:1027F000A3A3E0FEA3E0FF227E007FFF7D007B011C
:102800007A007900121B647E007FA97D007B017A2B
:10281000017900121B647E007F147D007B017A0128
:1028200079EC121B64902DE0E493900001F090008D
:10283000047411F0A37422F0A37433F0902DE2E439
:1028400093900012F0902DE3E493900014F0900028
:10285000FB7401F09000367410F09000F1F09000DD
:1028600024F0A37420F09001027401F0A37400F02E
:10287000A37440F09001087401F0A37400F0A374F5
:1028800044F09001057401F0A37400F0A37442F0C9
:1028900090010B7401F0A37400F0A3742EF0A374E4
:1028A00001F0A37400F0A3742AF0A37401F0A374E0
:1028B00000F0A37428F09001207401F0A37400F0DC
:1028C000A37490F090011D7401F0A37400F0A37440
:1028D00022F090019D7401F0A37400F0A37480F0C5
:1028E00090013C7401F0A37400F0A37418F09001FF
:1028F000397401F0A37400F0A3741BF090011474F8
:1029000001F0A37400F0A37432F0A37401F0A37477
:1029100000F0A37426F0A37401F0A37400F0A37474
:1029200034F0900114E0FBA3E0FAA3E0F9E475F0C1
:10293000C8121984900117E0FBA3E0FAA3E0F9E4C0
:1029400075F06412198490011AE0FBA3E0FAA3E089
:10295000F9E475F0961219847514007515C8750898
:10296000007509969001ED7407F0A374D0F0E4901F
:1029700001ECF0229001ACEFF0902E22E0FF9001EC
:10298000B0E4F0A3EFF0758A50902E227401F0901D
:1029900001ACE075F002A42410F582E5F0342EF5C8
:1029A000837402F0A3E4F09001ADF09001ADE0FF7C
:1029B000C3940C7480948040030232BEEFF87E0111
:1029C000E4088006CEA2E713CE13D8F8FF9001AE3C
:1029D000EEF0A3EFF04E70079001AEF0A304F0907C
:1029E0002E207419F0902E20E030E2F99001ACE036
:1029F000FF75F002A42400F582E5F0342EF583E0A3
:102A0000FCA3E0D394FFEC9407405975F002EFA4C7
:102A10002410F582E5F0342EF583E0FEA3E0FF906C
:102A200001AEE0FCA3E0FDEF2DFFEE3CFEC3EF9412
:102A3000FFEE94039001ACE075F0025013A4241053
:102A4000F582E5F0342EF583EC8DF012190B807EC3
:102A5000A42410F582E5F0342EF5837403F0A374FA
:102A6000FFF0806A9001ACE0FF75F002A42410F53D
:102A700082E5F0342EF583E0FCA3E0FD9001AEE0AA
:102A8000FAA3E0FBD3ED9BEC9A402D75F002EFA486
:102A90002410F582E5F0342EF583C083C082C3A3F1
:102AA000E09BFF0582D5820215831582E09AD082D1
:102AB000D083F0A3EFF080169001ACE075F002A493
:102AC0002410F582E5F0342EF583E4F0A3F0902E87
:102AD00020E4F0F58D9001ADE004F002318B90011F
:102AE000B0A3E0902E22F0758A1022123972123DA6
:102AF000D9E490017BF0A3F0900167F0A3F090017E
:102B000065F0A3F0900169F0A3F07F041237009004
:102B10000100E0F9A3E0FFA3E0FBA3E0FAA3E0C912
:102B20008FF0121984900100E0F9A3E0FF900108F2
:102B3000E0FBA3E0FAA3E0C98FF01219849001052D
:102B4000E0FBA3E0FAA3E0F9E4F5F01219849001A8
:102B50000BE0FBA3E0FAA3E0F9746175F0A8121989
:102B600084900111E0FBA3E0FAA3E0F9746175F031
:102B7000A812198490010EE0FBA3E0FAA3E0F9E4A7
:102B8000F5F0121984E4900137F0A3F090013FF0C2
:102B9000FE7F1BFD7B017A017982121B647E007F20
:102BA0000C7D007B017A017940121B64E49001FBEB
:102BB000F0A3F09001F9F0A3F09000367410F0E467
:102BC00090004BF09001EF7403F0A37420F090019B
:102BD000FFE0700FC39001EEE094F49001EDE094FB
:102BE00001500A9001ED7401F0A374F4F022D39027
:102BF00001EEE094009001EDE0940040030234986F
:102C00003000209001A5E07002A3E0600875141F59
:102C100075154080067514177515707508137509BC
:102C200088800C7514007515C87508007509969094
:102C30000105E0FBA3E0FAA3E0F9121921FFAEF0D1
:102C4000C39515EE9514500F90013FE0601AC3EF45
:102C50009509EE950840119001F5E07002A3E0702F
:102C60002E90013F04F080279000F1E06420900155
:102C7000F57005F0A3F08006E4F0A374C8F0E490CA
:102C8000013FF09001F3F0A3F09000367410F09043
:102C9000013FE0FF601D900024E06410900036705A
:102CA000057410F080037420F09001EF7403F0A31A
:102CB0007420F090004BEFF022C0E0C083C082C0CF
:102CC000D075D018D2AFE5DB30E424D209C206E5D6
:102CD000DB30E116123E2FF583E0F5DFEF6407707D
:102CE00067D28A900007F002354DC205023550E5E3
:102CF000DB30E52C9000F0E064AA7017758A10F5BF
:102D0000DAC2AFF5B2F5A8F5A9F58B758E01758D10
:102D1000C080FED204300604C2068054C20980502E
:102D2000C206E5DB30E123E5DB30E044123E2FF55F
:102D300083E0F5DFEF24F9600824EE700BD20A80FF
:102D400007D28A900007E4F0802320050A7816A6AF
:102D5000DFD205D2068019123E2FF583E5DFF0EFB2
:102D6000642470099001EF04F0A374F4F07816065F
:102D700075DBFFD0D0D082D083D0E032900139E033
:102D8000FBA3E0FAA3E0F9121921641045F07003E7
:102D9000123B00900001E064AA7003123A479000D1
:102DA00013E0FF7E0064107002D203EF64204E70C7
:102DB00002C20312380320070890001AE064107062
:102DC0000E90001A7411F0C2079001EC7401F0909B
:102DD00000FBE06006E4F09001ECF090016FE07021
:102DE00004A3E06401701590016FF0A3F09001A7B7
:102DF0007407F0A374D0F0E49001ECF030040CC23E
:102E0000049001EF7401F0A374F4F022787FE4F6EB
:102E1000D8FD758126023636020000023783E4931E
:102E2000A3F8E493A34003F68001F208DFF48029BD
:102E3000E493A3F85407240CC8C333C4540F4420AC
:102E4000C8834004F456800146F6DFE4800B01029B
:102E5000040810204080903D63E47E019360BCA391
:102E6000FF543F30E509541FFEE493A360010ECFE9
:102E700054C025E060A840B8E493A3FAE493A3F813
:102E8000E493A3C8C582C8CAC583CAF0A3C8C582D3
:102E9000C8CAC583CADFE9DEE780BE90014C74155D
:102EA000F0A374E0F0123C217E007F047D007B01E2
:102EB0007A017959121B647F01123DB5E4FF123D7E
:102EC000B5902E12E0FEA3E0C39405EE9400400FEF
:102ED000902E12E0FEA3E0D394F0EE9403400BE4B6
:102EE00090014CF0A3F0FF123DB5902E23E4F0903A
:102EF000001D7410F0902E12E0FEA3E0FF7C007D18
:102F00000A12186E90014DE02FFF90014CE03EF93F
:102F100090013CE0FBA3E0FAA3E0C98FF002198422
:102F20009001B2EFF0E4A3F09001B2E0FFA3E0C3A0
:102F30009F502E12233B123D8F900169EEF0A3EFBC
:102F4000F08E12F513C8740AC87400FCE4FDFB7A15
:102F500000790CFE7F081218489001B3E004F0805D
:102F6000C7122CA9900100EEF0A3EFF0900167E0EA
:102F7000FEA3E0FFC3900134E09FFF900133E09E89
:102F8000FE123E3B7C007D051218D5900131ECF01D
:102F9000A3EDF0900167E0FFA3E0900133CFF0A331
:102FA000EFF02253A87F122DB7122FD8123DF7123F
:102FB000080E43A880E4F58D9000F17420F01235DE
:102FC0005C9001ECE014601814601A14602D146019
:102FD0003F240470E012367B9001EC7401F080D540
:102FE0001232CB8023123D35123882900025E064E6
:102FF0001070C29001EC7404F080BA12082E900197
:10300000EF7403F0A37420F09001EC7402F080A53B
:10301000123B98900025E06410609A9001EC7401D6
:10302000F08092900200E01460211460432402704A
:10303000603003139002007401F0D202D2009001BC
:10304000FD04F0A37458F0C20180469001FDE070C9
:1030500002A3E07002C2022003379002007402F063
:10306000D201C202C2009001FDF0A37458F0802189
:103070009001FDE07002A3E07017900200200303AE
:10308000F0800C7401F09001FD04F0A37458F0C2BC
:103090000120010330020A900025E064106002D292
:1030A0000722308A789001EDE07002A3E0706E9004
:1030B000016FE07002A3E07064F5B2758D20438D5E
:1030C00020758D9043A808D2AF758B4090012DE0FC
:1030D000FEA3E0FF4E6005758E148003758E4020C0
:1030E000042F20092CE5DB54047026758A842009FE
:1030F00020E5DB5404701AF586758703000000751F
:103100008601EF4E60047F0A80027F207E00122A33
:10311000D9758B01758A1053A8F7123E1322758D4D
:1031200020438D20538D7FE4F5B275B6FF75B7FF50
:1031300075B2A243B20153A8FB538B7F758B10432A
:103140008B08E58B20E7030080F8538B7F758B118C
:10315000438B08E58B20E7030080F890021BE5B560
:10316000F0A3E5B4F0758B01E4F5B2123E13E4F57B
:103170008D900218E0FBA3E0FAA3E0F9121921FFF9
:1031800090011DE0FBA3E0FAA3E0F9E5F08FF00267
:1031900019847E007F1C7D007B017A0179D0121B8F
:1031A00064E4FDEDC39402748094805057ED75F093
:1031B00005A42447F582E4343EF583E493FFED75DE
:1031C000F00EA424DBF582E43401F583EFF0ED7515
:1031D000F00EA424DBF582E43401F583E004F87EEC
:1031E000007401088005C333CE33CED8F9FFED75E6
:1031F000F00EA424DCF582E43401F583EEF0A3EFB5
:10320000F00D809F22300A5E20005BC20A902E12D1
:10321000E0FFA3E09001A9CFF0A3EFF0E4FF123D9F
:10322000B5902E12E0FEA3E0FF7C007D0A12186E1E
:1032300090014DE02FFF90014CE03EFE90013CE0FC
:10324000FBA3E0FAA3E0F9EE8FF01219849001A934
:10325000E0FFA3E0902E12CFF0A3EFF09001EF7407
:1032600003F0A37420F0229001A97408F0A3E4F005
:10327000A3743FF0A374DFF0E4FDFCF9758A1053EA
:103280008AEF009001A9E0FEA3E02DF582EE3CF567
:1032900083E493FF69F90DBD00010CBC37E5BDDF88
:1032A000E29001ABE0FEA3E0F5828E83E493FFE9B8
:1032B0006F700790000104F08005E4900001F07544
:1032C0008A10538AEF0022E4FEEEC39407748094C0
:1032D000805039EE75F003A42417F582E4342EF5FE
:1032E00083E5822FF582E43583F583E493FDEE7563
:1032F000F003A42416F582E4342EF583E49324200D
:10330000F582E4342EF583EDF00E80BDEF70109061
:10331000014CE07002A3E07006902E217412F0229E
:10332000E49001A9F0A3F0758A10538AEF00122DE2
:10333000E475EA81E4F5F6F5F475F308F5F275EB5A
:103340000700E5EC30E7FBAFF3EFFEADF2EDFF90E9
:103350000139E0FBA3E0FAA3E0F9EE8FF012198443
:10336000E4F5EC75EB30758A10538AEF002290007B
:1033700036E0FF9000FFE06F603D900036E0FD908A
:1033800000FFF0900007E0900201F0540FF0ED7E96
:103390000064207005E04420800CEF64104E700B38
:1033A000900201E04410F0900007F0C28A9001F111
:1033B0007403F0A374E8F022900025E06410703FDD
:1033C000F5B2758D20438D20538D7F53A8F7F58B73
:1033D000E5DB54047013200910F58AF58675870320
:1033E000000000758601758A10758B019001FF74CD
:1033F00001F09001EF7403F0A37420F0123E132249
:103400009001ABEFF07E007F10EEC0E0EFC0E07DFA
:1034100000E075F010A42402F9740235F0FA7B0183
:10342000D0E0FFD0E0FE121B649001ABE0C454F08A
:103430002410F582E43402F583740BF0A374B8F021
:1034400022E4FFEFC3940B74809480502BEF25E0AF
:103450002401F582E4342EF583E493FEEF25E02485
:1034600000F582E4342EF583E4932420F582E434DD
:103470002EF583EEF00F80CB902F56E0902E2BF0A0
:10348000229001B17401F09001B1E0C39404748002
:10349000948050217F01123700122E2B900102E000
:1034A000FBA3E0FAA3E0F9EE8FF01219849001B1CA
:1034B000E004F080D2E49001F5F0A3F02290015AEC
:1034C000E0246CFF900159E034EEFEC3900168E007
:1034D0009F900167E09E501490016FE07002A3E09E
:1034E000701190016F04F0A374F4F022E490016F66
:1034F000F0A3F022EF903E5993903E5193FE540F6B
:10350000FDF87401088002C333D8FCFDEE54F0606E
:1035100008EDF4529152938009ED42ABEDF45289DB
:1035200052965389FD22EF903E5993903E5193FE5F
:10353000540FFDF87401088002C333D8FCFDEE542B
:10354000F06008ED4291ED42888006ED4289ED423F
:1035500080438902227F01123700122E2B90010234
:10356000E0FBA3E0FAA3E0F9EE8FF0121984121346
:1035700054121B901233CE122685123B4E123C9DE4
:103580000239E5C109C10A4102010041020000C13E
:1035900003C101C100C102C105011600C104C10679
:1035A000C108C1074100FF1043021801021B00902F
:1035B0000167E0FEA3E0FF900165EEF0A3EFF0E409
:1035C000FCFD9001C0121AFA900169E0FCA3E0FD35
:1035D0007F01021F6F9001ABEFF0123CD49001AB62
:1035E000E0FF123AA79001ABE0903E5993FF1231F1
:1035F000549001ABE0FF023D067E007F047D007B1E
:10360000017A01795D121B647E007F047D007B01DD
:103610007A017961021B64E4F5DA75DA4043DA2055
:1036200075D74075D64075DA5843A80275B8047549
:10363000F80422E5B254016006E5A85410700F7535
:10364000B29275B6F9E4F5B743B20143A8102278F7
:1036500016E6FF2400F582E4340022EE30E707C3CB
:10366000E49FFFE49EFE2204001E001405002800D3
:103670001E020304101115000101070000000000E4
:10368000000000000000000000000000000000003A
:10369000000000000000000000000000000000002A
:1036A000000000000000000000000000000000001A
:1036B000000000000000000000000000000000000A
:1036C00000000000000000000000000000000000FA
:1036D00000000000000000000000000000000000EA
:1036E00000000000000000000000000000000000DA
:1036F00000000000000000000000000000000000CA
:1037000000000000000000000000000000000000B9
:1037100000000000000000000000000000000000A9
:103720000000000000000000000000000000000099
:103730000000000000000000000000000000000089
:103740000000000000000000000000000000000079
:103750000000000000000000000000000000000069
:103760000000000000000000000000000000000059
:103770000000000000000000000000000000000049
:103780000000000000000000000000000000000039
:103790000000000000000000000000000000000029
:1037A0000000000000000000000000000000000019
:1037B0000000000000000000000000000000000009
:1037C00000000000000000000000000000000000F9
:1037D00000000000000000000000000000000000E9
:1037E00000000000000000000000000000000000D9
:1037F0000000000000000000000000000000002B9E
:1038000000000000000000000000000000000000B8
:1038100000000000000000000000000000000000A8
:00000001FF
