:100000005446495312660114000008000000000025
:10001000000000800100000059529D1800001000EF
:10002000FF00000000000000400000000000000091
:1000300000000000010000000000000000000000BF
:10004000544643530000100000D50100B5AC352ADA
:10005000000001200101100007011000090110003B
:100060000B0110000D0110000F0110001F01100006
:100070001F0110001F0110001F01100011011000CE
:10008000130110001F0110001501100003381000AB
:100090000F3910001901100019011000899F11007B
:1000A00019011000831310008913100019011000AA
:1000B000190110006B341000190110008F1310008B
:1000C000273A1000F9021000ED1F1000190110006E
:1000D0000000000000000000000000000000000020
:1000E0000000000000000000000000000000000010
:1000F0000000000000000000000000000000000000
:1001000000000000000000000000000000000000EF
:1001100000000000000000000000000000000000DF
:1001200000000000000000000000000000000000CF
:1001300000000000000000000000000000000000BF
:1001400000000000000000000000000000000000AF
:1001500000F010F8FEE7FEE7FEE7FEE7FEE7FEE749
:10016000FEE7FEE7FEE7FEE701480047FEE7FEE7A1
:100170001F01100000F002F800F04AF80AA090E811
:10018000000C82448344AAF10107DA4501D100F052
:100190003FF8AFF2090EBAE80F0013F0010F18BFD5
:1001A000FB1A43F0010318476CB901008CB9010038
:1001B0000A4410F8014B14F00F0508BF10F8015B5A
:1001C000240908BF10F8014B6D1E05D010F8013B43
:1001D0006D1E01F8013BF9D1641E03D0641E01F8C5
:1001E000015BFBD19142E4D370470000002300245F
:1001F00000250026103A28BF78C1FBD8520728BF37
:1002000030C148BF0B6070471FB51FBD10B510BD92
:10021000DFF80CD0FFF7F8FF04F0DBFB19F0C9FEA4
:100220000000012003B4FFF7F1FF03BC19F0C8FE82
:1002300000210028D8BF704700BF491C8842FBDC62
:100240007047704770477047704770477047017834
:10025000002908BF704710F8011F0029FBD1704723
:1002600082B0010F8DF80010C0F303618DF801100A
:10027000C0F303518DF80210C0F303418DF8031051
:10028000C0F303318DF80410C0F303218DF805107D
:10029000C0F303118DF8061000F00F008DF8070071
:1002A00000206A46115C0A2934BF303137311154BD
:1002B000401CC0B2082828BF0020F3D3401CC0B2A5
:1002C0000828FBD302B0704782B001098DF80010F6
:1002D00000F00F008DF8010000206A46115C0A2929
:1002E00034BF303137311154401CC0B2022828BF0E
:1002F0000020F3D3401CC0B20228FBD302B07047E9
:1003000082B0010B8DF80010C0F303218DF80110AD
:10031000C0F303118DF8021000F00F008DF80300F8
:1003200000206A46115C0A2934BF3031373111543C
:10033000401CC0B2042828BF0020F3D3401CC0B228
:100340000428FBD302B0704712484FF6FF710160DA
:1003500070471048104A0021016012681020506157
:100360000E48012203685A6003684022DA6003687D
:100370004FF40C621A6102685161026840F6FF7125
:1003800011620068EA21016305A010F8011F00292D
:10039000FBD17047007000203CB411006CB4110018
:1003A00055415254204F50454E21210D0D00000063
:1003B0000B0ACAB2FA49D1F800C0CCF81C0043F4C9
:1003C000FE400B6858610868006840F00103086847
:1003D00003600868C06810F0010FFAD008688068F0
:1003E0000B6840F00100986002F07F024FF400407B
:1003F00040EA022208684261086800680B6840F021
:10040000010018600868C06810F0010FFAD0086891
:1004100080680B6840F001009860086842610868D5
:1004200000680A6840F0010010600868C06810F0B9
:10043000010FFAD0086880680A6840F001009060F7
:1004400008688069C0B2704700F07F0041EA00216F
:10045000D3480268516101680968026841F00101EE
:1004600011600168C96811F0010FFAD0016889684C
:10047000006841F001018160704700F07F014FF496
:10048000004040EA0122C64801684A6101680968E3
:10049000036841F0010119600168C96811F0010F9A
:1004A000FAD001688968036841F001019960016828
:1004B0004A6101680968026841F001011160016840
:1004C000C96811F0010FFAD001688968026841F02B
:1004D0000101916000688069C0B2704710B58C4618
:1004E0000446FFF7CAFF20EA0C01E0B2BDE8104065
:1004F000AAE7704770B5AA48002401210268C2F833
:10050000141302686FF0FE21C2F8201302689921CB
:10051000C2F8301300680321C161A248A24DA34E66
:1005200000684FF0010390F8800190B935F823007E
:10053000C0F307217F20FFF787FFF01890F8C0165F
:1005400015F82300FFF780FF5B1CB3F5A67FEDDBFA
:1005500070BD35F82300C0F3072C644505D0644610
:100560000CF00F017F20FFF76FFFF01890F8C01616
:1005700015F82300FFF768FF5B1CB3F5A67FE8DBE7
:1005800070BD10B504F02CFA854B84464FF0043052
:100590001968086219680014486219680120086126
:1005A000196888601968486000217F20FFF74CFFB8
:1005B00040210120FFF748FFBCF1050F18BF10BD17
:1005C00000201968C1F8100310BD754A00B5126803
:1005D0000321D16100284FF000014FF07F000AD0C5
:1005E000FFF732FF03210020FFF72EFF002108460E
:1005F0005DF804EB28E7FFF727FF012100205DF8F5
:1006000004EB21E7664A00B512680321D161002896
:100610004FF000014FF07F0006D0FFF715FF0121DA
:1006200000205DF804EB0FE7FFF70EFF0321002029
:10063000FFF70AFF002108465DF804EB04E758497C
:1006400000B509680320C86100217F20FFF7FCFE88
:1006500000205DF804EB10E7514900B5096803205C
:10066000C86100217F20FFF7EFFE082102205DF81E
:1006700004EBE9E64A490A68926C0123096803FA27
:1006800000F0104388647047704745490968896DD8
:1006900080F001000122801C02FA00F0084070473F
:1006A0003F480168496C026841F400615164016887
:1006B000496C006821F4006141647047384A0123A5
:1006C00003FA00F000291168096C03D0084311688F
:1006D0000864704721EA00001168086470473049D7
:1006E00000280868C06D0AD00A6840F00200D06592
:1006F0000868C06D096840F01000C86570470A6856
:1007000040F00100D0650868C06D096840F008003D
:10071000C86570472DE9F043DFF8849080462025B6
:10072000D9F8001009270220C861002404217F2085
:10073000FFF78AFEA44611E0BCF1030F03D0BCF121
:10074000060F0BD105E005217F20FFF77DFE002479
:1007500004E006217F20FFF777FE00240023002D10
:1007600088BF08EB4C1608D9F15C2046FFF76CFEF9
:10077000601C5B1CC4B29D42F6D80CF1010C6745AD
:10078000DAD8D9F800100120C861002404217F20A4
:10079000FFF75AFEA446002F1CD8BDE8F0830000E6
:1007A00040B41100F806002000000020BC590020D1
:1007B000BCF1030F03D0BCF1060F0BD105E00521FE
:1007C0007F20FFF741FE002404E006217F20FFF791
:1007D0003BFE00240023002D88BF08EB4C160AD9ED
:1007E000F01890F820112046FFF72EFE601C5B1CCD
:1007F000C4B29D42F4D80CF1010C6745D8D8CCE7BF
:1008000070B5CA49044603200968C8610425E9B2E5
:100810007F20FFF719FE0023E1B2D8B2FFF714FEE4
:1008200003F12000E1B2C0B2FFF70EFE03F1400079
:10083000E1B2C0B2FFF708FE5B1C202BECDB0CF032
:1008400076FC002808BF00246D1C072DDFDB70BD7F
:10085000B64803210268D16102681121C2F8301341
:1008600000684FF00111C0F8201300217F20EBE554
:1008700070B50546002404F0B3F8022804D004F053
:10088000AFF8052804D007E00CF051FC18B921E0BE
:1008900009F053FCF0B1A64C04F0A2F8A34B844637
:1008A0004FF004301968086219680014486219682A
:1008B00001200861196888601968486000217F205C
:1008C000FFF7C2FD40210120FFF7BEFDBCF1050F7F
:1008D00006D101E0974CDFE719680020C1F810034A
:1008E00019680320C861DFF850C201233CF82300D7
:1008F000C0F307217F20FFF7A7FDE95C1CF8230068
:10090000FFF7A2FD1CB1E118E85C81F8C0065B1C92
:10091000B3F5A67FEADB70BD844B00B519680320F0
:10092000C86100217F20FFF78FFD00210120FFF724
:100930008BFD00210320FFF787FD01217F20FFF7BA
:1009400083FD0A210E20FFF77FFD02217F20FFF7A4
:100950007BFD35210220FFF777FD78210720FFF787
:1009600073FD8B210420FFF76FFD0F217F20FFF720
:100970006BFD01210320FFF767FD19680120C1F815
:10098000140319681120C1F8300319684FF00110E1
:10099000C1F8200303217F20FFF756FD012100202D
:1009A000FFF752FD00210120FFF74EFD2121052018
:1009B000FFF74AFD04216D20FFF746FD08216E2058
:1009C000FFF742FD10216F20FFF73EFD01217F2040
:1009D000FFF73AFD08210020FFF736FD0421012032
:1009E000FFF732FD1868406C196840F400604864F5
:1009F0001868406C196820F40060486400BD4B49D9
:100A000000B509680320C86100217F20FFF71CFDA5
:100A100000210120FFF718FD01217F20FFF714FDC1
:100A200021210E20FFF710FD00212420FFF70CFDEF
:100A300000213420FFF708FD00213A20FFF704FDD4
:100A400000214420FFF700FD00214A20FFF7FCFCB5
:100A500000215420FFF7F8FC00215A20FFF7F4FC96
:100A600000216420FFF7F0FC00216A20FFF7ECFC76
:100A700002217F20FFF7E8FC55210220FFF7E4FC6C
:100A800029210320FFF7E0FC07210820FFF7DCFC09
:100A900020211620FFF7D8FC03217F20FFF7D4FC8C
:100AA000092103205DF804EBCEE47047234B0021BD
:100AB0001A46E0FB03214809C0EB00108000704794
:100AC00000207047002070470020704700207047CA
:100AD00008467047002070477047002070477047F5
:100AE0007047002070477047704700207047002013
:100AF0007047002070470020704770477047002003
:100B0000704770477047704700207047002070475B
:100B1000704770477047002070470020704770474B
:100B200000207047704770477047704740B411000D
:100B3000BC59002084080020000000205BB0055B49
:100B4000FC4910B509680320C86100217F20FFF728
:100B50007BFC02210020FFF777FC01210220FFF738
:100B600073FC0121BDE810400020FFF76DBCF14986
:100B700010B509680320C86100217F20FFF764FCDD
:100B800002210020FFF760FC01210220FFF75CFC3E
:100B90000121BDE810400020FFF756BCE64808B52B
:100BA00001684969C1F30721009101684969009A08
:100BB000C1F307219142F8D0DE480168D1F82C1327
:100BC000006841F00401C0F82C13FFF738FD00283D
:100BD00008BF08BD0020BDE80840FFF713BDD64898
:100BE00008B501684969C1F30721009101684969A5
:100BF000009AC1F307219142F8D0CE480168D1F89C
:100C00002C13006841F00401C0F82C13FFF717FD06
:100C1000002808BF08BD0020BDE80840FFF7F2BC6F
:100C200010B503F0DDFE052809D0C2480068D0F8F1
:100C30002C0310F0040F0CBF0120002010BDBF4892
:100C40000068006810BD70B50546FFF7E9FF012890
:100C500018BF70BD03F0C4FEB64C0326052827D08C
:100C6000FFF7BDFF012D18BF70BD2068406C2168E3
:100C700040F40060486400BF00BF00BF2068406CC3
:100C8000216820F4006048642068C66100217F204C
:100C9000FFF7DAFB02210020FFF7D6FB012102203B
:100CA000FFF7D2FBBDE8704001210020FFF7CCBB6D
:100CB0000020FFF7A7FCD8E710B5FFF762FC012082
:100CC000FFF7C1FF102004F0F4F90121052002F024
:100CD000EEFA0121062002F0EAFA99490120887013
:100CE00010BD10B5602002F038FB602002F028FB38
:100CF000904903200968C86410BD914A01465079A3
:100D0000002818BF0120002918BF01215171704728
:100D10008B4A1169106108467047894800210171AA
:100D2000C1700189874819F0A6B885480021017172
:100D3000C1700189834819F09EB87E49002808686F
:100D4000406C20F4407002BF0968486470470A682C
:100D500050640868426C7C480068037EC3F300134B
:100D600042EA43220B685A640A68526C007E0968A2
:100D7000C0F3C00042EA00204864704700B583B069
:100D800000208DF80000ADF8040003F029FE844631
:100D90000120FFF7D2FFBCF1020F1CBF03B000BD62
:100DA0000CF0C5F902281CBF03B000BD0120614949
:100DB0000968C86103217F20FFF746FB89210520D0
:100DC000FFF742FB67210620FFF73EFB4521072086
:100DD000FFF73AFB23210820FFF736FB03B0F12190
:100DE00009205DF804EBFFF72FBB2DE9F14F86B02A
:100DF000002004460190009003F0F2FD022806D086
:100E000003F0EEFD052808BF09F097F901E00CF0AA
:100E10008EF903F0E5FD4D49052804BF0868022856
:100E200005D0086820B1012818BF022800D101248C
:100E3000474848494FF0200800680969406BFF3176
:100E400000F5E03021F0FF01503004FB01051220D5
:100E50000026049001E0032E01D214271AE0F01EB0
:100E6000032838BF152715D3B01F032838BF16270E
:100E700010D3A6F10900032838BF24270AD3A6F10E
:100E80000C00032838BF252704D3A6F10F00032840
:100E900038BF26270198B84209D02648019739095A
:100EA0000068C16107F00F017F20FFF7CDFA0CF059
:100EB0003EF90024B8F1000F34D9380903902648D0
:100EC000A0FB06104008A0EB800000EB06092348B9
:100ED000A0FB06104008404200EBC00081190698B4
:100EE00000EB41100290069800EB461A0398012887
:100EF00036D0C4F11F0000EB49101FFA80FB01221D
:100F00006946284601F06EF96D1C03F069FD05285D
:100F100047D050E0202C45F10005E7D3601CC4B257
:100F20004445F7D3701CC6B20498864293D307B0E9
:100F3000BDE8F08F40B411005CB4110044B411005E
:100F40003005002070110020F8060020C8050020A0
:100F5000B4060020B8060020ABAAAAAA398EE3384E
:100F600004EB49101FFA80FB01226946284601F074
:100F700039F96D1C03F034FD0528009809D119F0EA
:100F800077FC4FF03332F74B19F0C2FC19F02CFC10
:100F90000090C1B20AF804100BF0FF00FFF754FAFA
:100FA000BCE7009819F064FCEF4AF04B19F0B0FC74
:100FB00019F01AFC0090029800992044C9B280F8F8
:100FC00020110BF0FF00FFF73FFAA7E7E849C860E0
:100FD000704710B503F004FD052802D0BDE81040AD
:100FE000FDE5FFF71DFE012818BF10BD0020BDE87C
:100FF0001040FFF707BB70472DE9F04F064683B05E
:101000000C460120FFF71FFE03F0EAFCD94D07460E
:101010004FF001084FF00009002C5CD003F0E0FC19
:10102000052810D0FFF7DBFD606800281CBF206892
:10103000002850D06FF0FE2A4FF0990B052F0AD0F0
:10104000022F22D038E0FFF7EBFD012804BF00207B
:10105000FFF7D8FAE8E709F070F80746D4E900107E
:10106000FFF706FC2868C0F81483022F04D0002F75
:1010700008BFFFF751FC1FE02868C0F820A32868CC
:10108000C0F830B3FFF7BBFC16E00CF050F8074691
:10109000D4E90010FFF7ECFB2868C0F81483022F96
:1010A00004D0002F08BFFFF7D3FB05E02868C0F885
:1010B00020A32868C0F830B32868C0F82893AC484B
:1010C000C6600CF034F8022802D00BF0BFFE10B955
:1010D000A068FFF78AFE8DF80090ADF8049003F049
:1010E0007FFC84460120FFF728FEBCF1020F1ED1D1
:1010F0000CF01DF802281AD12868C0F81C800321C2
:101100007F20FFF7A1F989210520FFF79DF96721CD
:101110000620FFF799F945210720FFF795F92321CC
:101120000820FFF791F9F1210920FFF78DF9904C84
:1011300084F8049084F8039021898F4818F09BFE6E
:10114000C4F81090607900206071602002F005F909
:10115000602002F0F5F829680320C86403B0BDE8F8
:10116000F08F602002F0F0B810B5602002F0ECF8CB
:10117000BDE81040012066E57D48C06870477C48A6
:101180000078002818BF0120704738B5002400946B
:10119000FFF746FD002818BF38BD75480471C470BC
:1011A0000189754818F067FEDFF8C8C1DCF8000057
:1011B000406CDCF8001040F40060486400BFDCF8CC
:1011C0000000406CDCF8001020F4006048646B4DB7
:1011D0006B48297800290168496914BFC9B2C1F375
:1011E0000721009120D001684969009AC9B2914253
:1011F000F9D000680221C161DCF80000D0F82C03AE
:10120000DCF8001020F00400C1F82C03DCF800002A
:10121000C0F81043FFF713FA002818BF38BD0120AB
:10122000BDE83840FFF7EEB901684969009AC1F39B
:1012300007219142F8D0002301684969C9B20091A1
:1012400001684969009AC9B29142F9D0591CCBB2E0
:10125000042BF1D301212970CBE770B503F0C0FB5B
:101260000025434C052803D02570BDE870408CE76D
:10127000FFF7D6FC002818BF70BD2571E5702189E5
:101280003D4818F0F8FD25703A480168D1F82C1354
:10129000006821F00401C0F82C13BDE87040012063
:1012A000FFF7B0B9324901200870704770B503F0FC
:1012B00097FB2F4C0125052808D0FFF7B1FC00282B
:1012C00018BF70BD2570BDE870405EE7FFF7A8FC51
:1012D000002818BF70BD00202071E07021892648C9
:1012E00018F0C9FD2570BDE870400120FFF78AB9EC
:1012F0000120A8E470B51E4C0025E57003F070FBDA
:10130000052803D02570BDE870403EE7FFF788FC54
:10131000002818BF70BD2571E5702189164818F0A6
:10132000AAFD257013480168D1F82C13006821F03C
:101330000401C0F82C13BDE870400120FFF762B92A
:101340000B4A5169506108467047094880697047E7
:1013500007498861704706488069704704484078AB
:10136000704700003333FB3FCDCCCCCCCCCCFC3F22
:101370003005002040B4110070110020AA050020A3
:101380005CB41100FB4948707047012888BF704762
:10139000F94900280868406E04D0096840F002004E
:1013A00048667047096840F00100486670470128A8
:1013B00088BF7047F04900280868406E04D009686B
:1013C00020F0020048667047096820F00100486676
:1013D0007047002000F0DABB012000F0D7BB10B549
:1013E000E44CE069401CE061E4480168096D006874
:1013F00041F004010165FFF753F9FFF72DF920785B
:1014000000281CBF0120FFF71EFC6069002818BFE0
:101410008047DB48016841F40061016010BD10B5F0
:101420000120FFF710FCBDE8104000F0FCBBD548E0
:101430007047D5487047CF48006A7047CD48406A2A
:101440007047CC48806A7047CA49002008624862E9
:1014500088627047CD4900EBC00001EBC0107047B7
:1014600048434FF6FF7101EA4000C24908817047C6
:10147000C74A107051707047C549085C7047F0B595
:101480000746A1B0202401210220FFF717F9C14D22
:1014900000216E46286830F8110026F81100491C1A
:1014A000A142F7D300210220FFF708F90121002013
:1014B000FFF704F90021002C09D9286806EB410246
:1014C00030F81100491CA2F840008C42F5D80021E8
:1014D0000846FFF7F3F8A2006946384618F02AFCE0
:1014E00021B0F0BD70B50E46A2490500E0B04FF046
:1014F000800008814FF020044FF001010CBF05204F
:101500000420FFF7DBF8A34900206B46096801EBD4
:10151000053101EB800202F58052D2F800C043F899
:1015200020C003EB800CD2F88020401CCCF8802037
:10153000A042EED3002D4FF0000114BF042005207F
:10154000FFF7BCF8E2006946304618F0F3FB60B0E4
:1015500070BD70B5040087480E464FF00101058943
:101560000CBF05200420FFF7A9F88A482A46006826
:1015700000EB043000F58051304618F0DBFB4FF0F3
:10158000000124B1BDE870400420FFF797B8BDE822
:1015900070400520FFF792B810B590B020220021CE
:1015A0000091019102910391049105910691079197
:1015B000089109910A910B910C910D910E91EC46B5
:1015C0000F9100EB410430F81130B4F8404223444D
:1015D0002CF81130491CC9B29142F2D35200614635
:1015E00018F0A8FB10B010BDF0B5624F694EADF217
:1015F000844D00243D89002C4FF001010CBF0520D3
:101600000420FFF75BF830682A4600EB043000F551
:101610008051684618F0D3FB002C4FF000010CBF3E
:1016200005200420FFF74AF8641C022CE2DB0020AE
:10163000FFF7BDFE0120FFF7BAFE0DF2844DF0BDAD
:101640004E4A55490020136803EB8003D3F8C0309D
:1016500021F81030401C0728F5D31068D0F8E400BA
:1016600048827047454A4D4B002818BF00201DD0C6
:10167000116801EB8001D1F880110904090C18BF31
:1016800023F81010401C2028F2D30020116801EB31
:101690008001D1F880120904090C1CBF03EB400C37
:1016A000ACF84010401C2028F0D37047116801EBC3
:1016B0008001D1F800110904090C18BF23F810109B
:1016C000401C2028F2D30020116801EB8001D1F8E2
:1016D00000120904090C1CBF03EB400CACF84010CD
:1016E000401C2028F0D370472DE9F8430446002021
:1016F000009003F075F91F4E204F274D4FF0010861
:10170000052809D00BF013FD0028204648D0FEF72D
:10171000BCFF00285ED066E02046FEF7B6FF40B969
:1017200084F001042046FEF7B0FF002808BFBDE8A2
:10173000F88316492046FFF70CFF0021386800EBBC
:101740008100D0F8C00025F81100491C0729F5D305
:101750003868D0F8E40068822046FFF783FF20460F
:10176000FFF725FE86F8048084F00100F070BDE8E4
:10177000F8830000300500203CB4110040B4110093
:1017800064050020441100204D110020701100203C
:101790003605002064B4110070160020F0150020FA
:1017A000FEF773FF40B984F001042046FEF76DFF99
:1017B000002808BFBDE8F883FE492046FFF7C9FEB0
:1017C0002046FFF7F4FD86F8048084F00100F070F5
:1017D000BDE8F88384F001042046FEF756FF002898
:1017E00008BFBDE8F883F3492046FFF7B2FE0021A9
:1017F000386800EB8100D0F8C00025F81100491CC2
:101800000729F5D3A4E770B5EB4D044668790028A5
:1018100004BFE878FFF768FF2879002808BF70BD8B
:10182000E44AAB6902F5A060A0F18001A06100204C
:10183000C4E9021020616061C4E90032012070BD7A
:10184000DD490020087170472DE9F14F82B000207A
:10185000009012204FF020080025019001E0032D98
:1018600001D214261AE0E81E032838BF152615D326
:10187000A81F032838BF162610D3A5F10900032896
:1018800038BF24260AD3A5F10C00032838BF25262B
:1018900004D3A5F10F00032838BF26260098B042D4
:1018A00009D0C648009631090068C16106F00F01F1
:1018B0007F20FEF7C9FD0024B8F1000F28D9029857
:1018C0004FEA161B00EB451ABD48A0FB0510400867
:1018D000A0EB80004719BB48A0FB05104008404220
:1018E00000EBC0000299284401EB4019BBF1010F45
:1018F00016D0C4F11F0000EB471080B2FEF7BDFD0B
:1019000009EB040181F82001601CC4B24445EDD309
:10191000681CC5B201988542A1D303B0BDE8F08F21
:1019200004EB471080B2FEF7A8FD0AF80400EBE7CD
:10193000012070477047002070472DE970431C4616
:1019400016460D468046FFF76BF95FEA00091CBF9B
:101950000120FFF778F92819A84288BF01210FD983
:1019600000234446B34238BF202C06D201FA04F2C9
:101970003A4218BF5B1C641CF4E76D1C8542EFD330
:10198000B9F1000F08BFBDE87083BDE87043B1E452
:101990002DE9F047994614460E460746089DFFF785
:1019A0003FF95FEA00081CBF0120FFF74CF903F084
:1019B00079F9DFF814C206EB0903B342CCF8000052
:1019C00088BF381913D93C460AE0DCF800100978C2
:1019D00025F8021BDCF80010491C641CCCF8001030
:1019E000844238BF202CF0D3761C9E42EBD3B8F152
:1019F000000F08BFBDE8F087BDE8F0477AE4704704
:101A000010B5FFF76AF86C49488110BD6A4AC1B247
:101A100000F470635289914288BF11464FF0640C04
:101A200001FB0CF1B1FBF2F11A0A02FB0C1189B2B5
:101A300010F4805F12BF08B2484200B2704700281D
:101A4000B8BF404280B2B4BF00214FF4805100F4CF
:101A500070621143584AC0B25289504341EA102083
:101A6000704708B50921732000F046F9BDF8001051
:101A700000F01F0021F0FF010843ADF800000D2128
:101A8000732000F039F9BDF8001000F01F0021F4B8
:101A90007F4141EA0020ADF80000BDF8000008BD1C
:101AA0007047FFF730B849484FF41071006800F5EF
:101AB000405018F0E0B92DE9F84F12204FF02008FF
:101AC00000900BF034FBDFF800B102280CBF404857
:101AD000404800F590600024CBF8000001E0032CA2
:101AE00001DA14261AE0E01E032838BF152615D3A4
:101AF000A01F032838BF162610D3A4F1090003281D
:101B000038BF24260AD3A4F10C00032838BF2526A9
:101B100004D3A4F10F00032838BF2626B24509D00C
:101B200026483109B2460068C16106F00F017F20E6
:101B3000FEF78AFC0025B8F1000F1EDD26484FEAAB
:101B4000161980FB0410A0EBE070A0EB80000719D1
:101B5000B9F1010F0EBF05EB4710C5F11F0000EBF7
:101B60004710DBF80020C0B212F8011BCBF80020B0
:101B7000FEF76AFC6D1C4545EADB0098641C844254
:101B8000ADDBBDE8F88F0020FEF79CBF70B50446C2
:101B900001280AD81148002C0168496E14BF41F091
:101BA000020141F0010100684166034DA869401C33
:101BB000A86115E0701100203005002040B411002C
:101BC000ABAAAAAA398EE338DC05002064B4110060
:101BD000BC59002084080020565555553CB41100CE
:101BE000296900291CBF20468847287800281CBF87
:101BF0000120FFF728F80648002C0CBF0221012124
:101C0000006801650348016841F02001016070BD72
:101C100040B41100640500200549002814BF0020CD
:101C20000120087070477047704770477047000088
:101C30005C050020704770B501F081FE2A4D2B4AEB
:101C40002B4B2C494FF0000C4C682CB1C1F804C050
:101C500001F07AFE204670BD287888B90888B0F572
:101C60007A7F9CBF401C0880EED930BF107838B115
:101C7000186800681C6820F00100206082F800C02D
:101C8000A1F800C0E0E710B501F059FE194844681A
:101C9000002C08BF30BFFAD00021416001F054FE93
:101CA000204610BD70B501F04AFE124D6C682CB193
:101CB0000020686001F048FE204670BD30BF01F092
:101CC00071FB0028F2D001F071FBA860EEE7002064
:101CD000704730BF704772B662B670477047704742
:101CE00072B662B67047000030060020420700203E
:101CF00044B4110060050020F84BC2081B681A6448
:101D000001F0FC0141EA002040F4704040F08040C6
:101D100000687047F14BC2081B681A6401F0FC02AE
:101D200042EA002040F4704040F08040890700689B
:101D3000C90EC840C0B27047E94900200870E749A1
:101D40000E2009680864E748007810F0800018BF8A
:101D50000120704710B44FEAD00CE04B1C68C4F867
:101D600040C001F0FC0141EA002040F4704040F026
:101D7000804002601868006C10F4007F04BF10BC43
:101D8000704700BF1868006C10F4007FF9D110BCD8
:101D90007047DFF848C310B4DCF800C0C308CCF8C3
:101DA000403001F0FC0343EA002343F4704343F066
:101DB0008043FF24D3F800C08B07DB0E9C402CEA45
:101DC000040C9A4010BC42EA0C02C3E7C6484FF428
:101DD000F4610268116101684968026841F002011A
:101DE00051600068032181617047BF4810B50268E7
:101DF0000021116002684FF4F461116101684968C3
:101E0000026841F0020151600068032181610722EC
:101E100008217120FFF7BDFF0E2001F084FA002198
:101E20000E2001F044FABDE810400E2001F063BA24
:101E3000AA4910B50968AD4808620722012170203F
:101E4000FFF7A7FFA84800210268116002684FF45D
:101E5000F461116101684968026841F00201516052
:101E6000006803218161072208217120FFF791FF9B
:101E70000E2001F058FA00210E2001F018FABDE8FA
:101E800010400E2001F037BA974800210268116017
:101E900002684FF4E06111610068012181617047BF
:101EA000914900200A6810600A6810610968886119
:101EB00070478D4806210268116002680221516056
:101EC00000688161704788480021026811600068DD
:101ED000816170478449002009680860704710B527
:101EE000814C08202168086021680220886107224F
:101EF00008217120FFF74DFF2068C06810F0080F1F
:101F0000FAD021680F20886010BD10B50446024643
:101F10000021F020FFF71EFF22460121F020FFF7ED
:101F200019FF22460021F120FFF714FF224601216C
:101F3000F120FFF70FFF22460021FC20FFF70AFFE8
:101F400022460121BDE81040FC2003E74FF48071D8
:101F500041EAD00261490B681A64654A42EA0022EC
:101F600010600868006C10F4007F08BF704700BF65
:101F70000868006C10F4007FF9D17047574A4FF49D
:101F8000807141EAD00112681164594941EA002088
:101F900000687047082270200021FAE600227020B5
:101FA0001146F6E64D480168496E026821F4007159
:101FB00051660168496E026841F48071516601689A
:101FC000496E026841F4806151660168496E00689B
:101FD00021F480614166002270201146D9E63F4815
:101FE0000168496E026841F4806151660168496E7A
:101FF000026821F4806151660168496E026821F42B
:10200000807151660168496E006841F40071416653
:10201000704732480168496E026841F48061516638
:102020000168496E006821F48061416670472B4861
:102030001B21026811640068016470472DE9F041BA
:10204000294C2068C1682B4801602068C0684FF0A7
:10205000000610F0100F0BD020481B2102681164FD
:102060000068016420688068216840F01000886082
:102070002068C06810F0080F05D0206880682168CB
:1020800040F0080088602068C06810F0040F0AD093
:102090002068806840F0040120688160FF220021F0
:1020A0007020FFF776FE2068C06810F0020F4BD05A
:1020B00020688068216840F0020088600E4D287812
:1020C000F0B316F079FF0327DFF83080012817D02E
:1020D00016F072FF02281FD029E000003CB4110066
:1020E0006C05002000F200405CB411002222A260C6
:1020F00000F00040FC0600204307002040B411001F
:10210000D8F80000C76100217F20FEF79DF900216B
:102110000320FEF799F90AE0D8F80000C761002112
:102120007F20FEF791F901210320FEF78DF9206849
:102130000068216820F0020008604FF4F46000E0BD
:1021400002E0216808612E702068C06810F0010F5D
:1021500008BFBDE8F08120688068216840F0010078
:102160008860BDE8F0810000704770B5FF4D0446FF
:10217000C0F30741286801F0D0FAC4F307212868AA
:1021800001F0CBFAE1B22868BDE8704001F0C5BAB1
:102190002DE9F041F64F0446164638680D46806A30
:1021A000396840F003008862DFF8C0830321D8F863
:1021B000000001F0B2FA2046FFF7D7FF0024002EFE
:1021C00007D9D8F8000001F0D6FA2855641CA642B9
:1021D000F7D83868806A396820F0030088620120E7
:1021E000BDE8F08170B514460D46064601F0B1FB1E
:1021F000224629463046BDE87040C9E72DE9F04146
:102200000024DC4D042601F0A4FB3246294620467A
:10221000FFF7BEFF04242F463D1D264601F099FB23
:10222000324629462046FFF7B3FF08242D1D042619
:1022300001F08FFB324629462046FFF7A9FF2025F3
:1022400007F10C0401F085FB324621462846FFF7D2
:102250009FFF0C3724243E1D042501F07AFB2A46FB
:1022600031462046FFF794FF2824361D01F071FB0C
:102270002A4631462046FFF78BFFBF4E07F10C047C
:1022800001F067FB2A4621463046FFF781FF371DE4
:1022900025462C1D042601F05CFB324621463846BB
:1022A000FFF776FF3E1D0424083501F052FB22465D
:1022B00029463046FFF76CFF4FF4FC342D1D0426F1
:1022C00001F047FB324629462046FFF761FF271DF4
:1022D0002C46251D01F03DFB324629463846FFF7C6
:1022E00057FFA64F2D1D01F034FB324629463846D4
:1022F000FFF74EFF3F1D2D1D01F02BFB32462946F7
:102300003846FFF745FF2E1D3F1D042501F021FB38
:102310002A4631463846FFF73BFF351D3F1D042650
:1023200001F017FB324629463846FFF731FF3E1DC4
:102330000425183401F00DFB2A4621463046FFF7EC
:1023400027FF8F4E8F4C012501F003FB2A462146C3
:102350003046BDE8F0411BE77047F8B50E00054672
:102360004FF0000417D0042269462846FFF710FFFB
:102370009DF800009DF801109DF8032008409DF88D
:10238000021011400840FF2801D00020F8BD641C55
:102390002D1DB442E7D30120F8BD2DE9F843914645
:1023A0000D468046002401F0D4FA0027B9F1000F51
:1023B00088BF6E4619D9042269464046FFF7E8FEF9
:1023C0000023F05CE95C88421CBF601C84B25B1C8B
:1023D000042BF6D32D1D7F1C08F104084F45EAD3CA
:1023E000002C1CBF0020BDE8F8830120BDE8F88365
:1023F0000120704770B55E4C06462068806A2168EF
:1024000040F003008862594D0521286801F085F9E4
:10241000286801F0B0F92168896A226821F0030177
:1024200091623070012070BD38B5514C2068806ACF
:1024300040F00301206881624C4D0521286801F0BD
:102440006CF9286801F097F92168896A226821F0FF
:10245000030191628DF8000010F0010018BF012007
:1024600038BD10B5424C2068806A216840F00300F6
:1024700088623E480621006801F04FF92068806AB2
:10248000216820F003008862012010BD70B5054668
:10249000FFF7CAFF00281CBF022070BDFFF7E1FF55
:1024A000334C2068806A216840F0030088622F481E
:1024B0002021006801F031F92846FFF756FE206818
:1024C000806A216820F003008862FFF7ADFF28B121
:1024D00000BF00BFFFF7A8FF0028F9D1012070BDA1
:1024E0002DE9F84F8046032701F033FADFF880909A
:1024F000DFF878A0FFF798FF10BBFFF7B2FFD9F81D
:102500000000806AD9F8001040F0030088622021A2
:10251000DAF8000001F001F94046FFF726FED9F88D
:102520000000806AD9F8001020F003008862FFF7ED
:102530007BFF28B100BF00BFFFF776FF0028F9D16D
:1025400045464FF480660024042269462846FFF77A
:102550001FFE9DF800009DF801109DF80320084023
:102560009DF8021011400840FF280DE058B41100FA
:102570003CB411009016002068C0010010F8010062
:10258000043003007005002006D0381EA7F10107B3
:10259000B0DC0220BDE8F88F641C2D1DB442D3D3FB
:1025A0000120BDE8F88F2DE9F04117460E4604469C
:1025B000FFF73AFF00281CBF0220BDE8F081FFF7BB
:1025C00050FFDFF80C84D8F80000806AD8F80010BB
:1025D00040F003008862FF4D0221286801F09DF859
:1025E0002046FFF7C2FD0024002F06D9315D286880
:1025F00001F093F8641CA742F8D8D8F80000806A6C
:10260000D8F8001020F003008862FFF70DFF28B112
:1026100000BF00BFFFF708FF0028F9D10120BDE887
:10262000F0812DE9F043C1B08846814603276E460C
:1026300001F08FF94FF4807241464846FFF7B3FF2F
:10264000002445464FF4807269464846FFF7A0FDD6
:10265000305D295D884205D07F1EE9D241B002205D
:10266000BDE8F083641CB4F5807FF1D341B0012054
:10267000BDE8F0832DE9F041D74C0646D44FDFF892
:1026800054836068C0B00D4650B1D8F8000001F026
:1026900044F86268FF2AB8BF501C1BDA606035E05E
:1026A00001F057F9FFF7DDFE3868806A396840F0BD
:1026B000030088620221D8F8000001F02EF83046AD
:1026C000FFF753FD2946D8F8000001F026F86068AE
:1026D000401CE3E7002060603868806A396820F0B9
:1026E0000300886200244FF4807269463046FFF789
:1026F0004FFD68462A5D015D914203D040B0022043
:10270000BDE8F081641CB4F5807FF3D340B00120B4
:10271000BDE8F08170B50C46054601F01AF9B4F534
:10272000807F88BF70BDAA490A68926A096842F032
:1027300003028A62A7480321006800F0EEFF2846E2
:10274000BDE8704011E5A348006801F014B8A04846
:102750000168896A006821F003018162704770B5E1
:102760000C46054601F0F5F821462846BDE87040C4
:102770004FF480720CE570B5954D04462868806A68
:10278000296840F003008862924E9F21306800F073
:10279000C4FF306800F0EFFF2070306800F0EBFFFE
:1027A0006070306800F0E7FFA0702868806A2968D0
:1027B00020F003008862012070BD70B5044601F06E
:1027C000C8F8834D2868806A296840F00300886251
:1027D000804E9F21306800F0A0FF306800F0CBFFF2
:1027E0002070306800F0C7FF6070306800F0C3FFF1
:1027F000A0702868806A296820F0030088620120A0
:1028000070BD2DE9F047DFF8C89104461746D9F8A6
:1028100000008846806AD9F8001040F00300886202
:102820006C4D0321286800F078FF2046FFF79DFCDF
:102830000024B4EB970F18D2286800F09CFF0646DE
:10284000286800F098FF46EA0026286800F093FF09
:1028500046EA0046286800F08EFF46EA006048F825
:102860002400641CB4EB970FE6D3D9F80000806A0B
:10287000D9F8001020F0030088620120BDE8F0873D
:1028800070B514460D46064601F063F82246294607
:102890003046BDE87040B4E710B5FFF7C5FD00282D
:1028A0001CBF022010BDFFF7DCFD494C2068806A88
:1028B000216840F00300886246486021006800F00B
:1028C0002CFF2068806A216820F003008862FFF7EF
:1028D000ABFD28B100BF00BFFFF7A6FD0028F9D16E
:1028E000012010BD10B501F034F8FFF79DFD002860
:1028F0001CBF022010BDFFF7B4FD354C2068806A74
:10290000216840F00300886232486021006800F0CE
:1029100004FF2068806A216820F003008862FFF7C6
:1029200083FD28B100BF00BFFFF77EFD0028F9D16D
:10293000012010BD70B50C46054601F00AF80026CE
:1029400001F007F84FF4807221462846FFF720FC7B
:10295000761C04F5807405F58075102EF0D30120E7
:1029600070BD2DE9F047C0B08846814600F0F1FF08
:102970004FF0000A464603276D4600F0EAFF4FF489
:10298000807231464846FFF70EFE00244FF48072F5
:1029900069464846FFF7FCFB295D305D814205D062
:1029A0007F1EEAD240B00220BDE8F087641CB4F577
:1029B000807FF1D30AF1010A08F5807809F5807962
:1029C000BAF1100FD6D340B00120BDE8F087000067
:1029D0003CB4110058B41100700500202DE9F04FEF
:1029E00081B00546ADF5804D000514468846000DC2
:1029F000EB4633D02F466FF30B07BA465E4600F026
:102A0000A8FF4FF0000900F0A4FF4FF48072314698
:102A10003846FFF7BDFB09F1010906F5807607F599
:102A20008077B9F1100FEED3C5F30B00C0F58056D7
:102A3000A64288BF264658443246414617F07AF9E6
:102A40005046FFF74DFD022850D059465046FFF73B
:102A500088FF02284CD03544B044A41BB4F5805FF5
:102A600019D34FF480524146584617F063F928466F
:102A7000FFF736FD022839D059462846FFF771FF87
:102A8000022835D0A4F5805405F5805508F5805806
:102A9000B4F5805FE5D21CB3D9462E4600F059FF4D
:102AA000002700F056FF4FF4807259463046FFF77A
:102AB0006FFB7F1C06F580760BF5807B102FF0D323
:102AC00022464146484617F035F92846FFF708FDEB
:102AD00002280BD049462846FFF743FF022807D0BB
:102AE000012001B00DF5804DBDE8F08F0A20F8E718
:102AF0000B20F6E710B5ADF5806D0446AAB1684627
:102B000017F018F92046FFF7EBFC022802BF0A2055
:102B10000DF5806D10BD69462046FFF782FD022845
:102B200002BF0B200DF5806D10BD01200DF5806DED
:102B300010BD70B50646FFF777FC00281CBF0220C9
:102B400070BDFFF78EFCB44C2068806A216840F0AD
:102B500003008862B14D0121286800F0DEFD314696
:102B6000286800F0DAFD2068806A216820F0030000
:102B70008862FFF759FC28B100BF00BFFFF754FC83
:102B80000028F9D1012070BDF8B500F0E2FEA24D99
:102B90002868806A296840F0030088629F4E0521FA
:102BA000306800F0BAFD306800F0E5FD2968896AF8
:102BB0002A6821F00301916240F040048DF8004042
:102BC000FFF732FC002818BFF8BDFFF74AFC286861
:102BD000806A296840F0030088620121306800F0B3
:102BE0009CFD2146306800F098FD2868806A2968BD
:102BF00020F003008862FFF717FC002808BFF8BD2B
:102C000000BF00BFFFF710FC0028F9D1F8BD70B578
:102C100005460024FFF708FC40B1AC4201D9002072
:102C200070BD641CFFF700FC0028F6D1012070BDC8
:102C300070B5794C06462068806A216840F0030030
:102C40008862764D0921286800F067FD286800F049
:102C500092FD2168896A226821F003019162307037
:102C6000012070BD38B5FFF7DFFB002836D1FFF734
:102C7000F8FB694C2068806A40F00301206881629B
:102C8000664D2F21286800F048FD2068806A216881
:102C900020F003008862FFF7C7FB28B100BF00BF28
:102CA000FFF7C2FB0028F9D12068806A216840F054
:102CB000030088620921286800F02FFD286800F0D1
:102CC0005AFD2168896A226821F0030191628DF81A
:102CD000000010F0020F1CBF012038BD022038BDDB
:102CE0004E4810B50421006800F017FD012010BD0A
:102CF00070B5FFF799FB00281CBF022070BD464C41
:102D00002068806A216840F003008862434D0521F5
:102D1000286800F002FD286800F02DFD06462068B6
:102D2000806A216820F0030088622068806A216838
:102D300040F003008862FFF794FB0121286800F04F
:102D4000ECFC26F04001286800F0E7FC2068806A6F
:102D5000216820F003008862012070BD70B505462F
:102D6000FFF762FB00281CBF022070BDFFF779FB54
:102D7000294C2068806A216840F003008862274857
:102D80005221006800F0C9FC2846FFF7EEF92068E0
:102D9000806A216820F003008862FFF745FB28B1B4
:102DA00000BF00BFFFF740FB0028F9D1012070BD34
:102DB00010B50446FFF738FB00281CBF022010BDE9
:102DC000FFF74FFB1548D821006800F0A6FC20460D
:102DD000FFF7CBF910480168896A006821F0030108
:102DE0008162FFF721FB28B100BF00BFFFF71CFB8A
:102DF0000028F9D1012010BD084810B5B92100689C
:102E000000F08BFC012010BD044810B5AB21006818
:102E100000F083FC012010BD3CB4110058B4110037
:102E2000012101FA00F042490A6810430860414953
:102E3000096808607047012101FA00F03C490A68FE
:102E400022EA000008603B49096808607047384979
:102E5000096821FA00F000F001007047344A116857
:102E600021FA00F313F0010F4FF0010303FA00F011
:102E7000304B05D021EA00001060196808607047E7
:102E8000084310601968086070472A490968096892
:102E900021FA00F000F00100704726490A685268E4
:102EA0000123096803FA00F0104348607047214984
:102EB0000A6852680123096803FA00F022EA000058
:102EC000486070471B490A68126A0123096803FABF
:102ED00000F010430862704716490A68126A01231D
:102EE000096803FA00F022EA0000086270471149FD
:102EF000086840680A6840F00100012350600868D3
:102F000040680A6840F002005060094A106840F0CA
:102F100001001060D1F800C0CCF80000106840F04B
:102F2000020010600968086003480068C3607047C9
:102F30007805002034B411003CB41100704770478C
:102F4000B24810B502683F21D16002680021916447
:102F50000068C0F8B41003210A2000F0A8F9BDE809
:102F600010400A2000F0C7B9A84A13681860136817
:102F700059604843116888607047A44A1368186014
:102F800013685960484310F0010F18BF401C1168C6
:102F9000886070479D490968C1F8B40070479B4933
:102FA00018B10968012088647047096800208864A6
:102FB000704796480168C968006841F00201C16025
:102FC0007047DFF848C210B4DCF800402062DCF83B
:102FD00000004162DCF800008262DCF80000C3629D
:102FE000DCF8001001200863DCF80000406B10F0F2
:102FF000010F09D000BF00BF00BF00BFDCF8000018
:10300000406B10F0010FF5D110F0020018BF4FF027
:10301000FF3010BC70477D480168C968006821F026
:103020000201C160704779480168C968006841F0D1
:103030000101C1607047754BD3F800C0CCF8200087
:10304000186841621868826219680120086418686B
:10305000406C10F0010F08D000BF00BF00BF00BFE0
:103060001868406C10F0010FF6D110F0060018BF80
:103070004FF0FF30704765480168C968006821F06B
:103080000101C160704761480168C968006841F08A
:103090000401C1607047027C017B02F03F0241EAFB
:1030A00002415A4A136899651368016859621368A6
:1030B0004168996213688168D962136801211965B2
:1030C0001168496D11F0010F08D000BF00BF00BFAB
:1030D00000BF1168496D11F0010FF6D11368DB6D67
:1030E00083821368DB6D1B0CC38213681B6E038322
:1030F00013681B6E1B0C438313685B6E838312681B
:10310000526EC2F30E42C28311F0020018BF4FF09C
:10311000FF3070473D480168C968006821F004012C
:10312000C160704701684FEA314238490B68C3F803
:103130009C200A684068C2F8A0000868C068096856
:1031400040F02000C8607047304A13681862106869
:10315000416211680120C1F890001068D0F8980011
:1031600010F0010F09D000BF00BF00BF00BF106802
:10317000D0F8980010F0010FF5D110F0060018BF3C
:103180004FF0FF30704721480168C968006821F09E
:103190002001C16070471D480168C968006841F09E
:1031A0001001C1607047A3F1050C184B10B41C68E6
:1031B000C4F888C0D3F800C0CCF820001868426278
:1031C0001868816219680120C1F880001868D0F879
:1031D000840010F0010F09D000BF00BF00BF00BF86
:1031E0001868D0F8840010F0010FF5D110F0060037
:1031F00018BF4FF0FF3010BC704704480168C96821
:10320000006821F01001C1607047000048B411004F
:10321000234810B502680121116602681021516728
:10322000026841F206015166026800219166026857
:103230000A21C2F8881002689021C2F8841001683F
:10324000D1F88410026841F00101C2F884100268CC
:103250004FF48171116600680166032000F04BF89D
:103260000021032000F023F80E490220096888623B
:10327000002010BD10B5032000F048F808484FF4B6
:1032800080710268116602680021116600681021D1
:103290008167002010BD04490020087070470000BD
:1032A00038B4110044B411007C050020704700F0D0
:1032B0000303DA004FF0FF0C0CFA02F24FF0050C9A
:1032C0000CEBC303994000F00C03002808DA3048E7
:1032D00000681844436911409343194341617047A2
:1032E0002C4800681844D0F8003311409343194328
:1032F000C0F80013704700F01F01012202FA01F12B
:10330000244A4009126842F82010704700F01F015B
:10331000012202FA01F11F4A4009126802EB800003
:10332000C0F88010704700F01F01012202FA01F17D
:10333000184A4009126802EB8000C0F880117047FB
:10334000144909680860704712490968C1F880008B
:10335000704710480068006870470E490968C1F856
:10336000800170470A4800688068704708490A6809
:1033700092680968886010467047054A126892682A
:1033800000F1100352F8230042F8231070470000A8
:103390002CB4110028B41100704770477047704773
:1033A000704770470020704700207047002070472A
:1033B000704770471B4A1168106008467047704795
:1033C00018484068704710B500F0ACF81648042162
:1033D0000268C2F8881002684FF6FF71C2F88C10BC
:1033E00072B600684FF40071016662B610BD72B625
:1033F0000D484FF400310268116662B60068D0F8DB
:10340000040268B14FF6FF71081A0649074A88603E
:10341000A0F50840B93890423CBF4FF00110C86099
:1034200000F085B8800500204CB41100372B1A003D
:103430001A4801684969026841F4007151610168E4
:103440000969026821F006011161016809690068D3
:1034500041F0100101617047104801680969026874
:1034600021F00601116101680969026841F0040157
:10347000116101680969006841F01001016170473C
:103480000649096888607047BFF34F8F03490448B5
:103490000968C860BFF34F8FFEE700002CB411002D
:1034A0000400FA05022824BF00207047874B53F818
:1034B000202043F820101046704770B5844C2068D7
:1034C000006F824D10F0010F06D021680120C86600
:1034D0002868002818BF80472068006F10F0020F8E
:1034E00008BF70BD02202168C8666868002808BF50
:1034F00070BDBDE870400047754810B502680221F4
:103500001165036801221A6603680322DA660068FF
:1035100041650920FFF7EFFE0221BDE810400920B8
:10352000FFF7C5BE6A490220096808657047684907
:1035300002200968486570470020704764480168A8
:10354000096F11F4007F04D000684FF440710166E8
:10355000704700684FF480710166704710B55C4C8D
:103560002068C06F10F0020F4FF0010018BF032059
:10357000226850670520B1FBF0F022684FF4057116
:103580000009C2F8801017F073F9524A524B17F035
:10359000BFF917F029F92168C1F884002068006F8D
:1035A00010F4007F04D021684FF44070086610BD0D
:1035B00021684FF48070086610BD45480168096FA6
:1035C00011F4807F04D000684FF4407101667047A9
:1035D00000684FF40071016670473D4B30B41A68C3
:1035E000D26F12F0010F1DBF0322D3F800C0CCF838
:1035F00074204FF0020C04BF1A68C2F874C04FF078
:10360000020C00EB4005C5EBC0104FF49674C1EB03
:10361000C0004C4300EB8000304904EB4010A1FB9C
:103620000010C0080521B0FBF1F00022B0F5803F8A
:1036300005D3511C4008CAB2B0F5803FF9D242EA26
:103640000C211A6841F01001C2F888101968C1F8FD
:103650008C001868006F10F4807F05D019684FF453
:103660004070086630BC704719684FF400700866F7
:1036700030BC704716480168096F11F4003F04D050
:1036800000684FF440310166704700684FF48031A4
:10369000016670470E480168096F11F4803F04D03D
:1036A00000684FF440310166704700684FF4003104
:1036B0000166704706480068006FC0F3002070473D
:1036C00003480068006FC0F3402070479405002055
:1036D0004CB411007B14AE47E17A843FCDCCCCCC06
:1036E00030B40025DDE9024C056001F00F0141EA2C
:1036F0008C1101600168D2B241EA0221016023F419
:103700007F41016110214160416804F004021143CE
:103710006FF3CF11416030BC7047C26812F0010FE7
:1037200018BF8160C16811F0100FFBD1C16811F0A2
:10373000040F08BF70478168C16811F0040FFAD107
:1037400070470023002A0BDD11F803C0C0F808C041
:10375000D0F80CC01CF0100FFAD15B1C9342F3DBC5
:10376000C16811F0040F08BF70478168C16811F08B
:10377000040FFAD17047FF22C16811F0100FFBD17E
:103780008260C16811F0100FFBD1C16811F0040F05
:10379000FBD08068C0B270470023002AD8BF7047B2
:1037A00010B4FF24D0F80CC01CF0100FFAD18460C4
:1037B000D0F80CC01CF0100FFAD1D0F80CC01CF0DF
:1037C000040FFAD0D0F808C001F803C05B1C9A427D
:1037D000E7DC10BC7047416841F002016FF3CF1184
:1037E00041607047416821F4C17121F47E4141601C
:1037F0007047000070470248006840687047704793
:103800003CB411002C4900200A68906009680860E7
:103810002A494860704710B5274C216848602168E4
:10382000002088600221401EFFF741FD216807202B
:103830000860BDE8104006F087BA1F4900200968FB
:10384000086006F085BA1D49087070471B4800786B
:10385000704710B506F07CFA174900200968086027
:1038600010BD1648806870472DE9F041134C0027C1
:1038700005466780A0684FF47A71B0FBF1F00E4EF8
:10388000401E31684860306887600221C81EFFF71B
:103890000EFD31680720086006F056FA6188A942DB
:1038A000FCD330680760BDE8F04106F051BA044926
:1038B000484302498860704724B411009C050020E9
:1038C00040420F00704770B52C4C05464FF40D5028
:1038D0002168886621680320C866216828484866F0
:1038E00021684CF27100086621682648C1F8800002
:1038F000216842F24630886602210020FFF7D7FC9B
:103900000020FFF7F8FC002D08BF70BD2068806E16
:1039100042F2413108432168886670BD174810B5EE
:1039200002680121916700684FF40D518166002003
:10393000FFF7ECFCBDE810400020FFF7F4BC0F4996
:1039400001200968486770470C49012009688867A9
:1039500070470A494CF271000968086670470748C9
:1039600081B04CF27101026811660168096F02684A
:10397000D1660068006F009001B0704730B411004C
:1039800007383937009C1C9110B500210A20FEF73A
:10399000F5FA8B49887110BD024670200121FEF7AF
:1039A000F8B9024670200021FEF7F3B92DE9F04185
:1039B0000024254672201421FEF79EF9064610F0D9
:1039C000010F18BF012416F0020F18BF44F00204C3
:1039D00016F0040F18BF44F0040416F0080F0DD0C1
:1039E000784844F008040168D1F82C13006841F0CD
:1039F0000401C0F82C130020FCF704FE16F0100F91
:103A000018BF44F0100416F0200F6D4F06D044F09C
:103A1000200400210A20FEF7B1FAB87124B1702009
:103A200001212246FEF7B5F9300A10F0010F18BF48
:103A30001025040A14F0010F4FF0010607D045F0DD
:103A400020053E7000210A20FEF798FAB871200A7E
:103A500010F0010F1CBF45F040057E7025B17020AD
:103A600000212A46FEF795F9B8799C281CBF002052
:103A7000B870BDE8F08199E710B500210A20FEF783
:103A80007DFAC0B200224E499C2804BFCA700A7059
:103A900008D0C878401CC0B2C870032882BFCA7062
:103AA000012010BD002010BD10B5454C6079401CB0
:103AB000C0B26071142818D900210A20FEF75EFAFE
:103AC000A279C0B20021824204BF217161710CD081
:103AD0006079401E60712079401CC0B220710328BB
:103AE00003D921716171012010BD002010BD10B5F6
:103AF000C9200021FEF700F9002010BD70B5742424
:103B0000002133222046FEF744F901210D462A46C2
:103B10002046FEF73EF902212A462046FEF739F9F3
:103B200003212A462046FEF734F97020012177222E
:103B3000FEF72FF90C20FFF7DEFB00210C20FFF72A
:103B4000B6FBC82000211422FEF723F91C4C0020EC
:103B50000146A0700A20FEF711FAA07170BD70B581
:103B6000FFF7A2FF20B10020FFF765F9FEF737FA53
:103B7000134C00252078B0B100210A20FEF7FEF991
:103B8000C0B29C2804BFE57025700CD0E078401CC2
:103B9000C0B2E070032806D9E57025700020FFF759
:103BA0004AF9FEF71CFA6078002808BF70BD6570FE
:103BB0000020FFF740F9BDE87040FEF710BA0000A2
:103BC000A805002040B4110070B5FE4C00254FF44C
:103BD000906125706570FC4816F04DF94FF49061C6
:103BE000FA4816F048F94FF49061F94816F043F995
:103BF0006560A5708021F74816F03DF9BDE870407A
:103C00008021F54816F037B9EE488078002818BFB3
:103C100001207047EB484078002818BF012070470A
:103C200070B50546ED48EE490078097800FB01F4CF
:103C3000FFF79AF9E64A2B46A2F510610846FFF70E
:103C4000C0F962002946E24816F074F8DD49012007
:103C5000487070BD2DE9F0411D4616460F4680465E
:103C6000069C00F0BDFE022802D109F060FA28B1DE
:103C700000F0B6FE052808BF06F05FFAFFF75EF910
:103C800021462846FFF779F93A4631464046FFF784
:103C9000D2F9BDE8F041FFF752B9CA484068704711
:103CA000D04A10B5127801469200CA4816F042F880
:103CB000C4490120887010BD2DE9F04FDFF804934E
:103CC000002689B099F8018099F80270B346FDF793
:103CD0008BFCC5480168496C026841F4006151647D
:103CE00000BF0168496C006821F400614164BF496C
:103CF0000220096808660020FCF7FFFFFDF7ADFA17
:103D000005F06DFB01280BD06846FDF77CFD00280F
:103D1000F6D0684605F0C3FF029870B11FB10CE001
:103D20004FF0010B66E00146AE4800788200A948DA
:103D300016F000F8012089F802000198002851D0FF
:103D4000B8F1000F4ED1044699F8000090BBD9F8A5
:103D500004507DB3A14800780790A14890F800A0D6
:103D600000F03EFE022802D109F0E1F928B100F08E
:103D700037FE052808BF06F0E0F9FFF7DFF85146E7
:103D80000798FFF7FAF821462A460846FFF753F945
:103D9000FFF7D5F8DFF858A29AF80000022804BF10
:103DA000284605F015FE9AF80000092804BF2046B1
:103DB00005F00EFE2546894889490078097800FB00
:103DC00001F4FFF7D1F8824A2B46A2F510610846AC
:103DD000FFF7F7F8620029467D4815F0ABFF012098
:103DE00089F80100FDF72CFD761C042E88D3BBF169
:103DF000000F03D089F8018089F802700120FCF7D8
:103E000022FF7A4802210068016609B05846BDE8E1
:103E1000F08F6C48002101704EE738B50F2100F09B
:103E2000AEFE684C012806D100202070FFF744FF49
:103E3000009000F027FF607800281BBFA0780028C2
:103E40000020012038BD0F2138B500F098FE5D4CF0
:103E5000012806D100202070FFF72EFF009000F00F
:103E600011FF607800281BBFA078002800200120E7
:103E700038BD0021534841708170704752487047E7
:103E80005248704770B505464FF490614E4815F0A2
:103E9000F2FF4FF490614E4815F0EDFF494C294672
:103EA0004948227800F057FB22782946BDE8704047
:103EB000474800F050BBF0B4484A434B0021147807
:103EC0008C4603F510650022002C13D933F91160DC
:103ED00030F91170BE4253F81160B4BFB61CB61E63
:103EE00043F8116033F9116045F81160491C521C08
:103EF000A242EBD30CF1010CBCF1020FE3D3F0BCF6
:103F00007047002818BF01202E49487070472DE9DE
:103F1000F04FDFF8B0A083B05FEA000872D0002550
:103F20004FF410792C4600F05BFD052808BF0125F1
:103F300005D009F0FCF800280CBF2E4C2E4C2F4861
:103F40002F4F00687969806BFF3100F5E03021F078
:103F5000FF01503005FB010600F042FD022807D1A9
:103F600009F0E5F820B97869FF3020F0FF00064439
:103F700000F036FDDFF864B0022803D109F0D7F86D
:103F8000002856D000F02CFD052802D106F0D5F807
:103F9000B8B10025771C304601226946FEF722F9A8
:103FA0007E1C012201A93846FEF71CF90198002C5D
:103FB000C1B2009861F31F2000B2414628F81500F5
:103FC00021E036E0B0050020D4160020541B00206C
:103FD000D41F0020542D0020D42D0020BA0500202D
:103FE000BB050020C105002040B411003CB4110005
:103FF0002D06002084080020BC590020B4060020B3
:10400000B806002010E018BF24F815006D1C4D45BF
:10401000C0D3FF489BF80020FC4B0078504342007F
:10402000184615F087FEF948CAF8040003B0BDE849
:10403000F08F4023002084466146424628F810C095
:10404000002C18BF24F81010401C9842F4D3F048FC
:1040500011469BF800200078EE4B50434200184672
:1040600015F068FEEB48DFE710B509F060F80228AC
:10407000E94BE74AE5480AD01B781278E7495A43EA
:10408000520015F057FEE649E048486010BD1B7825
:104090001278E4495A43520015F04CFEF3E710B58C
:1040A000DF4C002804BF606010BDDFF860C3DA4950
:1040B0000B78D7490A7801465A435200604615F0FA
:1040C00039FED248606010BDD7487047002818BF3D
:1040D0000120D34988707047D149002200284A70D6
:1040E0008A7018BF01200870E6E510B54FF44C3017
:1040F0001422CE49FEF776F8CC4810BD10B54FF427
:104100004C301422C949FEF76DF8C848006810BD4C
:1041100010B54FF44C301422C449FEF763F8C3487D
:1041200010BD0268B2F1FF3F15D0052904BFC07A67
:10413000704728DC012904BF00797047022904BFB9
:10414000007A7047032904BF407A7047042904BFEE
:10415000807A704727E0052913D007DC012922D097
:1041600002291CBF032904290BD01CE0142912BF0B
:1041700015292D207047162904BF282070471729BC
:1041800011D100207047142904BF007B7047152906
:1041900004BF407B7047162904BF807B70471729F6
:1041A00004BFC07B7047FF20704770B5C0B00024CB
:1041B0004FF48071684615F05EFEFF224FF44C36D6
:1041C000511C684615F02DFEFF21254661F30705B9
:1041D0002D22214662F3070162F30F2128224BF6BC
:1041E000BB3062F3174164F31F61CDE90005CDE9EF
:1041F000024104943046FEF7FBF869463046FEF76C
:1042000010FA40B070BD2DE9F04FC1B00446DDE9B1
:104210004A9887489A4693460D4601602068B0F157
:10422000FF3F08BFFFF7C1FFD4E901106BF30700A0
:104230006AF30F20266869F31740D4E9037465F325
:10424000070168F31F600D468046FF22511C684637
:1042500015F0E7FDCDF80880CDE90374CDE90065E0
:104260004FF44C342046FEF73BF969462046FEF7F2
:10427000D8F9012818BF002041B0BDE8F08F2DE922
:10428000F04F174688468146C1B000244FF44C30A9
:1042900014226649FDF7A6FF644B1D68B5F1FF3F88
:1042A00002BF204641B0BDE8F08FFF22D3E902A44F
:1042B000511C6846D3F810B05E6815F0B2FD69F382
:1042C000070468F30F2467F31744012060F31F64A9
:1042D000CDE902A4CDE900564FF44C34CDF810B02E
:1042E0002046FEF7FDF869462046FEF79AF941B0F0
:1042F000BDE8F08F2DE9F04F4E4F0025C1B07E4252
:10430000A8464FF44C3014224849FDF76BFF474C48
:10431000172120462368FFF704FF84461421204616
:10432000FFF7FFFE4BF6BB3140B28B4204D1BCF12C
:10433000000F0FD12D280DD02160FF20207100200B
:1043400020726072A072E0722D21217361732821A6
:10435000A173E07314212046FFF7E3FE40B20390FF
:1043600015212046FFF7DDFE40B2029016212046BF
:10437000FFF7D7FE40B2019016212046FFF7D1FE8D
:10438000404240B20090FCF7F7FE10F0020F7CD0E4
:104390001F48294A4FF0000990F800C01E480078D5
:1043A0000028C8BFACF1010A1EDD0021BAF1000FE0
:1043B00016DD01F1010B01FB00930BFB009B32F8B2
:1043C000133032F81BB0A3EB0B031BB2002BB8BFAA
:1043D0005B421BB24345C8BF9846491C5145E8DBC8
:1043E00009F101098145E0DB02994145B8BF45F07B
:1043F00002054FF00009CA46BCF1000FC8BFA0F18A
:10440000010B34DD0021BBF1000F17E05424002024
:10441000BB050020D4280020BA0500208408002015
:10442000B0050020BC590020542D0020542E00203F
:1044300070050020F1D8FFFFD416002013DD0AFB21
:10444000001332F813E002EB43035B88AEEB030387
:104450001BB2002BB8BF5B421BB24B45C8BF99468D
:10446000491C5945EBDB0AF1010AE245CADB039915
:104470004945B8BF45F004054FF0000ABCF1000FF4
:1044800015DD002300280EDD00E018E00AFB0031F6
:1044900032F91110B942C8BF0F46B142B8BF0E463B
:1044A0005B1C8342F0DB0AF1010AE245E9DB01987B
:1044B000B84202DB0098B04201DD45F0080509F082
:1044C000FF0040907042C6B2274808F0FF08FFB2D4
:1044D00005602068B0F1FF3F08BFFFF766FED4E932
:1044E000020A4099D4E9009B61F3070068F30F20AA
:1044F00067F3174066F31F600646FF22246965F3E1
:10450000070B511C684615F08CFCCDF80090CDE9E6
:1045100003A4CDE901B64FF44C342046FDF7E0FF8B
:1045200069462046FEF77DF81D208DF800004120E9
:104530008DF8010000208DF802508DF804008DF8F0
:1045400003008DF8050006226946072008F012FADC
:1045500041B0BDE8F08F054A1378054A12785A43F6
:10456000520015F0E7BB000070050020BA050020DE
:10457000BB0500202DE9FF4F87B0002006903220B8
:104580004FF000091446CDF80C900590FE484FF00E
:10459000FF3A4F460678FD48C8460078CDF80090AF
:1045A000CDF80490049000F01BFA05280CBF1E25DE
:1045B0001425FFF763FC029004984FF0000C0028CC
:1045C000C8BF4FF0020E64DD0021002E51DD0CFB50
:1045D0000610079A80B232F910B0AB45C4BF09F19A
:1045E00001020FFA82F934F91020AA420EDD039B72
:1045F0005B1C1BB203935245C4BF059B9A4205DD69
:104600001FFA8CF301938BB292460093029B33F90D
:1046100010309A1A12B2BBF1000F13DA002AB8BF99
:104620005242002BB8BF5B4293420BDA1BF1640F7E
:10463000BCBF0A9BA3F800E0079A32F81030089A32
:1046400022F8103034F91020002A0ADA9742B8BF55
:10465000174612F1460FBCBF08F101001FFA80F89F
:1046600003E0089B002223F81020481C01B2B1424D
:10467000ADDB0CF101000FFA80FC04988445A3DB4C
:10468000B8F1640F02D90A9807210180002FB8BF42
:104690007F42574514DCB9F1000F1CBF0398002876
:1046A0000ED0A6F101094FF000081FFA89F7BAF100
:1046B000000F01DD069838B10BB00120BDE8F08F86
:1046C0000BB00020BDE8F08FDDE9000101FB060E14
:1046D00034F91E3003EBD370B3F1FF3F4FEA6000B3
:1046E000B8BF404202B201FB06F01FFA80FC0098FE
:1046F00000B28346012839DB0CEB000189B2002BA4
:1047000018DD34F911A004EB410131F9021CBAEBB8
:10471000010A06D50029B4BFC1F1000A8A469245B4
:1047200004DB0029B8BF4942A9421BDA401E1FFA28
:1047300080F81BE016DA34F911A004EB410131F9DD
:10474000021CAAEB010ABAF1000F06DD0029B4BF72
:10475000C1F1000A8A469245E8DB0029B8BF494208
:10476000A942E3DB401E00B20128C5DACB4536DAA8
:104770000CEB0B0080B2002B16DD34F9101004EBAB
:104780004000B0F90200091A05D50028B4BF414223
:104790000146914204DB0028B8BF4042A84218DA23
:1047A0000BF1010087B21AE013DA34F9101004EBB0
:1047B0004000B0F90200091A002905DD0028B4BF45
:1047C000414201469142EBDB0028B8BF4042A8427B
:1047D000E6DB0BF101000FFA80FBCB45C8DB01984B
:1047E000DDF808C000FB068083B201983CF913C0D5
:1047F00000FB067034F8133082B2ACEB03031DB239
:104800000298029B1FFA8EF130F9110033F9123031
:1048100034F8111034F81220411A9A1A09B212B25F
:104820004C1B48BF6C1A8D1A48BF551A61190CB23F
:10483000B0EB0C0148BFACEB0001C21A48BF1A1A1A
:10484000881800B28442B8BF4FF0FF30BFF634AFD3
:104850000BB0BDE8F08F2DE9F05FDFF834A18046A2
:104860000026DAF80000374690F8241100291CBF12
:10487000B0F8300100286CD0FCF76DFDDAF80010BC
:1048800091F82411B0FBF1F201FB1200002860D175
:1048900001F084FC5FEA00095BD03E4800781028F4
:1048A00004BF484605F094F837484FF0000C4446E2
:1048B00090F800B03548634690F800E0BEF1000F74
:1048C00019DD34F9020B0125BBF1010F10DD34F9BC
:1048D000022B101A01B20029B8BF494208B2604544
:1048E00002DD84461E462F466D1C10465D45EEDBFC
:1048F0005B1C7345E5DBDAF80020B2F83001844533
:1049000027DB06FB0B7008EB400338F8101033F878
:10491000023CC91A39F8103009EB400009B230F8EE
:10492000020C181A081A00B20028B4BF434203460A
:104930000029B8BF49428B420BDA0028B8BF404279
:10494000B2F83211884204DA01F032FC0020BDE8EE
:10495000F09F0120BDE8F09F70B515460E46044655
:1049600008F0E5FB002C18BF70BD042818BF05280F
:1049700006D00748006890F82400A84288BF70BDA0
:104980003046BDE8704007E0BA050020BB050020B6
:10499000F80600202D060020FFF782B970B51546F5
:1049A000044608F0C4FBB4F1FF3F0AD0002C18BF46
:1049B00070BD002D08BF70BD2846BDE87040FFF7F0
:1049C0002FB9002D08BF70BD2846BDE87040FFF725
:1049D00059BA10B506F03EFD06F0D8FD002010BD16
:1049E000AC4800787047AB480078022805D005280D
:1049F0001CBF0020704705F0A0BB08F098BBA5497C
:104A00000870704710B50446072C28BF10BDDFE8BA
:104A100004F016040810160C0800084600F044F9CB
:104A20000DE0084608F078FB09E0084605F07AFB3F
:104A300005E0084607F0FEFF9749012008709548F9
:104A4000047010BD954900200968B1F8641011F494
:104A5000807F08BF7047FDF7EEB8904900200968D5
:104A6000B1F8641011F4807F08BF7047FDF70BB9EF
:104A70008A4900200968B1F8641011F4806F08BFFA
:104A80007047FDF724B98349487800281CBF401EB1
:104A90004870704710B572B6FEF740FFBDE8104091
:104AA000FEF7F2BC10B57E48FDF7A2FC72B6FEF729
:104AB00035FFBDE81040FEF7E7BC76480069704757
:104AC0007448C068704773494861704771484069CD
:104AD000704710B5FCF77DFAFBF70CFDFCF701F908
:104AE000FFF7C2FABDE81040FCF7E5BF10B5FCF7D0
:104AF00070FAFBF7FFFCFBF782FFFCF7F2F8BDE86A
:104B00001040FCF7D8BF30B5ADF2844D05464FF4E8
:104B10009061684615F0AFF95E4C2846256106F0B5
:104B2000ADFBE060F0B10278A2704178E17083786B
:104B30002371531C03F0FE0363710023E37123729E
:104B40004FF0120C84F806C004F10A0C8CF8003007
:104B50008CF80130007860721046FCF781FC0DF291
:104B6000844D30BD4D480068B0F8640010F4807F7B
:104B700018BFFDF788F800200DF2844D30BDF0B568
:104B8000ADF2CC4D0F4604464FF49061684615F0E7
:104B900072F9404D20462C6106F070FBE860002859
:104BA00051D00278AA7041780446E9708078287163
:104BB000501C00F0FE0068710020E871287212237A
:104BC000AB7105F10A0318705870207868721046AE
:104BD000FCF746FC0DF59061204606F06CFB608A00
:104BE0006E6900281CBF7043060B002017F0040FED
:104BF00018BF062017F0080F18BF40F00200616AC6
:104C00000840DDF88014CDF8C014DDF89C14CDF810
:104C1000C414DDF89014CDF8C8140DF59861FCF7B4
:104C2000EBF9DDF88C0420B13346EA78A97805F079
:104C3000BDFD6421304605F06CFE287802280FD0B7
:104C4000052810D017E015480068B0F8640010F48B
:104C5000807F18BFFDF717F800200DF2CC4DF0BD96
:104C600008F065FA01E005F068FA022804BFDDF8F3
:104C70009404FFF74CF9002001F08FFA0DF2CC4DAF
:104C80000120F0BD10B5FCF76FFA02490020C860A2
:104C9000012010BDB80500203A070020F8060020CA
:104CA00000FE1100F9487047F94948707047F8480C
:104CB00040787047F74810B4F74A0168914218D11C
:104CC0004168B1F5887F14D80022D0F808C00346A7
:104CD0001146B2EB9C0F24BF10BC704753F8214023
:104CE000491C2244B1EB9C0FF8D3002A04BF10BC2E
:104CF0007047002010BC70474FF4FC30FDF7F0BB4C
:104D00002DE9F0410446E3480E46E34F0168B942FD
:104D100013D14168B1F5887F0FD80023D0F808C0BF
:104D200001461A46B3EB9C0F08D251F82250521C90
:104D30002B44B2EB9C0FF8D303B10020002558B1EF
:104D4000B0E80E10A4E80E10B0E80E10A4E80E10A3
:104D50000FC884E80F0016E0FF223021204615F02E
:104D600060F84FF48870C4E900703020C4E902058F
:104D7000AA20C4E904054FF0FF30E062A062A561FB
:104D80006062C4E9075066B94FF4FC30FDF7A8FB38
:104D9000C248056045608560C56005614561856103
:104DA000C5610120BDE8F081B94901204870704714
:104DB000B74900200870704770B5ADF5107D044606
:104DC000FFF77EFE054614F0020F04BF0DF5107DBF
:104DD00070BD0426FFF707FE002818BFB04C08D0AE
:104DE00095F92C102246304606F08AFA0DF5107D12
:104DF00070BD6C462046FCF727FDF1E770B50D4607
:104E000006461024FFF75CFE16F0020F18BF0524BB
:104E10002A46102C28BF70BD002A08BF70BD204450
:104E200090F928102046BDE8704006F069BA2DE9D7
:104E3000F04F87B08146122000244FF0200A274609
:104E40000090FFF7CDFD022802D108F070F930B1D3
:104E5000FFF7C6FD052804D105F06FF908B9022057
:104E600000900098002500289CBF07B0BDE8F08F97
:104E70000026BAF1000F7CD98A4A681EA2FB0031D5
:104E80004908A1EB810108440590E81E0490A81F81
:104E90000390C01E0290C01E0190A2FB05104008A6
:104EA000A0EB8000A5F10F0B00EB0508FFF798FDC4
:104EB000022803D108F03BF900283AD0FFF790FD13
:104EC000052803D105F039F9002832D0032D38BF69
:104ED000142417D30498032838BF152412D3039839
:104EE000032838BF16240DD30298032838BF242482
:104EF00008D30198032838BF252403D3BBF1030F3F
:104F000038BF2624A7420AD06748C4F303112746B6
:104F10000068C16104F00F017F20FBF795FAC4F32C
:104F2000031001281CBFC6F11F0000EB481018D168
:104F300027E0002D0CBF14242424A74209D05A488E
:104F4000210927460068C16104F00F017F20FBF7AB
:104F50007BFA2009012814D00598C6F11F0101EB46
:104F6000401019F8011BC0B2FBF76EFA761C5645CB
:104F70009CD300986D1C8542FFF47AAF07B0BDE862
:104F8000F08F06EB4810ECE72DE9F84F83464048D8
:104F90004FF0000A0C46B0F904804FF012092027A8
:104FA00050460091FCF756FA0546CBF10706FFF78D
:104FB00017FD022802D108F0BAF830B1FFF710FD52
:104FC000052804D105F0B9F808B94FF00209BBF182
:104FD000000F1CD0002E55DB4FF0000CB9F1000F74
:104FE00049D9012101FA06F3701E01FA00FB0021E4
:104FF000002F3CD935F8020B2278A0EB080000B254
:105000005FEAD21E23D0002827DA2EBB1BE0002344
:10501000B9F1000F2FD90021002F10D935F8022B3C
:105020002078A2EB080212B2502AC8BF40F08000DC
:1050300040F04000491C04F8010BB942EED35B1C60
:105040004B45E8D317E010F1280F05DB0AE00028F4
:1050500003DD0EB9282805DD9A43002EC4BF4BEAB4
:105060000200C2B204F8012B491CB942C2D30CF1B0
:10507000010CCC45BBD30098FFF7D9FE002E08BF2A
:105080004FF0010A5046BDE8F88F0000542F002071
:10509000D005002000F8110054435246B4160020F9
:1050A00094310020ABAAAAAA40B41100FD4988801F
:1050B000704770B5FB4EFC49F08009680320C86159
:1050C0000425E9B27F20FBF7BFF90024B179E0B2F3
:1050D000FBF7BAF904F12000B179C0B2FBF7B4F9DB
:1050E00004F14000B179C0B2FBF7AEF9641C202C8A
:1050F000ECDB6D1C072DE4DB70BD2DE9F04F89B0B2
:105100000026FBF766FFE849072009680865E748BD
:10511000016841F0200101600020FFF7CAFFE1496A
:105120004FF4006088804FF41071E14814F0A3FE42
:105130000020FBF7E2FDFCF7B9F800252C460795A7
:10514000FFF751FC04F04BF901281DD06846FCF72D
:105150005AFBB8B10120FBF7D0FD684604F09FFD73
:105160006D1C012D0ED00025D1492046FFF70CFF04
:10517000072C1ED00020FBF7C0FDFCF761FBFCF7FD
:1051800095F8641C002EDDD0FFF72DFCC54AC948F8
:10519000C74BD0600020D16813F800C0401C01F854
:1051A00001CBD160B0F5107FF5D3079800283CD132
:1051B00035E012200890BB4800274FF0200BB0F9D3
:1051C00004603846FCF746F90546BA460024BBF1B0
:1051D000000F18D9304615F034FBB74AB74B15F01D
:1051E00097FB8946804635F9022B901B48BFB01AC1
:1051F00015F027FB42464B4615F088FC38BF7F1C54
:10520000641C5C45EFD308980AF1010A8245DDD39E
:10521000002F4FF001061CBF01200790B4E7002EBD
:105220001EBF002009B0BDE8F08F012009B0BDE825
:10523000F08FF0B587B000260120FBF704FD9B48F6
:10524000016841F0200101600020FFF732FF95491D
:105250004FF4006088809A490020C1F88000C1F8AE
:105260008400C1F88800C1F88C00C1F89000C1F832
:105270009400C1F89800C1F89C00C1F8A000C1F8E2
:10528000A400C1F8A800C1F8AC00C1F8B000C1F892
:10529000B400C1F8B800C1F8BC00FBF72EFDFCF764
:1052A00005F800252C462F4604F099F8012835D042
:1052B0006846FCF7A8FA78B30120FBF71EFD6D1CC9
:1052C000012D24D000257F492046FFF75DFE072CE5
:1052D00006D00020FBF711FDFBF7E8FF641C1BE084
:1052E000002420252046FCF7B5F8002130F9022BD8
:1052F000A2F26662B2F54D7F88BF641C491CB1EB17
:10530000450FF3D3002C08BF01260DD106E0002085
:10531000FBF7F3FCFBF7CAFF002EC5D027B9002E20
:105320001EBF002007B0F0BD012007B0F0BD2DE981
:10533000F04F83460021ADF5137D634890910C46F4
:1053400000780F460D46022808BF012703D0052824
:1053500004BF02240427DFF850914FF0010A00F047
:10536000A1B9204605F08AFF002800F09A81008943
:1053700000EA0B0626F0CC0030F47C4000F091816E
:10538000DFF84881D8F800004069D8F8001040F4F0
:1053900000704861D8F800000069D8F8001020F0CB
:1053A00006000861D8F800000069D8F8001040F045
:1053B000100008613CB1012C35D0022C71D0032CB7
:1053C00055D000F0FDB802210846FFF71BFB012075
:1053D000FBF739FC05F0BBFD0F212046FFF7CFFBA3
:1053E000002800F05E81D9F80000406CD9F8001068
:1053F00040F40060486400BF00BF00BFD9F800005F
:10540000406CD9F8001020F400604864FBF7AFFB53
:1054100005F086FD012007F082FF0020FBF76DFC00
:10542000FCF70EFACCE000210220FFF7EBFA012096
:10543000FBF709FC0F212046FFF7A1FB002800F035
:105440003081D9F80000406CD9F8001040F40060B9
:10545000486400BF00BF00BFD9F80000406CD9F815
:10546000001020F400604864FBF781FBA8E00021F5
:105470000520FFF7C7FAFBF7ACFDD8F8000000697C
:10548000D8F8001020F006000861D8F80000006984
:10549000D8F8001040F004000861D8F80000006956
:1054A00016E03EE0D005002040B411006405002065
:1054B00094310020542F00209A9999999999B93FD5
:1054C00054330020D4330020250600202CB41100D2
:1054D000D8F8001040F01000086113F0FCFC0F2118
:1054E0000220FFF74CFB00287ED0DFF884850720E0
:1054F000D8F800108860D8F8001004204860022115
:105500002020FBF7ADFF0020FBF7F7FBFBF7A5FE24
:10551000D8F800000068D8F8001040F001000860DA
:105520004EE002210520FFF76DFAFBF752FDD8F897
:1055300000000069D8F8001020F006000861D8F8D3
:1055400000000069D8F8001040F004000861D8F8A5
:1055500000000069D8F8001040F01000086113F056
:10556000BAFC05F0DDFC0F210320FFF708FB002843
:105570003AD0DFF8FC847F20D8F800108860D8F893
:10558000001002204860D9F80000406CD9F80010E3
:1055900040F400604864012007F05BFCD9F800008B
:1055A000406CD9F8001020F400604864FBF755FE09
:1055B000D8F800000068D8F8001040F0010008603A
:1055C0009098002868D116F0010F27D00120FBF732
:1055D0003AFB0020FBF7B1FBFFF705FA98B1FCF7A7
:1055E00003F8FF210F2000E05BE0FFF786FD2AEAC9
:1055F000000005430020FBF780FB0120FBF79DFB2B
:10560000909888BB0AE0FBF7EFFFFF210F20FFF720
:1056100010FE2AEA000045EA4005EBE716F0060F07
:1056200022D0FFF7E0F902281ED1FEF7CDFA0020C4
:10563000FEF752FD0120FBF706FBFEF71FFC0646B6
:10564000FFF73EFA0523320004D090F92D101846DA
:1056500005F056FEFEF712FCFEF721FDFEF70EFCEC
:105660004FF4906114F0E5FBFFF72AFA804604201E
:105670009190FFF7B8F9002818BFFE4E20D098F996
:105680002C103246919805F03BFEFB490020087033
:10569000FA490870FBF7E1FDFFF7A2F9F84880F836
:1056A00000A0641CBC4203D2909800283FF459AE7D
:1056B000F449002008700DF5137D2846BDE8F08FF1
:1056C0006E463046FCF7C0F8D9E770B5ED48CCB06F
:1056D0004578FFF785F901287ED1EB480068B0F9DD
:1056E0003610B0F9340005F087F915F0020F74D0C8
:1056F000002140A8FFF704FB4598401C459040F26C
:105700007770FFF714FEC0B2032810D0002804BF42
:1057100045F25000449012D0012808BF4AF25010C0
:105720000CD0022808BF45F2A10007D007E04AF2DA
:10573000A11044904698401C469008E04490479839
:105740000022401C47902121072007F0EAF840ACD6
:1057500005F085FD40B181694891C1694991416970
:105760004A91C0684B9005E04FF0FF304B904A9053
:1057700049904890C54840904FF48870419030203F
:10578000429000204390A3682246014652F820C070
:10579000401C6144B0EB930FF8D34E42FF22511CE2
:1057A0006846E66014F03DFBA268F4E804018DE869
:1057B00047000FCC04AE86E80F0094E80F0008AE57
:1057C000203C86E80F004FF4FC306946FCF729FFC7
:1057D000AF4922680A6001E021E00CE062684A609B
:1057E00022698A606269CA60A2690A61E2694A61E3
:1057F000226A8A610CE015F0010F09D040F22220E4
:10580000FFF795FD20B900222121072007F089F834
:10581000FEF72FFB2A464021072007F082F84CB004
:10582000BDE8704003F0D7BD70B50C4699490546F8
:1058300003200968C86101217F20FAF705FE0021D5
:105840007520FAF701FE01217620FAF7FDFD6021AF
:105850000820FAF7F9FD00210920FAF7F5FD3021BB
:105860000A20FAF7F1FD00210B20FAF7EDFD0521E2
:105870000E20FAF7E9FDE1B22620FAF7E5FDE1B2E4
:105880002720FAF7E1FDE1B22820FAF7DDFDE1B2C9
:105890002920FAF7D9FDE1B22A20FAF7D5FDE1B2C5
:1058A0003020FAF7D1FDE1B23120FAF7CDFDE1B2B7
:1058B0003220FAF7C9FDE1B23320FAF7C5FDE1B2B3
:1058C0003420FAF7C1FDE1B23620FAF7BDFDE1B2AE
:1058D0003720FAF7B9FDE1B23820FAF7B5FDE1B2A9
:1058E0003920FAF7B1FDE1B23A20FAF7ADFDE1B2A5
:1058F0004020FAF7A9FDE1B24120FAF7A5FDE1B297
:105900004220FAF7A1FDE1B24320FAF79DFDE1B292
:105910004420FAF799FDE1B24620FAF795FDE1B28D
:105920004720FAF791FDE1B24820FAF78DFDE1B288
:105930004920FAF789FDE1B24A20FAF785FDE1B284
:105940005020FAF781FDE1B25120FAF77DFDE1B276
:105950005220FAF779FDE1B25320FAF775FDE1B272
:105960005420FAF771FDE1B25620FAF76DFDE1B26D
:105970005720FAF769FDE1B25820FAF765FDE1B268
:105980005920FAF761FDE1B25A20FAF75DFDE1B264
:105990006020FAF759FDE1B26120FAF755FDE1B256
:1059A0006220FAF751FDE1B26320FAF74DFDE1B252
:1059B0006420FAF749FDE1B26620FAF745FDE1B24D
:1059C0006720FAF741FDE1B26820FAF73DFDE1B248
:1059D0006920FAF739FDE1B26A20FAF735FD0221B4
:1059E0007F20FAF731FD6A210220FAF72DFD8E2182
:1059F0000420FAF729FDF3210720FAF725FD0421F9
:105A00000820FAF721FD15B1012D05D008E0042189
:105A10000620FAF719FD03E008210620FAF714FD25
:105A200003217F20FAF710FD21211020FAF70CFD49
:105A300000211120FAF708FD00211220FAF704FDD9
:105A400000211320FAF700FD00211420FAF7FCFCD6
:105A500000211520FAF7F8FC01211620FAF7F4FCD2
:105A600002211720FAF7F0FC0021182014E00000B2
:105A700044B4110094310020380700203907002079
:105A80003A070020D0050020F80600205443524673
:105A9000B416002040B41100FAF7D6FC00211920FA
:105AA000FAF7D2FC00211A20FAF7CEFC00211B20C5
:105AB000FAF7CAFC01212020FAF7C6FC2021212098
:105AC000FAF7C2FC00212220FAF7BEFC00212320B5
:105AD000FAF7BAFC00212420FAF7B6FC00212520B1
