:100000000110010038000000202F0000FF00000058
:10001000021630E490029BF0A3F022022860E4F57F
:10002000E3439F107F03FEFDFC122DE6439F027FFA
:10003000037E007D007C00122DE6539FEF75BE0EFF
:10004000E4F5BFF5B975927622FFFF02266053BA38
:10005000FEE5B920E004E51D6005E5B930E1FBE40B
:10006000F5BF53B9FD53B9FEF51D22021C66BB0155
:100070000689828A83E0225002E722BBFE02E32245
:1000800089828A83E49322BB010989828A83F8E00A
:1000900028F022500327F722BBFE05F8E328F322BD
:1000A0008A838982F8E4932822BB010689828A83A5
:1000B000F0225002F722BBFE01F322EF8DF0A4A83C
:1000C000F0CF8CF0A428CE8DF0A42EFE22C5F0F83F
:1000D000A3E028F0C5F0F8E582158270021583E0F0
:1000E00038F022BB0110E58229F582E5833AF583D9
:1000F000E0F5F0A3E0225009E92582F886F008E651
:1001000022BBFE0AE92582F8E2F5F008E222E58347
:100110002AF583E993F5F0A3E99322F8BB0111E5F1
:100120008229F582E5833AF583E8F0E5F0A3F02231
:100130005009E92582C8F608A6F022BBFE09E92588
:1001400082C8F2E5F008F222EF2BFFEE3AFEED391D
:10015000FDEC38FC22C3EF9BFFEE9AFEED99FDEC1F
:1001600098FC22E88FF0A4CC8BF0A42CFCE98EF054
:10017000A42CFC8AF0EDA42CFCEA8EF0A4CDA8F00F
:100180008BF0A42DCC3825F0FDE98FF0A42CCD35D3
:10019000F0FCEB8EF0A4FEA9F0EB8FF0A4CFC5F03D
:1001A0002ECD39FEE43CFCEAA42DCE35F0FDE43C36
:1001B000FC2275F008758200EF2FFFEE33FECD3381
:1001C000CDCC33CCC58233C5829BED9AEC99E582C8
:1001D00098400CF582EE9BFEED9AFDEC99FC0FD554
:1001E000F0D6E4CEFBE4CDFAE4CCF9A88222B80044
:1001F000C1B90059BA002DEC8BF084CFCECDFCE50F
:10020000F0CBF97818EF2FFFEE33FEED33FDEC3332
:10021000FCEB33FB10D703994004EB99FB0FD8E5B7
:10022000E4F9FA227818EF2FFFEE33FEED33FDEC00
:1002300033FCC933C910D7059BE99A4007EC9BFCF6
:10024000E99AF90FD8E0E4C9FAE4CCFB2275F01082
:10025000EF2FFFEE33FEED33FDCC33CCC833C810A7
:10026000D7079BEC9AE899400AED9BFDEC9AFCE8D5
:1002700099F80FD5F0DAE4CDFBE4CCFAE4C8F92222
:10028000EB9FF5F0EA9E42F0E99D42F0EC6480C8F5
:1002900064809845F022EB9FF5F0EA9E42F0E99DDC
:1002A00042F0E89C45F022E8600FECC313FCED132C
:1002B000FDEE13FEEF13FFD8F122E8600FEFC3331A
:1002C000FFEE33FEED33FDEC33FCD8F122BB010D24
:1002D000E58229F582E5833AF58302032B5007E98D
:1002E0002582F802044DBBFE07E92582F802033798
:1002F000E58229F582E5833AF583020459BB0107BB
:1003000089828A830203B15005E9F8020486BBFEA4
:1003100005E9F80203BD22BB010DE58229F582E55E
:10032000833AF5830203B15007E92582F802048677
:10033000BBFE07E92582F80203BD22E0FCA3E0FD35
:10034000A3E0FEA3E0FF22E2FC08E2FD08E2FE08D3
:10035000E2FF22E0F8A3E0F9A3E0FAA3E0FB22E247
:10036000FB08E2F908E2FA08E2CBF822BB010789B0
:10037000828A830203435005E9F8020469BBFE0543
:10038000E9F802034F89828A830204767401FF33FD
:1003900095E0FEFDFCA3A3A3E0CF2FF0E58215823C
:1003A00070021583E0CE3EF0E5821582700215835F
:1003B000E0CD3DF0E582158270021583E0CC3CF083
:1003C00022ECF0A3EDF0A3EEF0A3EFF022ECF208A4
:1003D000EDF208EEF208EFF222A8828583F0D083D6
:1003E000D0821203E01203E01203E01203E0E47390
:1003F000E493A3C583C5F0C583C8C582C8F0A3C56F
:1004000083C5F0C583C8C582C822D083D082E49357
:10041000F208740193F208740293F208740393F2E1
:10042000740473A42582F582E5F03583F58322FAFE
:10043000E6FB0808E6F925F0F618E6CA3AF622E0E7
:10044000FBA3E0FAA3E0F922EBF0A3EAF0A3E9F0C2
:1004500022E493FB740193FA740293F922E6FC08F8
:10046000E6FD08E6FE08E6FF22E493FC740193FD36
:10047000740293FE740393FF22E6FB08E6F908E694
:10048000FA08E6CBF822E493F8740193F974029326
:10049000FA740393FB22ECF608EDF608EEF608EF8B
:1004A000F622900269EFF0120EF1120F6B9000BE6F
:1004B000120DF8FD122E59D3EF94C8EE94004008A7
:1004C00090026A7401F08014D3EF9464EE9400906B
:1004D000026A40057402F080037403F0900269E040
:1004E00075F004A424CEF9740035F0FA7B01120DE6
:1004F000D190026AE090027BF0122766900269E0D8
:10050000120EF1EEF0A3EFF0ED75F004A4243FF924
:10051000740135F0FA7B01900269120DD190027BD3
:100520007406F0122766900269E090012F120EF512
:10053000EEF0A3EFF090026C1203C900000000E49B
:1005400090026AF090026C12032BC004C005C00632
:10055000C007900269E0FD75F0149000DE120413EC
:10056000C083C08290026AE0D082D083120EF5125E
:100570000F6B9000C6120DF8FD122E59AB07AA069C
:10058000E4F9F8D007D006D005D004120138900263
:100590006C1203B190026AE004F0E0C3940A40A434
:1005A00090026C12032B900269120E7A1203B19022
:1005B0000234E07002A3E0704190012EE075F00A71
:1005C00084E5F0F0E4FF75F002EF9000C6120DF83C
:1005D000FD75F014EF9000DE120413C083C082900A
:1005E000012EE0D082D083120EF5ECF0A3EDF00FD7
:1005F000EFB404D290012EE004F0301F030206D4C1
:1006000090022EE07002A3E060030206D490022361
:10061000E07002A3E060030206D47816E2FE08E26E
:10062000FFC394ACEE940D5018902EF674019324F1
:10063000CEFDE49334FFFCD3EF9DEE9C4003020615
:10064000D4900269E0640360030206D49002701241
:1006500003C9FFFFFFFFE490026BF090026AF09085
:10066000026AE0FFC39404503375F004EF90016117
:1006700012041312032B900270120343D31202864A
:10068000401290026AE0A3F0120E7B12032B90023C
:10069000701203B190026AE004F080C39001AE12C0
:1006A0000E7A12032BE47B1E120F48503790026B18
:1006B000E09001AEF0A3E0900137120DD59001AAB1
:1006C000120E74C006C0079001AEE075F0029001F2
:1006D00037120413120ED4D007D006120145900130
:1006E000AA1203B19001AA12032B9001AEE0900070
:1006F000BE120DF52FFFEC3E90015FF0A3EFF090DE
:1007000001AEE0A3F0900269E0FF75F00290012FC6
:10071000120DF8FDEF900137120F75ECF0A3EDF01C
:100720007A017999120E5F7414F090015F120F1A1A
:100730007A0179711229BE7B017A0179717D1412D7
:100740001EADAF41AE40AD3FAC3E90019A0203B149
:10075000E4900282F0EF70030208E612003E90017E
:10076000A61203C900000000E4900283F090028802
:100770001203C900000000900283E0FF1229491211
:100780001B4E9002841203B1E4900281F090028427
:1007900012032B900283E075F00C90007912041381
:1007A000C083C082900281E0D082D08375F00412B1
:1007B00004131203B1121B63E0B403D17857900203
:1007C00084121B3D9002841203B1900283E0FF90DB
:1007D00000BE121AC99000C6121AC890012F121A30
:1007E000C875F002EF900137121ACC75F004EF9043
:1007F00000CE1204131203C9009C4000900283E053
:10080000FB75F00490013F1204131203C9009C40D1
:1008100000121AD775F004EB90014F120413120363
:10082000B1E4900281F0900281E0FFC3940A501578
:10083000900283E075F0149000DE120413121AC8BF
:10084000121B6380E1900288120343121AD712012F
:10085000389002881203B1900283E004F0C394043C
:10086000500302076790015F121ACF900282E07571
:10087000F002900171121ACC9001A612034390016C
:100880005FE0FEA3E0FFE4FCFD1201389001A61238
:1008900003B1900282E004F0C3941450030207589D
:1008A000121B6D90019A121B6A90019E121B6A78AE
:1008B000061202AA9001A21203B1E49001AEF0A3C5
:1008C000F0A3F09001AA1203C900000000E4900216
:1008D00081F0900281E0FFC39405500F75F002EFA4
:1008E0009001B3121ACC121B6380E79001BE121A5A
:1008F000CFE49002B6F090019A121ADA90006A12D0
:1009000003B19000701203C900000000E49000766B
:10091000F0A3F078147427F2087410F27812742798
:10092000F2087410F2E47816F208F2900203F0A3D1
:10093000F09001B1121ACFE49001C0F0A3F0A3121D
:100940001ACFA31203C90009C4009001C8121ACF1C
:10095000A31203C90009C4009001CE740AF09001EB
:10096000DE121ACF9001FF1203C9000000009001AF
:10097000DC121ACF9001E01203C900000000E490DD
:100980000281F0900281E0FB75F0049001E4120412
:10099000131203C90000000075F002EB9001CF12A2
:1009A0001ACC121B63E0B406DAE4900236F0A3F02E
:1009B000A3F0A3F0900249F0A3F0A3F0A3F09001FC
:1009C000FDF0A3F022900260EEF0A3EFF0A3ECF0B4
:1009D000ED120E844012900262E0FFA3E0900267E5
:1009E000CFF0A3EFF0020B8590005CE09002641260
:1009F0000B8E90026B120E37120B8E900269EEF086
:100A0000A3EFF09001DBE0900264120DF1120BCD28
:100A100090026F120E37120DF1120BCD90026DEE97
:100A2000F0A3EFF09001FCE0900264120E0E900231
:100A3000791203B1120E3C120E0E9002751203B120
:100A4000900262120DDBC006C0079001DC120ED4CA
:100A5000D007D0061201459002711203B1D3781766
:100A6000E294AC18E2940D5009900206E060030293
:100A70000B4D90022EE07002A3E06003020B4DD3F9
:100A8000900246E09400900245E0940040079002F6
:100A90006574088014D3900216E09400900215E06B
:100AA0009400400A900265740FF0A3F0801F90013B
:100AB000FDE06401600330000B9002657403F0A355
:100AC00014F080099002657401F0E4A3F075F096CB
:100AD000120E4C4003020B20900265E0FD75F0827F
:100AE000120E505006ED120EDF4069900266E024AF
:100AF00008FFE433FEC390026CE09F90026BE09E1F
:100B00004014120E6B9001E01203B17F0D122C0005
:100B1000900230020B3DD3900231E09400900230FD
:100B2000E094004003020B4475F082120E4C400B1F
:100B3000120F7B900275120BAB8012900265E012CF
:100B40000EDF4019120F7B900279120BABEEF0A36F
:100B5000EFF08009120E6B9001E01203B1900215C4
:100B6000E07004A3E0640170031226009002621298
:100B70000DDB9001E01203431201451226B99002E9
:100B800067EEF0A3EFF0A3E0FEA3E0FFA3E0FCA379
:100B9000E0FD121DF0900267E0FEA3E0FF22F025C9
:100BA000E02450F582E43400F583E0FCA3E0FD90FE
:100BB0000260E0FEA3E0FF122E592212034312014D
:100BC000459001E01203B17F0C122C0090022EEE32
:100BD000F0A3EFF07F17122C0090024B22FD900241
:100BE00062E0FEA3E0FF122E592290020BE475F0A2
:100BF000011200BDD3900210E0940090020FE09427
:100C0000004003122D1DD3900212E09400900211B7
:100C1000E094004003122D1DD3900214E094009044
:100C20000213E094004003122D1DD3900216E094AD
:100C300000900215E094004003122D1DD390021C79
:100C4000E0940090021BE09400400F122D1D9002D2
:100C50001BE07002A3E07002D210D390021AE0945D
:100C600000900219E094004003122D1DD390021849
:100C7000E09400900217E094004003122D1D9002B2
:100C800005E030E011E490021DF0A3F0A3F0A3F022
:100C9000A3F0A3F08042D390021EE0940090021DC6
:100CA000E09400401A122D1D90021DE07002A3E096
:100CB000700D7F0A122C00900221EEF0A3EFF0D30A
:100CC000900222E09400900221E09400400A9002F9
:100CD0001FE475F0011200BDD3900226E09400904D
:100CE0000225E094004003122D1DD390022FE094C2
:100CF0000090022EE094004003122D1DD39002318B
:100D0000E09400900230E094004003122D1DD39037
:100D10000233E09400900232E094004003122D1D53
:100D2000D3900235E09400900234E0940040051224
:100D30002D1D800D7F0F122C00900234EEF0A3EFDA
:100D4000F0D3900237E09400900236E09400400324
:100D5000122D1DD3900239E09400900238E09400E7
:100D60004003122D1DD390023BE0940090023AE024
:100D700094004003122D1DD3900246E0940090028F
:100D800045E094004003122D1DD3900244E09400EE
:100D9000900243E094004003122D1DD3900248E0DE
:100DA0009400900247E094004003122D1DD390025E
:100DB0004AE09400900249E094004003122D1DD3B4
:100DC00090024CE0940090024BE094004003122DFE
:100DD0001D2274FF900262FEFDFC120343D3020247
:100DE00070E09000BE75F002120413E0FEA3E0FF75
:100DF000E4FCFD22E47FE87E03FDFC1203430201D4
:100E000053F09001CF75F002120413E0FCA3E0222E
:100E100090005CE0245DF582E43400F58322F075F7
:100E2000F0049001E41204131203439001E0120352
:100E30002B02014590025FE075F00CA42479F9744F
:100E40000035F0FA7B0122EEF0A3EFF0900264E0AF
:100E50002403F0E075F00684AFF0EF22900265E025
:100E6000A4FFC390026EE09F90026DE095F0227B9C
:100E70000190027712043890027A229001E0120366
:100E80002B900271120343020138E090016175F06A
:100E900004020413A3F0D3900212E0940090021114
:100EA000E09400229002831203B190027B1203436C
:100EB00090028312032B0201DE90027712042F02AC
:100EC000005EFFE4FCFDFE12034F1201537807029F
:100ED000029724FFFFEE34FFFE3395E0FDFC120382
:100EE0005C020153E0FEA3E0FBAA06E4F9F82275D8
:100EF000F0C8A4FFC3900270E09F90026FE095F0ED
:100F000022FD9000C675F00202041312042F740132
:100F100002007775F004A4F58285F08322900269BF
:100F200012043890026C7403F022E0FFA3E09002F8
:100F30007BCFF0A3EFF0221202978F278E268D250C
:100F40008C24221202978F278E268D258C242278BE
:100F500057E6FFE4FCFDFE22FAF9F8C3020286E040
:100F6000FF74017E00A80708221203B190027F02DD
:100F7000032B12033790026D0203B1E0FEA3E0FFE2
:100F800075F002ED2275F0020204139001E00203F5
:100F90002B900205E090020AF01219275005121951
:100FA000354007E4900205F080081223AB9002055B
:100FB000EFF0900205E0FF1229F7EF700D121927EC
:100FC00050081219355003021102900206E07041D8
:100FD000900063F0A3F0900249F0A3F0C21EC21289
:100FE000122325122D7E7F01122C001219C8401BDE
:100FF00030140DEF7803CEC313CE13D8F9FF800B56
:10100000EF7806CEC313CE13D8F9FF1213CF021018
:10101000B8900063E07002A3E070139000631219AF
:101020006E7F16122C00900249EEF0A3EFF09002B2
:1010300049E07004A3E064017030900063E0FEA317
:10104000E0FF2496FDE43EFC7808E2FA08E2FBD3D8
:101050009DEA9C4004D21E8011EF246AFFEE34FF0B
:10106000FEC3EB9FEA9E5002D212301E3712198F38
:101070009DEE9C4053121103504E7F13122C00EF33
:101080007802CEC313CE13D8F91219E87F14122CAC
:10109000007C007D031200AB900245EEF0A3EFF060
:1010A000C21E802430122112198F9DEE9C4019120D
:1010B000110350147F13122C00EF7802CEC313CE0D
:1010C00013D8F91219E8C212900243E07004A3E0A9
:1010D00064017003122600900206E0FFA3E06F6037
:1010E000311228FD900208E030E421D31219355066
:1010F000051219284009E490021DF0A3F0800D7F2D
:1011000006122C0090021DEEF0A3EFF0900206E014
:10111000A3F022122E59AC06AD07900203E0C313D0
:10112000FEA3E013C39DEE9C227B017A0179C4E407
:10113000FCFD90026E7405F01227119001C2EEF0D2
:10114000EF120E8440030211CE3000030211CE9044
:1011500001B1120DDBC006C0079001C2120ED4D03F
:1011600007D0061201459002621203B1E47FFA1221
:101170000DC440069002660211C9E47FB4120DC48A
:1011800040030211CEE47F64120DC4400280227439
:10119000FF7FF1FEFDFC900262120343C312027056
:1011A0004008900266740AF0803A7F9C120DC2409B
:1011B000089002667408F0802B7F4C120DC2400824
:1011C0009002667406F0801C74FF7F06120DC490B6
:1011D000026640057404F0800B7401F080069002F2
:1011E000667405F0900266E09001CEF09001C212A4
:1011F0000DDB900266E090026EF07B017A0179CA05
:10120000122711900260EEF0A3EFF0900232E0702E
:1012100002A3E060030212897F0E122C00EEC313BA
:10122000FEEF13FF900232EEF0A3EFF07B017A00A5
:10123000795C120E617406F07808E2FF08E2A3CF31
:10124000F0A3EFF07A0079501229BE7B017A017980
:10125000DB120E617406F0900260120F1A7A0179A7
:10126000CF1229BE7B017A0179FC90026A12043800
:1012700090026D7406F0120F7B90026E1203B17A29
:101280000179E4122A677816E2FF08E2900203CFA0
:10129000F0A3EFF0120E00E4F0900260E0FEA3E095
:1012A000FF22E4900260F07B017A00793D120F0D7D
:1012B0007800120F627A007931122A307B017A00AD
:1012C00079311213B37B32120F48500690026074CA
:1012D00001F09002B6E090025FF0E4900261F0123B
:1012E0000E24C002C0017A0079A9120F0D780A12EB
:1012F0000F62D001D002122A30120E241213B37BD7
:10130000F47A01120F4950069002617401F0300026
:1013100045900260E07004A3E0603BD21A7B017A42
:101320000079311213817856120F41900262120D2A
:10133000EB780712029778041203BD120E241213E1
:1013400081120F3F900262120DEB7807120297781C
:101350000E1203BD8038C21A7856E67800120EB21B
:1013600078041203BD7804120337EC4D4E4F70031E
:101370007F02227857E6780A120EB2780E1203BD69
:10138000780E120337EC4D4E4F70037F02227F041C
:10139000227D03121844C3E5419539FFE540953895
:1013A000FEE53F9537FDE53E9536FCC3EF953DFFE5
:1013B000EE953CFEED953BFDEC953AFC90026212F9
:1013C00003B1227D03121844C3E539953DFFE5388A
:1013D000953CFEE537953BFDE536953AFCE42290D9
:1013E000025FEEF0A3EFF0E4A3F0D390021EE094CE
:1013F0000090021DE09400400612196B0214C630E2
:10140000004C12197A40089001C0ECF0A3EDF012E4
:10141000192750051219354003021455121942506C
:1014200027780890004A1219601214FB400F9002AE
:101430005FE013FEA3E013D3121954500BA2153032
:101440001401B340030214CC1219A00214C61219DD
:10145000275005121935401312197A40089001C01F
:10146000ECF0A3EDF01219A00214CC90007012035E
:1014700043C0007812E2FE08E2FFE4FCFDD0001257
:1014800001389000701203B1121942502E7808E210
:10149000FE08E2FF90004AE0FCA3E0FD1214FB50BE
:1014A0001AA215301401B34012900221121999901A
:1014B0000220E09F90021FE09E4021900076E0FE17
:1014C000A3E0FFFBAA06E4F9F890007012032B12C8
:1014D00001DEEE1219A89002617401F0900261E041
:1014E0006028E4900076F0A3F09000701203C90029
:1014F000000000E49001C0F0A3F012196BE4900228
:1015000028F0A3F090021F12191F22122E59D3EFB8
:101510009414EE9400229002691203B1120E8640D8
:101520005E90026912032B90003E1203B1E47F5AD1
:10153000FEFDFC90003E120DEB780A12029790001F
:10154000421203B1E4900272F0900272E0FFC39481
:1015500004502C75F00CEF90008112041312034319
:10156000C000120F3FD000120EBA900272E090003D
:10157000AA120E7E1203B1900272E004F080CA90AB
:1015800000BA1203C9000000009000421203439009
:10159000003E120E1EC004C005C006C007900042E7
:1015A000120343900269120E1E90027B1203B19047
:1015B000027F1203C900010000D007D006D005D079
:1015C000041220169000461203B19000BA12034391
:1015D00090026D120E1EC004C005C006C007900226
:1015E0007B1203C90001000090004612032B9002F9
:1015F0007F1203B1D007D006D005D0041220169078
:1016000002731203B19000BA12032BAB07AA069023
:10161000027312032BEF2BFBEE3AFA900271E0F902
:1016200075F00490014F12041312032BC3EB9FFFBC
:10163000EA9EFEE99000BE120F75EEF0A3EFF022D5
:10164000439F04E453C6DFE5C600B5C6F3758300C7
:1016500075820775FD0DE4E5FEF4FF758300758264
:101660000675FD0DE4E5FEB50704F59E8003759E45
:101670000078100000D8FC53C6E043C60843C6807B
:1016800075960775970975830075820475FD0DE5DC
:10169000FD0404F58F75830075820375FD0DE4E587
:1016A000FEF4FF75830075820275FD0DE4E5FEB55D
:1016B0000704F595800375958375BE0E5392FE90D1
:1016C00001007F007E02E4F0A3DFFCDEFA78007FF9
:1016D00000E4F208DFFC78FFE4F6D8FD7581C00273
:1016E00017100200000220C0E493A3F8E493A34083
:1016F00003F68001F208DFF48029E493A3F854078D
:10170000240CC8C333C4540F4420C8834004F45687
:10171000800146F6DFE4800B0102040810204080BF
:10172000902E43E47E019360BCA3FF543F30E50953
:10173000541FFEE493A360010ECF54C025E060A8BF
:1017400040B8E493A3FAE493A3F8E493A3C8C58252
:10175000C8CAC583CAF0A3C8C582C8CAC583CADFC0
:10176000E9DEE780BEE4900282F0EF607B12003E8B
:101770009000291203C900000000122C8690002955
:101780001225961201389000291203B1900282E0CE
:1017900004F0C3941440E3E0FFFBE4FAF9F890008E
:1017A0002912032B1201DE9002831203B1785690A6
:1017B0000283121B3D78041203BDE4900281F09075
:1017C0000281E0FBC39403501F90028312032BEBB2
:1017D00025E025E02431F582E43400F5831203B1DD
:1017E000900281E004F080D77804120337EF24D010
:1017F000FFEE348A121AE49000251203B190004AD9
:101800007475F0A37430F0A31203C9001D4C00E4FA
:10181000900281F0900281E0FFC394065027EF25EB
:10182000E02450F582E43400F5837475F0A374303D
:10183000F0745D2FF582E43400F583E4F0900281CA
:10184000E004F080CFE490005CF078087475F20852
:101850007430F222900266120438900269EDF0E4CE
:10186000F528F527F526F52574FFF52CF52BF52A37
:10187000F529E4F530F52FF52EF52DF524900269C4
:10188000E0FFE524C39F507090026612042F75F0AC
:1018900004E524A4F58285F0831202BD8F348E33D3
:1018A0008D328C31AF28AE27AD26AC25D3122D3624
:1018B000400C853428853327853226853125AF2C89
:1018C000AE2BAD2AAC29C3122D36500C85342C8595
:1018D000332B85322A853129E5302534FFE52F3534
:1018E00033FEE52E3532FDE52D35318F308E2F8DCF
:1018F0002EF52D052402186D852839852738852673
:1019000037852536852C3D852B3C852A3B85293A14
:10191000853041852F40852E3F852D3E900269AF51
:1019200030AE2FAD2EAC2D122D2422F0A3F0A3F05B
:10193000A3F0A3F0A3F022D3900212E0940090024F
:1019400011E0940022900214E09400900213E094BD
:101950000022900076E475F0011200BD90025FE075
:10196000FEA3E0C3FF900077E09F900076E09E2208
:10197000E2FE08E2FFE0FCA3E0FD2290004A7808C6
:10198000E2FF08E2CFF0A3EFF0229001C0E0FEA357
:10199000E0FF9001B1E0FCA3E0FDD39FEC9E227834
:1019A00016E2FC08E2FD900203E0FEA3E0FFD32272
:1019B0009001C0E0FFA3E0CF7814F208EFF222FE1E
:1019C000C37819E29F18E29E22E29DFF18E29CFE76
:1019D00090025FF0A3EFF022D3900218E094009001
:1019E0000217E0940022902EF6E493FE740193FF18
:1019F00022902EF674019322FF900243EEF0A3EFA3
:101A0000F0227B077A079002601203C900000000F1
:101A100012003EEB601A74017E00A803088005C323
:101A200033CE33CED8F9FFADACEF5D70031B80E34E
:101A3000EA601A74017E00A802088005C333CE3321
:101A4000CED8F9FFADAEEF5D70031A80E3AF03743B
:101A500001A807088002C333D8FCF5AC7401A802C2
:101A6000088002C333D8FCFFF5AD8FAE53AACF4335
:101A7000AA0490025F121B59121B1E42AB121B4E8E
:101A80009002641203B1121B94120343C312028624
:101A90005006121B941203B1900260120343C0005F
:101AA00090026012032B7803120297D000120138C3
:101AB0009002601203B190026012032B9000651235
:101AC00003B143AA3053AAFB90025FE0F5BA121BA0
:101AD0001EF452AB121B3322EF75F0021204137482
:101AE00027F0A37410F02290028412032BEF24F04D
:101AF000FFEE34D8FEED34FFFDEC34FFFC22120380
:101B0000B17F0FE4FEFDFC90025F120343D302029B
:101B10008690025F12032BC3EF940FFFEE9400FE3A
:101B2000ED9400FDEC9400FC90025F0203B1900084
:101B30001BE0902EED932290023F12034390025F30
:101B400002032B75AC0375AD4075AE4022E6FFE491
:101B5000FCFDFE1203431201537807020297122C78
:101B60008690001BE0FF02259EE5BAF053BA0F43B2
:101B7000BA1022900281E004F0221203B19001A673
:101B800002032BE0F5B3A3E0F5B2A3E0F5B1229098
:101B9000001AE0902EED93F5AB2290026412032B15
:101BA0009002602290026412032B900260227B0755
:101BB0007A079002601203C90000000012003EEB99
:101BC000601A74017E00A803088005C333CE33CEAB
:101BD000D8F9FFADACEF5D70031B80E3EA601A74C7
:101BE000017E00A802088005C333CE33CED8F9FFAA
:101BF000ADAEEF5D70031A80E3AF037401A8070870
:101C00008002C333D8FCF5AC7401A802088002C37B
:101C100033D8FCFFF5AD8FAE53AACF90025F121BF5
:101C200059122C861225999002641203B1121B8A54
:101C3000120343C31202865006121B8A1203B1908C
:101C40000260120343C00090026012032B7803125B
:101C50000297D0001201389002601203B190026026
:101C600012032B9000201203B143AA3090025FE0D0
:101C7000F5BA121B3322C0E0C0F0C083C082C0D0CE
:101C800075D008C2CFD21130CD03021D2220CC6006
:101C900030CB2285CE4FE54FC39480401675F003BC
:101CA000E54F9023A71204131204418B4C8A4D89EF
:101CB0004E8063807385CE35E54F7022E535B410D4
:101CC000099002B7E0F452808066E535B4200890B0
:101CD00002B7E042808059853546054F8052E54F76
:101CE000C3940550077446254FF8A635054F80402C
:101CF000E54FB4C0057546C08036E54FB4C21078D4
:101D000053E630E2057546A080267546A18021E5A0
:101D10004FC394804010784CE475F00112041F12F8
:101D2000005EF5CE800A054FE54B254FF8E6F5CE6F
:101D3000D210D0D0D082D083D0F0D0E03212003E8A
:101D4000900260121B5978001203FA000000009004
:101D5000025F7405F075ABFF122C86780012034FFA
:101D600012259912013878001203BDE4F5AB122C4C
:101D7000867800120337C004C005C006C0071225CC
:101D800099A804A905AA06AB07D007D006D005D0AC
:101D90000412014578001203BD90025FE014F0E0E8
:101DA00070B3780012033790024D1203B17800121D
:101DB000034F7F807EBA7D157C001201DE900261A8
:101DC0001203B190026112032B9002691203B17FDA
:101DD000967E007D007C00122AD4E47B32FAF9F86A
:101DE000C3120286500678567696800A90026112D7
:101DF000032B7856A607900260E0F5BA121B7F22EB
:101E000090027DECF0A3EDF0E4FD9001FDE0703474
:101E1000C3EF940AEE94004006120E007401F01213
:101E20000E00E07002C21DE4FF745D2F120E06E08A
:101E30007004C21D80130DEDB40602D21D0FEFB465
:101E400006E78005120E00E4F0900238E07002A36D
:101E5000E07057900236E07002A3E0704D9001FDF3
:101E6000E0701B301D187F10122C00900236EEF02F
:101E7000A3EFF09001FD7401F0D21BC21D2290016E
:101E8000FDE064017036C390027EE0940A90027D0A
:101E9000E0940050277F11122C007C007D0C120072
:101EA000AB900238EEF0A3EFF022900238E070041D
:101EB000A3E0640170069001FDF0D21C2290027430
:101EC000120438900277EDF0E4F525F52674FFF55D
:101ED00027F528E4F52EF52DF52CF52BF5249002A9
:101EE00077E0FFE524C39F505990027412042F75C8
:101EF000F002E524A4F58285F0831200D3F52A854B
:101F0000F029D39526E52995254006852925852A9A
:101F100026C3E52A9528E529952750068529278592
:101F20002A28E4FCFDE52E252AFFE52D3529FEEDC6
:101F3000352CFDEC352B8F2E8E2D8D2CF52B05247D
:101F4000809CE4852639852538F537F53685283D8A
:101F500085273CF53BF53A852E41852D40852C3F64
:101F6000852B3E900277AF2EAE2DAD2CAC2B122DD3
:101F7000242220CA03022015E5467003022015E43E
:101F8000FF74462FF8E6FE74602FF582E43402F504
:101F900083EEF0E4F60FEFB405E7900260E0FF5443
:101FA000F0FEEF540F90025FF0AF06EF24A0601B2D
:101FB00024F0601F24D0602F24E0605D24E0605C8A
:101FC000249070617853E6440180057853E654FE0E
:101FD000F68042E4FF122DFE7855EFF67851BFFFF0
:101FE0000376012276FF2290025FE0FD70127853A3
:101FF000E630E23154FBF690023CE04408F08015F4
:10200000ED640170207853E620E21A4404F6900251
:102010003CE04404F0751C0222022600E490021108
:10202000F0A3F0D21F229002771203B1E47BE87A8A
:1020300003F9F8900277120EA39002871203B19071
:102040000287120DE4A804A905AA06AB079002773F
:10205000120E1E90028B120F59900287120DEB1276
:102060000E9490028F1203B190027B12032B900208
:102070008F120DEBA804A905AA06AB0790028312E4
:102080000E1E900293120F5990028B120DEB9002CC
:10209000831203B1900283120343C000C001C00247
:1020A000C003900293120DE4D003D002D001D000FF
:1020B000120138120E949002971203B1E47FE87E69
:1020C00003FDFC90028F120DEB900297120E74220A
:1020D00012000E122F14122EFA1228AF122D6012B7
:1020E0002B07122E98D2AF751C01E51C24FE601E32
:1020F00014603614605314605D24047064122EDD85
:10210000122E6F122E85122E157F04122CACD2D8EF
:10211000E490020BF0A3F090029BF0A3F0122A9E31
:10212000E51D70FC122D9A8033D2D8E51D70FC128B
:1021300012928F1C1222999002B6E0900078F090D3
:1021400002B604F0122D9A801B122CF88F1C12215B
:1021500066120BDA800E120F81122DB4751C0380EB
:1021600003751C01122F1AE51C640470030220DAA7
:10217000121F620220DA7F80902EF6E493FC740135
:1021800093FD122ECD7F82902EF674019324CEFD06
:10219000E49334FFFC122ECD7F847D647C00122EEC
:1021A000CD7F8A3018187D397C30122ECD7F887D06
:1021B000397C30122ECD7F8C7D397C30801F781297
:1021C000E2FC08E2FD122ECD7F887816E2FC08E2E0
:1021D000FD122ECD7F8C7814E2FC08E2FD122ECD8C
:1021E0007F9AC00790024D122EB4D007122ECD7FD9
:1021F00098C007900251122EB4D007122ECD7F9CAA
:10220000C007900255122EB4D007122ECD02220024
:10221000E47F557E06FDFC780012034F1201531235
:102220001B18121B271201DE7808120297121B18C6
:10223000121B2D900251121AEE4003121B017FFF58
:10224000121AF3400678C076FF8007121B2D78C063
:10225000A607E47F057E05FDFC9000811203431272
:102260000153121B18121B2D900255EEF0A3EFF034
:1022700090023F12032B900257EEF0A3EFF0121BD7
:10228000271201DE780812029790025F121AEE40C0
:1022900003121B01E47FFF121AF44005788E76FFCB
:1022A00022121B2D788EA60722301115122F0774CB
:1022B0005AF07F09122C00900219EEF0A3EFF0C241
:1022C00011A21492153002028020D3900212E094E1
:1022D00000900211E09400501190021AE0940090D6
:1022E0000219E09400500320100A122F07745AF0CC
:1022F000C2148008122F077403F0D214301408E4BB
:10230000FF122B9E122D41A215301401B3501790CD
:102310000206E06004D216800D7F02122C009002AB
:1023200017EEF0A3EFF0900206E0700830160312EB
:102330002600C2162290021DE07002A3E0705D30FC
:10234000002578149001B1121960C39FEC9E5015BE
:10235000C31219B9C31219E19FE4939E5035122399
:102360008D40398029802C7814E2FE08E2FF781233
:10237000E2FC08E2FDC39FEC9E501AC378151219C7
:10238000B9D39432EE9400400A12238D400E1226E7
:102390000080028000E4900228F0A3F0227F041263
:1023A0002C00EEC313FEEF13FF900228E475F0013A
:1023B0001200BDFCD3E5F09FEC9E22E490025FF09A
:1023C000900206E070461219C840379001BEE0FE48
:1023D000A3E0FF9001B2E09FFF9001B1E09EFEE418
:1023E000FCFD9002601203B11219D67C007D03122D
:1023F00000ABE4FD900260120343D312027040353B
:10240000802C1219D61219B0402B802230161012CF
:1024100019E125E0FFE493331219AF4018800F1241
:1024200019E124CEFFE49334FF1219AF4007900264
:102430005FE04401F090025FE0FF9002B5F0227887
:102440000E1203379002641203B17804120337129C
:1024500029849001A61203B190006A12032B900107
:10246000A6120343C312028650037F02229001A6E4
:1024700012032B12280F9001B1EEF0A3EFF09001A0
:10248000C8E0FFA3E09001DCCFF0A3EFF09001B132
:10249000E0FEA3E0FF1211199001C8EEF0FCA3EFDB
:1024A000F0FD7808E2FE08E2FF1209B59001DEEEC9
:1024B000F0A3EFF07812EEF208EFF27F052290021F
:1024C0003CE030E1091225172018031224FD900288
:1024D0003CE054FDF0900208E0540FFF60279002AA
:1024E0003CE0FE30E206785FA6078010EE30E31C89
:1024F000900208E0540FC454F0785FF620180612DA
:1025000025171224FD90023CE054F3F022C2927F82
:10251000217E007D007C00122DE6900255E475F0CE
:10252000011200BDD29222C2107F07122C0090022D
:102530001BEEF0A3EFF022010079FE000E0100BEB9
:102540000100C60101AA01015F0101A60101B1015B
:1025500001C20101C80101DEFE0012FE0014FE00EE
:1025600016FE0018FE0000FE000401003E010042BD
:10257000010046FE000801025501025D01026501ED
:10258000026D0102340100DE01016101024D010210
:10259000550101AE0100CE0101610101FD010236CC
:1025A00001023801021112034390001AE0FFEFC349
:1025B0009404500553B9EF800343B910EF6003B49E
:1025C000040B85B71985B61A85B51B803AEF6401EF
:1025D0006004EFB4050B85EB1985EA1A85E91B80C9
:1025E00026EF64026004EFB4060B85F31985F21A36
:1025F00085F11B8012EF64036004EFB4070985FBCB
:102600001985FA1A85F91BAF1BAE1AAD19AC182241
:10261000E51D70FCE4FF121755E4FF120740E4903B
:102620000206F0900208F0900227F090021D1219A5
:102630001B900225F0A3F090022A12191B12191EFA
:10264000900063F0A3F0A208300001B350217F0393
:10265000122C00900213EEF0A3EFF07F03122C0077
:102660007C007D061200AB900215EEF0A3EFF02285
:10267000C0E0C0F0C083C082C0D075D01053B9FD97
:10268000E51D6401701F12259978001203BD7F01BA
:10269000122C5E9002B6E0FF12294943B901D2D84C
:1026A000751D058019E51DB40514121B51780A1219
:1026B00003BD121B1EF452AB53AAFB751D00D0D0F4
:1026C000D082D083D0F0D0E03290027D1203B1E40A
:1026D0007FFF7EFFFDFC90027D120DCA400C900230
:1026E0007D1203C90000FFFF8030E4FF90027D12DD
:1026F0000DC75026122600301E167F14122C007CA7
:10270000007D031200AB900245EEF0A3EFF0C21E75
:1027100090027D1203C90000271090027D12032B46
:102720002290026A1203B190026712043890026A82
:1027300012032B78061202AA90026A1203B19002C9
:102740006E120F4F8005C333CE33CED8F9120EC2AE
:1027500090026A120E7490026EE0F9F8120F279040
:10276000026712042F1202EDAF27AE26AD25AC246E
:102770007806120F27229002771203B1900274128A
:10278000043890027712032B780A1202AA9002777B
:102790001203B190027B120F4F8005C333CE33CEAC
:1027A000D8F9120EC2900277120E7490027BE0F9F3
:1027B000F8120F3390027412042F1202EDAF27AEFD
:1027C00026AD25AC24780A120F332290023F120363
:1027D000C900000000E4FF122C2F75ABFF122C86FD
:1027E00090023F12259612013890023F1203B1E485
:1027F000F5AB122C8690023F12032BC004C005C01B
:1028000006C007122599A804A905AA06AB07D00798
:10281000D006D005D00412014590023F0203B190CA
:10282000006A1203431201451226B9900260EEF0CD
:10283000A3EFF07A0179BD120E5F7405F0A3EEF0FC
:10284000A3EFF07A0179B31229BEA215301401B3B7
:1028500050157B017A0179B37D05121EAD9001BE42
:10286000E544F0A3E545F0900260E0FEA3E0FF221E
:10287000C0E0C0F0C083C082C0D075D000C000C22C
:102880008D758C32758AEB90029BE475F001120015
:10289000BDC390029CE0941490029BE0940040120F
:1028A00090020BA3E0785AF690020BE4F0A3F0122A
:1028B0000004D000D0D0D082D083D0F0D0E032E479
:1028C000FF122DFE7855EFF67851BFFF0476018098
:1028D0000276FFE4785FF67852763808F6902EF6A6
:1028E00093FE740193FF7880A60608A607EF24CE16
:1028F0007883F6EE34FF18F678847600087664E480
:10290000122EAAF6122EAA765A754B5022A907E467
:10291000FEFD90023CE0FC703FEF5401FB9002078B
:10292000E054016B600D30020A201807EC4402905D
:10293000023CF0900207E030E006EE4410FE800416
:10294000EE4401FEE930E006ED4401FD8004ED4473
:1029500010FDEE5D900208F0229002B6E0D39403E1
:102960004002E4F0EF14601214601714601D240399
:102970007021121B1EF452AB800D121B1EF452ABC1
:10298000800E121B1E42AB53AAFB22121B1E42AB2F
:1029900043AA04229002601203B1900078E09002F2
:1029A00068F090026412032B90026D1203B1900242
:1029B00068E0900271F090026012032B12150690ED
:1029C0000268E0FF12049290019A12032B229002F7
:1029D0007BE0FEA3E0FFC003C002C001120EA97598
:1029E000F002120F06D001D002D003EE8FF01201D8
:1029F0000B900277120EFB120EA9FF90027AE0B53F
:102A00000704E4120099227E05EF5401FD900206AE
:102A1000E054016D6007EFF0E4900227F07853E690
:102A200030E008900206E070027E0A900227E0047F
:102A3000F0C39E50037F0022900227EEF07F012218
:102A400090026D12032BC003C002C00190026912F4
:102A50000EAC120F03D001D002D003120307900274
:102A600069120EFB900269120EACFF90026CE0B589
:102A70000704E41200992290026E12032BC003C0D7
:102A800002C00190026A120EAC120F03D001D002F4
:102A9000D00312030790026A120EFB90026A120E14
:102AA000ACFF90026DE0B50704E412009922785360
:102AB000E6F520A208300001B350147F03122C0069
:102AC000900213EEF0A3EFF0122600A2009208A2EB
:102AD0000A300201B35004A202920A3013051226F2
:102AE00000C213229002651203B190026912032BF7
:102AF000900265120343D3120286400B90026912C2
:102B000003439002658009900265120343900269B5
:102B100012032B1201452243F80875CD4053CC7F98
:102B200043CC4043CC2043CC1043CC0453CCFD4396
:102B3000CB0243CB0153CBBFD2EB53E5FC43E302C3
:102B400043F50343900343ED032290002512032B2A
:102B5000AB07AA067804120337C3EF9BFFEE9AFE79
:102B60007B017A00794CE4FCFD90026E7408F0124F
:102B700027117808EEF208EFF27F05227814E2FEC2
:102B800008E2FF7812E2FC08E2FDD39FEC9E400BC6
:102B9000ED9F7817F2EC9E18F28006E47816F208A2
:102BA000F27816E2FF08E208CFF208EFF222E4F52D
:102BB0001D53B9FD53B9DF43CC02C2D9539FFD4326
:102BC0008760C28DEF700675BD0D75BC01122EBCFD
:102BD00075BE0CD28C20C90343870300000000227D
:102BE00000070108020503010401050606010701AB
:102BF000080A09010A010B030C050D0A0E010F0159
:102C0000100A113C12011301143C1501163C170265
:102C10007D017C00EFC394185020EF25E024D1F50E
:102C200082E4342BF583E493FF7E0090020DE0FCF8
:102C3000A3E0FD1200ABAC06AD07AE04AF05225316
:102C4000BA0F43BA4075BBFF75A9A0121B339000A1
:102C500024E0F5B4EF700AF5B375B26175B1A880E0
:102C600006900021121B73121B7F53AAFB2253BA3A
:102C70000F43BA4075BBCD75A9C0121B33900069D4
:102C8000E0F5B4EF7009F5B375B2C375B150229099
:102C90000066121B732275BF0F00000000000000C9
:102CA0000000000000000000000000D2D853B9FD71
:102CB00043B901E5B930E1FBE4F5BF22EF6003D38E
:102CC0008001C3920A92027853A60790020DE4F0A5
:102CD000A3745AF07F08122C00900211EEF0A3EFBB
:102CE000F02290001AE0902EED93FF900024F090D7
:102CF000001BE0902EED93FE900069F0EF4E42D461
:102D000042F442E4F452DC2290025F7405F0122B8C
:102D10003A12242F90025FEFF0BF0205D213E0FFBA
:102D200022122B6C122DCE90025FE0FF2274FFF571
:102D3000F00200BDE0FBE4FAF9F81201DE8F458EE7
:102D4000448D438C4222AB34AA33A932A83102020B
:102D500086E490025FF075BE0E439F027F03FEFD86
:102D6000FC122DE675BC02E4F5BFD2D953CCFD228E
:102D7000438901C28DD2A953B8FD12000390020B02
:102D8000F0A3F0758C32758AEBD28CD2AF22781416
:102D9000E2FE08E2FFD394F8EE942A5009C3EF94C0
:102DA00028EE94235003122600227F01122C2F7547
:102DB0001D0175BF0F43B92053B9FD43BA0143B993
:102DC00001D2D822900209E0FF900208E0FE6F6075
:102DD00007300204785FA606900209EEF022E47F35
:102DE000D87ED6FDFC780412034FD312028640032E
:102DF000C21822D218229002601203B190026074AD
:102E0000FF12037EEC4D4E4F60030080EF22E4FF83
:102E1000F582F5837440FEE493F42FFFA3EEB583AF
:102E2000F6227F0022E490021BF0A3F07F09122C0F
:102E300000900219EEF0A3EFF0D2102243D5045314
:102E4000F5FB53E5FB43E30443ED04E490023CF05F
:102E5000D2922241001A0541001B0644001CFFFFCC
:102E6000FFFF04180000000000D3EF9DEE9C400718
:102E7000EF9DFFEE9CFE22C3ED9FFFEC9EFE22E441
:102E8000FF122C2F121D2D121B9E7F01122C2F12B0
:102E900017550227BBE4FF122C5E122F0E1219F2F7
:102EA0007F01122C5E020740902EF8E493FF74011C
:102EB0009390006ECFF0A3EFF02208F608F608F624
:102EC00008F6082212032BAD07AC0622438901C283
:102ED0008CC28F120003758CFB758AED2220C90C01
:102EE000C2AFA807A60408A605D2AF222275AA3B46
:102EF00053BAF343BA0C43B92053B9BF22010204B9
:102F00000810204080C903E80064C2DA53D80F4398
:102F1000D8D0D2D8D2D92290020DE4F0A32278568C
:102F2000E608F622122CD2022E2C0224AEFFFFFF5E
:00000001FF
