:100000000110070026000000203D0000FF00000056
:10001000021B9BE49001D6F0A3F0220235E37E059B
:1000200090014EE06F6007EFF0E4900179F09001ED
:100030004EE070027E02900179E004F0C39E50030E
:100040007F0022900179EEF07F0122022E43E4909E
:100050000153F0A3F0A3F0A3F0C216FF12130B128A
:10006000149B1213410FEFB401F222022269BB016B
:100070000689828A83E0225002E722BBFE02E32245
:1000800089828A83E49322BB010989828A83F8E00A
:1000900028F022500327F722BBFE05F8E328F322BD
:1000A0008A838982F8E4932822BB010689828A83A5
:1000B000F0225002F722BBFE01F322EF8DF0A4A83C
:1000C000F0CF8CF0A428CE8DF0A42EFE22C5F0F83F
:1000D000A3E028F0C5F0F8E582158270021583E0F0
:1000E00038F022BB0110E58229F582E5833AF583D9
:1000F000E0F5F0A3E0225009E92582F886F008E651
:1001000022BBFE0AE92582F8E2F5F008E222E58347
:100110002AF583E993F5F0A3E99322F8BB0111E5F1
:100120008229F582E5833AF583E8F0E5F0A3F02231
:100130005009E92582C8F608A6F022BBFE09E92588
:1001400082C8F2E5F008F222EF2BFFEE3AFEED391D
:10015000FDEC38FC22C3EF9BFFEE9AFEED99FDEC1F
:1001600098FC22E88FF0A4CC8BF0A42CFCE98EF054
:10017000A42CFC8AF0EDA42CFCEA8EF0A4CDA8F00F
:100180008BF0A42DCC3825F0FDE98FF0A42CCD35D3
:10019000F0FCEB8EF0A4FEA9F0EB8FF0A4CFC5F03D
:1001A0002ECD39FEE43CFCEAA42DCE35F0FDE43C36
:1001B000FC2275F008758200EF2FFFEE33FECD3381
:1001C000CDCC33CCC58233C5829BED9AEC99E582C8
:1001D00098400CF582EE9BFEED9AFDEC99FC0FD554
:1001E000F0D6E4CEFBE4CDFAE4CCF9A88222B80044
:1001F000C1B90059BA002DEC8BF084CFCECDFCE50F
:10020000F0CBF97818EF2FFFEE33FEED33FDEC3332
:10021000FCEB33FB10D703994004EB99FB0FD8E5B7
:10022000E4F9FA227818EF2FFFEE33FEED33FDEC00
:1002300033FCC933C910D7059BE99A4007EC9BFCF6
:10024000E99AF90FD8E0E4C9FAE4CCFB2275F01082
:10025000EF2FFFEE33FEED33FDCC33CCC833C810A7
:10026000D7079BEC9AE899400AED9BFDEC9AFCE8D5
:1002700099F80FD5F0DAE4CDFBE4CCFAE4C8F92222
:10028000EB9FF5F0EA9E42F0E99D42F0EC6480C8F5
:1002900064809845F022EB9FF5F0EA9E42F0E99DDC
:1002A00042F0E89C45F022E8600FECC313FCED132C
:1002B000FDEE13FEEF13FFD8F122E86010ECA2E789
:1002C00013FCED13FDEE13FEEF13FFD8F022E860F0
:1002D0000FEFC333FFEE33FEED33FDEC33FCD8F10B
:1002E00022BB010DE58229F582E5833AF5830203FD
:1002F0003F5007E92582F80204B4BBFE07E92582D6
:10030000F802034BE58229F582E5833AF58302047E
:10031000C0BB010789828A830203C55005E9F80240
:1003200004EDBBFE05E9F80203D122BB010DE58215
:1003300029F582E5833AF5830203C55007E9258252
:10034000F80204EDBBFE07E92582F80203D122E0A2
:10035000FCA3E0FDA3E0FEA3E0FF22E2FC08E2FD37
:1003600008E2FE08E2FF22E0F8A3E0F9A3E0FAA326
:10037000E0FB22E2FB08E2F908E2FA08E2CBF8220D
:10038000BB010789828A830203575005E9F80204FA
:10039000D0BBFE05E9F802036389828A830204DD8B
:1003A0007401FF3395E0FEFDFCA3A3A3E0CF2FF083
:1003B000E582158270021583E0CE3EF0E58215825B
:1003C00070021583E0CD3DF0E58215827002158341
:1003D000E0CC3CF022ECF0A3EDF0A3EEF0A3EFF0C4
:1003E00022ECF208EDF208EEF208EFF222A8828584
:1003F00083F0D083D0821203F41203F41203F412B8
:1004000003F4E473E493A3C583C5F0C583C8C58230
:10041000C8F0A3C583C5F0C583C8C582C822D083F0
:10042000D082E493F208740193F208740293F20804
:10043000740393F2740473A42582F582E5F0358386
:10044000F58322FAE6FB0808E6F925F0F618E6CA75
:100450003AF622E0FBA3E0FAA3E0F922EBF0A3EAEC
:10046000F0A3E9F022E493FB740193FA740293F988
:1004700022D083D082F8E4937012740193700DA39C
:10048000A393F8740193F5828883E47374029368EC
:1004900060EFA3A3A380DFEC8EF0A4CCC5F0CCCD9D
:1004A000F8EFA4CEC5F02DFDE43CFCE8A42EC8C5B1
:1004B000F03DFDE43CFCEFA4FFE5F028FEE43DFD4B
:1004C000E43CFC22E6FC08E6FD08E6FE08E6FF2226
:1004D000E493FC740193FD740293FE740393FF2272
:1004E000E6FB08E6F908E6FA08E6CBF822E493F81A
:1004F000740193F9740293FA740393FB22ECF608E7
:10050000EDF608EEF608EFF622E49001A8F090016F
:10051000A8E0FFC3940140030207CAEF25E025E0ED
:1005200024B1F582E43400F58312033F9001A81250
:100530000F7A1210D0120FD09001A91203C59001AA
:10054000A912033FEC3350037F0222E47FFF7EFFBA
:10055000FDFC9001A9120357D3120270400A9001CA
:10056000A91203DD0000FFFF9001A912033F9001D3
:10057000A8E0FD12110E120F4AED121067C002C062
:10058000019001A8E0FF24FCF9E434001210E674A5
:1005900005F0EF12110E121076D001D0021237DAE8
:1005A000A215301401B350229001A8E01210677D0B
:1005B000051227309001A8E025E024FDF582E434FF
:1005C00000F583E544F0A3E545F09001A8E075F05F
:1005D00004A424BBF9740035F0FA7B01120F86FFE6
:1005E000E4FCFD9001B7041207CD24B9F582E43490
:1005F00000120F4A30000302069AED25E024BFF5F1
:1006000082E43400120F90FFED25E024B9F582E476
:100610003400F583E0FCA3E0FD123C3F9001ADEE19
:10062000F0A3EFF09001A8E0FF121118E09001AFE5
:10063000F0D394004013EF120FA4FE740193120F35
:10064000E04006E49001AF80429001AFE0D3940314
:100650004016120FA0C313FE74019313120FE04053
:10066000079001AF740380239001AFE0D39408405A
:1006700028120FA0FE7401937802CEC313CE13D8B4
:10068000F9120FE040139001AF7408F07F0E123999
:10069000DD121085120F4A8017121085120F904E2E
:1006A000700E9001AF740AF080069001AF7403F0F1
:1006B0009001AFE0FF9001A8E0FE121118EFF0EEFC
:1006C00075F004A424C1F9740035F0FA7B0190019F
:1006D000A8120F86FFE4FCFD9001AFE09001B71275
:1006E00007CD24BFF582E43400120F4A9001ADEE2D
:1006F000F0A3EFF0ED25E02402F582E43401F58368
:10070000E0FAA3E0C39FEA9E502B9001ADE0FEA368
:10071000E0FFED120F41EF24E7FFEE34FFFE121071
:100720001B120F4A9001AEE024F4FF9001ADE034BB
:10073000FFFEED803F12101B120F90FF9001ADE005
:10074000FCA3E0FDD3EF9DEE9C402FED2419FFE4C8
:100750003CFE9001A8E0FB120F41EB12101CF58348
:10076000ECF0A3EDF09001AEE0240CFF9001ADE0C1
:100770003400FEEB121044120F4A120FF6C002C0F2
:1007800001E0FF2446F9E434011210E67420F0EF92
:10079000121044121076D001D0021237DA120FF67E
:1007A0007D201227309001A8E0FD25E02447F58246
:1007B000E43401F583E538F0A3E539F0ED12104497
:1007C000F583E0F8A3E0FFED25E02432C8F208EF5E
:1007D000F29001A8E004F00204FE7F0522F012313D
:1007E000CF9001A8E0FD25E022E49001B4F0EF7085
:1007F00003020940123BC0E49001B2F09001B5122F
:1008000003DD00000000123A699001B2E0246BF5AC
:1008100082E4340012316912117BC083C0829001DE
:10082000B4E0D082D08375F0041204271203C512FD
:100830001175C083C0829001B4E0D082D08375F07E
:10084000041204271203571201389001B51203C590
:100850009001B4E004F0E0FFC3940740A9AB07E4C3
:10086000A31212501211FB1203D1745E2BF89001E7
:10087000B512125978071202971211BF1203C590D0
:1008800001B4E0FFFBE4FAF9F81211BF1212539021
:1008900001B51203C59001B512033F9001B2E0FB10
:1008A00025E025E0242EF81203D19001B512033F74
:1008B000EB25E025E024CDF582E43400F583120336
:1008C000C5E49001B3F01211FB12034BEB75F00C71
:1008D000A424A3F582E43400F583C083C082900190
:1008E000B3E0D082D0831211E2E0B403D9E49001E6
:1008F000B3F09001B3E0FFC39405501A9001B2E049
:1009000075F00AA424F2F582E434001212FB1211ED
:10091000571211EB80DCE49001B3F0121175C08323
:10092000C0829001B3E0D082D0831211E2E0B4071C
:10093000EA9001B2E025E024FDF582E434001211D2
:10094000559001B2E004F0E0C3940150030207ECBB
:10095000E49001B2F09001B2E0FBC39401400302C5
:100960000A8DEB1211C312033F1211D1EB25E025C2
:10097000E024B1F582E43400F5831203C51212912C
:1009800024B5F582E43400121155EF25E024B7F5C3
:1009900082E43400121304EF25E024B9F582E43434
:1009A00000121155EF25E025E024BBF582E4340068
:1009B000F5831203DD0007530012129124BFF58264
:1009C000E43400121155EF25E025E024C1F582E45E
:1009D0003400F5831203DD000753009001B2E0FFFD
:1009E00024FFF582E43400F583740AF0EF25E02457
:1009F00032121265EF25E02436F8E4F208F2EF2512
:100A0000E02434121265EF25E025E024C5F582E4E8
:100A10003400F5831203DD000000009001B2E025F0
:100A2000E024CBF582E434001213049001B3F0907B
:100A300001B3E0FFC39420501A9001B2E075F0407A
:100A4000A42406F582E434011212FB12115712118C
:100A5000EB80DC1212912447F582E4340112115527
:100A6000EF25E02402F582E43401121155EF25E070
:100A70002404F582E43401121155EF25E02400F539
:100A800082E43401121155EF25E02477F582E43435
:100A9000011213049001B2E004F002094522300172
:100AA00041E49001A7F09001A7E0FB245B12109EA7
:100AB0002400120F6424081210FA243BF812034B8E
:100AC000EB1210AC120363C3120286400B9001A715
:100AD0001210AB1210C070037F02221210C8640201
:100AE00070C49001A91203DDFFFFFFFF9001AD125A
:100AF00003DD000000009001B51203DD00000000DE
:100B0000E49001A8F09001A8E0FBC39402501AEB16
:100B100025E025E02478F582E43400F58312033FD4
:100B2000EB120F2612103A80DC782012034B900053
:100B30007C1203C5E49001A8F09001A8E0FFC394E3
:100B4000035035EF120F2612033F12104E500C12B5
:100B50000F2212033F9001AD1203C5120F221203A0
:100B60003F1210DC400C120F2212033F9001A91219
:100B700003C512103D020B29120FC7E47B32FAF9AC
:100B8000F8C3120286500A9001B51203DD0000007E
:100B9000019001B11203DD00000000E49001A7F014
:100BA0009001A91203DDFFFFFFFF9001AD1203DDED
:100BB00000000000E49001A8F09001A7E075F00C9F
:100BC000A424A7F582E43400F583C083C082900199
:100BD000A8E0D082D083120F97120F10C083C0827A
:100BE0009001A8E0D082D08375F00412042712107F
:100BF0003AE0B402C4120F70242AF812034BEB75CA
:100C0000F00CA424ABF582E43400F5831203C5E4B0
:100C10009001A8F0120F10C083C0829001A8E0D00C
:100C200082D083120F9712104E5018120F10C083EB
:100C3000C0829001A8E0D082D083120F979001ADBE
:100C40001203C5120F10C083C0829001A8E0D082A9
:100C5000D083120F971210DC4018120F10C083C0FF
:100C6000829001A8E0D082D083120F979001A91240
:100C700003C512103DE06403709A120FC7E47BF4C1
:100C80007A01F9F8C3120286500A9001B11203DD0D
:100C9000000000011210C864016003020B903000D4
:100CA000189001B512033FEC4D4E4F705A9001B1B0
:100CB00012033FEC4D4E4F704E785DE6FFE4FCFDB5
:100CC000FE782012036312015378071202977824EA
:100CD0001203D178241210C070037F0222E4900125
:100CE000A7F09001A7E0FB245E12109E242A120FA9
:100CF00064242E1210FA242EF81210C070037F0202
:100D0000221210C8B401DB7F04229001A8EEF0A3E8
:100D1000EFF0E4A3F09001AAE0FFC39401400302C6
:100D20000F01E4A3F0EF1213FE121367D39400EE49
:100D3000940040117828E2FF08E2900080CFF0A3F1
:100D4000EFF0020E06200003020DBC121348FFD381
:100D50009DEE9C400A9001AAE01213D21214931245
:100D6000139E50051213914003020DDA12136E12F6
:100D7000136712146E504CA3E012142BE064016050
:100D800042121454C004C005C006C00712145FD03C
:100D900007D006D005D004120F02501C9001A8E025
:100DA000C313FEA3E013FFA3E0121386F583E0FC58
:100DB000A3E0D39FEC9E500BA215301401B3400367
:100DC000020EB61213CD121417020E0612139E5005
:100DD00005121391401D121348FFD39DEE9C400A4B
:100DE0009001AAE01213D21214931213CD12141709
:100DF000020EB69001AA121429E0B4011F9001AAB4
:100E0000E0FE25E02447F582E43401F583E0F8A311
:100E1000E0FDEE12141F9001AB020EB3121408C0D5
:100E200083C082120357C0009001AAE025E024325B
:100E3000F8121456D000120138D082D0831203C5A4
:100E400012136E12136712146E504B121454C00416
:100E5000C005C006C00712145FD007D006D005D069
:100E600004120F024030A215301401B34028900143
:100E7000AAE0FF25E0246DF582E43401F583E0FC6F
:100E8000A3E0FDEF25E0246BF582E4340112136743
:100E9000D39DEE9C40309001AAE012138612136796
:100EA000FFFBAA06E4F9F89001AAE0121409120364
:100EB0003F1201DE9001AAE025E02434F8EEF208AA
:100EC000EFF2A37401F09001ABE0603C9001AAE066
:100ED000FF1213861213411214081203DD000000E2
:100EE000001213CD1213417828E2FD08E290008031
:100EF000CDF0A3EDF0747E2F12142DE4F09001AA32
:100F0000E0FF1214B01213219001AAE004F0020DC8
:100F10000522123913E47B1EFAF9F8C31202862265
:100F20009001A7E075F00CA424A3F582E43400F549
:100F300083229001A8E025E025E02474F582E434C2
:100F400000F58322E47FE87E03FDFC1203570201D3
:100F50005325E02402F582E43401F583EEF0A3EF9B
:100F6000F0229001A8E025E025E02492F582E43407
:100F700000F58322F81203631201537807120297D7
:100F80009001A7E0FB25E025E022AB07AA06A90512
:100F9000A804E025E022E025E024B5F582E4340051
:100FA000F583E0FEA3E02275F00412042702033F5C
:100FB0009001A8E025E0242CF582E43438F583E4A0
:100FC00093229001BD1203C59001B5120357900101
:100FD000BD12033F0201DE9001A91203579001AD3B
:100FE00012033F020145F8EEF208EFF2E004F022AE
:100FF000FFD39001AEE09F9001ADE09E229001AD45
:101000001203570201389001A8E075F040A42406AD
:10101000F9740135F0FA7B01229001A8E025E02562
:10102000E0248EF582E43400F58322ED25E02404EB
:10103000F582E434012225E02418F8E2FE08E2FFFC
:10104000229001B312044302005E1203C59001A86E
:10105000E004F02225E02400F582E434012290012E
:10106000AD120357C302028675F01CA424D2F97492
:101070000035F0FA7B012275F00AA424F2F974001D
:1010800035F0FA7B0122F583E0FFA3E09001B7CFB2
:10109000F0A3EFF0229001A8E025E0247FF582E4A0
:1010A00034012225E02414F8E2FC08E2FD22F8E6EF
:1010B000FFE4FCFDFEEB25E025E022E025E025E055
:1010C0002408F8221202978F278E268D258C242241
:1010D00012034BEC4D4E4F229001A7E004F0E022AA
:1010E00025E024EEF582E43400F583229001A91274
:1010F0000357D3020286FA9001B312044C9001B652
:10110000221203C59001B902033FF81203D1EB2567
:10111000E025E02224CDF582E43400F5832225E0A9
:1011200024B5F582E434002224FFF582E43400F58E
:1011300083221201539001A91203C5900181120369
:10114000579001A912033F1201DE7808120297900E
:1011500001A91203C57F0FE4FEFDFC9001A9120353
:1011600057D3020286F5837475F0A37430F02253CE
:10117000BA0F43BA1075BBFF75A9C075AC0375AD46
:10118000C075AEC0229001B512033F9001B2E07568
:10119000F01CA424D2F582E43400F5832212035714
:1011A000900067E0FF02316D9001A912033FC3EF89
:1011B000940FFFEE9400FEED9400FDEC9400FC9083
:1011C00001A90203C5E5BAF053BA0F43BA10229041
:1011D00001B2E025E025E024EEF582E43400F58359
:1011E00022EF24D0FFEE348AFEED34FFFDEC34FF15
:1011F000FC2275F0041204271203C59001B3E00429
:10120000F022EF25E025E02400F8229001B2E0FB77
:1012100025E025E0242AF82225E025E02408F8022C
:10122000034BA804A905AA06AB07229001A9020353
:101230003F25E025E0244FF822FFF5AD8FAE53AAFD
:10124000CF22E47B32FAF9F8C30202861203D1906E
:1012500001A8E004F0221203D19001A9E004F022D9
:10126000FAF9F812033F0201DEE6FFE4FCFDFE128C
:101270000357020153F87475F2087430F222E0F556
:10128000B3A3E0F5B2A3E0F5B12274017E00A80794
:101290000822E0FF7401A8070822120357C30202C4
:1012A000869001B2E0FF25E022900067E090381BB5
:1012B00093F5AB229001A8E0C454F02493F822F5F2
:1012C00083E493FC740193FDEF221203D19001D5C6
:1012D000E004F0229001AD12033F9001A922900199
:1012E000AB12033F9001A7229001AC12033F900183
:1012F000A822E4F5AB023A699001A902033F9001EC
:10130000A702033F9001A9E025E022F58375F002D2
:10131000EF020427F583E4F0A3F022747A2FF5821C
:10132000E43401F583E4F0EF25E02469F582E43448
:1013300001F583E4F0A3F0EF25E0246BF582E434BB
:1013400001F583E4F0A3F0EF25E0246DF582E434A9
:1013500001F583E4F0A3F0229001AAE0FF25E02448
:10136000B7F582E43400F583E0FCA3E0FDEF25E06F
:1013700024B5F582E43400F583E0FEA3E022900179
:10138000AAE0FF25E024CBF582E43400F583E47580
:10139000F0011200BDEF25E024CBF582E4340022F9
:1013A000D3900186E09400900185E0940022D390D0
:1013B0000166E09400900165E09400229001A8E0AD
:1013C000FF25E0242CF582E43438F583229001A92E
:1013D000E0FF9001A8E0FE7401A80608229001AA8F
:1013E000E0FF25E024B7F582E43400229001A8E074
:1013F00025E02477F582E43401F583E475F00112E9
:1014000000BDFCD3E5F09FEC9E229001A7E025E013
:101410002469F582E4340122EF25E025E024C5F5B6
:1014200082E43400F58322F583E0F8A3E0FDEF25A4
:10143000E02434C8F208EDF222E0FF247EF582E4D5
:101440003401F58322E025E02435F8C3E29FFF183C
:10145000E29EFEA3F0A3EFF022747A29F582E43431
:1014600001F583227828E2FE08E2FFE4FCFD2290E9
:101470000080E0FEA3E0FFE49001B20203C5FF900C
:1014800001A8E0FCA3E0FDC3EF9DEE9C2290015A71
:10149000E09400900159E0940022EF25E02439F90E
:1014A000C3E322F583EEF0A3EFF022EF25E0247FE3
:1014B000F582E434012225E02434F8E2FC08E2223B
:1014C00025E02477F582E4340122E49001A7F012AC
:1014D00033C4246BFBEE25E025E02408F812034B0F
:1014E000780412338AAF03123CCB1233C42469FF51
:1014F000EE25E02418121624FE75F008A42467FFD8
:10150000EE25E0241C12162404F0E0C3940240BF30
:101510007F7BC0077824123385D007123CCB7F77BE
:10152000C007782412034BAD07AC06D007123CCBA2
:101530007F83C007782E123385D007123CCB7F7F84
:10154000C007782E12034BAD07AC06D007123CCB78
:10155000E49001A7F09001A7E0FEC454F0248512A6
:10156000336D1233BD12164DFEC454F0248712336E
:101570006D12339A123CCB9001A7E0C454F0248939
:101580007D647C00121656301828C454F0248F1243
:101590001640C454F02491121640C454F0248B7D9C
:1015A000397C30121656C454F0248DFF7D397C30BE
:1015B0008044FEC454F0248FFFEE25E0243212163E
:1015C00032FEC454F02491FFEE25E024341216328A
:1015D000FEC454F0248BFFEE25E02438F8E2FC082A
:1015E000E212164DFEC454F0248DFFEE25E02436A1
:1015F000F8E2FC08E2FD123CCB9001A7E004F0E029
:10160000C3940150030215457F9F785DE6FD7C0081
:10161000123CCB7FA1785FE6FD7C00123CCB7F9D26
:10162000C00790008612033FAD07AC06D007123CFE
:10163000CB0230EAF8E2FC08E2FD123CCB9001A7B5
:10164000E022F8E2FC08E2FD123CCB9001A7E02288
:10165000FF7D397C30123CCB9001A7E022FD123C8B
:10166000CB9001A7E022FF123CCB9001A7E022E43F
:101670009001AAF0EF700302171D123BC0E4900125
:10168000A9F09001A9E0FFC394025010EF121221BB
:1016900012040E0000000012124980E6123A69E4BA
:1016A0009001A9F09001A9E0FF121221C0001231AF
:1016B0005E120138D000121246E0C3940240E59059
:1016C00001AAE004F0E0C3940740D1E49001A9F03E
:1016D0009001AAE0FFE4FCFDFEC004C005C006C006
:1016E000079001A9E012122112034BD003D002D0BF
:1016F00001D0001201DEC0041212149001A9E024EE
:101700005BF8E6FFE4FCFDFED0001201539001AB54
:101710001203C59001AB12033F7807120297121211
:10172000F425E02408F8121246E0B402A3E4900184
:10173000A9F09001A9E0FFC3940240030217C9EF8A
:10174000121208E47B107A271212369001A9E0FBEE
:101750005027121208EF24F0FFEE34D81211D8EB04
:1017600025E025E0243BF81203D11212F42410F8EE
:101770007427F2087410F2801D25E025E0243BF860
:1017800012040E00000000EB1212081212F42410D2
:10179000F8EEF208EFF29001A9E0FB121221120418
:1017A0000E00000000EB25E0245BF8E4F208F29064
:1017B00001A9E0FF25E02410F8E2FC08E2FDEF2596
:1017C000E02414F8ECF208EDF2E025E02418F8E447
:1017D000F208F2E004F0021722229001A7EEF0A333
:1017E000EFF0E49001AAF09001A9F09001A9E0FBCC
:1017F000C3940240030218AB900168E0940090018A
:1018000067E0940040109001A91229FB12040E0019
:101810000000000218A2EB25E0245CF9E370021935
:10182000E37008122A0F122A7C80309001A9E0FD93
:1018300025E02457122A30ED122A14123C3FC3909F
:10184000017DE09F90017CE09E5010122A0F122A29
:101850007C1229FB12040E000000009001A9E01286
:101860002A07C00012034BC006C0079001A9E0255B
:10187000E02410122A70D007D006120138D00012CE
:1018800003D19001A9E0FF25E0245BF808E22401E0
:10189000F218E23400F2EF25E0245CF99001A7E0B1
:1018A000FEA3E0FFC3E39F19E39E40069001AAE078
:1018B00004F09001A9E004F00217DB9001AAE064B3
:1018C0000270649001A9F09001A9E0FFC394025056
:1018D00054EF25E0245B122A304E6049E4FCFDC041
:1018E00004C005C006C007E0122A0712034BD0034C
:1018F000D002D001D0001201DE9001A9E0FD25E068
:101900002414F8EEF208EFF2ED25E0245BF8E4F29F
:1019100008F2ED122A0712040E000000009001A93F
:10192000E004F080A2C2172290015BE475F001127E
:1019300000BDD3900164E09400900163E094004006
:101940000312330BD3900166E09400900165E0949C
:1019500000400312330BD3900186E0940090018580
:10196000E09400400312330BD3900168E0940090A0
:101970000167E09400400312330BD3900174E094AC
:1019800000900173E09400400F12330B900173E05C
:101990007002A3E07002D210D3900172E094009024
:1019A0000171E09400400312330BD390015AE0948C
:1019B00000900159E09400400312330BE49001A71A
:1019C000F09001A7E0FFC394014003021A60740184
:1019D0007E00A807088005C333CE33CED8F9FF9028
:1019E0000152E0FDEF5D601A123312F583E4F0A3BB
:1019F000F012333FF0A3F0EF123321E4F0A3F00232
:101A00001A419001A7E0123317F583E0FEA3E0D35B
:101A10009400EE94004024123312123309EF123373
:101A200017F583E0FEA3E04E70117F0D1239DD90B3
:101A300001A7E0123321EEF0A3EFF09001A7E0FF41
:101A4000123321123358400912333F75F00112004E
:101A5000BD9001A7E0FF123363F5831233584007AE
:101A6000EF1233631233099001A7E004F00219B1B9
:101A700022782412034B9001A91203C5782E120379
:101A80004B9001AD1203C5E49001A8F0D39001661C
:101A9000E09400900165E09400403C9001A912039D
:101AA0003F9000861203C590008612033F9001A864
:101AB000120F7A2454F582E43438F583E493FE74EB
:101AC0000193FFEE3395E0FDFC120153780A1202F8
:101AD000AA120F521203C5120F5212033F90008632
:101AE000120FF0C004C005C006C007120F52120347
:101AF0003F9001A9120FF09001B51203C59001B9F2
:101B00001203DD00010000D007D006D005D004127A
:101B100028991210091203C59001B51203DD0001C6
:101B2000000012100912033F9001B91203C5900181
:101B3000AD12033F1228999001A8120F73121104DD
:101B40001203C5EB121058C002C0019001A8E0FFBB
:101B500024D1F9E43400FA9001B412044C9001B796
:101B60007407F0EF25E025E012110412033F900105
:101B7000B81203C5D001D0021237989001A8E01224
:101B800010587D07122346AF41AE40AD3FAC3E90AA
:101B900001A8E025E01210D01203C59001A8E004CE
:101BA000F0E0C394015003021A7C22439F04E453E3
:101BB000C6DFE5C600B5C6F375830075820775FDFF
:101BC0000DE4E5FEF4FF75830075820675FD0DE4F6
:101BD000E5FEB50704F59E8003759E0078100000B1
:101BE000D8FC53C6E043C60843C680759607759770
:101BF0000575830075820475FD0DE5FD0404F58F00
:101C000075830075820375FD0DE4E5FEF4FF7583B1
:101C10000075820275FD0DE4E5FEB50704F59580BB
:101C20000375958375BE0E5392FE9001007F007E72
:101C300002E4F0A3DFFCDEFA78007F00E4F208DFC4
:101C4000FC78FFE4F6D8FD7581C5021C7B0200001C
:101C5000022DABE493A3F8E493A34003F68001F2D2
:101C600008DFF48029E493A3F85407240CC8C33395
:101C7000C4540F4420C8834004F456800146F6DF64
:101C8000E4800B0102040810204080903B03E47EB6
:101C9000019360BCA3FF543F30E509541FFEE49359
:101CA000A360010ECF54C025E060A840B8E493A320
:101CB000FAE493A3F8E493A3C8C582C8CAC583CA4B
:101CC000F0A3C8C582C8CAC583CADFE9DEE780BE03
:101CD000123BC09001AD1211B5E49001A7F0900144
:101CE000A7E0FFC3940250121211F212040E00007A
:101CF00000009001A7E004F080E49001A77405F0D3
:101D0000123A66E49001A8F09001A8E0FF1211F3E6
:101D1000C00012315E120138D00012123CE0C394B0
:101D20000240E51212E2E49001A8F09001A8E0FF61
:101D3000C39402502E1211F2C00012034BC004C013
:101D400005C006C0079001A8E02463123164121296
:101D500012D007D006D005D004120145D0001212CF
:101D60003C80C89001A7E014F0E07094E49001A8D2
:101D7000F09001A8E0FBC394025050A31203DD00D1
:101D80001482001212E8EB1211F31203631201DE47
:101D90009001A91203C51212E89001B21203C57F87
:101DA000807E007D007C00123913121232500B909D
:101DB00001A8E0245BF87680800C1212E89001A85C
:101DC000E0245BF8A60712123F80A69001ADE0F573
:101DD000BA229001A77407F0A3F0A31203DD00005C
:101DE0000000123BC09001A7E0FF601B12127A8036
:101DF00005C333CE33CED8F9FFADACEF5D7008909C
:101E000001A7E014F080DE9001A8E0FF601B121231
:101E10007A8005C333CE33CED8F9FFADAEEF5D7017
:101E2000089001A8E014F080DE9001A712128280D1
:101E300002C333D8FCF5AC9001A81212828002C311
:101E400033D8FC1212299001B11211B5123A69E48B
:101E50009001A7F09001A8E024631231649001ADD5
:101E60001203C51212C412128A50061212C41203AF
:101E7000C59001A7E004F0E0C3940240D79001A907
:101E8000120357C00012121B7803120297D00012DF
:101E900001389001A91203C512121B785F1203D1F9
:101EA00012121B78101202978FB312121B780812AD
:101EB00002978FB212121B8FB143AA309001B1E08A
:101EC000F5BA12116B22E4FDED25E0300509243C42
:101ED000F582E4343880072424F582E43438F5832D
:101EE000E493FE7401931229EDEEF0A3EFF00DEDF3
:101EF000B402D5E4FD74017E00A805088005C33353
:101F0000CE33CED8F9FF900150E0FBEF5B700302B7
:101F10001F89ED25E02447122A30122A37402AD3A0
:101F2000EB942CEA9401ED400E25E02447F874016F
:101F3000F208742CF2801225E0241C122A30ED25C0
:101F4000E02447F8EEF208EFF2ED25E02434F582C4
:101F5000E43438F583E493FE740193FFED25E02427
:101F60001DF9D3E39F19E39E4043122A56CEC313B3
:101F7000CE13D8F91229EDE0FAA3E0D39FEA9E40F0
:101F8000091229EEE0FEA3E0800A122A56CEC313FE
:101F9000CE13D8F9122A4780141229EEE0FEA3E0EE
:101FA000122A47ED25E02447F8E4F208F20DED642B
:101FB000026003021EE52220CA03022097E5467054
:101FC00003022097E4FF74462FF8E6FE74A82FF56D
:101FD00082E43401F583EEF0E4F60FEFB40AE79003
:101FE00001A8E0FF54F0FEEF540F9001A7F0AF06F8
:101FF000EF1204611FFD50200460200B702022901E
:102000002063A02042B02094C0000020977858E6BA
:102010004401805C7858E654FE8055E4785AF6FF17
:10202000123C11785AEFF67856BFFF0376072276F6
:10203000FF229001A7E0FF700A7858E630E168546B
:10204000FD802DEF6401705F7858E620E15944026D
:10205000801E9001A7E0FF700A7858E630E54854EA
:10206000DF800DEF6401703F7858E620E5394420A9
:10207000F6802D9001A7E0FD70127858E630E22737
:1020800054FBF690017BE04408F08014EDB4011796
:102090007858E620E2114404F690017BE04404F015
:1020A000751C02221238D722E49001A9F09001A8F1
:1020B000F09001A8E0FBC39401400302217C900151
:1020C00053E0707012147D404C9001A8E0FF25E0B1
:1020D00024FDF582E43400121356C39DFFEE9CFEEE
:1020E000E4FCFD9001AA1203C5EB1213B1E493FEC8
:1020F000740193FF7C007D031200ABE4FD9001AA04
:10210000120357D3120270407A1213BD8002C333F8
:10211000D8FC02216E1213ACE493FC740193FD12FF
:10212000148A9D19E39C405B1213BD8002C333D80F
:10213000FC02216E3016279001A8E0FD1213B17445
:10214000019325E0FFE49333FEED12148B9F19E316
:102150009E40301213BD8002C333D8FC802012137E
:10216000AC74019324D8FDE49334FFFC12148A9DCF
:1021700019E39C400E1213BD8002C333D8FC4F906C
:1021800001A9F09001A8E004F00220A19001A9E0CB
:10219000FF9001E9F0229001A77407F0FBA312035E
:1021A000DD00000000123BC09001A7E0FF601B12A1
:1021B000127A8005C333CE33CED8F9FFADACEF5DD4
:1021C00070089001A7E014F080DEEB601A74017EC5
:1021D00000A803088005C333CE33CED8F9FFADAED7
:1021E000EF5D70031B80E39001A71212828002C38F
:1021F00033D8FCF5AC7401A803088002C333D8FCC3
:102200001212299001B01211B5123A69E49001A797
:10221000F09001A7E0FFC394015027746B2FF58263
:10222000E434001231699001AC1203C51212D812C5
:10223000128A50061212D81203C59001A7E004F0CA
:1022400080CF9001A8120357C0009001A812033F4D
:102250007803120297D0001201389001A81203C52A
:102260009001A812033F9001491203C543AA309080
:1022700001B0E0F5BA12116B22C0E0C0F0C083C01B
:1022800082C0D075D008C2CFD21130CD0302233B1B
:1022900020CC6130CB2385CE54E554C394804016C6
:1022A00075F003E554902B921204271204558B51BC
:1022B0008A528953807902233185CE35E5547022C4
:1022C000E535B410099001EAE0F45280807BE535F1
:1022D000B420089001EAE04280806E8535460554BE
:1022E0008067E554C3940A500774462554F8A63510
:1022F00005548055E554B4C0057546C0804BE5547F
:10230000B4C1107858E630E105754690803B7546BB
:10231000918036E554B4C2107858E630E20575462F
:10232000A080267546A18021E554C3948040107892
:1023300051E475F00112043312005EF5CE800A05F7
:1023400054E5502554F8E6F5CED210D0D0D082D046
:1023500083D0F0D0E0329001B112044C9001B4ED82
:10236000F0E4F528F527F526F52574FFF52CF52B77
:10237000F52AF529E4F530F52FF52EF52DF5249005
:1023800001B4E0FFE524C39F50709001B1120443F3
:1023900075F004E524A4F58285F0831202D18F3410
:1023A0008E338D328C31AF28AE27AD26AC25D312BB
:1023B000334D400C853428853327853226853125D9
:1023C000AF2CAE2BAD2AAC29C312334D500C853443
:1023D0002C85332B85322A853129E5302534FFE5DC
:1023E0002F3533FEE52E3532FDE52D35318F308E1C
:1023F0002F8D2EF52D052402236F8528398527384A
:10240000852637852536852C3D852B3C852A3B85C1
:10241000293A853041852F40852E3F852D3E9001FC
:10242000B4AF30AE2FAD2EAC2D12332D2290015211
:10243000E0900157F012139E50051213914007E4EB
:10244000900152F08008122098900152EFF0900114
:1024500052E0FF123076EF700D12139E50081213E7
:102460009150030224F0900153E0702F1227E57F72
:10247000021239DDD312147D401E30140DEF7803A3
:10248000CEC313CE13D8F9FF800EEEC4F854F0C8B3
:1024900068FEEFC4540F48FF120CFA900153E0FF9E
:1024A000A3E06F605B122EDAE49001A7F09001A721
:1024B000E0FFC394015043EF2404FF74017E00A8A1
:1024C00007088005C333CE33CED8F9FF900155E01D
:1024D000FDEF5D601D121390500512139F4008120E
:1024E00013FA121341800B7F081239DD1213FA120E
:1024F00014939001A7E004F080B3900153E0A3F09F
:1025000022900151E0FF900150E0FE6F601D9001AC
:1025100056E0FD900155E0FC6D60103001047855E7
:10252000A60630022B7864A6048025900150E0FEB8
:102530006F600D30011A7855A606E47864F68010B5
:102540001233A6600B3002087864A606E47855F6CC
:102550001233A66016EE540F600B20140E7864E65A
:102560004480F680067864E6547FF6900152E0FFDE
:10257000900157E06F6016EF540F600B20140E7837
:1025800064E64440F680067864E654BFF6D39001D2
:102590005AE09400900159E094007864E6400544C4
:1025A00008F6800354F7F67864E63014054404F620
:1025B000800354FBF6900150E0A3F0900155E0A396
:1025C000F0227B077A079001A71203DD00000000CC
:1025D000123BC0EB601A74017E00A803088005C39B
:1025E00033CE33CED8F9FFADACEF5D70031B80E383
:1025F000EA601A74017E00A802088005C333CE3356
:10260000CED8F9FFADAEEF5D70031A80E3AF03746F
:1026100001A807088002C333D8FCF5AC7401A802F6
:10262000088002C333D8FC1212299001AF1211B5F1
:10263000123A691211909001AB1203C51212CE1218
:10264000128A50061212CE1203C59001A712035728
:10265000C0009001A712033F7803120297D0001226
:1026600001389001A71203C59001A712033F900003
:102670009E1203C543AA309001AFE0F5BA12116B68
:1026800022E4FF123C117856BFFF047607800276E1
:10269000FFE47855F67857762608F6785AF6FFEF75
:1026A00025E02424F582E43438F5831233BDFDEFB0
:1026B00075F008A4246512339275F008A4246712FB
:1026C00033B224691233B2246BF8E4F608F60FEF44
:1026D000B402CCE4FFEF12336F1233BDFDEFC454EC
:1026E000F0248512339212336F12339AEFC454F0F0
:1026F0002487123392C454F02489F8760008766453
:10270000EFC454F0248B12337B248D12337B248F3F
:1027100012337B249112337B2493F8E4F6EF25E007
:102720002454F582E43438F583740193FEEFC454E5
:10273000F02494F8A6060FEF6401709975505522A5
:102740009001B012044C9001B3EDF0E4F525F526AC
:1027500074FFF527F528E4F52EF52DF52CF52BF56E
:10276000249001B3E0FFE524C39F50599001B012BB
:10277000044375F002E524A4F58285F0831200D3AA
:10278000F52A85F029D39526E52995254006852942
:1027900025852A26C3E52A9528E52995275006850B
:1027A0002927852A28E4FCFDE52E252AFFE52D357D
:1027B00029FEED352CFDEC352B8F2E8E2D8D2CF535
:1027C0002B0524809CE4852639852538F537F53698
:1027D00085283D85273CF53BF53A852E41852D40E2
:1027E000852C3F852B3E9001B3AF2EAE2DAD2CAC8A
:1027F0002B12332D22E49001A8F09001A8E0FFC332
:1028000094014003022898EF1213FE1213674E60E2
:102810000302288F30003D9001A8E01214A6121385
:102820005CFFC39DEE9C502A9001A81214359001C4
:10283000A8E01213B1C37401939FE4939E50137FD9
:10284000051239DDEEC313FEEF13FF1213DC404F08
:102850008031803B9001A8E0FF1214A6FDEF25E037
:102860002432F8E2FE08E2FFC39DEE9C50271214CA
:1028700035D39432EE940040167F051239DD1213E1
:10288000DC401C9001A81214297401F0EF800A901A
:1028900001A8E080049001A8E01214B01213419046
:1028A00001A8E004F00227EA229001B11203C5E476
:1028B0007BE87A03F9F89001B1120FC19001C112BF
:1028C00003C59001C1120F34A804A905AA06AB07DD
:1028D0009001B1120FD09001C51210F19001C112F8
:1028E0000F3B120FB29001C91203C59001B512033C
:1028F0003F9001C9120F3BA804A905AA06AB079097
:1029000001BD120FD09001CD1210F19001C5120F30
:102910003B9001BD1203C59001BD120357C000C01A
:1029200001C002C0039001CD120F34D003D002D0F9
:1029300001D000120138120FB29001D11203C5E488
:102940007FE87E03FDFC9001C9120F3B9001D1127C
:102950000FF022E49001A8F09001A8E0FF1210937C
:10296000EF25E0241012102AD39DEE9C4014E012B3
:102970001093C3EF9DFFEE9CFEE4FCFDA31203C584
:10298000800A9001A91203DD000000009001A91245
:10299000033F78071202BE9001A91203C59001A857
:1029A000E0121026E4FCFD78071202BE9001AD1281
:1029B00003C590014EE070127F03FEFDFC9001A95B
:1029C000120F3B120FED7802800B9001A912033F0A
:1029D000120FED78011202979001AD1203C590011C
:1029E000AD12033F78071202979001A8E025E0247A
:1029F00018120FD6E06402600302294822FFED2579
:102A0000E024A7F582E43401F58322E0FF25E024E9
:102A10005BF8E4F208F2EF25E025E0244FF822907D
:102A200001A9E0FF25E02410F8E2FC08E2FD229075
:102A300001A8E025E0245FF582E43401F583E42277
:102A4000F8E2FE08E2FF22ED25E0241CF8E2FA0895
:102A5000E2FBD39FEA9E22FFED75F008A42465F8FF
:102A6000A60608A60722ED25E02447F9E3FE09E3C0
:102A7000780222EE25E0241DF9C3E39D19E39C2290
:102A8000F8E2FE08E2FBAA06E4F9F822EF25E024CA
:102A900057F8ECF208EDF222ED2404FF7401A807C8
:102AA0000822123BC09001AC1211B5782012040E1E
:102AB000000000009001AB7405F0123A6678201215
:102AC000036312119012013878201203D11212E21E
:102AD000782012034BC004C005C006C00712119035
:102AE000121212D007D006D005D00412014578206A
:102AF0001203D19001ABE014F0E070BE9001A71278
:102B000003DD00445C001212EE7820120363120110
:102B1000DE9001A71203C51212EE9001B21203C596
:102B20007FA07E007D007C00123913121232500605
:102B3000785D76A080071212EE785DA6079001AC52
:102B4000E0F5BA12129922E49001B2F0EF60791226
:102B50003BC09000961203DD00000000123A69901D
:102B6000009612118D1201389000961203C5900143
:102B7000B2E004F0E0FFC3940740E1AB07E490004B
:102B80009612125078201203D1785D90009612129E
:102B900059C0079001B2E0FBE4FAF9F8D00712013E
:102BA000DE780712029778241203D1E4FB78201212
:102BB000034BEB25E025E02474F582E43400F58333
:102BC0001203C50BEBB403E5900080121157A3125A
:102BD00003DD00075300782412034B1211D190003B
:102BE0008A1203C5782812126622E49001A7F0A386
:102BF000F030111790015DF0A37437F07F0C12399B
:102C0000DD900171EEF0A3EFF0C211A21492152035
:102C100001253002028020D3900166E094009001EB
:102C200065E094005011900172E09400900171E011
:102C30009400500320100D90015DE4F0A37437F070
:102C4000C214800B90015DE4F0A37403F0D2143041
:102C50001408E4FF1239AB123B46A215301401B33D
:102C60005017900153E06004D216800D7F03123993
:102C7000DD900159EEF0A3EFF0900153E0700830C1
:102C800016031238D7C216227858E6F520A208306B
:102C90000001B350147F041239DD900185EEF0A3DA
:102CA000EFF01238D7A2009208A209300101B35008
:102CB0001212348A300105122D088003123D00A241
:102CC000019209301205122D08C212A20A30020127
:102CD000B35004A202920A3013051238D7C213A2CD
:102CE0000D300501B35030E4FFEF25E03005092435
:102CF0003CF582E4343880072424F582E434381229
:102D000012AF75F008A42465F8A60408A6050FEF15
:102D1000B402D6A205920D22E4FF123A0C0F12164D
:102D20005F22FE0010FE0028FE0032FE0014FE00AE
:102D300034FE0018FE0036FE001CFE0038FE0000C7
:102D4000FE0020FE002AFE0008FE0024FE002E01E8
:102D500000B50100BF0100FF0100860101E701018C
:102D6000E801014D01014E0101500101E90101524B
:102D700001015301015501015F01015B01015D0189
:102D8000016301016501017101017301018101010B
:102D90000601018501018701018F01019701019F52
:102DA0000100CD01008001010201010401010001C7
:102DB00000B50100B7010169010177123A8F123C99
:102DC000BA123CEB122671123B841239461236C8F5
:102DD000D2AF751C01E51C24FE602114603914601B
:102DE0004914605324047060123CDB123C55123CC1
:102DF0006B123C81123C287F0212385CD2D8E490DE
:102E0000015BF0A3F09001D6F0A3F0122C78E51D41
:102E100070FC123ADE802CD2D8E51D70FC120A8EAE
:102E20008F1C122BDA123ADE80211237118F1C12FE
:102E300014BA1219188014300103122F6F12241DB6
:102E40001224F1751C038003751C01123D05121F2D
:102E5000A78082C0E0C0F0C083C082C0D075D0100F
:102E600053B9FDE51D6401702C9001D5F09001D59A
:102E7000E0FFC39402500F1231619001D5E01211AE
:102E8000F31212BA80E77F01123B2643B901D2D870
:102E9000751D02804AE51DB40217121190782012A8
:102EA00003D17F01123BDD43B901D2D8751D0680E5
:102EB0002EE51D640670289001D5F09001D5E0FF45
:102EC000C394015017746B2FF582E43400123169FA
:102ED0009001D5E01212001212BA80DF751D00D0E9
:102EE000D0D082D083D0F0D0E0329001A8EFF09023
:102EF000017BE06003022F6EF9FFFE7401A8060853
:102F00008002C333D8FCFD9001A8E05DFC90015421
:102F1000E05D6C600D30020A20180790017BE044F0
:102F200002F0900154E05DB50513EE2404FC740139
:102F3000A804088002C333D8FC49F9800D7401A8A5
:102F400006088002C333D8FC49F99001A8E05DB5BA
:102F5000050F7401A806088002C333D8FC4FFF8018
:102F600011EE2404FD7401A805088002C333D8FCC7
:102F70004FFF0EEE64017083E95F900155F022125D
:102F80001EB612353B90014DEFF012000EEF60744B
:102F900090014EE0703E123AB71233CE7F011239E3
:102FA000DDD3900164E09400900163E0940040025E
:102FB0008011301702800CC3784CE2941E18E29402
:102FC00000500EEEC4F854F0C868FEEFC4540F4829
:102FD000FF1217CA90014EE0FF12342C90014EE010
:102FE000FFA3E06F601E122FF5900150E054F060D7
:102FF0000D7F071239DD900167EEF0A3EFF090012D
:103000004EE0A3F0229001A7EFF0E4FAFE90017BDE
:10301000E07072FD7401A805088002C333D8FCF982
:103020009001A7E059FC90014FE0596C60079001B6
:103030007BE04401F090014FE059600D122A888036
:1030400002C333D8FC4AFA800D7401A80508800237
:10305000C333D8FC4AFA9001A7E059600F7401A865
:1030600005088002C333D8FC4EFE800B122A8880EC
:1030700002C333D8FC4EFE0DED64027097AF06EA32
:103080005F900150F0229001A8EFF0E4F99001A9BF
:103090007405F074017E00A801088005C333CE33A7
:1030A000CED8F9FF9001A8E0FDEF5DFD900153E05F
:1030B000FBEF5B6D7001E4600D9001A8E09001539F
:1030C000F0121449E4F07858E630E00C900153E037
:1030D00070069001A9740AF0121449E004FFF09000
:1030E00001A9E0FEEFC39E50037F0022121449EEB7
:1030F000F009E9640170967F0122E47FB37E06FD4A
:10310000FC782012036312112240031211987FFFF2
:10311000121147400678C576FF800A9001A9120374
:103120003F78C5A607E49001A8F09001A8E0FFC38E
:1031300094015039EF12120012034BE47BB37A066C
:10314000F9F81211224003121198E47FFF1211487E
:1031500040071212A476FF800B9001A912033F12C0
:1031600012A4A6079001A8E004F002311A2212036B
:103170006374632FF582E43400F583E0FFEFC394BA
:1031800004500553B9EF800343B910EF6003B40452
:103190000B85B71985B61A85B51B803AEF640160B7
:1031A00004EFB4050B85EB1985EA1A85E91B802627
:1031B000EF64026004EFB4060B85F31985F21A85FB
:1031C000F11B8012EF64036004EFB4070985FB195B
:1031D00085FA1A85F91BAF1BAE1AAD19AC182290EF
:1031E00001B31203C59001B012044C9001B3120355
:1031F0003F78041202BE9001B31203C59001B7E0FC
:10320000FF74017E00A807088005C333CE33CED8F3
:10321000F924FFFFEE34FFFE3395E0FDFC1203704E
:103220001201539001B3120FF09001B7E0F9F812B8
:1032300010B49001B0120443120301AF27AE26ADC3
:1032400025AC2478041210B42290017BE054036072
:103250000312328490017BE054FCF0900155E0545D
:103260000FFF602890017BE0FE30E2067864A6073D
:103270008010EE30E31D900155E0540FC454F078F7
:1032800064F6E47855F620180312328490017BE04E
:1032900054F3F022C2107F091239DD900173EEF071
:1032A000A3EFF0C2927F217E007D007C00123BF9EB
:1032B000D29222E4FBFE783AE2FD74632EF582E4BA
:1032C0003400123CF8FCED4CF20EEEB402E8900033
:1032D00073E0FE900067E090381B93FDEE4D900088
:1032E00073F0E4FE9000A2E0FF746B2EF582E434EC
:1032F00000123CF8FDEF4D9000A2F00EEEB401E498
:10330000900073E0FF783AE24FFF9000A2E04F4256
:10331000D442F442E4F452DC22F58374FFF5F00267
:1033200000BD9001A7E0FF25E02469F582E43401A7
:103330002225E0246DF582E43401F58322E0FBE4EC
:10334000FAF9F81201DE8F458E448D438C4222EF4C
:1033500025E0246BF582E43401F583E422AB34AA42
:1033600033A932A831020286E0FCA3E0D39400EC3A
:1033700094002225E0247FF582E4340122FFEE252B
:10338000E0242CF582E43438F58322F8E4F608F6DC
:10339000EFC454F02212034B7810120297AD07AC21
:1033A0000622F8A60408A605EF2274019324D8FD8E
:1033B000E49334FFFC22900156E0FF900155E0FEBB
:1033C0006F22F8E4F608F6EF75F008A422E493FC07
:1033D000740193229001A7E0FE75F008A422E49006
:1033E00001A7F09001A7E0FF25E02414122A18EFAE
:1033F00025E02410122A30C39DEE9C5034E025E0D5
:103400002415F8C3E29FFF18E29EFE7C007D641243
:103410000487C006C007E025E02443122A70D007C5
:10342000D0061201DED3EF940AEE94004003D217C7
:10343000229001A7E004F0E0B402A8229001A7EFD7
:10344000F0E4A3F09001A8E0FFC39402504B740194
:103450007E00A807088005C333CE33CED8F9FF908D
:1034600001A7E0FDEF5D60237F061239DD122A1F00
:1034700075F0011200BDFCD3E5F09FEC9E4012E414
:1034800090014DF0A3F0123D008006122A1FF0A318
:10349000F09001A8E004F080AB22E4FF90014EF030
:1034A000A3F0900179F0900167F0A3F0900150F043
:1034B000A3F0C217EF25E02443122A1890017CECF8
:1034C0008DF01200BDEF122A23F0A3F00FEFB4022B
:1034D000E390017CE0C313F0A3E013F090017CE0E3
:1034E000FEA3E07802CEC313CE13D8F9F0EE90011C
:1034F0007CF022E49001A8F09001A8E0FFC39402C0
:103500005046EF25E025E0243BF8120363C000900D
:1035100001A81210AB12034BD0001201459001A973
:103520001203C5E47FFF7EFFFDFC9001A91210513C
:1035300040037F02229001A912033F9001A8E025D9
:10354000E02410120FD680B07F0522E4FFFE900128
:103550004EE07021EE75F008A42465F8E6FC08E65C
:10356000FD122A6340327401A806088002C333D8D2
:10357000FC4FFF8023EE75F008A42466F8E624FBD8
:10358000FD18E634FFFC122A63400D7401A80608FA
:103590008002C333D8FC4FFF0EEEB402B19001E7B6
:1035A000EFF022A907E4FFFEEEC394005010746F01
:1035B0002EF582E43400123CF84FFF0E80EAE960F9
:1035C00005EF42D48004EFF452D4EFF4FE52F4EF4E
:1035D00042E4ED6005EF42EC8003EE52ECEFF4FEC6
:1035E00052DCEB6005EF42808003EE52809001EAEE
:1035F000EFF022C0E0C0F0C083C082C0D075D00020
:10360000C000C28D758C32758AEB9001D6E475F0DE
:10361000011200BDC39001D7E094149001D6E0944C
:1036200000401290015BA3E0785FF690015BE4F04C
:10363000A3F0120004D000D0D0D082D083D0F0D03C
:10364000E0329001811203DD00000000E4FF123B34
:103650002675ABFF123A6990018112118D12013863
:103660009001811203C51212E290018112033FC042
:1036700004C005C006C007121190121212D007D064
:1036800006D005D0041201459001810203C5E490E3
:1036900001A8F09001A8E0FFC39401503AEF25E0A3
:1036A000243612102A7C007D64120487C006C007ED
:1036B000E025E024AFF582E43400120F90FBAA0667
:1036C000E4F9F8D007D0061201DE9001A8E025E069
:1036D0002438120FD680BC22E4FFEF25E02444F505
:1036E00082E43438F583E493F8740193FDEF25E028
:1036F0002443C8F208EDF20FEFB402DEE4FFEF2539
:10370000E0244CF582E434381212AF25E024AFF502
:1037100082E43400F583ECF0A3EDF00FEFB401DEAA
:10372000229001A77405F03001161234E39001A72E
:10373000EFF0BF0205D212E0FF22122943123755E3
:10374000123979121A611204F99001A7EFF0BF0241
:1037500005D213E0FF2212389A12367E123A3A90BE
:1037600001A7E0FF22E49001A8F09001A8E0FFC3C8
:1037700094025033EF1210267C007D64120487C03F
:1037800006C007E025E02443F8E2FE08E2FBAA06B3
:10379000E4F9F8D007D0061201DE9001A8E025E098
:1037A000241C120FD680C3229001B812033FC0031D
:1037B000C002C0019001B412103475F004A4F58267
:1037C00085F083D001D002D00312031B9001B41204
:1037D000044374011200779001B4121034FF900179
:1037E000B7E0B50704E4120099229001B7E0FEA308
:1037F000E0FFC003C002C00112103175F002A4F551
:103800008285F083D001D002D003EE8FF012010B3D
:103810009001B31204437401120077121031FF902B
:1038200001B6E0B50704E412009922010204081071
:103830002040802800320032003C003C0190003CD7
:10384000003C003C00780078003C003C03E803E8C2
:10385000003C003C0082012C0064006400640064B1
:10386000006400640014000000000000EF6003D357
:103870008001C392099201EF6003D38001C3920AD1
:1038800092027858A60790015DE4F0A37437F07FA8
:103890000A1239DD900163EEF0A3EFF07F0B1239CD
:1038A000DD900165EEF0A3EFF022E4FFEF25E024C8
:1038B00034121097EF25E02432F8E2FA08E2FBD345
:1038C0009DEA9C4012EB9DFDEA9CF8EF25E0243632
:1038D000C8F208EDF2800AEF25E02436F8E4F20899
:1038E000F20FEFB401C622E51D70FCE4FF1207D908
:1038F000E4FF122B37E4900153F0900155F0FF12D2
:10390000130B12149B1213410FEFB401F2200005A8
:10391000121390400D7F041239DD900185EEF0A363
:10392000EFF0229001AE1203C59001B212033F9056
:1039300001AE120357D3120286400B9001B212035C
:10394000579001AE80099001AE1203579001B21258
:10395000033F1201452243F80875CD4053CC7F4305
:10396000CC4043CC2043CC1043CC0453CCFD43CBC0
:103970000243CB0153CBBFD2EB53E5FC43E30243FD
:10398000F50343900343ED032290008A12033FABFB
:1039900007AA06782412034BC3EF9BFFEE9AFE7B27
:1039A000017A007982E4FCFD9001B77405F01231D0
:1039B000CF7828EEF208EFF27F0522E4F51D53B927
:1039C000FD53B9DF43CC02C2D9539FFD438760C288
:1039D0008DEF700675BD0D75BC01123CA975BE0C4E
:1039E000D28C20C90343870300000000227D017CA4
:1039F00000EFC3940F5020EF25E024A3F582E434B8
:103A00003BF583E493FF7E0090015DE0FCA3E0FDC5
:103A10001200ABAC06AD07AE04AF052253BA0F439C
:103A2000BA2075BBFF75A95012116B783AE2F5B454
:103A3000EF7009F5B375B24E75B120227860E2F5EA
:103A4000B308E2F5B208E2F5B1227FE07E227D0202
:103A50007C007824120363D312028650137F707E99
:103A6000117D017C007824120363C3120286500387
:103A7000D21822C2182275ABFF75BF0F00000000DC
:103A80000000000000000000000000000000D2D88C
:103A900053B9FD43B901E5B930E1FBE4F5BF22E4D8
:103AA000F5E3439F107F03FEFDFC123BF9439F02A9
:103AB0007F037E007D007C00123BF975BE0EE4F5AD
:103AC000BFF5B975927622781CE2FE08E2FF9001FC
:103AD000A7EEF0A3EFF07D01122A374004AE02AF4B
:103AE000030DEDB402F2784BEEF208EFF2227F0103
:103AF000300108123A0C751D018006123B26751D17
:103B00000275BF0F43B92053B9FD43BA0143B90150
:103B1000D2D8224400630304FFFF44006700FFFF84
:103B2000FF44006B06FFFFFF44006FFFFFFFFF0431
:103B300018000000000012115F900073E0F5B4EF70
:103B4000700AF5B375B28875B1B8800690009F12FF
:103B5000126E12129922E49001A9F075BE0E439FD5
:103B6000027F03FEFDFC123BF975BC02E4F5BFD2F7
:103B7000D953CCFD22EF600543D504800353D5FB18
:103B800053F5FB53E5FB43E30443ED04E490017B71
:103B9000F0D29222438901C28DD2A953B8FD1200FE
:103BA0000390015BF0A3F0758C32758AEBD28CD256
:103BB000AF22000201010208030504010501060607
:103BC0000701080109010A030B140C010D010E0283
:103BD00053BAFEE5B920E004E51D6005E5B930E122
:103BE000FBE4F5BF53B9FD53B9FEF51D2212115F79
:103BF0009000A2E0F5B4EF7009F5B375B2AF75B1FE
:103C0000C82290014A12126E229001AA1203C59096
:103C100001AA74FF120392EC4D4E4F60030080EF37
:103C200022E4FFF582F5837440FEE493F42FFFA3B2
:103C3000EEB583F6227F0022E4900173F0A3F07FBB
:103C40000C1239DD900171EEF0A3EFF0D21022D307
:103C5000EF9DEE9C4007EF9DFFEE9CFE22C3ED9F83
:103C6000FFEC9EFE22E4FF123A0C121CC0121DC291
:103C70007F01123A0C12165F02348AE4FF123B26CF
:103C8000122A921225B27F01123B26122B370236DE
:103C900032E4FF123BDD123C971221867F01123B7A
:103CA000DD1207D902003EE4FF785DE6FE745E2F68
:103CB000F8A6060FEFB401F122438901C28CC28F2E
:103CC000120003758CFB758AED221232A37B017DF5
:103CD00001E4FF1235937F01023B6520C90CC2AF9E
:103CE000A807A60408A605D2AF222275AA3B53BA9C
:103CF000F343BA0843B92053B9BF22C2DA53D80FED
:103D000043D8D0D2D8D2D922F583E090381B932261
:103D1000E4FF02165F023239FFFFFFFFFFFFFFFFE4
:103D2000FFFFFFFFFFFFFFFFFFFFFFFFFFFFFFFFA3
:00000001FF
