:100000000110070013000000601C0000FF0000004A
:10001000020C3A751AFF22FFFFFFFF0216077E044B
:10002000900074E06F6007EFF0E4900077F09000CC
:1000300074E07001FE900077E004F0C39E50037FEF
:1000400000229000777404F07F012202172DE4FB58
:10005000EB25E025E02474F8120232EB25E025E0E0
:10006000247CF812024B0BBB02E622021175BB0185
:100070000689828A83E0225002E722BBFE02E32245
:1000800089828A83E49322EF8DF0A4A8F0CF8CF0CC
:10009000A428CE8DF0A42EFE22BC000BBE0029EFBA
:1000A0008DF084FFADF022E4CCF875F008EF2FFF5F
:1000B000EE33FEEC33FCEE9DEC984005FCEE9DFE2D
:1000C0000FD5F0E9E4CEFD22EDF8F5F0EE8420D274
:1000D0001CFEADF075F008EF2FFFED33FD400798E3
:1000E0005006D5F0F222C398FD0FD5F0EA22E88F32
:1000F000F0A4CC8BF0A42CFCE98EF0A42CFC8AF0AC
:10010000EDA42CFCEA8EF0A4CDA8F08BF0A42DCCAD
:100110003825F0FDE98FF0A42CCD35F0FCEB8EF006
:10012000A4FEA9F0EB8FF0A4CFC5F02ECD39FEE4EC
:100130003CFCEAA42DCE35F0FDE43CFC2275F00831
:10014000758200EF2FFFEE33FECD33CDCC33CCC51F
:100150008233C5829BED9AEC99E58298400CF5823A
:10016000EE9BFEED9AFDEC99FC0FD5F0D6E4CEFBAC
:10017000E4CDFAE4CCF9A88222B800C1B90059BA9A
:10018000002DEC8BF084CFCECDFCE5F0CBF97818C8
:10019000EF2FFFEE33FEED33FDEC33FCEB33FB10C2
:1001A000D703994004EB99FB0FD8E5E4F9FA2278DC
:1001B00018EF2FFFEE33FEED33FDEC33FCC933C9EE
:1001C00010D7059BE99A4007EC9BFCE99AF90FD8F8
:1001D000E0E4C9FAE4CCFB2275F010EF2FFFEE3318
:1001E000FEED33FDCC33CCC833C810D7079BEC9A57
:1001F000E899400AED9BFDEC9AFCE899F80FD5F0E0
:10020000DAE4CDFBE4CCFAE4C8F922EB9FF5F0EA9E
:100210009E42F0E99D42F0E89C45F022E8600FEC38
:10022000C313FCED13FDEE13FEEF13FFD8F122E82C
:10023000600FEFC333FFEE33FEED33FDEC33FCD83C
:10024000F122E6FC08E6FD08E6FE08E6FF22E6FBF2
:1002500008E6F908E6FA08E6CBF822ECF608EDF62F
:1002600008EEF608EFF622ECF208EDF208EEF208DE
:10027000EFF222D083D082E493F608740193F6085B
:10028000740293F608740393F6740473D083D082D7
:10029000E493F208740193F208740293F208740371
:1002A00093F27404738A838982E473E4F530E53051
:1002B00025E025E0247CF8C000120232C007745209
:1002C0002530F8E6FFFBE4FAF9F8D0071200DED09B
:1002D0000012024BE53025E025E0247CF8C0001236
:1002E0000232780712020CD00012024BE53025E0F2
:1002F00025E0247CF8120232EC4D4E4F6076E5305A
:1003000025E025E0246CF8120232E53025E025E0F6
:10031000247CF812023EC31201FB50037F0322E546
:100320003025E025E0246CF812023EC000E53025BF
:10033000E025E0247CF8120232D000C3EF9BF534B4
:10034000EE9AF533ED99F532EC98F531E47FFF7EC6
:10035000FFFDFCAB34AA33A932A831C31201FB4024
:10036000037F0322E53025E02400F8E533F208E5B9
:1003700034F28015E530C39402500BE53025E024BB
:1003800008F8E4F208F27F03220530E530640260E9
:100390000302029EE4F530E53025E02404F8E2FE95
:1003A00008E2FFE53025E02400F8E2FC08E2FDD396
:1003B0009FEC9E401EE53025E02404F8E2FE08E2B2
:1003C000FFC3ED9FFFEC9EFEE48F388E37F536F5C8
:1003D000358009E4F538F537F536F535AF38AE3701
:1003E000AD36AC35780712021F8F388E378D368CBC
:1003F00035900074E070447F03FEFDFCAB38AA37F3
:10040000A936A8351200DEE53025E025E02414F8F1
:10041000E2FB08E2F908E2FA08E2CBF8EB2FFFEA88
:100420003EFEE93DFDE83CFC780212020CE5302579
:10043000E025E02414F81202578033E53025E0254A
:10044000E02414F8E2FC08E2FD08E2FE08E22538A8
:10045000FFEE3537FEED3536FDEC3535FC78011213
:10046000020CE53025E025E02414F8120257E530AF
:1004700025E025E02414F8E2FC08E2FD08E2FE088D
:10048000E2FF780712020CE53025E02408F8EEF2CE
:1004900008EFF20530E530640260030203877F074E
:1004A000228E328F33E4F535F536F537900087E04C
:1004B000F536A3E0F537E4F534E5187016900077CB
:1004C000E0B4040FD3900091E09400900090E09489
:1004D00000401EE53425E02448F8E4F208F2E53453
:1004E00025E025E0243CF812027C00000000020513
:1004F000A8E53425E02449F9E3700219E3701AE510
:100500003425E02400F8E2FE08E2FFE53425E0248B
:1005100044F8EEF208EFF28057E53425E02444F881
:10052000E2FE08E2FFE53425E02400F8E2FC08E200
:10053000FD121B3AD3EF9537EE95364033E534255F
:10054000E02400F8E2FE08E2FFE53425E02444F868
:10055000EEF208EFF2E53425E02448F8E4F208F280
:10056000E53425E025E0243CF812027C0000000080
:10057000E53425E02400F8E2FE08E2FFE53425E05A
:1005800025E0243CF8C000E2FB08E2F908E2FA08A2
:10059000E2CBF8E4FCFDEB2FFFEA3EFEED39FDEC8B
:1005A00038FCD000120257E53425E02448F808E270
:1005B0002401F218E23400F20534E534C394025009
:1005C000030204A9E4F534E53425E02449F9C3E342
:1005D000953319E39532400205350534E534B4020C
:1005E000E6E5356402600302068574FF900089F039
:1005F000A3F0E4A3F0A3F0F534E53425E02448F8B3
:10060000E2FE08E2FF4E7003020685E4FCFDC00432
:10061000A905AA06AB07E53425E025E0243CF8E26D
:10062000FC08E2FD08E2FE08E2FFD0001201698E3C
:10063000388F39D390008AE09539900089E0953859
:100640004007E538F0A3E539F0C390008CE0953918
:1006500090008BE095385007E538F0A3E539F0E5D8
:100660003425E02404F8E538F208E539F2E53425CC
:10067000E02448F8E4F208F2E53425E025E0243CE3
:10068000F812027C00000000C2080534E534640260
:1006900060030205E922E4F534F533E53325E0256E
:1006A000E0243CF812027C000000000533E533B47E
:1006B00002E91218AFE4F533E53325E025E0243CE8
:1006C000F8C000E2FC08E2FD08E2FE08E2FFE533C4
:1006D00025E025E02474F812023EEF2BFFEE3AFEEF
:1006E000ED39FDEC38FCD0001202570533E533B488
:1006F00002C60534E534C3940540B7E4F533AF349E
:10070000E4FCFDFEC004A905AA06AB07E53325E01D
:1007100025E0243CF8E2FC08E2FD08E2FE08E2FFE6
:10072000D0001201698F388E378D368C35AB38AAE0
:1007300037A936A835C00074522533F8E6FFE4FC2B
:10074000FDFED0001200DE8F388E378D368C357866
:100750000712020C8F388E378D368C35E47FB87EC9
:100760000BFDFCAB38AA37A936A835D31201FB40E4
:1007700030E5382448FFE53734F4FEE53634FFFD34
:10078000E53534FFFCE53325E025E0246CF8120262
:100790004BE53325E02400F8740BF20874B8F280BE
:1007A0001EE53325E025E0246CF81202630000000A
:1007B00000E53325E02400F8E537F208E538F2E5F6
:1007C0003325E025E0243CF812027C00000000E51F
:1007D0003325E02448F8E4F208F2E533C3940250EC
:1007E00033E53325E02400F8E2FE08E2FFE5332597
:1007F000E02404F8EEF208EFF2E53325E02408F8EF
:10080000E4F208F2E53325E025E02414F812027C36
:10081000000000000533E533640260030206EE22A7
:1008200074FFF537F538E4FFFE02089CE532C39407
:1008300009501CE53225E0242AF8E2FC08E2FDE537
:100840003225E02428F8ECF208EDF2053280DD785C
:1008500004E2FD08E2783ACDF208EDF2E4F532E583
:100860003225E02428F8E2FC08E2FDC39538EC9537
:100870003750048C378D38D3ED9FEC9E4004AE0486
:10088000AF050532E532B40AD6E538244BFDE43530
:1008900037FCD3EF9DEE9C4011D2097F04121991D1
:1008A000900092EEF0A3EFF08002C209E4F535F576
:1008B00036F532E53225E02408F8E2F53308E2F5B2
:1008C00034AE33FFE4FCFD7B64FAF9F81200DEC0BD
:1008D00006C007E53225E0244CF582E43400F583B8
:1008E000E0FEA3E0FFFBAA06E4F9F8D007D0061269
:1008F0000169E5186022C3EF941EEE94005019E5DB
:100900003225E02410F8E4F208F2E53225E0240C68
:10091000F8E4F208F202098BC3E5349536FFE533BB
:100920009535FEE4FCFD7B64FAF9F81200DEC006A2
:10093000C007E53225E0244CF582E43400F583E07D
:10094000FEA3E0FFFBAA06E4F9F8D007D0061201E7
:1009500069E53225E02410F8EEF208EFF2AE33AF8D
:1009600034E4FCFD7B64FAF9F81200DEC006C0072F
:10097000E53225E0244CF582E43400F583E0FEA363
:10098000E0FFFBAA06E4F9F8D007D006120169E5FA
:100990003225E0240CF8EEF208EFF20532E532647D
:1009A0000260030208A322E4FD300520ED25E024C7
:1009B00052F582E43418F583E493FE740193FFED5D
:1009C00025E02433F8A60608A6078041300420ED70
:1009D00025E02432F582E43418F583E493FE7401B3
:1009E00093FFED25E02433F8A60608A607801EED48
:1009F00025E02422F582E43418F583E493FE7401A3
:100A000093FFED25E02433F8A60608A6070DBD02E6
:100A100098E4FDED25E0241CF8E2FE08E2FFED2558
:100A2000E0240DF9D3E39F19E39E4016ED25E02461
:100A30000CF8E2FE08E2FFED25E0241CF8EEF208D7
:100A4000EFF2ED25E02433F8E6FE08E6FFEEC313EF
:100A5000FEEF13FFED25E0240DF9D3E39F19E39E8C
:100A60005034ED25E02433F8E6FE08E6FFED75F09E
:100A700008A4245CF8A60608A607ED25E02433F8B0
:100A8000E6FE08E625E0FFEE33F8ED25E0241CC87D
:100A9000F208EFF2803CED25E02442F582E43418C0
:100AA000F583E493FE740193FFED25E0240DF9D363
:100AB000E39F19E39E401BED25E0241CF9E3C313DB
:100AC000FE09E313FFED75F008A4245CF8A6060800
:100AD000A6070DED64026003020A03E4FDED75F064
:100AE00008A4245CF8E6FE08E6FFED25E02420F8E3
:100AF000EEF208EFF20DBD02E42285BA3953BA0FC7
:100B000043BA10E4F533E53325E025E02474F81208
:100B10000263000000000533E533B402E9753305D4
:100B200075ABFF121A55E4F534E53425E025E024D1
:100B300074F8C000120232C004C005C006C00774B9
:100B4000842534F8E675F003A42454F582E4341BBC
:100B5000F583E493FB740193FA740293F9120295FE
:100B6000A804A905AA06AB07D007D006D005D00473
:100B7000EF2BFFEE3AFEED39FDEC38FCD00012020F
:100B80004B0534E534C39402409FE4F5AB121A558B
:100B9000E4F534E53425E025E02474F8C0001202C1
:100BA00032C004C005C006C00774842534F8E67559
:100BB000F003A42454F582E4341BF583E493FB741E
:100BC0000193FA740293F9120295A804A905AA06E2
:100BD000AB07D007D006D005D004C3EF9BFFEE9A39
:100BE000FEED99FDEC98FCD00012024B0534E53483
:100BF000C39402409E1533E5336003020B10E4F505
:100C000034E4753810753727F536F535AF38AE371B
:100C1000AD36AC35780712021F8F388E378D368C83
:100C200035E53425E025E02474F812023E1201690E
:100C30008F388E378D368C3574522534F8A60705DB
:100C400034E534B402BB8539BA22439F04E453C669
:100C5000DFE5C600B5C6F375830075820775FD0D27
:100C6000E4E5FEF4FF75830075820675FD0DE4E58D
:100C7000FEB50704F59E8003759E0078100000D82D
:100C8000FC53C6E043C60843C680759607759703B4
:100C900075830075820475FD0D85FE8F7583007563
:100CA000820375FD0DE4E5FEF4FF75830075820295
:100CB00075FD0DE4E5FEB50704F595800375958394
:100CC00075BE0E5392FE9001007F007E02E4F0A3F9
:100CD000DFFCDEFA78007F00E4F208DFFC78FFE456
:100CE000F6D8FD75818F020D17020000020E74E424
:100CF00093A3F8E493A34003F68001F208DFF480A5
:100D000029E493A3F85407240CC8C333C4540F44F4
:100D100020C8834004F456800146F6DFE4800B01CE
:100D200002040810204080901672E47E019360BC9B
:100D3000A3FF543F30E509541FFEE493A360010E66
:100D4000CF54C025E060A840B8E493A3FAE493A38D
:100D5000F8E493A3C8C582C8CAC583CAF0A3C8C5AE
:100D600082C8CAC583CADFE9DEE780BE7533077D66
:100D70000774017E00A833088005C333CE33CED874
:100D8000F9FFACACECFBE4EF5B7003D533E3ED6053
:100D90001D74017E00A805088005C333CE33CED86C
:100DA000F9FFACAEECFBE4EF5B70031D80E0AF330A
:100DB0007401A807088002C333D8FCF5AC7401A8FD
:100DC00005088002C333D8FCFFF5AD8FAE53AACF20
:100DD00085BA3C53BA0F43BA10E4F537F536F5350A
:100DE000F534121A55E4F53374842533F8E675F0BA
:100DF00003A42454F582E4341BF583E49374019333
:100E0000FA740293F91202958F3B8E3A8D398C3821
:100E1000AB37AA36A935A834C31201FB500C853B69
:100E200037853A368539358538340533E533C3940B
:100E30000240B5AF37AE36AD35AC34780212020C95
:100E4000E5372FF537E5363EF536E5353DF535E541
:100E5000343CF534AF37AE36AD35FC781012020CA9
:100E60008FB3AF37AE36AD35AC34780812020C8F85
:100E7000B28537B143AA30853CBA75AC0375ADC0B5
:100E800075AEC022121B027D01E4FF1218EB7F0138
:100E9000121AA17F01121AE5121C4E121C41121ADD
:100EA0007B12152612195C1219C5D2AF753E01E5E9
:100EB0003E24FD601714602024FE602D1460311460
:100EC0007003020F5324076003020F561217D71244
:100ED0001304753E04020F56D2D8E53F70FC120091
:100EE0003E121B6C753E06807D12029B8F3E807603
:100EF000D390007DE0940090007CE09400400CA32F
:100F0000E024FFF090007CE034FFF0D3900091E00B
:100F10009400900090E09400400CA3E024FFF09037
:100F20000090E034FFF0D3900093E09400900092A2
:100F3000E094004016A3E024FFF0900092E034FF1C
:100F4000F0E07002A3E07003121599900079E004BC
:100F5000F07006900078E004F012142D120F888FC4
:100F60003E8003753E0490008DE0B40124E4784B8C
:100F7000F6FF121C4EE4F0F51CF51D00051DE51DE5
:100F80007002051CB42CF4E51CB401EF7F01121CA7
:100F90004E121081020E9F22E4F5307531081208BE
:100FA0001012186B1213A2121A2A900075EFF01289
:100FB000000EEF605F7F01121991AD07AC06D39070
:100FC000007DE0940090007CE094004010ECC4F8B8
:100FD00054F0C868FCEDC4540F48FD802E30081151
:100FE000EDAE047803CEC313CE13D8F9FDAC068062
:100FF0001AC37825E2941E18E29400500EECC4F84F
:1010000054F0C868FCEDC4540F48FDAF05AE04129F
:1010100004918003AF3122900074E06034E49000CA
:1010200080F0A3F090007FE004F0700690007EE076
:1010300004F07F05121991D390007FE09F90007E0D
:10104000E09E4014E4FF1216D1E4900076F07F0396
:1010500022E490007EF0A3F0900074E0FF90007610
:10106000E06F602A1216D1900074E0900076F0785C
:101070004CE654F060187F0C121991900090EEF03D
:10108000A3EFF0900090E0C313F0A3E013F0AF31B2
:101090002220CA030211747841E67003021174E43D
:1010A000784BF6F53074412530F8E6FF742625308C
:1010B000F8A60774412530F8E4F60530E530B40AA7
:1010C000E4784BE6700320CA12E4F530742625302C
:1010D000F8E4F60530E530B40AF222E52624E060B3
:1010E0001624B0601924C0603614601D24A170431A
:1010F000E4FF121AA1803C7F01121AA18035E4FF9F
:10110000121B957851A607802A785C76030876E84A
:10111000786476030876E8784FE64420F680147801
:101120005C760008762878647600087628784FE6A2
:1011300054DFF6E52654F064807049E527452860C1
:1011400043E527FE7C00E42528FFEC3EFEC3EF9438
:101150000AEE9400402EE526540FFDBD0F19E4F56C
:1011600030E53075F008A4245CF8A60608A607054B
:1011700030E530B402EB22ED75F008A4245CF8A64B
:101180000608A60722C0E0C0F0C083C082C0D075A8
:10119000D008C2CF30CD0302124830CB4720CC4418
:1011A0007840A6CEE6FFC39480403075F003EFA4EC
:1011B0002403F582E5F03416F583E493FB74019380
:1011C000FA7402938B238A24F5250525E525700200
:1011D000052414F912005EF5CE80097840E6252238
:1011E000F8E6F5CE30CC297840E6C394804015ABC4
:1011F000230525E525AA247002052414F912005EB2
:10120000F5CE8050784006E62522F8E6F5CE8044FB
:1012100020CB41AFCE7840E6FE7028BF100280346C
:10122000BF2002802FBF5008784FE64401F680248B
:10123000BF6008784FE654FEF680197841A60F1873
:10124000068011EEC3940A50087840E62441F8A6BF
:101250000F784006784B7601D0D0D082D083D0F082
:10126000D0E032E4FFFEEE75F008A4245CF8E6FC62
:1012700008E6FDEE25E02411F9C3E39D19E39C4047
:101280000D7401A806088002C333D8FC42070EBEC5
:1012900002D4807DEEC394025077EE75F008A4244A
:1012A0005CF8E6FC08E6FDEE25E02411F9C3E39DB9
:1012B00019E39C401DEE25E02415F9C3E3940A19B7
:1012C000E39400400D7401A806088002C333D8FCE3
:1012D0004207EE75F008A4246CF8E6FC08E6FDEE83
:1012E00025E02415F9C3E39D19E39C4021EE25E098
:1012F0002411F9C3E3940A19E394004011EE240287
:10130000FD7401A805088002C333D8FC42070E8093
:10131000838F1822E4F531F532121B1FE49000741C
:10132000F0900076F0A3F090007EF0A3F0A3F0A37D
:10133000F0900094F0A3F0900090F0A3F0F521F568
:1013400030E53025E0244CF582E43400F583E0FEFE
:10135000A3E0FF900088E02FF0900087E03EF005CA
:1013600030E530B402DB900087E0FEA3E0FF7C00B4
:101370007D0A120089900087EEF0A3EFF0120D5C59
:10138000120AEA1206868019E530C3940A5012E563
:101390003025E02428F8740BF20874B8F205308088
:1013A000E77F0A12199190007CEEF0A3EFF0121B78
:1013B0006C22E4F532E53225E02404F8E2FE08E28E
:1013C000FFE53225E02400F8E2FC08E2FDC39FECD3
:1013D0009E5048E53225E02405F8C3E29DF5341817
:1013E000E29CF533FEAF34E4FCFD7B64FAF9F812BD
:1013F00000DEC006C007E53225E0244CF582E43467
:1014000000F583E0FEA3E0FFFBAA06E4F9F8D007AD
:10141000D0061201698E358F368009E4F533F53434
:10142000F535F536D3E536940AE53594004002D219
:10143000080532E532640260030213A522E4F530A8
:10144000E53075F008A4245EFFE53025E0240CF8B3
:10145000E2FC08E2FD121B81E53075F008A424606F
:10146000FFE53025E02408F8E2FC08E2FD121B81CC
:10147000E53075F008A42462FBC003E53025E024C4
:1014800000F8E2FE08E2FFE4FCFDE53025E025E09F
:10149000246CF812023EEF2BFFEE3AFEED39FDEC24
:1014A00038FC780412020CAD07AC06D007121B8181
:1014B0000530E530C394024087784FE6F520227D61
:1014C000FF80707864E6FE08E6FFC37813E29F1899
:1014D000E29E40107874E6FE08E6FF7817E29F1857
:1014E000E29E504F780CE2FE08E2FF7809E22FF509
:1014F0003418E23EF533780EE2FE08E2FF780BE2A4
:101500002FFF18E23EAB07FAEB25E0FFEA33FEC3FC
:10151000E5349FE5339E50035305FAE53425E0FF9B
:10152000E53333FEC3EB9FEA9E50085305F5800375
:101530005305F08D1922E4F530784CF6FF121B9517
:101540008F30E530BFFF06784D76078004784D7602
:10155000FF784E7613E408F6785176FFFFEF25E02A
:101560002422F582E43418F583E493FC740193FD9E
:10157000EF75F008A4245CF8A60408A605EF75F042
:1015800008A4245EF8E4F608F6EF75F008A42460D9
:10159000F8E4F608F6EF75F008A42462F8E4F6081B
:1015A000F60FBF02B875224C22E4FBEB25E025E0E4
:1015B000247CF8120232EF2448FFEE34F4FEED34BE
:1015C000FFFDEC34FFFCEB25E025E0246CF8120273
:1015D0004BEB25E02400F8740BF20874B8F2EBC36F
:1015E00094025017EB25E02408F8E4F208F2EB250A
:1015F000E02404F8740BF20874B8F20BBB02AC22BE
:10160000EBC3940A5010EB25E02428F8740BF20881
:1016100074B8F20B80EA22C0E0C0F0C083C082C080
:10162000D075D000C000C004C005C006C007C28D80
:10163000758CD8758AF0051FE51F7002051EAE1E59
:10164000FF7C007D64120089ED4C7021900078E0F1
:10165000FEA3E0FFD3940AEE94004006A3EEF0A3AD
:10166000EFF0900078E4F0A3F0F51EF51FD007D05E
:1016700006D005D004D000D0D0D082D083D0F0D016
:10168000E03208840102FFFFFFFFFFFF048C00002F
:101690000000604A004C016D013600640064006483
:1016A00000640064006401020408050607080000E5
:1016B000000000000000000000000000000000002A
:1016C000000000000000000000000000000000001A
:1016D000000000000000000000000000000000000A
:1016E0000090008DE0705504F0E4FEFDFC7401A84C
:1016F00004088002C333D8FCF9FB900076E05BB5A8
:101700000313EC2404FA7401A802088002C333D83E
:10171000FC42068003E94206EF5BB50305E942059A
:101720008011EC2404FB7401A803088002C333D8A1
:10173000FC42050CBC02B6EE5D784CF622C0E0C05F
:10174000F0C083C082C0D075D01053B9FD753D0084
:101750007484253DF8E675F003A42454F582E4343E
:101760001BF583E493740193FA740293F9120295C2
:10177000E53D25E025E02474F812024B053DE53DEA
:10178000C3940240CB753F00D0D0D082D083D0F03C
:10179000D0E032FE0000FE0008FE0004FE000CFE59
:1017A0000008FE0010FE000CFE0014FE0010FE00FB
:1017B0001800007400007C00008400008C000018F9
:1017C000010075010074010076FE0014FE001C018A
:1017D000007801009201008D010090010064010079
:1017E0006CFE0020FE0048E4FFFE74842EF8E690B4
:1017F00018629342070EBE02F1EF42D4EF42F4EFBB
:1018000042E4EFF452DC75AA3B75BA0C43BA2043AC
:10181000B92053B9BF8FB4E4F5B375B24E75B1209A
:1018200075BBFF75A950F5AB75AC0375ADC075AE52
:10183000C02200280028003200320032003200327C
:101840000032003200320032003200320032003208
:10185000003200780078003200320032003200326C
:10186000003203E803E80032003200320032003276
:1018700000320102040810204080EA7810E2FE08DD
:10188000E2FF8E32F5337D01ED25E02410F8E2FA17
:1018900008E2FBC39533EA953250048A328B33D386
:1018A000EB9FEA9E4004AE02AF030DBD02DA78263C
:1018B000E532F208E533F27824EEF208EFF2221274
:1018C0001A55E4F53974842539F8E675F003A42433
:1018D00054F582E4341BF583E493740193FA7402A3
:1018E00093F9120295E53925E025E02474F81202F7
:1018F0004B0539E539C3940240CB22E4FE7C02EC6F
:10190000C39402500E74842CF8E690186293420639
:101910000C80ECEF6005EE42D48004EEF452D4EE7D
:10192000F4FF52F4EE42E4ED6005EE42EC8003EF8A
:1019300052ECEF52DC22E4FFFEEE75F008A4245DC9
:10194000F8E624FBFD18E634FFFCEE25E0240DF953
:10195000C3E39D19E39C400D7401A806088002C3EF
:1019600033D8FC42070EBE02D08F1B227E007F645C
:10197000E4FDED25E024C5F582E4341AF583E49313
:10198000F4601DED25E024C6F582E4341AF583E405
:1019900093FCEF2DF582E43EF583ECF00DBD10D203
:1019A00022753900753A647B017A00BFFF057F011B
:1019B0007E0022E53A2FF582E43539F583E07A009E
:1019C000FB90007AE0FCA3E0FDAF037E00120077FD
:1019D000AA06AB072243F80875CD4053CC7F43CC11
:1019E0004043CC2043CC1043CC0453CCFD43CB022A
:1019F00043CB0153CBBF43E80853E5FC43E3024329
:101A0000F50343900343ED0322A907E4FDFC7401B1
:101A10007E00A804088005C333CE33CED8F9FFE991
:101A2000FBE4EF5B600D7401A804088002C333D8A7
:101A3000FC42050CBC02D7AF0522120997121253C3
:101A40001214AF120003121926900074E0700D8575
:101A50001832E5195232E51A52328003851B32AF33
:101A6000321219F92275BF0F0000000000000000BB
:101A700000000000000000000000D2D853B9FD4370
:101A8000B901E5B930E1FBE4F5BF22438901C28D1C
:101A9000D2A953B8FDE4F51EF51F900078F0A3F02D
:101AA000A3F0A37464F0758CD8758AF0D28CD2AF91
:101AB00022E4FE7D02EDC39402500E74842DF8E6FC
:101AC0009018629342060D80ECEF6004EE42802293
:101AD000EEF452802200020101020103010402051A
:101AE0000606060702080A09020A020B280C010D65
:101AF000030E01FF01EF600543D504800353D5FBBE
:101B000053F5FB53E5FB43E30443ED04E490008D00
:101B1000F022E4F5E3439F10439F02FF0FBFFFFC59
:101B2000539FEF75BE0EE4F5BFF5B975927622535B
:101B3000BAFEE5B920E004E53F6005E5B930E1FB18
:101B4000E4F5BF53B9FE53B9FD22AB07AA06D3EBA8
:101B50009DEA9C4007EB9DFFEA9CFE22C3ED9BFFA4
:101B6000EC9AFE22FF1BA9FF1BBCFF1BCFFF1BE251
:101B7000FF1BF5FF1C08FF1C1BFF1C2E75BF0F432E
:101B8000B92053B9FD43BA01753F0143B901D2D819
:101B900022AB07AF04AE05C2AFA803A607E804F85E
:101BA000A606D2AF22E4FFF582F5837420FEE4930B
:101BB000F42FFFA3EEB583F62253B9EF788DA6B7C5
:101BC00008A6B608A6B5788C1202322253B9EF786F
:101BD0008DA6EB08A6EA08A6E9788C1202322253F9
:101BE000B9EF788DA6F308A6F208A6F1788C120258
:101BF000322253B9EF788DA6FB08A6FA08A6F97829
:101C00008C1202322243B910788DA6B708A6B60806
:101C1000A6B5788C1202322243B910788DA6EB0853
:101C2000A6EA08A6E9788C1202322243B910788D10
:101C3000A6F308A6F208A6F1788C1202322243B964
:101C400010788DA6FB08A6FA08A6F9788C12023245
:101C500022C2DA53D80F43D8D0D2D8D2D922EF60DB
:101C600003D29222C29222FFFFFFFFFFFFFFFFFF7E
:00000001FF
