:1000000048080020DDB80108498701085D8701081C
:1000100071870108858701089987010800000000A1
:10002000000000000000000000000000AD87010893
:10003000C1870108000000008D58000805B90108BB
:1000400009B901080DB9010811B90108E1CD00088D
:1000500015B90108E78E0108478A010819B9010896
:10006000318C0108138D01081DB9010821B901085F
:1000700025B9010829B901082DB9010831B90108CC
:1000800035B9010839B901083DB90108000000007F
:1000900000000000000000000000000041B901085D
:1000A00045B9010849B901084DB9010851B901081C
:1000B00000000000000000000000000055B9010829
:1000C00059B901085DB9010861B9010865B90108AC
:1000D00069B901086DB9010871B901080000000093
:1000E00075B90108EF8D0108000000000000000054
:1000F00000000000000000000000000079B90108C5
:1001000000000000000000007DB9010800000000B0
:10011000000000000000000081B90108000000009C
:1001200085B9010889B901088DB9010891B901089B
:1001300095B9010800000000000000000000000068
:1001400000000000000000000000000000000000AF
:1001500099B901089DB90108A1B90108A5B901081B
:10016000000000000000000000000000000000008F
:10017000000000000000000000000000000000007F
:10018000A9B90108ADB90108000000000000000095
:1001900000000000B1B901080000000000000000EC
:1001A000000000000000000000000000000000004F
:1001B000000000000000000000000000B5B90108C8
:1001C000B9B90108BDB9010870B5002240F6CC01EB
:1001D000DFF8380C01F05EFCDFF8344C002210210F
:1001E00004F1100001F056FCDFF82C5C002068617F
:1001F000A861E861DFF8246CB063F06330642862C2
:100200007064B0646862A862E8620120286300201C
:10021000F06430654FF0FF306863A8630020E86346
:1002200070652864B06530667066B066F066B0626E
:1002300002462821304601F02DFC42F21070308138
:10024000708100207060306002460C21204601F071
:1002500021FCDFF8CC0B6060DFF8B00920600120E2
:1002600020720020287268646881E860F06220666D
:10027000306760663086286568657067A865E865E0
:100280006866286601202867E866A8660020E86797
:10029000A8676867062070860020B086F067B067A0
:1002A000DFF8DC03A8640020E8640120288296209F
:1002B00068820620F0860C20A0810020F0650246AE
:1002C000402104F1200001F0E5FB00220621284630
:1002D000BDE8704001F0DEBB10B584B0DFF8304BF4
:1002E0000C22214600A801F013FCFFF76DFF0C2241
:1002F00000A9204601F00CFC1FBD00002DE9F843C9
:100300002DED0A8B00242546DFF80C6B96ED170ABD
:10031000D6ED100AC6ED170ADFF8007B97ED158AB7
:1003200086ED108A96ED0F1AB8EE411ADFEDD41A59
:10033000C1EE818AC7ED158A716BD6F82480A8EBCF
:100340000100FA30FA22B0FBF2F2FA2303FB1200AA
:1003500080B2002800F04A814C2880F27F80326B06
:10036000012A7BD0D7F85090B9F1040F20D3F4EED6
:10037000480AF1EE10FA1BD5B4EE688AF1EE10FAD5
:1003800016D59FEDC01A20EE811AB4EE681AF1EE70
:1003900010FA0DD59FEDBC1AF4EE418AF1EE10FA79
:1003A00006DB87ED158AC6ED100A86ED170A2EE1E9
:1003B00097ED0E9A87ED0F9AD7ED119AC7ED129A25
:1003C000024600EE102AB8EE400AD6ED070AC0EE4B
:1003D000800A96ED081A81EE001A2246BA637A6402
:1003E0001FE0491C89B2FA2900D12146DFF81C3AE6
:1003F00003EB8103D3ED0E1A71EEE01AD3F820342B
:1004000002EE103A32EE412AD7ED0E2A41EEA12A31
:10041000C7ED0E2AD7ED111A42EE021AC7ED111AD6
:10042000521C92B28242DCDBD7ED0E0A80EE80AA2B
:1004300087ED0EAAD7ED110A80EE80BA87ED11BACA
:10044000D6ED16AA96ED140AD6ED150A70EE60BA2E
:10045000C6ED16BA00F04EFC012803D12046F885FF
:100460003886C3E0B9F1000F0BD1F88D052802DB07
:1004700005462046F885388E052802DB45192046BA
:10048000388619FA85F0002824D1B6EE00CA3BEE72
:10049000290A20EE0C0ADFED7D0AB4EE600AF1EEC7
:1004A00010FA11D43AEE090A20EE0C0ADFED780AB0
:1004B000B4EE600AF1EE10FA06D4B3EE040AF4EEDC
:1004C00040BAF1EE10FA05D5F88D401CF885C6F853
:1004D00038808BE0F88D002802D045192046F88539
:1004E00019FA85F0002814D1B7EE000AF4EE408A1C
:1004F000F1EE10FA7AD49FED670AF4EE408AF1EE3D
:1005000010FA03DB388E401C38866FE020463886B0
:1005100003E0388E451920463886284680B200F020
:1005200081FC012808D187ED158AC7ED119AC6ED27
:1005300016AA87ED0E9A59E09FED570AF4EE408A0D
:10054000F1EE10FA02DBDFF8EC0B78652046F88557
:10055000B9F1000F08D1786DB86587ED10AAC7ED25
:100560001DBA00F067FB36E0B6EE00CA00F062FB91
:10057000012816D197ED150AF0EE000A20EE200AA8
:1005800087ED150A6AEE0C0AC7ED0E0A2BEE0C1A5F
:1005900087ED111AC7ED0F0A87ED121A86ED100AC2
:1005A0006D1C97ED150AD6ED100A30EE200A20EEEC
:1005B0000C0A87ED160A97ED0E0AD7ED0F0A30EEFA
:1005C000200A20EE0C0A87ED100A3AEEAB0A20EE64
:1005D0000C0A87ED1D0A97ED160A284680B200F036
:1005E0005DF800F019F80446C6F83880C6F8348083
:1005F0000020F063F0613062306302461021DFF8C2
:10060000380B01F047FA1E48B0640020F064204621
:10061000BDEC0A8BBDE8F28338B50025DFF8FC4756
:100620000120E06700F09EFC2060206D618E884212
:1006300014D3E06CE060208DA080608DE080E06DE0
:100640006061206EA061606EE061A06E2062E06E6D
:1006500060620120A0672846E0670125284632BD78
:10066000DFF8B807C168C16400210165416081629B
:10067000C1694166416AC1660021C16770470000D7
:1006800000007A446666E63F0100404000001643E1
:100690000000A042666616400100A0402DE9F84F18
:1006A0002DED048B82B0044600239E461846DFF8E9
:1006B0006C572E6D06F10F0101F00F01F21D02F0D3
:1006C00007020092DFF8487707EB810282ED080A03
:1006D000002C18D0024614E0A1F1010CACEB020C86
:1006E0000CF1100C4FEAEC080CEB18784FEA2818C4
:1006F000BCEB081C03D407EB8C0C8CED080A521CD5
:1007000012B2A242E8DB102E02D2314609B200E05A
:100710000F219FED9D8ADFED9C0A9FED9C1A0246FA
:100720001BE007EB810CDCED081AF5EE401AF1EE48
:1007300010FA10DD38EE218AF4EE610AF1EE10FABB
:1007400001D5F0EE610AF4EE411AF1EE10FA01D58E
:10075000B0EE611A521C491E09B20029E1D512B24D
:10076000114603290BDB78EE600A70EEC10A891E80
:1007700001EE101AB8EEC11A80EE818A07E0012955
:1007800005DB00EE902AF8EEE00A88EE208AB5EE4E
:10079000408AF1EE10FA01D0002A01D1B0EE408A71
:1007A00085ED178A9FED7A0AB4EE408AF1EE10FAD1
:1007B00002D5B0EE408A08E09FED760AB4EE408A9A
:1007C000F1EE10FA01DBB1EE028AB0EE040AB4EEEB
:1007D000408AF1EE10FA08D495ED1C0AF0EE080AF2
:1007E000B4EE600AF1EE10FA02D50321298501E08A
:1007F00004212985D5F84C8008F0070ADFF80C960B
:100800000AEB090C298D8CF86418002C0BD0A8F188
:10081000010202F007024A4408F0070BCB449BF8A0
:1008200064B882F864B808220EE0BBF1040F00D16E
:10083000401CAAF1010A0FFA8AFABAF1000F01D599
:100840000AF1080A521E12B2012A16DB0FFA8AFABE
:100850000AEB090B9BF964B8BBF1030F02D10EF14F
:10086000010E03E0BBF1040F00D15B1C062AE0DBA4
:10087000BBF1030FD9D1401EDBE79BB21FFA8EFEFE
:10088000734507D39E4502D2042068850DE000B26F
:10089000002802D50320688507E0012802DB042038
:1008A000688502E09CF96408688549B2B0EE480AA0
:1008B000384600F01BF9DFED8C0AB4EE600AF1EE69
:1008C00010FA01D5B0EE600A85ED180A204600F155
:1008D000010A00EE90AAF8EEE08AD5ED190A48EE7A
:1008E000800AC5ED190A9FEDC99A20EE080A20EE8C
:1008F000090A009909EB810101F6080181ED000A5E
:10090000002C16D0002212E00099491E891A0831E5
:100910008B1001EB5373DB10B1EBC30105D409EB72
:10092000810101F6080181ED000A521C12B28242D7
:10093000EADB082E02D2304600B203E0072001E0D5
:10094000401E00B20028FBD585ED1A0A698D49B218
:10095000384600F043F968EE090AB7EE001AC1EE16
:10096000200A20EE800AD5ED1B0A48EE800AC5ED6C
:100970001B0A0AEB0800E8640AEB0600286502B0CF
:10098000BDEC048BBDE8F18F000000000000C84200
:100990006666A63F0100904049B2032944D1DFEDCD
:1009A0009C0AB4EE600AF1EE10FA01DBB0EE600AC8
:1009B0009FED981ADFED980A40EE010A90ED011ABA
:1009C0009FED960AB4EE401AF1EE10FA43DADFED2D
:1009D000941AB4EE611AF1EE10FA74DBB4EE401A18
:1009E000F1EE10FA6FD59FED8F0A31EE000ADFEDC0
:1009F0008E1A60EE211A9FED8D0A9FED8D2A01EE71
:100A0000002A22EE200A20EE210A9FEDB22ADFED15
:100A1000B22A41EE022A62EEA00AB7EE001A31EEC7
:100A2000611A00EE810A56E0DFEDAC0A60EE200AA2
:100A300060EE800A9FEDAA1A40EE410A9FEDA90AD6
:100A400070EE800A90ED011A9FED740AB4EE401A20
:100A5000F1EE10FA0ADB90ED010A9FED741ADFED5A
:100A6000741A40EE011A21EEA00A34E0DFED6C1A90
:100A7000B4EE611AF1EE10FA25DBB4EE401AF1EE95
:100A800010FA20D59FED670A31EE000ADFED661AF5
:100A900060EE211A9FED650A9FED652A01EE002A9E
:100AA00022EE200A20EE210A9FED8A2ADFED8A2A13
:100AB00041EE022A62EEA00AB7EE001A31EE611A88
:100AC00000EE810A07E090ED010A20EE800ADFEDDA
:100AD000860A20EE200A007A022803D1DFEDC40A3C
:100AE00020EE200A70470000CDCC4C3E10B52DED15
:100AF000028BB0EE408A0C46DFED7C8A49B2FFF7EC
:100B00004BFF64B2042C31D1DFED790AB4EE608A78
:100B1000F1EE10FA16DBB1EE021AB4EE418AF1EEF4
:100B200010FA0FD5DFEDB30A78EE200AB1EE041A01
:100B300060EE810AFCEEE00A10EE900AC01D08EE9D
:100B4000900A3DE0B4EE608AF1EE10FA03D507207A
:100B500008EE900A34E0F1EE020AB4EE608AF1EE9B
:100B600010FA2DDB122008EE900A29E0F7EE080AB1
:100B7000B4EE608AF1EE10FA11DBDFED9F0AB4EEFD
:100B8000608AF1EE10FA0AD5FFEE080A78EE200A24
:100B9000B1EE041A60EE810AFCEEE08A10E0F7EE96
:100BA000080AB4EE608AF1EE10FA09D4DFED920A79
:100BB000B4EE608AF1EE10FA02DB062008EE900A2D
:100BC000DFF86C0D18EE901A00EB8100D0ED000AF2
:100BD00020EE200ABDEC028B10BD0000F0EE0C0AE6
:100BE00049B2042904D19FED851A40EE010A03E0C1
:100BF0009FED831A40EE010A9FEDD80A20EE800A8D
:100C0000D0ED000A20EE200A70470000000070427C
:100C10009A9919406ADEF13D8638163F00002A4352
:100C200000001643000016C3CDCC4C3D4260E53AAF
:100C30006666263F0020794991ED150AF7EE040A11
:100C4000B4EE600AF1EE10FA43DA8A8D042A40DA33
:100C5000D1ED160A9FED6B1A60EE810AB4EE600AC0
:100C6000F1EE10FA03D5022A01DB012011E06849F8
:100C700091ED070ADFED640AB4EE600AF1EE10FAB6
:100C800007DBDFED640AB4EE600AF1EE10FA00D57E
:100C9000012001281DD1604991ED120AD1ED130AFE
:100CA00070EEC00A9FEDAE1AF4EE410AF1EE10FAB2
:100CB00007DBF7EE080AB4EE600AF1EE10FA00D591
:100CC0000020DFEDB50AB4EE600AF1EE10FA00D5AF
:100CD0000020704752491D3BB81E053F2575C23E96
:100CE0007593E83F24975340C1C0C03B000000000B
:100CF000666606400021494A538D032B1BDA92EDAC
:100D0000150ADFEDA60AB4EE600AF1EE10FA12DB66
:100D100092ED0E0AF2EE040AB4EE600AF1EE10FA59
:100D200009D592ED110ADFED9E0AB4EE600AF1EEEC
:100D300010FA00D5012192ED110AF6EE000A92EDAB
:100D4000121A30EE011A21EE201AF3EE0E1AB4EE4A
:100D5000611AF1EE10FA1CD492ED0E1AD2ED0F1AB0
:100D600071EE211A61EEA01AB2EE042AF4EE421AD4
:100D7000F1EE10FA0DD4F3EE041AB4EE610AF1EEBE
:100D800010FA06D4B1EE040AB4EE401AF1EE10FAED
:100D900000D5012192ED150A9FED821AB4EE410AA9
:100DA000F1EE10FA22DB1A4A92ED060A92ED071ACA
:100DB00080EE010A9FEDA61AB4EE410AF1EE10FA98
:100DC00014DB00EE100AB8EE400A20EE200AD2ED45
:100DD000040AF4EE400AF1EE10FA07D5D2ED050A46
:100DE000F4EE400AF1EE10FA00D5012108467047F2
:100DF0003333733F666606C09A993940CDCC4C3E7A
:100E0000CDCCCC3D3333333F010020426043002042
:100E1000641B00200000C842706E0020E41A00200D
:100E200000002F430021DFF8142C136D13FA80F01B
:100E3000022816D392ED150ADFED860AB4EE600A99
:100E4000F1EE10FA0DDB92ED120AD2ED110A80EEEE
:100E5000200ADFED810AB4EE600AF1EE10FA00DB41
:100E60000121022818D39FEDAB0AD2ED120A92EDB0
:100E7000111AC0EE810AF4EE400AF1EE10FA0BDB13
:100E8000D2ED0F0A92ED0E1AC0EE810AF4EE400A7E
:100E9000F1EE10FA00DB012100280FD092ED1D0ABF
:100EA000DFED9D0A20EE200ADFF8980BD0ED160A40
:100EB000F4EE400AF1EE10FA00D5012192ED150A88
:100EC000DFED960AB4EE600AF1EE10FA08DA92ED60
:100ED000160ADFED930AB4EE600AF1EE10FA18DBA1
:100EE00092ED110ADFED8F0AB4EE600AF1EE10FA0E
:100EF0000BD492ED0E0ADFED8C0AB4EE600AF1EE2F
:100F000010FA02D4908D022803DB508D032800DBF9
:100F1000012192ED100ADFED830AB4EE600AF1EED2
:100F200010FA08D492ED1C0AF1EE040AB4EE600A3D
:100F3000F1EE10FA10D5DFF80C0B026E406E80183F
:100F400000EE100ABAEEEF0ADFED780AB4EE600A9E
:100F5000F1EE10FA00DB0121084670470AD7A33BE7
:100F60000100C03F0020DFF8D41ACA6C12F10A0F4A
:100F70000FD29FED6F0AD1ED190AF4EE400AF1EE9F
:100F800010FA06DAD1ED1B0AF4EE400AF1EE10FA7F
:100F900000DB01207047000085EB113F010000409D
:100FA000000020420100404010B401460020DFF85C
:100FB000942ADFF8943AD3F8C04800EE104AD1EDF5
:100FC000000AB4EE600AF1EE10FA08D11478641C3D
:100FD0001470E4B2FE2C04DB3224147001E00446E9
:100FE000147003F50C6393ED010AD1ED010AB4EE20
:100FF000600AF1EE10FA08D15478641C5470E4B21F
:10100000FE2C04DB3224547001E00446547093ED4E
:10101000020AD1ED020AB4EE600AF1EE10FA08D12C
:101020009178491C9170C9B2FE2904DB322191707C
:1010300001E0014691701178322905DA51783229A0
:1010400002DA9178322900DB012010BC70470000E1
:101050003433333F010060400100A04001460020CE
:1010600091ED000AB5EE400AF1EE10FA01DCB1EEA6
:10107000400ADFF8D029DFED310AB4EE600AF1EE64
:1010800010FA08DBD3785B1CD370DBB2FE2B04DBD9
:101090003223D37001E00346D37091ED010AB5EE1F
:1010A000400AF1EE10FA01DCB1EE400AB4EE600A3B
:1010B000F1EE10FA08DB13795B1C1371DBB2FE2B27
:1010C00004DB3223137101E00346137191ED020A30
:1010D000B5EE400AF1EE10FA01DCB1EE400AB4EED2
:1010E000600AF1EE10FA08DB5179491C5171C9B25E
:1010F000FE2904DB3221517101E001465171D178A2
:10110000322905DA1179322902DA5179322900DBE4
:1011100001207047010070419A99993E010090406A
:10112000010080400000C8430000164301005C42FB
:101130008096184B0000A040741B002035336B4193
:101140002DE9F24F82B00446DFF8F058E888ADF898
:101150000200A888ADF80000002637462046FFF7B9
:1011600023FF01902046FFF779FF8246DFF8D488FD
:101170003046C8F85000C8F85400D8F86800DFF8C6
:10118000C898D9F8C01800EE101AD4ED000A30EE55
:10119000C01A01EE900AF8EEE11A21EE211AB5EE1E
:1011A000401AF1EE10FA1BD598ED1D1A70EE411A97
:1011B000F5EE401AF1EE10FA01DC71EE401A9FEDE7
:1011C0006D1AF4EE411AF1EE10FA04DBD8F8601053
:1011D000491CC8F8601088ED1D0A4042C8F8680034
:1011E00009F50C6090ED010AD8F86C1094ED011A25
:1011F00031EE401A01EE901AF8EEE11A21EE211AB2
:10120000B5EE401AF1EE10FA1BD598ED1E1A70EEED
:10121000411AF5EE401AF1EE10FA01DC71EE401AB7
:101220009FED541AF4EE411AF1EE10FA04DBD8F8EF
:101230006020521CC8F8602088ED1E0A4942C8F898
:101240006C1090ED020AD8F8700094ED021A31EE9D
:10125000401A01EE900AF8EEE11A21EE211AB5EEDD
:10126000401AF1EE10FA1BD598ED1F1A70EE411AD4
:10127000F5EE401AF1EE10FA01DC71EE401A9FED26
:101280003D1AF4EE411AF1EE10FA04DBD8F86010C2
:10129000491CC8F8601088ED1F0A4042C8F8700069
:1012A00098F80800052809D10120C8F83000304618
:1012B00088F80800A8F80A00A8F80C00D8F83C0044
:1012C00002990818C8F83C00D8F82400D8F834105F
:1012D000884202D10120C8F83000D8F8280000EB7D
:1012E000400109EB810B0BF66C00C0ED000A616850
:1012F0004160A16881600299204600F071F901986F
:10130000012802D0BAF1010F36D19FEDB40ADBF803
:101310006C0800EE900A60EEA00ADBF8700801EE9F
:10132000100A21EE011ADBF8740801EE900A61EE52
:10133000A11A98F80000322805DA98F8030032283C
:1013400001DA30EE800A98F80100322805DA98F8C0
:101350000400322801DA30EE010A98F8020032283F
:1013600005DA98F80500322801DA30EE210A00F09B
:1013700075FB13E0CECC4C3E0BF66C00D0ED020AB0
:1013800090ED011ADBF86C0800EE100A20EE000A5E
:1013900001EE010A00EEA00A00F060FBD8F82C0074
:1013A000002810D1304604E009EB810181ED000AEC
:1013B000401C80B201460729F6DBF1EE0C0A60EE14
:1013C000200AC8ED050AD8F8280009EB8000D0ED06
:1013D000000A70EE600A98ED051A70EE810AC8EDF9
:1013E000050AD8F8280009EB800080ED000AD8F83B
:1013F000240009EB8000C0ED0E0A98ED070A30EEDC
:10140000200A88ED070AD8F8281009EB810191ED30
:10141000070A30EEC00A00F2204282ED000AC1ED58
:10142000070A98ED080AD0F8201400EE901A30EE62
:10143000200A88ED080A09F50C6194EC030A81EC96
:10144000030AD8F84410491CC8F8441098F808203A
:10145000012A01D0032A3AD102292BD26A8D042A0B
:1014600028DA296D002965D198ED060ADFEDBF0A5B
:10147000B4EE600AF1EE10FA08D5D0F8201401EEAF
:10148000101AB4EE601AF1EE10FA0FDAF9EE0C0A47
:10149000B4EE600AF1EE10FA4CDBD0F8200400EE56
:1014A000100AB4EE600AF1EE10FA43D50120C8F834
:1014B00030003FE027290AD3B8F80A20002A03D0D9
:1014C00011FA82F14B2902D30121C8F83010D0F86B
:1014D000200400EE900A98ED060A00F049F998F809
:1014E0000800012826D1B8F80A00002822D0B8F850
:1014F0000C1000291ED0032211FA80F03D2802DBD7
:101500000120C8F83000688D042800DB0222A88D75
:10151000824202D20120C8F83000FEF7EFFE0646F4
:10152000D8F86000C8F864003846C8F86000A8F829
:101530000C00A885D8F82400D8F83810401AFA30E2
:10154000FA242146B0FBF1F104FB1100B8F81210A7
:10155000884201D100F0FBF9D8F82400D8F83810FF
:10156000401AFA302146B0FBF1F104FB1100642867
:1015700001D100F016FABDF80200E988884204D1D2
:10158000BDF80000A988884200D00127D8F82400BF
:1015900009EB8001D1F82014C8F81810401CC8F8D5
:1015A0002400FA2802D10020C8F82400D8F8280026
:1015B000401CC8F82800072802D10020C8F82800DD
:1015C000D8F82C00401CC8F82C0046EA0700401E42
:1015D0008041C043C00FBDE8FE8F00000000000046
:1015E00030B4DFF8643490ED000AD3F8C02800EE80
:1015F000902A30EE600A03F50C62D0ED010A92EDFC
:10160000011A70EEC10A90ED021AD2ED021A31EE03
:10161000611AB5EE400AF1EE10FA02DDF0EE401A62
:1016200001E0F1EE401AF5EE400AF1EE10FA02DDAB
:10163000B0EE602A01E0B1EE602AB5EE401AF1EE9C
:1016400010FA02DDF0EE412A01E0F1EE412A71EEDE
:10165000821A71EEA21AB5EE400AF1EE10FA01DC20
:10166000B1EE400ADFF8E40390ED042A32EE000AFE
:1016700080ED040AF5EE400AF1EE10FA01DCF1EE1D
:10168000600A90ED050A30EE200A80ED050AB5EEFD
:10169000401AF1EE10FA01DCB1EE411A90ED060AA3
:1016A00030EE010A80ED060A90ED070A30EE210ABD
:1016B00080ED070ADFF88C23D46A002C12D10024B5
:1016C00006E003EB850505F62805C5ED001A641C48
:1016D000A4B225460F2DF4DBB2EE0E0A21EE800AED
:1016E00080ED180AD48903EB8403D3F8285800EE60
:1016F000105A31EEC00AD0ED180A30EE200A80ED03
:10170000180A03F62803C3ED001AF2EE0E0A80EE63
:10171000200ADFF8283383ED1C0AD2ED120AB4EE5A
:10172000600AF1EE10FA01D582ED120AD2ED130A29
:10173000F4EE400AF1EE10FA01D582ED130ADFED66
:10174000AB0AB4EE600AF1EE10FA03D5436EC91885
:10175000416601E000214166611CD18189B20F29F7
:1017600001D10021D181406E30BC70470100E040C2
:101770009FED9F1AB148418D042901DBB0EE001A9C
:10178000B5EE400AF1EE10FA07DBF5EE400AF1EE95
:1017900010FA02D5818D491C8185AA48017A002959
:1017A00005D002295CD02BD3032972D0ACE0F1EE36
:1017B0000C1A31EE211AB4EE401AF1EE10FA0BDBDE
:1017C000B4EE601AF1EE10FA06D5416C1029C0F0A3
:1017D0008B800021416487E0416A9B4A02EB8101D2
:1017E000D1F8201401EE901A994991ED010AF4EE16
:1017F000401AF1EE10FA40F18780C1ED011A83E042
:10180000416A914A02EB8101D1F8201401EE901A4D
:101810008F4991ED002AB4EE612AF1EE10FA01D55C
:10182000C1ED001AF7EE001AB4EE610AF1EE10FAFB
:101830006ADBB7EE000AF4EE400AF1EE10FA63D567
:10184000416C418100214164B9EE0C0A30EE410A3D
:10185000F4EE400AF1EE10FA10D40221017253E0C6
:10186000F9EE0C1A31EEC11AB4EE410AF1EE10FA9B
:101870004ADBF4EE410AF1EE10FA45D5032101727C
:101880007149426A01EB8201D1F82014704A51601B
:101890003AE0416A6C4A02EB8101D1F8201401EE72
:1018A000901A6B4991ED012AF4EE421AF1EE10FA0A
:1018B00001D5C1ED011ADFED621AB4EE610AF1EE55
:1018C00010FA21D5F4EE610AF1EE10FA1CDB416C3E
:1018D000818100214164B1EE0C0A31EE000AB4EEC0
:1018E000600AF1EE10FA0ED50121017258490A681A
:1018F00002654A684265544A436A02EB8302D2F8A1
:1019000020240A6000E00172007A7047002803D0AA
:101910004A49282200F0FCB8704710B5494C002015
:10192000E06200F03EF800F012F80520207210BDD1
:10193000301C0020002806D0444942684A600268F2
:101940000A60007A087270474048406E704710B5D0
:101950003A4C0020206520626061A0802085E085EF
:101960002086A065E065024640213A4800F092F8E2
:10197000E06F012801D1FEF773FEA08E002808D089
:10198000E18E814201D2608600E061860020A0865F
:10199000A067A06F012801D1E08E60860020A067BB
:1019A00010BD10B5254C0020206260616085E0808C
:1019B00002460821284800F06DF80020E0852086C6
:1019C000E06F012801D1FEF74BFEA06F012801D185
:1019D000E08E608610BD19490A6D4B8E9A4203D283
:1019E000488600208867704788867047EC51383EEB
:1019F0000000000038B50446124D14480F49012C70
:101A000006D10622CA860C22828196226A8205E0CD
:101A10000722CA860F22828164226A822A8AA2420F
:101A200009D04A8E082A03DAC88EFFF7D4FF02E0F5
:101A30008089FFF7D0FF2C8231BD0000E41A00201E
:101A4000FEFF7FBF706E002060430020641B0020FB
:101A5000D4710020841B0020C44B002081B08DED88
:101A6000000A0098401000F1FE500090DDED000AE1
:101A7000C0EE200A9DED001A70EE810ACDED000A3D
:101A8000B5EE001ADDED001A80EE210A00EE810AA3
:101A900001B0704762F30F2262F31F4200B500BF2E
:101AA000130096469446103928BFA0E80C50FAD887
:101AB0005FEA417C28BF0CC048BF40F8042BC9072F
:101AC00028BF20F8022B48BF00F8012B00BD50F8BA
:101AD000041B61B150F8042BD30744BFA9F10103E3
:101AE0009A180023091F42F8043BFAD1EFE7704728
:101AF00062B38B0708D0521E11F8013B00F8013B7E
:101B000000F024808B07F6D1830740F0208000BFCF
:101B1000103A07D330B4B1E83810103AA0E83810C2
:101B2000F9D230BC530724BFB1E80810A0E8081070
:101B300044BF51F8043B40F8043BD20724BF31F8BE
:101B4000022B20F8022B44BF0B7803707047083A31
:101B500007D3B1E80810083A40F8043B40F804CB3A
:101B6000F7D25307E4E78268521C8260426832B1C0
:101B70000268531C036011704168491E4160704740
:101B80007CB506460C4615460020ADF806008DF8DB
:101B900004000120009001AB32467221082001F0C0
:101BA00025FD002801D1002076BD8DF806609DF846
:101BB0000400A04328438DF804009DF804008DF82C
:101BC000070002230DF106027221082001F0B2FC89
:101BD000002801D1002076BD012076BD38B5002057
:101BE000ADF8000082208DF80000DFF88C5D00ACBD
:101BF00028796070022300AA7221082001F09AFC63
:101C0000002801D1002032BD8E208DF800002878F8
:101C10006070022300AA7221082001F08BFC0028CA
:101C200001D1002032BD8F208DF8000068786070EF
:101C3000022300AA7221082001F07CFC002801D1B7
:101C4000002032BD80221146AB20FFF799FF802093
:101C50008DF8000007206070022300AA722108207E
:101C600001F068FC002801D1002032BDDD208DF894
:101C7000000020206070022300AA7221082001F0D9
:101C800059FC002801D1002032BD012032BD10B521
:101C9000DFF8404D8B202070902060700420A070F1
:101CA0003020E07038210FF2140001F0ABFB382037
:101CB0002071002060711120A07110BD233E70546E
:101CC000696D65203D2025640A00000030B583B0B1
:101CD0000020044601900A2001F046FDFFF7D7FFDF
:101CE00000E0641C032C14D2DFF88C0C2118097E50
:101CF0008DF806102018007F8DF8070002230DF1E3
:101D000006027221082001F015FC0028E9D100200C
:101D10003EBD012000900DF10503E622722108204E
:101D200001F064FC002801D100203EBD012000909C
:101D300001ABE7227221082001F058FC002801D1F4
:101D400000203EBD9DF804209DF805100FF2AC0068
:101D500001F058FBDFF8200C41788A0901F01F01DF
:101D60000078830900F03F0001249DF8055004FA33
:101D700003F36B43401C584304FA02F25043491CDE
:101D800048439DF80410002904D0DFF8501D90FB53
:101D9000F1F003E04FF44C6190FBF1F028300128A2
:101DA00003DB00218DF8041003E0404221468DF84A
:101DB0000410C0218DF806100DF106046070022396
:101DC0000DF106027221082001F0B4FB002801D1B8
:101DD00000203EBDC1208DF806009DF80400607013
:101DE00002230DF106027221082001F0A3FB002856
:101DF00001D100203EBD01203EBD0000233E205405
:101E000052494D20256420256420000010B5DFF8DC
:101E1000C44BE37CA27C217B0FF2280001F0F2FA94
:101E2000207BA17C0843E17C08434FF4805103D020
:101E3000002001F0A5FC02E0002001F0A3FC01203D
:101E400010BD0000233E506F7765722050726F788E
:101E50002564204D6F6265616D25642052656D6358
:101E60006F6E25640000000038B50022ADF8002038
:101E7000DFF8604B228C002902D01043208402E05E
:101E800022EA00002084208C002805D002284BD0B4
:101E90001FD3032848D01AE0DD208DF8000000ADE4
:101EA00000206870022300AA7221052001F042FB85
:101EB00000284DD080208DF800000120687002239A
:101EC00000AA7221052001F035FB002840D0012036
:101ED00032BD81208DF8000000ADA079687002232A
:101EE00000AA7221052001F025FB002830D0687877
:101EF0006072DD208DF8000000206870022300AAC7
:101F00007221052001F016FB002821D080208DF8D9
:101F1000000003206870022300AA7221052001F04E
:101F200009FB0028D3D113E081208DF8000000AD1B
:101F3000A0796870022300AA7221052001F0FAFA44
:101F4000002805D068786072FFF748FE0028BED1EF
:101F5000002032BD1CB5044600208DF80400ADF809
:101F600006000120009001AB93227221082001F0AD
:101F70003DFB002801D1002016BD93208DF80600FE
:101F80009DF8040020438DF8070002230DF106029E
:101F90007221082001F0CEFA002801D1002016BDE0
:101FA000012016BD30B583B00FF2A40001F02AFA6B
:101FB0000020ADF804000546DFF80C4D60780028DD
:101FC00002D128463EBD6D1C032D11D2281900797F
:101FD0008DF804002819007A8DF80500022301AA63
:101FE0007221082001F0A6FA0028ECD100203EBDA5
:101FF000DFF8E0590120009005F1110391227221D0
:10200000082001F0F3FA002801D100203EBD012094
:102010000090234692227221082001F0E7FA00285E
:1020200001D100203EBD2278697C0FF2340001F01E
:10203000E9F901F03BFF02F06DFD8C21A0F8621080
:1020400002F068FD5A21A0F8641001203EBD000096
:10205000233E50726F78692070726F6265000000D5
:10206000233E50726F782063686970207265762015
:1020700030782578206465765F696420307825782B
:102080000000000038B5DFF8F048617C0FF2D000A6
:1020900001F0B8F90020ADF80000A07C002807D0BE
:1020A000012020750FF2CC0001F0ACF9012032BD07
:1020B000DFF8040D416F497A006A407A4018012820
:1020C00008DB207D002805D10FF2C80001F09AF945
:1020D000012032BD8C208DF8000000ADE0786870E2
:1020E000022300AA7221082001F024FA002801D15D
:1020F000002032BD01202073FFF788FE01206075AB
:1021000088208DF80000FF206870022300AA722149
:10211000082001F00FFA002801D1002032BD8A20EA
:102120008DF8000000206870022300AA72210820A8
:1021300001F000FA002801D1002032BD0121022067
:10214000FFF792FE002801D1002032BD2020FFF7CA
:1021500001FF002801D1002032BD012032BD000066
:10216000233E50726F78206F70656E20307825782E
:1021700000000000233E616C72656479206D6F621F
:1021800065616D206F6E20696E2070726F78206FB0
:1021900070656E00233E20736B69707065642070FB
:1021A000726F20616C72656164792070726F7869FA
:1021B000206F6E001CB50FF2C00001F023F9002063
:1021C0008DF80400DFF8B047207D012807D10FF219
:1021D000B80001F017F900202075012016BDDFF8C6
:1021E000EC0C016A002906D108210FF2B80001F0B9
:1021F00009F9002016BD406F002806D11D210FF2FD
:10220000A40001F0FFF8002016BD407A00281DD080
:10221000487A00281AD001210020FFF725FE002867
:1022200001D1002016BD0120009001AB8022722157
:10223000082001F0DBF9002801D1002016BD9DF82F
:1022400004100FF2780001F0DDF80BE0002020739D
:1022500001460220FFF708FE002801D1002016BD2C
:10226000FFF7D4FD2020FFF775FE002801D10020E4
:1022700016BD012016BD0000233E50726F7820630A
:102280006C6F736500000000233E70726F782062EF
:1022900061636B757020696E2070726F7820636C5B
:1022A0006F736500233E73656E736F72202825641B
:1022B00029202A206973206E756C6C00233E262627
:1022C000656E61626C65203078257800012070476A
:1022D0001CB504460020ADF804000220009001ABBC
:1022E000C0227221052001F081F9002801D10020CF
:1022F00016BD0120009001AB9C227221082001F044
:1023000075F9002801D1002016BD9DF80400207049
:10231000012016BD7CB5002400A821460A4606C04F
:1023200002F0F8FB054601F00EF890F818010128BC
:1023300003D1B5F86440FF2501E0B5F8625088206C
:102340008DF8000000AE7470022300AA72210820EC
:1023500001F0F0F8002805D10FF6883001F052F8AE
:10236000002076BD8A208DF800007570022300AA37
:102370007221082001F0DEF8002805D10FF6743034
:1023800001F040F8002076BD0FF6783001F03AF801
:10239000012076BD2DE9FC41044602F0BBFB054659
:1023A00000F0D1FF06460020ADF8040001200090A7
:1023B00001AB9C227221082001F018F9002801D1FC
:1023C00000207AE09DF8047039460FF6503001F095
:1023D00019F89DF804006070DFF8F48A002088F88E
:1023E0000B0098F8150001281FD1B5F86200B8421B
:1023F0000ADA01202070207886F8180139460FF695
:10240000283000F0FFFF09E000202070207886F8D7
:10241000180139460FF6303000F0F4FF012088F83B
:102420000B00002088F8150034E096F81801002809
:1024300011D1B5F8620087420DDB012020702078B1
:1024400086F81801012088F80B0039460FF6143081
:1024500000F0D8FF1EE096F81801012812D105F10E
:1024600062004088B8420DDB00202070207886F89A
:102470001801012088F80B0039460FF6003000F0F3
:10248000C1FF07E039460FF60C3000F0BBFF00201B
:1024900088F80B00FFF73EFFFB20FFF75BFD0028ED
:1024A00001D1002009E005F162004288B5F8621010
:1024B0000FF6F82000F0A6FF0120BDE8F681F0B588
:1024C00083B004460D460020ADF80400DFF8006A32
:1024D000B073307202F01EFB07460120009001AB82
:1024E00093227221082001F081F8002817D00120E2
:1024F00000900DF10503DC227221082001F076F82E
:1025000000280CD09DF805209DF804100FF6AC2093
:1025100000F078FFFB20FFF71DFD002801D100200F
:10252000FEBD2078082821D16078FF281ED12946D9
:10253000601CFFF7CDFE94F90120B7F862008242DB
:1025400007DB0120207021780FF6A42000F05AFF4D
:102550000AE0B7F86400904206DB00202070217882
:102560000FF68C2000F04EFF0120FEBD00203074DD
:102570009DF80400800615D50120B0732946204639
:10258000FFF708FF00280DD0307B00280AD0F07A32
:10259000002807D00FF66C2000F034FF0020F07206
:1025A00001203074307CFEBD70B5054602F0B2FAF1
:1025B00004462878A4F8620004F162066878708006
:1025C000B4F86200002802D07088002808D10FF605
:1025D0003C2000F017FF8C20A4F862005A20708085
:1025E0007288B4F862100FF62C2000F00BFF012067
:1025F00070BD1CB504460020ADF804000220009018
:1026000001ABC0227221052000F0F0FF002801D1AB
:10261000002016BD9DF80400207001A8417861706B
:102620009DF804104278002A00D049429DF80430F9
:1026300009B20FF6F41000F0E5FE012016BD10B54A
:10264000044602F067FAB0F862102170B0F8640036
:102650006070627821780FF6F01000F0D3FE012050
:1026600010BD38B505460020ADF8000028780728D1
:102670001BDA2878DFF85848697801556A78297894
:102680000FF6E01000F0BEFE287802280FD19F2040
:102690008DF80000A0788DF80100022300AA7221B5
:1026A000082000F047FF002812D1002032BD287812
:1026B00005280DD183208DF8000060798DF8010088
:1026C000022300AA7221082000F034FF0028ECD079
:1026D000012032BD80B5A848407D002808D10120E6
:1026E000DFF8E817096A48770FF6981000F08AFEBD
:1026F000012002BD80B5002905D0022909D005D3EB
:10270000032909D00AE0FFF774FF07E0FFF797FFFE
:1027100004E0FFF7A6FF01E0FFF7DCFFC0B202BD57
:10272000F8B504460D460026374600E040372846F7
:10273000874218DAC01B402801DB402000E080B24D
:10274000C0B200903B193846A0F18002D2B272218B
:10275000082000F04BFF0600E8D10FF6341000F01F
:1027600051FE0020F2BD0FF6381000F04BFE30464F
:10277000F2BD10B582B0002400290FD12146ADF87A
:1027800000108DF8002000788DF80000022300AAC8
:102790007221082000F0CEFE04460EE0012908D187
:1027A0000121009103467221082000F01FFF04461A
:1027B00003E00FF61C1000F025FE40F2C9520FF6A0
:1027C000F0010FF61C1000F01DFE204616BD80B56E
:1027D000DFF8E405DFF8FC160162883141670FF687
:1027E0009021082002F038FD0FF6B4211D20BDE82D
:1027F000044002F031BD1CB504460020ADF80600CF
:102800008DF804002046012809D0042807D010289C
:1028100005D0402803D0802801D0002016BD00221A
:1028200002218020FFF7ACF90120009001AB90223B
:102830007221052000F0DAFE002801D1002016BD2B
:102840009DF8040000F0FC008DF80400012C0AD073
:10285000042C04D0102C1FD0402C22D026E040F0B5
:1028600001008DF8040090208DF806009DF804000A
:102870008DF807009DF8040000F00300DFF8501603
:10288000887202230DF106027221052000F052FE2B
:1028900000280DD1002016BD40F002008DF8040084
:1028A000E1E740F003008DF80400DCE7002016BDEE
:1028B000022211468020FFF763F9012016BD38B5CA
:1028C0000FF6240000F09EFD0020ADF80000FFF799
:1028D000FDF9DFF8F4436070002805D10FF6180009
:1028E00000F090FD002032BD002500E06D1C052D9C
:1028F00011D22819007B8DF800002819007D8DF871
:102900000100022300AA7221052000F013FE002816
:10291000ECD1002032BD012032BD10B5164C617CD7
:102920000FF2EC7000F06EFDDFF8A005D0F8880023
:10293000407A002805D00FF2EC7000F063FD012012
:1029400010BD4020FFF757FF012060730020E073A7
:102950001420606201210846FFF786FA002801D1A1
:10296000002010BD1020FFF7F5FA002801D100204B
:1029700010BD012010BD0000BC1F002080B50FF26B
:10298000C07000F03FFDDFF83004D0F88800407AD6
:10299000002809D0411E8941C943C90F0FF2B07008
:1029A00000F030FD012002BD0020DFF8241548733F
:1029B00001460120FFF758FA002801D1002002BD8E
:1029C0001020FFF7C7FA002801D1002002BD012026
:1029D00002BD0000BC1F0020012070472DE9F04718
:1029E0008AB0044606A800210A4606C0084605909B
:1029F0000890DFF8C4034569084685F87A00082086
:102A0000009006AB94227221052000F0EFFD002813
:102A100001D100205EE09DF81800A07306A841785F
:102A2000E1739DF81A1021729DF81B1061720179F3
:102A3000A1724079E0729DF81E0020739DF81F007E
:102A40006073DFF88C64707A2074B07A6074607A96
:102A5000217A41EA0027E07AA17A41EA0028607BE6
:102A6000217B41EA0029E07BA17B41EA002A08A8FA
:102A7000019005A8009053464A464146384600F06A
:102A800086F8002808D10FF2EC6000F0BBFC0120B2
:102A900085F87A0000201DE00598206008986060A5
:102AA0000120F073706A012813DB0120049005985F
:102AB0000390B07A0290707A0190CDF800A04B4656
:102AC000424639460FF2C06000F09CFC706A401E1E
:102AD000706201200AB0BDE8F087000040F3FFFFFC
:102AE000F8B504460D460026374600E04037284634
:102AF000874218DAC01B402801DB402000E080B28A
:102B0000C0B200903B193846A0F18002D2B27221C7
:102B1000052000F06BFD0600E8D10FF2A46000F084
:102B200071FC0020F2BD0FF2A86000F06BFC304693
:102B3000F2BD10B582B0002400290FD12146ADF8B6
:102B400000108DF8002000788DF80000022300AA04
:102B50007221052000F0EEFC04460EE0012908D1A8
:102B60000121009103467221052000F03FFD04463B
:102B700003E00FF25C5000F045FC40F297720FF258
:102B800060610FF25C5000F03DFC204616BD2DE95F
:102B9000F14F82B0894692460026374634463D467C
:102BA0001846BDF8081019FA81F111FA8AF1091ACC
:102BB00001EBD1714FEA610B0FFA8BFBC44A0FF2A4
:102BC000AC6192F80AC01CF80110527A521C11FB39
:102BD00002FC4FF42F6E0EFB0CFECDF804E09202C7
:102BE000B2F5803F01D34FF6FF72D2004FF00A0CCE
:102BF000B2FBFCF2102944D1934242D30120FFF7EB
:102C0000FAFD002855D1BDF80800A0EB0B0000909C
:102C1000A9EB0B00AAEB0B08BDF808108B4503DAF3
:102C20000099A02282FB0145CB4503DA4FF47A716B
:102C3000C1FB0045D34503DA6FF08100C0FB0845B6
:102C4000002D03DC00DB01D234463D4640F23A72EF
:102C5000A2FB040102FB0511019AD31702F028FD23
:102C60000C99086040F6155080FB0801009AD317B4
:102C700002F01EFD00F266700D9908600120BDE8AB
:102C8000FE8F102907D1642805DA4020FFF7B3FD35
:102C900000280ED1B7E7402902D1643A934203D20B
:102CA0000129B0D16428AEDA1020FFF7A4FD002876
:102CB000A9D02046E3E78848844948610FF21061B3
:102CC000052002F0C9BA0000201E002038B50FF21E
:102CD000345000F097FB0020ADF800007F4C40F22C
:102CE0003A70A062A020E0614FF47A7020626FF029
:102CF0008100606240F61550E06240F26670206329
:102D0000002500E06D1C052D11D22819007B8DF8DF
:102D100000002819007D8DF80100022300AA72210D
:102D2000052000F007FC0028ECD1002032BD012076
:102D300032BD10B5664C617C0FF2DC4000F062FBE6
:102D400062484069407A002805D00FF2DC4000F06C
:102D500059FB012010BD4020FFF74DFD012060739D
:102D60000020E0730320606201210846FFF77CF831
:102D7000002801D1002010BD012010BD80B50FF248
:102D8000C04000F03FFB0C484069417A002905D063
:102D90000FF2B84000F036FB012002BD00204C4984
:102DA000487301460120FFF75FF8002801D1002099
:102DB00002BD012002BD0000C8690020012070474B
:102DC0002DE9F0478AB0044606A800210A4606C04D
:102DD0000846059008903D484569084685F87A0000
:102DE0000820009006AB94227221052000F0FEFB23
:102DF000002801D100205DE09DF81800A07306A80E
:102E00004178E1739DF81A1021729DF81B106172D0
:102E10000179A1724079E0729DF81E0020739DF83F
:102E20001F0060732A4E707A2074B07A6074607AE2
:102E3000217A41EA0027E07AA17A41EA0028607B02
:102E4000217B41EA0029E07BA17B41EA002A08A816
:102E5000019005A8009053464A4641463846FFF780
:102E600096FE002808D10FF20C3000F0CBFA0120BA
:102E700085F87A0000201DE00598206008986060C1
:102E80000120F073706A012813DB0120049005987B
:102E90000390B07A0290707A0190CDF800A04B4672
:102EA000424639460FF2E02000F0ACFA706A401E4C
:102EB000706201200AB0BDE8F08709480349C1F8F3
:102EC00088000FF23C41222002F0C6B9C8690020F8
:102ED000BC1F0020B0630020D86C0020201E002002
:102EE000606D0020233E5772697465207250494C12
:102EF00054204600233E5772697465207250494839
:102F000054204600233E74687265736820736574AC
:102F100020636F6D706C657465000000233E704423
:102F20006174612025750000233E50726F78206621
:102F30006972737420434C4F53452070646174610F
:102F40003D5B25645D000000233E50726F78206673
:102F500069727374204641522070646174613D5BF4
:102F600025645D00233E50726F7820434C4F5345DB
:102F70002070646174613D5B25645D00233E507286
:102F80006F78204641522070646174613D5B256416
:102F90005D000000233E436865636B20436F6E64F1
:102FA0006974696F6E21212120256400233E5570CC
:102FB0003D25642C4C6F3D2564000000233E544D9C
:102FC0004433373030205265616420756353746137
:102FD000747573203D2025782020756343616C69EA
:102FE00062537461747573203D20257800000000E1
:102FF000233E536C656570204144432025642025A1
:1030000064000000233E505550000000233E505401
:10301000483D3000233E54687265736820736574C0
:103020002025642025642000233E50726F782047BD
:103030004554205452494D2025642030782578206D
:103040003078257800000000233E4745542054681E
:10305000726573686F6C642030782578203078252D
:1030600078000000233E4368616E67652070726FD0
:10307000782053657474696E672025642030782544
:1030800078000000233E50555020464F52434500E3
:1030900050524F582044554D50204621000000000A
:1030A00050524F58492044554D50205300000000C5
:1030B00050726F78696D6974795F544D443337305D
:1030C000305F52656769737465725F525700000024
:1030D00052656720525720636D642065727200004C
:1030E00025732C2025640000233E4C6967687420FA
:1030F00070726F6265000000233E544D44333730D8
:10310000302070726F6265206661696C000000009B
:10311000233E4C69676874206F70656E2030782597
:1031200078000000233E6C69676874206363742034
:10313000616C65616479207475726E206F6E000039
:10314000233E4C6967687420636C6F7365000000F0
:10315000233E6C696768745F73656E736F725F633B
:1031600063742D3E757365645F636F756E74203E86
:1031700020256400233E4C20616761696E206368EE
:10318000616E676564000000233E723D2564206720
:103190003D256420623D256420633D2564206174E3
:1031A000696D653D256420616761696E3D25642018
:1031B0006C75783D25752072656164793D256400E4
:1031C0004C494748542044554D50204621000000AA
:1031D0004C494748542044554D50205300000000AE
:1031E0004C696768745F416D6269656E745F544DC8
:1031F00044333730305F52656769737465725F526C
:1032000057000000233E4C69676874206363742094
:1032100070726F6265000000233E4C49474F206387
:103220006374203078257800233E6C6967687420C9
:10323000616C65616479207475726E206F6E000038
:10324000233E4C494743206363740000233E6C696E
:103250006768745F73656E736F722D3E7573656416
:103260005F636F756E74203E20256400010410407A
:10327000A51F000885200008B5210008CD22000800
:1032800000000000BF240008A9250008000000007D
:1032900000000000F5260008212700087327000819
:1032A000A51F000885200008B5210008CD220008D0
:1032B00000000000D1220008A9250008000000003D
:1032C00000000000000000000000000000000000FE
:1032D000BF2800081B2900087D290008D9290008FB
:1032E00000000000DD2900080000000000000000D0
:1032F0000000000000000000E12A0008332B000855
:10330000CD2C0008332D00087D2D0008BD2D0008B0
:1033100000000000C12D00080000000000000000B7
:10332000000000000000000000000000000000009D
:1033300010B5DFF8D04500224FF408712046FEF7A3
:10334000A9FB204610BDDFF8BC05704710B5FFF79C
:10335000EFFF044600231A461146084600F029FAFA
:10336000C046C04600F053FB0B21204600F033F866
:1033700000F00BFD204600F0F1F9204600F00AF8BD
:1033800000F098F900206072A072E07220730120B2
:10339000607310BD10B50446DFF86C0500F0FFFB4C
:1033A000DFF8680500F0FBFB0120607110BD10B56F
:1033B000044600F034FC0120A07110BD80B500F07F
:1033C00048FE012002BD10B50446E07900F024FF5C
:1033D0000121217010BD70B504460025E679E17128
:1033E000FFF7F1FF002807D02046FFF7D3FF204664
:1033F000FFF7DDFF012503E0E6712046FFF7E3FF5D
:10340000284670BD0EB470B5C1B0054600A84FF493
:10341000807102F0EBF9FFF796FF044645AB2A46B0
:103420004FF4807100A802F0E5F900A802F000FA5C
:10343000451C002000A9691801F8010CDFF8D064D0
:103440003078401C30707078F021084202D099200A
:1034500002F00AFA02F07EFA7078401C707094F85C
:103460001C012818FA2817DA94F81C01002805D046
:103470000A2094F81C11091981F81C0194F81C0108
:10348000001900F21D102A4600A9FEF731FB94F83E
:103490001C01281884F81C017078F021084202D021
:1034A000992002F0E1F97078401E7070C0B20028D7
:1034B00001D102F049FA02F037FD41B070BC5DF86D
:1034C00010FB052803D0082801D01D2805D1DFF8FE
:1034D0003C04DFF8401408607047DFF82C04DFF884
:1034E00034140860704710B50446FFF72CFFD0E98C
:1034F000442310461946224602F03AFE00F001002D
:1035000011F0000101D100280ED0DFF8104420682E
:10351000401C20601E2807DB0FF21040FFF772FFEF
:1035200000F0F5FE0020206010BD0020DFF8EC1355
:10353000086070472DE9F84305460E4617464FF0E0
:103540000208DFF8CC436078F021084202D09920CD
:1035500002F08AF902F0FEF96078401C60709DF874
:103560000000401E8DF8000017F8019B2846FFF769
:10357000A8FF00AB4A463946304600F0FDFE002861
:1035800012D06078F021084202D0992002F06CF944
:103590006078401E6070C0B2002801D102F0D4F9FA
:1035A000FFF7C3FF01201FE05FFA88F84246294673
:1035B0000FF28C30FFF726FF4046A0F101080028EB
:1035C000D7D16078F021084202D0992002F04CF95E
:1035D0006078401E6070C0B2002801D102F0B4F9DA
:1035E0002846FFF780FF0020BDE8F2832DE9F04771
:1035F00004460D4616461F46DFF82483089888F8CF
:103600000000DFF80C9399F80100F021084202D085
:10361000992002F029F902F09DF999F80100401C67
:1036200089F801002046FFF74CFF4FF0020A43469D
:1036300032463946284600F051FF002815D099F847
:103640000100F021084202D0992002F00DF999F80A
:103650000100401E89F80100C0B2002801D102F02B
:1036600073F9FFF762FF012022E05FFA8AFA5246FF
:1036700021460FF2D820FFF7C5FE5046A0F1010AFF
:103680000028D4D199F80100F021084202D09920F5
:1036900002F0EAF899F80100401E89F80100C0B272
:1036A000002801D102F050F92046FFF71CFF00204E
:1036B000BDE8F08701F0F1BE2DE9F843044602268B
:1036C0004FF000080125DFF8509216E03046461E04
:1036D000C0B2002813D1B8F1000F0CD1D4E944676F
:1036E000012000212A4602F053FD26EA000027EAC5
:1036F0000101C4E9440102266D1C232D1ADA59F890
:1037000025000028E2D0C06F006880478046B8F1ED
:10371000010FDBD1D4E94467012000212A4602F0E1
:1037200037FD30433943C4E94401012059F82510DD
:103730000877D0E7D4E94401002901D1032807D054
:10374000002901D1022803D0002905D1012803D185
:1037500040F48050C4E94401BDE8F18301F007B8AA
:1037600001F069B801F017B869490A6A0B6A00BF2D
:1037700000BF00BF00BF00BF9B1A8342F6DB70474B
:1037800001F078B801F080B8012000F005B9002000
:1037900000F002B9012000F00BB9002000F008B9D8
:1037A00001F07CB810B50446FFF7CDFD80F8194153
:1037B00010BD2DE9F04782B00C4615462F4626462F
:1037C00080464FF47A714FF03C0C4FF4616918FB5E
:1037D00009F216FB0C22BA1801FB0232DFF844E1B1
:1037E0009EF900A01AFB09F99EF901A01AFB0C9C96
:1037F0009EF902904CFA89FCBEF9039001FB0C91F2
:103800009EF808C0BCF1000F22D144EA0001294310
:10381000194302D001218EF808108EF80000B8F18B
:10382000000F04D59EF8000018308EF800008EF8C6
:1038300001408EF80250AEF8033000933B4632460A
:103840009EF900100FF23410FFF7DCFDBDE8F3879E
:1038500091420DD3A1EB020CACF2D17CDFF8C89001
:10386000CC45DAD30FF2F00002B0BDE8F047C9E56D
:10387000D3D2A2EB010CACF2D179DFF8ACA0D145E8
:10388000CBD363460FF2E00002B0BDE8F047B9E5E4
:1038900010B504002FD002F032FD2249CA68002A78
:1038A00000D0841AB1F80320A218A1F8032012B2A4
:1038B000B2F57A7F06DBA2F57A72A1F803208A7846
:1038C000521C8A7091F902203C2A04DB3C3A8A702F
:1038D0004A78521C4A7091F901203C2A04DB3C3A98
:1038E0004A700A78521C0A7091F90020182A01DBEC
:1038F00000220A70C86010BD0A490522FEF7F8B818
:1039000000000000A857002000580040005400406C
:10391000981D002094200020C86900200C7200200F
:1039200046720020747100205F4C2605233E496ECC
:103930006974696C61697A6520493243000000004E
:103940004957452025642025640000004952452040
:10395000256420256400000041542D5365745453A0
:10396000312025642025640041542D53657454533F
:10397000322025642025642025640000536574539B
:10398000797374656D54696D652025643A25643AD0
:1039900025642E2564000000DFF8302B002803D0BA
:1039A0004021104603F0C6BC4021104603F0C4BCC1
:1039B000DFF8182B00284FF48051104601D003F097
:1039C000B9BC03F0B9BC1CB5DFF8044B204603F0CA
:1039D000B9FB0121084603F03EFD01208DF80400EB
:1039E00000208DF80500ADF806004FF480712046E8
:1039F0000183C0464FF48070009000A9204603F078
:103A00004FFC4FF480710020FFF7BAFE13BDF0B5F4
:103A100083B0DFF8B84A204603F094FBDFF8B45ACD
:103A2000284603F08FFBDFF8B06A304603F08AFBCC
:103A30000121084603F00FFD0121022003F00BFDD8
:103A40000121042003F007FD0121802003F003FD84
:103A500003208DF8040001208DF8060000208DF869
:103A600007008DF8050049F6FF600090DFF84C7CF8
:103A700000A9384603F014FC4FF6FF70009000A92F
:103A8000204603F00DFC00A9284603F009FC00A91C
:103A9000304603F005FC0021012003F0DCFC00218E
:103AA000022003F0D8FC0021042003F0D4FC002104
:103AB000802003F0D0FC0121032003F0CCFC012086
:103AC0008DF8040000208DF80500ADF806000121F6
:103AD000022003F0C0FC402120460183C046402064
:103AE000009000A9204603F0DBFB4FF480512046F4
:103AF0000183C0464FF48055009500A9204603F08D
:103B0000CFFB294638464183C046009500A9384678
:103B100003F0C6FB04220A21204603F00FFC092211
:103B20000321204603F00AFC02208DF80400012046
:103B30008DF805008DF8060000208DF807004FF481
:103B40008060009000A9204603F0AAFB08200090A6
:103B500000A9204603F0A4FB04220821204603F01C
:103B6000EDFB04220721204603F0E8FB02208DF83C
:103B7000040001208DF805008DF8060000208DF866
:103B800007004FF48070009000A9204603F088FBE6
:103B90008020009000A9204603F082FBF7BD30B5DD
:103BA00085B0DFF81C1B884235D0DFF8181B88422F
:103BB0002FD14FF480050C460121284603F056FC16
:103BC0000121022003F047FC0121284603F06FFC8D
:103BD0000021284603F06BFC0020ADF804004BF6F2
:103BE000FF70ADF806004FF48060ADF80A004FF4A6
:103BF0008040ADF80C000A20ADF80800DFF8CC0AD0
:103C0000009000A9204603F0E8FC0121204603F0C3
:103C100047FD05B030BD4FF400150C46CCE72DE94B
:103C2000F04192B001214FF4805003F02AFC0121B1
:103C3000032003F010FC01214FF4800003F00BFC83
:103C4000DFF88C4805221146204603F077FBDFF8A9
:103C50007C5805221146284603F070FB05220421FA
:103C6000284603F06BFB05220F21204603F066FB7C
:103C700002208DF8040001208DF805000020ADF829
:103C800006002020009000A9204603F009FB202018
:103C9000009000A9284603F003FB1020009000A923
:103CA000284603F0FDFA4FF40040009000A920469A
:103CB00003F0F6FADFF8104A204603F053FDDFF870
:103CC000105A002028806860012028810020688127
:103CD000E8600720288200206880DFF8F869304615
:103CE00003F0E2FDDFF8F079384603F0DDFD4FF434
:103CF0008060069000210D9103210E9100210F910B
:103D00000A910890DFF8A80A0390084610900990DD
:103D100007904FF400300C9008460B904FF0C068AD
:103D2000CDF80880402005900846049002A930464E
:103D300003F03EFE00200B90CDF80880059005F1C1
:103D40001400049002A9384603F032FE0020688077
:103D50002946204603F062FD01220221204603F09D
:103D600091FD01221146204603F08CFD01212046E1
:103D700003F07CFD0021304603F041FE002138466F
:103D800003F03DFE12B0BDE8F0811FB501210846E9
:103D900003F061FB01214FF4804003F072FB00202F
:103DA0008DF80C008DF80F0001200290DFF80C490F
:103DB00002A9204603F074FA0420029002A92046CA
:103DC00003F06EFA0820029002A9204603F068FA78
:103DD0000021084603F07CFE0221002003F078FE5B
:103DE0000321002003F074FE00208DF80400012060
:103DF0008DF8060000900C208DF8050000A803F057
:103E00007BFE042000900C208DF8050000A803F034
:103E100073FE082000908DF8050000A803F06CFEEA
:103E2000012003F0A7FE042003F0A4FE082003F005
:103E3000A1FE1FBD00B585B00121084603F00BFBB4
:103E400001214FF4804003F01CFB00208DF810008E
:103E50008DF813000820039003A9DFF8600803F031
:103E60001FFA0321002003F033FE00208DF8080024
:103E700001208DF80A00082001908DF8090001A8A2
:103E800003F03AFE082003F075FE09208DF80000CB
:103E90000E208DF8010000208DF8020001208DF821
:103EA000030000A803F073FE05B000BD00B585B0A7
:103EB0000121084603F0CFFA01214FF4804003F0BE
:103EC000E0FA00208DF810008DF813000420039014
:103ED00003A9DFF8E80703F0E3F90221002003F06B
:103EE000F7FD00208DF8080001208DF80A0004205D
:103EF00001900C208DF8090001A803F0FDFD0420BD
:103F000003F038FE08208DF800000E208DF8010027
:103F100000208DF8020001208DF8030000A803F0B6
:103F200036FE05B000BD30B58DB0044601214FF41A
:103F3000807003F0A6FA00A803F0ECF90A200090C4
:103F400003208DF8040000208DF8070000A9DFF899
:103F5000800503F0A5F903F053FE02A803F095FED7
:103F60004FF48030039002A803F081FE06A803F00E
:103F700074FEDFF8BC5A06A9284603F04EFE07235C
:103F800001222146284603F091FE0121284603F034
:103F9000D0FE0121284603F07EFE0DB030BD38B5BD
:103FA000DFF88C4A204603F0BFFE4FF47A750221F9
:103FB000204603F0D5FE002803D12846451E0128DF
:103FC000F5DA2046BDE8324003F0BEBE80B50021E0
:103FD000DFF85C0A03F05FFE00214FF48070BDE85B
:103FE000044003F04EBADFF8E8090068704710B5E6
:103FF00004F03CF8DFF8544902460B462260636047
:104000004FF47A72002301F075FBA0602146DFF8BF
:10401000400904F0A9F8DFF8BC4904F0DDF80028F5
:104020000DD0002004F0E1F800F074FD406DFFF7C2
:10403000C5F921460620BDE8104004F0DDB8DFF8E0
:10404000F40904F0ACF921460220BDE8104004F068
:10405000D3B810B5DFF878190860DFF8D849002820
:1040600008D00146204604F025FA2046BDE810405D
:1040700004F095B92046BDE8104004F0E2B9000014
:1040800030B4014601200023DFF8AC291C469460BF
:10409000946814F00C0FFBD10C460C2C5DD8DFE8B3
:1040A00004F0215C5C5C071A21323940474E550010
:1040B000946844F0800494604FF4C064DFF87C5945
:1040C0002C60146824F080741460DFF87449DFF801
:1040D00074592C6042E00346DFF86C49DFF86459FC
:1040E0002C603BE0946894604FF4C064DFF84C5956
:1040F0002C60146824F080741460DFF85449DFF8F1
:1041000044592C602AE00223DFF84849DFF834598B
:104110002C6023E00323DFF84049DFF828592C60A6
:104120001CE00423DFF83449DFF818592C6015E04F
:104130000523DFF82C49DFF80C592C600EE006232C
:10414000DFF82049DFF8FC582C6007E00723DFF890
:104150001849DFF8F0582C6000E01846002B4AD0D0
:104160000FF6681403EBC3031B199468946014687A
:1041700024F080741460146824F0806414609C78C7
:104180001D8844EA8514DD786D086D1E44EA0544F7
:104190001D7944EA05645460DC881D7A2D0745EAE0
:1041A0008414DFF8C8582C60146844F080741460DC
:1041B0001468A401FCD55B7943F4C063DFF87C4844
:1041C00023609368936093689360052904D1916894
:1041D00041F09001916005E00B2903D1916841F411
:1041E00080519160916841F002019160916801F005
:1041F0000C010829FAD1DFF84C180968DFF870289B
:10420000914207D2DFF86C180A6822F4404242F467
:1042100080420A6030BC704732E7002800E0401E50
:10422000FDD17047F0B583B00727DFF894148842BA
:1042300003D14FF48074802502E04FF48064082598
:1042400001208DF804008DF805008DF8060000208F
:104250008DF807000094DFF8206800A9304603F0CD
:104260001FF8009500A9304603F01AF821463046A1
:104270004183C0460F20FFF7D0FF2146304601831F
:10428000C0460F20FFF7C9FF3846471E80B20028FE
:10429000ECD1009500A9304603F002F821463046E3
:1042A0004183C0460520FFF7B8FF29463046018309
:1042B000C0460520FFF7B1FF214630460183C046C6
:1042C0000A20FFF7AAFF214630464183C046052059
:1042D000FFF7A3FF294630464183C0460520FFF77C
:1042E0009CFF02208DF8040001208DF805008DF858
:1042F000060000208DF80700009400A9304602F067
:10430000CFFF009500A9304602F0CAFFF7BD38B5CF
:104310000024DFF868570121286803F0FAF92868BB
:1043200003F02CF92868FFF73AFC05E02868FFF74E
:1043300079FF2868FFF733FC4FF40031286803F059
:10434000F3F9002802D0641C332CEFDB31BD30B40C
:104350000022838A008BDFF82447656843EA004027
:104360000840000255EA102060600840884200D1F1
:104370000122104630BC70472DE9F84F04460D4627
:1043800016464FF420691F78DFF8F0864FF40031AD
:10439000D8F8000003F0C8F9002808D04846A0F17A
:1043A00001090028F2D1FFF7B2FF00208CE0D8F815
:1043B000000001884FF6FF52114001800121D8F81A
:1043C000000003F079F94FF4007AD1460020C8F8D4
:1043D0000400D8F800B0DFF8A8165846FFF7B7FF7A
:1043E000002805D14846A0F101090028F1D163E079
:1043F000D14600222146584603F076F90020C8F83D
:104400000400D8F80040DFF87C162046FFF79FFF35
:10441000002805D14846A0F101090028F1D14BE060
:104420003146C9B220460182C046D1460020C8F8B4
:104430000400D8F80040DFF850162046FFF787FF49
:10444000002805D14846A0F101090028F1D133E048
:10445000012F15D1297820460182C046D14600207F
:10446000C8F80400DFF82416D8F80000FFF76FFF43
:10447000002823D14846A0F101090028F2D11BE011
:104480003846471EC0B2002818D015F8011BD8F8CE
:1044900000000182C046D1460020C8F80400DFF8C1
:1044A000EC15D8F80000FFF752FF0028E8D1484685
:1044B000A0F101090028F2D1002005E00121D8F87F
:1044C000000003F005F90120BDE8F28F000402406E
:1044D0000000024000080240001C02402DE9F54F98
:1044E00081B00D461E464FF420683778DFF88C45C2
:1044F0004FF40031206803F017F9002808D0404637
:10450000A0F101080028F3D1FFF701FF0020D3E05C
:10451000206801884FF6FF52114001800121206878
:1045200003F0CAF84FF40079C84600206060DFF855
:1045300050A5D4F800B051465846FFF708FF0028B0
:1045400005D14046A0F101080028F2D191E00022F7
:104550009DF80410584603F0C7F8C8460020606074
:10456000D4F800B0DFF81C155846FFF7F0FE00281D
:1045700005D14046A0F101080028F1D179E0BDF84D
:104580000810C9B258460182C046C846DFF8001577
:10459000206803F0C9F8002805D14046A0F10108C1
:1045A0000028F3D165E00121206803F085F8C846B2
:1045B00000206060D4F800B051465846FFF7C7FEAF
:1045C000002805D14046A0F101080028F2D150E0B2
:1045D00001229DF80410584603F086F8022FC846C1
:1045E00039DADFF8B014206803F09EF8002805D10E
:1045F0004046A0F101080028F3D13AE000212068EC
:1046000003F07BF82068018B012103F061F8C846B4
:10461000DFF88414206803F087F8002805D14046AD
:10462000A0F101080028F3D123E02068008AC0B27D
:1046300028703078401E3070C8462068018889058F
:1046400005D54046A0F101080028F6D111E001216E
:1046500003F053F82BE000206060DFF8401420687E
:10466000FFF775FE002806D14046A0F1010800289A
:10467000F3D1002020E0012616E0012F0CD1012EFD
:104680000AD100263146206803F037F82068818A75
:10469000018B012103F01CF82068818A490603D5AB
:1046A000008A05F8010B7F1EFFB2002FE5D1012122
:1046B000206803F022F80120BDE8FE8F00000240D0
:1046C00000540040005800400030014070F30500E5
:1046D000347000205864024010640240DFF8C003C8
:1046E0000168082933D1DFF850130A6842F080725C
:1046F0000A604268B2F1806F03D10A6842F08062BA
:104700000A600A689201FCD58A6842F002028A6057
:104710008A6802F00C02082AFAD14268B2F1806F6E
:1047200002D10A681201FCD5DFF818130968DFF816
:104730004023914207D2DFF83C130A6822F440423A
:1047400042F480420A600021016041607047416884
:10475000B1F1806F0AD1DFF8E0120A6842F080629E
:104760000A600A681201FCD5002141607047DFF839
:104770003403016841F080510160DFF8F8020168FC
:104780008908890041F0010101600FF22900DFF87A
:10479000181308607047DFF81403016821F0040162
:1047A000016030BF016841F0040101607047000002
:1047B0000C30014010B5FEF7C6FD807A012803D108
:1047C000012003F09EFE02E0002003F09AFEDFF8D5
:1047D000DC428021DFF8D80203F05EF8002820D107
:1047E00072B69548DFF8B812826802F00C020A60CF
:1047F000006800F080604860206840F0040020609D
:1048000003F0FCFFB0F5704F02D9022003F0ECFF7B
:1048100030BF62B6206820F004002060BDE8104080
:104820005CE7206820F00400206030BF206840F082
:104830000400206010BDDFF870020068004700002F
:10484000DFF87012401E052812D8DFE800F00306DA
:10485000090C110FDFF820120AE0DFF85C1207E004
:10486000DFF8581204E0DFF8581201E0DFF85412C4
:104870000846704710B50C46FFF7E2FF214689B2A3
:10488000BDE8104002F056BD10B50C46FFF7D8FF4A
:10489000214689B2BDE8104002F04EBDE0B5002AC5
:1048A00003D10C228DF8092002E008228DF809209E
:1048B00000281CD0012802D0032821D007BD0120E8
:1048C000019010208DF8090006208DF800000E20C0
:1048D0008DF8010000208DF808008DF802000129F4
:1048E00017D101208DF80A008DF8030015E004208F
:1048F000019008208DF800000E208DF80100E9E7F6
:104900000820019009208DF800000E208DF801008C
:10491000E0E78DF80A008DF8030001A803F0ECF839
:1049200000A803F034F907BD10B5044601214FF487
:10493000802002F090FD2146102003F08CFF002122
:104940004FF48020BDE8104002F085BD4471002086
:10495000443700203EB50C4615460422014602A805
:10496000FDF7D6F80422214601A8FDF7D1F804226C
:10497000294600A8FDF7CCF802A9002003F032FE7A
:1049800001A9002003F0ABFE03F0A4FE04464E4A4A
:10499000002300981946101A63EB0101490341EA0C
:1049A000D041400300F0A6FE0090844205D2011BD6
:1049B0004FF0004003F069FF37BDA04207D2C4F5B5
:1049C0000050009909184FF0004003F05EFF37BD1A
:1049D000DC710020743200202DE9704384B004465D
:1049E0000D46164602A9002003F04FFE01A9002043
:1049F00003F0C6FE03F06EFE0090334AA2FB00896E
:104A00004FEA583848EAC948A2EB0800009004224F
:104A100002A92046FDF77CF8042201A92846FDF7EB
:104A200077F8042200A93046FDF772F8BDE87F83CD
:104A3000002001401C33002000380240003C0240AE
:104A400000127A00742000208096980003F00EBBBC
:104A50000024F40000366E010048E801005A6202AA
:104A6000006CDC0280F0FA0200BD010584380240CF
:104A70000190D00300700040000402409420002008
:104A80000100030082000700800007008400070087
:104A9000040000100200001040000010020003009B
:104AA000CC71002040380240C471002010ED00E0BD
:104AB000003001400000024000080240000C0240AB
:104AC00000100240001C024000CA9A3B2001100462
:104AD0000F03020103F00010060F01020103C000E2
:104AE00010080F01020103C00010060F01020103AC
:104AF000F00010060F01020103600008040F02021B
:104B00000103C80010040F02020103A80010020FE5
:104B10000302010300487047F06E002050600260FD
:104B20004160086070470A68F8E7486001607047B4
:104B300001684068F9E7F8B50600DFF8A05916D417
:104B40002C460020A96900E0096805F1180291428D
:104B500004D00C46A2689642F6D10120002842D12A
:104B6000286A876D182003F017FF040001D128463A
:104B7000F2BDA660002F05D0B74203D2B6FBF7F016
:104B8000784300E03046E060002F02D0B74200D208
:104B90003E46266100202075DFF844693078401CCD
:104BA00030707078F021084202D0992000F05CFE4D
:104BB00000F0D0FE7078401C707005F1180120469E
:104BC000FFF7B1FF7078F021084202D0992000F081
:104BD0004BFE7078401E7070C0B2002801D100F00A
:104BE000B3FE01F0A1F92046F2BD38B5044694F9B0
:104BF0001400002829D1DFF8E8582878401C2870D4
:104C00006878F021084202D0992000F02DFE00F0D3
:104C1000A1FE6878401C68702046FFF789FF204697
:104C200003F0D2FE6878F021084202D0992000F00B
:104C30001BFE6878401E6870C0B2002801D100F0E9
:104C400083FEBDE8314001F06FB931BD002B06D0C5
:104C50008A684264CA6882640969C1647047002A2C
:104C600005D18A680265CA6842650969816570472D
:104C70002DE9F84304460D4610461E466FF00047E6
:104C8000FFF759FF804695F9050095F90410814218
:104C900015D10A30800003F07FFE814695F90500AA
:104CA000012807DB820029684846FCF731FF2868A5
:104CB00003F08AFEC5F8009068790A30687195F9AA
:104CC0000400411C2971296841F82080DFF80C0894
:104CD000804504D098F81400401C88F81400002087
:104CE00008E0296851F820108A68974201DB1746CE
:104CF000A960401C95F904108842F2DB089B3246FB
:104D0000A968204601B0BDE8F0439FE72DE9F843CC
:104D100004460D461E466FF0004CDFF8C0170F46E4
:104D200008464FF0FF334FF0000E05E0C44501DBAD
:104D3000C4464F460EF1010E95F90480C6450DDAC2
:104D4000D5F8008058F82E90D9F80880002BEDD5C2
:104D50009045EBD1484673465BB2EBE7002B13D48A
:104D6000B8F1010F10DB07E02A6802EB830CDCF8D6
:104D700004C042F823C05B1C95F90420A2F1010C89
:104D80006345F1DB521E2A71884204D0017D491E21
:104D90000175FFF72AFFAF60089B3246394620466F
:104DA00001B0BDE8F04351E710B4826A436B006C78
:104DB0009C68002C02D56FF0004300E01B698468FA
:104DC000002C02D56FF0004000E00069984200DD41
:104DD0001846D2685143884201DB012000E00020E0
:104DE00010BC7047F8B50446DFF8F0562E6A776CB1
:104DF0000120002194F9082001F0CAF938437064B9
:104E000005F124012046FFF78EFE0120F2BD70B5AA
:104E10000446DFF8C806056A6E6C0120002194F98B
:104E2000082001F0B5F926EA000068642046FFF783
:104E30007FFE012070BD012070472DE9FC41044632
:104E40000D4617461E46012000902A4604F1200117
:104E50002046FFF70DFF06EB460004EB800800201C
:104E6000009033463A4608F12C012046FFF700FF38
:104E700094F90800042801D0102801D104F0CAFADE
:104E8000019598F9300000903346627A94F9081041
:104E90000FF29060FEF7B6FABDE8F3812DE9FC4110
:104EA00004460E4617461D4601200090324604F186
:104EB00020012046FFF72AFF05EB450004EB8008A0
:104EC000002000902B463A4608F12C012046FFF7BF
:104ED0001DFF019698F9300000902B46627A94F9F4
:104EE00008100FF25460FEF78DFABDE8F381F8B5B3
:104EF00005460C4616461F46FFF70CFE2069B0F526
:104F00007A7F01DD00202061002F08D0686C032823
:104F100000DBA060A86C03280BDBE060F1BD002E75
:104F200007D1286D032800DBA060686D032800DB33
:104F3000E060F1BD38B50446A56A01230A4629465A
:104F4000FFF7D5FFA868012809DB2869012806DAE0
:104F5000E06D002801D5002032BD022032BD0020C6
:104F600032BD38B5044601EB410004EB8000456BCF
:104F700000230A4629462046FFF7B9FFA868012802
:104F800009DB2869012806DAE06D002801D5002038
:104F900032BD022032BD002032BD002900D5C9E754
:104FA000DFE7012900DA012113460A4645E7012916
:104FB00000DA012113460A4670E780B5DFF82405C0
:104FC000006F002806D11C210FF28050FEF71AFA5C
:104FD000002002BD417A481E8041C00F02BD134629
:104FE0004FF0FF32114628E713464FF0FF321146CB
:104FF00054E780B5DFF8EC044068002806D10121B1
:105000000FF24850FEF7FEF9002002BD417A002958
:1050100002D1C06F40688047012002BD80B5FFF714
:10502000F6FEDFF8C0044068002806D101210FF227
:105030003450FEF7E7F9002002BD417A002902D181
:10504000C06F80688047012002BDDFF89024126A9B
:10505000926D02F582725242C265C3E610B50446F3
:10506000012900DA012113460A46FFF7E6FE94F90A
:105070000800042801D0102803D1BDE8104004F036
:10508000C9B910BD10B500290FD5846A01230A469D
:105090002146FFF72CFFA068012804DB20690128C6
:1050A00001DA022010BD002010BDBDE8104058E715
:1050B000DFF82824126A926D02F582725242C265AC
:1050C00090E610B500290FD5846A01230A462146CF
:1050D000FFF70DFFA068012804DB2069012801DA31
:1050E000022010BD002010BDBDE8104039E7DFF8F8
:1050F000EC23126A926DA0325242C26572E610B57C
:1051000000290FD5846A01230A462146FFF7EFFEE6
:10511000A068012804DB2069012801DA022010BD03
:10512000002010BDBDE810401BE7B52900DAB4210E
:1051300013460A463C2180E6B52900DAB42113461D
:105140000A463C21AAE638B5044600292CD5A56AB2
:1051500001230A462946FFF7CAFEA868012821DB79
:10516000286901281EDA03212046FFF71DFE0028CA
:1051700018D194F96000014611F1010F04D100200B
:1051800084F86000012032BD002803D1012084F89A
:10519000600032BD012905D14FF0FF3084F8600076
:1051A000022032BD002032BDBDE83440D9E64FF0C8
:1051B000FF3280F86020DFF82423126A926DB43247
:1051C0005242C2650EE6DFF81423126A926D46322F
:1051D0005242C26506E680B5FFF704FEFEF7B3F85B
:1051E000002180F81811012002BD80B5FFF70FFEE5
:1051F000FEF7A9F8002180F81811012002BD70B453
:1052000000F114020023137253724361536043721E
:1052100093644FF0FF3380F860300023AF4D1E469B
:1052200009E003EB430400EB840484F8306030347D
:10523000667065605B1C022BF3DB3346137453749A
:1052400055614FF0FF33136353639363D363136468
:105250005364C16770BC704718B4A24A52F820204A
:10526000002A05D101460FF2FC2014BCFEF7CAB893
:1052700010720FF20833C2F88030401E212800F26D
:105280000481DFE810F02200600002013400990080
:105290007F0002018C0002010201020102010201F1
:1052A000530002014600D600CD00DF0002010201DA
:1052B000E80002010201F10002010201C000B30096
:1052C0007200FA0002010201A60084480823046A61
:1052D00084F85C30062393770A23D3772C30D06090
:1052E000184610610FF2B020C2F88000CDE07B4874
:1052F0000323046A5C346370062393770A23D3770D
:105300003830D060184610610FF2C420C2F8800017
:10531000BBE00C2090771020D0777348D06010202D
:1053200010610FF2C820C2F88000AEE00C20907728
:105330001020D0776D48D060102010610FF2C82087
:10534000C2F88000A1E065480823046A5C34A370B9
:10535000072393770B23D3775430D060184610611E
:105360000FF2A420C2F880008FE0062090770A2078
:10537000D0775F48D0600A2010610FF28C20C2F80D
:10538000800082E0062090770A20D0775948D060CC
:105390000A2010610FF28C20C2F8800075E0022014
:1053A00090770620D0775448D060062010610FF225
:1053B000C820C2F8800068E0122090771620D077CD
:1053C0004E48D060162010610FF27420C2F88000A1
:1053D0005BE0122090771620D0774948D0601620E5
:1053E00010610FF27820C2F880004EE00220907722
:1053F0000620D0774348D060062010610FF2942039
:10540000C2F8800041E0062090770A20D0773E481D
:10541000D0600A2010610FF29C10C2F8800034E0C6
:10542000012090770520D0773848D06005201061A2
:105430002BE0012090770520D0773548D0600520FB
:10544000106122E0042090770820D0773148D060A6
:105450000820106119E0012090770520D0772E48B0
:10546000D0600520106110E0012090770520D077F2
:105470002A48D0600520106107E0062090770A20B6
:10548000D0772748D0600A201061104614BCB6E6D9
:10549000144951F82000007F704710B50F4CFFF7FA
:1054A00039FB20624FF0FF30A060E06000202061F7
:1054B00004F0A7FE04F037F805F0D2FBFDF787F9FA
:1054C00005F039FEFDF7F7FBFDF7F7FC06F0B9F93B
:1054D00006F0E2F9BDE8104006F0E6B948180020F1
:1054E000981D0020C86900208C180020A8180020F2
:1054F000B8180020C418002000190020D01800207F
:10550000E818002008190020101900201C1900209C
:105510002C19002024190020341900203C190020E7
:10552000441900204144202564202564202564205E
:1055300025642C2025640000524D2025642025641C
:1055400020256420256420256400000073656E73A7
:105550006F722028256429202A206973206E756CBB
:105560006C00000073656E736F7228256429202A11
:10557000206973206E756C6C00000000374E0008C7
:10558000E54D0008374E00080F4E0008A34F0008F5
:10559000AF4F00089B4F0008BB4F0008E54D0008C7
:1055A000BB4F00080F4E0008A34F0008AF4F000884
:1055B0009B4F0008F34F0008E54D0008374E0008E8
:1055C0001D500008DF4F0008E94F00089B4F0008FE
:1055D000374E00084B500008374E00080F4E0008A9
:1055E0005D500008AF4F000885500008374E000896
:1055F000B1500008374E00080F4E0008A34F0008B6
:10560000AF4F0008C3500008374E0008EF500008A5
:10561000374E00080F4E0008A34F0008AF4F000898
:10562000FF500008374E0008AF510008374E000801
:105630000F4E00082B51000839510008475100084F
:10564000374E0008C7510008374E00080F4E0008BB
:10565000A34F0008AF4F00089B4F0008374E0008CB
:10566000C7510008374E00080F4E0008A34F00082E
:10567000AF4F00089B4F0008374E0008D751000875
:10568000374E0008EB510008A34F0008AF4F000849
:105690009B4F0008374E0008E54D0008374E0008C4
:1056A0000F4E0008A34F0008AF4F00089B4F0008A3
:1056B00013F0004C03D55B42524263F100039CEAB5
:1056C000210C00F0178010B5644603D349424042D4
:1056D00061F1000100F00EF8640004D34942404239
:1056E00061F10001244203D55B42524263F10003A1
:1056F00010BD00001B4213D1094236D12AB18446A5
:10570000B0FBF2F002FB10C2704706F095B9FCD373
:105710000022002370470B00020000210020704788
:10572000904271EB030CF6D370B5B1FA81F4B3FA81
:1057300083F52C1BA340C4F1200532FA05F6334350
:10574000A2405FF00046E64002E05B085FEA3202FA
:10575000841A71EB030524BF204629467641F4D311
:1057600002000B003000002170BD012ACFD970B5B6
:10577000140C20D0B1FA81F4B2FA82F5C4F12004FD
:105780006419B4F12006D6D3B2405FF00044F4406F
:10579000002502E052085FEA3303C61A71EB020EDD
:1057A00024BF3046714664416D41F3D302000B00C3
:1057B0002000290070BD0C46B1FBF2F102FB11453F
:1057C0002D0445EA1045B5FBF2F402FB145580B2F6
:1057D00040EA0545B5FBF2F002FB105240EA0440F6
:1057E00070BD0268531C0360117070470022FCF703
:1057F00055B9000008B584B00023029311B9009395
:10580000019302E00090481E019004AB00A90748F4
:105810007844183006F012F9009911B1009A00216D
:105820001170002858BF029805B000BD3BC3FFFFB0
:1058300000F10103810704D010F8011B89B1810731
:10584000FAD10268B2F10131914311F0803F04BFF7
:1058500050F8042FF6E710F8011B11B110F8011BE6
:10586000FBE7C01A7047000000B585B002460FF292
:10587000140100A806F0B8FF00A807F00BFA05B065
:1058800000BD00004F4525640000000034488168D9
:10589000002904BF08B008E0EFF30982A2F1280252
:1058A000036882E8F84F83685A6000F056F981680F
:1058B00059B14A6892E8F84F036002F1280282F376
:1058C000098813F47F4F3FD070472648264909685E
:1058D000401A80F308884FF08071C16123498161CB
:1058E0007FF0060E704701BC2046DFF884E000BD63
:1058F000FEE7204800681C490968401A203820F05B
:10590000070080F308884FF000011548417081F3CB
:10591000118862B600F014F8FEE703680CB44FF08B
:10592000000141704FF0000181F311881249134AC0
:105930000A604FF0800181F311880CBC036070474E
:105940000D490E4A0A6070474FF0000181F311883B
:10595000704700BF4FF0800181F31188704700BF8E
:10596000981D002028080020348501084FCF00082A
:10597000F15800080000000804ED00E000000010ED
:1059800010B4802080F3118800BF00BFDFF8C0078B
:105990008068DFF8BC1700220A71002181F31188AA
:1059A00000282ED0016800292BD04269016849697E
:1059B000914226D1016800E019000B68002B02D04B
:1059C0005C699442F8D0802282F3118800BF00BF46
:1059D000DFF87C271269824203D1DFF8742703685D
:1059E0001361026A036813601A6201620B68036044
:1059F0000268002A00D01862086091F8450081F81A
:105A00004400002080F3118810BC7047802080F390
:105A1000118800BF00BFDFF83C070068DFF83017CF
:105A2000096A401A01283ADADFF82407006A05E01B
:105A3000DFF81C170862002181F31188DFF81817BE
:105A40000978C90726D5802181F3118800BF00BFDE
:105A5000DFF8041709788907EAD5DFF8FC1609781A
:105A600011F0FD01DFF8F0261170002181F311889B
:105A7000DFF8DC16096A8842FAD0DFF8D41608622B
:105A8000DFF8D0060068401CDFF8C8160860DFF8B1
:105A9000C0164862802080F3118800BF00BF7047A5
:105AA00010B5DFF8AC0600214171DFF8A406006AEA
:105AB00010F18040DFF898164862DFF89406C0695C
:105AC000002805D0DFF88806DFF88416C969884702
:105AD000002080F31188DFF87806C4680EE0E068E3
